:1000000000180020C1000000E56D0000A96D00008F
:10001000A96D0000A96D0000A96D0000A96D000088
:10002000A96D0000A96D0000A96D0000E56D00003C
:10003000E56D0000A96D0000E56D0000996D000000
:10004000E56D0000E56D0000E56D0000E56D000068
:10005000E56D0000E56D0000E56D0000E56D000058
:10006000ED4F0000E56D0000E56D0000E56D00005E
:10007000F96E0000D16F000041580000E56D0000EE
:10008000E56D0000E56D0000E56D0000E56D000028
:10009000E56D0000E56D00001D720000E56D0000DB
:1000A000AD5A0000E56D0000E56D0000E56D000053
:1000B000E56D0000E56D0000E56D0000E56D0000F8
:1000C000F8B506F093FE0821474A484B1A60484AA3
:1000D000484B1A60484A494B1A60494B1A780A4201
:1000E00002D01A780A431A702A22464B46481A70E0
:1000F00000234649464C1A188A4203D2E558043375
:100100001560F8E70021434B434A934201D202C3F2
:10011000FBE70023414A424958589446985004331B
:10012000C02BF9D100210326FF2580248A083D4BEE
:100130009200D2180B002F003340DB009F40106864
:100140000131B84307002000984003003B4313608F
:100150002029EBD16246344B1A608A22334B1A7045
:10016000334B663A5A707C321A709E3A9979114232
:10017000FCD0102299791142FCD10C209A792C499B
:100180000240082AFAD1053A0A713D324A71203AF2
:1001900099791142FCD0402299791142FCD025492D
:1001A000254A11602021224A117014399A790A4097
:1001B0000C2AFBD1214A224B1A60224A224B1A6098
:1001C0000022224B1A60224B07321A60214A224B2E
:1001D0001A6062B605F008FA08F0D2F806F00CFED4
:1001E00006F08AFDFEE7C046300004F0348004408B
:1001F000823F0000388004400100000F3C80044032
:1002000002D0074000E0074030020020C005002077
:10021000BC950000C00500201812002000F9FF1F47
:100220000000000000E400E008ED00E0005006409F
:10023000004006400000011044800440C000050555
:10024000048004407FBB000014E000E018E000E000
:1002500010E000E00000202020ED00E0FFFFFFFFA5
:10026000FFFFFFFFFFFFFFFFFFFFFFFFFFFFFFFF9E
:10027000FFFFFFFFFFFFFFFFFFFFFFFFFFFFFFFF8E
:10028000FFFFFFFFFFFFFFFFFFFFFFFFFFFFFFFF7E
:10029000FFFFFFFFFFFFFFFFFFFFFFFFFFFFFFFF6E
:1002A000FFFFFFFFFFFFFFFFFFFFFFFFFFFFFFFF5E
:1002B000FFFFFFFFFFFFFFFFFFFFFFFFFFFFFFFF4E
:1002C000FFFFFFFFFFFFFFFFFFFFFFFFFFFFFFFF3E
:1002D000FFFFFFFFFFFFFFFFFFFFFFFFFFFFFFFF2E
:1002E000FFFFFFFFFFFFFFFFFFFFFFFFFFFFFFFF1E
:1002F000FFFFFFFFFFFFFFFFFFFFFFFFFFFFFFFF0E
:10030000FFFFFFFFFFFFFFFFFFFFFFFFFFFFFFFFFD
:10031000FFFFFFFFFFFFFFFFFFFFFFFFFFFFFFFFED
:10032000FFFFFFFFFFFFFFFFFFFFFFFFFFFFFFFFDD
:10033000FFFFFFFFFFFFFFFFFFFFFFFFFFFFFFFFCD
:10034000FFFFFFFFFFFFFFFFFFFFFFFFFFFFFFFFBD
:10035000FFFFFFFFFFFFFFFFFFFFFFFFFFFFFFFFAD
:10036000FFFFFFFFFFFFFFFFFFFFFFFFFFFFFFFF9D
:10037000FFFFFFFFFFFFFFFFFFFFFFFFFFFFFFFF8D
:10038000FFFFFFFFFFFFFFFFFFFFFFFFFFFFFFFF7D
:10039000FFFFFFFFFFFFFFFFFFFFFFFFFFFFFFFF6D
:1003A000FFFFFFFFFFFFFFFFFFFFFFFFFFFFFFFF5D
:1003B000FFFFFFFFFFFFFFFFFFFFFFFFFFFFFFFF4D
:1003C000FFFFFFFFFFFFFFFFFFFFFFFFFFFFFFFF3D
:1003D000FFFFFFFFFFFFFFFFFFFFFFFFFFFFFFFF2D
:1003E000FFFFFFFFFFFFFFFFFFFFFFFFFFFFFFFF1D
:1003F000FFFFFFFFFFFFFFFFFFFFFFFFFFFFFFFF0D
:10040000FFFFFFFFFFFFFFFFFFFFFFFFDEF9FFFF23
:1004100010B5064C2378002B07D1054B002B02D0DA
:10042000044800E000BF0123237010BDC005002078
:1004300000000000BC950000084B10B5002B03D055
:100440000749084800E000BF07480368002B00D1B7
:1004500010BD064B002BFBD09847F9E700000000C9
:10046000C4050020BC950000C0050020000000006D
:1004700070B5040008000D0008F0B7F8236802000A
:1004800029005B682000984770BD10B5FFF7F0FFAA
:1004900010BD70B5050006F0D3FA0400280006F080
:1004A0008FFA001970BDFFFF70B5274B1B78002B2A
:1004B00048D0264E33785A1C32700A2B42D9244C2D
:1004C00024492000FFF7E1FF234B2000196806F0C4
:1004D000B7FA224D20002900FFF7D7FF204B20005C
:1004E000196806F0ADFA29002000FFF7CEFF1D4B7A
:1004F0002000196806F0A4FA29002000FFF7C5FFC4
:10050000194B2000196806F09BFA29002000FFF71C
:10051000BCFF164B2000196806F092FA2900200053
:10052000FFF7B3FF124B2000196806F089FA290083
:100530002000FFF7AAFF0F4B20001968FFF7A9FF63
:100540000023337070BDC046E4050020DE050020A6
:10055000FC020020BE860000E0050020C6860000E8
:10056000FC05002000060020F405002010060020F5
:10057000200600202406002010B502F0F9FE01201C
:1005800002F00AFC042002F007FC022002F004FC46
:100590000023024A1370024A137010BDD20E0020CD
:1005A000D30E0020F8B50325414B42481968424C50
:1005B000424E0278002A74D022782A4271D01A68FA
:1005C0003768D21B182A6CD900F080FC3C4C237889
:1005D000012B07D13B4D3C492800FFF749FF28007C
:1005E00006F0EEF9394804F0E1FA394B00211878A9
:1005F00004F0CCFE374E3849307804F02DFE374DEC
:100600000121287804F0C2FE2878002104F08CFE35
:100610003078012104F0BAFE2878002104F084FE2D
:1006200000252F4B0221E85C013504F0AFFE032DBD
:10063000F7D100252B4B0121E85C013504F0A6FE23
:10064000032DF7D1FFF798FF00F0CCFD00231A002F
:10065000254E264899194A801918043300250A6046
:100660004C2BF7D1224B1D8000F0D0FD00F0CCFCCC
:1006700002F0BAFA2800012102F058F90A221D4BB3
:1006800025781A701C4B0F321A70012D0FD10D4CAA
:100690001A492000FFF7F9FE29002000FFF7F9FEB4
:1006A00005E01A68164F521ABA4282D98CE7F8BD93
:1006B000040F002097100020B4100020101200201A
:1006C00006060020FC020020C886000080020020F0
:1006D0005F0200205E020020007014473B020020F1
:1006E00060020020380200207C0B0020940A0020C9
:1006F000E00A0020280600201C06002007870000D2
:10070000C4090000024B1870024B19707047C046B4
:10071000280600201C06002070B5284B1A78284BAC
:100720001878002A45D0002104F0FEFD254A1178F2
:10073000002918D1244D254C2B782078DB0700D5D3
:10074000012104F0F1FD2B786078013300219B0733
:1007500000D4012104F0E8FD2B78A07801330021BA
:100760005B0727D425E01A4B1C78002C1ED10126EC
:10077000184801390078154DC9B2187011702878E1
:10078000314209D0210004F0CFFD6878210004F047
:10079000CBFDA87821000DE0310004F0C5FD68789C
:1007A000310004F0C1FDA878310003E0013C1C7069
:1007B00002E0012104F0B8FD70BDC04676020020C1
:1007C0003B020020280600200C06002038020020F2
:1007D000B90700201C060020F8B5164B1E88002E15
:1007E00026D0154D2B88002B02D0012B0BD01FE0FB
:1007F000124B09201A88124B198806F0D5F92B885C
:1008000001332B8014E00F4F0C4B3C8818880E4BA3
:1008100001341B88A4B23C80C018052106F0B6FD47
:10082000844205DD034B013E1E8000232B803B806C
:10083000F8BDC04614060020BA0700200A060020B2
:100840001E06002004060020DC050020F7B50E205F
:1008500004F07CFC7D4D2860152004F077FC7C4C76
:100860003221E37D584306F007FD7A4B80B20195B3
:100870000094794D984201D8286001E0754B2B60B7
:100880002B68002B01DA00232B60142004F05EFC9F
:10089000009B32219B7D584306F0EEFC6D4B80B2ED
:1008A0006E4C984201D8206001E06A4B23602368B7
:1008B000002B01DA00232360172004F047FC009B83
:1008C00032215B7E584306F0D7FC624B80B2644E07
:1008D000984201D8306001E05E4B33603368002BF2
:1008E00001DA00233360162004F030FC009B322133
:1008F0001B7E584306F0C0FC564B80B2594F9842BD
:1009000001D8386001E0534B3B603B68002B01DAB3
:1009100000233B60009BDB8BB42B11D0872252005D
:10092000934218D05A2B21D12A684F4B1A60336852
:100930002B60236833604B4B19681A60216015E007
:1009400022682B682A60474A4749236013680B6076
:100950003168116009E02B68434A1360414A11680D
:1009600029602168116032682260336005F00CFF55
:10097000002806DD05F0C0FE3C4B186004F040F88E
:10098000F4E73B4B1B78002B59D03A4A1388002BD5
:1009900012D13A6833689B1A374A0021525E9B1A7B
:1009A000364A136022682B689B1A354A0021525E32
:1009B0009B1A344A136015E0013B9BB21380002B55
:1009C00010D1284A3368126821689A1A009B12B223
:1009D0005A832B685B1A00991BB28B8326490A80C5
:1009E000274A1380FFF760FD009B244804229A5E8B
:1009F00003685142994201DDD31804E09A4201DABA
:100A00009B1A00E000230360009B1E4906229A5EA9
:100A10000B6854429C4201DDD31804E09A4201DA8B
:100A20009B1A00E000230B60019B09681A680068AC
:100A300003F08EFB144B186804F0BCFD01E000F0DD
:100A4000E9FDFFF769FEFFF7C7FEF7BDE0050020EF
:100A50003C020020FF030000FC05002000060020EF
:100A6000F40500201006002018060020F8050020DC
:100A700076020020720200200806002020060020D6
:100A80000E0600202406002034020020013810B594
:100A900009283CD806F0DCFB0A0E232505072E3179
:100AA0002935C82200E06422C8211CE0C822C821E0
:100AB000520029E0164A1388002B28D1FA2089B267
:100AC000C8334B43C0001B181248013103809620E5
:100AD000114B11801880114B6438188017E0C82220
:100AE00000E06422962149000EE0C822C82152008D
:100AF000890009E005220A4906E0FA2105220901D8
:100B000002E0FA22E6211201092006F04DF810BD9C
:100B1000140600201E0600200A060020DC05002026
:100B20008813000010B504F07FFB10BD70B5050000
:100B3000FFF79EFC0400280005F042FF001970BD7D
:100B4000D2B270B50500002A03D103681B6898472C
:100B500014E00A2A01D0012A04D10022280005F05D
:100B600041FF0BE0102A02D105F073FF06E0022AD4
:100B700002D105F084FF01E005F094FF0400280095
:100B800005F01EFF001970BDF0B53B4B85B01B781A
:100B900000900E000192394D012B27D1384C394974
:100BA0002000FFF7C3FF38492000FFF761FC102247
:100BB00029782000FFF7C4FF34492000FFF758FCD4
:100BC0000099200005F03CFF314F20003900FFF76D
:100BD0004FFC3100200005F033FF39002000FFF703
:100BE00047FC0A2201992000FFF7AAFF294A009B2F
:100BF0001168294C8C4663441360236827489B196D
:100C000023602978036816000090254A994207D18D
:100C10001168244B02911B68029928338B4228D813
:100C2000FF271368FD200393039A1E4B1A6004F0FC
:100C3000A7FD002004F0A4FD032004F0A1FD287806
:100C400004F09EFD3068384004F09AFD206838407A
:100C500004F096FD002004F093FD002004F090FDC8
:100C6000002004F08DFD0023009A336023602B7870
:100C7000136005B0F0BDC04606060020CC0700207A
:100C8000FC02002011870000238700002F8700004E
:100C90003C870000C0070020C4070020D4070020C4
:100CA000040F0020C807002010B5054A1378184328
:100CB0001070002211001000FFF766FF10BDC04643
:100CC000CC07002010B5054A137883431370002227
:100CD00011001000FFF758FF10BDC046CC070020E0
:100CE000034B1B781840431E9841C0B27047C04662
:100CF000CC07002070B5294B294E1B78294C012BBD
:100D00002FD1294D29492800FFF710FF2849280035
:100D1000FFF7AEFB102231782800FFF711FF2549BD
:100D20002800FFF703FF217810222800FFF708FFB3
:100D3000617810222800FFF703FFA1781022280015
:100D4000FFF7FEFEE17810222800FFF7F9FE217977
:100D500010222800FFF7F4FE617910222800FFF727
:100D6000EFFEFD2004F00CFD307804F009FD0020BA
:100D700004F006FD207804F003FD607804F000FD27
:100D8000A07804F0FDFCE07804F0FAFC207904F08F
:100D9000F7FC607904F0F4FC70BDC0460606002044
:100DA000CD070020CE070020FC0200203E87000077
:100DB0005387000060870000C2B270B50012E028BF
:100DC00004D10A490B781A430A700CE0F0280AD1C2
:100DD00000230748195C1C000500002902D00133DC
:100DE0008A42F7D12A55FFF785FF70BDCD07002055
:100DF000CE07002010B5C1B202120023E02A04D1B0
:100E00000C4A13788343137010E00B4A5C1CD31810
:100E10001878884201D02300F7E7991A052903D0F2
:100E2000597819700133F8E700235371FFF762FF17
:100E300010BDC046CD070020CE070020002310B50E
:100E4000054A137053709370D37013715371034A32
:100E50001370FFF74FFF10BDCE070020CD07002015
:100E6000F7B5002680270190019B9B5D002B25D0C4
:100E70005AB2002A08DB124AD45C40231C4204D038
:100E80004023104D9C4305E0002400253C4204D043
:100E90000D4DBC432800FFF78FFFF0231B021C43BE
:100EA0002000FFF789FF2000FFF7A4FF002D02D0EC
:100EB0002800FFF79FFF0136B6B2D5E7F7BDC04661
:100EC000AC91000002E0000040E0000010B5074BCC
:100ED0001B78012B03D106490648FFF727FE9C200B
:100EE00004F0EAFB0122044B1A7010BD0606002034
:100EF00071870000FC020020BC070020024B18781C
:100F0000431E9841C0B27047BC07002010B50121B4
:100F10000C2004F03BFA01210C2004F005FAFA2021
:100F2000000104F047FB0C20002104F02FFA10BD53
:100F300007B504F079F9034B1B680193019A024B42
:100F40001A6007BD040F0020C8070020F8B5144E32
:100F50008700BD59281E21D007F047FBAF23114A57
:100F60009B000130521B84B2D218121B92B2291975
:100F7000280007F048FA0023BB51F258954201D2ED
:100F8000121BF25004334C2BF7D1074B1888001B6F
:100F900080B21880AF239B00181A80B2F8BDC046FB
:100FA000940A0020D8070020E00A0020F8B50F00BE
:100FB0000500FFF7CBFF104B38001C8807F015FB2E
:100FC0000E4A23180020934214D80D4E39003619CA
:100FD000300007F002FB0B4BAD003800EE5007F07D
:100FE00004FB0134044B201880B21880AF239B000F
:100FF000181A80B2F8BDC046E00A0020BA0200000C
:10100000D8070020940A002070B5192312261B254A
:10101000174C18492380A6800120FFF7C7FF2581C0
:10102000A68115490320FFF7C1FF2682134904203A
:10103000FFF7BCFFA68212490520FFF7B7FF268302
:1010400010490620FFF7B2FF0623A383033BA384C6
:101050001F332385A31CDD872584A5852586A586CA
:101060002587A587A31D4834DD87258070BDC04630
:101070007C0B00208087000089870000918700009A
:101080009B870000A587000010B5064B8200064C28
:1010900099180220095E985C0123125900F026FC81
:1010A00010BDC0467C0B0020940A0020224A80001C
:1010B000835A10B5102B3AD00CD8072B1DD002D86C
:1010C000062B18D036E0082B1BD00F2B32D1002274
:1010D0001A4B2EE0452B0ED008D8392B13D03D2BC0
:1010E00028D1174BC05803F024F823E0462B04D036
:1010F000472B06D01EE0012000E0022001F04CFE4C
:1011000018E00420FAE710184388013BDBB21F2BDC
:1011100010D801229A4013000A490A689A430A4BE0
:101120000A601B78002B05D105F02AF802E00022A6
:10113000064B1A7010BDC0467C0B0020D20E00205A
:10114000940A0020F0110020D4100020D30E0020BB
:101150000A4B8000C35A01209A1F022A0DD93F3A38
:10116000022A0AD9042219009143392905D0002204
:101170000F3B9BB298425241D0B270477C0B00208B
:1011800073B5164A0500C000141866788E4220D147
:10119000835C062B12D80133DBB28354072B0DD1AD
:1011A000A378B3420AD0A6702800012E08D1FFF719
:1011B0006BFF0B4B1B680193019B636000240BE0EA
:1011C000FFF7C6FF0124002806D02800FFF76EFFB6
:1011D00002E0617000248454200076BDE40A0020FF
:1011E000040F00200021064A531C9932581E197022
:1011F00059700170997008339342F7D17047C04617
:10120000E40A002010B504F00FF810BD024B034AA9
:101210001A80034A5A807047CC0B002040540000CB
:1012200001A4FFFF10B5074C0721200005F0D6FAF6
:1012300020000421083005F0D1FAA188024805F009
:10124000CDFA10BDCC0B0020B487000070B504258A
:10125000074C07212000A58005F0C0FA20002900D6
:10126000083005F0BBFAA188024805F0B7FA70BD56
:10127000CC0B0020B0870000002310B5054C0721DF
:101280002000A38005F0AAFA20000421083005F010
:10129000A5FA10BDCC0B002010B5084C072120008A
:1012A00005F09CFA20000421083005F097FA200090
:1012B000A1880C3005F092FA10BDC046CC0B00207E
:1012C0000D4B0E4A1B6812680D499B1A0D4A9BB2C2
:1012D00013731B1253730C4B09681B685B1A9BB288
:1012E00093731B12D373094B1B6813741B12537433
:1012F000062393807047C046F405002010060020A6
:1013000000060020CC0B0020FC050020E00500209A
:1013100070B50E4D287804F027F8444244416878AF
:10132000E4B204F021F8002801D102231C43A8787C
:1013300004F01AF8002801D104231C43044B0020B8
:101340001A78A24201D01C70013070BD60020020EA
:10135000100C002010B5FFF7DBFF034A034B127897
:101360001A7301229A8010BD100C0020CC0B0020B3
:1013700070B5394C394B258962891D81A1790602E6
:101380009971D1B28E195E810100102319405FD18D
:10139000D2B22379112A1AD004D8002A07D0102AF1
:1013A00028D055E0812A07D0822A08D050E0002BAF
:1013B0004ED1FFF737FF4DE0002B49D104E0002B61
:1013C00046D1274A01331370264A137040E0022D9C
:1013D00008D0032D09D0002D3AD1002B38D1FFF7CA
:1013E00035FF37E0FFF76CFF01E0FFF7B3FFFFF7D2
:1013F00053FF2FE0042D0FD0052D26D0012D27D12E
:10140000022B25D1237B184A1380637B11881B0292
:10141000CB189BB213801BE0012B19D1257B134CF9
:1014200020781D4200D1190003F07EFF6078002172
:10143000AB0700D4012103F077FFA07800216B07F0
:1014400000D4012103F070FF02E0094803F05AFACA
:10145000FFF712FF012070BDF00B0020CC0B002025
:101460007402002076020020EC0B002038020020DD
:101470002906002070B55D4C030020780F2800D9A4
:10148000A8E005F0E5FE08191E253438425A5E65CD
:10149000697A9A9C9EA0402B01D13F3B9BE0202281
:1014A0009343412B00D0A0E00021514A403B1170F2
:1014B000504A237013708FE0542B00D08AE0523BC7
:1014C00089E000214C4A11704C4A5380032382E08A
:1014D0004A4A1B025188CB189BB25380002B04D17F
:1014E0001021454A13780B431370042373E0434AD9
:1014F000938005236FE0414A1B029188CB189BB271
:1015000093800F2B66D8062365E03C4ADDB29571C7
:101510003B4A3C481178002901D0002309E07F2193
:10152000027801320A40934204D0334A7D3913785D
:101530000B431370057007234DE0304A13810823D5
:1015400049E02E4A1B021189CB181381092342E07E
:101550002A4A53810A233EE02B4ADBB21370274A02
:101560009288002A05D00B2300222370274B1A6093
:1015700032E0DB072CD50C232DE0204A234D1189C6
:1015800005290AD18C202968FF30814205D82048DE
:101590004354002341184B7002E0296851180B7323
:1015A0002B6801332B609288934215D1164B1B7820
:1015B000DB070DD5237801330DE00D230BE00E235F
:1015C00009E00F2307E004210B4A13780B43137043
:1015D000632300E0002323702378632B05D1064B9F
:1015E0001878FFF7C5FE0023237070BDF80E0020A9
:1015F000110C002076020020120C0020F00B0020BD
:1016000074020020C80B0020EE0B0020140C0020F8
:101610002906002070B5184D2B88002B27D0174CB9
:1016200023780133DBB2002B00D180232370022307
:10163000134E33812378B37120237381FFF740FE6B
:10164000FFF72AFEFFF764FE002810D0237801334D
:10165000DBB2002B00D18023237003233381237856
:10166000B37120237381FFF775FEFFF715FE2888FD
:1016700080B203F09FFF70BDEC0B002075020020CC
:10168000CC0B002010B503F0CFFD10BD70B50022CB
:10169000050005F0A7F90400280005F091F90019EC
:1016A00070BDFFFFF0B5734C85B073492000FEF7A5
:1016B000ECFE72492000FFF739FA71492000FEF76D
:1016C000E4FE704D20006978FFF7E0FF6E492000CE
:1016D000FEF7DBFEA9782000FFF7D8FF6B4920005A
:1016E000FEF7D3FE0423E95E2000FEF7D2FE684930
:1016F0002000FEF7CAFE0623E95E2000FEF7C9FEC1
:1017000064492000FEF7C1FE29892000FEF7C1FED2
:1017100061492000FEF7B9FE69892000FEF7B9FE95
:101720005E492000FEF7B1FEA9892000FEF7B1FE58
:101730005B492000FEF7A9FEE9892000FEF7A9FE1B
:1017400058492000FEF7A1FE297C2000FFF79EFFEC
:1017500055492000FEF799FE698A2000FEF799FEA0
:1017600052492000FEF791FEA98A2000FEF791FE63
:101770004F492000FEF789FE29782000FFF786FFF9
:101780004C492000FEF781FEA97D2000FFF77EFF77
:1017900049492000FEF779FEE97D2000FFF776FF3A
:1017A00046492000FEF771FE297E2000FFF76EFFFC
:1017B00043492000FEF769FE697E2000FFF766FFBF
:1017C00040492000FEF761FEE98B2000FEF761FE34
:1017D00001353D492000FEF758FEE97F2000FFF764
:1017E00055FF002539492000FEF74FFE082D03DC88
:1017F00037492000FEF749FE013529002000FEF799
:1018000048FE34492000FEF740FE334EAB009E19DF
:101810000193331F1F88314BBF00DF19390003A824
:1018200006F0DBFE03A92000FEF72FFEFB78002B5D
:1018300018D0022B0DD9032B14D129492000FEF713
:1018400024FEAB00274A043BD1582000FEF71DFEC2
:1018500008E023492000023EFEF717FE31882000F1
:1018600005F0EEF820492000FFF760F9132DB9D1FB
:1018700005B0F0BDFC020020BA8700006302002022
:10188000C08700003C020020C7870000CE87000010
:10189000D5870000DC870000E3870000EA870000AE
:1018A000F1870000F8870000FF870000068800002D
:1018B0000D880000148800001B88000022880000AA
:1018C0002988000030880000378800003E8800002A
:1018D0004C8E0000458800007C0B002075890000BC
:1018E000598C0000940A00205A8C0000F0B51500B5
:1018F000B34A0C001178E7B00190170000293DD0E1
:10190000B04B1B78012B22D1AF4EB0493000FEF70F
:10191000BCFD00223978300005F064F8AC49300095
:10192000FEF7B3FD00220199300005F05BF8A949EC
:101930003000FEF7AAFD2100300005F081F8A5492E
:101940003000FEF7A2FD29003000FFF7EFF86946EE
:101950003878A14A0138898883009952D3185C806D
:10196000C0B2FFF7F3FA002D05D03878290001380E
:10197000C0B2FFF71BFB00233B70C4E2019A4B2A65
:1019800000D9C0E2100005F06DFC4C004E007E0056
:101990006800860072008D008F00930084006E0046
:1019A0009D009F00A400AA00AD00B4006A016E0172
:1019B0007A017E0181018701A201B901BE01D00136
:1019C000BE02B202B902DD01EF0104020602090201
:1019D0001D02200223022602650268026B026E02CB
:1019E0007102740277027A02840290029F029C02C2
:1019F000AA02BE00D100DB00ED00F70003010E01DA
:101A00004301A302720129022C022F0261027D020E
:101A1000A70280028D008F009300950097009B0025
:101A200076016E4915E0FEF7A7FD664B1B78012B8A
:101A300008D1654D6A492800FEF727FD21002800DE
:101A4000FEF727FD631E9BB2122B01D83C705AE2B1
:101A500064495D48FFF76AF855E2022001F0B4F9E5
:101A6000082003F0A7FD022001F096F94BE20120C7
:101A700001F0AAF9082003F09DFD012001F08CF986
:101A8000082003F097FD012001F09EF9082003F0E3
:101A900091FD0120E8E7042001F096F9082003F009
:101AA00089FD0FE0012000E0022001F08DF92AE21B
:101AB0000420FAE7012000E0022001F09DF922E273
:101AC0000420FAE70420CFE7474B187C404240B29D
:101AD00002E01020444B185601F0BAF913E2424BD1
:101AE0001C7410E2002B01D0404B05E019002000CF
:101AF00006E0002B02D03E4B1C7004E221001800CF
:101B000001F0C4F9FFE13B4B3B485A6810403B4AA7
:101B1000944200D91400240104435C60384B1B78C4
:101B2000002B00D0EFE104F02BFBECE1314B35480A
:101B30005A681040314A944200D91400A403EBE7DC
:101B40002E4B9C4200D91C002A4A210653689068FB
:101B50001B021B0A0B4353600323240A98430443CC
:101B60009460DBE7234B28489A681040234A94424C
:101B700000D91400A40008E01E4B24489A681040C5
:101B80001E4A944200D91400240304439C60C5E714
:101B9000013CE4B21F2C00D9B5E10123A340154A52
:101BA00011680B430AE0013CE4B21F2C00D9AAE102
:101BB0000123A3400F4A116899430B001360ADE75E
:101BC000180C002006060020FC02002049880000B6
:101BD000928C0000C68600007C0B0020628800000A
:101BE000718800005B9100003C020020D20E0020B2
:101BF000D30E0020F01100200FC0FFFFFF030000F4
:101C0000D4100020FF3F00FF03F0FFFFFF0FC0FFD5
:101C10000F23002C1CDB0023162C19DD0133432C71
:101C200016DD0133702C13DD01339D2C10DD0133E3
:101C3000CA2C0DDD0133F42C0ADD9222013352004F
:101C4000944205DD5222FF320023944200DC073328
:101C50000F22AE494868904303434B605EE728007B
:101C600001F0B4F94FE1280002F054FA4BE12800EA
:101C700002F05AFA47E1280002F060FA43E1280036
:101C800002F057FA3FE1FEF777FC3CE1FEF774FC07
:101C9000280000F00FFC36E1002D00D133E1FEF703
:101CA0006BFC280000F048FE0022994B99491A70FD
:101CB000994BDA8A8A4203D1198B914200D122E1F1
:101CC000598B964A11809A8B954B1A801BE1FEF72F
:101CD00053FC02238E4D00242B7000F085FF002260
:101CE000200001341100E4B200F000FD072CF6D111
:101CF00000200121287000F019FE04E1FEF73CFCF1
:101D000000F0EAFFFFE0874B814C1D78012D04D1E4
:101D100085498648FEF7B9FB2570FEF72DFC0020AB
:101D200000F00AFE00232370EDE07E4B1B78012BB0
:101D300003D17F497D48FEF7F9FEFEF71DFC00F058
:101D400031FAE0E0744BE4B21C70764B1B78012B47
:101D500000D0D8E075487749012C00D17AE6764961
:101D600000D977E6754975E66E4B1B78012B03D1D8
:101D700073496E48FEF7DAFE0F210620FEF7C2FC1B
:101D8000654B1A78002A01D1013200E000221A7056
:101D9000B9E0012200E000226A4BF8E7614B1B78B2
:101DA000012B03D168496148FEF7C0FE14210A20C7
:101DB000FEF7A8FC6422654B002101201A80FEF783
:101DC00065FEA0E0544B5C709DE0534B9C709AE024
:101DD000514B9C8097E0504BDC8094E04E4B1C8133
:101DE00091E04D4B5C818EE04E4B1B78012B08D16E
:101DF0004E4C57492000FEF748FB29002000FEF713
:101E000095FE2B78002B7ED000231A00297800291C
:101E100011D03B2902D1002A04D10CE05C2901D168
:101E2000002A05D05A1C02A8C154D3B2002200E0F7
:101E300001220135EAE7002202A90800CA5402F093
:101E400061FD2B785A1E9341ED18DAE7200003F06C
:101E5000B1FB58E0304B9C8155E02F4BDC8152E0C8
:101E60002D4B5C824FE02C4B9C824CE02A4B9C75A6
:101E700049E0294BDC7546E0274B1C7643E0264BB6
:101E80005C7640E0244BDC833DE0234B0133DC7780
:101E900039E0244B1B78012B03D12E492348FEF750
:101EA00045FE280001F004F92DE01E4B1B78012BA4
:101EB00003D129491D48FEF739FE280001F0B0F989
:101EC00021E001F0A5F91EE0280001F0A5F91AE0D3
:101ED000A0B201F03FFA16E001F036FA13E0012259
:101EE000104B1E491A701E4B92181A70B1E501234F
:101EF0000C4A1C4913701A4A1370AAE50023094AB8
:101F00001370174A137067B0F0BDC046F01100207F
:101F1000DF050020323200003C02002008060020CD
:101F20000E0600200606002086880000FC02002025
:101F300095880000A2880000BB880000D7880000B8
:101F4000F7880000E40500201B89000072020020D1
:101F50002D8900003C8900004E8900005E89000048
:101F6000190C00206D89000010B503F05DF910BD5B
:101F700010B5002204F036FD10BD10B5002204F0AB
:101F800031FD10BD10B503F04FF910BDF8B51C4C74
:101F9000A02223003B331A70230001275E331F70F9
:101FA000230005000E00010A5D33C9B220001F7036
:101FB00002F0ACFDE9B2200002F0A8FD31002000E3
:101FC00002F0A4FD3900200002F0C0FE052003F05D
:101FD000F1FA0C4B1B78022B10D10B4C0B49200053
:101FE000FEF753FA29002000FFF7C7FF0849200039
:101FF000FEF74BFA31002000FFF748FBF8BDC04662
:1020000080020020190C0020FC020020A58A00009C
:10201000588C0000F7B50D00002400902A5D002ABE
:1020200002D00134A4B2F9E726345649A4B2002301
:102030008858C65C002E02D001339BB2F9E7053305
:10204000E4180432A4B24C2AF1D14F4F3B78012B53
:1020500000D08DE04D4E4E493000FEF716FA2100BB
:102060003000FEF716FA009B002B02D19023494A5C
:102070001380009B474A5B00D45A3B78012B08D160
:10208000424E45493000FEF700FA21003000FEF7CD
:1020900000FA51212000FFF779FF601C80B2022175
:1020A000FFF774FF0026A71CBFB23C4BB819995D1F
:1020B00080B20136FFF76AFF222EF6D120002700FA
:1020C000243080B20021FFF761FF00262537BFB220
:1020D000A95D01363800B6B2FFF758FFAB19013BD6
:1020E0007C1C1B78A4B22700002BF1D11D00002618
:1020F0002B4FEF19A019B95D80B20136FFF746FFEB
:10210000042EF7D1201D80B20021FFF73FFF661D8E
:102110001C4B9334FF345F59A3B2B6B201933978A4
:102120003000FFF733FF3B78741CA4B2002B03D1BF
:1021300004354C2DDBD105E0019B013726009C4284
:10214000EDD1F5E7009B062B03D1124B8E331C809B
:1021500004E0009B0F4A01335B00D45200240D4B76
:102160002000195D0134FFF711FF902CF7D108E032
:10217000009B002B00D179E7009B064A5B00D45AF4
:1021800087E7F7BD940A0020190C0020FC0200200C
:10219000AF8A00001A0C0020BA8A00003C0200201E
:1021A0007C0B002070B5104B1B78012B03D10F491D
:1021B0000F48FEF7BBFC002426000E4D0021605B9B
:1021C000FFF7E4FE605B00210130FFF7DFFE66539E
:1021D00002340E2CF1D10024295D20000134FFF7D8
:1021E000D5FE902CF8D170BD190C0020CB8A0000D0
:1021F000FC0200201A0C0020F0B585B00293040008
:10220000002301910392019AD25C002A02D001338B
:102210009BB2F8E7404F414D3B78012B72D1404EC5
:1022200040493000FEF731F9029B3000D91CFEF71F
:1022300030F9002C01D13C4BEB81231D5B00ED18E4
:102240003B78EE88012B08D1354D38492800FEF740
:102250001CF931002800FEF71CF930006621B51E7C
:10226000013EFFF793FEB0B2BB21FFF78FFE0026C1
:10227000ADB2019B2800995DFFF788FE0136019BF6
:10228000B6B29B19013B1B786F1EBFB2002B01D069
:102290003D00EEE7AB1E9BB2029938000193FFF7B9
:1022A00075FE6B461B89039E02935B00ED1A023D8F
:1022B000ABB2019D0393039B9D420ED03178280061
:1022C000FFF764FE6F1E3188BFB2023D090A380075
:1022D000ADB2FFF75BFE0236EDE7029B019A5B00B1
:1022E000D31A9BB20D4D3E2C03D0053464002C193B
:1022F000E3800024295D20000134FFF747FE902C85
:10230000F8D106E0002C96D0231D5B00ED18EE8876
:10231000A3E705B0F0BDC046190C00201A0C002040
:10232000FC020020DE8A0000FF7F0000EC8A000033
:1023300070B5234CA02223003B331A7023000126E2
:102340005E331E7023000500010A5D33C9B2200010
:102350001E7002F0DBFBE9B2200002F0D7FB310077
:10236000200002F0F3FC330032005021200002F084
:102370006FFD230022003933383219781378FE3686
:10238000994206D00026994203D9591C1170E418CD
:10239000267E0C4B1B78022B10D10B4C0B492000D6
:1023A000FEF773F829002000FFF7E7FD0849200039
:1023B000FEF76BF831002000FFF768F9300070BDC0
:1023C00080020020190C0020FC020020018B00007C
:1023D000588C0000F0B5002485B001902E4B6200AF
:1023E000D55A002D43D02800FFF7A2FF51283ED137
:1023F000681C80B2FFF79CFF022838D100272535E2
:10240000ABB2019D0393039B019A2E789B1A5B1933
:1024100018000293FFF78CFF86421FD01F4B1B78DA
:10242000022B24D11E4E1F493000FEF72EF8390032
:102430003000FFF7A2FD1C493000FEF726F828788F
:1024400004F03CFA19493000FEF71FF80298FFF734
:102450006FFF01003000FFF719F908E02B78002B1F
:1024600003D0013701350F2FCDD160B211E0013417
:10247000072CB3D1094B1B78012B08D1084C0C4910
:102480002000FEF702F801992000FEF74FFB012023
:10249000404205B0F0BDC0461A0C0020190C0020C7
:1024A000FC0200200B8B0000598C00001F8B0000E9
:1024B000228B0000F8B50600FFF78CFF431C2DD1DE
:1024C0000024174B6200D55AE7B2002D06D1154BF8
:1024D0001B78012B1AD1144D144910E02800FFF786
:1024E00027FF512817D00135A8B2FFF721FF022896
:1024F00011D00C4B1B78012B08D10B4D0C49280037
:10250000FDF7C3FF39002800FFF7C0F860B23100C3
:10251000FFF780FD02E00134072CD2D1F8BDC046A0
:102520001A0C0020190C0020FC020020358B000042
:10253000408B0000F0B5002485B00090E3B2394A2A
:1025400003936300D318DD89002D56D02800FFF7D0
:10255000EFFE662851D1681E80B2FFF7E9FEBB2866
:102560004BD10026023D009FADB23B780193AB1BDF
:1025700018000293FFF7DCFE019B83421FD02A4B19
:102580001B78022B39D1294D29492800FDF77DFF01
:1025900031002800FFF7F1FC26492800FDF775FF00
:1025A000387804F08BF924492800FDF76EFF029873
:1025B000FFF7BEFE01002800FFF768F81DE03B783A
:1025C000002B03D0013601370F2ECED1164B1B78CE
:1025D000012B10D1154D19492800FDF756FF009920
:1025E0002800FDF752FF16492800FDF74EFF03991A
:1025F0002800FFF74BF860B211E001343F2C9DD169
:10260000094B1B78012B08D1084C0E492000FDF71F
:102610003CFF00992000FEF789FA0120404205B0F6
:10262000F0BDC0461A0C0020190C0020FC0200204E
:102630000B8B0000598C00001F8B0000518B000099
:10264000468C0000228B0000F8B503780700214C6F
:10265000002B26D0FFF76EFF1F4BC5B21B78012B56
:1026600010D11E4E1E493000FDF70FFF390030001B
:10267000FDF70BFF1B493000FDF707FF2900300075
:10268000FFF704F804356D006419E08890281FD91D
:10269000FF21FFF77BFCE088FF210138FFF776FC84
:1026A00016E0250010490D48FEF740FA0E358C342F
:1026B0002888902807D9FF21FFF768FC2888FF2188
:1026C0000138FFF763FC00232B800235A542EFD1D0
:1026D000F8BDC0461A0C0020190C0020FC02002096
:1026E000638B0000468C0000728B0000F0B585B053
:1026F00005000292062800D900257C4F002935D01C
:102700006B000193FE5A7A4B1B78012B08D1794C50
:1027100079492000FDF7B9FE29002000FEF7B6FF39
:10272000741C3000A4B2FFF703FE51280CD102360E
:102730002000B6B2FFF7FCFD022804D16B00FC5A62
:102740006E4B1D7004E034000135EDB2072DD7D17A
:102750002000FFF7EDFD512800D0B2E0601C80B2F0
:10276000FFF7E6FD022800D0ABE00EE06D007C5BD9
:102770002000FFF7DDFD512800D0B4E0601C80B2DE
:10278000FFF7D6FD022800D0ADE00234A4B2584BCA
:102790001A780393012A08D1564D59492800FDF7AC
:1027A00074FE21002800FDF774FE0025601980B238
:1027B000FFF7BEFD534B58550135222DF6D1524E31
:1027C00023343700A4B22000FFF7B2FD651CADB280
:1027D00030702C0001360028F5D14C4B1B78012BB2
:1027E00008D1444C4A492000FDF74FFE3900200033
:1027F000FEF79CF900260024F3B20193454BB70085
:10280000FF18281980B2FFF793FD38550134042CC6
:10281000F7D1281D6C1D80B2A4B2FFF789FD0028F6
:102820000BD0344F3C493800FDF72FFE601EFFF7F8
:102830007FFD01003800FEF729FF2000FFF778FD3B
:10284000002814D000272000FFF772FD3349651CD3
:10285000ADB2C855002803D10198FEF7A7FB08E0E8
:102860008E230137FF332C009F42ECD1F4E706356D
:10287000ADB20136132EBED1294B1A781D00002AA5
:1028800001D0FEF70FFF029B002B04D01B4B022050
:102890001978FEF7FBF8039B1B78002B09D0154C29
:1028A00020492000FDF7F1FD144B20001978FEF7B8
:1028B000EDFE2B78002B16D01B490E48FEF736F99B
:1028C00011E03C882000FFF733FD51280BD1601C3C
:1028D00080B2FFF72DFD022805D10022074B0234FC
:1028E000A4B21A7053E705B0F0BDC0461A0C002020
:1028F000190C0020FC020020888B00000C06002030
:10290000988B00003C020020630200200606002095
:10291000B78B00007C0B0020C78B0000290600202D
:10292000DF050020E08B0000ED8E000010B50122D5
:10293000FFF7DCFE10BDFFFF70B503780600002B2B
:1029400004D1134B18780130C0B21AE0FFF742FDF2
:10295000104B04001B78012B10D10F4D0F4928009C
:10296000FDF793FD31002800FDF78FFD0C4928008D
:10297000FDF78BFD21002800FDF78BFD002C02DB0D
:10298000E0B2012101E001210020FFF7CFFF70BD7F
:102990000C060020190C0020FC020020EA8B00002D
:1029A000468C0000F7B5070000910192FFF7C2FDC9
:1029B000431C29D10025154A6B00D318DC89EEB2DF
:1029C000002C0AD02000FFF7B3FC662819D0013C88
:1029D000A0B2FFF7ADFCBB2813D00D4B1B78012B29
:1029E00008D10C4C0C492000FDF74FFD31002000B0
:1029F000FEF74CFE019B009A39003000FFF7FCFB0C
:102A000002E001353F2DD6D1F7BDC0461A0C00209B
:102A1000190C0020FC020020F58B0000F8B5002501
:102A2000184A6B00D318DC89EEB22000FFF780FC57
:102A3000662822D1601E80B2FFF77AFCBB281CD129
:102A4000114F12493800FDF720FD31003800FFF723
:102A50008FFA023C0E493800A4B2FDF716FD661E3F
:102A60002000B6B2FFF764FC002803D003F026FF75
:102A70003400F4E7380003F0A3FF01353F2DCFD138
:102A8000F8BDC0461A0C0020FC020020068C000095
:102A9000928C0000F7B50E0000923F2801D9002467
:102AA00065E0344B0430344D400018182B78C4884E
:102AB000012B03D131493248FEF738F82000FFF7E7
:102AC00037FC6628EBD1601E80B2FFF731FCBB28D3
:102AD000E5D12B78023CA4B2012B08D1284D29491D
:102AE0002800FDF7D2FC21002800FDF7D2FC264D7E
:102AF0002000FFF71DFC671E2870BFB201350028BB
:102B000001D03C00F4E7214B1B78012B08D11C4D70
:102B10001F492800FDF7B9FC1E492800FEF706F8FA
:102B20003800FFF705FC009BA51E5B00E41A023C81
:102B3000A3B284B2ADB200936300EB1A9BB20193CF
:102B4000009B9D4213D0019B9D4210D02800FFF7AF
:102B5000EFFB6F1EBFB230803800FFF7E9FB338810
:102B60000002023D18183080ADB20236E8E72000BE
:102B7000FEBDC0461A0C0020190C0020108C00006D
:102B8000FC020020268C0000E5050020060600203F
:102B9000488C000063020020F7B5060001920F0088
:102BA000FFF7C8FC04000D4D0D492800FDF76DFC32
:102BB00031002800FDF769FC0A492800FDF765FC93
:102BC00021002800FDF765FC0020844204DBE0B210
:102BD000019A3900FFF75EFFFEBDC046FC020020EF
:102BE0005B8C0000468C0000F8B500252800FFF73C
:102BF0009FFB314C28550135902DF7D100231D0046
:102C00002E49CA5C0133AD18ADB20E2BF9D1208824
:102C1000FFF78EFB512838D120880130FFF788FB61
:102C2000022832D123008C331B88AB422DD1244B98
:102C30001B78012B3ED1234D23492800FDF776FF59
:102C40000026F1B22800FFF793F9204F2800390041
:102C5000FDF71BFC7300E15A28000136FDF719FC53
:102C6000072EEED10026F1B22800FFF781F93900D6
:102C70002800FDF70AFC7300E318D9892800013603
:102C8000FDF707FC3F2EEED114E004210220FDF7F2
:102C9000FDFE0F490B48FDF749FFFFF783FA0020BF
:102CA000FFF7D2FC23000B498C3300201D80FFF777
:102CB000B1F9BCE7F8BDC0461A0C002062880000DC
:102CC000190C0020FC0200206C8C0000588C0000C5
:102CD000948C0000A98C0000F8B50025174B6A0001
:102CE000D45AEEB22000FFF723FB512822D1601CFA
:102CF00080B2FFF71DFB02281CD1114F114938008B
:102D0000FDF7C3FB31003800FFF732F925340E49D7
:102D10003800A4B2FDF7B9FB661C2000B6B2FFF77D
:102D200007FB002803D003F0C9FD3400F4E73800A6
:102D300003F046FE0135072DD0D1F8BD1A0C002056
:102D4000FC020020AF8C0000928C00001F2310B505
:102D5000064A184011780843814206D000231070BB
:102D600019001A00180003F06FFC10BDA31000201A
:102D70001F2310B5074A184011780B00834399426E
:102D800006D0137000231A001900180003F05CFC31
:102D900010BDC046A310002070B50A4B05005A1C98
:102DA000D27F1C00D30701D5FFF7E2FF631CDB7F56
:102DB0009B0706D5FEF7A2F8002802D02800FDF7F1
:102DC00081FF70BD3C02002070B50A4B05005A1C03
:102DD000D27F1C00D30701D5FFF7B8FF631CDB7F50
:102DE0009B0706D5FEF78AF8002802D02800FDF7D9
:102DF0005BFF70BD3C02002070B5134B04005A1CF1
:102E0000D27F1D00D30709D5104B1A780240D30694
:102E100002D0FFF7ADFF01E0FFF798FF6B1CDB7FEF
:102E20009B070FD5FEF76AF800280BD02000FDF7AE
:102E300057FF002803D02000FDF744FF02E02000E8
:102E4000FDF732FF70BDC0463C020020A3100020F9
:102E500070B50D4B05005A1CD27F1C00D30705D559
:102E6000002302001900180003F0EEFB631CDB7F57
:102E70009B0708D5FEF742F8002804D00021EAB2EB
:102E80000800FDF781FE70BD3C020020F8B505008A
:102E90000E0001272B004C4C803301DB022724E07D
:102EA000631CDB7F3B4206D0002380201A00190000
:102EB000404203F0C9FB0134E37F9B0703D5FEF7D3
:102EC0001DF8002865D18035E4E70122631CDB7F13
:102ED000134205D000237F201A00190003F0B4FB31
:102EE000631CDB7F3B4204D17F3D7F2DEDDC01275E
:102EF00014E0FEF703F8002852D1F5E7631CDB7FEE
:102F00003B4206D0002380211A004942180003F0FA
:102F10009BFB631CDB7F9B0705D48036330080332B
:102F2000ECDB022714E0FDF7E9FF00283ED1F4E7CF
:102F30000122E318DB7F134205D000237F211A0012
:102F4000180003F081FB631CDB7F3B4204D17F3E12
:102F500001237F2EECDC04E0FDF7D0FF00282CD10C
:102F6000F5E7621CD27F1A4205D0002371B268B225
:102F70001A0003F069FB0134E37F9B0723D5FDF7BB
:102F8000BDFF00281FD0002231002800FDF7FCFD06
:102F900019E00022802011004042FDF7F5FD92E784
:102FA00000227F201100FDF7EFFD9DE70022802128
:102FB00010004942FDF7E8FDAFE700227F21100035
:102FC000FDF7E2FDC3E7F8BD3C02002070B5104BF1
:102FD00005005A1CD27F1E00D3070DD500242800FF
:102FE00005F003FBA04207D9285D03F0D1F9285D65
:102FF00003F054FA0134F2E7731CDB7F9B0706D51C
:10300000FDF77CFF002802D02800FDF729FF70BDE6
:103010003C02002070B50B4B05005A1CD27F1C00EF
:10302000D30702D580B203F0B3F9631CDB7F9B07A3
:1030300006D5FDF763FF002802D02800FDF7BCFE8F
:1030400070BDC0463C02002070B50B4B05005A1CF9
:10305000D27F1C00D30702D580B203F01FFA631C95
:10306000DB7F9B0706D5FDF749FF002802D028002B
:10307000FDF7C0FE70BDC0463C02002010B5094BF4
:103080005A1CD27F1C00D30701D503F05DFA631CE4
:10309000DB7F9B0705D5FDF731FF002801D0FDF749
:1030A000CDFE10BD3C02002010B502F0BDF810BDF1
:1030B000F0B5032787B00090454C23680493049E25
:1030C0002368444A0593059B9B1B934201D94249BF
:1030D00036E0424D287802F047F902950028EFD1FA
:1030E0003F4B1A780393012A03D13E493E48FDF72E
:1030F0001DFD0126002402F039FA019002F036FA93
:10310000019BC51A394B1B689D421DD3344B1B785C
:10311000012B03D136493448FDF708FD354B1C70AF
:10312000FA240123E418E4B25E40F92CE3D9314ECD
:103130003278052A14D8013FFFB2002FBCD12E49A6
:103140002948FDF7F3FC41E0029B187802F00CF9E6
:10315000B042D3D1FA2CE4D0284A63009D52E0E774
:10316000264F00983900FFF71DFC00210920FDF7CC
:103170008DFC039B1C4C1B78012B13D12049200094
:10318000FDF7D4FC00253378AB4207D96B00F95A20
:1031900020000135FDF77DF9EDB2F4E71949200073
:1031A000FDF7C4FC18492000FDF762F900992000E2
:1031B000FDF75EF915492000FDF75AF93178002234
:1031C000200003F00FFC200003F0FAFB07B0F0BD75
:1031D000040F00200F270000B48C00005F020020C5
:1031E00006060020CD8C0000FC02002078020020A2
:1031F000E18C0000AA0C0020FA8C0000AC0C00202E
:10320000168D00002A8D0000398D00003C870000DB
:1032100010B5FFF703FC10BD10B5FFF715FA10BD90
:10322000F0B53E4C87B0FA2221000390FFF7B4FCC2
:103230003B4B3C4FC0B21870059304943B78002878
:1032400006D1012B68D138493848FDF76FFC63E09F
:10325000012B16D1354D36492800FDF767FC0024B7
:10326000059B1B78A34208D9049A6300D15A280011
:103270000134FDF70EF9E4B2F2E72E492800FDF71C
:1032800055FC01260024059B2B4D1B78A34227D912
:10329000049A6300D35A019302F068F902902878E7
:1032A000002E0FD0802102F0A7F802F05FF9029BF8
:1032B000C01A019B8342F8D22878002102F09CF8C2
:1032C00000260AE0310002F02FF802F04FF9029BCD
:1032D000C01A019B8342F8D201260134E4B2D2E73E
:1032E00000210920FDF7D2FB3B78012B10D10F4CB8
:1032F00012492000FDF7BCF803992000FDF7B8F84B
:103300000F492000FDF7B4F80E492000FDF70EFC30
:103310002878002102F008F807B0F0BDAC0C0020BE
:10332000AA0C002006060020478D0000FC020020A9
:10333000168D00002A8D00005E0200205B8D0000CB
:103340003C870000E505002010B50020FFF77CF960
:1033500010BDFFFF012804D9FA239B005843014BFD
:10336000186070477802002010B501F05DFF10BDB5
:1033700010B5FFF783FE00231900034A9950043368
:10338000202BFBD110BDC046A00E0020002310B59D
:10339000064A99008C58002C00D188505158884218
:1033A00002D00133072BF4DD10BDC046A00E002073
:1033B000002330B50B499A0055580C0085420CD1BA
:1033C0008A180021072B05D050184068013350504F
:1033D0000431F7E70023E36102E00133072BEADD64
:1033E00030BDC046A00E00200023054A99588142F6
:1033F00004D00433202BF9D1002000E001207047D5
:10340000A00E002010B50400032916D8080003F010
:103410001FFF0E0E07022000FFF7E6FF002806D070
:103420002000FFF7C5FF2000FFF70EFE05E020009B
:10343000FFF7ACFF2000FFF7EDFD10BD70B50400F5
:103440000D0005F0D2F8023004F0C0FF06002100A4
:1034500005F0C3F8300005F0C8F8301801380378DB
:10346000D24C202B03D02100300005F09FF8210022
:10347000300005F0C1F8041E01D100F0C9FDCC49AF
:1034800005F0A1F8002803D12900CA48FFF7BAFFC8
:10349000C949200005F097F8002803D12900C74842
:1034A000FFF7B0FFC649200005F08DF8002803D1D2
:1034B0002900C448FFF7A6FFC349200005F083F8A0
:1034C000002803D12900C148FFF79CFFC049200014
:1034D00005F079F8002803D12900BE48FFF792FFD4
:1034E000BD49200005F06FF8002803D12900BB4832
:1034F000FFF788FFBA49200005F065F8002803D1DE
:103500002900B848FFF77EFFB749200005F05BF8B7
:10351000002803D12900B548FFF774FFB449200003
:1035200005F051F8002803D12900B248FFF76AFFDF
:10353000B149200005F047F8002803D12900AF4821
:10354000FFF760FFAE49200005F03DF8002803D1E9
:103550002900AC48FFF756FFAB49200005F033F8CF
:10356000002803D12900A948FFF74CFFA8492000F3
:1035700005F029F8002803D12900A648FFF742FFEB
:10358000A549200005F01FF8002803D12900A34811
:10359000FFF738FFA249200005F015F8002803D1F5
:1035A0002900A048FFF72EFF9F49200005F00BF8E7
:1035B000002803D129009D48FFF724FF9C492000E3
:1035C00005F001F8002803D129009A48FFF71AFFF7
:1035D0009949200004F0F7FF002803D129009748FB
:1035E000FFF710FF9649200004F0EDFF002803D1FB
:1035F00029009448FFF706FF9349200004F0E3FFF9
:10360000002803D129009148FFF7FCFE90492000D3
:1036100004F0D9FF002803D129008E48FFF7F2FEFD
:103620008D49200004F0CFFF002803D129008B48EA
:10363000FFF7E8FE8A49200004F0C5FF002803D107
:1036400029008848FFF7DEFE8749200004F0BBFF11
:10365000002803D129008548FFF7D4FE84492000C3
:1036600004F0B1FF002803D129008248FFF7CAFE09
:103670008149200004F0A7FF002803D129007F48DA
:10368000FFF7C0FE7E49200004F09DFF002803D113
:1036900029007C48FFF7B6FE7B49200004F093FF29
:1036A000002803D129007948FFF7ACFE78492000B3
:1036B00004F089FF002803D129007648FFF7A2FE15
:1036C0007549200004F07FFF002803D129007348CA
:1036D000FFF798FE7249200004F075FF002803D11F
:1036E00029007048FFF78EFE6F49200004F06BFF41
:1036F000002803D129006D48FFF784FE6C492000A3
:1037000004F061FF002803D129006A48FFF77AFE20
:103710006949200004F057FF002803D129006748B9
:10372000FFF770FE6649200004F04DFF002803D12A
:1037300029006448FFF766FE6349200004F043FF58
:10374000002803D129006148FFF75CFE6049200092
:1037500004F039FF002803D129005E48FFF752FE2C
:103760005D49200004F02FFF002803D129005B48A9
:10377000FFF748FE5A49200004F025FF002803D136
:1037800029005848FFF73EFE5749200004F01BFF70
:10379000002803D129005548FFF734FE5449200082
:1037A00004F011FF002800D0A8E0A3E0598C00002D
:1037B000658D000002E000006F8D000001E0000058
:1037C000788D000004E00000808D000040E00000E3
:1037D0008E8D000008E00000968D000080E0000063
:1037E000A48D000052F00000AB8D000051F00000ED
:1037F000B48D000050F00000BD8D00004FF00000BF
:10380000C78D000028F00000D18D00002CF00000D2
:10381000DB8D000029F00000E38D00002AF000009D
:10382000F18D00002BF00000F98D000039F0000050
:10383000078E00003AF000000E8E00003BF0000002
:10384000158E00003CF000001C8E00003DF00000D2
:10385000238E00003EF000002A8E00003FF00000A2
:10386000318E000040F00000388E000041F0000072
:103870003F8E000042F00000468E000043F0000042
:103880004E8E000044F00000568E000045F000000F
:103890005E8E000068F00000668E000069F0000097
:1038A0006E8E00006AF00000768E00006BF0000063
:1038B0007E8E00006CF00000868E00006DF000002F
:1038C0008E8E00006EF00000968E00006FF00000FB
:1038D0009E8E000070F00000A68E000071F00000C7
:1038E000AE8E000072F00000B68E000073F0000093
:1038F000BE8E00002900D448FFF784FDD349200084
:1039000004F061FE002803D12900D148FFF77AFDB9
:10391000D049200004F057FE002803D12900CE48EA
:10392000FFF770FDCD49200004F04DFE002803D1C3
:103930002900CB48FFF766FDCA49200004F043FE8A
:10394000002803D12900C848FFF75CFDC7492000C3
:1039500004F039FE002803D12900C548FFF752FDC5
:10396000C449200004F02FFE002803D12900C248DA
:10397000FFF748FDC149200004F025FE002803D1CF
:103980002900BF48FFF73EFDBE49200004F01BFEA2
:10399000002803D12900BC48FFF734FDBB492000B3
:1039A00004F011FE002803D12900B948FFF72AFDD1
:1039B000B849200004F007FE002803D12900B648CA
:1039C000FFF720FDB549200004F0FDFD002803D1DC
:1039D0002900B348FFF716FDB249200004F0F3FDBB
:1039E000002803D12900B048FFF70CFDAF492000A3
:1039F00004F0E9FD002803D12900AD48FFF702FDDE
:103A0000AC49200004F0DFFD002803D12900AA48BA
:103A1000FFF7F8FCA949200004F0D5FD002803D1E8
:103A20002900A748FFF7EEFCA649200004F0CBFDD3
:103A3000002803D12900A448FFF7E4FCA349200093
:103A400004F0C1FD002803D12900A148FFF7DAFCEA
:103A5000A049200004F0B7FD002803D129009E48AA
:103A6000FFF7D0FC9D49200004F0ADFD002803D1F4
:103A700029009B48FFF7C6FC9A49200004F0A3FDEB
:103A8000002803D129009848FFF7BCFC9749200083
:103A900004F099FD002803D129009548FFF7B2FCF6
:103AA0009449200004F08FFD002803D1290092489A
:103AB000FFF7A8FC9149200004F085FD002803D100
:103AC00029008F48FFF79EFC8E49200004F07BFD03
:103AD000002803D129008C48FFF794FC8B49200073
:103AE00004F071FD002803D129008948FFF78AFC02
:103AF0008849200004F067FD002803D1290086488A
:103B0000FFF780FC8549200004F05DFD002803D10B
:103B100029008348FFF776FC8249200004F053FD1A
:103B2000002803D129008048FFF76CFC7F49200062
:103B300004F049FD002803D129007D48FFF762FC0D
:103B40007C49200004F03FFD002803D129007A4879
:103B5000FFF758FC7949200004F035FD002803D117
:103B600029007748FFF74EFC7649200004F02BFD32
:103B7000002803D129007448FFF744FC7349200052
:103B800004F021FD002803D129007148FFF73AFC19
:103B90007049200004F017FD002803D129006E4869
:103BA000FFF730FC6D49200004F00DFD002803D123
:103BB00029006B48FFF726FC6A49200004F003FD4A
:103BC000002803D129006848FFF71CFC6749200042
:103BD00004F0F9FC002803D129006548FFF712FC26
:103BE0006449200004F0EFFC002803D1290062485A
:103BF000FFF708FC6149200004F0E5FC002803D130
:103C000029005F48FFF7FEFB5E49200004F0DBFC63
:103C1000002803D129005C48FFF7F4FB5B49200032
:103C200004F0D1FC002803D129005948FFF7EAFB32
:103C30005849200004F0C7FC002800D0AEE029005D
:103C40005548FFF7DFFBA9E049F00000C98E0000EE
:103C50004AF00000D28E00004BF00000DE8E000023
:103C60004CF00000E98E00004DF00000F18E0000E5
:103C70004EF00000FF8E000004F00000058F0000F1
:103C800005F000000B8F000006F00000118F00000F
:103C900007F00000178F000008F000001D8F0000E3
:103CA00009F00000238F00000AF00000298F0000B7
:103CB0000BF000002F8F00000CF00000358F00008B
:103CC0000DF000003B8F00000EF00000418F00005F
:103CD0000FF00000478F000010F000004D8F000033
:103CE00011F00000538F000012F00000598F000007
:103CF00013F000005F8F000014F00000658F0000DB
:103D000015F000006B8F000016F00000718F0000AE
:103D100017F00000778F000018F000007D8F000082
:103D200019F00000838F00001AF00000898F000056
:103D30001BF000008F8F00001CF00000958F00002A
:103D40001DF000009B8F00001EF00000A18F0000FE
:103D50001FF00000A78F000020F00000AD8F0000D2
:103D600021F00000B38F000022F00000B98F0000A6
:103D700023F00000BF8F000024F00000C58F00007A
:103D800025F00000CB8F000026F00000D18F00004E
:103D900027F00000D78F000048F000009E49200067
:103DA00004F011FC002803D129009C48FFF72AFBEE
:103DB0009B49200004F007FC002803D12900994802
:103DC000FFF720FB9849200004F0FDFB002803D1F9
:103DD00029009648FFF716FB9549200004F0F3FBF5
:103DE000002803D129009348FFF70CFB92492000DB
:103DF00004F0E9FB002803D129009048FFF702FBFB
:103E00008F49200004F0DFFB002803D129008D48F2
:103E1000FFF7F8FA8C49200004F0D5FB002803D105
:103E200029008A48FFF7EEFA8949200004F0CBFB0D
:103E3000002803D129008748FFF7E4FA86492000CB
:103E400004F0C1FB002803D129008448FFF7DAFA07
:103E50008349200004F0B7FB002803D129008148E2
:103E6000FFF7D0FA8049200004F0ADFB002803D111
:103E700029007E48FFF7C6FA7D49200004F0A3FB25
:103E8000002803D129007B48FFF7BCFA7A492000BB
:103E900004F099FB002803D129007848FFF7B2FA13
:103EA0007749200004F08FFB002803D129007548D2
:103EB000FFF7A8FA7449200004F085FB002803D11D
:103EC00029007248FFF79EFA7149200004F07BFB3D
:103ED000002803D129006F48FFF794FA6E492000AB
:103EE00004F071FB002803D129006C48FFF78AFA1F
:103EF0006B49200004F067FB002803D129006948C2
:103F0000FFF780FA6849200004F05DFB002803D128
:103F100029006648FFF776FA6549200004F053FB54
:103F2000002803D129006348FFF76CFA624920009A
:103F300004F049FB002803D129006048FFF762FA2A
:103F40005F49200004F03FFB002803D129005D48B1
:103F5000FFF758FA5C49200004F035FB002803D134
:103F600029005A48FFF74EFA5949200004F02BFB6C
:103F7000002803D129005748FFF744FA564920008A
:103F800004F021FB002803D129005448FFF73AFA36
:103F90005349200004F017FB002803D129005148A1
:103FA000FFF730FA5049200004F00DFB002803D140
:103FB00029004E48FFF726FA4D49200004F003FB84
:103FC000002803D129004B48FFF71CFA4A4920007A
:103FD00004F0F9FA002803D129004848FFF712FA43
:103FE0004749200004F0EFFA002803D12900454892
:103FF000FFF708FA4449200004F0E5FA002803D14D
:1040000029004248FFF7FEF941490020FFF731FA45
:10401000300004F0E5F970BDE18F000047F00000CA
:10402000F18F000053F00000FE8F000046F000000A
:104030000E90000033F000001C90000036F00000ED
:104040002690000037F00000319000002DF00000B5
:104050003B9000002EF000004590000038F000007A
:104060004F90000031F000005D9000002FF0000044
:104070006C90000030F000007C90000034F00000F4
:104080008690000035F000009090000065F0000080
:104090009990000054F00000A690000055F0000038
:1040A000B590000056F00000C290000057F00000EC
:1040B000CE90000058F00000DB90000059F00000A6
:1040C000E49000005AF00000ED9000005BF000006A
:1040D000F69000005CF00000FF9000005DF0000032
:1040E000089100005EF00000119100005FF00000F8
:1040F0001A91000060F000002391000061F00000C0
:104100002C91000062F000003591000063F0000087
:10411000598C000010B504000021FFF78FF902212F
:104120002000FFF78BF910BD10B50121FFF786F9CC
:1041300010BD10B50221FFF781F910BD10B50321A4
:10414000FFF77CF910BD10B501F06EF810BDFFFF50
:10415000F0B5BC4B87B01B68BB4D0593059CBB4BB2
:1041600006001C602B681700E01A009104F0AEF8FE
:10417000B74B2C601860B74903F0DAFBB64AB74C6E
:10418000136820600394B649BB4203DA0123B548A3
:10419000037006E00020B34C2070BB4201DD012318
:1041A00000E000230B70B04B176001931A780023D6
:1041B0009A4200D0C833AD4C2078062800D9C4E01C
:1041C00003F046F80419296878C3B300019B5B8AA1
:1041D0009F4205DD0123002105202370FCF756FCDA
:1041E000019B9B8A9F4200DBAFE0032000212070EF
:1041F000FCF74CFCA9E0019BDA899D4B974202DA5F
:104200001A68013200E000221A601B68132B00DCE0
:1042100028E302233CE000995A428A4208DD00214B
:104220000620FCF733FC0F20FCF72EFF0F202CE0BC
:10423000B24208DD00210620FCF728FC1120FCF723
:1042400023FF112021E0B34208DA00210620FCF709
:104250001DFC1220FCF718FF122016E0009A934272
:1042600008DA00210620FCF711FC1020FCF70CFFF7
:1042700010200AE07E4A13680133C82B5ADD002360
:104280000A201360FCF700FF0A20FCF70FFF06234B
:1042900023705AE0019B9A89754B974202DD1A6898
:1042A000013200E000221A601B68132B00DCD9E207
:1042B0000423EDE700995A42914208DA00210420D4
:1042C000FCF7E4FB0B20FCF7DFFE0B20DDE796425A
:1042D00008DA00210420FCF7D9FB0D20FCF7D4FEFE
:1042E0000D20D2E7B34208DA00210420FCF7CEFB10
:1042F0000E20FCF7C9FE0E20C7E7009A934208DAA9
:1043000000210420FCF7C2FB0C20FCF7BDFE0C20B2
:10431000BBE7574A13680133C82B0BDD0023082085
:104320001360FCF7B1FE0820AFE7514A1368013370
:104330001E2B01DC136095E2002515602570FCF74B
:1043400051FF4C4B1D704C4B1D7023780024A34231
:1043500000D087E2494D285D01F006F84142414115
:104360002000C9B20134FCF70BFF032CF2D12878EE
:1043700000F0FAFF424C051E0ED1C82223689200BD
:1043800001332360934209D101000A20FCF77EFB30
:10439000FCF7BCFD256001E000232360354D2C783F
:1043A000012C10D0002C02D0022C24D035E02E4B52
:1043B000DB899F4231DD21000820FCF767FB0123E8
:1043C0002B70304B28E0274B1A782E4B002A0CD14B
:1043D0001A78511C19700F2A1FD9022209202A703D
:1043E00008321A70FCF750FE17E01A78002A14D031
:1043F000013A1A7011E0234B1A78002A01D0013AD1
:104400001A70194AD289974207DA1C78002C04D115
:104410000920FCF74BFE174B1C70174D2C78012C14
:1044200034D01149002C02D0022C47D057E08B89A0
:104430009F4254DA21000720FCF728FB01232B7050
:10444000114B4BE0040F0020CC0E0020C40E0020C6
:10445000E00E002020BCBE4C7C020020F00E0020AC
:10446000DA0E0020D10E00203C020020C80E0020F1
:10447000DC0E0020C00E0020E40E002060020020B0
:10448000F40E0020C10E0020D00E0020BC4B1A7884
:10449000BC4B002A0CD11A78511C19700F2A1ED956
:1044A000022207202A7008321A70FCF7EDFD16E090
:1044B0001A78002A13D0013A1A7010E0B14B1A781A
:1044C000002A01D0013A1A708A89974207DD1C78C8
:1044D000002C04D10720FCF7E9FDAB4B1C70002039
:1044E000AA4B1856002804D1A94B1B785BB2002BAD
:1044F0000AD0A84A1378591C11709B0704D10021D7
:10450000A34B5956FEF7C2FCA34D2B780293012B07
:1045100000D096E0288903F091FEA04903F008FA44
:104520009F4C0290002E01D1268006E022889D4BF0
:104530009A4202D86B89D3182380009A9A4B002A9A
:1045400002D16A46128806E01988964A914203D839
:10455000914A52898A181A80039B1D68019B5878DA
:10456000704303F06BFE291C03F0ACFB061C208893
:1045700003F064FE011C301C03F0A4FB071C011CAB
:10458000029803F001F8002800D0029F8022029BCD
:1045900012069E18311C381C02F0F6FF002800D0CD
:1045A000371C824C381C216803F04CF8019B2060BA
:1045B000071C9878009B4343180003F03FFE291C1A
:1045C00003F080FB784B051C188803F037FE011CB4
:1045D000281C03F077FB051C011C029802F0D4FF95
:1045E000002800D0029D311C281C02F0CDFF0028BD
:1045F00000D0351C6E4E281C316803F023F8051CD2
:104600003060381C03F0F8FD0700281C03F0F4FDAF
:104610003B000500034303D001003800FEF736FCE1
:10462000380003F00BFE011C206803F05FFC2060E3
:10463000280003F003FE011C306803F057FC3060D3
:1046400010E1029B002B16D1009B0320D90FFCF731
:1046500097FD009B0420D917C91AC90FFCF790FDDC
:10466000F10F0520FCF78CFDF117891BC90F0620FF
:10467000FCF786FDF6E0009B4D4C002B03D1882310
:10468000DB05236012E0A87803F0D8FD051C009834
:1046900003F0D4FD011C281C03F014FB454903F072
:1046A00047F98821C90502F0CDFF20603F4D002E5B
:1046B00003D18823DB052B6013E0019B587803F0BE
:1046C000BDFD071C300003F0B9FD011C381C03F0D0
:1046D000F9FA384903F02CF98821C90502F0B2FF34
:1046E000286000272868391C02F04EFF002800D0FF
:1046F0002F60314F2868391C02F05AFF002800D083
:104700002F6000272068391C02F03EFF002800D0EF
:104710002760294F2068391C02F04AFF002800D08A
:104720002760029B032B53D0042B79D0022B00D09F
:1047300098E0286802F06EFF204B214A5968214E0C
:104740000A401F00B04200D9300000011E4D104346
:1047500058602B78002B01D101F012FD206802F087
:1047600059FF1A4B7A681340B04200D915488003AC
:10477000184378602B78002B74D101F001FD71E0B3
:10478000DA0E0020D00E0020E40E0020D20E002011
:10479000D30E0020D60E00203C0200200000204155
:1047A000D80E00201F4E0000D40E0020E80E00207E
:1047B000EC0E00200000484200C07F44F0110020B1
:1047C0000FC0FFFFFF030000D4100020FF3F00FFD9
:1047D000286802F01FFF244FB84200D93800234D4B
:1047E00002066B68224E1B021B0A13436B600323F5
:1047F000AA68000A9A4333781043A860002B01D1BD
:1048000001F0BEFC206802F005FF1A4BAA681340B5
:10481000B84200D9144880001843A8603378AAE74A
:10482000286802F0F7FE114B134A99680E4E0A40B1
:104830001F00B04200D9300000030D4D10439860B6
:104840002B78002B01D101F09BFC206802F0E2FEE6
:10485000BB689B029B0AB04200D9034880051843FD
:10486000B86087E707B0F0BDFF030000F01100203B
:10487000D410002003F0FFFFFF0FC0FF10B500F0C1
:10488000D3FC10BD30B5021E14D003780020834243
:1048900010D003000A241078002807D03038C5B2A1
:1048A000092D06D863430132C318F4E70B800120B9
:1048B00000E0002030BD73B50C00002801D10020BD
:1048C00010E0037801252D2B01D14019023D6B46E4
:1048D0009E1D3100FFF7D6FF0028F0D0012033885D
:1048E0006B43238076BD00280AD00378002B07D0C5
:1048F0001A00613A192A01D8203B03700130F4E70D
:104900007047FFFFF0B585B002AB9E1D0023354D0B
:1049100033802B780400012B08D1334F3349380002
:10492000FBF7A6FD21003800FCF700F9304F20000E
:10493000390003F061FE0197041E4DD02B78012B46
:1049400008D1294D2B492800FBF792FD21002800B2
:10495000FCF7ECF800252000FFF7C5FF264FF91EF5
:10496000200003F030FE002824D13B78022B0BD02E
:10497000032B14D0012B19D1019903F03DFE310016
:104980000400FFF77FFF06E0019903F035FE3100D8
:104990000400FFF790FF00280CD06BB20CE0E37826
:1049A000E21C002B05D06BB2140005E06BB20400D2
:1049B00002E0140001235B4201354C2D0AD004377C
:1049C0005A1CCCD00022B15ED8B222000023FCF7E2
:1049D0008DFF05E05A1CF5D108490348FCF7A6F8FD
:1049E00005B0F0BD06060020FC0200204391000047
:1049F000598C000051910000788900005991000005
:104A000070B5254A03001178002902D0FCF732FD69
:104A100041E0224C2078032837D802F019FC02111B
:104A20001724202118008843412801D1012331E0B7
:104A3000402B30D1237801332370012313702AE0F7
:104A400020229343542B24D1523B23E00D2B01D041
:104A50000A2B01D1124919E0202B16D10022114B4B
:104A60001A70032316E00F4A0F480D2B01D00A2BB2
:104A700006D100251378C554FFF744FF25700AE0DE
:104A800011784C1C1470435405E008490848FCF7A1
:104A90004DF80023237070BD110C0020F80E00208B
:104AA0005D910000F90E0020290600205B910000B6
:104AB000FC02002010B500F0B7FB10BD00207047CD
:104AC0000300383039331B780078181A7047020019
:104AD00001003832393113780978994204D9591CC8
:104AE0001170C318187E01E0012040427047030096
:104AF0000200383339321B7812789A4202D9C3182F
:104B0000187E01E0012040427047704703000022F8
:104B100010B55E331B8893420DD004005D342378BA
:104B2000202B02D90123037105E05A1C22700122B7
:104B3000C3183B331970100010BD70B5140002008B
:104B4000030000205E321288824212D01D00212212
:104B50005D352878121A944202D901241C71140080
:104B60003B331818220003F045FC20002B781B195A
:104B70002B7070BD43691A685B68126813420FD0CE
:104B8000084A0369914201D81F2205E0064A914272
:104B900001D8122200E002225A70022203699A719F
:104BA0007047C0467F1A06003F420F000200F8B56A
:104BB0000023040038321370537024329370137042
:104BC000537043668366D370406964270168426806
:104BD0000D682A430A6022691549937023000C224C
:104BE000613360691E788619337A5343CB185D6848
:104BF000737BE0261B02F60033403B432B6023000F
:104C000062331B78C018837C5A43C37D89181B020A
:104C10004A681E403E43166006492000FFF7AAFF7F
:104C2000202322695371802223699A70F8BDC046FF
:104C30002C920000A0860100102270B503690400C8
:104C4000DD78EDB2154203D140222A4004D12BE099
:104C5000DA706B06F8D476E004231D403A4B1BD083
:104C6000250000225D352A701A70636E934200D0D1
:104C7000984723002A783B33002A02D1012129706A
:104C80001A70D02221698A701B782269137123005F
:104C900001225C331A7053E001221A702300393369
:104CA0001D702269C02330E0602120698379DBB266
:104CB000194060290CD140398B438371A36E002BBE
:104CC00006D0210038310A70220039321078984716
:104CD0001023226991780B401BD001231D4013D172
:104CE000210020005C315D300B780078984206D9B5
:104CF000581CE31808703B331B78137100E01571E2
:104D0000D023226993701BE0C023937023691B7921
:104D100016E0210060310B70202193790B432100B4
:104D20009371236939311A790B78D2B21F2B07D8C6
:104D300005480078002803D0581CE31808701A763C
:104D400002222369DA7070BDFA0E00201223F0B53A
:104D5000202402698C46D370036989B099783B4A54
:104D6000214201D0B42112E011680291029DD9784C
:104D7000214008D0116803910399491B0F29F6D9E6
:104D800000229A703AE004005F342170B02120269E
:104D90009970136804690493049DE378334004D048
:104DA00000230226019320270BE011680591059945
:104DB000491B0429F1D9A37020E0019B0133DBB228
:104DC000019301005D310978019B994231D9C118E5
:104DD0003B31097803691971116805690691069BD1
:104DE000EC78E4B2210031400DD13C420BD0146884
:104DF0000794079CE41A052CF2D9A9708022036954
:104E000004209A7020E01023EE700469E178C9B2A2
:104E1000194201D1394203D18023A3707C3B09E0C0
:104E200001231942C9D0019B5A4253410322D31A8C
:104E300003E000236246002A02D0802201698A70C2
:104E400000225E300270180009B0F0BD040F00208F
:104E5000F0B58FB002930023040020273830037090
:104E600001300370019020691233C3702569AB785B
:104E70003B401800B423002817D15B4E33680396DB
:104E80000493049B9C46EB783B400AD06646039B08
:104E90001B680593059B9B1B0F2BF4D90023AB705C
:104EA00018E020005F300370B023AB704E4D2669D0
:104EB0002B68069320239C46069F6046F378184093
:104EC0002B0000280AD12B680793079BDB1B042BC0
:104ED000F3D9B070802223699A7082E00120022702
:104EE00049000143C9B2317129680891089E2169BE
:104EF000C878384007D11D680995099DAD1B052D5F
:104F0000F6D98870E6E70223CB7021690F33C878A1
:104F1000184003D06F338B70002062E0002A06D166
:104F2000029A8023002A00D120338B7059E0A823F5
:104F3000012A00D0A0238B7023692B4D1B790023FD
:104F400021692800012A25D02868AC460A900A98D1
:104F500007000226C878304008D1664636680B96AE
:104F60000B9EF61B052EF4D9887034E00220013A1E
:104F7000D2B2C870012A02D1A820216988702169A3
:104F80001F2B05D809795E1CE3181976F3B2D7E711
:104F90000979D5E702272A680C920C9ECA783A4014
:104FA00007D105680D950D9DAD1B052DF6D98A70AD
:104FB00011E00222CA702169AE328A7022691F2B69
:104FC00005D81279591CE3181A76CBB200E0127991
:104FD000029A002A02D08021226991701800019A59
:104FE00013700FB0F0BDC046040F002010B502488A
:104FF000FFF722FE10BDC046800200208023F0B5DE
:105000001D4A10681840FCD172B61C4C2378002B46
:1050100030D01B4B1F681B4B1A681B4BBA181E68FD
:105020001A4B92191D681A4B52191968194B5218CC
:105030001B68194DD21892B25208184B2A4392B2EB
:105040001A60174B17491B68174A9C46174B1B6879
:1050500012680F68164963440E6816499B18096860
:10506000DB199B195A1893B25B082B43124A9BB267
:105070001360207062B6F0BD24B00340FC0E002027
:1050800038B003403CB0034040B0034044B003405C
:1050900048B003404CB003400080FFFF2CB00340F9
:1050A00058B0034064B0034060B003405CB00340BC
:1050B00068B003406CB0034030B003401B4B1C4A47
:1050C00019781C4B082901D1002102E00A2903D1DB
:1050D0002E311160132206E00C2901D1283100E0A5
:1050E0003C21116012221A60134B1A78134B002ACC
:1050F00001D0002200E001221A60114B1A78114BF6
:10510000012A01D880220CE0042A01D8842208E078
:10511000082A01D8852204E0102A01D8862200E05E
:1051200087221A600122084B1A707047EC02002097
:1051300008B003400CB00340FE0E002020B0034036
:10514000ED02002024B00340FC0E0020F8B503005F
:105150000020272B33D81A4AD45CFF2C2FD0194BB0
:105160001B78834201D0FFF749FF72B61027402217
:10517000154B144205D01A68BA431A603F231C40ED
:1051800002E01A683A431A600123104E104D346051
:105190002B7062B672B680223368134208D00D4B72
:1051A000186800232B7062B60B4B1B78184106E081
:1051B0002B78002BDBD062B601F0CAFDEAE7F8BD20
:1051C000A4910000FC0E00200CB0034000B003408E
:1051D000FD0E002010B00340FB0E002080210D4A80
:1051E000090613680B4313600B4B1A780B4B002A0C
:1051F00001D1D03200E090221A70094B984201DDB3
:10520000180002E0C343DB171840064B00B21880B9
:105210007047C0463C800440FE0E002021F0034051
:10522000FF0F000000F00340F823802208491B0212
:1052300052021888884203D1064A023B138006E0D6
:1052400002339342F5D10222024B52421A80704738
:10525000FFFF0000000F0020F8B505000024264FD6
:105260000E1C3800E04003F031F8DE21890502F021
:1052700029FD311C02F092F9002802D10134072CDB
:10528000EFD11D48E04003F021F8311C02F050FB43
:10529000FC21890502F02AFE02F0BCF9174B984266
:1052A00000D918002B00103B012B06D80023144A0C
:1052B000144913600B60144B0BE0172D0ED8134AE2
:1052C0000123EA40934309D1114A124913600B604C
:1052D000114B186008231C4314600CE0033D012DA2
:1052E00009D800220D4B0E491A600A600D4A106061
:1052F000082214431C60F8BD006CDC02FFFF0000B4
:105300000090034004900340089003404006D00002
:1053100000800340048003400880034000A0034055
:1053200004A0034008A0034010B51A2818D80C2385
:1053300058430C4A835810181C7D027A224205D02B
:10534000002901D01A710BE01A7209E043681A684B
:10535000002902D003210A4301E002218A431A6096
:1053600010BDC0462C92000000231A280AD80C3326
:105370005843054A83581018007A1B7C0340581E76
:105380008341DBB2180070472C920000F0B51A2858
:105390002FD80C2217004743164CE5196B682600DE
:1053A000012901D0042911D1504334583018257DEA
:1053B000027A20202A432275A22252001A601A681B
:1053C000042901D1024313E0824311E038592C7AB9
:1053D000027DA24302758022002908D0022902D151
:1053E0000422FF3204E00022032901D1812252006D
:1053F0001A60F0BD2C92000070B5434B04001A28CF
:105400000ED11B780B2B03D80C22D31A994003E042
:105410000C2B01D00C3B19410800FFF7DFFE72E0B6
:1054200001251A782B009340002901DC002102E0BD
:105430008B4205D829002000FFF776FF29005FE0A6
:105440002300103B0338012B01D8304B05E0C3B2D9
:10545000012B01D82E4B00E02E4B1B6801334B4330
:10546000D340142843D801F0F3FE353B421F42429B
:10547000151A4242424242292F424224420B100056
:10548000254A1360254A264B2FE0264A1360234AFB
:10549000254B2AE0254A1360204A254B25E0254A62
:1054A00013601E4A244B20E0244A13601B4A244BFD
:1054B0001BE0244A1360194A234B16E0234A136069
:1054C000D122234B920010E0224A1360D122224BBA
:1054D00092000AE0214A1360D122214B920004E09D
:1054E000204A1360D122204B92001A600BE0012366
:1054F0007F2900DC0023D9B22000FFF715FF01212E
:105500002000FFF743FF70BDEE020020089003402B
:1055100008A00340088003401080034044040000BA
:1055200004B004401880034008B0044020800340C9
:105530000CB004402880034010B004403080034089
:1055400010C004403880034014C004401090034051
:1055500000A004401890034004A0044010A00340A1
:105560000490044018A003400890044072B60C4B0D
:105570001A680C4B18680C4B1B6862B65B0104D5AB
:10558000322393429B415B42C018084B9A1A084B46
:105590005A43FA239B005843920D10187047C04697
:1055A00018E000E0040F002004ED00E07FBB0000E5
:1055B0005555010070B50400FFF7D8FF0500002C19
:1055C0000FD0FFF7D3FF074B401B984206D9013C91
:1055D000002C06D0FA239B00ED18F2E701F0B8FB8F
:1055E000EFE770BDE703000080221E4BD20510B527
:1055F0001A608022002012061A601B4B1B4918609B
:105600001B4B1C4A1960282313601B4A1B4C136058
:105610001B4A13601B4A13601B4A13601B4A13602A
:10562000092222601A4C20601A4C21601A4C236017
:105630001A4C23601A4C22601A4C20601A480160F0
:105640001A490B601A490B601A4B1A60FFF736FDB6
:105650003220FFF7AFFF00F03BFDAF204000FFF727
:10566000A9FF10BD00E100E004800340FFBF00007F
:10567000088003400C8003401480034000800340F6
:105680001C800340248003402C800340348003406E
:1056900004900340089003400C9003401490034092
:1056A0000090034004A0034008A003400CA0034066
:1056B00014A0034000A003408021204A4901136840
:1056C0000B43136000231E4A13701E4A13701E4AB8
:1056D00013701E4A13701E4A13701E4B1B78062B44
:1056E00004D0072B05D11C4A1C4B01E01A4A1C4B65
:1056F0001A601C4B1B78082B05D0142B07D1D12224
:10570000194B920002E0D122184B92001A60184BFC
:10571000C204D20E1A700022C0B258709A702C3295
:10572000DA70144A144B11680B408021C9030B43F3
:1057300013608022114BD2011A60704734800440FC
:10574000780F00200D0F0020800F0020790F00201F
:105750000C0F0020EF0200201303000008C00440DB
:1057600010C00440F002002014C004400CC00440EB
:1057700000C006400CE400E0FFFF00FF00E100E095
:10578000F8B51F4B06001B68DB0437D51D4B1B68A3
:10579000002B02D01C4A12781A711C4D2C7801344F
:1057A000272C0AD9002408E001F042FB402815DC30
:1057B00017490B795BB2002B04DB164F3B78A342F1
:1057C000F2D010E03B780133272B00D90023124A96
:1057D000D25CDBB2D2B2CA713B70EEE7FF28ECDDDF
:1057E00001F0B6FAE9E701220B4BF6B21E550B4B5E
:1057F000E4B21A70064BAB322C70DA70F8BDC046BA
:10580000348004407C0F0020770F0020800F0020A0
:1058100000C00640790F00200E0F00200C0F002062
:10582000054B1878054BC0B21A78D3B2984200D213
:105830004030C01A7047C046780F00200D0F00207E
:1058400030B52C4A13799B0623D52B4BD479187885
:1058500019000130E4B200233F2800DC0300274890
:105860000078834203D02648C454D8B20870254932
:10587000086800280DD024490978C9B28B4201D3A9
:105880005B1A01E05B1A4033272B02DD1F4B1B78AC
:105890000371D1781748C9B24BB2002B17DA0379DC
:1058A0005BB2002B13DA1A4B174C1D782378DBB24E
:1058B0009D4202D16C23C37009E00133272B00D92C
:1058C00000231448C05CDBB2C0B2D0712370402307
:1058D00019420ED0117919420BD000210E4B1970CC
:1058E0000E4B1B688B4202D00D49097819722C238C
:1058F000D37030BD00C00640780F00200D0F00208F
:10590000370F0020080F0020790F0020360F0020ED
:10591000800F00200E0F00200C0F00207C0F0020B5
:10592000770F00200223F0B50A4A0B4E1478C827DF
:105930002343DB00F518686008480578002D00D186
:10594000403F09040F43F75001235D405C40057060
:105950001470F0BD0810002000F8FF1F9810002000
:10596000431E10B50020062B0ED872B6074A9900C8
:105970008858002807D044685B008C50044904888C
:105980005A5A121B5A5262B610BDC046EC0F002084
:10599000E0110020431E0020062B09D872B6054AEC
:1059A0009B009B58002B02D001305B68FAE762B67F
:1059B0007047C0464C100020F8B572B60123174A54
:1059C000082594461E00164964465A1EA25C2A42C7
:1059D0001AD05F017C589A00002C05D1CB190830F1
:1059E0005860104BCB5109E03243D2005458002C80
:1059F0000AD18B18083058600B4B8B500B4A137828
:105A0000013B137062B608E00133082BDCD162B6AB
:105A10000022064B1A7000F0EFFDF8BD9C930000C9
:105A200000F8FF1F88004000C80040008E100020D2
:105A3000421E10B5062A30D8022380001843174BA7
:105A4000C0001B1872B6164CA05C03280BD801F0DE
:105A5000FFFB16040207052012E0083302200FE0C6
:105A6000083304200CE00F48920014580E4B002C11
:105A700001D1115001E09858416099500CE0032089
:105A8000A0540A0008325A60C822180700D4403ACD
:105A9000098809040A431A6062B610BD00F8FF1FA6
:105AA000A40F00204C10002068100020F7B5BB4B5D
:105AB0001C781D000423E4B21C421DD0B84B1B7897
:105AC000002B16D0B74A1378DBB2002B05D0013B70
:105AD000DBB21370002B00D100BEB34A1378DBB2E7
