:1000000000180020C1000000795D00003D5D000087
:100010003D5D00003D5D00003D5D00003D5D000078
:100020003D5D00003D5D00003D5D0000795D00002C
:10003000795D00003D5D00001D770000ED77000058
:10004000795D0000795D0000795D0000795D000058
:10005000795D0000795D0000795D0000795D000048
:1000600041560000795D0000795D0000795D000077
:1000700029780000017900005D640000795D0000CE
:10008000795D0000795D0000795D0000795D000018
:10009000795D0000795D000069570000795D00001E
:1000A000C9660000795D0000795D0000795D00009F
:1000B000795D0000795D0000795D0000795D0000E8
:1000C000F8B505F05DFE0821474A484B1A60484ADA
:1000D000484B1A60484A494B1A60494B1A780A4201
:1000E00002D01A780A431A702A22464B46481A70E0
:1000F00000234649464C1A188A4203D2E558043375
:100100001560F8E70021434B434A934201D202C3F2
:10011000FBE70023414A424958589446985004331B
:10012000C02BF9D100210326FF2580248A083D4BEE
:100130009200D2180B002F003340DB009F40106864
:100140000131B84307002000984003003B4313608F
:100150002029EBD16246344B1A608A22334B1A7045
:10016000334B663A5A707C321A709E3A9979114232
:10017000FCD0102299791142FCD10C209A792C499B
:100180000240082AFAD1053A0A713D324A71203AF2
:1001900099791142FCD0402299791142FCD025492D
:1001A000254A11602021224A117014399A790A4097
:1001B0000C2AFBD1214A224B1A60224A224B1A6098
:1001C0000022224B1A60224B07321A60214A224B2E
:1001D0001A6062B606F012F80CF008F905F0D6FDC8
:1001E00005F0A4FDFEE7C046300004F03480044072
:1001F000823F0000388004400100000F3C80044032
:1002000002D0074000E0074030020020D405002063
:1002100004D90000D8050020A412002000F9FF1F17
:100220000000000000E400E008ED00E0005006409F
:10023000004006400000011044800440C000050555
:10024000048004407FBB000014E000E018E000E000
:1002500010E000E00000202020ED00E0FFFFFFFFA5
:10026000FFFFFFFFFFFFFFFFFFFFFFFFFFFFFFFF9E
:10027000FFFFFFFFFFFFFFFFFFFFFFFFFFFFFFFF8E
:10028000FFFFFFFFFFFFFFFFFFFFFFFFFFFFFFFF7E
:10029000FFFFFFFFFFFFFFFFFFFFFFFFFFFFFFFF6E
:1002A000FFFFFFFFFFFFFFFFFFFFFFFFFFFFFFFF5E
:1002B000FFFFFFFFFFFFFFFFFFFFFFFFFFFFFFFF4E
:1002C000FFFFFFFFFFFFFFFFFFFFFFFFFFFFFFFF3E
:1002D000FFFFFFFFFFFFFFFFFFFFFFFFFFFFFFFF2E
:1002E000FFFFFFFFFFFFFFFFFFFFFFFFFFFFFFFF1E
:1002F000FFFFFFFFFFFFFFFFFFFFFFFFFFFFFFFF0E
:10030000FFFFFFFFFFFFFFFFFFFFFFFFFFFFFFFFFD
:10031000FFFFFFFFFFFFFFFFFFFFFFFFFFFFFFFFED
:10032000FFFFFFFFFFFFFFFFFFFFFFFFFFFFFFFFDD
:10033000FFFFFFFFFFFFFFFFFFFFFFFFFFFFFFFFCD
:10034000FFFFFFFFFFFFFFFFFFFFFFFFFFFFFFFFBD
:10035000FFFFFFFFFFFFFFFFFFFFFFFFFFFFFFFFAD
:10036000FFFFFFFFFFFFFFFFFFFFFFFFFFFFFFFF9D
:10037000FFFFFFFFFFFFFFFFFFFFFFFFFFFFFFFF8D
:10038000FFFFFFFFFFFFFFFFFFFFFFFFFFFFFFFF7D
:10039000FFFFFFFFFFFFFFFFFFFFFFFFFFFFFFFF6D
:1003A000FFFFFFFFFFFFFFFFFFFFFFFFFFFFFFFF5D
:1003B000FFFFFFFFFFFFFFFFFFFFFFFFFFFFFFFF4D
:1003C000FFFFFFFFFFFFFFFFFFFFFFFFFFFFFFFF3D
:1003D000FFFFFFFFFFFFFFFFFFFFFFFFFFFFFFFF2D
:1003E000FFFFFFFFFFFFFFFFFFFFFFFFFFFFFFFF1D
:1003F000FFFFFFFFFFFFFFFFFFFFFFFFFFFFFFFF0D
:10040000FFFFFFFFFFFFFFFFFFFFFFFFDEF9FFFF23
:1004100010B5064C2378002B07D1054B002B02D0DA
:10042000044800E000BF0123237010BDD805002060
:100430000000000004D90000084B10B5002B03D0C9
:100440000749084800E000BF07480368002B00D1B7
:1004500010BD064B002BFBD09847F9E700000000C9
:10046000DC05002004D90000D405002000000000B5
:1004700070B5040008000D000CF0EDF823680200D0
:1004800029005B682000984770BD10B5FFF7F0FFAA
:1004900010BD70B5050005F0C1F90400280005F095
:1004A0007DF9001970BDFFFF70B5274B1B78002B3D
:1004B00048D0264E33785A1C32700A2B42D9244C2D
:1004C00024492000FFF7E1FF234B2000196805F0C5
:1004D000A5F9224D20002900FFF7D7FF204B20006F
:1004E000196805F09BF929002000FFF7CEFF1D4B8E
:1004F0002000196805F092F929002000FFF7C5FFD8
:10050000194B2000196805F089F929002000FFF730
:10051000BCFF164B2000196805F080F92900200067
:10052000FFF7B3FF124B2000196805F077F9290097
:100530002000FFF7AAFF0F4B20001968FFF7A9FF63
:100540000023337070BDC04604060020F60500206D
:10055000180300202AC700000006002032C7000050
:10056000180600201C060020080600202C0600208B
:10057000EC07002050060020F0B5614D614C286862
:10058000236840435B4385B0C0180BF0F1FD07F0D2
:10059000E1FA0026002700900191009A019B5A4938
:1005A0000A604B600098019932003B0009F04CF959
:1005B00002960397002852D128680BF0D9FD009AC3
:1005C000019B0AF08DFB06000F0020680BF0D0FDA8
:1005D000009A019B0AF084FB32003B0007F0B6FA58
:1005E0004A4B18605960484B28681A685B6800924B
:1005F00001930BF0BDFD009A019B49004F083900A3
:100600000AF06EFB424B06000420185E0F000BF050
:10061000AFFD02000B00300039000AF085FF060034
:1006200020680F000BF0A4FD009A019B49004D08C3
:1006300029000AF055FB364B04000620185E0D0019
:100640000BF096FD02000B00200029000AF06CFF61
:1006500002000B00300039000AF016F809E02B4BBD
:100660000299039A19605A60294B0420185E0BF016
:100670007FFD284B244C1860596022686368009203
:10068000019300980199234B1E685F6832003B007C
:1006900009F0E0F8002804D0029A039B226063600E
:1006A00007E03200009801993B000BF0B7F9206099
:1006B0006160164B1C685D682000290007F0FEF998
:1006C000114B009001911E685F682000290007F01F
:1006D000AFF902000B00300039000AF025FF0BF0E3
:1006E00011FD074B320018603B00009801990AF099
:1006F0001BFF0BF007FD034B186005B0F0BDC046B3
:10070000EC070020500600203806002010060020CC
:10071000420200204806002010B503F015F8012021
:1007200002F090FC042002F08DFC022002F08AFC12
:100730000023024A1370024A137010BD280F0020D4
:100740004C0F002070B500F059FC354C2378012B7C
:1007500007D1344D34492800FFF78AFE280005F000
:100760001DF8324804F0DAFC314B0021187805F00E
:1007700017FC304E3049307805F078FB2F4D0121C1
:10078000287805F00DFC2878002105F0D7FB30789B
:10079000012105F005FC2878002105F0CFFB00259C
:1007A000274B0221E85C013505F0FAFB032DF7D158
:1007B0000025244B0121E85C013505F0F1FB032DF8
:1007C000F7D1FFF7A9FF00F0A9FD00231A001E4E84
:1007D0001E4899194A801918043300250A604C2BC9
:1007E000F7D11B4B1D8000F0ADFD00F0A5FC02F021
:1007F00051FB2800012102F0F1F90A22154B25785E
:100800001A70154B0F321A70012D08D1054C13497F
:100810002000FFF73AFE29002000FFF73AFE70BDE6
:10082000220600201803002034C700009402002094
:100830007302002072020020007014474002002062
:100840007402002036020020B40B0020CC0A0020E5
:10085000180B0020540600204006002073C700003B
:10086000024B1870024B19707047C04654060020A6
:100870004006002070B5284B1A78284B1878002ABB
:1008800045D0002105F05AFB254A1178002918D1DE
:10089000244D254C2B782078DB0700D5012105F06D
:1008A0004DFB2B786078013300219B0700D4012198
:1008B00005F044FB2B78A078013300215B0727D497
:1008C00025E01A4B1C78002C1ED10126184801394E
:1008D0000078154DC9B2187011702878314209D0CE
:1008E000210005F02BFB6878210005F027FBA87894
:1008F00021000DE0310005F021FB6878310005F0A2
:100900001DFBA878310003E0013C1C7002E00121CE
:1009100005F014FB70BDC046880200204002002094
:10092000540600202806002036020020F007002090
:1009300040060020F8B5164B1E88002E26D0154D17
:100940002B88002B02D0012B0BD01FE0124B09206B
:100950001A88124B198805F00FF82B8801332B8069
:1009600014E00F4F0C4B3C8818880E4B01341B8849
:10097000A4B23C80C018052108F06AFE844205DD5F
:10098000034B013E1E8000232B803B80F8BDC046F8
:1009900030060020F2070020260600204206002034
:1009A00020060020F4050020F7B50E2005F038F9E8
:1009B0006F4D2860152005F033F96E4C3221E37D30
:1009C000584308F0BBFD6C4B80B2019500946B4D11
:1009D000984201D8286001E0674B2B602B68002B00
:1009E00001DA00232B60142005F01AF9009B322154
:1009F0009B7D584308F0A2FD5F4B80B2604C98424B
:100A000001D8206001E05C4B23602368002B01DAF1
:100A100000232360172005F003F9009B32215B7E41
:100A2000584308F08BFD544B80B2564E984201D883
:100A3000306001E0504B33603368002B01DA002353
:100A40003360162005F0ECF8009B32211B7E5843E2
:100A500008F074FD484B80B24B4F984201D8386083
:100A600001E0454B3B603B68002B01DA00233B6013
:100A7000009BDB8BB42B11D087225200934218D0FD
:100A80005A2B21D12A68414B1A6033682B602368A6
:100A900033603D4B19681A60216015E022682B68AD
:100AA0002A60394A3949236013680B603168116044
:100AB00009E02B68354A1360334A116829602168C0
:100AC000116032682260336006F090FC002806DD79
:100AD00006F044FC2E4B186004F04AFAF4E72D4B64
:100AE0001B78002B3DD02C4A1388002B12D13A687A
:100AF00033689B1A294A0021525E9B1A284A1360C8
:100B000022682B689B1A274A0021525E9B1A264AAC
:100B1000136015E0013B9BB21380002B10D11A4AE1
:100B20003368126821689A1A009B12B25A832B68A4
:100B30005B1A00991BB28B8318490A80194A1380EB
:100B4000FFF7B2FCFFF718FD019B1A68164B1968F6
:100B5000134B186803F0E8FC144B186805F034FBDD
:100B600001E000F0F3FDFFF785FEFFF7E3FEF7BDC0
:100B70000006002042020020FF03000018060020AB
:100B80001C060020080600202C0600205806002025
:100B9000F8050020880200203402002024060020EE
:100BA000EC0700202A060020500600203C0200200E
:100BB000013810B50A283FD808F0ACFC0B0F2426EA
:100BC0000608313429382C00C82200E06422C821EC
:100BD00023E0C822C82152002BE0184A1388002BBA
:100BE0002AD1FA2089B2C8334B43C0001B181448DD
:100BF000013103809620134B11801880124B64380A
:100C0000188019E0C82200E06422962105E01E2227
:100C10000E490EE0FA22AF215200490009E00522F8
:100C20000B4906E0FA210522090102E0FA22E62139
:100C30001201092004F0A0FE10BDC04630060020BD
:100C40004206002026060020F4050020C40900000A
:100C50008813000010B505F051F810BD70B50500FF
:100C6000FFF706FC0400280004F098FD001970BD91
:100C7000D2B270B50500002A03D103681B689847FB
:100C800014E00A2A01D0012A04D10022280004F02D
:100C900097FD0BE0102A02D104F0C9FD06E0022AFC
:100CA00002D104F0DAFD01E004F0EAFD04002800BE
:100CB00004F074FD001970BDF0B53B4B85B01B7896
:100CC00000900E000192394D012B27D1384C394943
:100CD0002000FFF7C3FF38492000FFF7C9FB1022AF
:100CE00029782000FFF7C4FF34492000FFF7C0FB3C
:100CF0000099200004F092FD314F20003900FFF7E9
:100D0000B7FB3100200004F089FD39002000FFF717
:100D1000AFFB0A2201992000FFF7AAFF294A009B96
:100D20001168294C8C4663441360236827489B193B
:100D300023602978036816000090254A994207D15C
:100D40001168244B02911B68029928338B4228D8E2
:100D5000FF271368FD200393039A1E4B1A6005F0CA
:100D60001DFB002005F01AFB032005F017FB287877
:100D700005F014FB3068384005F010FB206838405F
:100D800005F00CFB002005F009FB002005F006FB38
:100D9000002005F003FB0023009A336023602B78CA
:100DA000136005B0F0BDC0462206002004080020F4
:100DB000180300207DC700008FC700009BC70000FC
:100DC000A8C70000F8070020FC0700200C0800203E
:100DD000900F00200008002010B5054A1378184332
:100DE0001070002211001000FFF766FF10BDC04612
:100DF0000408002010B5054A1378834313700022BD
:100E000011001000FFF758FF10BDC0460408002075
:100E1000034B1B781840431E9841C0B27047C04630
:100E20000408002070B5294B294E1B78294C012B52
:100E30002FD1294D29492800FFF710FF2849280004
:100E4000FFF716FB102231782800FFF711FF254924
:100E50002800FFF703FF217810222800FFF708FF82
:100E6000617810222800FFF703FFA17810222800E4
:100E7000FFF7FEFEE17810222800FFF7F9FE217946
:100E800010222800FFF7F4FE617910222800FFF7F6
:100E9000EFFEFD2005F082FA307805F07FFA0020A1
:100EA00005F07CFA207805F079FA607805F076FA9A
:100EB000A07805F073FAE07805F070FA207905F073
:100EC0006DFA607905F06AFA70BDC046220600200E
:100ED000050800200608002018030020AAC700000B
:100EE000BFC70000CCC70000C2B270B50012E02836
:100EF00004D10A490B781A430A700CE0F0280AD191
:100F000000230748195C1C000500002902D00133AA
:100F10008A42F7D12A55FFF785FF70BD05080020EA
:100F20000608002010B5C1B202120023E02A04D145
:100F30000C4A13788343137010E00B4A5C1CD318DF
:100F40001878884201D02300F7E7991A052903D0C1
:100F5000597819700133F8E700235371FFF762FFE6
:100F600010BDC0460508002006080020002310B56B
:100F7000054A137053709370D37013715371034A01
:100F80001370FFF74FFF10BD060800200508002072
:100F9000F7B5002680270190019B9B5D002B25D093
:100FA0005AB2002A08DB124AD45C40231C4204D007
:100FB0004023104D9C4305E0002400253C4204D012
:100FC0000D4DBC432800FFF78FFFF0231B021C438D
:100FD0002000FFF789FF2000FFF7A4FF002D02D0BB
:100FE0002800FFF79FFF0136B6B2D5E7F7BDC04630
:100FF00052D2000002E0000040E0000010B5074BB4
:101000001B78012B03D106490648FFF727FE9C20D9
:1010100005F05CF90122044B1A7010BD2206002075
:10102000DDC7000018030020F4070020024B1878E9
:10103000431E9841C0B27047F407002010B501214B
:101040000C2004F0ADFF01210C2004F077FFFA2002
:10105000000105F0B9F80C20002104F0A1FF10BD3B
:1010600007B504F04BFE034B1B680193019A024B3A
:101070001A6007BD900F002000080020F8B5144E3C
:101080008700BD59281E21D00BF0E5FAAF23114A85
:101090009B000130521B84B2D218121B92B2291944
:1010A00028000BF0E6F90023BB51F258954201D21B
:1010B000121BF25004334C2BF7D1074B1888001B3E
:1010C00080B21880AF239B00181A80B2F8BDC046CA
:1010D000CC0A002010080020180B0020F8B50F00E3
:1010E0000500FFF7CBFF104B38001C880BF0B3FA5C
:1010F0000E4A23180020934214D80D4E3900361999
:1011000030000BF0A0FA0B4BAD003800EE500BF0A6
:10111000A2FA0134044B201880B21880AF239B0040
:10112000181A80B2F8BDC046180B0020BA020000A1
:1011300010080020CC0A002070B519231B251226A8
:10114000154C16492380A5802581A6810320FFF731
:10115000C5FF268212490420FFF7C0FFA68211496D
:101160000520FFF7BBFF26830F490620FFF7B6FFD8
:101170004523A383423BA3841F332385A31CDD8720
:101180002584A5852586A5862587A587A31D4834A2
:10119000DD87258070BDC046B40B0020ECC7000081
:1011A000F4C70000FEC7000008C8000010B5064BD9
:1011B0008200064C99180220095E985C012312599E
:1011C00000F03CFC10BDC046B40B0020CC0A00204F
:1011D000244A8000835A10B5392B26D00ED8082B0C
:1011E00021D004D8062B18D0072B18D039E00F2BAC
:1011F0002FD0102B35D100221B4B2CE0462B0ED0CC
:1012000004D83D2B29D0452B07D02AE0472B0AD004
:101210004C2B26D102F06EFA23E0012000E00220E0
:1012200001F010FF1DE00420FAE710184388013B8D
:10123000DBB21F2B15D801229A4013000B490A6814
:101240009A430B4B0A601B78002B0AD105F0CAFDAC
:1012500007E00022074B1A7003E0074BC05803F069
:1012600054F910BDB40B00204C0F00207C1200205C
:1012700025110020280F0020CC0A00200C4B8000F4
:10128000C35A01209A1F022A10D9333A92B2132A64
:1012900005D80849D1400A000100914306D000203A
:1012A00001220F3B9BB29A424041C0B27047C046F8
:1012B000B40B00201170080073B5164A0500C00079
:1012C000141866788E4220D1835C062B12D8013325
:1012D000DBB28354072B0DD1A378B3420AD0A6709A
:1012E0002800012E08D1FFF761FF0B4B1B6801930B
:1012F000019B636000240BE0FFF7C0FF012400287E
:1013000006D02800FFF764FF02E0617000248454D7
:10131000200076BD1C0B0020900F00200021064A03
:10132000531C9932581E1970597001709970083306
:101330009342F7D17047C0461C0B002010B504F053
:10134000DDFC10BD024B034A1A80034A5A807047E5
:10135000040C00204054000001A4FFFF10B5074C0E
:101360000721200006F06CF820000421083006F068
:1013700067F8A188024806F063F810BD040C00204D
:1013800018C8000070B50425074C07212000A5806F
:1013900006F056F820002900083006F051F8A18820
:1013A000024806F04DF870BD040C002014C800007F
:1013B000002310B5054C07212000A38006F040F85B
:1013C00020000421083006F03BF810BD040C00207A
:1013D00010B5084C0721200006F032F82000042147
:1013E000083006F02DF82000A1880C3006F028F80F
:1013F00010BDC046040C00200D4B0E4A1B6812683D
:101400000D499B1A0D4A9BB213731B1253730C4B5D
:1014100009681B685B1A9BB293731B12D373094B49
:101420001B6813741B125374062393807047C046C5
:10143000080600202C0600201C060020040C0020BA
:10144000180600200006002070B50E4D287804F024
:1014500095FD444244416878E4B204F08FFD0028D1
:1014600001D102231C43A87804F088FD002801D193
:1014700004231C43044B00201A78A24201D01C70A4
:10148000013070BD74020020480C002010B5FFF739
:10149000DBFF034A034B12781A7301229A8010BDB6
:1014A000480C0020040C002070B5394C394B2589BC
:1014B00062891D81A17906029971D1B28E195E816E
:1014C0000100102319405FD1D2B22379112A1AD01A
:1014D00004D8002A07D0102A28D055E0812A07D046
:1014E000822A08D050E0002B4ED1FFF737FF4DE0A5
:1014F000002B49D104E0002B46D1274A0133137059
:10150000264A137040E0022D08D0032D09D0002D8B
:101510003AD1002B38D1FFF735FF37E0FFF76CFFEA
:1015200001E0FFF7B3FFFFF753FF2FE0042D0FD0CB
:10153000052D26D0012D27D1022B25D1237B184A3A
:101540001380637B11881B02CB189BB213801BE0B6
:10155000012B19D1257B134C20781D4200D1190095
:1015600004F0ECFC60780021AB0700D4012104F00A
:10157000E5FCA07800216B0700D4012104F0DEFC1B
:1015800002E0094803F072FCFFF712FF012070BD72
:10159000280C0020040C0020860200208802002075
:1015A000240C0020360200205C06002070B55D4C43
:1015B000030020780F2800D9A8E007F0ABFF081936
:1015C0001E253438425A5E65697A9A9C9EA0402B4B
:1015D00001D13F3B9BE020229343412B00D0A0E070
:1015E0000021514A403B1170504A237013708FE024
:1015F000542B00D08AE0523B89E000214C4A117004
:101600004C4A5380032382E04A4A1B025188CB187C
:101610009BB25380002B04D11021454A13780B4311
:101620001370042373E0434A938005236FE0414A1B
:101630001B029188CB189BB293800F2B66D8062390
:1016400065E03C4ADDB295713B4A3C48117800297F
:1016500001D0002309E07F21027801320A40934241
:1016600004D0334A7D3913780B4313700570072378
:101670004DE0304A1381082349E02E4A1B021189AC
:10168000CB181381092342E02A4A53810A233EE002
:101690002B4ADBB21370274A9288002A05D00B230D
:1016A00000222370274B1A6032E0DB072CD50C2375
:1016B0002DE0204A234D118905290AD18C20296863
:1016C000FF30814205D820484354002341184B7015
:1016D00002E0296851180B732B6801332B60928844
:1016E000934215D1164B1B78DB070DD523780133B8
:1016F0000DE00D230BE00E2309E00F2307E004218A
:101700000B4A13780B431370632300E0002323700C
:101710002378632B05D1064B1878FFF7C5FE00230D
:10172000237070BD680F0020490C00208802002043
:101730004A0C0020280C002086020020000C00200B
:10174000260C00204C0C00205C06002070B5184DC3
:101750002B88002B27D0174C23780133DBB2002BCA
:1017600000D1802323700223134E33812378B37179
:1017700020237381FFF740FEFFF72AFEFFF764FE88
:10178000002810D023780133DBB2002B00D1802356
:101790002370032333812378B37120237381FFF7F0
:1017A00075FEFFF715FE288880B204F00DFD70BDB0
:1017B000240C002087020020040C002010B504F047
:1017C0009DFA10BD70B50022050003F0F9FF04007A
:1017D000280003F0E3FF001970BDFFFFF0B5774C60
:1017E00085B077492000FEF750FE76492000FFF7CC
:1017F00035FA75492000FEF748FE744D20006978DF
:10180000FFF7E0FF72492000FEF73FFEA9782000B5
:10181000FFF7D8FF6F492000FEF737FE0423E95E8B
:101820002000FEF736FE6C492000FEF72EFE062350
:10183000E95E2000FEF72DFE68492000FEF725FE38
:1018400029892000FEF725FE65492000FEF71DFED0
:1018500069892000FEF71DFE62492000FEF715FE93
:10186000A9892000FEF715FE5F492000FEF70DFE56
:10187000E9892000FEF70DFE5C492000FEF705FE19
:10188000297C2000FFF79EFF59492000FEF7FDFD4F
:10189000698A2000FEF7FDFD56492000FEF7F5FDA0
:1018A000A98A2000FEF7F5FD53492000FEF7EDFD63
:1018B00029782000FFF786FF50492000FEF7E5FD5C
:1018C000A97D2000FFF77EFF4D492000FEF7DDFDDA
:1018D000E97D2000FFF776FF4A492000FEF7D5FD9D
:1018E000297E2000FFF76EFF47492000FEF7CDFD5F
:1018F000697E2000FFF766FF44492000FEF7C5FD22
:10190000E98B2000FEF7C5FD013541492000FEF7B7
:10191000BCFDE97F2000FFF755FF3E492000FEF7A0
:10192000B4FD3D492000FFF799F900253B4920000F
:10193000FEF7ABFD082D03DC39492000FEF7A5FDBD
:10194000013529002000FEF7A4FD36492000FEF7EE
:101950009CFD354EAB009E190193331F1F88334BFE
:10196000BF00DF19390003A80AF06DFE03A92000AB
:10197000FEF78BFDFB78002B18D0022B0DD9032B23
:1019800014D12B492000FEF780FDAB00294A043B0F
:10199000D1582000FEF779FD08E025492000023EDD
:1019A000FEF773FD3188200003F038FF2249200044
:1019B000FFF754F9132DB9D105B0F0BD180300207D
:1019C0001EC800007702002024C800004202002048
:1019D0002BC8000032C8000039C8000040C8000011
:1019E00047C800004EC8000055C800005CC8000091
:1019F00063C800006AC8000071C8000078C8000011
:101A00007FC8000086C800008DC8000094C8000090
:101A10009BC80000A2C8000063020020A9C8000003
:101A2000F0CE0000B0C80000B40B00201DCA0000BA
:101A3000A6C70000CC0A0020A7C70000F0B515001B
:101A4000B74A0C001178E7B00190170000293DD08B
:101A5000B44B1B78012B22D1B34EB4493000FEF7B2
:101A600014FD00223978300003F0AAFEB04930009E
:101A7000FEF70BFD00220199300003F0A1FEAD49F5
:101A80003000FEF702FD2100300003F0C7FEA94937
:101A90003000FEF7FAFC29003000FFF7DFF8694656
:101AA0003878A54A0138898883009952D3185C8018
:101AB000C0B2FFF7E3FA002D05D0387829000138CD
:101AC000C0B2FFF70BFB00233B708BE3019A4E2A59
:101AD00000D987E3100007F027FD4F0054006E0087
:101AE000780098008200A200A600AA00BA00BE00FA
:101AF000C200C600CD00D300D600E00094019B01D7
:101B0000B001B701BA01CD01E801FF0104021602DC
:101B100085037603800323023C02520256025A02D6
:101B20006E02710274027702B702BA02BD02C002ED
:101B3000C302C602C902CC02FF0215035E035B03A7
:101B40006B03EA00FD00070119014901550160011D
:101B50006D016403A2017A027D028002B302CF020A
:101B60006803FB02A200A600AA00AE00B200B60005
:101B7000A9013A035003230370496B48FFF76EF83D
:101B800030E3FEF7C9FD674B1B78012B08D1664D8A
:101B90006B492800FEF779FC21002800FEF779FC4C
:101BA000631E9BB2122B01D83C701BE365495E4853
:101BB000FFF754F816E3012001F05CFA082004F066
:101BC00003FB012001F03EFA0CE3022001F052FA7F
:101BD000082004F0F9FA022001F034FA02E30120AF
:101BE00001F048FA082004F0EFFA012001F02AFA87
:101BF000082004F0E9FA012001F03CFA082004F082
:101C0000E3FA012001F01EFAECE2042001F032FABE
:101C1000082004F0D9FA042001F014FAE2E20120CD
:101C200001F028FADEE2022001F024FADAE20420D0
:101C300001F020FAD6E2012001F034FAD2E20220CB
:101C400001F030FACEE2042001F02CFACAE20120C1
:101C500001F0F8F9C6E2022001F0F4F9C2E2042032
:101C600001F0F0F9BEE2384B187C404240B201F07E
:101C700045FAB7E21020344B185601F03FFAB1E2B2
:101C8000314B1C74AEE2002B02D0304B1C70A9E229
:101C90001900200001F050FAA4E2002B02D02C4BD6
:101CA0001C709FE22100180001F046FA9AE2294BCD
:101CB00029485A681040294A944200D91400240146
:101CC00004435C60264B1B78002B00D08AE205F0B1
:101CD00089F887E21F4B23485A6810401F4A9442F4
:101CE00000D91400A403EBE71C4B9C4200D91C0054
:101CF000184A2106536890681B021B0A0B43536065
:101D00000323240A984304439460DBE7114B1648ED
:101D10009A681040114A944200D91400A4002EE0A1
:101D2000500C00202206002018030020B4C8000038
:101D30003DCD000032C70000B40B0020CDC800002C
:101D4000DCC80000FFD1000042020020280F002064
:101D50004C0F00207C1200200FC0FFFFFF0300008B
:101D600025110020FF3F00FF03F0FFFFC44BC548D3
:101D70009A681040C44A944200D9140024030443D2
:101D80009C609FE7013CE4B21F2C00D92AE20123AA
:101D9000A340BB4A11680B430AE0013CE4B21F2C8C
:101DA00000D91FE20123A340B54A116899430B00F3
:101DB000136087E70F23002C1CDB0023162C19DD92
:101DC0000133432C16DD0133702C13DD01339D2CC0
:101DD00010DD0133CA2C0DDD0133F42C0ADD922213
:101DE00001335200944205DD5222FF320023944217
:101DF00000DC07330F22A2494868904303434B603D
:101E000060E7002D00D1EDE1280001F035FAE9E1AD
:101E1000002D00D1E6E1280002F068FBE2E1002D90
:101E200000D1DFE1280002F06BFBDBE1002D00D1E7
:101E3000D8E1280002F06EFBD4E1002D00D1D1E101
:101E4000280002F062FBCDE1FEF766FCCAE1FEF776
:101E500063FC002D00D1C5E12B78002B00D1C1E13E
:101E600028000AF0F8FB0E2800D9BBE1280000F09A
:101E700079FCB7E1002D00D1B4E1FEF74DFC28005C
:101E800000F0B2FE0022814B81491A70814BDA8A40
:101E90008A4203D1198B914200D1A3E1598B7E4A2A
:101EA00011809A8B7D4B1A809CE1FEF735FC022352
:101EB000764D00242B7000F0EDFF0022200001344D
:101EC0001100E4B200F06AFD072CF6D100200121D8
:101ED000287000F083FE85E1FEF71EFC01F052F849
:101EE00080E16F4B694C1D78012D04D16D496E481E
:101EF000FEF7CBFA2570FEF70FFC002000F074FE11
:101F0000002323706EE1664B1B78012B03D16749D8
:101F10006548FEF7A3FEFEF7FFFB00F09BFA61E1C8
:101F20005C4BE4B21C705E4B1B78012B00D059E176
:101F30005D48012C03D15E49FEF790FE52E1012C71
:101F400003D95C49FEF78AFE4CE15B49FEF786FE49
:101F500048E1534B1B78012B03D158495248FEF7F7
:101F60007DFE0F210620FEF77BFC4A4B1A78002AE3
:101F700002D101321A7035E100221A7032E10122D9
:101F80004F4B1A702EE100224D4B1A702AE1444B40
:101F90001B78012B03D14B494348FEF75FFE142108
:101FA0000A20FEF75DFC6422474B002101201A80C5
:101FB000FEF7FEFD16E1374B5C7013E1354B9C706C
:101FC00010E1344B9C800DE1324BDC800AE1314B57
:101FD0001C8107E12F4B5C8104E1314B1B78012B05
:101FE00008D1314C39492000FEF74FFA2900200072
:101FF000FEF734FE2B78002B00D1F3E000231A000B
:102000002978002911D03B2902D1002A04D10CE003
:102010005C2901D1002A05D05A1C02A8C154D3B2B0
:10202000002200E001220135EAE7002202A90800AF
:10203000CA5402F01BFF2B785A1E9341ED18D9E7C2
:10204000200004F0C1F8CDE0124B9C81CAE0114B96
:10205000DC81C7E00F4B5C82C4E00E4B9C82C1E088
:102060000C4B9C75BEE00B4BDC75BBE0094B1C7642
:10207000B8E0084B5C76B5E0064BDC83B2E0C046C6
:102080007C120020FF0FC0FFFF030000FC050020B2
:102090003232000042020020240600202A060020DE
:1020A00022060020F1C800001803002000C900002B
:1020B0000DC9000026C9000042C9000062C9000025
:1020C0000406002086C900003402002098C90000E0
:1020D000454B0133DC7785E0444B1B78012B03D162
:1020E00043494448FEF7BAFD002D7BD02B78002BE6
:1020F00078D028000AF0AFFA0E2873D8280001F033
:1021000033F96FE0394B1B78012B03D13A49394839
:10211000FEF7A4FD002D65D0280001F0CDFA61E0A6
:10212000324B1B78012B03D134493248FEF796FD20
:10213000002D57D02B78002B54D028000AF08BFAB2
:102140000E284FD829002E480AF07DFA4AE0274B86
:102150001B78012B03D12B492648FEF77FFD002D6C
:1021600040D02B78002B3DD028000AF074FA0E28BE
:1021700038D8280001F0AEFA34E01C4B1B78012B54
:1021800003D121491B48FEF769FD01F0B3FA29E0AC
:1021900001F098F926E0002D24D0280001F096F9EE
:1021A00020E0A0B201F0B2FA1CE001F0A9FA19E0B7
:1021B00001220E4B15491A70154B92180D481A70D2
:1021C000FEF74CFD0EE00123084A12491370104A35
:1021D00008481370FEF742FD04E00023034A137021
:1021E0000B4A137067B0F0BD4202002022060020A7
:1021F000A7C9000018030020B9C90000C9C9000020
:1022000063020020E6C90000F6C9000006CA00000B
:10221000510C002015CA000010B503F06FFD10BD71
:1022200010B5002203F0CCFA10BD10B5002203F067
:10223000C7FA10BD10B503F061FD10BDF8B51C4C18
:10224000A02223003B331A70230001275E331F7046
:10225000230005000E00010A5D33C9B220001F7083
:1022600002F00CFFE9B2200002F008FF310020006C
:1022700002F004FF3900200003F08EF8052003F07F
:10228000A3FF0C4B1B78022B10D10B4C0B492000E9
:10229000FEF7FBF829002000FFF7C7FF08492000E0
:1022A000FEF7F3F831002000FFF78CFAF8BDC046C6
:1022B00094020020510C00201803002059CB00008C
:1022C000A5C70000F7B50D00002400902A5D002A84
:1022D00002D00134A4B2F9E734345649A4B2002341
:1022E0008858C65C002E02D001339BB2F9E7053353
:1022F000E4180432A4B24C2AF1D14F4F3B78012BA1
:1023000000D08CE04D4E4E493000FEF7BEF8210063
:102310003000FEF7BEF8009B002B02D19023494A03
:102320001380009B474A5B00D45A3B78012B08D1AD
:10233000424E45493000FEF7A8F821003000FEF774
:10234000A8F870212000FFF779FF601C80B20221FD
:10235000FFF774FF0026A71CBFB23C4BB819995D6C
:1023600080B20136FFF76AFF302EF6D127003234F3
:10237000A0B20021FFF762FF00263337BFB2A95D8C
:1023800001363800B6B2FFF759FFAB19013B7C1C90
:102390001B78A4B22700002BF1D11D0000262C4F82
:1023A000EF19A019B95D80B20136FFF747FF042E7F
:1023B000F7D1201D80B20021FFF740FF661D1D4BA5
:1023C0009334FF345F59A3B2B6B201933978300029
:1023D000FFF734FF3B78741CA4B2002B03D1043503
:1023E0004C2DDBD105E0019B013726009C42EDD14D
:1023F000F5E7009B062B03D1124B8E331C8004E0C3
:10240000009B104A01335B00D45200240D4B200086
:10241000195D0134FFF712FF902CF7D108E0009B03
:10242000002B00D17AE7009B064A5B00D45A88E76C
:10243000F7BDC046CC0A0020510C00201803002034
:1024400063CB0000520C00206ECB00004202002043
:10245000B40B002070B5104B1B78012B03D10F4932
:102460000F48FEF7FBFB002426000E4D0021605BA9
:10247000FFF7E4FE605B00210130FFF7DFFE6653EB
:1024800002340E2CF1D10024295D20000134FFF725
:10249000D5FE902CF8D170BD510C00207FCB0000F0
:1024A00018030020520C0020F0B585B00293040000
:1024B000002301910392019AD25C002A02D00133D9
:1024C0009BB2F8E7404F414D3B78012B72D1404E13
:1024D00040493000FDF7D9FF029B3000D91CFDF7C1
:1024E000D8FF002C01D13C4BEB81231D5B00ED1884
:1024F0003B78EE88012B08D1354D38492800FDF78F
:10250000C4FF31002800FDF7C4FF30006621B51E6E
:10251000013EFFF793FEB0B2BB21FFF78FFE00260E
:10252000ADB2019B2800995DFFF788FE0136019B43
:10253000B6B29B19013B1B786F1EBFB2002B01D0B6
:102540003D00EEE7AB1E9BB2029938000193FFF706
:1025500075FE6B461B89039E02935B00ED1A023DDC
:10256000ABB2019D0393039B9D420ED031782800AE
:10257000FFF764FE6F1E3188BFB2023D090A3800C2
:10258000ADB2FFF75BFE0236EDE7029B019A5B00FE
:10259000D31A9BB20D4D3E2C03D0053464002C1988
:1025A000E3800024295D20000134FFF747FE902CD2
:1025B000F8D106E0002C96D0231D5B00ED18EE88C4
:1025C000A3E705B0F0BDC046510C0020520C00201E
:1025D0001803002092CB0000FF7F0000A0CB00007A
:1025E00070B5234CA02223003B331A702300012630
:1025F0005E331E7023000500010A5D33C9B220005E
:102600001E7002F03BFDE9B2200002F037FD310000
:10261000200002F0C1FE330032005021200002F001
:1026200037FF230022003933383219781378FE3609
:10263000994206D00026994203D9591C1170E4181A
:10264000267E0C4B1B78022B10D10B4C0B49200023
:10265000FDF71BFF29002000FFF7E7FD08492000D8
:10266000FDF713FF31002000FFF7ACF8300070BD1C
:1026700094020020510C002018030020B5CB00006C
:10268000A5C70000F0B5002485B001902E4B620074
:10269000D55A002D43D02800FFF7A2FF70283ED165
:1026A000681C80B2FFF79CFF022838D10027333521
:1026B000ABB2019D0393039B019A2E789B1A5B1981
:1026C00018000293FFF78CFF86421FD01F4B1B7828
:1026D000022B24D11E4E1F493000FDF7D6FE3900D3
:1026E0003000FFF7A2FD1C493000FDF7CEFE287830
:1026F00004F016FF19493000FDF7C7FE0298FFF7F6
:102700006FFF01003000FFF75DF808E02B78002B29
:1027100003D0013701350F2FCDD160B211E0013464
:10272000072CB3D1094B1B78012B08D1084C0C495D
:102730002000FDF7AAFE01992000FEF78FFA012084
:10274000404205B0F0BDC046520C0020510C0020A4
:1027500018030020BFCB0000A6C70000D3CB0000A9
:10276000D6CB0000F8B50600FFF78CFF431C2DD137
:102770000024174B6200D55AE7B2002D06D1154B45
:102780001B78012B1AD1144D144910E02800FFF7D3
:1027900027FF702817D00135A8B2FFF721FF0228C4
:1027A00011D00C4B1B78012B08D10B4D0C49280084
:1027B000FDF76BFE39002800FFF704F860B2310026
:1027C000FFF780FD02E00134072CD2D1F8BDC046EE
:1027D000520C0020510C002018030020E9CB00000F
:1027E000F4CB0000F0B5002485B00090E3B2394A84
:1027F00003936300D318DD89002D56D02800FFF71E
:10280000EFFE662851D1681E80B2FFF7E9FEBB28B3
:102810004BD10026023D009FADB23B780193AB1B2C
:1028200018000293FFF7DCFE019B83421FD02A4B66
:102830001B78022B39D1294D29492800FDF725FEA7
:1028400031002800FFF7F1FC26492800FDF71DFEA6
:10285000387804F065FE24492800FDF716FE02983A
:10286000FFF7BEFE01002800FEF7ACFF1DE03B783D
:10287000002B03D0013601370F2ECED1164B1B781B
:10288000012B10D1154D19492800FDF7FEFD0099C7
:102890002800FDF7FAFD16492800FDF7F6FD03991B
:1028A0002800FEF78FFF60B211E001343F2C9DD16C
:1028B000094B1B78012B08D1084C0E492000FDF76D
:1028C000E4FD00992000FEF7C9F90120404205B05F
:1028D000F0BDC046520C0020510C0020180300200F
:1028E000BFCB0000A6C70000D3CB000005CC000082
:1028F000FACC0000D6CB0000F8B503780700214CD5
:10290000002B26D0FFF76EFF1F4BC5B21B78012BA3
:1029100010D11E4E1E493000FDF7B7FD39003000C2
:10292000FDF7B3FD1B493000FDF7AFFD2900300076
:10293000FEF748FF04356D006419E08890281FD920
:10294000FF21FFF77BFCE088FF210138FFF776FCD1
:1029500016E0250010490D48FEF780F90E358C343D
:102960002888902807D9FF21FFF768FC2888FF21D5
:102970000138FFF763FC00232B800235A542EFD11D
:10298000F8BDC046520C0020510C00201803002056
:1029900017CC0000FACC000026CC0000F0B585B0C2
:1029A00005000292062800D900257C4F002935D069
:1029B0006B000193FE5A7A4B1B78012B08D1794C9E
:1029C00079492000FDF761FD29002000FEF7FAFE9D
:1029D000741C3000A4B2FFF703FE70280CD102363D
:1029E0002000B6B2FFF7FCFD022804D16B00FC5AB0
:1029F0006E4B1D7004E034000135EDB2072DD7D1C8
:102A00002000FFF7EDFD702800D0B2E0601C80B21E
:102A1000FFF7E6FD022800D0ABE00EE06D007C5B26
:102A20002000FFF7DDFD702800D0B4E0601C80B20C
:102A3000FFF7D6FD022800D0ADE00234A4B2584B17
:102A40001A780393012A08D1564D59492800FDF7F9
:102A50001CFD21002800FDF71CFD0025601980B237
:102A6000FFF7BEFD534B58550135302DF6D1524E70
:102A700031343700A4B22000FFF7B2FD651CADB2BF
:102A800030702C0001360028F5D14C4B1B78012BFF
:102A900008D1444C4A492000FDF7F7FC39002000DA
:102AA000FEF7DCF800260024F3B20193454BB70093
:102AB000FF18281980B2FFF793FD38550134042C14
:102AC000F7D1281D6C1D80B2A4B2FFF789FD002844
:102AD0000BD0344F3C493800FDF7D7FC601EFFF7A0
:102AE0007FFD01003800FEF76DFE2000FFF778FD46
:102AF000002814D000272000FFF772FD3349651C21
:102B0000ADB2C855002803D10198FEF7E7FA08E0F6
:102B10008E230137FF332C009F42ECD1F4E70635BA
:102B2000ADB20136132EBED1294B1A781D00002AF2
:102B300001D0FEF753FE029B002B04D01B4B02205A
:102B40001978FEF735F8039B1B78002B09D0154C3C
:102B500020492000FDF799FC144B20001978FEF75E
:102B600031FE2B78002B16D01B490E48FEF776F865
:102B700011E03C882000FFF733FD70280BD1601C6A
:102B800080B2FFF72DFD022805D10022074B023449
:102B9000A4B21A7053E705B0F0BDC046520C002035
:102BA000510C0020180300203CCC00002806002017
:102BB0004CCC0000420200207702002022060020B8
:102BC0006BCC0000B40B00207BCC00005C06002026
:102BD000FC05002094CC000091CF000010B501222C
:102BE000FFF7DCFE10BDFFFF70B503780600002B79
:102BF00004D1134B18780130C0B21AE0FFF742FD40
:102C0000104B04001B78012B10D10F4D0F492800E9
:102C1000FDF73BFC31002800FDF737FC0C4928008C
:102C2000FDF733FC21002800FDF733FC002C02DB0C
:102C3000E0B2012101E001210020FFF7CFFF70BDCC
:102C400028060020510C0020180300209ECC000014
:102C5000FACC0000F7B5070000910192FFF7C2FD22
:102C6000431C29D10025154A6B00D318DC89EEB22C
:102C7000002C0AD02000FFF7B3FC662819D0013CD5
:102C8000A0B2FFF7ADFCBB2813D00D4B1B78012B76
:102C900008D10C4C0C492000FDF7F7FB3100200057
:102CA000FEF790FD019B009A39003000FFF7FCFB16
:102CB00002E001353F2DD6D1F7BDC046520C0020B1
:102CC000510C002018030020A9CC0000F8B5002505
:102CD000184A6B00D318DC89EEB22000FFF780FCA5
:102CE000662822D1601E80B2FFF77AFCBB281CD177
:102CF000114F12493800FDF7C8FB31003800FFF7CB
:102D00008FFA023C0E493800A4B2FDF7BEFB661EE6
:102D10002000B6B2FFF764FC002803D004F000FCEA
:102D20003400F4E7380002F039FD01353F2DCFD1F2
:102D3000F8BDC046520C002018030020BACC000099
:102D40003DCD0000F7B50E0000923F2801D90024C8
:102D500055E02C4B04302C4D400018182B78C488BB
:102D6000012B03D129492A48FDF778FF2000FFF7FE
:102D700037FC6628EBD1601E80B2FFF731FCBB2820
:102D8000E5D12B78023CA4B2012B08D1204D21497A
:102D90002800FDF77AFB21002800FDF77AFB671E6B
:102DA0002000BFB2FFF71CFC002801D03C00F6E772
:102DB0003800FFF715FC009BA51E5B00E41A023CDF
:102DC000A3B284B2ADB200936300EB1A9BB201933D
:102DD000009B9D4213D0019B9D4210D02800FFF71D
:102DE000FFFB6F1EBFB230803800FFF7F9FB33885E
:102DF0000002023D18183080ADB20236E8E720002C
:102E0000FEBDC046520C0020510C0020C4CC000076
:102E100018030020DACC0000F7B506000F0001927D
:102E2000FFF7E0FC164B04001B78002819DB012B90
:102E300010D1144D14492800FDF727FB310028005C
:102E4000FDF723FB11492800FDF71FFB2100280097
:102E5000FDF71FFBE0B2019A3900FFF773FF040092
:102E60000BE00024012B08D1064D09492800FDF78D
:102E70000CFB31002800FDF7F1FE2000FEBDC0462E
:102E8000220600201803002006CD0000FACC000026
:102E9000FCCC0000F8B500252800FFF7A1FB314C61
:102EA00028550135902DF7D100231D002E49CA5C0D
:102EB0000133AD18ADB20E2BF9D12088FFF790FB8E
:102EC000702838D120880130FFF78AFB022832D1E0
:102ED00023008C331B88AB422DD1244B1B78012B54
:102EE0003ED1234D23492800FDF7B8FE0026F1B25C
:102EF0002800FFF795F9204F28003900FDF7C5FAA3
:102F00007300E15A28000136FDF7C3FA072EEED10F
:102F10000026F1B22800FFF783F939002800FDF7F9
:102F2000B4FA7300E318D98928000136FDF7B1FA25
:102F30003F2EEED114E004210220FDF739FE0F49A7
:102F40000B48FDF78BFEFFF785FA0020FFF7D4FC56
:102F500023000B498C3300201D80FFF7B3F9BCE739
:102F6000F8BDC046520C0020CDC80000510C002016
:102F70001803002017CD0000A5C700003FCD0000BA
:102F800054CD0000F8B50025174B6A00D45AEEB2B4
:102F90002000FFF725FB702822D1601C80B2FFF7CC
:102FA0001FFB02281CD1114F11493800FDF76DFAA3
:102FB00031003800FFF734F933340E493800A4B239
:102FC000FDF763FA661C2000B6B2FFF709FB002884
:102FD00003D004F0A5FA3400F4E7380002F0DEFB79
:102FE0000135072DD0D1F8BD520C00201803002068
:102FF0005ACD00003DCD00001F2310B5064A1840F1
:1030000011780843814206D00023107019001A007D
:10301000180004F04BF910BD301100201F2310B52B
:10302000074A184011780B008343994206D0137069
:1030300000231A001900180004F038F910BDC0462A
:103040003011002070B50A4B05005A1CD27F1C00BD
:10305000D30701D5FFF7E2FF631CDB7F9B0706D593
:10306000FDF7E4FF002802D02800FDF7C3FE70BD85
:103070004202002070B50A4B05005A1CD27F1C008A
:10308000D30701D5FFF7B8FF631CDB7F9B0706D58D
:10309000FDF7CCFF002802D02800FDF79DFE70BD93
:1030A0004202002070B5134B04005A1CD27F1D0051
:1030B000D30709D5104B1A780240D30602D0FFF788
:1030C000ADFF01E0FFF798FF6B1CDB7F9B070FD57F
:1030D000FDF7ACFF00280BD02000FDF799FE00287B
:1030E00003D02000FDF786FE02E02000FDF774FE0D
:1030F00070BDC046420200203011002070B50D4B5B
:1031000005005A1CD27F1C00D30705D500230200FE
:103110001900180004F0CAF8631CDB7F9B0708D570
:10312000FDF784FF002804D00021EAB20800FDF773
:10313000C3FD70BD42020020F8B505000E00012756
:103140002B004C4C803301DB022724E0631CDB7F27
:103150003B4206D0002380201A001900404204F0B0
:10316000A5F80134E37F9B0703D5FDF75FFF002837
:1031700065D18035E4E70122631CDB7F134205D073
:1031800000237F201A00190004F090F8631CDB7FF5
:103190003B4204D17F3D7F2DEDDC012714E0FDF79C
:1031A00045FF002852D1F5E7631CDB7F3B4206D088
:1031B000002380211A004942180004F077F8631CAC
:1031C000DB7F9B0705D4803633008033ECDB02279E
:1031D00014E0FDF72BFF00283ED1F4E70122E318AD
:1031E000DB7F134205D000237F211A00180004F072
:1031F0005DF8631CDB7F3B4204D17F3E01237F2EC1
:10320000ECDC04E0FDF712FF00282CD1F5E7621C8E
:10321000D27F1A4205D0002371B268B21A0004F0BE
:1032200045F80134E37F9B0723D5FDF7FFFE002817
:103230001FD0002231002800FDF73EFD19E00022DA
:10324000802011004042FDF737FD92E700227F20E9
:103250001100FDF731FD9DE7002280211000494259
:10326000FDF72AFDAFE700227F211000FDF724FDC6
:10327000C3E7F8BD4202002070B5104B05005A1C90
:10328000D27F1E00D3070DD50024280009F0E3F9F2
:10329000A04207D9285D03F0ADFE285D03F030FFA2
:1032A0000134F2E7731CDB7F9B0706D5FDF7BEFEFA
:1032B000002802D02800FDF76BFE70BD42020020FE
:1032C00070B50B4B05005A1CD27F1C00D30702D5EA
:1032D00080B203F08FFE631CDB7F9B0706D5FDF7F2
:1032E000A5FE002802D02800FDF7FEFD70BDC046F7
:1032F0004202002070B50B4B05005A1CD27F1C0007
:10330000D30702D580B203F0FBFE631CDB7F9B0773
:1033100006D5FDF78BFE002802D02800FDF702FE3F
:1033200070BDC0464202002010B5094B5A1CD27F26
:103330001C00D30701D503F039FF631CDB7F9B071B
:1033400005D5FDF773FE002801D0FDF70FFE10BD77
:103350004202002010B502F0D1FC10BD10B50400EF
:1033600002F0D2F9200010BDF0B5464C87B02368BA
:1033700001900493049D444F387802F0FFFD0397B9
:1033800000280BD02368414A0593059B5B1B9342A1
:10339000F1D93F493F48FDF761FC70E006003E4C23
:1033A00020802388F92B14D802F0EAFE029002F064
:1033B000E7FE029BC51A394B1A681F00954205D2D9
:1033C000039B187802F0DAFD8642F0D03B689D42FC
:1033D0003FD323882F4D3249FA2B00D031492800A2
:1033E000FDF73CFC00210B20FDF7E2FB2E4B2F4F9D
:1033F0001B78012B13D12E492800FDF72FFC002646
:103400002388B34207D97300F95A28000136FDF723
:1034100040F8F6B2F4E727492800FDF71FFC2649DB
:103420002800FDF725F801992800FDF721F8234928
:103430002800FDF71DF82188280002F0EFF9204947
:103440002800FDF70BFC227839000198FFF702FCF9
:1034500015E0FA231B029D4207D9FA2128008900B2
:1034600006F06CF8FA231B02C518012023880F4AC6
:10347000590046401B188D52F6B2238091E707B0E1
:10348000F0BDC046900F0020730200200F270000FF
:103490005FCD000018030020F40C00208C020020F7
:1034A00078CD00008FCD000022060020F60C002011
:1034B000A8CD0000BCCD0000CBCD0000E1CD0000C8
:1034C000E8CD000010B5FFF701FC10BD10B5FFF707
:1034D00013FA10BDF8B52B4EFA223100FFF79CFC11
:1034E000294F2A4B38801B78002806D1012B47D161
:1034F00027492848FDF7B2FB42E0012B14D1254DA6
:1035000025492800FDF7AAFB00243B88A34207D9E0
:103510006300F15A28000134FCF7BBFFA4B2F4E7C2
:103520001E492800FDF79AFB00210920FDF740FB0A
:1035300000231B4A1B4C13801B4A1C4913701C4A56
:1035400020001360EF2202F085F814212368217116
:10355000002B15D01748184A1B181B11D15411788D
:1035600053781648164A994205D8036809041A4048
:103570000A43026004E001681B040A40134303602D
:10358000F8BDC046F60C0020F40C002022060020F6
:10359000F5CD000018030020A8CD0000BCCD000030
:1035A000F20C0020E80C0020F00C0020C5350000D3
:1035B000E40C0020008FFCBF0003002014E400E0B6
:1035C000FFFF00FFF8B52F4A2F4F12883B883E00BF
:1035D0002E4D2F4C934223D92878002102F016FD5E
:1035E0002878002102F0AAFC002323703B80294B9D
:1035F0001A68002A01DD013A1A601B68002B40D1CD
:10360000254802F081F8254A1368002B39DD013B7B
:103610001360234B013BFDD12248FFF75BFF30E0F5
:10362000934206D11C4B1B68002B1CD01E4A1A600B
:1036300019E01E4A5B009B5AFA221202934204D9F7
:10364000FA22920053431A4A9B181A495A1E8A4278
:1036500009D818225343013B232B04D90E4A126880
:10366000002A00D013602178287802F0CFFC23785C
:10367000002B01D1803300E0002323703388013315
:103680003380F8BDF40C0020F20C00207202002000
:10369000F00C0020F00E0020E80C0020EC0E0020C2
:1036A00000710200630200207FA90300F60C0020D5
:1036B00000702FFCAFAAAA0A012310B5034A1360B9
:1036C000034A1360FFF706FF10BDC046F00E00204E
:1036D000EC0E0020012210B5044B52421A60044B3C
:1036E00002321A60FFF7F6FE10BDC046F00E002051
:1036F000EC0E00200022014B1A607047F00E0020F3
:1037000010B50020FFF7F8F810BDFFFF002804D027
:10371000FA239B005843014B186070478C0200202D
:1037200010B502F0EBFA00230448054A036005498E
:103730008033037108F03EFE10BDC046E80C002047
:10374000300200205D33000010B5FFF7EDFD0023CF
:103750001900034A99500433202BFBD110BDC046F9
:10376000F40E0020002310B5064A99008C58002C56
:1037700000D188505158884202D00133072BF4DD24
:1037800010BDC046F40E0020002330B50B499A004E
:1037900055580C0085420CD18A180021072B05D002
:1037A00050184068013350500431F7E70023E361BB
:1037B00002E00133072BEADD30BDC046F40E0020E5
:1037C0000023054A9958814204D00433202BF9D1B3
:1037D000002000E001207047F40E002010B5040026
:1037E000032916D8080005F095FE0E0E07022000EA
:1037F000FFF7E6FF002806D02000FFF7C5FF2000F6
:10380000FFF778FD05E02000FFF7ACFF2000FFF791
:1038100057FD10BD70B504000D0008F01CFF02300C
:1038200008F00AFE0600210008F00DFF300008F045
:1038300012FF301801380378D24C202B03D021001E
:10384000300008F0E9FE2100300008F00BFF041EF4
:1038500001D100F0C9FDCC4908F0EBFE002803D1EE
:103860002900CA48FFF7BAFFC949200008F0E1FE65
:10387000002803D12900C748FFF7B0FFC649200040
:1038800008F0D7FE002803D12900C448FFF7A6FF9F
:10389000C349200008F0CDFE002803D12900C1480B
:1038A000FFF79CFFC049200008F0C3FE002803D1A9
:1038B0002900BE48FFF792FFBD49200008F0B9FE7D
:1038C000002803D12900BB48FFF788FFBA49200030
:1038D00008F0AFFE002803D12900B848FFF77EFFAB
:1038E000B749200008F0A5FE002803D12900B548FB
:1038F000FFF774FFB449200008F09BFE002803D1B5
:103900002900B248FFF76AFFB149200008F091FE94
:10391000002803D12900AF48FFF760FFAE4920001F
:1039200008F087FE002803D12900AC48FFF756FFB6
:10393000AB49200008F07DFE002803D12900A948EA
:10394000FFF74CFFA849200008F073FE002803D1C0
:103950002900A648FFF742FFA549200008F069FEAC
:10396000002803D12900A348FFF738FFA24920000F
:1039700008F05FFE002803D12900A048FFF72EFFC2
:103980009F49200008F055FE002803D129009D48DA
:10399000FFF724FF9C49200008F04BFE002803D1CC
:1039A00029009A48FFF71AFF9949200008F041FEC4
:1039B000002803D129009748FFF710FF96492000FF
:1039C00008F037FE002803D129009448FFF706FFCE
:1039D0009349200008F02DFE002803D129009148CA
:1039E000FFF7FCFE9049200008F023FE002803D1D9
:1039F00029008E48FFF7F2FE8D49200008F019FEDD
:103A0000002803D129008B48FFF7E8FE8A492000EF
:103A100008F00FFE002803D129008848FFF7DEFEDA
:103A20008749200008F005FE002803D129008548B9
:103A3000FFF7D4FE8449200008F0FBFD002803D1E5
:103A400029008248FFF7CAFE8149200008F0F1FDF5
:103A5000002803D129007F48FFF7C0FE7E492000DF
:103A600008F0E7FD002803D129007C48FFF7B6FEE7
:103A70007B49200008F0DDFD002803D129007948AA
:103A8000FFF7ACFE7849200008F0D3FD002803D1F1
:103A900029007648FFF7A2FE7549200008F0C9FD0D
:103AA000002803D129007348FFF798FE72492000CF
:103AB00008F0BFFD002803D129007048FFF78EFEF3
:103AC0006F49200008F0B5FD002803D129006D489A
:103AD000FFF784FE6C49200008F0ABFD002803D1FD
:103AE00029006A48FFF77AFE6949200008F0A1FD25
:103AF000002803D129006748FFF770FE66492000BF
:103B000008F097FD002803D129006448FFF766FEFE
:103B10006349200008F08DFD002803D12900614889
:103B2000FFF75CFE6049200008F083FD002803D108
:103B300029005E48FFF752FE5D49200008F079FD3C
:103B4000002803D129005B48FFF748FE5A492000AE
:103B500008F06FFD002803D129005848FFF73EFE0A
:103B60005749200008F065FD002803D12900554879
:103B7000FFF734FE5449200008F05BFD002800D018
:103B8000A8E0A3E0A6C7000009CE000002E0000004
:103B900013CE000001E000001CCE000004E0000095
:103BA00024CE000040E0000032CE000008E000001B
:103BB0003ACE000080E0000048CE000052F0000045
:103BC0004FCE000051F0000058CE000050F0000031
:103BD00061CE00004FF000006BCE000028F0000026
:103BE00075CE00002CF000007FCE000029F0000010
:103BF00087CE00002AF0000095CE00002BF00000D8
:103C00009DCE000039F00000ABCE00003AF000007D
:103C1000B2CE00003BF00000B9CE00003CF0000046
:103C2000C0CE00003DF00000C7CE00003EF0000016
:103C3000CECE00003FF00000D5CE000040F00000E6
:103C4000DCCE000041F00000E3CE000042F00000B6
:103C5000EACE000043F00000F2CE000044F0000085
:103C6000FACE000045F0000002CF000068F000002E
:103C70000ACF000069F0000012CF00006AF00000D7
:103C80001ACF00006BF0000022CF00006CF00000A3
:103C90002ACF00006DF0000032CF00006EF000006F
:103CA0003ACF00006FF0000042CF000070F000003B
:103CB0004ACF000071F0000052CF000072F0000007
:103CC0005ACF000073F0000062CF00002900D448F2
:103CD000FFF784FDD349200008F0ABFC002803D196
:103CE0002900D148FFF77AFDD049200008F0A1FC57
:103CF000002803D12900CE48FFF770FDCD492000F0
:103D000008F097FC002803D12900CB48FFF766FD97
:103D1000CA49200008F08DFC002803D12900C848BA
:103D2000FFF75CFDC749200008F083FC002803D1A1
:103D30002900C548FFF752FDC449200008F079FC6E
:103D4000002803D12900C248FFF748FDC1492000DF
:103D500008F06FFC002803D12900BF48FFF73EFDA3
:103D6000BE49200008F065FC002803D12900BC48AA
:103D7000FFF734FDBB49200008F05BFC002803D1AD
:103D80002900B948FFF72AFDB849200008F051FC86
:103D9000002803D12900B648FFF720FDB5492000CF
:103DA00008F047FC002803D12900B348FFF716FDAF
:103DB000B249200008F03DFC002803D12900B0489A
:103DC000FFF70CFDAF49200008F033FC002803D1B9
:103DD0002900AD48FFF702FDAC49200008F029FC9E
:103DE000002803D12900AA48FFF7F8FCA9492000C0
:103DF00008F01FFC002803D12900A748FFF7EEFCBC
:103E0000A649200008F015FC002803D12900A44889
:103E1000FFF7E4FCA349200008F00BFC002803D1C5
:103E20002900A148FFF7DAFCA049200008F001FCB6
:103E3000002803D129009E48FFF7D0FC9D492000AF
:103E400008F0F7FB002803D129009B48FFF7C6FCC8
:103E50009A49200008F0EDFB002803D1290098487A
:103E6000FFF7BCFC9749200008F0E3FB002803D1D2
:103E700029009548FFF7B2FC9449200008F0D9FBCF
:103E8000002803D129009248FFF7A8FC914920009F
:103E900008F0CFFB002803D129008F48FFF79EFCD4
:103EA0008E49200008F0C5FB002803D129008C486A
:103EB000FFF794FC8B49200008F0BBFB002803D1DE
:103EC00029008948FFF78AFC8849200008F0B1FBE7
:103ED000002803D129008648FFF780FC854920008F
:103EE00008F0A7FB002803D129008348FFF776FCE0
:103EF0008249200008F09DFB002803D1290080485A
:103F0000FFF76CFC7F49200008F093FB002803D1E9
:103F100029007D48FFF762FC7C49200008F089FBFE
:103F2000002803D129007A48FFF758FC794920007E
:103F300008F07FFB002803D129007748FFF74EFCEB
:103F40007649200008F075FB002803D12900744849
:103F5000FFF744FC7349200008F06BFB002803D1F5
:103F600029007148FFF73AFC7049200008F061FB16
:103F7000002803D129006E48FFF730FC6D4920006E
:103F800008F057FB002803D129006B48FFF726FCF7
:103F90006A49200008F04DFB002803D12900684839
:103FA000FFF71CFC6749200008F043FB002803D101
:103FB00029006548FFF712FC6449200008F039FB2E
:103FC000002803D129006248FFF708FC614920005E
:103FD00008F02FFB002803D129005F48FFF7FEFB04
:103FE0005E49200008F025FB002803D129005C4829
:103FF000FFF7F4FB5B49200008F01BFB002803D10E
:1040000029005948FFF7EAFB5849200008F011FB46
:10401000002800D0AEE029005548FFF7DFFBA9E0FB
:1040200049F000006DCF00004AF0000076CF00009C
:104030004BF0000082CF00004CF000008DCF00005C
:104040004DF0000095CF00004EF00000A3CF00001F
:1040500004F00000A9CF000005F00000AFCF000081
:1040600006F00000B5CF000007F00000BBCF000055
:1040700008F00000C1CF000009F00000C7CF000029
:104080000AF00000CDCF00000BF00000D3CF0000FD
:104090000CF00000D9CF00000DF00000DFCF0000D1
:1040A0000EF00000E5CF00000FF00000EBCF0000A5
:1040B00010F00000F1CF000011F00000F7CF000079
:1040C00012F00000FDCF000013F0000003D000004C
:1040D00014F0000009D0000015F000000FD000001F
:1040E00016F0000015D0000017F000001BD00000F3
:1040F00018F0000021D0000019F0000027D00000C7
:104100001AF000002DD000001BF0000033D000009A
:104110001CF0000039D000001DF000003FD000006E
:104120001EF0000045D000001FF000004BD0000042
:1041300020F0000051D0000021F0000057D0000016
:1041400022F000005DD0000023F0000063D00000EA
:1041500024F0000069D0000025F000006FD00000BE
:1041600026F0000075D0000027F000007BD0000092
:1041700048F000009E49200008F05BFA002803D1B7
:1041800029009C48FFF72AFB9B49200008F051FAC0
:10419000002803D129009948FFF720FB9849200007
:1041A00008F047FA002803D129009648FFF716FBCC
:1041B0009549200008F03DFA002803D129009348D2
:1041C000FFF70CFB9249200008F033FA002803D1D6
:1041D00029009048FFF702FB8F49200008F029FAD8
:1041E000002803D129008D48FFF7F8FA8C492000F8
:1041F00008F01FFA002803D129008A48FFF7EEFAD9
:104200008949200008F015FA002803D129008748C1
:10421000FFF7E4FA8649200008F00BFA002803D1E2
:1042200029008448FFF7DAFA8349200008F001FAF0
:10423000002803D129008148FFF7D0FA80492000E7
:1042400008F0F7F9002803D129007E48FFF7C6FAE5
:104250007D49200008F0EDF9002803D129007B48B2
:10426000FFF7BCFA7A49200008F0E3F9002803D1EF
:1042700029007848FFF7B2FA7749200008F0D9F909
:10428000002803D129007548FFF7A8FA74492000D7
:1042900008F0CFF9002803D129007248FFF79EFAF1
:1042A0007149200008F0C5F9002803D129006F48A2
:1042B000FFF794FA6E49200008F0BBF9002803D1FB
:1042C00029006C48FFF78AFA6B49200008F0B1F921
:1042D000002803D129006948FFF780FA68492000C7
:1042E00008F0A7F9002803D129006648FFF776FAFD
:1042F0006549200008F09DF9002803D12900634892
:10430000FFF76CFA6249200008F093F9002803D106
:1043100029006048FFF762FA5F49200008F089F938
:10432000002803D129005D48FFF758FA5C492000B6
:1043300008F07FF9002803D129005A48FFF74EFA08
:104340005949200008F075F9002803D12900574881
:10435000FFF744FA5649200008F06BF9002803D112
:1043600029005448FFF73AFA5349200008F061F950
:10437000002803D129005148FFF730FA50492000A6
:1043800008F057F9002803D129004E48FFF726FA14
:104390004D49200008F04DF9002803D129004B4871
:1043A000FFF71CFA4A49200008F043F9002803D11E
:1043B00029004848FFF712FA4749200008F039F968
:1043C000002803D129004548FFF708FA4449200096
:1043D00008F02FF9002803D129004248FFF7FEF921
:1043E00041490020FFF731FA300008F02FF870BD86
:1043F00085D0000047F0000095D0000053F0000089
:10440000A2D0000046F00000B2D0000033F000005F
:10441000C0D0000036F00000CAD0000037F0000025
:10442000D5D000002DF00000DFD000002EF00000FD
:10443000E9D0000038F00000F3D0000031F00000B7
:1044400001D100002FF0000010D1000030F000007A
:1044500020D1000034F000002AD1000035F0000027
:1044600034D1000065F000003DD1000054F00000A0
:104470004AD1000055F0000059D1000056F000006C
:1044800066D1000057F0000072D1000058F0000023
:104490007FD1000059F0000088D100005AF00000E0
:1044A00091D100005BF000009AD100005CF00000A8
:1044B000A3D100005DF00000ACD100005EF0000070
:1044C000B5D100005FF00000BED1000060F0000038
:1044D000C7D1000061F00000D0D1000062F0000000
:1044E000D9D1000063F00000A6C7000010B5040099
:1044F0000021FFF78FF902212000FFF78BF910BD93
:1045000010B50121FFF786F910BD10B50221FFF7A4
:1045100081F910BD10B50321FFF77CF910BD10B56E
:1045200001F0ECFB10BDFFFFF0B5BE4B89B01B687E
:10453000BD4D0793079CBD4B01901C602B68170075
:10454000E01A029106F062F8B94BBA4918602C6083
:1045500005F08EFB07F04EFEB74BB84A1860596065
:104560001368B74EBB4202DA0123337005E0002125
:104570003170BB4201DD012300E00023B149176027
:104580000B70B14B1A78039300239A4200D0C833C2
:10459000AE4C2078062800D9C8E004F0BBFF04190F
:1045A000296A7AC7B700039B5B8A9F4205DD012316
:1045B000002105202370FCF7FBFA039B9B8A9F4296
:1045C00000DBB3E0032000212070FCF7F1FAADE03E
:1045D000039BDA899E4B974202DA1A68013200E0A7
:1045E00000221A601B68132B00DCE5E302233EE087
:1045F00002995A428A4208DD00210620FCF7D8FAC7
:104600000F20FCF7D3FD0F202EE001998A4208DD30
:1046100000210620FCF7CCFA1120FCF7C7FD112081
:1046200022E0019A934208DA00210620FCF7C0FA42
:104630001220FCF7BBFD122016E0029A934208DA22
:1046400000210620FCF7B4FA1020FCF7AFFD102083
:104650000AE07F4A13680133C82B5CDD00230A207F
:104660001360FCF7A3FD0A20FCF7B2FD06232370BC
:104670005CE0039B9A89764B974202DD1A6801320F
:1046800000E000221A601B68132B00DC94E3042373
:10469000EDE702995A42914208DA00210420FCF722
:1046A00087FA0B20FCF782FD0B20DDE70199914290
:1046B00008DA00210420FCF77BFA0D20FCF776FDD8
:1046C0000D20D1E7019A934208DA00210420FCF77B
:1046D0006FFA0E20FCF76AFD0E20C5E7029A93429E
:1046E00008DA00210420FCF763FA0C20FCF75EFDD9
:1046F0000C20B9E7564A13680133C82B0BDD0023A1
:1047000008201360FCF752FD0820ADE7504A1368FB
:1047100001331E2B01DC13604EE30025156025706C
:10472000FCF7FCFD4B4B1D704B4B1D702378002498
:10473000A34200D040E3494D285D01F01FFC4142F7
:1047400041412000C9B20134FCF7B6FD032CF2D17F
:10475000287801F013FC424C051E0ED1C8222368B4
:10476000920001332360934209D101000A20FCF733
:104770001FFAFCF763FC256001E000232360354D40
:104780002C78012C10D03049002C02D0022C22D0E1
:1047900032E0CB899F422FDD21000820FCF708FA88
:1047A00001232B702F4B26E032782E4B002A0CD1A0
:1047B0001A78511C19700F2A1ED9022209202A705A
:1047C00008321A70FCF7F2FC16E01A78002A13D0AF
:1047D000013A1A7010E0234B1A78002A01D0013AEE
:1047E0001A70CA89974207DA1C78002C04D1092074
:1047F000FCF7EEFC174B1C70174E134C3578012D4F
:1048000034D0002D02D0022D48D058E0A3899F4219
:1048100055DA29000720FCF7CBF901233370124B3E
:104820004CE0C046900F0020180F0020600F0020C1
:10483000580F002020BCBE4C380F002090020020F2
:104840004B0F00205C0F002042020020490F002087
:104850002C0F0020400F0020300F00207402002099
:10486000140F0020480F0020540F0020D54B1A7859
:10487000D54B002A0CD11A78511C19700F2A1ED959
:1048800002220720327008321A70FCF78FFC16E003
:104890001A78002A13D0013A1A7010E0CA4B1A781D
:1048A000002A01D0013A1A70A289974207DD1D78CB
:1048B000002D04D10720FCF78BFCC44B1D70002099
:1048C000C34B1856002804D1C24B1B785BB2002B97
:1048D0000AD0C14A1378591C11709B0704D10021DA
:1048E000BC4B5956FEF728FC2678012E00D045E136
:1048F000208905F043FEB94905F0BAF9B84B039099
:104900001E685F68002200233000390004F09CFF1D
:10491000B44C002807D00022B34B1A600022B34BDE
:10492000226063609EE0226863683000390004F012
:10493000A5FF002801D026606760A022A94B1206BF
:104940001C685D68AA4B2000290006F0EDFD0200FE
:104950000B003000390004F091FF002810D0A24C69
:10496000A4492568281C04F0AFFF00281AD0A24BE8
:10497000588905F003FE291C05F004F8206011E0B9
:1049800000229A4B2000290004F078FF002809D06B
:1049900080229A4B12062000290006F0C5FD914B9B
:1049A00018605960C0228F4BD2051C685D68944B1B
:1049B0002000290006F0B8FD02000B00300039008D
:1049C00004F048FF002806D0874B8E49186805F090
:1049D00019FB854B186080228B4BD20520002900E3
:1049E00006F0A2FD02000B003000390004F032FF97
:1049F0007D4C002804D02068844905F003FB20602A
:104A0000834D019B2A68981A07F0B2FB814E029BE6
:104A100032680490981A4F0007F0AAFB7F084900FB
:104A200002004B080498390005F02EFE00227A4B54
:104A300006F056F902000B000020784906F0EEFF60
:104A400004900591206807F0D5FB0B000200049844
:104A5000059906F069FD07F021FC019B20602B60A1
:104A6000029B3360604B1D686D4B1E685F68624B34
:104A7000587805F0CBFD041C019805F07FFD011C62
:104A8000201C05F0BFFA291C05F0BCFA07F0B2FBA8
:104A900032003B0006F048FD07F000FC564B041CBA
:104AA000987805F0B3FD0190029805F067FD011CB0
:104AB000019805F0A7FA291C05F0A4FA07F09AFB63
:104AC00032003B0006F030FD07F0E8FB211C051C1E
:104AD000201C05F097FA291C061C281C05F092FAE8
:104AE000011C301C04F04EFF07F084FB03F032F889
:104AF00007F0D4FB061C011C039804F0E5FE002817
:104B00000ED0311C039805F0B3F8011C061C201CC4
:104B100005F078FA311C041C281C05F073FA051CFA
:104B2000404E201C316804F02DFF3F4C071C2168CB
:104B30003060281C04F026FF051C2060381C05F09E
:104B4000FBFC0700281C05F0F7FC3B0005000343B5
:104B500003D001003800FEF7EFFA380005F00EFD33
:104B6000011C306805F062FB3060280005F006FD8E
:104B7000011C206805F05AFB20601DE1002E18D1B1
:104B8000029B0320D90FFCF797FB029B0420D91747
:104B9000C91AC90FFCF790FB019B0520D90FFCF740
:104BA0008BFB019B0620D917C91AC90FFCF784FBA0
:104BB00002E1029B1C4D002B38D18823DB052B60C2
:104BC00047E0C0465C0F0020540F0020300F00204B
:104BD000280F00204C0F00204A0F00200000204129
:104BE00038060020200F0020340F00200000344041
:104BF0009999E93F00401C474202002014AEEF3F64
:104C00006666E63F77BE7F3F3333D33FC9767E3F4C
:104C10001C0F0020500F002000409F400000F03F7C
:104C2000380F0020640F0020440F0020A07805F00A
:104C3000A5FC041C029805F0A1FC011C201C05F039
:104C4000E1F95E4905F014F88821C90504F09AFEDF
:104C50002860019B5A4C002B03D18823DB0523607D
:104C600013E0039B587805F089FC071C019805F0B8
:104C700085FC011C381C05F0C5F9504904F0F8FF0B
:104C80008821C90504F07EFE206000272068391CB9
:104C900004F01AFE002800D027604A4F2068391C13
:104CA00004F026FE002800D0276000272868391C61
:104CB00004F00AFE002800D02F60424F2868391CFB
:104CC00004F016FE002800D02F60032E2AD0042EF8
:104CD00050D0022E70D1206804F03CFE3A4B3B4A83
:104CE00059683B4E0A401F00B04200D93000000115
:104CF000384C104358602378002B01D102F072F831
:104D0000286804F027FE344B7A681340B04200D97B
:104D10002F488003184378602378002B4CD102F091
:104D200061F849E0206804F015FE294FB84200D927
:104D30003800254C02066368264E1B021B0A1343EB
:104D400063600323A268000A9A4333781043A0608B
:104D5000002B01D102F046F8286804F0FBFD1F4B40
:104D6000A2681340B84200D9194880001843A060D7
:104D70003378D2E7206804F0EDFD134B184A9968A8
:104D8000134E0A401F00B04200D930000003114CFE
:104D9000104398602378002B01D102F023F8286893
:104DA00004F0D8FDBB689B029B0AB04200D90848BA
:104DB00080051843B860AFE709B0F0BD0000484275
:104DC000640F002000C07F447C1200200FC0FFFF52
:104DD000FF03000025110020FF3F00FF03F0FFFF4D
:104DE000FF0FC0FF10B500F089FF10BD30B5021EE7
:104DF00014D003780020834210D003000A241078D6
:104E0000002807D03038C5B2092D06D863430132D7
:104E1000C318F4E70B80012000E0002030BD73B51B
:104E20000C00002801D1002010E0037801252D2B73
:104E300001D14019023D6B469E1D3100FFF7D6FFA0
:104E40000028F0D0012033886B43238076BD0028F2
:104E50000AD00378002B07D01A00613A192A01D82A
:104E6000203B03700130F4E77047FFFFF0B589B0D5
:104E700002AB9E1C00230100040003A8338007F04E
:104E8000E2FB344D2B78012B08D1334F33493800E6
:104E9000FBF7EEFA21003800FBF7E0FE304F200070
:104EA000390007F0DFFB0197041E47D02B78012B58
:104EB00008D1294D2B492800FBF7DAFA21002800F8
:104EC000FBF7CCFE00252000FFF7C1FF264FF91E9F
:104ED000200007F0AEFB00281ED13B78022B0BD040
:104EE000032B13D0012B14D1019907F0BBFB310028
:104EF0000400FFF77BFF06E0019907F0B3FB3100E8
:104F00000400FFF78CFF002806D000E003346BB2EA
:104F100004E06BB2040001E001235B4201354F2D38
:104F20000AD004375A1CD2D00022B15ED8B2220077
:104F30000023FCF783FD0AE05A1CF5D1064C0B490F
:104F40002000FBF78BFE03A92000FBF787FE09B0CA
:104F5000F0BDC0462206002018030020E7D1000063
:104F6000A6C70000F5D1000020CA0000FDD1000056
:104F700070B5254A03001178002902D0FCF716FB12
:104F800041E0224C2078032837D804F0C3FA0211FC
:104F90001724202118008843412801D1012331E042
:104FA000402B30D1237801332370012313702AE082
:104FB00020229343542B24D1523B23E00D2B01D0CC
:104FC0000A2B01D1124919E0202B16D10022114BD6
:104FD0001A70032316E00F4A0F480D2B01D00A2B3D
:104FE00006D100251378C554FFF740FF25700AE06D
:104FF00011784C1C1470435405E008490848FBF72D
:105000002DFE0023237070BD490C0020680F002086
:1050100001D20000690F00205C060020FFD10000D3
:105020001803002010B500F069FE10BD0020704785
:105030000300383039331B780078181A70470200A3
:1050400001003832393113780978994204D9591C52
:105050001170C318187E01E0012040427047030020
:105060000200383339321B7812789A4202D9C318B9
:10507000187E01E001204042704770470300002283
:1050800010B55E331B8893420DD004005D34237845
:10509000202B02D90123037105E05A1C2270012242
:1050A000C3183B331970100010BD70B51400020016
:1050B000030000205E321288824212D01D0021229D
:1050C0005D352878121A944202D901241C7114000B
:1050D0003B331818220007F0C3F920002B781B1966
:1050E0002B7070BD43691A685B68126813420FD059
:1050F000084A0369914201D81F2205E0064A9142FD
:1051000001D8122200E002225A70022203699A7129
:105110007047C0467F1A06003F420F000200F8B5F4
:1051200000230400383213705370243293701370CC
:10513000537043668366D370406964270168426890
:105140000D682A430A6022691549937023000C22D6
:10515000613360691E788619337A5343CB185D68D2
:10516000737BE0261B02F60033403B432B60230099
:1051700062331B78C018837C5A43C37D89181B0295
:105180004A681E403E43166006492000FFF7AAFF0A
:10519000202322695371802223699A70F8BDC0468A
:1051A000D4D20000A0860100102270B5036904006B
:1051B000DD78EDB2154203D140222A4004D12BE024
:1051C000DA706B06F8D476E004231D403A4B1BD00E
:1051D000250000225D352A701A70636E934200D05C
:1051E000984723002A783B33002A02D101212970F5
:1051F0001A70D02221698A701B78226913712300EA
:1052000001225C331A7053E001221A7023003933F3
:105210001D702269C02330E0602120698379DBB2F0
:10522000194060290CD140398B438371A36E002B48
:1052300006D0210038310A702200393210789847A0
:105240001023226991780B401BD001231D4013D1FC
:10525000210020005C315D300B780078984206D93F
:10526000581CE31808703B331B78137100E015716C
:10527000D023226993701BE0C023937023691B79AC
:1052800016E0210060310B70202193790B4321003F
:105290009371236939311A790B78D2B21F2B07D851
:1052A00005480078002803D0581CE31808701A76C7
:1052B00002222369DA7070BD6A0F0020F0B5002168
:1052C0000400334B85B01B680293029B019320209E
:1052D0002269D378034257D02D4B01981B68039362
:1052E000039B1B1A0F2BF2D9002945D125006135EC
:1052F00062692B780531D318187A00F051FE2B78AB
:1053000062690121D3189F7C0926380000F048FE0D
:105310000021380000F012FE5023013BFDD1012195
:10532000380000F00BFE5023013BFDD1013E002E62
:10533000EED10C2166692B78164DF3181A7A642089
:105340004A43AA185768E0225B7BD2001B02134035
:1053500003433B60230062331B78F618B37C594348
:105360006D18F17D6B6809020A4010431860A02394
:10537000013BFDD10121AAE7102BA8D0002090709D
:10538000802223699A7000E0012005B0F0BDC0467C
:10539000900F0020D4D2000012230269F0B5D37020
:1053A000202287B0036901919D780400154002D046
:1053B00094329A700BE0FFF781FF03000420002B6A
:1053C00062D023005F331D70B023226993702026C2
:1053D0002E4B20691A680292029DC278324048D052
:1053E000002202252026009222005D3212780099C8
:1053F0008A4233D962183B32127821690A711A68DD
:1054000021690592059A9446CA78D2B217002F40B6
:105410000AD1324208D060461A680492049A121ADD
:10542000052AF1D98F702BE01020CD702169CA7840
:10543000D2B2024201D1324203D1802304208B70C8
:105440000DE0012100980A4204D043425841032351
:10545000181A07E00130C2B20092C5E70020019B94
:10546000002B02D080232269937000235E342370C6
:105470000AE0196803910399491B0429ADD9827088
:105480008022042023699A7007B0F0BD900F00209D
:10549000F0B516008BB00200019300233832137070
:1054A00001321370009202691233D3702022036913
:1054B00005009C780F00144002D094329A700AE0E4
:1054C000FFF7FCFE002800D1B4E02B005F331C7016
:1054D000B0232A6993702022944658490B6802939E
:1054E00002982B696246DC7814400A00002C06D131
:1054F0000A680392039A121A042AF3D912E00121CE
:105500007F000F43FFB21F710227136804930498B2
:105510002B69DC783C4009D1116805910599091A7D
:105520000529F6D99C702B69802211E00222DA70DD
:105530002B690F32DC78144003D06F329A7000244C
:1055400078E0002E06D101998022002900D1203276
:105550009A706FE0A822012E00D0A0229A70022239
:105560002B6994461B79002334492A690868012E67
:1055700028D00690069F6446D078204006D10C685B
:105580000794079CE41B052CF5D927E00221102085
:10559000D1702969CA78D2B202424AD100180242B7
:1055A00047D0013EF6B2012E01D1A8228A702A69A5
:1055B0001F2B05D81279591CEB181A76CBB2D3E7FA
:1055C0001279D1E702270890089ED078384007D199
:1055D0000C680994099CA41B052CF6D9907023E053
:1055E00002211020D1702969CA78D2B2024209D0B2
:1055F000C8705022013AFDD1296908388A7882435F
:105600008A7016E01C00920614D5B0228A702A69AE
:105610001F2B05D81279591CEB181A76CBB200E073
:105620001279019A002A02D080212A699170009A89
:1056300013701C0020000BB0F0BDC046900F00207E
:1056400010B50248FFF7B0FD10BDC046940200201F
:105650007047FFFF036870B5002B04D000249C60E6
:105660000134DC6018E080251D4C2D0423682B4399
:105670002360C04601241B4B1C601B4B1B4C03606A
:1056800003689D68002D07D010330360A342F7D94B
:1056900000230360180022E00468154B22600322F7
:1056A000E3181B11134D9E00A2607151124A01793B
:1056B0001248D15411785378114A994205D8036899
:1056C00009041A400A43026004E001681B040A400E
:1056D00013430360802201200A4BD2031A6070BD7D
:1056E0003C80044000700340007103401F71034080
:1056F000008FFCBF040300200003002014E400E03E
:10570000FFFF00FF00E100E0026830B5002A1ED074
:105710000F4B1049D3181B110F4D9C0065500021F1
:1057200091600E4AFF31D154117853780C4C0D4AD8
:10573000994205D8236809041A400A43226004E00C
:1057400021681B040A40134323600023036030BD1B
:10575000008FFCBF0403002051560000000300200E
:1057600014E400E0FFFF00FF094B10B51A68002A9F
:1057700004D001221A60074B1B689847064B1A6831
:10578000002A04D001221A60024B5B68984710BDC2
:105790000C710340040300201C71034037B502253F
:1057A00004002A00054901A806F05AFE23682A00D1
:1057B0005B6801A9200098473EBDC04648D2000062
:1057C000F0B50D000F2185B09446134A6944ACB280
:1057D0002F0C574301345443BBB2260C1C19A41997
:1057E0003B0C240CDB19E3180A245B085C432D1BDB
:1057F000303501390D701D1EE9D16346002B02D0F2
:105800002D2301390B70CA4304ABD21803685B68BF
:10581000984705B0F0BDC04633330000002210B5F4
:10582000914201DA49422D32FFF7CAFF10BD37B568
:105830000F2502AB0A002A401400013B3734092A25
:1058400001D8303214001C700909F3D1016802AA92
:105850004C68D21A1900A0473EBD10B5012488B08B
:1058600008AB0A002240013B30321A704908F8D1D7
:10587000016808AA4C68D21A1900A04708B010BDE8
:10588000F0B5152405000F00160087B06C443100F8
:10589000380003F053FE01007143791AC9B20B00BE
:1058A0003733013CDBB2092901D83031CBB2237048
:1058B000071EECD106AB1A1B2B68033A5B6821006C
:1058C0002800984707B0F0BD214A70B5136815004D
:1058D00020482149002B09D000680978013B01715B
:1058E000591D01D103235B42136030E003680A783D
:1058F0001A4C1A702368002B23D0194B00211E6804
:10590000301C03F0EBFF002816D11649301C03F0C1
:10591000EFFF002810D11449301C04F073FBFC2168
:10592000890504F083FC04F015F80200232803D94C
:105930000E490F48FFF78EFE23682B60002323607B
:1059400005E00B48FFF7E0FEFF220A4B1A7070BD1E
:10595000800F0020740F00207C0F0020780F0020A3
:10596000840F0020ABAA2A4D0000C041C958000096
:105970006C0F00200C030020F8B506000D001A285B
:105980007AD8002A08D04A43FA211000890003F08F
:10599000D5FD4400013401E003246442002D00D110
:1059A0000135280004F032FE011C344804F060F98F
:1059B0000C237343051C3248C318596872B6314F23
:1059C00002003B789E4216D12F4E281C316803F00E
:1059D00075FF2E4B002806D001201A6810400138B0
:1059E00004191C6047E02A4A1968146001220A4021
:1059F00035601A603FE01A2B04D8264B26481B68F6
:105A0000007818700C2373433E70D6581800370086
:105A10001018027A1F4B204808371F60027032723C
:105A200072B61A680378167B3343137362B6A223E7
:105A30005B000B60154B00211C60134B281C1D6084
:105A400003F04CFF002816D11449281C03F050FF26
:105A5000002810D11249281C04F0D4FAFC21890531
:105A600004F0E4FB03F076FF0200232803D90D497C
:105A70000D48FFF7EFFD62B6F8BDC0460024F448BC
:105A8000D4D200000C030020840F0020800F0020DF
:105A9000780F0020740F00207C0F0020ABAA2A4D45
:105AA0000000C041C95800006C0F0020002310B551
:105AB0000448054A036005498033037106F07AFC07
:105AC00010BDC0466C0F0020300200205D33000086
:105AD0008023F0B51D4A10681840FCD172B61C4CEA
