:1000000000180020C1000000C97600008D760000B5
:100010008D7600008D7600008D7600008D760000D4
:100020008D7600008D7600008D760000C976000088
:10003000C97600008D7600003D7A00000D7B00003F
:10004000C9760000C9760000C9760000C9760000B4
:10005000C9760000C9760000C9760000C9760000A4
:1000600039570000C9760000C9760000C976000043
:10007000DD770000B5780000955F0000C9760000CC
:10008000C9760000C9760000C9760000C976000074
:10009000C9760000C97600002D720000C976000004
:1000A00001620000C9760000C9760000C976000030
:1000B000C9760000C9760000C9760000C976000044
:1000C000F8B507F005FB0821474A484B1A60484A33
:1000D000484B1A60484A494B1A60494B1A780A4201
:1000E00002D01A780A431A702A22464B46481A70E0
:1000F00000234649464C1A188A4203D2E558043375
:100100001560F8E70021434B434A934201D202C3F2
:10011000FBE70023414A424958589446985004331B
:10012000C02BF9D100210326FF2580248A083D4BEE
:100130009200D2180B002F003340DB009F40106864
:100140000131B84307002000984003003B4313608F
:100150002029EBD16246344B1A608A22334B1A7045
:10016000334B663A5A707C321A709E3A9979114232
:10017000FCD0102299791142FCD10C209A792C499B
:100180000240082AFAD1053A0A713D324A71203AF2
:1001900099791142FCD0402299791142FCD025492D
:1001A000254A11602021224A117014399A790A4097
:1001B0000C2AFBD1214A224B1A60224A224B1A6098
:1001C0000022224B1A60224B07321A60214A224B2E
:1001D0001A6062B605F0AEFD0CF0BCF907F07EFACD
:1001E00007F0D8F9FEE7C046300004F03480044040
:1001F000823F0000388004400100000F3C80044032
:1002000002D0074000E0074030020020D405002063
:100210006CDA0000D80500206811002000F9FF1FEB
:100220000000000000E400E008ED00E0005006409F
:10023000004006400000011044800440C000050555
:10024000048004407FBB000014E000E018E000E000
:1002500010E000E00000202020ED00E0FFFFFFFFA5
:10026000FFFFFFFFFFFFFFFFFFFFFFFFFFFFFFFF9E
:10027000FFFFFFFFFFFFFFFFFFFFFFFFFFFFFFFF8E
:10028000FFFFFFFFFFFFFFFFFFFFFFFFFFFFFFFF7E
:10029000FFFFFFFFFFFFFFFFFFFFFFFFFFFFFFFF6E
:1002A000FFFFFFFFFFFFFFFFFFFFFFFFFFFFFFFF5E
:1002B000FFFFFFFFFFFFFFFFFFFFFFFFFFFFFFFF4E
:1002C000FFFFFFFFFFFFFFFFFFFFFFFFFFFFFFFF3E
:1002D000FFFFFFFFFFFFFFFFFFFFFFFFFFFFFFFF2E
:1002E000FFFFFFFFFFFFFFFFFFFFFFFFFFFFFFFF1E
:1002F000FFFFFFFFFFFFFFFFFFFFFFFFFFFFFFFF0E
:10030000FFFFFFFFFFFFFFFFFFFFFFFFFFFFFFFFFD
:10031000FFFFFFFFFFFFFFFFFFFFFFFFFFFFFFFFED
:10032000FFFFFFFFFFFFFFFFFFFFFFFFFFFFFFFFDD
:10033000FFFFFFFFFFFFFFFFFFFFFFFFFFFFFFFFCD
:10034000FFFFFFFFFFFFFFFFFFFFFFFFFFFFFFFFBD
:10035000FFFFFFFFFFFFFFFFFFFFFFFFFFFFFFFFAD
:10036000FFFFFFFFFFFFFFFFFFFFFFFFFFFFFFFF9D
:10037000FFFFFFFFFFFFFFFFFFFFFFFFFFFFFFFF8D
:10038000FFFFFFFFFFFFFFFFFFFFFFFFFFFFFFFF7D
:10039000FFFFFFFFFFFFFFFFFFFFFFFFFFFFFFFF6D
:1003A000FFFFFFFFFFFFFFFFFFFFFFFFFFFFFFFF5D
:1003B000FFFFFFFFFFFFFFFFFFFFFFFFFFFFFFFF4D
:1003C000FFFFFFFFFFFFFFFFFFFFFFFFFFFFFFFF3D
:1003D000FFFFFFFFFFFFFFFFFFFFFFFFFFFFFFFF2D
:1003E000FFFFFFFFFFFFFFFFFFFFFFFFFFFFFFFF1D
:1003F000FFFFFFFFFFFFFFFFFFFFFFFFFFFFFFFF0D
:10040000FFFFFFFFFFFFFFFFFFFFFFFFDEF9FFFF23
:1004100010B5064C2378002B07D1054B002B02D0DA
:10042000044800E000BF0123237010BDD805002060
:10043000000000006CDA0000084B10B5002B03D060
:100440000749084800E000BF07480368002B00D1B7
:1004500010BD064B002BFBD09847F9E700000000C9
:10046000DC0500206CDA0000D4050020000000004C
:1004700070B5040008000D000CF0A1F9236802001B
:1004800029005B682000984770BD10B5FFF7F0FFAA
:1004900010BD70B5050006F023FF0400280006F02B
:1004A000DFFE001970BDFFFF70B5274B1B78002BD6
:1004B00048D0264E33785A1C32700A2B42D9244C2D
:1004C00024492000FFF7E1FF234B2000196806F0C4
:1004D00007FF224D20002900FFF7D7FF204B200007
:1004E000196806F0FDFE29002000FFF7CEFF1D4B26
:1004F0002000196806F0F4FE29002000FFF7C5FF70
:10050000194B2000196806F0EBFE29002000FFF7C8
:10051000BCFF164B2000196806F0E2FE29002000FF
:10052000FFF7B3FF124B2000196806F0D9FE29002F
:100530002000FFF7AAFF0F4B20001968FFF7A9FF63
:100540000023337070BDC04604060020F60500206D
:100550001803002092C80000000600209AC800007E
:10056000180600201C060020080600203006002087
:100570008807002050060020F7B5474D474B2868F4
:10058000002803DA1A68002A05DC06E0002804D0F7
:100590001A68002A01DA00221A60C2178118514035
:1005A0001A68D41712196240914200DD18603C4964
:1005B0001C684A7EA24200DA1A601C685242A242BB
:1005C00000DD1A60374B1C68374B002C03DA1A68C1
:1005D000002A05DC06E0002C04D01A68002A01DAA3
:1005E00000221A60E217A61856401A68D717D219C7
:1005F0007A40964200DD1C60CA7D19688A4200DAA2
:100600001A60196852428A4200DD1A600BF02CFE13
:1006100000900191224B187E0BF068FE0022234BC4
:100620000AF0DAFB1D4B060018680F000BF01CFEE9
:1006300002000B00300039000AF0F2FF02000B004C
:10064000009801990BF066FA0BF0D8FD28602000A5
:100650000BF00AFE124B0600987D0F000BF046FED1
:100660000022124B0AF0B8FB0F4B040018680D0073
:100670000BF0FAFD02000B00200029000AF0D0FF69
:1006800002000B00300039000BF044FA0BF0B6FD0D
:10069000044B1860F7BDC046880700200C060020F8
:1006A00040020020500600202806002000406F4035
:1006B000F0B5724B85B018781900714D714C002857
:1006C0001CD10423CA5E2B6856429E4201DDD3181A
:1006D00002E09A4202DA9B1A2B6000E028600623AF
:1006E000CA5E23685142994201DDD31804E09A4260
:1006F00001DA9B1A00E000232360BCE0286823682D
:1007000040435B43C0180BF0AFFD07F09FFA002693
:10071000002700900191009A019B5B490A604B60A1
:100720000098019932003B0009F00AF902960397FC
:10073000002852D128680BF097FD009A019B0AF01F
:100740004BFB06000F0020680BF08EFD009A019B0A
:100750000AF042FB32003B0007F074FA4B4B186082
:100760005960494B28681A685B68009201930BF046
:100770007BFD009A019B49004F0839000AF02CFBD1
:100780003E4B06000420185E0F000BF06DFD0200CA
:100790000B00300039000AF043FF060020680F000C
:1007A0000BF062FD009A019B49004D0829000AF0F8
:1007B00013FB324B04000620185E0D000BF054FDB5
:1007C00002000B00200029000AF02AFF02000B00A3
:1007D0003000390009F0D4FF09E02C4B0299039A4C
:1007E00019605A60254B0420185E0BF03DFD284B24
:1007F000254C186059602268636800920193009844
:100800000199234B1E685F6832003B0009F09EF897
:10081000002804D0029A039B2260636007E0320044
:10082000009801993B000BF075F920606160174B4F
:100830001C685D682000290007F0BCF9124B00908D
:1008400001911E685F682000290007F06DF9020021
:100850000B00300039000AF0E3FE0BF0CFFC084B30
:10086000320018603B00009801990AF0D9FE0BF0A5
:10087000C5FC044B186005B0F0BDC0464002002026
:1008800088070020500600203806002010060020AF
:100890004806002010B503F003F8012002F07EFCAA
:1008A000042002F07BFC022002F078FC0023024AC4
:1008B0001370024A137010BD000E00201C0E0020A1
:1008C00073B500F033FC384C2378012B07D1374D3A
:1008D00037492800FFF7CCFD280006F0C1FC354859
:1008E00004F098FC344B0021187805F0F5F8334EED
:1008F0003349307805F056F8324D0121287805F05B
:10090000EBF82878002105F0B5F83078012105F0E2
:10091000E3F82878002105F0ADF800252A4B0221E4
:10092000E85C013505F0D8F8032DF7D10025274BF9
:100930000121E85C013505F0CFF8032DF7D1FFF771
:10094000A9FF00F07FFD00231A00214E21489919CC
:100950004A801918043300250A604C2BF7D11E4B2E
:100960001D8000F083FD00F07BFC02F03FFB2800BF
:10097000012102F0DFF90A22184B25781A70184B72
:100980000F321A70012D08D1084C16492000FFF7CC
:100990007CFD29002000FFF77CFD134B1B680193B1
:1009A000019A124B1A6073BD240600201803002020
:1009B0009CC80000900200207102002070020020FC
:1009C000007014473E02002072020020380200200E
:1009D0008C0A0020A4090020F00900205406002001
:1009E00040060020DBC80000380E002090070020E1
:1009F000024B1870024B19707047C0465406002015
:100A00004006002070B5284B1A78284B1878002A29
:100A100045D0002105F02EF8254A1178002918D17B
:100A2000244D254C2B782078DB0700D5012105F0DB
:100A300021F82B786078013300219B0700D4012135
:100A400005F018F82B78A078013300215B0727D434
:100A500025E01A4B1C78002C1ED1012618480139BC
:100A60000078154DC9B2187011702878314209D03C
:100A7000210004F0FFFF6878210004F0FBFFA87854
:100A800021000DE0310004F0F5FF6878310004F03A
:100A9000F1FFA878310003E0013C1C7002E0012165
:100AA00004F0E8FF70BDC046860200203E02002030
:100AB000540600202C060020380200208C0700205D
:100AC00040060020F8B5164B1E88002E26D0154D86
:100AD0002B88002B02D0012B0BD01FE0124B0920DA
:100AE0001A88124B198806F0A9FC2B8801332B8039
:100AF00014E00F4F0C4B3C8818880E4B01341B88B8
:100B0000A4B23C80C018052108F01EFE844205DD19
:100B1000034B013E1E8000232B803B80F8BDC04666
:100B200034060020220600202E0600204206002067
:100B300006060020F4050020F0B50E2085B004F074
:100B4000ABFE534F3860152004F0A6FE514C2060D8
:100B5000142004F0A1FE504D2860172004F09CFEE4
:100B60004E4E3060162004F097FE4D4B4D4A1860F3
:100B7000D28B0197B42A0FD0872149008A4215D021
:100B80005A2A1CD1226848491A600A6031682160DB
:100B900029682860316012E0226829682A60424A88
:100BA00021601060326830601A6008E022683E49B7
:100BB00020600A6029681960336832602B6006F093
:100BC0008DF9002806DD06F041F9384B186004F075
:100BD0004BFAF4E7364B1B78002B37D03549364AB1
:100BE0000B6817680293354B02981B68FB18834209
:100BF0002CD80B680393039B1360314A1388002B96
:100C00002BD1274A336812689B1A2E4A0021525E64
:100C10009B1A2D4A13602A6823689B1A2B4A0021CD
:100C2000525E9B1A2A4A1360FFF7A6FCFFF73CFCB2
:100C3000FFF73EFD019B1A68254B1968224B186887
:100C400003F01EFDFFF7DEFEFFF73CFF214B1B7894
:100C5000002B1BD000F030FE18E0013B9BB213804C
:100C6000002BE1D10E49326809680E48511A2268FA
:100C70002C6809B2121B12B2418382831148018091
:100C800012490A80144A1360144ACCE705B0F0BD3B
:100C900000060020180600201C0600200806002080
:100CA000300600204002002058060020F8050020F1
:100CB00086020020380E0020900700203402002019
:100CC0003C02002026060020880700202006002085
:100CD00050060020FF0A00200C06002028060020F5
:100CE000013810B50A283FD808F090FC0B0F2426D5
:100CF0000608313429382C00C82200E06422C821BB
:100D000023E0C822C82152002BE0184A1388002B88
:100D10002AD1FA2089B2C8334B43C0001B181448AB
:100D2000013103809620134B11801880124B6438D8
:100D3000188019E0C82200E06422962105E01E22F6
:100D40000E490EE0FA22AF215200490009E00522C7
:100D50000B4906E0FA210522090102E0FA22E62108
:100D60001201092006F06AFB10BDC04634060020BF
:100D7000420600202E060020F4050020C4090000D1
:100D80008813000010B504F0F5FD10BD70B5050026
:100D9000FFF76EFB0400280006F062FA001970BD30
:100DA000D2B270B50500002A03D103681B689847CA
:100DB00014E00A2A01D0012A04D10022280006F0FA
:100DC00061FA0BE0102A02D106F093FA06E0022A3B
:100DD00002D106F0A4FA01E006F0B4FA04002800FB
:100DE00006F03EFA001970BDF0B53B4B85B01B789C
:100DF00000900E000192394D012B27D1384C394912
:100E00002000FFF7C3FF38492000FFF731FB102215
:100E100029782000FFF7C4FF34492000FFF728FBA2
:100E20000099200006F05CFA314F20003900FFF7EE
:100E30001FFB3100200006F053FA39002000FFF7B5
:100E400017FB0A2201992000FFF7AAFF294A009BFD
:100E50001168294C8C4663441360236827489B190A
:100E600023602978036816000090254A994207D12B
:100E70001168244B02911B68029914338B4228D8C5
:100E8000FF271368FD200393039A1E4B1A6005F099
:100E900021F8002005F01EF8032005F01BF8287843
:100EA00005F018F83068384005F014F8206838402C
:100EB00005F010F8002005F00DF8002005F00AF804
:100EC000002005F007F80023009A336023602B7898
:100ED000136005B0F0BDC04624060020A407002022
:100EE00018030020E5C80000F7C8000003C900008F
:100EF00010C90000980700209C070020AC070020C4
:100F0000380E0020A007002010B5054A13781843BA
:100F10001070002211001000FFF766FF10BDC046E0
:100F2000A407002010B5054A1378834313700022EC
:100F300011001000FFF758FF10BDC046A4070020A5
:100F4000034B1B781840431E9841C0B27047C046FF
:100F5000A407002070B5294B294E1B78294C012B82
:100F60002FD1294D29492800FFF710FF28492800D3
:100F7000FFF77EFA102231782800FFF711FF25498C
:100F80002800FFF703FF217810222800FFF708FF51
:100F9000617810222800FFF703FFA17810222800B3
:100FA000FFF7FEFEE17810222800FFF7F9FE217915
:100FB00010222800FFF7F4FE617910222800FFF7C5
:100FC000EFFEFD2004F086FF307804F083FF002060
:100FD00004F080FF207804F07DFF607804F07AFF51
:100FE000A07804F077FFE07804F074FF207904F033
:100FF00071FF607904F06EFF70BDC04624060020CA
:10100000A5070020A60700201803002012C9000031
:1010100027C9000034C90000C2B270B50012E02830
:1010200004D10A490B781A430A700CE0F0280AD15F
:1010300000230748195C1C000500002902D0013379
:101040008A42F7D12A55FFF785FF70BDA50700201A
:10105000A607002010B5C1B202120023E02A04D175
:101060000C4A13788343137010E00B4A5C1CD318AE
:101070001878884201D02300F7E7991A052903D090
:10108000597819700133F8E700235371FFF762FFB5
:1010900010BDC046A5070020A6070020002310B5FC
:1010A000054A137053709370D37013715371034AD0
:1010B0001370FFF74FFF10BDA6070020A507002003
:1010C000F7B5002680270190019B9B5D002B25D062
:1010D0005AB2002A08DB124AD45C40231C4204D0D6
:1010E0004023104D9C4305E0002400253C4204D0E1
:1010F0000D4DBC432800FFF78FFFF0231B021C435C
:101100002000FFF789FF2000FFF7A4FF002D02D089
:101110002800FFF79FFF0136B6B2D5E7F7BDC046FE
:10112000B8D3000002E0000040E0000010B5074B1B
:101130001B78012B03D106490648FFF727FE9C20A8
:1011400004F060FE0122044B1A7010BD240600203A
:1011500045C900001803002094070020024B1878AE
:10116000431E9841C0B270479407002010B501217A
:101170000C2004F0B1FC01210C2004F07BFCFA20CF
:10118000000104F0BDFD0C20002104F0A5FC10BD01
:1011900007B504F0EFFB034B1B680193019A024B68
:1011A0001A6007BD380E0020A0070020F8B5134EC6
:1011B0008700BD59281E20D00BF001FB104A0130DA
:1011C000521BF53284B2FF32121B92B22919280049
:1011D0000BF003FA0023BB51F258954201D2121BC7
:1011E000F25004334C2BF7D1064B1888001B80B209
:1011F0001880FA235B00181A80B2F8BDA4090020F9
:10120000B0070020F0090020F8B50F000500FFF737
:10121000CDFF104B38001C880BF0D1FAF9222318AF
:1012200052000020934214D80B4E3900361930007A
:101230000BF0BDFA094BAD003800EE500BF0BFFAD1
:101240000134044B201880B21880FA235B00181A6E
:1012500080B2F8BDF0090020B0070020A4090020EA
:1012600070B519231B251226154C16492380A5801D
:101270002581A6810320FFF7C7FF2682124904209B
:10128000FFF7C2FFA68211490520FFF7BDFF2683A5
:101290000F490620FFF7B8FF4523A383423BA384F1
:1012A0001F332385A31CDD872584A5852586A58678
:1012B0002587A587A31D4834DD87258070BDC046DE
:1012C0008C0A002054C900005CC9000066C90000F7
:1012D00070C9000010B5064B8200064C9918022018
:1012E000095E985C0123125900F06CFC10BDC046E9
:1012F0008C0A0020A4090020244A8000835A10B5DB
:10130000392B26D00ED8082B21D004D8062B18D084
:10131000072B18D039E00F2B2FD0102B35D10022FE
:101320001B4B2CE0462B0ED004D83D2B29D0452B4F
:1013300007D02AE0472B0AD04C2B26D102F086FAA0
:1013400023E0012000E0022001F028FF1DE004203E
:10135000FAE710184388013BDBB21F2B15D8012296
:101360009A4013000B490A689A430B4B0A601B789A
:10137000002B0AD105F0AEFA07E00022074B1A70E5
:1013800003E0074BC05803F06CF910BD8C0A002035
:101390001C0E00204011002008100020000E00202C
:1013A000A40900200C4B8000C35A01209A1F022A76
:1013B00010D9333A92B2132A05D80849D1400A000D
:1013C0000100914306D0002001220F3B9BB29A42BC
:1013D0004041C0B27047C0468C0A0020117008001E
:1013E00073B5164A0500C000141866788E4220D1E5
:1013F000835C062B12D80133DBB28354072B0DD14B
:10140000A378B3420AD0A6702800012E08D1FFF7B6
:1014100061FF0B4B1B680193019B636000240BE091
:10142000FFF7C0FF0124002806D02800FFF764FF63
:1014300002E0617000248454200076BDF40900208D
:10144000380E00200021064A531C9932581E19708C
:1014500059700170997008339342F7D17047C046B4
:10146000F409002010B504F085FA10BD024B034AC0
:101470001A80034A5A807047DC0A0020405400005A
:1014800001A4FFFF10B5074C0721200005F050FD17
:1014900020000421083005F04BFDA188024805F02A
:1014A00047FD10BDDC0A002080C9000070B504258E
:1014B000074C07212000A58005F03AFD20002900F7
:1014C000083005F035FDA188024805F031FD70BDFA
:1014D000DC0A00207CC90000002310B5054C072160
:1014E0002000A38005F024FD20000421083005F031
:1014F0001FFD10BDDC0A002010B5084C072120009C
:1015000005F016FD20000421083005F011FD200033
:10151000A1880C3005F00CFD10BDC046DC0A00208F
:101520000D4B0E4A1B6812680D499B1A0D4A9BB25F
:1015300013731B1253730C4B09681B685B1A9BB225
:1015400093731B12D373094B1B6813741B125374D0
:10155000062393807047C04608060020300600200E
:101560001C060020DC0A00201806002000060020CF
:1015700070B50E4D287804F09DFA444244416878D5
:10158000E4B204F097FA002801D102231C43A878A2
:1015900004F090FA002801D104231C43044B0020DE
:1015A0001A78A24201D01C70013070BD7202002076
:1015B000240B002010B5FFF7DBFF034A034B127822
:1015C0001A7301229A8010BD240B0020DC0A00202F
:1015D00073B5464B46491C895A890C819D79D6B210
:1015E0008D71050275194D81C1067BD4D2B219796E
:1015F000112A2AD004D8002A07D0102A38D071E046
:10160000812A07D0822A16D06CE000296AD1FFF720
:1016100039FF69E0002965D1364B1B680193019AB7
:10162000354B1A60354B364A1B78DBB213700122FA
:10163000344B1A7056E0002954D10123324A1370FA
:101640002F4A13702F4B19704CE0022C08D0032C3A
:1016500009D0002C46D1002944D1FFF727FF43E0F1
:10166000FFF75EFF01E0FFF7A5FFFFF745FF3BE057
:10167000601E052836D807F0C9FF0335350F282C22
:1016800002292FD1197B214A11805B7B11881B0213
:10169000CB189BB2138025E0012923D11C4C1D7B64
:1016A00020780D4200D0002104F0E4F96078002198
:1016B000AB0700D4012104F0DDF9A07800216B070D
:1016C00000D4012104F0D6F90CE0124803F054FCD8
:1016D00008E0012906D11A7B084B1A701B78084ACA
:1016E000DBB21370FFF7F8FE012076BD000B00207F
:1016F000DC0A0020380E0020280B0020FE0A002003
:1017000086020020FF0A002084020020FC0A00203C
:10171000380200205C06002070B55D4C0300207884
:101720000F2800D9A8E007F071FF08191E253438EA
:10173000425A5E65697A9A9C9EA0402B01D13F3B3C
:101740009BE020229343412B00D0A0E00021514A8E
:10175000403B1170504A237013708FE0542B00D01F
:101760008AE0523B89E000214C4A11704C4A538078
:10177000032382E04A4A1B025188CB189BB2538054
:10178000002B04D11021454A13780B431370042316
:1017900073E0434A938005236FE0414A1B0291881E
:1017A000CB189BB293800F2B66D8062365E03C4A8A
:1017B000DDB295713B4A3C481178002901D00023E5
:1017C00009E07F21027801320A40934204D0334A73
:1017D0007D3913780B431370057007234DE0304AB1
:1017E0001381082349E02E4A1B021189CB1813816B
:1017F000092342E02A4A53810A233EE02B4ADBB206
:101800001370274A9288002A05D00B2300222370E8
:10181000274B1A6032E0DB072CD50C232DE0204A41
:10182000234D118905290AD128202968FF308142DA
:1018300005D820484354002341184B7002E0296822
:1018400051180B732B6801332B609288934215D18A
:10185000164B1B78DB070DD5237801330DE00D23E4
:101860000BE00E2309E00F2307E004210B4A137855
:101870000B431370632300E0002323702378632B52
:1018800005D1064B1878FFF7A3FE0023237070BD27
:101890002C0E0020250B002086020020260B0020A5
:1018A000000B002084020020D80A00202C0B00200E
:1018B000200B00205C0600201D4B37B51A88002A3B
:1018C00035D01C490A6800921B4A009814681B888E
:1018D0001B1983422BD80B68184C0193019B136092
:1018E00023780133DBB2002B00D180232370022345
:1018F000134D2B812378AB7120236B81FFF710FEF2
:10190000FFF7FAFDFFF734FE002810D023780133EB
:10191000DBB2002B00D18023237003232B8123789B
:10192000AB7120236B81FFF745FEFFF7E5FD37BD67
:10193000FC0A0020380E0020280B00208502002021
:10194000DC0A002010B504F015F810BD70B50022B7
:10195000050005F097FC0400280005F081FC001943
:1019600070BDFFFFF0B5774C85B077492000FEF7DA
:101970008CFD76492000FFF709FA75492000FEF733
:1019800084FD744D20006978FFF7E0FF7249200064
:10199000FEF77BFDA9782000FFF7D8FF6F492000F4
:1019A000FEF773FD0423E95E2000FEF772FD6C492B
:1019B0002000FEF76AFD0623E95E2000FEF769FDC0
:1019C00068492000FEF761FD29892000FEF761FDCE
:1019D00065492000FEF759FD69892000FEF759FD91
:1019E00062492000FEF751FDA9892000FEF751FD54
:1019F0005F492000FEF749FDE9892000FEF749FD17
:101A00005C492000FEF741FD297C2000FFF79EFF86
:101A100059492000FEF739FD698A2000FEF739FD9B
:101A200056492000FEF731FDA98A2000FEF731FD5E
:101A300053492000FEF729FD29782000FFF786FF93
:101A400050492000FEF721FDA97D2000FFF77EFF11
:101A50004D492000FEF719FDE97D2000FFF776FFD4
:101A60004A492000FEF711FD297E2000FFF76EFF96
:101A700047492000FEF709FD697E2000FFF766FF59
:101A800044492000FEF701FDE98B2000FEF701FD2F
:101A9000013541492000FEF7F8FCE97F2000FFF7FF
:101AA00055FF3E492000FEF7F0FC3D492000FFF7BE
:101AB0006DF900253B492000FEF7E7FC082D03DC0B
:101AC00039492000FEF7E1FC013529002000FEF72E
:101AD000E0FC36492000FEF7D8FC354EAB009E19DD
:101AE0000193331F1F88334BBF00DF19390003A850
:101AF0000AF05DFE03A92000FEF7C7FCFB78002B6F
:101B000018D0022B0DD9032B14D12B492000FEF73E
:101B1000BCFCAB00294A043BD1582000FEF7B5FCC1
:101B200008E025492000023EFEF7AFFC3188200086
:101B300005F0D6FB22492000FFF728F9132DB9D173
:101B400005B0F0BD1803002086C900007502002012
:101B50008CC900004002002093C900009AC900000F
:101B6000A1C90000A8C90000AFC90000B6C90000A3
:101B7000BDC90000C4C90000CBC90000D2C9000023
:101B8000D9C90000E0C90000E7C90000EEC90000A3
:101B9000F5C90000FCC9000003CA00000ACA000021
:101BA0006102002011CA000058D0000018CA0000CD
:101BB0008C0A002085CB00000EC90000A40900207B
:101BC0000FC90000F0B51500B74A0C001178CFB06E
:101BD0000190170000293DD0B44B1B78012B22D176
:101BE000B34EB4493000FEF750FC00223978300083
:101BF00005F048FBB0493000FEF747FC0022019990
:101C0000300005F03FFBAD493000FEF73EFC2100FF
:101C1000300005F065FBA9493000FEF736FC2900CD
:101C20003000FFF7B3F869463878A54A013889884B
:101C300083009952D3185C80C0B2FFF7B7FA002D29
:101C400005D0387829000138C0B2FFF7DDFA00234B
:101C50003B7075E3019A4E2A00D971E3100007F03A
:101C6000DFFC4F0054006E00780098008200A20054
:101C7000A600AA00BA00BE00C200C600CD00D30074
:101C8000D600E00094019B01B001B701BA01CD017B
:101C9000D901F001F50107026F0360036A03140222
:101CA0002D02430247024B025F0262026502680294
:101CB000A702AA02AD02B002B302B602B902BC0288
:101CC000E902FF02480345035503EA00FD0007014E
:101CD00019014901550160016D014E03A2016B021A
:101CE0006E027102A302BF025203C202A200A6004A
:101CF000AA00AE00B200B600A90124033A030D0306
:101D000070496B48FFF742F81AE3FEF7C3FD674BD3
:101D10001B78012B08D1664D6B492800FEF7B5FBF7
:101D200021002800FEF7B5FB631E9BB2122B01D8E1
:101D30003C7005E365495E48FFF728F800E30120A1
:101D400001F044FA082003F0DBFF012001F026FA3D
:101D5000F6E2022001F03AFA082003F0D1FF022057
:101D600001F01CFAECE2012001F030FA082003F047
:101D7000C7FF012001F012FA082003F0C1FF012083
:101D800001F024FA082003F0BBFF012001F006FA5D
:101D9000D6E2042001F01AFA082003F0B1FF042073
:101DA00001F0FCF9CCE2012001F010FAC8E20220B7
:101DB00001F00CFAC4E2042001F008FAC0E20120AC
:101DC00001F01CFABCE2022001F018FAB8E204208B
:101DD00001F014FAB4E2012001F0E0F9B0E20220CF
:101DE00001F0DCF9ACE2042001F0D8F9A8E2384BAC
:101DF000187C404240B201F02DFAA1E21020344B91
:101E0000185601F027FA9BE2314B1C7498E2002B24
:101E100002D0304B1C7093E21900200001F038FA18
:101E20008EE2002B02D02C4B1C7089E2210018009E
:101E300001F02EFA84E2294B29485A681040294AB9
:101E4000944200D91400240104435C60264B1B78A3
:101E5000002B00D074E204F03DFD71E21F4B2348DB
:101E60005A6810401F4A944200D91400A403EBE7BB
:101E70001C4B9C4200D91C00184A210653689068EC
:101E80001B021B0A0B4353600323240A9843044399
:101E90009460DBE7114B16489A681040114A94424F
:101EA00000D91400A4002EE02D0B002024060020F1
:101EB000180300201CCA0000A5CE00009AC800002C
:101EC0008C0A002035CA000044CA000067D3000015
:101ED00040020020000E00201C0E002040110020B7
:101EE0000FC0FFFFFF03000008100020FF3F00FFAE
:101EF00003F0FFFFBE4BBF489A681040BE4A9442B1
:101F000000D91400240304439C609FE7013CE4B221
:101F10001F2C00D914E20123A340B54A11680B43DA
:101F20000AE0013CE4B21F2C00D909E20123A340DE
:101F3000AF4A116899430B00136087E70F23002C09
:101F40001CDB0023162C19DD0133432C16DD013375
:101F5000702C13DD01339D2C10DD0133CA2C0DDDF7
:101F60000133F42C0ADD922201335200944205DD44
:101F70005222FF320023944200DC07330F229C4997
:101F80004868904303434B6060E7002D00D1D7E1E0
:101F9000280001F01DFAD3E1002D00D1D0E1280086
:101FA00002F050FBCCE1002D00D1C9E1280002F085
:101FB00053FBC5E1002D00D1C2E1280002F056FB21
:101FC000BEE1002D00D1BBE1280002F04AFBB7E1E1
:101FD000FEF760FCB4E1FEF75DFC002D00D1AFE13F
:101FE0002B78002B00D1ABE128000AF0E8FB0E288B
:101FF00000D9A5E1280000F061FCA1E1002D00D18D
:102000009EE1FEF747FC280000F09AFE00227B4B81
:102010001A7095E1FEF73EFC0223784D00242B70E8
:1020200000F0E4FF0022200001341100E4B200F0CF
:1020300061FD072CF6D100200121287000F07AFE06
:102040007EE1FEF727FC01F049F879E16C4B6B4C1F
:102050001D78012D04D16B496B48FEF716FA2570E7
:10206000FEF718FC002000F06BFE0023237067E1F0
:10207000634B1B78012B03D164496348FEF786FE4E
:10208000FEF708FC00F092FA5AE1614BE4B21C70D2
:102090005B4B1B78012B00D052E15B48012C03D134
:1020A0005C49FEF773FE4BE1012C03D95A49FEF758
:1020B0006DFE45E15949FEF769FE41E1504B1B7841
:1020C000012B03D156495048FEF760FE0F21062030
:1020D000FEF78EFC4E4B1A78002A02D101321A709C
:1020E0002EE100221A702BE101224E4B1A7027E1DB
:1020F00000224C4B1A7023E1414B1B78012B03D17A
:1021000049494148FEF742FE14210A20FEF770FCBF
:102110006422464B002101201A80FEF7E1FD0FE109
:102120003B4B5C700CE13A4B9C7009E1384B9C8056
:1021300006E1374BDC8003E1354B1C8100E1344B79
:102140005C81FDE02E4B1B78012B08D12E4C3849C9
:102150002000FEF79AF929002000FEF717FE2B78E1
:10216000002B00D1ECE000231A002978002911D0BF
:102170003B2902D1002A04D10CE05C2901D1002ABC
:1021800005D05A1C03A8C154D3B2002200E001229A
:102190000135EAE7002203A8C25402F0EDFE2B78D5
:1021A0005A1E9341ED18DAE7200003F0A9FDC7E0BD
:1021B000174B9C81C4E0164BDC81C1E0144B5C8260
:1021C000BEE0134B9C82BBE0114B9C75B8E0104BFA
:1021D000DC75B5E00E4B1C76B2E00D4B5C76AFE0E3
:1021E0000B4BDC83ACE00A4B0133DC77A8E0C04644
:1021F00040110020FF0FC0FFFF030000FC0500207E
:102200002406002059CA00001803002068CA0000F4
:102210004002002075CA00008ECA0000AACA000051
:10222000CACA000004060020EECA00003C020020DA
:1022300000CB0000434B1B78012B03D1424943489C
:10224000FEF7A4FD002D7BD02B78002B78D0280042
:102250000AF0B5FA0E2873D8280001F031F96FE0C2
:10226000384B1B78012B03D139493848FEF78EFDD6
:10227000002D65D0280001F0CBFA61E0314B1B78CE
:10228000012B03D133493148FEF780FD002D57D093
:102290002B78002B54D028000AF091FA0E284FD842
:1022A00029002D480AF083FA4AE0264B1B78012BBF
:1022B00003D12A492548FEF769FD002D40D02B782F
:1022C000002B3DD028000AF07AFA0E2838D82800D2
:1022D00001F0ACFA34E01B4B1B78012B03D12049F1
:1022E0001A48FEF753FD01F0B1FA29E001F096F922
:1022F00026E0002D24D0280001F094F920E0A0B2BF
:1023000001F0B0FA1CE001F0A7FA19E001220D4B30
:1023100014491A70144B92180C481A70FEF736FDC7
:102320000EE00123074A114913700F4A0748137042
:10233000FEF72CFD04E00023024A13700A4A1370D2
:102340004FB0F0BD240600200FCB00001803002082
:1023500021CB000031CB0000610200204ECB0000F9
:102360005ECB00006ECB00002E0B00207DCB00006A
:1023700010B503F0FFFA10BD10B5002204F082FF83
:1023800010BD10B5002204F07DFF10BD10B503F0A4
:10239000F1FA10BDF8B51C4CA02223003B331A7093
:1023A000230001275E331F70230005000E00010A81
:1023B0005D33C9B220001F7002F0DCFEE9B22000DC
:1023C00002F0D8FE3100200002F0D4FE39002000D7
:1023D00003F05EF8052003F093FC0C4B1B78022BF6
:1023E00010D10B4C0B492000FEF74FF829002000BC
:1023F000FFF7C7FF08492000FEF747F8310020002B
:10240000FFF7A4FAF8BDC046900200202E0B002072
:1024100018030020C1CC00000DC90000F7B50D0065
:10242000002400902A5D002A02D00134A4B2F9E70A
:1024300034345649A4B200238858C65C002E02D01A
:1024400001339BB2F9E70533E4180432A4B24C2AF5
:10245000F1D14F4F3B78012B00D08CE04D4E4E49CF
:102460003000FEF712F821003000FEF712F8009B52
:10247000002B02D19023494A1380009B474A5B00FE
:10248000D45A3B78012B08D1424E45493000FDF724
:10249000FCFF21003000FDF7FCFF70212000FFF75A
:1024A00079FF601C80B20221FFF774FF0026A71C91
:1024B000BFB23C4BB819995D80B20136FFF76AFF95
:1024C000302EF6D127003234A0B20021FFF762FF90
:1024D00000263337BFB2A95D01363800B6B2FFF728
:1024E00059FFAB19013B7C1C1B78A4B22700002BC1
:1024F000F1D11D0000262C4FEF19A019B95D80B253
:102500000136FFF747FF042EF7D1201D80B20021CE
:10251000FFF740FF661D1D4B2F34FF345F59A3B2F8
:10252000B6B2019339783000FFF734FF3B78741C62
:10253000A4B2002B03D104354C2DDBD105E0019B67
:10254000013726009C42EDD1F5E7009B062B03D115
:10255000124B8E331C8004E0009B104A01335B0059
:10256000D45200240D4B2000195D0134FFF712FFF7
:10257000902CF7D108E0009B002B00D17AE7009B5C
:10258000064A5B00D45A88E7F7BDC046A40900207C
:102590002E0B002018030020CBCC0000300B0020B5
:1025A000D6CC0000400200208C0A002070B5104BF1
:1025B0001B78012B03D10F490F48FEF7E7FB0024DE
:1025C00026000E4D0021605BFFF7E4FE605B0021FA
:1025D0000130FFF7DFFE665302340E2CF1D10024E8
:1025E000295D20000134FFF7D5FE902CF8D170BD95
:1025F0002E0B0020E7CC000018030020300B002039
:10260000F0B585B002930400002301910392019A72
:10261000D25C002A02D001339BB2F8E7404F414D13
:102620003B78012B72D1404E40493000FDF72DFF21
:10263000029B3000D91CFDF72CFF002C01D13C4B34
:10264000EB81231D5B00ED183B78EE88012B08D150
:10265000354D38492800FDF718FF31002800FDF7F7
:1026600018FF30006621B51E013EFFF793FEB0B2A1
:10267000BB21FFF78FFE0026ADB2019B2800995DBC
:10268000FFF788FE0136019BB6B29B19013B1B7810
:102690006F1EBFB2002B01D03D00EEE7AB1E9BB218
:1026A000029938000193FFF775FE6B461B89039E64
:1026B00002935B00ED1A023DABB2019D0393039BB5
:1026C0009D420ED031782800FFF764FE6F1E3188DE
:1026D000BFB2023D090A3800ADB2FFF75BFE023619
:1026E000EDE7029B019A5B00D31A9BB20D4D3E2C85
:1026F00003D0053464002C19E3800024295D2000F8
:102700000134FFF747FE902CF8D106E0002C96D05C
:10271000231D5B00ED18EE88A3E705B0F0BDC046B1
:102720002E0B0020300B002018030020FACC0000F4
:10273000FF7F000008CD000070B5234CA0222300CD
:102740003B331A70230001265E331E702300050000
:10275000010A5D33C9B220001E7002F00BFDE9B220
:10276000200002F007FD3100200002F091FE33004E
:1027700032005021200002F007FF230022003933ED
:10278000383219781378FE36994206D000269942DD
:1027900003D9591C1170E418267E0C4B1B78022BB0
:1027A00010D10B4C0B492000FDF76FFE29002000D3
:1027B000FFF7E7FD08492000FDF767FE3100200024
:1027C000FFF7C4F8300070BD900200202E0B0020EF
:1027D000180300201DCD00000DC90000F0B5002435
:1027E00085B001902E4B6200D55A002D43D02800B1
:1027F000FFF7A2FF70283ED1681C80B2FFF79CFF54
:10280000022838D100273335ABB2019D0393039BD7
:10281000019A2E789B1A5B1918000293FFF78CFF20
:1028200086421FD01F4B1B78022B24D11E4E1F49FE
:102830003000FDF72AFE39003000FFF7A2FD1C49E9
:102840003000FDF722FE287804F0E2FB1949300041
:10285000FDF71BFE0298FFF76FFF01003000FFF746
:1028600075F808E02B78002B03D0013701350F2FC6
:10287000CDD160B211E00134072CB3D1094B1B78E4
:10288000012B08D1084C0C492000FDF7FEFD0199F1
:102890002000FEF77BFA0120404205B0F0BDC046A3
:1028A000300B00202E0B00201803002027CD000045
:1028B0000EC900003BCD00003ECD0000F8B506007B
:1028C000FFF78CFF431C2DD10024174B6200D55A13
:1028D000E7B2002D06D1154B1B78012B1AD1144DF0
:1028E000144910E02800FFF727FF702817D00135A2
:1028F000A8B2FFF721FF022811D00C4B1B78012B47
:1029000008D10B4D0C492800FDF7BFFD3900280008
:10291000FFF71CF860B23100FFF780FD02E00134E0
:10292000072CD2D1F8BDC046300B00202E0B002062
:102930001803002051CD00005CCD0000F0B500244C
:1029400085B00090E3B2394A03936300D318DD8960
:10295000002D56D02800FFF7EFFE662851D1681EE3
:1029600080B2FFF7E9FEBB284BD10026023D009F55
:10297000ADB23B780193AB1B18000293FFF7DCFE6E
:10298000019B83421FD02A4B1B78022B39D1294D42
:1029900029492800FDF779FD31002800FFF7F1FCF7
:1029A00026492800FDF771FD387804F031FB2449F1
:1029B0002800FDF76AFD0298FFF7BEFE010028001F
:1029C000FEF7C4FF1DE03B78002B03D00136013732
:1029D0000F2ECED1164B1B78012B10D1154D194956
:1029E0002800FDF752FD00992800FDF74EFD16491D
:1029F0002800FDF74AFD03992800FEF7A7FF60B203
:102A000011E001343F2C9DD1094B1B78012B08D1DB
:102A1000084C0E492000FDF738FD00992000FEF714
:102A2000B5F90120404205B0F0BDC046300B002092
:102A30002E0B00201803002027CD00000EC9000037
:102A40003BCD00006DCD000062CE00003ECD000009
:102A5000F8B503780700214C002B26D0FFF76EFF56
:102A60001F4BC5B21B78012B10D11E4E1E493000E2
:102A7000FDF70BFD39003000FDF707FD1B49300065
:102A8000FDF703FD29003000FEF760FF04356D00FF
:102A90006419E08890281FD9FF21FFF77BFCE088AC
:102AA000FF210138FFF776FC16E0250010490D489C
:102AB000FEF76CF90E358C342888902807D9FF2151
:102AC000FFF768FC2888FF210138FFF763FC00232B
:102AD0002B800235A542EFD1F8BDC046300B002057
:102AE0002E0B0020180300207FCD000062CE0000D6
:102AF0008ECD0000F0B585B005000292062800D901
:102B000000257C4F002935D06B000193FE5A7A4B8B
:102B10001B78012B08D1794C79492000FDF7B5FCD1
:102B200029002000FEF712FF741C3000A4B2FFF74A
:102B300003FE70280CD102362000B6B2FFF7FCFD70
:102B4000022804D16B00FC5A6E4B1D7004E0340067
:102B50000135EDB2072DD7D12000FFF7EDFD70282C
:102B600000D0B2E0601C80B2FFF7E6FD022800D082
:102B7000ABE00EE06D007C5B2000FFF7DDFD702810
:102B800000D0B4E0601C80B2FFF7D6FD022800D070
:102B9000ADE00234A4B2584B1A780393012A08D14D
:102BA000564D59492800FDF770FC21002800FDF71B
:102BB00070FC0025601980B2FFF7BEFD534B5855DD
:102BC0000135302DF6D1524E31343700A4B22000F9
:102BD000FFF7B2FD651CADB230702C000136002845
:102BE000F5D14C4B1B78012B08D1444C4A492000AD
:102BF000FDF74BFC39002000FEF7C8F80026002442
:102C0000F3B20193454BB700FF18281980B2FFF7C4
:102C100093FD38550134042CF7D1281D6C1D80B26A
:102C2000A4B2FFF789FD00280BD0344F3C4938008F
:102C3000FDF72BFC601EFFF77FFD01003800FEF75B
:102C400085FE2000FFF778FD002814D00027200023
:102C5000FFF772FD3349651CADB2C855002803D19A
:102C60000198FEF7D1FA08E02A230137FF332C0040
:102C70009F42ECD1F4E70635ADB20136132EBED13A
:102C8000294B1A781D00002A01D0FEF76BFE029B2B
:102C9000002B04D01B4B02201978FEF721F8039B70
:102CA0001B78002B09D0154C20492000FDF7EDFBC7
:102CB000144B20001978FEF749FE2B78002B16D014
:102CC0001B490E48FEF762F811E03C882000FFF730
:102CD00033FD70280BD1601C80B2FFF72DFD022858
:102CE00005D10022074B0234A4B21A7053E705B095
:102CF000F0BDC046300B00202E0B00201803002032
:102D0000A4CD00002C060020B4CD0000400200201D
:102D10007502002024060020D3CD00008C0A00207C
:102D2000E3CD00005C060020FC050020FCCD000087
:102D3000F9D0000010B50122FFF7DCFE10BDFFFF47
:102D400070B503780600002B04D1134B18780130BE
:102D5000C0B21AE0FFF742FD104B04001B78012BB4
:102D600010D10F4D0F492800FDF78FFB31002800CF
:102D7000FDF78BFB0C492800FDF787FB210028009D
:102D8000FDF787FB002C02DBE0B2012101E001210D
:102D90000020FFF7CFFF70BD2C0600202E0B002077
:102DA0001803002006CE000062CE0000F7B5070031
:102DB00000910192FFF7C2FD431C29D10025154A5D
:102DC0006B00D318DC89EEB2002C0AD02000FFF78C
:102DD000B3FC662819D0013CA0B2FFF7ADFCBB28BC
:102DE00013D00D4B1B78012B08D10C4C0C49200043
:102DF000FDF74BFB31002000FEF7A8FD019B009A78
:102E000039003000FFF7FCFB02E001353F2DD6D141
:102E1000F7BDC046300B00202E0B00201803002009
:102E200011CE0000F8B50025184A6B00D318DC89D4
:102E3000EEB22000FFF780FC662822D1601E80B22F
:102E4000FFF77AFCBB281CD1114F12493800FDF75F
:102E50001CFB31003800FFF78FFA023C0E493800A6
:102E6000A4B2FDF712FB661E2000B6B2FFF764FCA9
:102E7000002803D004F0CCF83400F4E7380004F064
:102E8000EFF901353F2DCFD1F8BDC046300B002002
:102E90001803002022CE0000A5CE0000F7B50E00DA
:102EA00000923F2801D9002455E02C4B04302C4DD2
:102EB000400018182B78C488012B03D129492A48CF
:102EC000FDF764FF2000FFF737FC6628EBD1601E9A
:102ED00080B2FFF731FCBB28E5D12B78023CA4B2CD
:102EE000012B08D1204D21492800FDF7CEFA210001
:102EF0002800FDF7CEFA671E2000BFB2FFF71CFCCA
:102F0000002801D03C00F6E73800FFF715FC009BD5
:102F1000A51E5B00E41A023CA3B284B2ADB20093DA
:102F20006300EB1A9BB20193009B9D4213D0019B5F
:102F30009D4210D02800FFF7FFFB6F1EBFB230800C
:102F40003800FFF7F9FB33880002023D1818308083
:102F5000ADB20236E8E72000FEBDC046300B0020CF
:102F60002E0B00202CCE00001803002042CE0000C3
:102F7000F7B506000F000192FFF7E0FC164B0400C6
:102F80001B78002819DB012B10D1144D144928009F
:102F9000FDF77BFA31002800FDF777FA1149280088
:102FA000FDF773FA21002800FDF773FAE0B2019AE9
:102FB0003900FFF773FF04000BE00024012B08D158
:102FC000064D09492800FDF760FA31002800FDF799
:102FD000DDFE2000FEBDC0462406002018030020B0
:102FE0006ECE000062CE000064CE0000F8B5002571
:102FF0002800FFF7A1FB314C28550135902DF7D162
:1030000000231D002E49CA5C0133AD18ADB20E2B52
:10301000F9D12088FFF790FB702838D12088013043
:10302000FFF78AFB022832D123008C331B88AB4286
:103030002DD1244B1B78012B3ED1234D2349280051
:10304000FDF7A4FE0026F1B22800FFF795F9204F06
:1030500028003900FDF719FA7300E15A28000136FB
:10306000FDF717FA072EEED10026F1B22800FFF780
:1030700083F939002800FDF708FA7300E318D989AD
:1030800028000136FDF705FA3F2EEED114E00421A9
:103090000220FDF725FE0F490B48FDF777FEFFF7ED
:1030A00085FA0020FFF7D4FC23000B498C33002065
:1030B0001D80FFF7B3F9BCE7F8BDC046300B002018
:1030C00035CA00002E0B0020180300207FCE000020
:1030D0000DC90000A7CE0000BCCE0000F8B5002549
:1030E000174B6A00D45AEEB22000FFF725FB702878
:1030F00022D1601C80B2FFF71FFB02281CD1114FA8
:1031000011493800FDF7C1F931003800FFF734F9F3
:1031100033340E493800A4B2FDF7B7F9661C20001D
:10312000B6B2FFF709FB002803D003F071FF3400AB
:10313000F4E7380004F094F80135072DD0D1F8BD3C
:10314000300B002018030020C2CE0000A5CE0000E6
:103150001F2310B5064A184011780843814206D053
:103160000023107019001A00180003F017FE10BD9C
:10317000D70F00201F2310B5074A184011780B0005
:103180008343994206D0137000231A0019001800D7
:1031900003F004FE10BDC046D70F002070B50A4BE7
:1031A00005005A1CD27F1C00D30701D5FFF7E2FFB0
:1031B000631CDB7F9B0706D5FDF7D0FF002802D0FC
:1031C0002800FDF7AFFE70BD4002002070B50A4B2D
:1031D00005005A1CD27F1C00D30701D5FFF7B8FFAA
:1031E000631CDB7F9B0706D5FDF7B8FF002802D0E4
:1031F0002800FDF789FE70BD4002002070B5134B1A
:1032000004005A1CD27F1D00D30709D5104B1A7831
:103210000240D30602D0FFF7ADFF01E0FFF798FFB1
:103220006B1CDB7F9B070FD5FDF798FF00280BD0A9
:103230002000FDF785FE002803D02000FDF772FE78
:1032400002E02000FDF760FE70BDC0464002002095
:10325000D70F002070B50D4B05005A1CD27F1C0003
:10326000D30705D5002302001900180003F096FDCE
:10327000631CDB7F9B0708D5FDF770FF002804D097
:103280000021EAB20800FDF7AFFD70BD400200204A
:10329000F8B505000E0001272B004C4C803301DBF4
:1032A000022724E0631CDB7F3B4206D00023802002
:1032B0001A001900404203F071FD0134E37F9B07BF
:1032C00003D5FDF74BFF002865D18035E4E70122E7
:1032D000631CDB7F134205D000237F201A001900F6
:1032E00003F05CFD631CDB7F3B4204D17F3D7F2DFF
:1032F000EDDC012714E0FDF731FF002852D1F5E79E
:10330000631CDB7F3B4206D0002380211A00494228
:10331000180003F043FD631CDB7F9B0705D4803658
:1033200033008033ECDB022714E0FDF717FF0028A1
:103330003ED1F4E70122E318DB7F134205D00023DE
:103340007F211A00180003F029FD631CDB7F3B423C
:1033500004D17F3E01237F2EECDC04E0FDF7FEFE6E
:1033600000282CD1F5E7621CD27F1A4205D0002339
:1033700071B268B21A0003F011FD0134E37F9B07BC
:1033800023D5FDF7EBFE00281FD0002231002800D6
:10339000FDF72AFD19E00022802011004042FDF7D0
:1033A00023FD92E700227F201100FDF71DFD9DE720
:1033B0000022802110004942FDF716FDAFE70022F0
:1033C0007F211000FDF710FDC3E7F8BD400200208B
:1033D00070B5104B05005A1CD27F1E00D3070DD5C7
:1033E0000024280009F0EBF9A04207D9285D03F07A
:1033F00079FB285D03F0FCFB0134F2E7731CDB7FF3
:103400009B0706D5FDF7AAFE002802D02800FDF78D
:1034100057FE70BD4002002070B50B4B05005A1CD2
:10342000D27F1C00D30702D580B203F05BFB631C84
:10343000DB7F9B0706D5FDF791FE002802D0280010
:10344000FDF7EAFD70BDC0464002002070B50B4B91
:1034500005005A1CD27F1C00D30702D580B203F0AE
:10346000C7FB631CDB7F9B0706D5FDF777FE0028B3
:1034700002D02800FDF7EEFD70BDC04640020020DE
:1034800010B5094B5A1CD27F1C00D30701D503F09D
:1034900005FC631CDB7F9B0705D5FDF75FFE00285D
:1034A00001D0FDF7FBFD10BD4002002010B502F079
:1034B00061FA10BD10B5040003F088FE200010BDB5
:1034C000F0B5464C87B0236801900493049D444FA7
:1034D000387802F0EFFA039700280BD02368414AAE
:1034E0000593059B5B1B9342F1D93F493F48FDF78C
:1034F0004DFC70E006003E4C20802388F92B14D848
:1035000002F0DAFB029002F0D7FB029BC51A394B9E
:103510001A681F00954205D2039B187802F0CAFA78
:103520008642F0D03B689D423FD323882F4D3249DD
:10353000FA2B00D031492800FDF728FC00210B2090
:10354000FDF7CEFB2E4B2F4F1B78012B13D12E49AD
:103550002800FDF71BFC00262388B34207D973001F
:10356000F95A28000136FCF794FFF6B2F4E7274930
:103570002800FDF70BFC26492800FCF779FF01998C
:103580002800FCF775FF23492800FCF771FF21880C
:10359000280003F0A5FE20492800FDF7F7FB22785C
:1035A00039000198FFF702FC15E0FA231B029D4247
:1035B00007D9FA212800890006F03CF8FA231B02FB
:1035C000C518012023880F4A590046401B188D5208
:1035D000F6B2238091E707B0F0BDC046380E002058
:1035E000710200200F270000C7CE00001803002042
:1035F000D00B002088020020E0CE0000F7CE0000B3
:1036000024060020D20B002010CF000024CF0000A1
:1036100033CF000049CF000050CF000010B5FFF7B6
:1036200001FC10BD10B5FFF713FA10BDF8B52B4E15
:10363000FA223100FFF79CFC294F2A4B38801B7877
:10364000002806D1012B47D127492848FDF79EFBCA
:1036500042E0012B14D1254D25492800FDF796FBAA
:1036600000243B88A34207D96300F15A28000134A3
:10367000FCF70FFFA4B2F4E71E492800FDF786FB14
:1036800000210920FDF72CFB00231B4A1B4C138053
:103690001B4A1C4913701C4A20001360EF2203F0E0
:1036A0003BFD142123682171002B15D01748184ABF
:1036B0001B181B11D154117853781648164A994299
:1036C00005D8036809041A400A43026004E001684F
:1036D0001B040A4013430360F8BDC046D20B002010
:1036E000D00B0020240600205DCF0000180300202E
:1036F00010CF000024CF0000CE0B0020C40B002010
:10370000CC0B00201D370000C00B0020008FFCBF39
:103710000803002014E400E0FFFF00FFF8B52F4A83
:103720002F4F12883B883E002E4D2F4C934223D9B9
:103730002878002102F006FA2878002102F09AF990
:10374000002323703B80294B1A68002A01DD013ACF
:103750001A601B68002B40D1254803F037FD254A2D
:103760001368002B39DD013B1360234B013BFDD176
:103770002248FFF75BFF30E0934206D11C4B1B68E9
:10378000002B1CD01E4A1A6019E01E4A5B009B5A8F
:10379000FA221202934204D9FA22920053431A4A9F
:1037A0009B181A495A1E8A4209D818225343013BD2
:1037B000232B04D90E4A1268002A00D01360217806
:1037C000287802F0BFF92378002B01D1803300E084
:1037D00000232370338801333380F8BDD00B0020E1
:1037E000CE0B002070020020CC0B0020CC0D00205E
:1037F000C40B0020C80D00200071020061020020EF
:103800007FA90300D20B002000702FFCAFAAAA0AE8
:10381000012310B5034A1360034A1360FFF706FF44
:1038200010BDC046CC0D0020C80D0020012210B5EF
:10383000044B52421A60044B02321A60FFF7F6FE44
:1038400010BDC046CC0D0020C80D00200022014B49
:103850001A607047CC0D002010B50020FFF7F8F873
:1038600010BDFFFF002804D0FA239B005843014BF2
:10387000186070478802002010B502F07BF8002322
:103880000448054A036005498033037108F046FE89
:1038900010BDC046C40B002030020020B53400002B
:1038A00010B5FFF7EDFD00231900034A99500433CA
:1038B000202BFBD110BDC046D00D0020002310B539
:1038C000064A99008C58002C00D1885051588842E3
:1038D00002D00133072BF4DD10BDC046D00D00200F
:1038E000002330B50B499A0055580C0085420CD185
:1038F0008A180021072B05D050184068013350501A
:103900000431F7E70023E36102E00133072BEADD2E
:1039100030BDC046D00D00200023054A9958814291
:1039200004D00433202BF9D1002000E0012070479F
:10393000D00D002010B50400032916D8080005F0AA
:1039400065FE0E0E07022000FFF7E6FF002806D0F6
:103950002000FFF7C5FF2000FFF778FD05E02000FD
:10396000FFF7ACFF2000FFF757FD10BD70B5040056
:103970000D0008F024FF023008F012FE06002100BE
:1039800008F015FF300008F01AFF301801380378EE
:10399000D24C202B03D02100300008F0F1FE210092
:1039A000300008F013FF041E01D100F0C9FDCC491E
:1039B00008F0F3FE002803D12900CA48FFF7BAFF38
:1039C000C949200008F0E9FE002803D12900C748B2
:1039D000FFF7B0FFC649200008F0DFFE002803D142
:1039E0002900C448FFF7A6FFC349200008F0D5FE10
:1039F000002803D12900C148FFF79CFFC0492000DF
:103A000008F0CBFE002803D12900BE48FFF792FF43
:103A1000BD49200008F0C1FE002803D12900BB48A1
:103A2000FFF788FFBA49200008F0B7FE002803D14D
:103A30002900B848FFF77EFFB749200008F0ADFE27
:103A4000002803D12900B548FFF774FFB4492000CE
:103A500008F0A3FE002803D12900B248FFF76AFF4F
:103A6000B149200008F099FE002803D12900AF4891
:103A7000FFF760FFAE49200008F08FFE002803D159
:103A80002900AC48FFF756FFAB49200008F085FE3F
:103A9000002803D12900A948FFF74CFFA8492000BE
:103AA00008F07BFE002803D12900A648FFF742FF5B
:103AB000A549200008F071FE002803D12900A34881
:103AC000FFF738FFA249200008F067FE002803D165
:103AD0002900A048FFF72EFF9F49200008F05DFE57
:103AE000002803D129009D48FFF724FF9C492000AE
:103AF00008F053FE002803D129009A48FFF71AFF67
:103B00009949200008F049FE002803D12900974870
:103B1000FFF710FF9649200008F03FFE002803D170
:103B200029009448FFF706FF9349200008F035FE6E
:103B3000002803D129009148FFF7FCFE904920009E
:103B400008F02BFE002803D129008E48FFF7F2FE73
:103B50008D49200008F021FE002803D129008B4860
:103B6000FFF7E8FE8A49200008F017FE002803D17D
:103B700029008848FFF7DEFE8749200008F00DFE87
:103B8000002803D129008548FFF7D4FE844920008E
:103B900008F003FE002803D129008248FFF7CAFE7F
:103BA0008149200008F0F9FD002803D129007F4851
:103BB000FFF7C0FE7E49200008F0EFFD002803D18A
:103BC00029007C48FFF7B6FE7B49200008F0E5FDA0
:103BD000002803D129007948FFF7ACFE784920007E
:103BE00008F0DBFD002803D129007648FFF7A2FE8C
:103BF0007549200008F0D1FD002803D12900734841
:103C0000FFF798FE7249200008F0C7FD002803D195
:103C100029007048FFF78EFE6F49200008F0BDFDB7
:103C2000002803D129006D48FFF784FE6C4920006D
:103C300008F0B3FD002803D129006A48FFF77AFE97
:103C40006949200008F0A9FD002803D12900674830
:103C5000FFF770FE6649200008F09FFD002803D1A1
:103C600029006448FFF766FE6349200008F095FDCF
:103C7000002803D129006148FFF75CFE604920005D
:103C800008F08BFD002803D129005E48FFF752FEA3
:103C90005D49200008F081FD002803D129005B4820
:103CA000FFF748FE5A49200008F077FD002803D1AD
:103CB00029005848FFF73EFE5749200008F06DFDE7
:103CC000002803D129005548FFF734FE544920004D
:103CD00008F063FD002800D0A8E0A3E00EC90000B2
:103CE00071CF000002E000007BCF000001E0000087
:103CF00084CF000004E000008CCF000040E0000012
:103D00009ACF000008E00000A2CF000080E0000091
:103D1000B0CF000052F00000B7CF000051F000001B
:103D2000C0CF000050F00000C9CF00004FF00000ED
:103D3000D3CF000028F00000DDCF00002CF0000001
:103D4000E7CF000029F00000EFCF00002AF00000CC
:103D5000FDCF00002BF0000005D0000039F000007E
:103D600013D000003AF000001AD000003BF0000031
:103D700021D000003CF0000028D000003DF0000001
:103D80002FD000003EF0000036D000003FF00000D1
:103D90003DD0000040F0000044D0000041F00000A1
:103DA0004BD0000042F0000052D0000043F0000071
:103DB0005AD0000044F0000062D0000045F000003E
:103DC0006AD0000068F0000072D0000069F00000C6
:103DD0007AD000006AF0000082D000006BF0000092
:103DE0008AD000006CF0000092D000006DF000005E
:103DF0009AD000006EF00000A2D000006FF000002A
:103E0000AAD0000070F00000B2D0000071F00000F5
:103E1000BAD0000072F00000C2D0000073F00000C1
:103E2000CAD000002900D448FFF784FDD349200000
:103E300008F0B3FC002803D12900D148FFF77AFD30
:103E4000D049200008F0A9FC002803D12900CE4861
:103E5000FFF770FDCD49200008F09FFC002803D13A
:103E60002900CB48FFF766FDCA49200008F095FC01
:103E7000002803D12900C848FFF75CFDC74920008E
:103E800008F08BFC002803D12900C548FFF752FD3C
:103E9000C449200008F081FC002803D12900C24851
:103EA000FFF748FDC149200008F077FC002803D146
:103EB0002900BF48FFF73EFDBE49200008F06DFC19
:103EC000002803D12900BC48FFF734FDBB4920007E
:103ED00008F063FC002803D12900B948FFF72AFD48
:103EE000B849200008F059FC002803D12900B64841
:103EF000FFF720FDB549200008F04FFC002803D152
:103F00002900B348FFF716FDB249200008F045FC30
:103F1000002803D12900B048FFF70CFDAF4920006D
:103F200008F03BFC002803D12900AD48FFF702FD53
:103F3000AC49200008F031FC002803D12900AA4830
:103F4000FFF7F8FCA949200008F027FC002803D15E
:103F50002900A748FFF7EEFCA649200008F01DFC49
:103F6000002803D12900A448FFF7E4FCA34920005E
:103F700008F013FC002803D12900A148FFF7DAFC60
:103F8000A049200008F009FC002803D129009E4820
:103F9000FFF7D0FC9D49200008F0FFFB002803D16B
:103FA00029009B48FFF7C6FC9A49200008F0F5FB62
:103FB000002803D129009848FFF7BCFC974920004E
:103FC00008F0EBFB002803D129009548FFF7B2FC6D
:103FD0009449200008F0E1FB002803D12900924811
:103FE000FFF7A8FC9149200008F0D7FB002803D177
:103FF00029008F48FFF79EFC8E49200008F0CDFB7A
:10400000002803D129008C48FFF794FC8B4920003D
:1040100008F0C3FB002803D129008948FFF78AFC78
:104020008849200008F0B9FB002803D12900864800
:10403000FFF780FC8549200008F0AFFB002803D182
:1040400029008348FFF776FC8249200008F0A5FB91
:10405000002803D129008048FFF76CFC7F4920002D
:1040600008F09BFB002803D129007D48FFF762FC84
:104070007C49200008F091FB002803D129007A48F0
:10408000FFF758FC7949200008F087FB002803D18E
:1040900029007748FFF74EFC7649200008F07DFBA9
:1040A000002803D129007448FFF744FC734920001D
:1040B00008F073FB002803D129007148FFF73AFC90
:1040C0007049200008F069FB002803D129006E48E0
:1040D000FFF730FC6D49200008F05FFB002803D19A
:1040E00029006B48FFF726FC6A49200008F055FBC1
:1040F000002803D129006848FFF71CFC674920000D
:1041000008F04BFB002803D129006548FFF712FC9B
:104110006449200008F041FB002803D129006248CF
:10412000FFF708FC6149200008F037FB002803D1A5
:1041300029005F48FFF7FEFB5E49200008F02DFBD9
:10414000002803D129005C48FFF7F4FB5B492000FD
:1041500008F023FB002803D129005948FFF7EAFBA8
:104160005849200008F019FB002800D0AEE02900D3
:104170005548FFF7DFFBA9E049F00000D5D000006B
:104180004AF00000DED000004BF00000EAD0000052
:104190004CF00000F5D000004DF00000FDD0000014
:1041A0004EF000000BD1000004F0000011D100001F
:1041B00005F0000017D1000006F000001DD100003E
:1041C00007F0000023D1000008F0000029D1000012
:1041D00009F000002FD100000AF0000035D10000E6
:1041E0000BF000003BD100000CF0000041D10000BA
:1041F0000DF0000047D100000EF000004DD100008E
:104200000FF0000053D1000010F0000059D1000061
:1042100011F000005FD1000012F0000065D1000035
:1042200013F000006BD1000014F0000071D1000009
:1042300015F0000077D1000016F000007DD10000DD
:1042400017F0000083D1000018F0000089D10000B1
:1042500019F000008FD100001AF0000095D1000085
:104260001BF000009BD100001CF00000A1D1000059
:104270001DF00000A7D100001EF00000ADD100002D
:104280001FF00000B3D1000020F00000B9D1000001
:1042900021F00000BFD1000022F00000C5D10000D5
:1042A00023F00000CBD1000024F00000D1D10000A9
:1042B00025F00000D7D1000026F00000DDD100007D
:1042C00027F00000E3D1000048F000009E492000E4
:1042D00008F063FA002803D129009C48FFF72AFB65
:1042E0009B49200008F059FA002803D12900994879
:1042F000FFF720FB9849200008F04FFA002803D16F
:1043000029009648FFF716FB9549200008F045FA6A
:10431000002803D129009348FFF70CFB92492000A5
:1043200008F03BFA002803D129009048FFF702FB70
:104330008F49200008F031FA002803D129008D4868
:10434000FFF7F8FA8C49200008F027FA002803D17B
:1043500029008A48FFF7EEFA8949200008F01DFA83
:10436000002803D129008748FFF7E4FA8649200096
:1043700008F013FA002803D129008448FFF7DAFA7D
:104380008349200008F009FA002803D12900814858
:10439000FFF7D0FA8049200008F0FFF9002803D188
:1043A00029007E48FFF7C6FA7D49200008F0F5F99C
:1043B000002803D129007B48FFF7BCFA7A49200086
:1043C00008F0EBF9002803D129007848FFF7B2FA8A
:1043D0007749200008F0E1F9002803D12900754849
:1043E000FFF7A8FA7449200008F0D7F9002803D194
:1043F00029007248FFF79EFA7149200008F0CDF9B4
:10440000002803D129006F48FFF794FA6E49200075
:1044100008F0C3F9002803D129006C48FFF78AFA95
:104420006B49200008F0B9F9002803D12900694838
:10443000FFF780FA6849200008F0AFF9002803D19F
:1044400029006648FFF776FA6549200008F0A5F9CB
:10445000002803D129006348FFF76CFA6249200065
:1044600008F09BF9002803D129006048FFF762FAA1
:104470005F49200008F091F9002803D129005D4828
:10448000FFF758FA5C49200008F087F9002803D1AB
:1044900029005A48FFF74EFA5949200008F07DF9E3
:1044A000002803D129005748FFF744FA5649200055
:1044B00008F073F9002803D129005448FFF73AFAAD
:1044C0005349200008F069F9002803D12900514818
:1044D000FFF730FA5049200008F05FF9002803D1B7
:1044E00029004E48FFF726FA4D49200008F055F9FB
:1044F000002803D129004B48FFF71CFA4A49200045
:1045000008F04BF9002803D129004848FFF712FAB8
:104510004749200008F041F9002803D12900454807
:10452000FFF708FA4449200008F037F9002803D1C2
:1045300029004248FFF7FEF941490020FFF731FA10
:10454000300008F037F870BDEDD1000047F00000F2
:10455000FDD1000053F000000AD2000046F0000038
:104560001AD2000033F0000028D2000036F000001C
:1045700032D2000037F000003DD200002DF00000E4
:1045800047D200002EF0000051D2000038F00000A9
:104590005BD2000031F0000069D200002FF0000073
:1045A00078D2000030F0000088D2000034F0000023
:1045B00092D2000035F000009CD2000065F00000AF
:1045C000A5D2000054F00000B2D2000055F0000067
:1045D000C1D2000056F00000CED2000057F000001B
:1045E000DAD2000058F00000E7D2000059F00000D5
:1045F000F0D200005AF00000F9D200005BF0000099
:1046000002D300005CF000000BD300005DF000005E
:1046100014D300005EF000001DD300005FF0000026
:1046200026D3000060F000002FD3000061F00000EE
:1046300038D3000062F0000041D3000063F00000B6
:104640000EC9000010B504000021FFF78FF9022108
:104650002000FFF78BF910BD10B50121FFF786F997
:1046600010BD10B50221FFF781F910BD10B503216F
:10467000FFF77CF910BD10B501F07CF910BDFFFF0C
:10468000F0B51700BE4A85B0136800900191BD4E89
:10469000BB4202DA0123337005E000213170BB42D6
:1046A00001DD012300E00023B74917600B70B74B11
:1046B0001A78029300239A4200D0C833B44C207871
:1046C000062800D9CFE004F0A1FF0419296676CEB0
:1046D000BE00029B5B8A9F4205DD0123002105206D
:1046E0002370FCF7FDFA029B9B8A9F4200DBBAE035
:1046F000032000212070FCF7F3FAB4E0029BDA8972
:10470000A44B974202DA1A68013200E000221A60D4
:104710001B68132B00DCD6E3022392E001995A4276
:104720008A4208DD00210620FCF7DAFA0F20FCF7A8
:10473000D1FD0F204BE000998A4208DD00210620C0
:10474000FCF7CEFA1120FCF7C5FD11203FE0009ADE
:10475000934208DA00210620FCF7C2FA1220FCF787
:10476000B9FD122033E0019A934208DA00210620B5
:10477000FCF7B6FA1020FCF7ADFD102027E0854AC3
:1047800013680133C82B63DD00230A201360FCF794
:10479000A1FD0A2052E0029B9A897E4B974202DDDE
:1047A0001A68013200E000221A601B68132B00DC3B
:1047B00089E3042345E001995A4291420FDA00212E
:1047C0000420FCF78DFA0B20FCF784FD0B20FCF78E
:1047D00093FD0623002223706E4B1A6043E000997C
:1047E000914208DA00210420FCF77AFA0D20FCF748
:1047F00071FD0D20EBE7009A934208DA00210420B6
:10480000FCF76EFA0E20FCF765FD0E20DFE7019A3B
:10481000934208DA00210420FCF762FA0C20FCF72E
:1048200059FD0C20D3E75B4A13680133C82B0FDD19
:10483000002308201360FCF74DFD0820FCF75CFD09
:10484000062323700FE0534A13680133962B01DCD3
:10485000136038E3002515602570FCF7F3FD4E4B1F
:104860001D704E4B1D7023780024A34200D02AE314
:104870004B4D285D01F01EF9414241412000C9B273
:104880000134FCF7ADFD032CF2D1287801F012F9C8
:10489000444C051E0ED1C8222368920001332360C8
:1048A000934209D101000A20FCF71AFAFCF75EFCDA
:1048B000256001E000232360374D2C78012C10D0B7
:1048C0003249002C02D0022C22D032E0CB899F4208
:1048D0002FDD21000820FCF703FA01232B70324B57
:1048E00026E03278304B002A0CD11A78511C19700E
:1048F0000F2A1ED9022209202A7008321A70FCF7EA
:10490000E9FC16E01A78002A13D0013A1A7010E078
:10491000254B1A78002A01D0013A1A70CA899742A9
:1049200007DA1C78002C04D10920FCF7E5FC1A4BAF
:104930001C701A4E154D3478012C0FD0002C02D06B
:10494000022C3BD04BE0AB899F4248DA2100072084
:10495000FCF7C6F901233370144B3FE00A4B1A7879
:10496000124B002A24D11A78511C19700F2A36D9FB
:1049700002220720327008321A70FCF7ABFC2EE0DE
:104980008C0200201B0E0020250E0020400200207B
:10499000190E0020040E0020100E0020080E00202A
:1049A00072020020F00D0020180E0020240E0020BE
:1049B0001A78002A13D0013A1A7010E0D34B1A78F3
:1049C000002A01D0013A1A70AA89974207DD1C78A3
:1049D000002C04D10720FCF78FFCCD4B1C7000206D
:1049E000CC4B1856002804D1CB4B1B785BB2002B64
:1049F0000AD0CA4A1378591C11709B0704D10021B0
:104A0000C54B5956FEF744FC2E78012E00D03FE1ED
:104A1000C34B00255C681B680293039402980399BA
:104A200000242B00220004F08BFFBE4E002805D08E
:104A30000022BD4B346075601A60A3E03268736871
:104A40000298039904F096FF002803D0029B039C70
:104A500033607460A022B34E120634687568B34B9D
:104A60002000290006F0DCFD02000B0002980399EB
:104A700004F080FF002814D0FE21AB4C8905256886
:104A8000281C04F09DFF00281CD0A94B588905F074
:104A900039FEA84905F068F9291C04F0EFFF2060F1
:104AA00010E0002200232000290004F063FF00280A
:104AB00008D08022A04B12062000290006F0B0FD8D
:104AC000306071608022974BD2051C685D689B4BFB
:104AD0002000290006F0A4FD02000B0002980399B3
:104AE00004F034FF904E002804D03068944905F05B
:104AF00005FB3060A022934B12062000290006F02F
:104B00008FFD02000B000298039904F01FFF00289C
:104B100004D030688C4905F0F1FA30608B4D009B71
:104B20002A68981A07F0A0FB894C019B22680600AE
:104B3000981A4F0007F098FB7F08490002004B08C5
:104B40003000390005F01CFE0022824B06F044F9CB
:104B500002000B000020804906F0DCFF724B0600CB
:104B600018680F0007F0FAFB0B0002003900300054
:104B700006F056FD07F046FC6B4B1860009B2B605F
:104B8000019B23606A4B684E587805F0BBFD051CFD
:104B9000009805F06FFD3468011C281C05F0AEFA82
:104BA000211C05F0ABFA624B051C987805F0AAFDB4
:104BB000071C019805F05EFD011C381C05F09EFAEB
:104BC000211C05F09BFA291C041C281C05F096FAF0
:104BD000211C071C201C05F091FA011C381C04F054
:104BE0004DFF07F0BBFB03F031F807F00BFC504B17
:104BF0000090188905F03EFD584905F0B5F8071CEE
:104C0000011C009804F0F0FE002813D00099381C15
:104C100005F0AAF8011C071C281C05F06FFA391CC6
:104C2000051C201C05F06AFA4D49041C306805F08B
:104C300065FA30604B4E281C316804F01FFF4A4D66
:104C4000071C29683060201C04F018FF041C286031
:104C5000381C05F0EDFC0700201C05F0E9FC3B00CA
:104C60000400034303D001003800FEF711FB3800B5
:104C700005F000FD011C306805F054FB3060200099
:104C800005F0F8FC011C286805F04CFB28601AE1CF
:104C9000002E18D1019B0320D90FFCF7A1FB019B2B
:104CA0000420D917C91AC90FFCF79AFB009B0520ED
:104CB000D90FFCF795FB009B0620D917C91AC90F1D
:104CC000FCF78EFBFFE0019B274C002B03D18823D0
:104CD000DB05236012E0A87805F0CCFC051C0198E8
:104CE00005F0C8FC011C281C05F008FA1F4905F056
:104CF0003BF88821C90504F0C1FE2060009B194DD6
:104D0000002B35D18823DB052B6045E0240E0020E5
:104D1000080E0020000E00201C0E00201A0E00209D
:104D200038060020F80D00200C0E00209999E93F6C
:104D3000400200208096984A14AEEF3F3333E33FA1
:104D400052B87E3F9999D93FA4707D3FF40D002061
:104D5000200E002000408F400000F03F0000204166
:104D600048E17A3F280E0020140E0020000048423F
:104D7000029B587805F07EFC071C009805F07AFC31
:104D8000011C381C05F0BAF9504904F0EDFF8821E8
:104D9000C90504F073FE286000272868391C04F058
:104DA0000FFE002800D02F60494F2868391C04F0FE
:104DB0001BFE002800D02F6000272068391C04F05B
:104DC000FFFD002800D02760414F2068391C04F007
:104DD0000BFE002800D02760032E2AD0042E50D0CE
:104DE000022E70D1286804F031FE3A4B3A4A5968D5
:104DF0003A4E0A401F00B04200D930000001384D41
:104E0000104358602B78002B01D101F063FD20681E
:104E100004F01CFE334B7A681340B04200D92F488F
:104E20008003184378602B78002B4CD101F052FDA1
:104E300049E0286804F00AFE284FB84200D938003B
:104E4000244D02066B68264E1B021B0A13436B603F
:104E50000323AA68000A9A4333781043A860002B02
:104E600001D101F037FD206804F0F0FD1E4BAA6867
:104E70001340B84200D9194880001843A86033781D
:104E8000D2E7286804F0E2FD124B184A9968134EE5
:104E90000A401F00B04200D930000003104D1043FB
:104EA00098602B78002B01D101F014FD206804F0EC
:104EB000CDFDBB689B029B0AB04200D90748800524
:104EC0001843B860AFE705B0F0BDC04600004842E7
:104ED00000C07F44401100200FC0FFFFFF0300000F
:104EE00008100020FF3F00FF03F0FFFFFF0FC0FF8F
:104EF00010B500F03FFD10BD30B5021E14D0037890
:104F00000020834210D003000A241078002807D024
:104F10003038C5B2092D06D863430132C318F4E70F
:104F20000B80012000E0002030BD73B50C0000288C
:104F300001D1002010E0037801252D2B01D140196B
:104F4000023D6B469E1D3100FFF7D6FF0028F0D0D2
:104F5000012033886B43238076BD00280AD0037874
:104F6000002B07D01A00613A192A01D8203B0370A0
:104F70000130F4E77047FFFFF0B585B002AB9E1D2E
:104F80000023324D33802B780400012B08D1304FA1
:104F900030493800FBF76CFA21003800FBF7F6FEC9
:104FA0002D4F2000390007F011FC0197041E47D057
:104FB0002B78012B08D1264D28492800FBF758FAF9
:104FC00021002800FBF7E2FE00252000FFF7C5FFC7
:104FD000234FF91E200007F0E0FB00281ED13B788C
:104FE000022B0BD0032B13D0012B14D1019907F006
:104FF000EDFB31000400FFF77FFF06E0019907F0A9
:10500000E5FB31000400FFF790FF002806D000E028
:1050100003346BB204E06BB2040001E001235B4295
:1050200001354F2D0AD004375A1CD2D00022B15E70
:10503000D8B222000023FCF7C5FD05E05A1CF5D1CB
:1050400008490348FBF7A2FE05B0F0BD2406002086
:10505000180300204FD300000EC900005DD30000EC
:1050600088CB000065D3000070B5254A0300117895
:10507000002902D0FCF750FB41E0224C20780328A5
:1050800037D804F0C3FA02111724202118008843EE
:10509000412801D1012331E0402B30D12378013365
:1050A0002370012313702AE020229343542B24D130
:1050B000523B23E00D2B01D00A2B01D1124919E0FC
:1050C000202B16D10022114B1A70032316E00F4A31
:1050D0000F480D2B01D00A2B06D100251378C5549B
:1050E000FFF74AFF25700AE011784C1C14704354F6
:1050F00005E008490848FBF749FE0023237070BD0E
:10510000250B00202C0E002069D300002D0E00205E
:105110005C06002067D300001803002010B500F0E3
:1051200029FC10BD002070470300383039331B784C
:105130000078181A704702000100383239311378AC
:105140000978994204D9591C1170C318187E01E0DE
:1051500001204042704703000200383339321B7887
:1051600012789A4202D9C318187E01E00120404209
:10517000704770470300002210B55E331B889342CE
:105180000DD004005D342378202B02D90123037154
:1051900005E05A1C22700122C3183B33197010001D
:1051A00010BD70B514000200030000205E321288AA
:1051B000824212D01D0021225D352878121A9442B5
:1051C00002D901241C7114003B331818220007F087
:1051D000FBF920002B781B192B7070BD43691A68EE
:1051E0005B68126813420FD0084A0369914201D8E4
:1051F0001F2205E0064A914201D8122200E0022255
:105200005A70022203699A717047C0467F1A0600DD
:105210003F420F000200F8B500230400383213703B
:105220005370243293701370537043668366D37047
:1052300040696427016842680D682A430A60226950
:105240001549937023000C22613360691E7886191A
:10525000337A5343CB185D68737BE0261B02F6005C
:1052600033403B432B60230062331B78C018837CA0
:105270005A43C37D89181B024A681E403E4316608C
:1052800006492000FFF7AAFF2023226953718022DC
:1052900023699A70F8BDC04638D40000A08601008A
:1052A000102270B503690400DD78EDB2154203D118
:1052B00040222A4004D12BE0DA706B06F8D476E065
:1052C00004231D403A4B1BD0250000225D352A7077
:1052D0001A70636E934200D0984723002A783B33BC
:1052E000002A02D1012129701A70D02221698A7006
:1052F0001B7822691371230001225C331A7053E07A
:1053000001221A70230039331D702269C02330E056
:10531000602120698379DBB2194060290CD14039C2
:105320008B438371A36E002B06D0210038310A70A5
:1053300022003932107898471023226991780B4067
:105340001BD001231D4013D1210020005C315D30B2
:105350000B780078984206D9581CE31808703B3344
:105360001B78137100E01571D023226993701BE044
:10537000C023937023691B7916E0210060310B7004
:10538000202193790B4321009371236939311A79D4
:105390000B78D2B21F2B07D805480078002803D01D
:1053A000581CE31808701A7602222369DA7070BD5F
:1053B0002E0E0020F0B500210400334B85B01B6891
:1053C0000293029B019320202269D378034257D095
:1053D0002D4B01981B680393039B1B1A0F2BF2D9CB
:1053E000002945D12500613562692B780531D31834
:1053F000187A00F071FB2B7862690121D3189F7C29
:105400000926380000F068FB0021380000F032FB6C
:105410005023013BFDD10121380000F02BFB50232C
:10542000013BFDD1013E002EEED10C2166692B78A7
:10543000164DF3181A7A64204A43AA185768E022D6
:105440005B7BD2001B02134003433B6023006233AB
:105450001B78F618B37C59436D18F17D6B6809020F
:105460000A4010431860A023013BFDD10121AAE7A7
:10547000102BA8D000209070802223699A7000E041
:10548000012005B0F0BDC046380E002038D4000021
:1054900012230269F0B5D370202287B0036901910D
:1054A0009D780400154002D094329A700BE0FFF70B
:1054B00081FF03000420002B62D023005F331D70A6
:1054C000B0232269937020262E4B20691A6802921D
:1054D000029DC278324048D0002202252026009248
:1054E00022005D32127800998A4233D962183B3229
:1054F000127821690A711A6821690592059A944601
:10550000CA78D2B217002F400AD1324208D0604682
:105510001A680492049A121A052AF1D98F702BE0A6
:105520001020CD702169CA78D2B2024201D1324234
:1055300003D1802304208B700DE0012100980A42E2
:1055400004D0434258410323181A07E00130C2B285
:105550000092C5E70020019B002B02D08023226926
:10556000937000235E3423700AE019680391039955
:10557000491B0429ADD982708022042023699A70C6
:1055800007B0F0BD380E0020F0B516008BB0020059
:1055900001930023383213700132137000920269B4
:1055A0001233D3702022036905009C780F00144049
:1055B00002D094329A700AE0FFF7FCFE002800D176
:1055C000B4E02B005F331C70B0232A699370202253
:1055D000944658490B68029302982B696246DC781E
:1055E00014400A00002C06D10A680392039A121A8A
:1055F000042AF3D912E001217F000F43FFB21F718B
:1056000002271368049304982B69DC783C4009D185
:10561000116805910599091A0529F6D99C702B691D
:10562000802211E00222DA702B690F32DC781440FC
:1056300003D06F329A70002478E0002E06D10199D1
:105640008022002900D120329A706FE0A822012E1A
:1056500000D0A0229A7002222B6994461B79002365
:1056600034492A690868012E28D00690069F6446AE
:10567000D078204006D10C680794079CE41B052CC9
:10568000F5D927E002211020D1702969CA78D2B259
:1056900002424AD10018024247D0013EF6B2012E22
:1056A00001D1A8228A702A691F2B05D81279591CAA
:1056B000EB181A76CBB2D3E71279D1E7022708901C
:1056C000089ED078384007D10C680994099CA41B27
:1056D000052CF6D9907023E002211020D1702969A1
:1056E000CA78D2B2024209D0C8705022013AFDD124
:1056F000296908388A7882438A7016E01C0092066D
:1057000014D5B0228A702A691F2B05D81279591C2A
:10571000EB181A76CBB200E01279019A002A02D077
:1057200080212A699170009A13701C0020000BB030
:10573000F0BDC046380E002010B50248FFF7B0FD9E
:1057400010BDC046900200208023F0B51D4A1068AD
:105750001840FCD172B61C4C2378002B30D01B4B68
:105760001F681B4B1A681B4BBA181E681A4B9219FC
:105770001D681A4B52191968194B52181B68194D9C
:10578000D21892B25208184B2A4392B21A60174BA1
:1057900017491B68174A9C46174B1B6812680F680D
:1057A000164963440E6816499B180968DB199B1952
:1057B0005A1893B25B082B43124A9BB213602070B5
:1057C00062B6F0BD24B00340300E002038B0034074
:1057D0003CB0034040B0034044B0034048B00340F5
:1057E0004CB003400080FFFF2CB0034058B0034092
:1057F00064B0034060B003405CB0034068B0034055
:105800006CB0034030B003401B4B1C4A19781C4B52
:10581000082901D1002102E00A2903D12E311160AB
:10582000132206E00C2901D1283100E03C2111604F
:1058300012221A60134B1A78134B002A01D000224F
:1058400000E001221A60114B1A78114B012A01D88D
:1058500080220CE0042A01D8842208E0082A01D81A
:10586000852204E0102A01D8862200E087221A60EF
:105870000122084B1A707047FC02002008B0034058
:105880000CB00340320E002020B00340FD02002087
:1058900024B00340300E0020F8B503000020272B71
:1058A00033D81A4AD45CFF2C2FD0194B1B78834273
:1058B00001D0FFF749FF72B610274022154B144262
:1058C00005D01A68BA431A603F231C4002E01A68E8
:1058D0003A431A600123104E104D34602B7062B6AB
:1058E00072B680223368134208D00D4B186800232B
:1058F0002B7062B60B4B1B78184106E02B78002BFF
:10590000DBD062B601F072FEEAE7F8BDB0D300006A
:10591000300E00200CB0034000B00340310E0020D8
:1059200010B003402F0E002080210D4A0906136895
:105930000B4313600B4B1A780B4B002A01D1D0326A
:1059400000E090221A70094B984201DD180002E035
:10595000C343DB171840064B00B218807047C0469F
:105960003C800440320E002021F00340FF0F000075
:1059700000F00340F823802208491B0252021888D5
:10598000884203D1064A023B138006E00233934269
:10599000F5D10222024B52421A807047FFFF0000ED
:1059A000340E0020F8B505000024264F0E1C3800E8
:1059B000E04004F0A7FEDE21890504F09FFB311CC6
:1059C00004F008F8002802D10134072CEFD11D485B
:1059D000E04004F097FE311C04F0C6F9FC21890573
:1059E00004F0A0FC04F032F8174B984200D91800DC
:1059F0002B00103B012B06D80023144A14491360D6
:105A00000B60144B0BE0172D0ED8134A0123EA400C
:105A1000934309D1114A124913600B60114B18606E
:105A200008231C4314600CE0033D012D09D800221B
:105A30000D4B0E491A600A600D4A1060082214438B
:105A40001C60F8BD006CDC02FFFF0000009003400A
:105A500004900340089003404006D00000800340BB
:105A6000048003400880034000A0034004A00340DA
:105A700008A0034010B51A2818D80C2358430C4A24
:105A8000835810181C7D027A224205D0002901D0CB
:105A90001A710BE01A7209E043681A68002902D0F3
:105AA00003210A4301E002218A431A6010BDC04667
:105AB00038D4000000231A280AD80C335843054A6A
:105AC00083581018007A1B7C0340581E8341DBB2B8
:105AD0001800704738D40000F0B51A282FD80C22CF
