:1000000000180020C1000000E16C0000A56C000099
:10001000A56C0000A56C0000A56C0000A56C00009C
:10002000A56C0000A56C0000A56C0000E16C000050
:10003000E16C0000A56C0000557000002571000007
:10004000E16C0000E16C0000E16C0000E16C00007C
:10005000E16C0000E16C0000E16C0000E16C00006C
:10006000A14E0000E16C0000E16C0000E16C0000BA
:10007000F56D0000CD6E0000F5560000E16C00004B
:10008000E16C0000E16C0000E16C0000E16C00003C
:10009000E16C0000E16C000055720000E16C0000B2
:1000A00061590000E16C0000E16C0000E16C0000AF
:1000B000E16C0000E16C0000E16C0000E16C00000C
:1000C000F8B506F011FE0821474A484B1A60484A25
:1000D000484B1A60484A494B1A60494B1A780A4201
:1000E00002D01A780A431A702A22464B46481A70E0
:1000F00000234649464C1A188A4203D2E558043375
:100100001560F8E70021434B434A934201D202C3F2
:10011000FBE70023414A424958589446985004331B
:10012000C02BF9D100210326FF2580248A083D4BEE
:100130009200D2180B002F003340DB009F40106864
:100140000131B84307002000984003003B4313608F
:100150002029EBD16246344B1A608A22334B1A7045
:10016000334B663A5A707C321A709E3A9979114232
:10017000FCD0102299791142FCD10C209A792C499B
:100180000240082AFAD1053A0A713D324A71203AF2
:1001900099791142FCD0402299791142FCD025492D
:1001A000254A11602021224A117014399A790A4097
:1001B0000C2AFBD1214A224B1A60224A224B1A6098
:1001C0000022224B1A60224B07321A60214A224B2E
:1001D0001A6062B605F062F908F0EEF806F08AFDE2
:1001E00006F0E4FCFEE7C046300004F03480044032
:1001F000823F0000388004400100000F3C80044032
:1002000002D0074000E0074030020020C005002077
:10021000DC950000C00500203412002000F9FF1F0B
:100220000000000000E400E008ED00E0005006409F
:10023000004006400000011044800440C000050555
:10024000048004407FBB000014E000E018E000E000
:1002500010E000E00000202020ED00E0FFFFFFFFA5
:10026000FFFFFFFFFFFFFFFFFFFFFFFFFFFFFFFF9E
:10027000FFFFFFFFFFFFFFFFFFFFFFFFFFFFFFFF8E
:10028000FFFFFFFFFFFFFFFFFFFFFFFFFFFFFFFF7E
:10029000FFFFFFFFFFFFFFFFFFFFFFFFFFFFFFFF6E
:1002A000FFFFFFFFFFFFFFFFFFFFFFFFFFFFFFFF5E
:1002B000FFFFFFFFFFFFFFFFFFFFFFFFFFFFFFFF4E
:1002C000FFFFFFFFFFFFFFFFFFFFFFFFFFFFFFFF3E
:1002D000FFFFFFFFFFFFFFFFFFFFFFFFFFFFFFFF2E
:1002E000FFFFFFFFFFFFFFFFFFFFFFFFFFFFFFFF1E
:1002F000FFFFFFFFFFFFFFFFFFFFFFFFFFFFFFFF0E
:10030000FFFFFFFFFFFFFFFFFFFFFFFFFFFFFFFFFD
:10031000FFFFFFFFFFFFFFFFFFFFFFFFFFFFFFFFED
:10032000FFFFFFFFFFFFFFFFFFFFFFFFFFFFFFFFDD
:10033000FFFFFFFFFFFFFFFFFFFFFFFFFFFFFFFFCD
:10034000FFFFFFFFFFFFFFFFFFFFFFFFFFFFFFFFBD
:10035000FFFFFFFFFFFFFFFFFFFFFFFFFFFFFFFFAD
:10036000FFFFFFFFFFFFFFFFFFFFFFFFFFFFFFFF9D
:10037000FFFFFFFFFFFFFFFFFFFFFFFFFFFFFFFF8D
:10038000FFFFFFFFFFFFFFFFFFFFFFFFFFFFFFFF7D
:10039000FFFFFFFFFFFFFFFFFFFFFFFFFFFFFFFF6D
:1003A000FFFFFFFFFFFFFFFFFFFFFFFFFFFFFFFF5D
:1003B000FFFFFFFFFFFFFFFFFFFFFFFFFFFFFFFF4D
:1003C000FFFFFFFFFFFFFFFFFFFFFFFFFFFFFFFF3D
:1003D000FFFFFFFFFFFFFFFFFFFFFFFFFFFFFFFF2D
:1003E000FFFFFFFFFFFFFFFFFFFFFFFFFFFFFFFF1D
:1003F000FFFFFFFFFFFFFFFFFFFFFFFFFFFFFFFF0D
:10040000FFFFFFFFFFFFFFFFFFFFFFFFDEF9FFFF23
:1004100010B5064C2378002B07D1054B002B02D0DA
:10042000044800E000BF0123237010BDC005002078
:1004300000000000DC950000084B10B5002B03D035
:100440000749084800E000BF07480368002B00D1B7
:1004500010BD064B002BFBD09847F9E700000000C9
:10046000C4050020DC950000C0050020000000004D
:1004700070B5040008000D0008F0D3F823680200EE
:1004800029005B682000984770BD10B5FFF7F0FFAA
:1004900010BD70B5050006F02DFA0400280006F026
:1004A000E9F9001970BDFFFF70B5274B1B78002BD1
:1004B00048D0264E33785A1C32700A2B42D9244C2D
:1004C00024492000FFF7E1FF234B2000196806F0C4
:1004D00011FA224D20002900FFF7D7FF204B200002
:1004E000196806F007FA29002000FFF7CEFF1D4B20
:1004F0002000196806F0FEF929002000FFF7C5FF6B
:10050000194B2000196806F0F5F929002000FFF7C3
:10051000BCFF164B2000196806F0ECF929002000FA
:10052000FFF7B3FF124B2000196806F0E3F929002A
:100530002000FFF7AAFF0F4B20001968FFF7A9FF63
:100540000023337070BDC046E4050020DE050020A6
:10055000FC020020F6860000E0050020FE86000078
:10056000FC05002000060020F405002010060020F5
:10057000200600202406002010B502F05DFE0120B8
:1005800002F07EFB042002F07BFB022002F078FBED
:100590000023024A1370024A137010BDD20E0020CD
:1005A000D30E002070B500F03BFC354C2378012BB6
:1005B00007D1344D34492800FFF75AFF280006F0D0
:1005C00059F9324804F04CFA314B0021187804F004
:1005D00037FE304E3049307804F098FD2F4D012120
:1005E000287804F02DFE2878002104F0F7FD3078FB
:1005F000012104F025FE2878002104F0EFFD0025FC
:10060000274B0221E85C013504F01AFE032DF7D1D7
:100610000025244B0121E85C013504F011FE032D77
:10062000F7D1FFF7A9FF00F083FD00231A001E4E4B
:100630001E4899194A801918043300250A604C2B6A
:10064000F7D11B4B1D8000F087FD00F087FC02F006
:1006500065FA2800012102F003F90A22154B2578DA
:100660001A70154B0F321A70012D08D1054C134921
:100670002000FFF70AFF29002000FFF70AFF70BDE6
:1006800006060020FC0200200087000080020020F7
:100690005F0200205E020020007014473B02002031
:1006A00060020020380200207C0B0020940A002009
:1006B000E00A0020280600201C0600203F870000DA
:1006C000024B1870024B19707047C0462806002074
:1006D0001C06002070B5284B1A78284B1878002A81
:1006E00045D0002104F07AFD254A1178002918D15F
:1006F000244D254C2B782078DB0700D5012104F010
:100700006DFD2B786078013300219B0700D4012117
:1007100004F064FD2B78A078013300215B0727D417
:1007200025E01A4B1C78002C1ED1012618480139EF
:100730000078154DC9B2187011702878314209D06F
:10074000210004F04BFD6878210004F047FDA878F3
:1007500021000DE0310004F041FD6878310004F023
:100760003DFDA878310003E0013C1C7002E001214E
:1007700004F034FD70BDC046760200203B0200202C
:10078000280600200C06002038020020B9070020AF
:100790001C060020F8B5164B1E88002E26D0154DDD
:1007A0002B88002B02D0012B0BD01FE0124B09200D
:1007B0001A88124B198806F051F92B8801332B80C7
:1007C00014E00F4F0C4B3C8818880E4B01341B88EB
:1007D000A4B23C80C018052106F0F4FD844205DD7A
:1007E000034B013E1E8000232B803B80F8BDC0469A
:1007F00014060020BA0700200A0600201E0600206A
:1008000004060020DC050020F7B50E2004F0F8FBFC
:100810007D4D2860152004F0F3FB7C4C3221E37DF4
:10082000584306F045FD7A4B80B201950094794D0E
:10083000984201D8286001E0754B2B602B68002B93
:1008400001DA00232B60142004F0DAFB009B322134
:100850009B7D584306F02CFD6D4B80B26E4C984248
:1008600001D8206001E06A4B23602368002B01DA85
:1008700000232360172004F0C3FB009B32215B7E22
:10088000584306F015FD624B80B2644E984201D881
:10089000306001E05E4B33603368002B01DA0023E7
:1008A0003360162004F0ACFB009B32211B7E5843C2
:1008B00006F0FEFC564B80B2594F984201D8386082
:1008C00001E0534B3B603B68002B01DA00233B60A7
:1008D000009BDB8BB42B11D087225200934218D09F
:1008E0005A2B21D12A684F4B1A6033682B6023683A
:1008F00033604B4B19681A60216015E022682B6841
:100900002A60474A4749236013680B6031681160C9
:1009100009E02B68434A1360414A11682960216845
:10092000116032682260336005F088FE002806DD21
:1009300005F03CFE3C4B186003F0BCFFF4E73B4B7A
:100940001B78002B59D03A4A1388002B12D13A68F1
:1009500033689B1A374A0021525E9B1A364A13604D
:1009600022682B689B1A354A0021525E9B1A344A32
:10097000136015E0013B9BB21380002B10D1284A75
:100980003368126821689A1A009B12B25A832B6846
:100990005B1A00991BB28B8326490A80274A138071
:1009A000FFF782FD009B244804229A5E03685142AF
:1009B000994201DDD31804E09A4201DA9B1A00E063
:1009C00000230360009B1E4906229A5E0B68544276
:1009D0009C4201DDD31804E09A4201DA9B1A00E040
:1009E00000230B60019B09681A68006803F00AFB8A
:1009F000144B186804F038FD01E000F0B1FDFFF77A
:100A000069FEFFF7C7FEF7BDE00500203C020020AD
:100A1000FF030000FC05002000060020F405002074
:100A20001006002018060020F8050020760200209D
:100A30007202002008060020200600200E0600207A
:100A40002406002034020020013810B509283CD8C3
:100A500006F01AFC0A0E232505072E312935C82277
:100A600000E06422C8211CE0C822C821520029E00D
:100A7000164A1388002B28D1FA2089B2C8334B4379
:100A8000C0001B181248013103809620114B1180C1
:100A90001880114B6438188017E0C82200E06422E7
:100AA000962149000EE0C822C8215200890009E0C1
:100AB00005220A4906E0FA210522090102E0FA228C
:100AC000E6211201092005F0C9FF10BD140600201F
:100AD0001E0600200A060020DC0500208813000006
:100AE00010B504F0FBFA10BD70B50500FFF7C0FCAF
:100AF0000400280005F0BEFE001970BDD2B270B52A
:100B00000500002A03D103681B68984714E00A2AED
:100B100001D0012A04D10022280005F0BDFE0BE01F
:100B2000102A02D105F0EFFE06E0022A02D105F0FC
:100B300000FF01E005F010FF0400280005F09AFE18
:100B4000001970BDF0B53B4B85B01B7800900E00CE
:100B50000192394D012B27D1384C39492000FFF73C
:100B6000C3FF38492000FFF783FC102229782000BA
:100B7000FFF7C4FF34492000FFF77AFC00992000FA
:100B800005F0B8FE314F20003900FFF771FC31004D
:100B9000200005F0AFFE39002000FFF769FC0A22B3
:100BA00001992000FFF7AAFF294A009B1168294CF0
:100BB0008C4663441360236827489B192360297877
:100BC000036816000090254A994207D11168244B0A
:100BD00002911B68029928338B4228D8FF2713689B
:100BE000FD200393039A1E4B1A6004F023FD00209E
:100BF00004F020FD032004F01DFD287804F01AFD08
:100C00003068384004F016FD2068384004F012FDCA
:100C1000002004F00FFD002004F00CFD002004F083
:100C200009FD0023009A336023602B78136005B020
:100C3000F0BDC04606060020CC070020FC020020C4
:100C4000498700005B870000678700007487000009
:100C5000C0070020C4070020D4070020040F002094
:100C6000C807002010B5054A1378184310700022F9
:100C700011001000FFF766FF10BDC046CC07002032
:100C800010B5054A13788343137000221100100039
:100C9000FFF758FF10BDC046CC07002070B5294BA8
:100CA000294E1B78294C012B2FD1294D2949280089
:100CB000FFF71AFF28492800FFF7DAFB10223178E6
:100CC0002800FFF71BFF25492800FFF70DFF2178BB
:100CD00010222800FFF712FF617810222800FFF78A
:100CE0000DFFA17810222800FFF708FFE1781022FD
:100CF0002800FFF703FF217910222800FFF7FEFEEE
:100D0000617910222800FFF7F9FEFD2004F092FC23
:100D1000307804F08FFC002004F08CFC207804F084
:100D200089FC607804F086FCA07804F083FCE0780D
:100D300004F080FC207904F07DFC607904F07AFCFA
:100D400070BDC04606060020CD070020CE0700205B
:100D5000FC020020768700008B8700009887000047
:100D6000C2B270B50012E02804D10A490B781A43C8
:100D70000A700CE0F0280AD100230748195C1C0017
:100D80000500002902D001338A42F7D12A55FFF726
:100D900085FF70BDCD070020CE07002010B5C1B281
:100DA00002120023E02A04D10C4A13788343137003
:100DB00010E00B4A5C1CD3181878884201D023003D
:100DC000F7E7991A052903D0597819700133F8E724
:100DD00000235371FFF762FF10BDC046CD0700200E
:100DE000CE070020002310B5054A1370537093708E
:100DF000D37013715371034A1370FFF74FFF10BD87
:100E0000CE070020CD07002070B505000024285D26
:100E1000002804D00134A4B204F00CFCF7E770BD44
:100E200010B5074B1B78012B03D106490648FFF785
:100E30005BFE9C2004F09AFB0122044B1A7010BD4B
:100E400006060020A9870000FC020020BC07002045
:100E5000024B1878431E9841C0B27047BC0700206F
:100E600010B501210C2004F0EBF901210C2004F055
:100E7000B5F9FA20000104F0F7FA0C20002104F083
:100E8000DFF910BD07B504F029F9034B1B68019386
:100E9000019A024B1A6007BD040F0020C80700200A
:100EA000F8B5144E8700BD59281E21D007F0B9FBB4
:100EB000AF23114A9B000130521B84B2D218121B7F
:100EC00092B22919280007F0BAFA0023BB51F25850
:100ED000954201D2121BF25004334C2BF7D1074B31
:100EE0001888001B80B21880AF239B00181A80B2AC
:100EF000F8BDC046940A0020D8070020E00A002070
:100F0000F8B50F000500FFF7CBFF104B38001C8829
:100F100007F087FB0E4A23180020934214D80D4E89
:100F200039003619300007F074FB0B4BAD00380068
:100F3000EE5007F076FB0134044B201880B2188085
:100F4000AF239B00181A80B2F8BDC046E00A00200B
:100F5000BA020000D8070020940A002070B51923B7
:100F600012261B25174C18492380A6800120FFF765
:100F7000C7FF2581A68115490320FFF7C1FF2682FF
:100F800013490420FFF7BCFFA68212490520FFF792
:100F9000B7FF268310490620FFF7B2FF0623A3837D
:100FA000033BA3841F332385A31CDD872584A585EC
:100FB0002586A5862587A587A31D4834DD8725803E
:100FC00070BDC0467C0B0020B8870000C1870000C0
:100FD000C9870000D3870000DD87000010B5064BED
:100FE0008200064C99180220095E985C0123125970
:100FF00000F022FC10BDC0467C0B0020940A0020AB
:101000001D4A8000835A10B50F2B2BD007D8072B11
:101010000ED0082B10D0062B2CD1012009E0122B6A
:1010200024D0392B0AD0102B24D10022134B1BE0E3
:10103000022001F025FE1DE00420FAE71018438885
:10104000013BDBB21F2B15D801229A4013000C493B
:101050000A689A430B4B0A601B78002B0AD104F0F4
:10106000E9FF07E00022084B1A7003E0074BC05865
:1010700002F0BEFF10BDC0467C0B0020D30E002046
:101080000C120020D4100020D20E0020940A002060
:10109000074B8000C35A122B04D806480122D840BF
:1010A000104003E0393B58425841C0B27047C04637
:1010B0007C0B0020C081050073B51B4BC5005A197D
:1010C000040050781E0088422AD1EB5C062B18D809
:1010D0000133DBB2AB55072B13D19378834210D089
:1010E000907001280FD12000FFF7D2FF002802D016
:1010F0002000FFF773FF0D4B75191B680193019BCF
:101100006B6000200FE02000FFF7C2FF002802D133
:101110002000FFF763FF2000FFF772FF012002E0CD
:1011200000205170E85476BDE40A0020040F00202E
:101130000021064A531C9932581E197059700170CB
:10114000997008339342F7D17047C046E40A0020F3
:1011500010B503F0C3FF10BD024B034A1A80034AC7
:101160005A807047CC0B00204054000001A4FFFFC0
:1011700010B5074C0721200005F08AFA2000042151
:10118000083005F085FAA188024805F081FA10BD03
:10119000CC0B0020EC87000070B50425074C07211C
:1011A0002000A58005F074FA20002900083005F021
:1011B0006FFAA188024805F06BFA70BDCC0B0020D5
:1011C000E8870000002310B5054C07212000A3800C
:1011D00005F05EFA20000421083005F059FA10BD30
:1011E000CC0B002010B5084C0721200005F050FA68
:1011F00020000421083005F04BFA2000A1880C30B3
:1012000005F046FA10BDC046CC0B00200D4B0E4A2F
:101210001B6812680D499B1A0D4A9BB213731B126F
:1012200053730C4B09681B685B1A9BB293731B12B8
:10123000D373094B1B6813741B12537406239380DA
:101240007047C046F405002010060020000600206C
:10125000CC0B0020FC050020E005002070B50E4DF1
:10126000287803F0DBFF444244416878E4B203F09D
:10127000D5FF002801D102231C43A87803F0CEFF3C
:10128000002801D104231C43044B00201A78A242F9
:1012900001D01C70013070BD60020020100C0020D5
:1012A00010B5FFF7DBFF034A034B12781A730122D4
:1012B0009A8010BD100C0020CC0B002070B5394C6A
:1012C000394B258962891D81A17906029971D1B2B4
:1012D0008E195E810100102319405FD1D2B22379AB
:1012E000112A1AD004D8002A07D0102A28D055E095
:1012F000812A07D0822A08D050E0002B4ED1FFF778
:1013000037FF4DE0002B49D104E0002B46D1274A9E
:1013100001331370264A137040E0022D08D0032DCC
:1013200009D0002D3AD1002B38D1FFF735FF37E037
:10133000FFF76CFF01E0FFF7B3FFFFF753FF2FE06C
:10134000042D0FD0052D26D0012D27D1022B25D11C
:10135000237B184A1380637B11881B02CB189BB236
:1013600013801BE0012B19D1257B134C20781D42E3
:1013700000D1190003F032FF60780021AB0700D4E0
:10138000012103F02BFFA07800216B0700D401217D
:1013900003F024FF02E0094803F00EFAFFF712FF02
:1013A000012070BDF00B0020CC0B00207402002047
:1013B00076020020EC0B00203802002029060020D5
:1013C00070B55D4C030020780F2800D9A8E005F027
:1013D0005BFF08191E253438425A5E65697A9A9C6B
:1013E0009EA0402B01D13F3B9BE020229343412B09
:1013F00000D0A0E00021514A403B1170504A2370B8
:1014000013708FE0542B00D08AE0523B89E000211A
:101410004C4A11704C4A5380032382E04A4A1B0213
:101420005188CB189BB25380002B04D11021454A20
:1014300013780B431370042373E0434A938005230E
:101440006FE0414A1B029188CB189BB293800F2B0F
:1014500066D8062365E03C4ADDB295713B4A3C48BC
:101460001178002901D0002309E07F2102780132A0
:101470000A40934204D0334A7D3913780B431370EA
:10148000057007234DE0304A1381082349E02E4AB6
:101490001B021189CB181381092342E02A4A538188
:1014A0000A233EE02B4ADBB21370274A9288002AB7
:1014B00005D00B2300222370274B1A6032E0DB0794
:1014C0002CD50C232DE0204A234D118905290AD162
:1014D0008C202968FF30814205D8204843540023DE
:1014E00041184B7002E0296851180B732B680133C7
:1014F0002B609288934215D1164B1B78DB070DD5D4
:10150000237801330DE00D230BE00E2309E00F23B8
:1015100007E004210B4A13780B431370632300E0A8
:10152000002323702378632B05D1064B1878FFF72F
:10153000C5FE0023237070BDF80E0020110C0020A2
:1015400076020020120C0020F00B00207402002014
:10155000C80B0020EE0B0020140C002029060020F0
:1015600070B5184D2B88002B27D0174C23780133EA
:10157000DBB2002B00D1802323700223134E338172
:101580002378B37120237381FFF740FEFFF72AFE13
:10159000FFF764FE002810D023780133DBB2002B64
:1015A00000D180232370032333812378B371202358
:1015B0007381FFF775FEFFF715FE288880B203F0F0
:1015C00053FF70BDEC0B002075020020CC0B0020F7
:1015D00010B503F083FD10BD70B50022050005F0C5
:1015E0005BF90400280005F045F9001970BDFFFF04
:1015F000F0B5734C85B073492000FEF746FF724981
:101600002000FFF771FA71492000FEF73EFF704D90
:1016100020006978FFF7E0FF6E492000FEF735FFF4
:10162000A9782000FFF7D8FF6B492000FEF72DFFB7
:101630000423E95E2000FEF72CFF68492000FEF736
:1016400024FF0623E95E2000FEF723FF6449200003
:10165000FEF71BFF29892000FEF71BFF61492000D0
:10166000FEF713FF69892000FEF713FF5E49200093
:10167000FEF70BFFA9892000FEF70BFF5B49200056
:10168000FEF703FFE9892000FEF703FF5849200019
:10169000FEF7FBFE297C2000FFF79EFF5549200046
:1016A000FEF7F3FE698A2000FEF7F3FE52492000A0
:1016B000FEF7EBFEA98A2000FEF7EBFE4F49200063
:1016C000FEF7E3FE29782000FFF786FF4C49200053
:1016D000FEF7DBFEA97D2000FFF77EFF49492000D1
:1016E000FEF7D3FEE97D2000FFF776FF4649200094
:1016F000FEF7CBFE297E2000FFF76EFF4349200056
:10170000FEF7C3FE697E2000FFF766FF4049200018
:10171000FEF7BBFEE98B2000FEF7BBFE01353D491D
:101720002000FEF7B2FEE97F2000FFF755FF0025FD
:1017300039492000FEF7A9FE082D03DC37492000B7
:10174000FEF7A3FE013529002000FEF7A2FE344972
:101750002000FEF79AFE334EAB009E190193331F13
:101760001F88314BBF00DF19390003A806F051FF75
:1017700003A92000FEF789FEFB78002B18D0022B6E
:101780000DD9032B14D129492000FEF77EFEAB00B2
:10179000274A043BD1582000FEF777FE08E0234992
:1017A0002000023EFEF771FE3188200005F0A2F80D
:1017B00020492000FFF798F9132DB9D105B0F0BDED
:1017C000FC020020F287000063020020F88700007E
:1017D0003C020020FF870000068800000D88000002
:1017E000148800001B88000022880000298800005F
:1017F00030880000378800003E88000045880000DF
:101800004C880000538800005A880000618800005E
:10181000688800006F880000768800006A8E0000EB
:101820007D8800007C0B0020AF890000778C0000D1
:10183000940A0020788C0000F0B51500AC4A0C002A
:101840001178E7B00190170000293DD0A94B1B7813
:10185000012B22D1A84EA9493000FEF716FE002226
:101860003978300005F018F8A5493000FEF70DFE74
:1018700000220199300005F00FF8A2493000FEF770
:1018800004FE2100300005F035F89E493000FEF7D7
:10189000FCFD29003000FFF727F9694638789A4A9D
:1018A0000138898883009952D3185C80C0B2FFF751
:1018B000F7FA002D05D0387829000138C0B2FFF7BB
:1018C0001FFB00233B70B6E2019A442A00D9B2E222
:1018D000100005F0E3FC45004700770061007F0041
:1018E0006B00860088008C007D0067008E009000F1
:1018F00095009B009E00A5005C01600168017001DD
:10190000730179019401AB01B001C201B002A402DC
:10191000AB02CF01E101F601F801FB010F02120257
:101920001502180257025A025D0260026302660243
:1019300069026C027602820291028E029C02AF0062
:10194000C200CC00DE00E800F400FF003501950283
:1019500064011B021E02210253026F0299027202ED
:101960006A4915E0FEF708FE624B1B78012B08D18F
:10197000614D67492800FEF788FD21002800FEF729
:1019800088FD631E9BB2122B01D83C7053E2614963
:101990005948FFF7A9F84EE2022001F097F9082014
:1019A00003F062FD022001F06BF944E2012001F036
:1019B0008DF9082003F058FD012001F061F908209D
:1019C00003F052FD012001F081F9082003F04CFDE5
:1019D0000120E8E7042001F079F9082003F044FD34
:1019E00007E0012000E0022001F070F923E204206A
:1019F000FAE70420D7E7484B187C404240B202E0A7
:101A00001020454B185601F087F914E2424B1C7424
:101A100011E2002B01D0414B05E01900200006E047
:101A2000002B02D03E4B1C7005E22100180001F093
:101A300091F900E23B4B3C485A6810403B4A9442C3
:101A400000D91400240104435C60394B1B78002B3F
:101A500000D0F0E104F0EEFAEDE1324B35485A687F
:101A60001040324A944200D91400A403EBE72F4BF4
:101A70009C4200D91C002B4A2106536890681B0227
:101A80001B0A0B4353600323240A984304439460C6
:101A9000DBE7244B28489A681040244A944200D936
:101AA0001400A40008E01F4B24489A6810401F4A05
:101AB000944200D91400240304439C60C5E7013C10
:101AC000E4B21F2C00D9B6E10123A340154A1168E6
:101AD0000B430AE0013CE4B21F2C00D9ABE1012327
:101AE000A340104A116899430B001360ADE7C0464C
:101AF000180C002006060020FC020020818800004F
:101B0000B08C0000FE8600007C0B00209A8800004C
:101B1000AB880000799100003C020020D20E00202A
:101B2000D30E00200C1200200FC0FFFFFF030000A7
:101B3000D4100020FF3F00FF03F0FFFFFF0FC0FFA6
:101B40000F23002C1CDB0023162C19DD0133432C42
:101B500016DD0133702C13DD01339D2C10DD0133B4
:101B6000CA2C0DDD0133F42C0ADD92220133520020
:101B7000944205DD5222FF320023944200DC0733F9
:101B80000F22AE494868904303434B605DE728004D
:101B900001F080F94FE1280002F020FA4BE1280023
:101BA00002F021FA47E1A649280006F01BFD2800B3
:101BB00002F01EFA3FE1FEF7DFFC3CE1FEF7DCFC41
:101BC000280000F011FC36E1002D00D133E1FEF7D2
:101BD000D3FC280000F04AFE00229A4B9A491A7062
:101BE0009A4BDA8A8A4203D1198B914200D122E1C1
:101BF000598B974A11809A8B964B1A801BE1FEF7FE
:101C0000BBFC02238F4D00242B7000F087FF0022C5
:101C1000200001341100E4B200F002FD072CF6D1DF
:101C200000200121287000F01BFE04E1FEF7A4FC57
:101C300000F0ECFFFFE0884B824C1D78012D04D1B1
:101C400086498748FEF721FC2570FEF795FC0020A9
:101C500000F00CFE00232370EDE07F4B1B78012B7E
:101C600003D180497E48FEF73FFFFEF785FC00F078
:101C700033FAE0E0754BE4B21C70774B1B78012B14
:101C800000D0D8E076487849012C00D181E6774928
:101C900000D97EE676497CE66F4B1B78012B03D199
:101CA00074496F48FEF720FF0F210620FEF708FD5C
:101CB000664B1A78002A01D1013200E000221A7026
:101CC000B9E0012200E000226B4BF8E7624B1B7881
:101CD000012B03D169496248FEF706FF14210A204F
:101CE000FEF7EEFC6422664B002101201A80FEF70D
:101CF000ABFEA0E0554B5C709DE0544B9C709AE0AD
:101D0000524B9C8097E0514BDC8094E04F4B1C8100
:101D100091E04E4B5C818EE04F4B1B78012B08D13C
:101D20004F4C58492000FEF7B0FB29002000FEF779
:101D3000DBFE2B78002B7ED000231A0029780029A7
:101D400011D03B2902D1002A04D10CE05C2901D139
:101D5000002A05D05A1C02A8C154D3B2002200E0C8
:101D600001220135EAE7002202A90800CA5402F064
:101D700023FD2B785A1E9341ED18DAE7200003F07B
:101D800073FB58E0314B9C8155E0304BDC8152E0D5
:101D90002E4B5C824FE02D4B9C824CE02B4B9C7574
:101DA00049E02A4BDC7546E0284B1C7643E0274B84
:101DB0005C7640E0254BDC833DE0244B0133DC774F
:101DC00039E0254B1B78012B03D12F492448FEF71E
:101DD0008BFE280001F0D0F82DE01F4B1B78012B63
:101DE00003D12A491E48FEF77FFE280001F07CF946
:101DF00021E001F071F91EE0280001F071F91AE00C
:101E0000A0B201F00BFA16E001F002FA13E0012291
:101E1000114B1F491A701F4B92181A70B8E5012315
:101E20000D4A1D4913701B4A1370B1E500230A4A7D
:101E30001370184A137067B0F0BDC0460C12002032
:101E4000778C0000DF050020323200003C020020C9
:101E5000080600200E06002006060020C0880000AC
:101E6000FC020020CF880000DC880000F58800001C
:101E70001189000031890000E40500205589000027
:101E800072020020678900007689000088890000BE
:101E900098890000190C0020A789000010B503F0F4
:101EA0001DF910BD10B5002204F0F6FC10BD10B5F0
:101EB000002204F0F1FC10BD10B503F00FF910BDC5
:101EC000F8B51C4CA02223003B331A7023000127D5
:101ED0005E331F70230005000E00010A5D33C9B296
:101EE00020001F7002F06CFDE9B2200002F068FDD6
:101EF0003100200002F064FD3900200002F080FE75
:101F0000052003F0B1FA0C4B1B78022B10D10B4CBF
:101F10000B492000FEF7B9FA29002000FFF7C7FFA0
:101F200008492000FEF7B1FA31002000FFF754FB0A
:101F3000F8BDC04680020020190C0020FC020020E1
:101F4000C38A0000768C0000F7B50D0000240090D5
:101F50002A5D002A02D00134A4B2F9E7263456499A
:101F6000A4B200238858C65C002E02D001339BB275
:101F7000F9E70533E4180432A4B24C2AF1D14F4FEB
:101F80003B78012B00D08DE04D4E4E493000FEF7DE
:101F90007CFA21003000FEF77CFA009B002B02D176
:101FA0009023494A1380009B474A5B00D45A3B78F0
:101FB000012B08D1424E45493000FEF766FA210058
:101FC0003000FEF766FA51212000FFF779FF601C10
:101FD00080B20221FFF774FF0026A71CBFB23C4B62
:101FE000B819995D80B20136FFF76AFF222EF6D14B
:101FF00020002700243080B20021FFF761FF002677
:102000002537BFB2A95D01363800B6B2FFF758FFD9
:10201000AB19013B7C1C1B78A4B22700002BF1D12B
:102020001D0000262B4FEF19A019B95D80B20136B3
:10203000FFF746FF042EF7D1201D80B20021FFF7E5
:102040003FFF661D1C4B9334FF345F59A3B2B6B2F9
:10205000019339783000FFF733FF3B78741CA4B24A
:10206000002B03D104354C2DDBD105E0019B01375A
:1020700026009C42EDD1F5E7009B062B03D1124BC5
:102080008E331C8004E0009B0F4A01335B00D45266
:1020900000240D4B2000195D0134FFF711FF902C37
:1020A000F7D108E0009B002B00D179E7009B064A9E
:1020B0005B00D45A87E7F7BD940A0020190C002072
:1020C000FC020020CD8A00001A0C0020D88A0000F3
:1020D0003C0200207C0B002070B5104B1B78012BBC
:1020E00003D10F490F48FEF7FFFC002426000E4DD8
:1020F0000021605BFFF7E4FE605B00210130FFF729
:10210000DFFE665302340E2CF1D10024295D20003D
:102110000134FFF7D5FE902CF8D170BD190C0020CA
:10212000E98A0000FC0200201A0C0020F0B585B0FE
:1021300002930400002301910392019AD25C002AC9
:1021400002D001339BB2F8E7404F414D3B78012B61
:1021500072D1404E40493000FEF797F9029B3000A3
:10216000D91CFEF796F9002C01D13C4BEB81231DC5
:102170005B00ED183B78EE88012B08D1354D3849CE
:102180002800FEF782F931002800FEF782F93000BE
:102190006621B51E013EFFF793FEB0B2BB21FFF7EB
:1021A0008FFE0026ADB2019B2800995DFFF788FEE7
:1021B0000136019BB6B29B19013B1B786F1EBFB263
:1021C000002B01D03D00EEE7AB1E9BB20299380018
:1021D0000193FFF775FE6B461B89039E02935B001C
:1021E000ED1A023DABB2019D0393039B9D420ED0BD
:1021F00031782800FFF764FE6F1E3188BFB2023DC0
:10220000090A3800ADB2FFF75BFE0236EDE7029B2C
:10221000019A5B00D31A9BB20D4D3E2C03D00534BE
:1022200064002C19E3800024295D20000134FFF7AD
:1022300047FE902CF8D106E0002C96D0231D5B00C1
:10224000ED18EE88A3E705B0F0BDC046190C0020DC
:102250001A0C0020FC020020FC8A0000FF7F000016
:102260000A8B000070B5234CA02223003B331A7068
:10227000230001265E331E7023000500010A5D3332
:10228000C9B220001E7002F09BFBE9B2200002F0F0
:1022900097FB3100200002F0B3FC330032005021E4
:1022A000200002F02FFD2300220039333832197844
:1022B0001378FE36994206D00026994203D9591C5C
:1022C0001170E418267E0C4B1B78022B10D10B4C9E
:1022D0000B492000FEF7D9F829002000FFF7E7FDA1
:1022E00008492000FEF7D1F831002000FFF774F90B
:1022F000300070BD80020020190C0020FC0200207C
:102300001F8B0000768C0000F0B5002485B0019092
:102310002E4B6200D55A002D43D02800FFF7A2FFB4
:1023200051283ED1681C80B2FFF79CFF022838D1AB
:1023300000272535ABB2019D0393039B019A2E78AC
:102340009B1A5B1918000293FFF78CFF86421FD07F
:102350001F4B1B78022B24D11E4E1F493000FEF765
:1023600094F839003000FFF7A2FD1C493000FEF759
:102370008CF8287804F0FCF919493000FEF785F84C
:102380000298FFF76FFF01003000FFF725F908E022
:102390002B78002B03D0013701350F2FCDD160B240
:1023A00011E00134072CB3D1094B1B78012B08D164
:1023B000084C0C492000FEF768F801992000FEF750
:1023C00093FB0120404205B0F0BDC0461A0C00202E
:1023D000190C0020FC020020298B0000778C0000E3
:1023E0003D8B0000408B0000F8B50600FFF78CFF26
:1023F000431C2DD10024174B6200D55AE7B2002DA3
:1024000006D1154B1B78012B1AD1144D144910E03D
:102410002800FFF727FF512817D00135A8B2FFF792
:1024200021FF022811D00C4B1B78012B08D10B4D3A
:102430000C492800FEF729F839002800FFF7CCF8EE
:1024400060B23100FFF780FD02E00134072CD2D1E9
:10245000F8BDC0461A0C0020190C0020FC02002018
:10246000538B00005E8B0000F0B5002485B0009017
:10247000E3B2394A03936300D318DD89002D56D0A7
:102480002800FFF7EFFE662851D1681E80B2FFF7E3
:10249000E9FEBB284BD10026023D009FADB23B7840
:1024A0000193AB1B18000293FFF7DCFE019B8342F4
:1024B0001FD02A4B1B78022B39D1294D29492800DE
:1024C000FDF7E3FF31002800FFF7F1FC2649280063
:1024D000FDF7DBFF387804F04BF924492800FDF7BD
:1024E000D4FF0298FFF7BEFE01002800FFF774F842
:1024F0001DE03B78002B03D0013601370F2ECED1E3
:10250000164B1B78012B10D1154D19492800FDF7EA
:10251000BCFF00992800FDF7B8FF16492800FDF719
:10252000B4FF03992800FFF757F860B211E00134B7
:102530003F2C9DD1094B1B78012B08D1084C0E492B
:102540002000FDF7A2FF00992000FEF7CDFA012040
:10255000404205B0F0BDC0461A0C0020190C002006
:10256000FC020020298B0000778C00003D8B0000CE
:102570006F8B0000648C0000408B0000F8B503787E
:102580000700214C002B26D0FFF76EFF1F4BC5B272
:102590001B78012B10D11E4E1E493000FDF775FF30
:1025A00039003000FDF771FF1B493000FDF76DFF6A
:1025B00029003000FFF710F804356D006419E08839
:1025C00090281FD9FF21FFF77BFCE088FF2101380D
:1025D000FFF776FC16E0250010490D48FEF784FA57
:1025E0000E358C342888902807D9FF21FFF768FC26
:1025F0002888FF210138FFF763FC00232B80023578
:10260000A542EFD1F8BDC0461A0C0020190C0020DD
:10261000FC020020818B0000648C0000908B000085
:10262000F0B585B005000292062800D900257C4F40
:10263000002935D06B000193FE5A7A4B1B78012B91
:1026400008D1794C79492000FDF71FFF29002000AF
:10265000FEF7C2FF741C3000A4B2FFF703FE51283E
:102660000CD102362000B6B2FFF7FCFD022804D1DF
:102670006B00FC5A6E4B1D7004E034000135EDB266
:10268000072DD7D12000FFF7EDFD512800D0B2E093
:10269000601C80B2FFF7E6FD022800D0ABE00EE040
:1026A0006D007C5B2000FFF7DDFD512800D0B4E019
:1026B000601C80B2FFF7D6FD022800D0ADE00234E6
:1026C000A4B2584B1A780393012A08D1564D5949A0
:1026D0002800FDF7DAFE21002800FDF7DAFE0025CC
:1026E000601980B2FFF7BEFD534B58550135222DBE
:1026F000F6D1524E23343700A4B22000FFF7B2FDCA
:10270000651CADB230702C0001360028F5D14C4B61
:102710001B78012B08D1444C4A492000FDF7B5FE37
:1027200039002000FEF7E0F900260024F3B20193FF
:10273000454BB700FF18281980B2FFF793FD3855B5
:102740000134042CF7D1281D6C1D80B2A4B2FFF710
:1027500089FD00280BD0344F3C493800FDF795FE29
:10276000601EFFF77FFD01003800FEF735FF2000F7
:10277000FFF778FD002814D000272000FFF772FD36
:102780003349651CADB2C855002803D10198FEF746
:10279000B7FB08E08E230137FF332C009F42ECD1BA
:1027A000F4E70635ADB20136132EBED1294B1A78A7
:1027B0001D00002A01D0FEF71BFF029B002B04D056
:1027C0001B4B02201978FEF73FF9039B1B78002B67
:1027D00009D0154C20492000FDF757FE144B20006E
:1027E0001978FEF7F9FE2B78002B16D01B490E48FE
:1027F000FEF77AF911E03C882000FFF733FD5128FD
:102800000BD1601C80B2FFF72DFD022805D10022FC
:10281000074B0234A4B21A7053E705B0F0BDC046AE
:102820001A0C0020190C0020FC020020A68B0000CE
:102830000C060020B68B00003C0200206302002042
:1028400006060020D58B00007C0B0020E58B0000E5
:1028500029060020DF050020FE8B00000B8F000002
:1028600010B50122FFF7DCFE10BDFFFF70B5037845
:102870000600002B04D1134B18780130C0B21AE0C7
:10288000FFF742FD104B04001B78012B10D10F4DB8
:102890000F492800FDF7F9FD31002800FDF7F5FD8F
:1028A0000C492800FDF7F1FD21002800FDF7F1FD9E
:1028B000002C02DBE0B2012101E001210020FFF742
:1028C000CFFF70BD0C060020190C0020FC02002078
:1028D000088C0000648C0000F7B50700009101929D
:1028E000FFF7C2FD431C29D10025154A6B00D31800
:1028F000DC89EEB2002C0AD02000FFF7B3FC66287A
:1029000019D0013CA0B2FFF7ADFCBB2813D00D4B92
:102910001B78012B08D10C4C0C492000FDF7B5FDAC
:1029200031002000FEF758FE019B009A390030006C
:10293000FFF7FCFB02E001353F2DD6D1F7BDC046C5
:102940001A0C0020190C0020FC020020138C00003F
:10295000F8B50025184A6B00D318DC89EEB22000C8
:10296000FFF780FC662822D1601E80B2FFF77AFC58
:10297000BB281CD1114F12493800FDF786FD3100EC
:102980003800FFF78FFA023C0E493800A4B2FDF779
:102990007CFD661E2000B6B2FFF764FC002803D061
:1029A00003F0E6FE3400F4E7380003F063FF01357E
:1029B0003F2DCFD1F8BDC0461A0C0020FC020020EC
:1029C000248C0000B08C0000F7B50E0000923F2868
:1029D00001D9002465E0344B0430344D4000181810
:1029E0002B78C488012B03D131493248FEF77CF89B
:1029F0002000FFF737FC6628EBD1601E80B2FFF79E
:102A000031FCBB28E5D12B78023CA4B2012B08D1C4
:102A1000284D29492800FDF738FD21002800FDF741
:102A200038FD264D2000FFF71DFC671E2870BFB241
:102A30000135002801D03C00F4E7214B1B78012B25
:102A400008D11C4D1F492800FDF71FFD1E49280015
:102A5000FEF74AF83800FFF705FC009BA51E5B0057
:102A6000E41A023CA3B284B2ADB200936300EB1A45
:102A70009BB20193009B9D4213D0019B9D4210D0BD
:102A80002800FFF7EFFB6F1EBFB230803800FFF762
:102A9000E9FB33880002023D18183080ADB20236DF
:102AA000E8E72000FEBDC0461A0C0020190C0020EB
:102AB0002E8C0000FC020020448C0000E505002064
:102AC00006060020668C000063020020F7B50600B1
:102AD00001920F00FFF7C8FC04000D4D0D492800BE
:102AE000FDF7D3FC31002800FDF7CFFC0A49280090
:102AF000FDF7CBFC21002800FDF7CBFC0020844231
:102B000004DBE0B2019A3900FFF75EFFFEBDC0466C
:102B1000FC020020798C0000648C0000F8B50025D0
:102B20002800FFF79FFB314C28550135902DF7D138
:102B300000231D002E49CA5C0133AD18ADB2102B25
:102B4000F9D12088FFF78EFB512838D12088013039
:102B5000FFF788FB022832D123008C331B88AB425D
:102B60002DD1244B1B78012B3ED1234D2349280026
:102B7000FDF7BAFF0026F1B22800FFF793F9204FC6
:102B800028003900FDF781FC7300E15A2800013666
:102B9000FDF77FFC072EEED10026F1B22800FFF7EB
:102BA00081F939002800FDF770FC7300E318D9891A
:102BB00028000136FDF76DFC3F2EEED114E0042114
:102BC0000220FDF741FF0F490B48FDF78DFFFFF78E
:102BD00083FA0020FFF7D2FC23000B498C3300203E
:102BE0001D80FFF7B1F9BCE7F8BDC0461A0C002004
:102BF0009A880000190C0020FC0200208A8C00003A
:102C0000768C0000B28C0000C78C0000F8B500255F
:102C1000174B6A00D45AEEB22000FFF723FB51286D
:102C200022D1601C80B2FFF71DFB02281CD1114F7E
:102C300011493800FDF729FC31003800FFF732F95F
:102C400025340E493800A4B2FDF71FFC661C200095
:102C5000B6B2FFF707FB002803D003F089FD34006C
:102C6000F4E7380003F006FE0135072DD0D1F8BD9A
:102C70001A0C0020FC020020CD8C0000B08C00005B
:102C800070B5104C0500631CDB7FDB070ED51F23DE
:102C90000D4A0340117808009843814206D0002372
:102CA000107019001A00180003F028FC0134E37FAB
:102CB0009B0706D5FEF7CCF8002802D02800FDF7C8
:102CC000DFFF70BD3C020020A310002070B5104C47
:102CD0000500631CDB7FDB070DD51F230D4A034076
:102CE00011780B43994206D0137000231A00190083
:102CF000180003F003FC0134E37F9B0706D5FEF7C1
:102D0000A7F8002802D02800FDF7ACFF70BDC04630
:102D10003C020020A310002070B50D4B05005A1C8A
:102D2000D27F1C00D30705D500230200190018002C
:102D300003F0E4FB631CDB7F9B0708D5FEF788F8F4
:102D4000002804D00021EAB20800FDF7FBFE70BDA8
:102D50003C020020F8B505000E0001272B004C4C6A
:102D6000803301DB022724E0631CDB7F3B4206D07B
:102D7000002380201A001900404203F0BFFB0134F9
:102D8000E37F9B0703D5FEF763F8002865D1803504
:102D9000E4E70122631CDB7F134205D000237F2080
:102DA0001A00190003F0AAFB631CDB7F3B4204D12D
:102DB0007F3D7F2DEDDC012714E0FEF749F8002868
:102DC00052D1F5E7631CDB7F3B4206D00023802114
:102DD0001A004942180003F091FB631CDB7F9B073C
:102DE00005D4803633008033ECDB022714E0FEF795
:102DF0002FF800283ED1F4E70122E318DB7F1342CD
:102E000005D000237F211A00180003F077FB631C14
:102E1000DB7F3B4204D17F3E01237F2EECDC04E0CC
:102E2000FEF716F800282CD1F5E7621CD27F1A4273
:102E300005D0002371B268B21A0003F05FFB0134C1
:102E4000E37F9B0723D5FEF703F800281FD000225D
:102E500031002800FDF776FE19E0002280201100E5
:102E60004042FDF76FFE92E700227F201100FDF740
:102E700069FE9DE70022802110004942FDF762FEB5
:102E8000AFE700227F211000FDF75CFEC3E7F8BD2D
:102E90003C02002070B5104B05005A1CD27F1E006A
:102EA000D3070DD50024280005F0BBFBA04207D9AD
:102EB000285D03F0C7F9285D03F04AFA0134F2E710
:102EC000731CDB7F9B0706D5FDF7C2FF002802D0ED
:102ED0002800FDF799FF70BD3C02002070B50B4B38
:102EE00005005A1CD27F1C00D30702D580B203F024
:102EF000A9F9631CDB7F9B0706D5FDF7A9FF002816
:102F000002D02800FDF72CFF70BDC0463C02002017
:102F100070B50B4B05005A1CD27F1C00D30702D59D
:102F200080B203F015FA631CDB7F9B0706D5FDF723
:102F30008FFF002802D02800FDF730FF70BDC0468B
:102F40003C02002010B5094B5A1CD27F1C00D3074D
:102F500001D503F053FA631CDB7F9B0705D5FDF712
:102F600077FF002801D0FDF73DFF10BD3C02002097
:102F700010B502F0B3F810BDF0B5032787B000908C
:102F8000454C23680493049E2368444A0593059B9B
:102F90009B1B934201D9424936E0424D287802F00A
:102FA0003DF902950028EFD13F4B1A780393012A8F
:102FB00003D13E493E48FDF797FD0126002402F06B
:102FC0002FFA019002F02CFA019BC51A394B1B68AD
:102FD0009D421DD3344B1B78012B03D13649344815
:102FE000FDF782FD354B1C70FA240123E418E4B28E
:102FF0005E40F92CE3D9314E3278052A14D8013FCE
:10300000FFB2002FBCD12E492948FDF76DFD41E0EC
:10301000029B187802F002F9B042D3D1FA2CE4D026
:10302000284A63009D52E0E7264F00983900FFF7D9
:1030300053FC00210920FDF707FD039B1C4C1B7866
:10304000012B13D120492000FDF74EFD00253378D8
:10305000AB4207D96B00F95A20000135FDF719FA88
:10306000EDB2F4E719492000FDF73EFD18492000B4
:10307000FDF7FEF900992000FDF7FAF91549200047
:10308000FDF7F6F931780022200003F005FC20005E
:1030900003F0F0FB07B0F0BD040F00200F27000085
:1030A000D28C00005F02002006060020EB8C00009E
:1030B000FC02002078020020FF8C0000AA0C0020F7
:1030C000188D0000AC0C0020348D0000488D0000ED
:1030D000578D00007487000010B5FFF739FC10BD54
:1030E00010B5FFF74BFA10BDF0B53E4C87B0FA2291
:1030F00021000390FFF7EAFC3B4B3C4FC0B2187035
:10310000059304943B78002806D1012B68D13849F7
:103110003848FDF7E9FC63E0012B16D1354D3649FF
:103120002800FDF7E1FC0024059B1B78A34208D989
:10313000049A6300D15A28000134FDF7AAF9E4B2D9
:10314000F2E72E492800FDF7CFFC01260024059B5D
:103150002B4D1B78A34227D9049A6300D35A0193BD
:1031600002F05EF902902878002E0FD0802102F044
:103170009DF802F055F9029BC01A019B8342F8D2D8
:103180002878002102F092F800260AE0310002F0CF
:1031900025F802F045F9029BC01A019B8342F8D240
:1031A00001260134E4B2D2E700210920FDF74CFCEE
:1031B0003B78012B10D10F4C12492000FDF758F934
:1031C00003992000FDF754F90F492000FDF750F94D
:1031D0000E492000FDF788FC2878002101F0FEFF51
:1031E00007B0F0BDAC0C0020AA0C002006060020A1
:1031F000658D0000FC020020348D0000488D000029
:103200005E020020798D000074870000E505002033
:1032100010B50020FFF7B2F910BDFFFF012804D957
:10322000FA239B005843014B186070477802002036
:1032300010B501F053FF10BD10B5FFF783FE00235A
:103240001900034A99500433202BFBD110BDC0460E
:10325000A00E0020002310B5064A99008C58002CBF
:1032600000D188505158884202D00133072BF4DD39
:1032700010BDC046A00E0020002330B50B499A00B7
:1032800055580C0085420CD18A180021072B05D017
:1032900050184068013350500431F7E70023E361D0
:1032A00002E00133072BEADD30BDC046A00E00204E
:1032B0000023054A9958814204D00433202BF9D1C8
:1032C000002000E001207047A00E002010B504008F
:1032D000012904D0002910D0022907D010E0FFF7FF
:1032E000E7FF002806D02000FFF7C6FF2000FFF709
:1032F0000FFE05E02000FFF7ADFF2000FFF7EEFD19
:1033000010BDFFFF70B504000D0005F08AF9023012
:1033100005F078F80600210005F07BF9300005F093
:1033200080F9301801380378D24C202B03D02100CB
:10333000300005F057F92100300005F079F9041E3E
:1033400001D100F0C9FDCC4905F059F9002803D19D
:103350002900CA48FFF7BAFFC949200005F04FF914
:10336000002803D12900C748FFF7B0FFC649200055
:1033700005F045F9002803D12900C448FFF7A6FF4E
:10338000C349200005F03BF9002803D12900C148BA
:10339000FFF79CFFC049200005F031F9002803D158
:1033A0002900BE48FFF792FFBD49200005F027F92C
:1033B000002803D12900BB48FFF788FFBA49200045
:1033C00005F01DF9002803D12900B848FFF77EFF5A
:1033D000B749200005F013F9002803D12900B548AA
:1033E000FFF774FFB449200005F009F9002803D164
:1033F0002900B248FFF76AFFB149200005F0FFF845
:10340000002803D12900AF48FFF760FFAE49200034
:1034100005F0F5F8002803D12900AC48FFF756FF66
:10342000AB49200005F0EBF8002803D12900A9489A
:10343000FFF74CFFA849200005F0E1F8002803D170
:103440002900A648FFF742FFA549200005F0D7F85C
:10345000002803D12900A348FFF738FFA249200024
:1034600005F0CDF8002803D12900A048FFF72EFF72
:103470009F49200005F0C3F8002803D129009D488A
:10348000FFF724FF9C49200005F0B9F8002803D17C
:1034900029009A48FFF71AFF9949200005F0AFF874
:1034A000002803D129009748FFF710FF9649200014
:1034B00005F0A5F8002803D129009448FFF706FF7E
:1034C0009349200005F09BF8002803D1290091487A
:1034D000FFF7FCFE9049200005F091F8002803D189
:1034E00029008E48FFF7F2FE8D49200005F087F88D
:1034F000002803D129008B48FFF7E8FE8A49200005
:1035000005F07DF8002803D129008848FFF7DEFE8A
:103510008749200005F073F8002803D12900854869
:10352000FFF7D4FE8449200005F069F8002803D194
:1035300029008248FFF7CAFE8149200005F05FF8A4
:10354000002803D129007F48FFF7C0FE7E492000F4
:1035500005F055F8002803D129007C48FFF7B6FE96
:103560007B49200005F04BF8002803D12900794859
:10357000FFF7ACFE7849200005F041F8002803D1A0
:1035800029007648FFF7A2FE7549200005F037F8BC
:10359000002803D129007348FFF798FE72492000E4
:1035A00005F02DF8002803D129007048FFF78EFEA2
:1035B0006F49200005F023F8002803D129006D4849
:1035C000FFF784FE6C49200005F019F8002803D1AC
:1035D00029006A48FFF77AFE6949200005F00FF8D4
:1035E000002803D129006748FFF770FE66492000D4
:1035F00005F005F8002803D129006448FFF766FEAE
:103600006349200004F0FBFF002803D12900614832
:10361000FFF75CFE6049200004F0F1FF002803D1B1
:1036200029005E48FFF752FE5D49200004F0E7FFE5
:10363000002803D129005B48FFF748FE5A492000C3
:1036400004F0DDFF002803D129005848FFF73EFEB3
:103650005749200004F0D3FF002803D12900554822
:10366000FFF734FE5449200004F0C9FF002800D0C1
:10367000A8E0A3E0778C0000838D000002E000004A
:103680008D8D000001E00000968D000004E0000038
:103690009E8D000040E00000AC8D000008E00000BE
:1036A000B48D000080E00000C28D000052F00000E8
:1036B000C98D000051F00000D28D000050F00000D4
:1036C000DB8D00004FF00000E58D000028F00000C9
:1036D000EF8D00002CF00000F98D000029F00000B3
:1036E000018E00002AF000000F8E00002BF0000079
:1036F000178E000039F00000258E00003AF000001F
:103700002C8E00003BF00000338E00003CF00000E7
:103710003A8E00003DF00000418E00003EF00000B7
:10372000488E00003FF000004F8E000040F0000087
:10373000568E000041F000005D8E000042F0000057
:10374000648E000043F000006C8E000044F0000026
:10375000748E000045F000007C8E000068F00000D0
:10376000848E000069F000008C8E00006AF000007A
:10377000948E00006BF000009C8E00006CF0000046
:10378000A48E00006DF00000AC8E00006EF0000012
:10379000B48E00006FF00000BC8E000070F00000DE
:1037A000C48E000071F00000CC8E000072F00000AA
:1037B000D48E000073F00000DC8E00002900D44895
:1037C000FFF784FDD349200004F019FF002803D13E
:1037D0002900D148FFF77AFDD049200004F00FFFFF
:1037E000002803D12900CE48FFF770FDCD49200005
:1037F00004F005FF002803D12900CB48FFF766FD40
:10380000CA49200004F0FBFE002803D12900C84863
:10381000FFF75CFDC749200004F0F1FE002803D14A
:103820002900C548FFF752FDC449200004F0E7FE17
:10383000002803D12900C248FFF748FDC1492000F4
:1038400004F0DDFE002803D12900BF48FFF73EFD4C
:10385000BE49200004F0D3FE002803D12900BC4853
:10386000FFF734FDBB49200004F0C9FE002803D156
:103870002900B948FFF72AFDB849200004F0BFFE2F
:10388000002803D12900B648FFF720FDB5492000E4
:1038900004F0B5FE002803D12900B348FFF716FD58
:1038A000B249200004F0ABFE002803D12900B04843
:1038B000FFF70CFDAF49200004F0A1FE002803D162
:1038C0002900AD48FFF702FDAC49200004F097FE47
:1038D000002803D12900AA48FFF7F8FCA9492000D5
:1038E00004F08DFE002803D12900A748FFF7EEFC65
:1038F000A649200004F083FE002803D12900A44833
:10390000FFF7E4FCA349200004F079FE002803D16E
:103910002900A148FFF7DAFCA049200004F06FFE5F
:10392000002803D129009E48FFF7D0FC9D492000C4
:1039300004F065FE002803D129009B48FFF7C6FC70
:103940009A49200004F05BFE002803D12900984822
:10395000FFF7BCFC9749200004F051FE002803D17A
:1039600029009548FFF7B2FC9449200004F047FE77
:10397000002803D129009248FFF7A8FC91492000B4
:1039800004F03DFE002803D129008F48FFF79EFC7C
:103990008E49200004F033FE002803D129008C4812
:1039A000FFF794FC8B49200004F029FE002803D186
:1039B00029008948FFF78AFC8849200004F01FFE8F
:1039C000002803D129008648FFF780FC85492000A4
:1039D00004F015FE002803D129008348FFF776FC88
:1039E0008249200004F00BFE002803D12900804802
:1039F000FFF76CFC7F49200004F001FE002803D192
:103A000029007D48FFF762FC7C49200004F0F7FDA7
:103A1000002803D129007A48FFF758FC7949200093
:103A200004F0EDFD002803D129007748FFF74EFC94
:103A30007649200004F0E3FD002803D129007448F2
:103A4000FFF744FC7349200004F0D9FD002803D19E
:103A500029007148FFF73AFC7049200004F0CFFDBF
:103A6000002803D129006E48FFF730FC6D49200083
:103A700004F0C5FD002803D129006B48FFF726FCA0
:103A80006A49200004F0BBFD002803D129006848E2
:103A9000FFF71CFC6749200004F0B1FD002803D1AA
:103AA00029006548FFF712FC6449200004F0A7FDD7
:103AB000002803D129006248FFF708FC6149200073
:103AC00004F09DFD002803D129005F48FFF7FEFBAD
:103AD0005E49200004F093FD002803D129005C48D2
:103AE000FFF7F4FB5B49200004F089FD002803D1B7
:103AF00029005948FFF7EAFB5849200004F07FFDF0
:103B0000002800D0AEE029005548FFF7DFFBA9E010
:103B100049F00000E78E00004AF00000F08E00003F
:103B20004BF00000FC8E00004CF00000078F0000FE
:103B30004DF000000F8F00004EF000001D8F0000C0
:103B400004F00000238F000005F00000298F000022
:103B500006F000002F8F000007F00000358F0000F6
:103B600008F000003B8F000009F00000418F0000CA
:103B70000AF00000478F00000BF000004D8F00009E
:103B80000CF00000538F00000DF00000598F000072
:103B90000EF000005F8F00000FF00000658F000046
:103BA00010F000006B8F000011F00000718F00001A
:103BB00012F00000778F000013F000007D8F0000EE
:103BC00014F00000838F000015F00000898F0000C2
:103BD00016F000008F8F000017F00000958F000096
:103BE00018F000009B8F000019F00000A18F00006A
:103BF0001AF00000A78F00001BF00000AD8F00003E
:103C00001CF00000B38F00001DF00000B98F000011
:103C10001EF00000BF8F00001FF00000C58F0000E5
:103C200020F00000CB8F000021F00000D18F0000B9
:103C300022F00000D78F000023F00000DD8F00008D
:103C400024F00000E38F000025F00000E98F000061
:103C500026F00000EF8F000027F00000F58F000035
:103C600048F000009E49200004F0C9FC002803D160
:103C700029009C48FFF72AFB9B49200004F0BFFC69
:103C8000002803D129009948FFF720FB984920001C
:103C900004F0B5FC002803D129009648FFF716FB75
:103CA0009549200004F0ABFC002803D1290093487B
:103CB000FFF70CFB9249200004F0A1FC002803D17F
:103CC00029009048FFF702FB8F49200004F097FC81
:103CD000002803D129008D48FFF7F8FA8C4920000D
:103CE00004F08DFC002803D129008A48FFF7EEFA82
:103CF0008949200004F083FC002803D1290087486B
:103D0000FFF7E4FA8649200004F079FC002803D18B
:103D100029008448FFF7DAFA8349200004F06FFC99
:103D2000002803D129008148FFF7D0FA80492000FC
:103D300004F065FC002803D129007E48FFF7C6FA8D
:103D40007D49200004F05BFC002803D129007B485A
:103D5000FFF7BCFA7A49200004F051FC002803D197
:103D600029007848FFF7B2FA7749200004F047FCB1
:103D7000002803D129007548FFF7A8FA74492000EC
:103D800004F03DFC002803D129007248FFF79EFA99
:103D90007149200004F033FC002803D129006F484A
:103DA000FFF794FA6E49200004F029FC002803D1A3
:103DB00029006C48FFF78AFA6B49200004F01FFCC9
:103DC000002803D129006948FFF780FA68492000DC
:103DD00004F015FC002803D129006648FFF776FAA5
:103DE0006549200004F00BFC002803D1290063483A
:103DF000FFF76CFA6249200004F001FC002803D1AF
:103E000029006048FFF762FA5F49200004F0F7FBE1
:103E1000002803D129005D48FFF758FA5C492000CB
:103E200004F0EDFB002803D129005A48FFF74EFAB1
:103E30005949200004F0E3FB002803D1290057482A
:103E4000FFF744FA5649200004F0D9FB002803D1BB
:103E500029005448FFF73AFA5349200004F0CFFBF9
:103E6000002803D129005148FFF730FA50492000BB
:103E700004F0C5FB002803D129004E48FFF726FABD
:103E80004D49200004F0BBFB002803D129004B481A
:103E9000FFF71CFA4A49200004F0B1FB002803D1C7
:103EA00029004848FFF712FA4749200004F0A7FB11
:103EB000002803D129004548FFF708FA44492000AB
:103EC00004F09DFB002803D129004248FFF7FEF9CA
:103ED00041490020FFF731FA300004F09DFA70BD2F
:103EE000FF8F000047F000000F90000053F000002B
:103EF0001C90000046F000002C90000033F0000001
:103F00003A90000036F000004490000037F00000C6
:103F10004F9000002DF00000599000002EF000009E
:103F20006390000038F000006D90000031F0000058
:103F30007B9000002FF000008A90000030F000001D
:103F40009A90000034F00000A490000035F00000CA
:103F5000AE90000065F00000B790000054F0000043
:103F6000C490000055F00000D390000056F000000F
:103F7000E090000057F00000EC90000058F00000C6
:103F8000F990000059F00000029100005AF0000082
:103F90000B9100005BF00000149100005CF0000049
:103FA0001D9100005DF00000269100005EF0000011
:103FB0002F9100005FF000003891000060F00000D9
:103FC0004191000061F000004A91000062F00000A1
:103FD0005391000063F00000778C000010B50021C1
:103FE000FFF790F910BD10B50121FFF78BF910BD57
:103FF00010B50221FFF786F910BD10B501F06EF87B
:1040000010BDFFFFF0B5BC4B87B01B68BB4D0593DF
:10401000059CBB4B06001C602B681700E01A009142
:1040200004F070F9B74B2C601860B74903F09CFCA2
:10403000B64AB74C136820600394B649BB4203DA12
:104040000123B548037006E00020B34C2070BB424A
:1040500001DD012300E000230B70B04B17600193DA
:104060001A7800239A4200D0C833AD4C2078062835
:1040700000D9C4E003F008F90419296878C3B30033
:10408000019B5B8A9F4205DD0123002105202370EF
:10409000FCF7DAFC019B9B8A9F4200DBAFE0032028
:1040A00000212070FCF7D0FCA9E0019BDA899D4B30
:1040B000974202DA1A68013200E000221A601B6897
:1040C000132B00DC28E302233CE000995A428A4289
:1040D00008DD00210620FCF7B7FC0F20FCF77EFF6F
:1040E0000F202CE0B24208DD00210620FCF7ACFCDA
:1040F0001120FCF773FF112021E0B34208DA002100
:104100000620FCF7A1FC1220FCF768FF122016E045
:10411000009A934208DA00210620FCF795FC102053
:10412000FCF75CFF10200AE07E4A13680133C82BBD
:104130005ADD00230A201360FCF750FF0A20FCF729
:104140005FFF062323705AE0019B9A89754B9742C3
:1041500002DD1A68013200E000221A601B68132B8E
:1041600000DCD9E20423EDE700995A42914208DAD3
:1041700000210420FCF768FC0B20FCF72FFF0B202C
:10418000DDE7964208DA00210420FCF75DFC0D20F3
:10419000FCF724FF0D20D2E7B34208DA0021042007
:1041A000FCF752FC0E20FCF719FF0E20C7E7009A1F
:1041B000934208DA00210420FCF746FC0C20FCF7AF
:1041C0000DFF0C20BBE7574A13680133C82B0BDDEA
:1041D000002308201360FCF701FF0820AFE7514AD5
:1041E000136801331E2B01DC136095E20025156076
:1041F0002570FCF79DFF4C4B1D704C4B1D702378B8
:104200000024A34200D087E2494D285D01F006F862
:10421000414241412000C9B20134FCF74DFF032C5B
:10422000F2D1287800F0FAFF424C051E0ED1C822C8
:104230002368920001332360934209D101000A20D0
:10424000FCF702FCFCF70CFE256001E00023236074
:10425000354D2C78012C10D0002C02D0022C24D00B
:1042600035E02E4BDB899F4231DD21000820FCF731
:10427000EBFB01232B70304B28E0274B1A782E4B99
:10428000002A0CD11A78511C19700F2A1FD902224A
:1042900009202A7008321A70FCF7A0FE17E01A787D
:1042A000002A14D0013A1A7011E0234B1A78002A20
:1042B00001D0013A1A70194AD289974207DA1C785C
:1042C000002C04D10920FCF79BFE174B1C70174DE6
:1042D0002C78012C34D01149002C02D0022C47D06C
:1042E00057E08B899F4254DA21000720FCF7ACFB92
:1042F00001232B70114B4BE0040F0020CC0E00204B
:10430000C40E0020E00E002020BCBE4C7C02002029
:10431000F00E0020DA0E0020D10E00203C0200201A
:10432000C80E0020DC0E0020C00E0020E40E00208D
:1043300060020020F40E0020C10E0020D00E0020EC
:10434000BC4B1A78BC4B002A0CD11A78511C19703E
:104350000F2A1ED9022207202A7008321A70FCF791
:104360003DFE16E01A78002A13D0013A1A7010E0C8
:10437000B14B1A78002A01D0013A1A708A89974203
:1043800007DD1C78002C04D10720FCF739FEAB4B6D
:104390001C700020AA4B1856002804D1A94B1B788A
:1043A0005BB2002B0AD0A84A1378591C11709B07E6
:1043B00004D10021A34B5956FEF7CCFCA34D2B781A
:1043C0000293012B00D096E0288903F053FFA04907
:1043D00003F0CAFA9F4C0290002E01D1268006E01D
:1043E00022889D4B9A4202D86B89D3182380009A69
:1043F0009A4B002A02D16A46128806E01988964A2A
:10440000914203D8914A52898A181A80039B1D68E9
:10441000019B5878704303F02DFF291C03F06EFCBC
:10442000061C208803F026FF011C301C03F066FCEC
:10443000071C011C029803F0C3F8002800D0029F5B
:104440008022029B12069E18311C381C03F0B8F81B
:10445000002800D0371C824C381C216803F00EF96C
:10446000019B2060071C9878009B4343180003F0D1
:1044700001FF291C03F042FC784B051C188803F04F
:10448000F9FE011C281C03F039FC051C011C0298D4
:1044900003F096F8002800D0029D311C281C03F080
:1044A0008FF8002800D0351C6E4E281C316803F0B0
:1044B000E5F8051C3060381C03F0BAFE0700281C24
:1044C00003F0B6FE3B000500034303D001003800B3
:1044D000FEF740FC380003F0CDFE011C206803F01D
:1044E00021FD2060280003F0C5FE011C306803F0A8
:1044F00019FD306010E1029B002B16D1009B0320B8
:10450000D90FFCF7D9FD009B0420D917C91AC90F90
:10451000FCF7D2FDF10F0520FCF7CEFDF117891B4A
:10452000C90F0620FCF7C8FDF6E0009B4D4C002BA0
:1045300003D18823DB05236012E0A87803F09AFEFC
:10454000051C009803F096FE011C281C03F0D6FB06
:10455000454903F009FA8821C90503F08FF8206066
:104560003F4D002E03D18823DB052B6013E0019B18
:10457000587803F07FFE071C300003F07BFE011C1F
:10458000381C03F0BBFB384903F0EEF98821C9055C
:1045900003F074F8286000272868391C03F010F82D
:1045A000002800D02F60314F2868391C03F01CF818
:1045B000002800D02F6000272068391C03F000F885
:1045C000002800D02760294F2068391C03F00CF820
:1045D000002800D02760029B032B53D0042B79D0F6
:1045E000022B00D098E0286803F030F8204B214AD5
:1045F0005968214E0A401F00B04200D93000000126
:104600001E4D104358602B78002B01D101F012FD94
:10461000206803F01BF81A4B7A681340B04200D9A7
:1046200015488003184378602B78002B74D101F073
:1046300001FD71E0DA0E0020D00E0020E40E002013
:10464000D20E0020D30E0020D60E00203C02002007
:1046500000002041D80E00201F4E0000D40E002084
:10466000E80E0020EC0E00200000484200C07F440D
:104670000C1200200FC0FFFFFF030000D410002029
:10468000FF3F00FF286802F0E1FF244FB84200D945
:104690003800234D02066B68224E1B021B0A13438F
:1046A0006B600323AA68000A9A4333781043A8601A
:1046B000002B01D101F0BEFC206802F0C7FF1A4BAD
:1046C000AA681340B84200D9144880001843A86073
:1046D0003378AAE7286802F0B9FF114B134A9968AA
:1046E0000E4E0A401F00B04200D9300000030D4DAD
:1046F000104398602B78002B01D101F09BFC2068BF
:1047000002F0A4FFBB689B029B0AB04200D9034899
:1047100080051843B86087E707B0F0BDFF030000CD
:104720000C120020D410002003F0FFFFFF0FC0FF89
:1047300010B500F0D3FC10BD30B5021E14D00378C4
:104740000020834210D003000A241078002807D0EC
:104750003038C5B2092D06D863430132C318F4E7D7
:104760000B80012000E0002030BD73B50C00002854
:1047700001D1002010E0037801252D2B01D1401933
:10478000023D6B469E1D3100FFF7D6FF0028F0D09A
:10479000012033886B43238076BD00280AD003783C
:1047A000002B07D01A00613A192A01D8203B037068
:1047B0000130F4E77047FFFFF0B585B002AB9E1DF6
:1047C0000023354D33802B780400012B08D1334F63
:1047D00033493800FBF74CFE21003800FCF784F920
:1047E000304F2000390003F023FF0197041E4DD005
:1047F0002B78012B08D1294D2B492800FBF738FED7
:1048000021002800FCF770F900252000FFF7C5FF04
:10481000264FF91E200003F0F2FE002824D13B7839
:10482000022B0BD0032B14D0012B19D1019903F0CB
:10483000FFFE31000400FFF77FFF06E0019903F05F
:10484000F7FE31000400FFF790FF00280CD06BB298
:104850000CE0E378E21C002B05D06BB2140005E0FD
:104860006BB2040002E0140001235B420135452DC8
:104870000AD004375A1CCCD00022B15ED8B2220034
:104880000023FCF7D9FF05E05A1CF5D1084903487D
:10489000FCF72AF905B0F0BD06060020FC02002056
:1048A00061910000778C00006F910000B2890000D8
:1048B0007791000070B5254A03001178002902D0D5
:1048C000FCF77EFD41E0224C2078032837D802F027
:1048D000DBFC02111724202118008843412801D154
:1048E000012331E0402B30D12378013323700123A1
:1048F00013702AE020229343542B24D1523B23E00F
:104900000D2B01D00A2B01D1124919E0202B16D111
:104910000022114B1A70032316E00F4A0F480D2B8B
:1049200001D00A2B06D100251378C554FFF744FFA8
:1049300025700AE011784C1C1470435405E00849B6
:104940000848FCF7D1F80023237070BD110C00203B
:10495000F80E00207B910000F90E002029060020AF
:1049600079910000FC02002010B500F0B7FB10BDEB
:10497000002070470300383039331B780078181A4C
:1049800070470200010038323931137809789942B2
:1049900004D9591C1170C318187E01E0012040424F
:1049A000704703000200383339321B7812789A427C
:1049B00002D9C318187E01E00120404270477047B9
:1049C0000300002210B55E331B8893420DD0040013
:1049D0005D342378202B02D90123037105E05A1C92
:1049E00022700122C3183B331970100010BD70B53E
:1049F00014000200030000205E321288824212D0AE
:104A00001D0021225D352878121A944202D9012412
:104A10001C7114003B331818220003F007FD20001E
:104A20002B781B192B7070BD43691A685B6812687C
:104A300013420FD0084A0369914201D81F2205E0B2
:104A4000064A914201D8122200E002225A70022244
:104A500003699A717047C0467F1A06003F420F00F3
:104A60000200F8B50023040038321370537024326A
:104A700093701370537043668366D37040696427E4
:104A8000016842680D682A430A60226915499370DB
:104A900023000C22613360691E788619337A5343F0
:104AA000CB185D68737BE0261B02F60033403B4366
:104AB0002B60230062331B78C018837C5A43C37D6C
:104AC00089181B024A681E403E43166006492000B2
:104AD000FFF7AAFF202322695371802223699A706D
:104AE000F8BDC046EC910000A0860100102270B510
:104AF00003690400DD78EDB2154203D140222A405B
:104B000004D12BE0DA706B06F8D476E004231D4064
:104B10003A4B1BD0250000225D352A701A70636E57
:104B2000934200D0984723002A783B33002A02D1D1
:104B3000012129701A70D02221698A701B7822699C
:104B40001371230001225C331A7053E001221A70A2
:104B5000230039331D702269C02330E060212069B1
:104B60008379DBB2194060290CD140398B438371C2
:104B7000A36E002B06D0210038310A702200393292
:104B8000107898471023226991780B401BD001239D
:104B90001D4013D1210020005C315D300B7800787E
:104BA000984206D9581CE31808703B331B781371E0
:104BB00000E01571D023226993701BE0C02393702D
:104BC00023691B7916E0210060310B702021937955
:104BD0000B4321009371236939311A790B78D2B2D2
:104BE0001F2B07D805480078002803D0581CE3186D
:104BF00008701A7602222369DA7070BDFA0E00205E
:104C00001223F0B5202402698C46D370036989B061
:104C100099783B4A214201D0B42112E011680291F7
:104C2000029DD978214008D0116803910399491B4E
:104C30000F29F6D900229A703AE004005F342170FF
:104C4000B02120269970136804690493049DE378C9
:104C5000334004D000230226019320270BE0116883
:104C600005910599491B0429F1D9A37020E0019B06
:104C70000133DBB2019301005D310978019B994258
:104C800031D9C1183B310978036919711168056977
:104C90000691069BEC78E4B2210031400DD13C42F4
:104CA0000BD014680794079CE41A052CF2D9A9705C
:104CB0008022036904209A7020E01023EE700469BA
:104CC000E178C9B2194201D1394203D18023A370DE
:104CD0007C3B09E001231942C9D0019B5A42534150
:104CE0000322D31A03E000236246002A02D0802266
:104CF00001698A7000225E300270180009B0F0BDB0
:104D0000040F0020F0B58FB0029300230400202789
:104D10003830037001300370019020691233C37082
:104D20002569AB783B401800B423002817D15B4EAF
:104D3000336803960493049B9C46EB783B400AD06F
:104D40006646039B1B680593059B9B1B0F2BF4D9A1
:104D50000023AB7018E020005F300370B023AB700D
:104D60004E4D26692B68069320239C46069F60467D
:104D7000F37818402B0000280AD12B680793079B73
:104D8000DB1B042BF3D9B070802223699A7082E078
:104D90000120022749000143C9B2317129680891F5
:104DA000089E2169C878384007D11D680995099D7A
:104DB000AD1B052DF6D98870E6E70223CB7021697B
:104DC0000F33C878184003D06F338B70002062E037
:104DD000002A06D1029A8023002A00D120338B704A
:104DE00059E0A823012A00D0A0238B7023692B4D02
:104DF0001B79002321692800012A25D02868AC46A8
:104E00000A900A9807000226C878304008D1664602
:104E100036680B960B9EF61B052EF4D9887034E08D
:104E20000220013AD2B2C870012A02D1A820216919
:104E3000887021691F2B05D809795E1CE318197643
:104E4000F3B2D7E70979D5E702272A680C920C9EBE
:104E5000CA783A4007D105680D950D9DAD1B052D0B
:104E6000F6D98A7011E00222CA702169AE328A70C6
:104E700022691F2B05D81279591CE3181A76CBB278
:104E800000E01279029A002A02D0802122699170F2
:104E90001800019A13700FB0F0BDC046040F002037
:104EA00010B50248FFF722FE10BDC0468002002068
:104EB0008023F0B51D4A10681840FCD172B61C4C16
:104EC0002378002B30D01B4B1F681B4B1A681B4BE1
:104ED000BA181E681A4B92191D681A4B5219196894
:104EE000194B52181B68194DD21892B25208184B20
:104EF0002A4392B21A60174B17491B68174A9C46FF
:104F0000174B1B6812680F68164963440E681649F0
:104F10009B180968DB199B195A1893B25B082B433D
:104F2000124A9BB21360207062B6F0BD24B00340F9
:104F3000FC0E002038B003403CB0034040B00340BA
:104F400044B0034048B003404CB003400080FFFF32
:104F50002CB0034058B0034064B0034060B003403D
:104F60005CB0034068B003406CB0034030B0034015
:104F70001B4B1C4A19781C4B082901D1002102E067
:104F80000A2903D12E311160132206E00C2901D128
:104F9000283100E03C21116012221A60134B1A786C
:104FA000134B002A01D0002200E001221A60114BAD
:104FB0001A78114B012A01D880220CE0042A01D86A
:104FC000842208E0082A01D8852204E0102A01D8AA
:104FD000862200E087221A600122084B1A7070476F
:104FE000EC02002008B003400CB00340FE0E00208D
:104FF00020B00340ED02002024B00340FC0E00204E
:10500000F8B503000020272B33D81A4AD45CFF2CB4
:105010002FD0194B1B78834201D0FFF749FF72B69E
:1050200010274022154B144205D01A68BA431A6063
:105030003F231C4002E01A683A431A600123104ED5
:10504000104D34602B7062B672B680223368134202
:1050500008D00D4B186800232B7062B60B4B1B78E1
:10506000184106E02B78002BDBD062B601F0CAFDB8
:10507000EAE7F8BDC4910000FC0E00200CB003402C
:1050800000B00340FD0E002010B00340FB0E0020D6
:1050900080210D4A090613680B4313600B4B1A78E5
:1050A0000B4B002A01D1D03200E090221A70094B3C
:1050B000984201DD180002E0C343DB171840064B9D
:1050C00000B218807047C0463C800440FE0E0020AD
:1050D00021F00340FF0F000000F00340F82380227E
:1050E00008491B0252021888884203D1064A023B33
:1050F000138006E002339342F5D10222024B524262
:105100001A807047FFFF0000000F0020F8B505006F
:105110000024264F0E1C3800E04003F0F3F8DE2197
:10512000890502F0EBFD311C02F054FA002802D18F
:105130000134072CEFD11D48E04003F0E3F8311CA7
:1051400002F012FCFC21890502F0ECFE02F07EFA6E
:10515000174B984200D918002B00103B012B06D8A2
:105160000023144A144913600B60144B0BE0172DF5
:105170000ED8134A0123EA40934309D1114A124938
:1051800013600B60114B186008231C4314600CE083
:10519000033D012D09D800220D4B0E491A600A600B
:1051A0000D4A1060082214431C60F8BD006CDC023C
:1051B000FFFF00000090034004900340089003406C
:1051C0004006D00000800340048003400880034074
:1051D00000A0034004A0034008A0034010B51A2813
:1051E00018D80C2358430C4A835810181C7D027A97
:1051F000224205D0002901D01A710BE01A7209E091
:1052000043681A68002902D003210A4301E0022101
:105210008A431A6010BDC046EC91000000231A2892
:105220000AD80C335843054A83581018007A1B7C5F
:105230000340581E8341DBB218007047EC91000018
:10524000F0B51A282FD80C2217004743164CE51941
:105250006B682600012901D0042911D1504334582C
:105260003018257D027A20202A432275A22252007E
:105270001A601A68042901D1024313E0824311E045
:1052800038592C7A027DA24302758022002908D069
:10529000022902D10422FF3204E00022032901D1B5
:1052A000812252001A60F0BDEC91000070B5434BB2
:1052B00004001A280ED11B780B2B03D80C22D31A0A
:1052C000994003E00C2B01D00C3B19410800FFF77B
:1052D000DFFE72E001251A782B009340002901DCE3
:1052E000002102E08B4205D829002000FFF776FF5D
:1052F00029005FE02300103B0338012B01D8304B1D
:1053000005E0C3B2012B01D82E4B00E02E4B1B68E9
:1053100001334B43D340142843D801F0B5FF353B4C
:10532000421F4242151A4242424242292F4242241F
:10533000420B1000254A1360254A264B2FE0264ACF
:105340001360234A254B2AE0254A1360204A254B47
:1053500025E0254A13601E4A244B20E0244A1360AE
:105360001B4A244B1BE0244A1360194A234B16E0C6
:10537000234A1360D122234B920010E0224A13608B
:10538000D122224B92000AE0214A1360D122214B04
:10539000920004E0204A1360D122204B92001A6050
:1053A0000BE001237F2900DC0023D9B22000FFF7A6
:1053B00015FF01212000FFF743FF70BDEE02002022
:1053C0000890034008A00340088003401080034079
:1053D0004404000004B004401880034008B00440B6
:1053E000208003400CB004402880034010B00440EB
:1053F0003080034010C004403880034014C0044093
:105400001090034000A004401890034004A0044002
:1054100010A003400490044018A0034008900440EA
:1054200072B60C4B1A680C4B18680C4B1B6862B6B2
:105430005B0104D5322393429B415B42C018084B69
:105440009A1A084B5A43FA239B005843920D10189E
:105450007047C04618E000E0040F002004ED00E0B3
:105460007FBB00005555010070B50400FFF7D8FF61
:105470000500002C0FD0FFF7D3FF074B401B9842CD
:1054800006D9013C002C06D0FA239B00ED18F2E768
:1054900001F0B8FBEFE770BDE703000080221E4B70
:1054A000D20510B51A608022002012061A601B4B2C
:1054B0001B4918601B4B1C4A1960282313601B4AA8
:1054C0001B4C13601B4A13601B4A13601B4A13607A
:1054D0001B4A1360092222601A4C20601A4C21607A
:1054E0001A4C23601A4C23601A4C22601A4C20601C
:1054F0001A4801601A490B601A490B601A4B1A606E
:10550000FFF736FD3220FFF7AFFF00F03BFDAF2085
:105510004000FFF7A9FF10BD00E100E00480034058
:10552000FFBF0000088003400C800340148003404C
:10553000008003401C800340248003402C800340F3
:105540003480034004900340089003400C900340D3
:10555000149003400090034004A0034008A00340BF
:105560000CA0034014A0034000A003408021204A67
:10557000490113680B43136000231E4A13701E4A2F
:1055800013701E4A13701E4A13701E4A13701E4B6E
:105590001B78062B04D0072B05D11C4A1C4B01E0BD
:1055A0001A4A1C4B1A601C4B1B78082B05D0142B75
:1055B00007D1D122194B920002E0D122184B920060
:1055C0001A60184BC204D20E1A700022C0B2587072
:1055D0009A702C32DA70144A144B11680B408021F7
:1055E000C9030B4313608022114BD2011A6070472C
:1055F00034800440780F00200D0F0020800F002021
:10560000790F00200C0F0020EF0200201303000090
:1056100008C0044010C00440F002002014C0044040
:105620000CC0044000C006400CE400E0FFFF00FF97
:1056300000E100E0F8B51F4B06001B68DB0437D51E
:105640001D4B1B68002B02D01C4A12781A711C4D8E
:105650002C780134272C0AD9002408E001F066FBDD
:10566000402815DC17490B795BB2002B04DB164F81
:105670003B78A342F2D010E03B780133272B00D9CE
:105680000023124AD25CDBB2D2B2CA713B70EEE7A1
:10569000FF28ECDD01F0B6FAE9E701220B4BF6B288
:1056A0001E550B4BE4B21A70064BAB322C70DA70FD
:1056B000F8BDC046348004407C0F0020770F0020E6
:1056C000800F002000C00640790F00200E0F002040
:1056D0000C0F0020054B1878054BC0B21A78D3B2D6
:1056E000984200D24030C01A7047C046780F002060
:1056F0000D0F002030B52C4A13799B0623D52B4B78
:10570000D479187819000130E4B200233F2800DC76
:10571000030027480078834203D02648C454D8B2F7
:1057200008702549086800280DD024490978C9B2B5
:105730008B4201D35B1A01E05B1A4033272B02DD59
:105740001F4B1B780371D1781748C9B24BB2002B9D
:1057500017DA03795BB2002B13DA1A4B174C1D785A
:105760002378DBB29D4202D16C23C37009E0013380
:10577000272B00D900231448C05CDBB2C0B2D07123
:105780002370402319420ED0117919420BD0002109
:105790000E4B19700E4B1B688B4202D00D490978D5
:1057A00019722C23D37030BD00C00640780F002042
:1057B0000D0F0020370F0020080F0020790F002068
:1057C000360F0020800F00200E0F00200C0F00204D
:1057D0007C0F0020770F00200223F0B50A4A0B4E01
:1057E0001478C8272343DB00F5186860084805785B
:1057F000002D00D1403F09040F43F75001235D40C5
:105800005C4005701470F0BD0810002000F8FF1F08
:1058100098100020431E10B50020062B0ED872B63B
:10582000074A99008858002807D044685B008C50CC
:10583000044904885A5A121B5A5262B610BDC04617
:10584000EC0F0020FC110020431E0020062B09D87D
:1058500072B6054A9B009B58002B02D001305B6852
:10586000FAE762B67047C0464C100020F8B572B631
:105870000123174A082594461E00164964465A1EFD
:10588000A25C2A421AD05F017C589A00002C05D1F4
:10589000CB1908305860104BCB5109E03243D2008D
:1058A0005458002C0AD18B18083058600B4B8B5081
:1058B0000B4A1378013B137062B608E00133082BE2
:1058C000DCD162B60022064B1A7000F0EFFDF8BD85
:1058D000BC93000000F8FF1F88004000C800400093
:1058E0008E100020421E10B5062A30D802238000F8
:1058F0001843174BC0001B1872B6164CA05C032847
:105900000BD801F0C1FC16040207052012E0083391
:1059100002200FE0083304200CE00F4892001458D6
:105920000E4B002C01D1115001E098584160995064
:105930000CE00320A0540A0008325A60C82218075D
:1059400000D4403A098809040A431A6062B610BDBF
:1059500000F8FF1FA40F00204C100020681000204A
:10596000F7B5BB4B1C781D000423E4B21C421DD0CC
:10597000B84B1B78002B16D0B74A1378DBB2002B3C
:1059800005D0013BDBB21370002B00D100BEB34A3F
:105990001378DBB2002B06D0013BDBB21370002B77
:1059A00001D100F043FF0422A94B1A7008222240C3
:1059B00000D177E2AA4BAB4F1B78DBB29C08E40026
:1059C0001D093C19002D00D0FDE12368656898068B
:1059D000000F01380C2800D9F1E101F05FFCA401AF
:1059E000A401F001F001F001F001F001F001CD019E
:1059F000F001F001F0010D006B689B4E9B49736054
:105A000000230B6001219A482A682060994C32607B
:105A10002170994C92B23B61BB610190A2421BD8AC
:105A2000D020C000824200D3F0E0812040008242BA
:105A300000D1CDE006D8802A00D1B2E0822A00D180
:105A4000B4E000E18D4B9A4200D1D0E0FF33FF3348
:105A50009A4200D13EE1F6E08948824200D139E124
:105A600011D890231B019A421AD0864B9A4200D13A
:105A700056E1A13B9A4200D0E5E0764B824C1B7880
:105A800023700B0028E181498A4200D1D3E0804B8A
:105A90009A4200D11EE17F4B9A4200D0D3E03FE111
:105AA0003C00B2786B4B7D1C1A702034FF3580228D
:105AB0002368134203D06068083800F0F7FC08340C
:105AC000AC42F4D100242500734BE058002805D0E7
:105AD0004368009300F0EAFC0098F7E76E4B18511A
