:1000000000180020C1000000697100002D7100007F
:100010002D7100002D7100002D7100002D71000068
:100020002D7100002D7100002D710000697100001C
:10003000697100002D710000DD740000AD750000D5
:100040006971000069710000697100006971000048
:100050006971000069710000697100006971000038
:10006000E9510000697100006971000069710000C8
:100070007D720000557300003D5A00006971000058
:100080006971000069710000697100006971000008
:100090006971000069710000D56C00006971000091
:1000A000A95C0000697100006971000069710000BD
:1000B00069710000697100006971000069710000D8
:1000C000F8B507F055F80821474A484B1A60484AE6
:1000D000484B1A60484A494B1A60494B1A780A4201
:1000E00002D01A780A431A702A22464B46481A70E0
:1000F00000234649464C1A188A4203D2E558043375
:100100001560F8E70021434B434A934201D202C3F2
:10011000FBE70023414A424958589446985004331B
:10012000C02BF9D100210326FF2580248A083D4BEE
:100130009200D2180B002F003340DB009F40106864
:100140000131B84307002000984003003B4313608F
:100150002029EBD16246344B1A608A22334B1A7045
:10016000334B663A5A707C321A709E3A9979114232
:10017000FCD0102299791142FCD10C209A792C499B
:100180000240082AFAD1053A0A713D324A71203AF2
:1001900099791142FCD0402299791142FCD025492D
:1001A000254A11602021224A117014399A790A4097
:1001B0000C2AFBD1214A224B1A60224A224B1A6098
:1001C0000022224B1A60224B07321A60214A224B2E
:1001D0001A6062B605F006FB08F08EFA06F0CEFF54
:1001E00006F028FFFEE7C046300004F034800440EB
:1001F000823F0000388004400100000F3C80044032
:1002000002D0074000E0074030020020D005002067
:1002100080990000D00500206012002000F9FF1F27
:100220000000000000E400E008ED00E0005006409F
:10023000004006400000011044800440C000050555
:10024000048004407FBB000014E000E018E000E000
:1002500010E000E00000202020ED00E0FFFFFFFFA5
:10026000FFFFFFFFFFFFFFFFFFFFFFFFFFFFFFFF9E
:10027000FFFFFFFFFFFFFFFFFFFFFFFFFFFFFFFF8E
:10028000FFFFFFFFFFFFFFFFFFFFFFFFFFFFFFFF7E
:10029000FFFFFFFFFFFFFFFFFFFFFFFFFFFFFFFF6E
:1002A000FFFFFFFFFFFFFFFFFFFFFFFFFFFFFFFF5E
:1002B000FFFFFFFFFFFFFFFFFFFFFFFFFFFFFFFF4E
:1002C000FFFFFFFFFFFFFFFFFFFFFFFFFFFFFFFF3E
:1002D000FFFFFFFFFFFFFFFFFFFFFFFFFFFFFFFF2E
:1002E000FFFFFFFFFFFFFFFFFFFFFFFFFFFFFFFF1E
:1002F000FFFFFFFFFFFFFFFFFFFFFFFFFFFFFFFF0E
:10030000FFFFFFFFFFFFFFFFFFFFFFFFFFFFFFFFFD
:10031000FFFFFFFFFFFFFFFFFFFFFFFFFFFFFFFFED
:10032000FFFFFFFFFFFFFFFFFFFFFFFFFFFFFFFFDD
:10033000FFFFFFFFFFFFFFFFFFFFFFFFFFFFFFFFCD
:10034000FFFFFFFFFFFFFFFFFFFFFFFFFFFFFFFFBD
:10035000FFFFFFFFFFFFFFFFFFFFFFFFFFFFFFFFAD
:10036000FFFFFFFFFFFFFFFFFFFFFFFFFFFFFFFF9D
:10037000FFFFFFFFFFFFFFFFFFFFFFFFFFFFFFFF8D
:10038000FFFFFFFFFFFFFFFFFFFFFFFFFFFFFFFF7D
:10039000FFFFFFFFFFFFFFFFFFFFFFFFFFFFFFFF6D
:1003A000FFFFFFFFFFFFFFFFFFFFFFFFFFFFFFFF5D
:1003B000FFFFFFFFFFFFFFFFFFFFFFFFFFFFFFFF4D
:1003C000FFFFFFFFFFFFFFFFFFFFFFFFFFFFFFFF3D
:1003D000FFFFFFFFFFFFFFFFFFFFFFFFFFFFFFFF2D
:1003E000FFFFFFFFFFFFFFFFFFFFFFFFFFFFFFFF1D
:1003F000FFFFFFFFFFFFFFFFFFFFFFFFFFFFFFFF0D
:10040000FFFFFFFFFFFFFFFFFFFFFFFFDEF9FFFF23
:1004100010B5064C2378002B07D1054B002B02D0DA
:10042000044800E000BF0123237010BDD005002068
:100430000000000080990000084B10B5002B03D08D
:100440000749084800E000BF07480368002B00D1B7
:1004500010BD064B002BFBD09847F9E700000000C9
:10046000D405002080990000D00500200000000085
:1004700070B5040008000D0008F073FA236802004C
:1004800029005B682000984770BD10B5FFF7F0FFAA
:1004900010BD70B5050006F077FC0400280006F0DA
:1004A00033FC001970BDFFFF70B5274B1B78002B84
:1004B00048D0264E33785A1C32700A2B42D9244C2D
:1004C00024492000FFF7E1FF234B2000196806F0C4
:1004D0005BFC224D20002900FFF7D7FF204B2000B6
:1004E000196806F051FC29002000FFF7CEFF1D4BD4
:1004F0002000196806F048FC29002000FFF7C5FF1E
:10050000194B2000196806F03FFC29002000FFF776
:10051000BCFF164B2000196806F036FC29002000AD
:10052000FFF7B3FF124B2000196806F02DFC2900DD
:100530002000FFF7AAFF0F4B20001968FFF7A9FF63
:100540000023337070BDC046F4050020EE05002086
:1005500014030020368A0000F00500203E8A0000C7
:100560000C060020100600200406002020060020B3
:10057000300600203406002010B502F0F3FF012001
:1005800002F06EFC042002F06BFC022002F068FC1A
:100590000023024A1370024A137010BDFE0E0020A1
:1005A000FF0E002070B500F075FC354C2378012B50
:1005B00007D1344D34492800FFF75AFF280006F0D0
:1005C000A3FB324804F0F0FB314B0021187804F013
:1005D000DBFF304E3049307804F03CFF2F4D0121D5
:1005E000287804F0D1FF2878002104F09BFF3078B0
:1005F000012104F0C9FF2878002104F093FF0025B1
:10060000274B0221E85C013504F0BEFF032DF7D132
:100610000025244B0121E85C013504F0B5FF032DD2
:10062000F7D1FFF7A9FF00F0C5FD00231A001E4E09
:100630001E4899194A801918043300250A604C2B6A
:10064000F7D11B4B1D8000F0C9FD00F0C1FC02F08A
:100650002FFB2800012102F0B7F90A22154B25785B
:100660001A70154B0F321A70012D08D1054C134921
:100670002000FFF70AFF29002000FFF70AFF70BDE6
:100680001606002014030020408A00008C0200207F
:100690006902002068020020007014473B0200201D
:1006A0006A020020380200208C0B0020A40A0020DF
:1006B000F00A0020380600202C0600207F8A000067
:1006C000024B1870024B19707047C0463806002064
:1006D0002C06002070B5284B1A78284B1878002A71
:1006E00045D0002104F01EFF254A1178002918D1B9
:1006F000244D254C2B782078DB0700D5012104F010
:1007000011FF2B786078013300219B0700D4012171
:1007100004F008FF2B78A078013300215B0727D471
:1007200025E01A4B1C78002C1ED1012618480139EF
:100730000078154DC9B2187011702878314209D06F
:10074000210004F0EFFE6878210004F0EBFEA878A9
:1007500021000DE0310004F0E5FE6878310004F07E
:10076000E1FEA878310003E0013C1C7002E00121A9
:1007700004F0D8FE70BDC046800200203B0200207D
:10078000380600201C06002038020020C90700207F
:100790002C060020F8B5164B1E88002E26D0154DCD
:1007A0002B88002B02D0012B0BD01FE0124B09200D
:1007B0001A88124B198806F095FB2B8801332B8081
:1007C00014E00F4F0C4B3C8818880E4B01341B88EB
:1007D000A4B23C80C018052106F094FF844205DDD8
:1007E000034B013E1E8000232B803B80F8BDC0469A
:1007F00024060020CA0700201A0600202E0600202A
:1008000014060020EC050020F7B50E2004F09CFD36
:100810007D4D2860152004F097FD7C4C3221E37D4E
:10082000584306F0E5FE7A4B80B201950094794D6D
:10083000984201D8286001E0754B2B602B68002B93
:1008400001DA00232B60142004F07EFD009B32218E
:100850009B7D584306F0CCFE6D4B80B26E4C9842A7
:1008600001D8206001E06A4B23602368002B01DA85
:1008700000232360172004F067FD009B32215B7E7C
:10088000584306F0B5FE624B80B2644E984201D8E0
:10089000306001E05E4B33603368002B01DA0023E7
:1008A0003360162004F050FD009B32211B7E58431C
:1008B00006F09EFE564B80B2594F984201D83860E0
:1008C00001E0534B3B603B68002B01DA00233B60A7
:1008D000009BDB8BB42B11D087225200934218D09F
:1008E0005A2B21D12A684F4B1A6033682B6023683A
:1008F00033604B4B19681A60216015E022682B6841
:100900002A60474A4749236013680B6031681160C9
:1009100009E02B68434A1360414A11682960216845
:10092000116032682260336006F02CF8002806DD82
:1009300005F0E0FF3C4B186004F060F9F4E73B4B36
:100940001B78002B59D03A4A1388002B12D13A68F1
:1009500033689B1A374A0021525E9B1A364A13604D
:1009600022682B689B1A354A0021525E9B1A344A32
:10097000136015E0013B9BB21380002B10D1284A75
:100980003368126821689A1A009B12B25A832B6846
:100990005B1A00991BB28B8326490A80274A138071
:1009A000FFF782FD009B244804229A5E03685142AF
:1009B000994201DDD31804E09A4201DA9B1A00E063
:1009C00000230360009B1E4906229A5E0B68544276
:1009D0009C4201DDD31804E09A4201DA9B1A00E040
:1009E00000230B60019B09681A68006803F0AAFCE9
:1009F000144B186804F0DCFE01E000F0F3FDFFF793
:100A000069FEFFF7C7FEF7BDF00500203C0200209D
:100A1000FF0300000C060020100600200406002042
:100A20002006002028060020080600208002002062
:100A30007C02002018060020300600201E06002040
:100A40003406002034020020013810B50A283FD8AF
:100A500006F0BAFD0B0F24260608313429382C0085
:100A6000C82200E06422C82123E0C822C821520025
:100A70002BE0184A1388002B2AD1FA2089B2C833F8
:100A80004B43C0001B181448013103809620134BC0
:100A900011801880124B6438188019E0C82200E0D9
:100AA0006422962105E01E220E490EE0FA22AF21B3
:100AB0005200490009E005220B4906E0FA2105220F
:100AC000090102E0FA22E6211201092006F00AFAE1
:100AD00010BDC046240600202E0600201A06002065
:100AE000EC050020C40900008813000010B504F0D4
:100AF00099FC10BD70B50500FFF7BAFC0400280092
:100B000006F002F9001970BDD2B270B50500002AD6
:100B100003D103681B68984714E00A2A01D0012A10
:100B200004D10022280006F001F90BE0102A02D1BE
:100B300006F033F906E0022A02D106F044F901E09A
:100B400006F054F90400280006F0DEF8001970BD24
:100B5000F0B53B4B85B01B7800900E000192394DEB
:100B6000012B27D1384C39492000FFF7C3FF384902
:100B70002000FFF77DFC102229782000FFF7C4FF3A
:100B800034492000FFF774FC0099200006F0FCF8BF
:100B9000314F20003900FFF76BFC3100200006F0D8
:100BA000F3F839002000FFF763FC0A2201992000C6
:100BB000FFF7AAFF294A009B1168294C8C46634421
:100BC0001360236827489B1923602978036816005F
:100BD0000090254A994207D11168244B02911B6865
:100BE000029928338B4228D8FF271368FD200393EE
:100BF000039A1E4B1A6004F0C1FE002004F0BEFEF2
:100C0000032004F0BBFE287804F0B8FE30683840BA
:100C100004F0B4FE2068384004F0B0FE002004F078
:100C2000ADFE002004F0AAFE002004F0A7FE002381
:100C3000009A336023602B78136005B0F0BDC04686
:100C400016060020DC07002014030020898A00001B
:100C50009B8A0000A78A0000B48A0000D007002009
:100C6000D4070020E4070020300F0020D807002020
:100C700010B5054A137818431070002211001000B7
:100C8000FFF766FF10BDC046DC07002010B5054A1F
:100C9000137883431370002211001000FFF758FFF0
:100CA00010BDC046DC070020034B1B781840431ED4
:100CB0009841C0B27047C046DC07002070B5294B90
:100CC000294E1B78294C012B2FD1294D2949280069
:100CD000FFF710FF28492800FFF7CAFB10223178E0
:100CE0002800FFF711FF25492800FFF703FF2178AF
:100CF00010222800FFF708FF617810222800FFF774
:100D000003FFA17810222800FFF7FEFEE1781022F1
:100D10002800FFF7F9FE217910222800FFF7F4FEE2
:100D2000617910222800FFF7EFFEFD2004F026FE77
:100D3000307804F023FE002004F020FE207804F038
:100D40001DFE607804F01AFEA07804F017FEE0782B
:100D500004F014FE207904F011FE607904F00EFE18
:100D600070BDC04616060020DD070020DE0700200B
:100D700014030020B68A0000CB8A0000D88A000045
:100D8000C2B270B50012E02804D10A490B781A43A8
:100D90000A700CE0F0280AD100230748195C1C00F7
:100DA0000500002902D001338A42F7D12A55FFF706
:100DB00085FF70BDDD070020DE07002010B5C1B241
:100DC00002120023E02A04D10C4A137883431370E3
:100DD00010E00B4A5C1CD3181878884201D023001D
:100DE000F7E7991A052903D0597819700133F8E704
:100DF00000235371FFF762FF10BDC046DD070020DE
:100E0000DE070020002310B5054A1370537093705D
:100E1000D37013715371034A1370FFF74FFF10BD66
:100E2000DE070020DD070020F7B5002680270190AF
:100E3000019B9B5D002B25D05AB2002A08DB124A89
:100E4000D45C40231C4204D04023104D9C4305E059
:100E5000002400253C4204D00D4DBC432800FFF780
:100E60008FFFF0231B021C432000FFF789FF2000A7
:100E7000FFF7A4FF002D02D02800FFF79FFF0136E7
:100E8000B6B2D5E7F7BDC0467095000002E000009D
:100E900040E0000010B5074B1B78012B03D1064939
:100EA0000648FFF727FE9C2004F004FD0122044BB6
:100EB0001A7010BD16060020E98A000014030020F5
:100EC000CC070020024B1878431E9841C0B27047EF
:100ED000CC07002010B501210C2004F055FB0121A6
:100EE0000C2004F01FFBFA20000104F061FC0C2030
:100EF000002104F049FB10BD07B504F093FA034B41
:100F00001B680193019A024B1A6007BD300F002045
:100F1000D8070020F8B5144E8700BD59281E21D0EF
:100F200007F01FFDAF23114A9B000130521B84B212
:100F3000D218121B92B22919280007F020FC0023B6
:100F4000BB51F258954201D2121BF25004334C2B84
:100F5000F7D1074B1888001B80B21880AF239B0085
:100F6000181A80B2F8BDC046A40A0020E807002085
:100F7000F00A0020F8B50F000500FFF7CBFF104B7B
:100F800038001C8807F0EDFC0E4A2318002093421D
:100F900014D80D4E39003619300007F0DAFC0B4B2F
:100FA000AD003800EE5007F0DCFC0134044B201893
:100FB00080B21880AF239B00181A80B2F8BDC046DB
:100FC000F00A0020BA020000E8070020A40A00206E
:100FD00070B519231B251226154C16492380A580B0
:100FE0002581A6810320FFF7C5FF26821249042030
:100FF000FFF7C0FFA68211490520FFF7BBFF26833C
:101000000F490620FFF7B6FF4523A383423BA38485
:101010001F332385A31CDD872584A5852586A5860A
:101020002587A587A31D4834DD87258070BDC04670
:101030008C0B0020F88A0000008B00000A8B000057
:10104000148B000010B5064B8200064C9918022044
:10105000095E985C0123125900F03CFC10BDC046AB
:101060008C0B0020A40A0020244A8000835A10B56B
:10107000392B26D00ED8082B21D004D8062B18D017
:10108000072B18D039E00F2B2FD0102B35D1002291
:101090001B4B2CE0462B0ED004D83D2B29D0452BE2
:1010A00007D02AE0472B0AD04C2B26D102F030FA89
:1010B00023E0012000E0022001F0D2FE1DE0042028
:1010C000FAE710184388013BDBB21F2B15D8012229
:1010D0009A4013000B490A689A430B4B0A601B782D
:1010E000002B0AD105F04AF907E00022074B1A70DD
:1010F00003E0074BC05803F016F910BD8C0B00201D
:10110000FF0E00203812002000110020FE0E0020EB
:10111000A40A00200C4B8000C35A01209A1F022A07
:1011200010D9333A92B2132A05D80849D1400A009F
:101130000100914306D0002001220F3B9BB29A424E
:101140004041C0B27047C0468C0B002011700800AF
:1011500073B5164A0500C000141866788E4220D177
:10116000835C062B12D80133DBB28354072B0DD1DD
:10117000A378B3420AD0A6702800012E08D1FFF749
:1011800061FF0B4B1B680193019B636000240BE024
:10119000FFF7C0FF0124002806D02800FFF764FFF6
:1011A00002E0617000248454200076BDF40A00201F
:1011B000300F00200021064A531C9932581E197026
:1011C00059700170997008339342F7D17047C04647
:1011D000F40A002010B504F025F910BD024B034AB3
:1011E0001A80034A5A807047DC0B002040540000EC
:1011F00001A4FFFF10B5074C0721200005F0ECFB10
:1012000020000421083005F0E7FBA188024805F022
:10121000E3FB10BDDC0B0020248B000070B504251F
:10122000074C07212000A58005F0D6FB20002900EF
:10123000083005F0D1FBA188024805F0CDFB70BD58
:10124000DC0B0020208B0000002310B5054C07218B
:101250002000A38005F0C0FB20000421083005F029
:10126000BBFB10BDDC0B002010B5084C0721200093
:1012700005F0B2FB20000421083005F0ADFB200092
:10128000A1880C3005F0A8FB10BDC046DC0B002087
:101290000D4B0E4A1B6812680D499B1A0D4A9BB2F2
:1012A00013731B1253730C4B09681B685B1A9BB2B8
:1012B00093731B12D373094B1B6813741B12537463
:1012C000062393807047C0460406002020060020B5
:1012D00010060020DC0B00200C060020F00500208A
:1012E00070B50E4D287804F03DF9444244416878C9
:1012F000E4B204F037F9002801D102231C43A87896
:1013000004F030F9002801D104231C43044B0020D1
:101310001A78A24201D01C70013070BD6A02002010
:10132000200C002010B5FFF7DBFF034A034B1278B7
:101330001A7301229A8010BD200C0020DC0B0020C3
:1013400070B5394C394B258962891D81A179060216
:101350009971D1B28E195E810100102319405FD1BD
:10136000D2B22379112A1AD004D8002A07D0102A21
:1013700028D055E0812A07D0822A08D050E0002BDF
:101380004ED1FFF737FF4DE0002B49D104E0002B91
:1013900046D1274A01331370264A137040E0022DCC
:1013A00008D0032D09D0002D3AD1002B38D1FFF7FA
:1013B00035FF37E0FFF76CFF01E0FFF7B3FFFFF702
:1013C00053FF2FE0042D0FD0052D26D0012D27D15E
:1013D000022B25D1237B184A1380637B11881B02C3
:1013E000CB189BB213801BE0012B19D1257B134C2A
:1013F00020781D4200D1190004F094F86078002193
:10140000AB0700D4012104F08DF8A07800216B0710
:1014100000D4012104F086F802E0094803F06CFBD7
:10142000FFF712FF012070BD000C0020DC0B002034
:101430007E02002080020020FC0B002038020020E9
:101440003906002070B55D4C030020780F2800D9C4
:10145000A8E006F0B9F808191E253438425A5E652E
:10146000697A9A9C9EA0402B01D13F3B9BE02022B1
:101470009343412B00D0A0E00021514A403B117022
:10148000504A237013708FE0542B00D08AE0523BF7
:1014900089E000214C4A11704C4A5380032382E0BA
:1014A0004A4A1B025188CB189BB25380002B04D1AF
:1014B0001021454A13780B431370042373E0434A09
:1014C000938005236FE0414A1B029188CB189BB2A1
:1014D00093800F2B66D8062365E03C4ADDB29571F8
:1014E0003B4A3C481178002901D0002309E07F21C4
:1014F000027801320A40934204D0334A7D3913788E
:101500000B431370057007234DE0304A1381082305
:1015100049E02E4A1B021189CB181381092342E0AE
:101520002A4A53810A233EE02B4ADBB21370274A32
:101530009288002A05D00B2300222370274B1A60C3
:1015400032E0DB072CD50C232DE0204A234D1189F6
:1015500005290AD18C202968FF30814205D820480E
:101560004354002341184B7002E0296851180B7353
:101570002B6801332B609288934215D1164B1B7850
:10158000DB070DD5237801330DE00D230BE00E238F
:1015900009E00F2307E004210B4A13780B43137073
:1015A000632300E0002323702378632B05D1064BCF
:1015B0001878FFF7C5FE0023237070BD240F0020AC
:1015C000210C002080020020220C0020000C0020B2
:1015D0007E020020D80B0020FE0B0020240C0020EF
:1015E0003906002070B5184D2B88002B27D0174CDA
:1015F00023780133DBB2002B00D180232370022338
:10160000134E33812378B37120237381FFF740FE9B
:10161000FFF72AFEFFF764FE002810D0237801337D
:10162000DBB2002B00D18023237003233381237886
:10163000B37120237381FFF775FEFFF715FE28882D
:1016400080B204F0B5F870BDFC0B00207F020020D2
:10165000DC0B002010B503F0E5FE10BD70B50022D4
:10166000050005F063FB0400280005F04DFB0019A0
:1016700070BDFFFFF0B5774C85B077492000FEF7CD
:1016800004FF76492000FFF735FA75492000FEF780
:10169000FCFE744D20006978FFF7E0FF72492000DE
:1016A000FEF7F3FEA9782000FFF7D8FF6F4920006E
:1016B000FEF7EBFE0423E95E2000FEF7EAFE6C492C
:1016C0002000FEF7E2FE0623E95E2000FEF7E1FEC1
:1016D00068492000FEF7D9FE29892000FEF7D9FECF
:1016E00065492000FEF7D1FE69892000FEF7D1FE92
:1016F00062492000FEF7C9FEA9892000FEF7C9FE55
:101700005F492000FEF7C1FEE9892000FEF7C1FE17
:101710005C492000FEF7B9FE297C2000FFF79EFF00
:1017200059492000FEF7B1FE698A2000FEF7B1FE9C
:1017300056492000FEF7A9FEA98A2000FEF7A9FE5F
:1017400053492000FEF7A1FE29782000FFF786FF0D
:1017500050492000FEF799FEA97D2000FFF77EFF8B
:101760004D492000FEF791FEE97D2000FFF776FF4E
:101770004A492000FEF789FE297E2000FFF76EFF10
:1017800047492000FEF781FE697E2000FFF766FFD3
:1017900044492000FEF779FEE98B2000FEF779FE30
:1017A000013541492000FEF770FEE97F2000FFF778
:1017B00055FF3E492000FEF768FE3D492000FFF737
:1017C00099F900253B492000FEF75FFE082D03DC58
:1017D00039492000FEF759FE013529002000FEF7A7
:1017E00058FE36492000FEF750FE354EAB009E19DC
:1017F0000193331F1F88334BBF00DF19390003A843
:1018000007F0A7F803A92000FEF73FFEFB78002BA6
:1018100018D0022B0DD9032B14D12B492000FEF731
:1018200034FEAB00294A043BD1582000FEF72DFEC0
:1018300008E025492000023EFEF727FE31882000FF
:1018400005F0A2FA22492000FFF754F9132DB9D16F
:1018500005B0F0BD140300202A8B00006D020020AB
:10186000308B00003C020020378B00003E8B0000D4
:10187000458B00004C8B0000538B00005A8B0000FE
:10188000618B0000688B00006F8B0000768B00007E
:101890007D8B0000848B00008B8B0000928B0000FE
:1018A000998B0000A08B0000A78B0000AE8B00007E
:1018B0005D020020B58B00000F920000BC8B000081
:1018C0008C0B0020298D000019900000A40A002034
:1018D0001A900000F0B51500B54A0C001178E7B079
:1018E0000190170000293DD0B24B1B78012B22D16B
:1018F000B14EB2493000FEF7C8FD00223978300001
:1019000005F014FAAE493000FEF7BFFD0022019940
:10191000300005F00BFAAB493000FEF7B6FD2100B0
:10192000300005F031FAA7493000FEF7AEFD29007E
:101930003000FFF7DFF869463878A34A0138898814
:1019400083009952D3185C80C0B2FFF7E3FA002DF0
:1019500005D0387829000138C0B2FFF70BFB00230F
:101960003B7044E3019A4E2A00D940E3100005F091
:1019700035FE4F00510081006B008900750090001A
:101980009200960087007100A000A200A700AD00A1
:10199000B000B7006E0176018E0196019901A30196
:1019A000BF01D601DB01ED013E0332033903FA0129
:1019B0000C022102230226023A023D0240024302A7
:1019C0008302860289028C028F029202950298029B
:1019D000A202B202EC02E9022A03C100D400DE0036
:1019E000F000FA00060111014701F3027E014602F0
:1019F00049024C027F029B0227039E029000920044
:101A0000960098009A009E008601CF02DE02C20274
:101A10006E4915E0FEF7B0FD664B1B78012B08D12F
:101A2000654D6B492800FEF730FD21002800FEF7C8
:101A300030FD631E9BB2122B01D83C70D7E2654982
:101A40005D48FFF757F8D2E2022001F021FA0820A2
:101A500003F0AEFE022001F003FAC8E2012001F01B
:101A600017FA082003F0A4FE012001F0F9F908207C
:101A700003F09EFE012001F00BFA082003F098FE0F
:101A80000120E8E7042001F003FA082003F090FEAB
:101A90000FE0012000E0022001F0FAF9A7E20420A3
:101AA000FAE7012000E0022001F00AFA9FE2042098
:101AB000FAE70420CFE7484B187C404240B202E0EE
:101AC0001020454B185601F027FA90E2424B1C7447
:101AD0008DE2002B01D0414B05E01900200006E00B
:101AE000002B02D03E4B1C7081E22100180001F057
:101AF00031FA7CE23B4B3C485A6810403B4A9442E6
:101B000000D91400240104435C60394B1B78002B7E
:101B100000D06CE204F032FC69E2324B35485A687E
:101B20001040324A944200D91400A403EBE72F4B33
:101B30009C4200D91C002B4A2106536890681B0266
:101B40001B0A0B4353600323240A98430443946005
:101B5000DBE7244B28489A681040244A944200D975
:101B60001400A40008E01F4B24489A6810401F4A44
:101B7000944200D91400240304439C60C5E7013C4F
:101B8000E4B21F2C00D932E20123A340154A1168A8
:101B90000B430AE0013CE4B21F2C00D927E20123E9
:101BA000A340104A116899430B001360ADE7C0468B
:101BB000280C00201606002014030020C08B000013
:101BC0005C9000003E8A00008C0B0020D98B000046
:101BD000E88B00001E9500003C020020FE0E002055
:101BE000FF0E0020381200200FC0FFFFFF0300008F
:101BF00000110020FF3F00FF03F0FFFFFF0FC0FFB9
:101C00000F23002C1CDB0023162C19DD0133432C81
:101C100016DD0133702C13DD01339D2C10DD0133F3
:101C2000CA2C0DDD0133F42C0ADD9222013352005F
:101C3000944205DD5222FF320023944200DC073338
:101C40000F22C7494868904303434B605DE72B78F8
:101C5000002B00D1CBE1280001F01CFAC7E12B7862
:101C6000002B00D1C3E1280002F04EFBBFE12B782E
:101C7000002B00D1BBE1280002F050FBB7E12B782C
:101C8000002B00D1B3E1280002F052FBAFE12B782A
:101C9000002B00D1ABE1280002F045FBA7E1FEF7E5
:101CA0006BFCA4E1FEF768FC2B78002B00D19EE1D1
:101CB000280000F04DFC9AE12B78002B00D196E132
:101CC000FEF75AFC280000F085FE0022A54BA6492D
:101CD0001A70A64BDA8A8A4203D1198B914200D13D
:101CE00085E1598BA24A11809A8BA24B1A807EE122
:101CF000FEF742FC02239B4D00242B7000F0D8FF1E
:101D00000022200001341100E4B200F03DFD072C58
:101D1000F6D100200121287000F056FE67E1FEF7A1
:101D20002BFC01F03DF862E1934B8E4C1D78012DA8
:101D300004D192499248FEF7A8FB2570FEF71CFCDF
:101D4000002000F047FE0023237050E18A4B1B78EF
:101D5000012B03D18B498A48FEF7CCFEFEF70CFC21
:101D600000F06EFA43E1814BE4B21C70824B1B78A9
:101D7000012B00D03BE182488349012C00D160E671
:101D8000824900D95DE682495BE67B4B1B78012BDB
:101D900003D180497A48FEF7ADFE0F210620FEF7F9
:101DA0008FFC724B1A78002A01D1013200E0002228
:101DB0001A701CE1012200E00022774BF8E76E4B1D
:101DC0001B78012B03D175496D48FEF793FE142152
:101DD0000A20FEF775FC6422714B002101201A8055
:101DE000FEF732FE03E1614B5C7000E15F4B9C70DB
:101DF000FDE05E4B9C80FAE05C4BDC80F7E05B4BE7
:101E00001C81F4E0594B5C81F1E05B4B1B78012BAA
:101E100008D15B4C63492000FEF737FB2900200006
:101E2000FEF768FE2B78002B00D1E0E000231A00BB
:101E30002978002911D03B2902D1002A04D10CE0D5
:101E40005C2901D1002A05D05A1C02A8C154D3B282
:101E5000002200E001220135EAE7002202A9080081
:101E6000CA5402F049FE2B785A1E9341ED18D9E767
:101E7000200003F09DFCBAE03C4B9C81B7E03B4B5B
:101E8000DC81B4E0394B5C82B1E0384B9C82AEE03F
:101E9000364B9C75ABE0354BDC75A8E0334B1C76BC
:101EA000A5E0324B5C76A2E0304BDC839FE02F4B09
:101EB0000133DC779BE0304B1B78012B03D13A498F
:101EC0002F48FEF717FE2B78002B00D18FE028005B
:101ED00001F058F98BE0284B1B78012B03D13349D3
:101EE0002748FEF707FE2B78002B00D17FE0280063
:101EF00001F0F0FA7BE0204B1B78012B03D12C4939
:101F00001F48FEF7F7FD29002A4806F022FD6EE083
:101F1000194B1B78012B03D127491948FEF7EAFD1D
:101F20002B78002B63D0280001F0E2FA5FE0124B1F
:101F30001B78012B03D121491148FEF7DBFD01F08D
:101F4000E7FA54E001F0CCF951E02B78002B4ED0A9
:101F5000280001F0C9F94AE0A0B201F0E5FA46E034
:101F600038120020EF050020323200003C02002031
:101F7000180600201E06002016060020FD8B00001B
:101F8000140300200C8C0000198C0000328C00001F
:101F90004E8C00006E8C0000F4050020928C000036
:101FA0007C020020A48C0000B38C0000C58C0000D3
:101FB000D58C00005D020020F28C0000028D000034
:101FC00001F0ACFA13E001220A4B0B491A700B4BDB
:101FD00092181A7034E50123064A09491370074A1A
:101FE00013702DE50023034A1370044A137067B081
:101FF000F0BDC04616060020128D0000290C0020FE
:10200000218D000010B503F00DFA10BD10B50022AF
:1020100004F08CFE10BD10B5002204F087FE10BD48
:1020200010B503F0FFF910BDF8B51C4CA022230039
:102030003B331A70230001275E331F702300050015
:102040000E00010A5D33C9B220001F7002F05CFE71
:10205000E9B2200002F058FE3100200002F054FEE8
:102060003900200002F070FF052003F0A1FB0C4BAB
:102070001B78022B10D10B4C0B492000FEF705FA00
:1020800029002000FFF7C7FF08492000FEF7FDF9EF
:1020900031002000FFF7E2FAF8BDC0468C020020B4
:1020A000290C002014030020658E00001890000009
:1020B000F7B50D00002400902A5D002A02D00134FB
:1020C000A4B2F9E730345649A4B200238858C65C5C
:1020D000002E02D001339BB2F9E70533E418043235
:1020E000A4B24C2AF1D14F4F3B78012B00D08CE0A9
:1020F0004D4E4E493000FEF7C8F921003000FEF782
:10210000C8F9009B002B02D19023494A1380009B01
:10211000474A5B00D45A3B78012B08D1424E4549CF
:102120003000FEF7B2F921003000FEF7B2F970215D
:102130002000FFF779FF601C80B20221FFF774FFD7
:102140000026A71CBFB23C4BB819995D80B201367E
:10215000FFF76AFF2C2EF6D127002E34A0B2002103
:10216000FFF762FF00262F37BFB2A95D01363800A6
:10217000B6B2FFF759FFAB19013B7C1C1B78A4B228
:102180002700002BF1D11D0000262C4FEF19A019BC
:10219000B95D80B20136FFF747FF042EF7D1201D4D
:1021A00080B20021FFF740FF661D1D4B9334FF34C2
:1021B0005F59A3B2B6B2019339783000FFF734FF0C
:1021C0003B78741CA4B2002B03D104354C2DDBD119
:1021D00005E0019B013726009C42EDD1F5E7009B0D
:1021E000062B03D1124B8E331C8004E0009B104A57
:1021F00001335B00D45200240D4B2000195D0134E3
:10220000FFF712FF902CF7D108E0009B002B00D1C4
:102210007AE7009B064A5B00D45A88E7F7BDC046C0
:10222000A40A0020290C0020140300206F8E000057
:102230002A0C00207A8E00003C0200208C0B00202B
:1022400070B5104B1B78012B03D10F490F48FEF7D7
:1022500051FC002426000E4D0021605BFFF7E4FED8
:10226000605B00210130FFF7DFFE665302340E2C65
:10227000F1D10024295D20000134FFF7D5FE902C18
:10228000F8D170BD290C00208B8E000014030020B3
:102290002A0C0020F0B585B00293040000230191C0
:1022A0000392019AD25C002A02D001339BB2F8E774
:1022B000404F414D3B78012B72D1404E4049300098
:1022C000FEF7E3F8029B3000D91CFEF7E2F8002C81
:1022D00001D13C4BEB81231D5B00ED183B78EE8870
:1022E000012B08D1354D38492800FEF7CEF83100D2
:1022F0002800FEF7CEF830006621B51E013EFFF73C
:1023000093FEB0B2BB21FFF78FFE0026ADB2019B5A
:102310002800995DFFF788FE0136019BB6B29B1934
:10232000013B1B786F1EBFB2002B01D03D00EEE7D2
:10233000AB1E9BB2029938000193FFF775FE6B4606
:102340001B89039E02935B00ED1A023DABB2019D17
:102350000393039B9D420ED031782800FFF764FE63
:102360006F1E3188BFB2023D090A3800ADB2FFF7D7
:102370005BFE0236EDE7029B019A5B00D31A9BB22B
:102380000D4D3E2C03D0053464002C19E38000244D
:10239000295D20000134FFF747FE902CF8D106E0BC
:1023A000002C96D0231D5B00ED18EE88A3E705B046
:1023B000F0BDC046290C00202A0C00201403002088
:1023C0009E8E0000FF7F0000AC8E000070B5234C95
:1023D000A02223003B331A70230001265E331E70B7
:1023E00023000500010A5D33C9B220001E7002F00F
:1023F0008BFCE9B2200002F087FC3100200002F0E3
:10240000A3FD330032005021200002F01FFE230004
:1024100022003933383219781378FE36994206D0C3
:102420000026994203D9591C1170E418267E0C4BE2
:102430001B78022B10D10B4C0B492000FEF725F81E
:1024400029002000FFF7E7FD08492000FEF71DF8EE
:1024500031002000FFF702F9300070BD8C0200202F
:10246000290C002014030020C18E000018900000E9
:10247000F0B5002485B001902E4B6200D55A002D96
:1024800043D02800FFF7A2FF70283ED1681C80B21D
:10249000FFF79CFF022838D100272F35ABB2019DF2
:1024A0000393039B019A2E789B1A5B1918000293E1
:1024B000FFF78CFF86421FD01F4B1B78022B24D1C5
:1024C0001E4E1F493000FDF7E0FF39003000FFF7D6
:1024D000A2FD1C493000FDF7D8FF287804F0ECFA83
:1024E00019493000FDF7D1FF0298FFF76FFF010097
:1024F0003000FFF7B3F808E02B78002B03D001374A
:1025000001350F2FCDD160B211E00134072CB3D1CA
:10251000094B1B78012B08D1084C0C492000FDF712
:10252000B4FF01992000FEF7E5FA0120404205B012
:10253000F0BDC0462A0C0020290C00201403002006
:10254000CB8E000019900000DF8E0000E28E0000AC
:10255000F8B50600FFF78CFF431C2DD10024174B64
:102560006200D55AE7B2002D06D1154B1B78012B1E
:102570001AD1144D144910E02800FFF727FF7028E6
:1025800017D00135A8B2FFF721FF022811D00C4B5C
:102590001B78012B08D10B4D0C492800FDF775FF66
:1025A00039002800FFF75AF860B23100FFF780FDCC
:1025B00002E00134072CD2D1F8BDC0462A0C00201D
:1025C000290C002014030020F58E0000008F00006D
:1025D000F0B5002485B00090E3B2394A039363005C
:1025E000D318DD89002D56D02800FFF7EFFE6628AE
:1025F00051D1681E80B2FFF7E9FEBB284BD10026FF
:10260000023D009FADB23B780193AB1B18000293D3
:10261000FFF7DCFE019B83421FD02A4B1B78022B65
:1026200039D1294D29492800FDF72FFF3100280015
:10263000FFF7F1FC26492800FDF727FF387804F062
:102640003BFA24492800FDF720FF0298FFF7BEFE61
:1026500001002800FFF702F81DE03B78002B03D0B3
:10266000013601370F2ECED1164B1B78012B10D11E
:10267000154D19492800FDF708FF00992800FDF7BE
:1026800004FF16492800FDF700FF03992800FEF714
:10269000E5FF60B211E001343F2C9DD1094B1B785E
:1026A000012B08D1084C0E492000FDF7EEFE0099E1
:1026B0002000FEF71FFA0120404205B0F0BDC046E1
:1026C0002A0C0020290C002014030020CB8E0000CF
:1026D00019900000DF8E0000118F000006900000AE
:1026E000E28E0000F8B503780700214C002B26D0BD
:1026F000FFF76EFF1F4BC5B21B78012B10D11E4E8A
:102700001E493000FDF7C1FE39003000FDF7BDFE67
:102710001B493000FDF7B9FE29003000FEF79EFF8F
:1027200004356D006419E08890281FD9FF21FFF758
:102730007BFCE088FF210138FFF776FC16E02500DE
:1027400010490D48FEF7D6F90E358C3428889028AC
:1027500007D9FF21FFF768FC2888FF210138FFF720
:1027600063FC00232B800235A542EFD1F8BDC046A3
:102770002A0C0020290C002014030020238F0000C5
:1027800006900000328F0000F0B585B0050002927F
:10279000062800D900257C4F002935D06B00019315
:1027A000FE5A7A4B1B78012B08D1794C79492000CD
:1027B000FDF76BFE29002000FEF750FF741C30006F
:1027C000A4B2FFF703FE70280CD102362000B6B287
:1027D000FFF7FCFD022804D16B00FC5A6E4B1D7004
:1027E00004E034000135EDB2072DD7D12000FFF70A
:1027F000EDFD702800D0B2E0601C80B2FFF7E6FD6E
:10280000022800D0ABE00EE06D007C5B2000FFF7FB
:10281000DDFD702800D0B4E0601C80B2FFF7D6FD6B
:10282000022800D0ADE00234A4B2584B1A780393CA
:10283000012A08D1564D59492800FDF726FE2100EE
:102840002800FDF726FE0025601980B2FFF7BEFDC7
:10285000534B585501352C2DF6D1524E2D3437009F
:10286000A4B22000FFF7B2FD651CADB230702C00A1
:1028700001360028F5D14C4B1B78012B08D1444C74
:102880004A492000FDF701FE39002000FEF732F929
:1028900000260024F3B20193454BB700FF18281916
:1028A00080B2FFF793FD38550134042CF7D1281D71
:1028B0006C1D80B2A4B2FFF789FD00280BD0344F05
:1028C0003C493800FDF7E1FD601EFFF77FFD010088
:1028D0003800FEF7C3FE2000FFF778FD002814D073
:1028E00000272000FFF772FD3349651CADB2C855C3
:1028F000002803D10198FEF73DFB08E08E23013745
:10290000FF332C009F42ECD1F4E70635ADB201361F
:10291000132EBED1294B1A781D00002A01D0FEF7D4
:10292000A9FE029B002B04D01B4B02201978FEF756
:102930008BF8039B1B78002B09D0154C20492000F5
:10294000FDF7A3FD144B20001978FEF787FE2B78C6
:10295000002B16D01B490E48FEF7CCF811E03C883E
:102960002000FFF733FD70280BD1601C80B2FFF709
:102970002DFD022805D10022074B0234A4B21A70A3
:1029800053E705B0F0BDC0462A0C0020290C0020FA
:1029900014030020488F00001C060020588F000000
:1029A0003C0200206D02002016060020778F0000F8
:1029B0008C0B0020878F000039060020EF050020D7
:1029C000A08F0000B092000010B50122FFF7DCFEDE
:1029D00010BDFFFF70B503780600002B04D1134B28
:1029E00018780130C0B21AE0FFF742FD104B040026
:1029F0001B78012B10D10F4D0F492800FDF745FD25
:102A000031002800FDF741FD0C492800FDF73DFD90
:102A100021002800FDF73DFD002C02DBE0B2012182
:102A200001E001210020FFF7CFFF70BD1C06002050
:102A3000290C002014030020AA8F0000069000003B
:102A4000F7B5070000910192FFF7C2FD431C29D1A1
:102A50000025154A6B00D318DC89EEB2002C0AD091
:102A60002000FFF7B3FC662819D0013CA0B2FFF7A5
:102A7000ADFCBB2813D00D4B1B78012B08D10C4C9F
:102A80000C492000FDF701FD31002000FEF7E6FDB6
:102A9000019B009A39003000FFF7FCFB02E0013592
:102AA0003F2DD6D1F7BDC0462A0C0020290C0020AE
:102AB00014030020B58F0000F8B50025184A6B00FC
:102AC000D318DC89EEB22000FFF780FC662822D103
:102AD000601E80B2FFF77AFCBB281CD1114F12494F
:102AE0003800FDF7D2FC31003800FFF78FFA023CC6
:102AF0000E493800A4B2FDF7C8FC661E2000B6B22D
:102B0000FFF764FC002803D003F0D6FF3400F4E79D
:102B1000380004F0F9F801353F2DCFD1F8BDC0469B
:102B20002A0C002014030020C68F00005C900000D7
:102B3000F7B50E0000923F2801D9002465E0344B20
:102B40000430344D400018182B78C488012B03D171
:102B500031493248FDF7CEFF2000FFF737FC6628E9
:102B6000EBD1601E80B2FFF731FCBB28E5D12B789A
:102B7000023CA4B2012B08D1284D29492800FDF7B9
:102B800084FC21002800FDF784FC264D2000FFF77F
:102B90001DFC671E2870BFB20135002801D03C0023
:102BA000F4E7214B1B78012B08D11C4D1F4928004D
:102BB000FDF76BFC1E492800FDF79CFF3800FFF76E
:102BC00005FC009BA51E5B00E41A023CA3B284B284
:102BD000ADB200936300EB1A9BB20193009B9D4240
:102BE00013D0019B9D4210D02800FFF7EFFB6F1E12
:102BF000BFB230803800FFF7E9FB33880002023DA6
:102C000018183080ADB20236E8E72000FEBDC0469D
:102C10002A0C0020290C0020D08F00001403002073
:102C2000E68F0000F5050020160600200890000041
:102C30006D020020F7B506000F000192FFF7C8FCF7
:102C4000164B04001B78002819DB012B10D1144D02
:102C500014492800FDF719FC31002800FDF715FC88
:102C600011492800FDF711FC21002800FDF711FC97
:102C7000E0B2019A3900FFF75BFF04000BE000248B
:102C8000012B08D1064D09492800FDF7FEFB310054
:102C90002800FDF72FFF2000FEBDC04616060020CD
:102CA0001403002025900000069000001B900000F7
:102CB000F8B500252800FFF789FB314C2855013570
:102CC000902DF7D100231D002E49CA5C0133AD18A9
:102CD000ADB20E2BF9D12088FFF778FB702838D1E0
:102CE00020880130FFF772FB022832D123008C3399
:102CF0001B88AB422DD1244B1B78012B3ED1234D99
:102D000023492800FDF7F6FE0026F1B22800FFF760
:102D10007DF9204F28003900FDF7B7FB7300E15A19
:102D200028000136FDF7B5FB072EEED10026F1B2E3
:102D30002800FFF76BF939002800FDF7A6FB7300A8
:102D4000E318D98928000136FDF7A3FB3F2EEED109
:102D500014E004210220FDF777FE0F490B48FDF730
:102D6000C9FEFFF76DFA0020FFF7BCFC23000B49FA
:102D70008C3300201D80FFF79BF9BCE7F8BDC046EF
:102D80002A0C0020D98B0000290C002014030020FD
:102D900036900000189000005E90000073900000D4
:102DA000F8B50025174B6A00D45AEEB22000FFF7A1
:102DB0000DFB702822D1601C80B2FFF707FB0228B0
:102DC0001CD1114F11493800FDF75FFB310038006D
:102DD000FFF71CF92F340E493800A4B2FDF755FB5C
:102DE000661C2000B6B2FFF7F1FA002803D003F00A
:102DF00063FE3400F4E7380003F086FF0135072D49
:102E0000D0D1F8BD2A0C00201403002079900000D6
:102E10005C9000001F2310B5064A18401178084343
:102E2000814206D00023107019001A00180003F028
:102E300009FD10BDCF1000201F2310B5074A184010
:102E400011780B008343994206D0137000231A00B7
:102E50001900180003F0F6FC10BDC046CF1000208A
:102E600070B50A4B05005A1CD27F1C00D30701D550
:102E7000FFF7E2FF631CDB7F9B0706D5FEF722F816
:102E8000002802D02800FDF701FF70BD3C020020A1
:102E900070B50A4B05005A1CD27F1C00D30701D520
:102EA000FFF7B8FF631CDB7F9B0706D5FEF70AF828
:102EB000002802D02800FDF7DBFE70BD3C02002098
:102EC00070B5134B04005A1CD27F1D00D30709D5DF
:102ED000104B1A780240D30602D0FFF7ADFF01E095
:102EE000FFF798FF6B1CDB7F9B070FD5FDF7EAFF11
:102EF00000280BD02000FDF7D7FE002803D02000CB
:102F0000FDF7C4FE02E02000FDF7B2FE70BDC04632
:102F10003C020020CF10002070B50D4B05005A1C5C
:102F2000D27F1C00D30705D500230200190018002A
:102F300003F088FC631CDB7F9B0708D5FDF7C2FF0D
:102F4000002804D00021EAB20800FDF701FE70BDA0
:102F50003C020020F8B505000E0001272B004C4C68
:102F6000803301DB022724E0631CDB7F3B4206D079
:102F7000002380201A001900404203F063FC013452
:102F8000E37F9B0703D5FDF79DFF002865D18035C2
:102F9000E4E70122631CDB7F134205D000237F207E
:102FA0001A00190003F04EFC631CDB7F3B4204D186
:102FB0007F3D7F2DEDDC012714E0FDF783FF002826
:102FC00052D1F5E7631CDB7F3B4206D00023802112
:102FD0001A004942180003F035FC631CDB7F9B0795
:102FE00005D4803633008033ECDB022714E0FDF794
:102FF00069FF00283ED1F4E70122E318DB7F13428A
:1030000005D000237F211A00180003F01BFC631C6D
:10301000DB7F3B4204D17F3E01237F2EECDC04E0CA
:10302000FDF750FF00282CD1F5E7621CD27F1A4231
:1030300005D0002371B268B21A0003F003FC01341A
:10304000E37F9B0723D5FDF73DFF00281FD000221B
:1030500031002800FDF77CFD19E0002280201100DE
:103060004042FDF775FD92E700227F201100FDF739
:103070006FFD9DE70022802110004942FDF768FDA9
:10308000AFE700227F211000FDF762FDC3E7F8BD26
:103090003C02002070B5104B05005A1CD27F1E0068
:1030A000D3070DD50024280005F05BFCA04207D90A
:1030B000285D03F06BFA285D03F0EEFA0134F2E7C5
:1030C000731CDB7F9B0706D5FDF7FCFE002802D0B2
:1030D0002800FDF7A9FE70BD3C02002070B50B4B27
:1030E00005005A1CD27F1C00D30702D580B203F022
:1030F0004DFA631CDB7F9B0706D5FDF7E3FE002836
:1031000002D02800FDF73CFE70BDC0463C02002006
:1031100070B50B4B05005A1CD27F1C00D30702D59B
:1031200080B203F0B9FA631CDB7F9B0706D5FDF77D
:10313000C9FE002802D02800FDF740FE70BDC04641
:103140003C02002010B5094B5A1CD27F1C00D3074B
:1031500001D503F0F7FA631CDB7F9B0705D5FDF76C
:10316000B1FE002801D0FDF74DFE10BD3C0200204D
:1031700010B502F057F910BD10B5040003F07AFD48
:10318000200010BDF0B5464C87B023680190049331
:10319000049D444F387802F0E5F9039700280BD0DE
:1031A0002368414A0593059B5B1B9342F1D93F4934
:1031B0003F48FDF79FFC70E006003E4C20802388CE
:1031C000F92B14D802F0D0FA029002F0CDFA029B4B
:1031D000C51A394B1A681F00954205D2039B18780F
:1031E00002F0C0F98642F0D03B689D423FD323886D
:1031F0002F4D3249FA2B00D031492800FDF77AFCD7
:1032000000210B20FDF720FC2E4B2F4F1B78012BAC
:1032100013D12E492800FDF76DFC00262388B34208
:1032200007D97300F95A28000136FDF732F9F6B2D2
:10323000F4E727492800FDF75DFC26492800FDF743
:1032400017F901992800FDF713F923492800FDF724
:103250000FF92188280003F097FD20492800FDF789
:1032600049FC227839000198FFF7EAFB15E0FA23C0
:103270001B029D4207D9FA212800890004F0B8F901
:10328000FA231B02C518012023880F4A5900464023
:103290001B188D52F6B2238091E707B0F0BDC046EF
:1032A000300F0020690200200F2700007E900000F0
:1032B00014030020CC0C0020840200209790000012
:1032C000AE90000016060020CE0C0020C790000033
:1032D000DB900000EA9000000091000007910000E0
:1032E00010B5FFF7E9FB10BD10B5FFF7FBF910BDF6
:1032F000F8B52B4EFA223100FFF79CFC294F2A4BE0
:1033000038801B78002806D1012B47D1274928484F
:10331000FDF7F0FB42E0012B14D1254D2549280093
:10332000FDF7E8FB00243B88A34207D96300F15A6C
:1033300028000134FDF7ADF8A4B2F4E71E492800D7
:10334000FDF7D8FB00210920FDF77EFB00231B4A77
:103350001B4C13801B4A1C4913701C4A200013602D
:10336000EF2203F02DFC142123682171002B15D0CE
:103370001748184A1B181B11D15411785378164856
:10338000164A994205D8036809041A400A430260A4
:1033900004E001681B040A4013430360F8BDC04603
:1033A000CE0C0020CC0C002016060020149100004A
:1033B00014030020C7900000DB900000CA0C00201E
:1033C000C00C0020C80C0020E1330000BC0C002021
:1033D000008FFCBF0403002014E400E0FFFF00FFA7
:1033E000F8B52F4A2F4F12883B883E002E4D2F4CA8
:1033F000934223D92878002102F0FCF82878002194
:1034000002F090F8002323703B80294B1A68002AB1
:1034100001DD013A1A601B68002B40D1254803F0FA
:1034200029FC254A1368002B39DD013B1360234B2F
:10343000013BFDD12248FFF75BFF30E0934206D10C
:103440001C4B1B68002B1CD01E4A1A6019E01E4A38
:103450005B009B5AFA221202934204D9FA2292008C
:1034600053431A4A9B181A495A1E8A4209D81822ED
:103470005343013B232B04D90E4A1268002A00D083
:1034800013602178287802F0B5F82378002B01D159
:10349000803300E000232370338801333380F8BD8C
:1034A000CC0C0020CA0C002068020020C80C0020B0
:1034B000C80E0020C00C0020C40E002000710200C5
:1034C0005D0200207FA90300CE0C002000702FFCBD
:1034D000AFAAAA0A012310B5034A1360034A136076
:1034E000FFF706FF10BDC046C80E0020C40E002026
:1034F000012210B5044B52421A60044B02321A608A
:10350000FFF7F6FE10BDC046C80E0020C40E002016
:103510000022014B1A607047C80E002010B5002031
:10352000FFF7E0F810BDFFFF002804D0FA239B004E
:103530005843014B186070478402002010B501F019
:1035400071FF00230448054A036005498033037175
:1035500005F0B6F810BDC046C00C002030020020B7
:103560007931000010B5FFF7EDFD00231900034A83
:1035700099500433202BFBD110BDC046CC0E002047
:10358000002310B5064A99008C58002C00D18850B1
:103590005158884202D00133072BF4DD10BDC046DC
:1035A000CC0E0020002330B50B499A0055580C0072
:1035B00085420CD18A180021072B05D0501840688D
:1035C000013350500431F7E70023E36102E0013397
:1035D000072BEADD30BDC046CC0E00200023054A93
:1035E0009958814204D00433202BF9D1002000E007
:1035F00001207047CC0E002010B50400032916D816
:10360000080003F0E1FF0E0E07022000FFF7E6FFBF
:10361000002806D02000FFF7C5FF2000FFF778FD47
:1036200005E02000FFF7ACFF2000FFF757FD10BDBD
:1036300070B504000D0005F094F9023005F082F831
:103640000600210005F085F9300005F08AF93018F0
:1036500001380378D24C202B03D02100300005F034
:1036600061F92100300005F083F9041E01D100F05A
:10367000C9FDCC4905F063F9002803D12900CA48E7
:10368000FFF7BAFFC949200005F059F9002803D116
:103690002900C748FFF7B0FFC649200005F04FF9E1
:1036A000002803D12900C448FFF7A6FFC349200022
:1036B00005F045F9002803D12900C148FFF79CFF18
:1036C000C049200005F03BF9002803D12900BE487D
:1036D000FFF792FFBD49200005F031F9002803D122
:1036E0002900BB48FFF788FFBA49200005F027F9F9
:1036F000002803D12900B848FFF77EFFB749200012
:1037000005F01DF9002803D12900B548FFF774FF23
:10371000B449200005F013F9002803D12900B2486C
:10372000FFF76AFFB149200005F009F9002803D12D
:103730002900AF48FFF760FFAE49200005F0FFF811
:10374000002803D12900AC48FFF756FFAB49200001
:1037500005F0F5F8002803D12900A948FFF74CFF30
:10376000A849200005F0EBF8002803D12900A6485D
:10377000FFF742FFA549200005F0E1F8002803D13A
:103780002900A348FFF738FFA249200005F0D7F829
:10379000002803D12900A048FFF72EFF9F492000F1
:1037A00005F0CDF8002803D129009D48FFF724FF3C
:1037B0009C49200005F0C3F8002803D129009A484D
:1037C000FFF71AFF9949200005F0B9F8002803D146
:1037D00029009748FFF710FF9649200005F0AFF841
:1037E000002803D129009448FFF706FF93492000E1
:1037F00005F0A5F8002803D129009148FFF7FCFE49
:103800009049200005F09BF8002803D129008E483C
:10381000FFF7F2FE8D49200005F091F8002803D152
:1038200029008B48FFF7E8FE8A49200005F087F859
:10383000002803D129008848FFF7DEFE87492000D1
:1038400005F07DF8002803D129008548FFF7D4FE54
:103850008449200005F073F8002803D1290082482C
:10386000FFF7CAFE8149200005F069F8002803D15E
:1038700029007F48FFF7C0FE7E49200005F05FF871
:10388000002803D129007C48FFF7B6FE7B492000C1
:1038900005F055F8002803D129007948FFF7ACFE60
:1038A0007849200005F04BF8002803D1290076481C
:1038B000FFF7A2FE7549200005F041F8002803D16A
:1038C00029007348FFF798FE7249200005F037F889
:1038D000002803D129007048FFF78EFE6F492000B1
:1038E00005F02DF8002803D129006D48FFF784FE6C
:1038F0006C49200005F023F8002803D129006A480C
:10390000FFF77AFE6949200005F019F8002803D175
:1039100029006748FFF770FE6649200005F00FF8A0
:10392000002803D129006448FFF766FE63492000A0
:1039300005F005F8002803D129006148FFF75CFE77
:103940006049200004F0FBFF002803D129005E48F5
:10395000FFF752FE5D49200004F0F1FF002803D17B
:1039600029005B48FFF748FE5A49200004F0E7FFB2
:10397000002803D129005848FFF73EFE5749200090
:1039800004F0DDFF002803D129005548FFF734FE7D
:103990005449200004F0D3FF002800D0A8E0A3E0A1
:1039A000199000002891000002E000003291000010
:1039B00001E000003B91000004E0000043910000A2
:1039C00040E000005191000008E000005991000023
:1039D00080E000006791000052F000006E9100004E
:1039E00051F000007791000050F00000809100003D
:1039F0004FF000008A91000028F000009491000030
:103A00002CF000009E91000029F00000A69100001B
:103A10002AF00000B49100002BF00000BC910000DF
:103A200039F00000CA9100003AF00000D191000086
:103A30003BF00000D89100003CF00000DF91000056
:103A40003DF00000E69100003EF00000ED91000026
:103A50003FF00000F491000040F00000FB910000F6
:103A600041F000000292000042F0000009920000C4
:103A700043F000001192000044F000001992000091
:103A800045F000002192000068F00000299200003B
:103A900069F00000319200006AF0000039920000E5
:103AA0006BF00000419200006CF0000049920000B1
:103AB0006DF00000519200006EF00000599200007D
:103AC0006FF000006192000070F000006992000049
:103AD00071F000007192000072F000007992000015
:103AE00073F00000819200002900D448FFF784FDA4
:103AF000D349200004F023FF002803D12900D14836
:103B0000FFF77AFDD049200004F019FF002803D107
:103B10002900CE48FFF770FDCD49200004F00FFFCB
:103B2000002803D12900CB48FFF766FDCA492000D1
:103B300004F005FF002803D12900C848FFF75CFD09
:103B4000C749200004F0FBFE002803D12900C54826
:103B5000FFF752FDC449200004F0F1FE002803D114
:103B60002900C248FFF748FDC149200004F0E7FEE4
:103B7000002803D12900BF48FFF73EFDBE492000C1
:103B800004F0DDFE002803D12900BC48FFF734FD16
:103B9000BB49200004F0D3FE002803D12900B94816
:103BA000FFF72AFDB849200004F0C9FE002803D120
:103BB0002900B648FFF720FDB549200004F0BFFEFC
:103BC000002803D12900B348FFF716FDB2492000B1
:103BD00004F0B5FE002803D12900B048FFF70CFD22
:103BE000AF49200004F0ABFE002803D12900AD4806
:103BF000FFF702FDAC49200004F0A1FE002803D12C
:103C00002900AA48FFF7F8FCA949200004F097FE14
:103C1000002803D12900A748FFF7EEFCA6492000A1
:103C200004F08DFE002803D12900A448FFF7E4FC2E
:103C3000A349200004F083FE002803D12900A148F5
:103C4000FFF7DAFCA049200004F079FE002803D138
:103C500029009E48FFF7D0FC9D49200004F06FFE2C
:103C6000002803D129009B48FFF7C6FC9A49200091
:103C700004F065FE002803D129009848FFF7BCFC3A
:103C80009749200004F05BFE002803D129009548E5
:103C9000FFF7B2FC9449200004F051FE002803D144
:103CA00029009248FFF7A8FC9149200004F047FE44
:103CB000002803D129008F48FFF79EFC8E49200081
:103CC00004F03DFE002803D129008C48FFF794FC46
:103CD0008B49200004F033FE002803D129008948D5
:103CE000FFF78AFC8849200004F029FE002803D150
:103CF00029008648FFF780FC8549200004F01FFE5C
:103D0000002803D129008348FFF776FC8249200070
:103D100004F015FE002803D129008048FFF76CFC51
:103D20007F49200004F00BFE002803D129007D48C4
:103D3000FFF762FC7C49200004F001FE002803D15B
:103D400029007A48FFF758FC7949200004F0F7FD74
:103D5000002803D129007748FFF74EFC7649200060
:103D600004F0EDFD002803D129007448FFF744FC5E
:103D70007349200004F0E3FD002803D129007148B5
:103D8000FFF73AFC7049200004F0D9FD002803D168
:103D900029006E48FFF730FC6D49200004F0CFFD8C
:103DA000002803D129006B48FFF726FC6A49200050
:103DB00004F0C5FD002803D129006848FFF71CFC6A
:103DC0006749200004F0BBFD002803D129006548A5
:103DD000FFF712FC6449200004F0B1FD002803D174
:103DE00029006248FFF708FC6149200004F0A7FDA4
:103DF000002803D129005F48FFF7FEFB5E49200041
:103E000004F09DFD002803D129005C48FFF7F4FB76
:103E10005B49200004F093FD002803D12900594894
:103E2000FFF7EAFB5849200004F089FD002800D084
:103E3000AEE029005548FFF7DFFBA9E049F000009C
:103E40008C9200004AF00000959200004BF00000B8
:103E5000A19200004CF00000AC9200004DF0000078
:103E6000B49200004EF00000C292000004F0000086
:103E7000C892000005F00000CE92000006F000009D
:103E8000D492000007F00000DA92000008F0000071
:103E9000E092000009F00000E69200000AF0000045
:103EA000EC9200000BF00000F29200000CF0000019
:103EB000F89200000DF00000FE9200000EF00000ED
:103EC000049300000FF000000A93000010F00000BF
:103ED0001093000011F000001693000012F0000093
:103EE0001C93000013F000002293000014F0000067
:103EF0002893000015F000002E93000016F000003B
:103F00003493000017F000003A93000018F000000E
:103F10004093000019F00000469300001AF00000E2
:103F20004C9300001BF00000529300001CF00000B6
:103F3000589300001DF000005E9300001EF000008A
:103F4000649300001FF000006A93000020F000005E
:103F50007093000021F000007693000022F0000032
:103F60007C93000023F000008293000024F0000006
:103F70008893000025F000008E93000026F00000DA
:103F80009493000027F000009A93000048F000008E
:103F90009E49200004F0D3FC002803D129009C484E
:103FA000FFF72AFB9B49200004F0C9FC002803D13D
:103FB00029009948FFF720FB9849200004F0BFFC36
:103FC000002803D129009648FFF716FB95492000E9
:103FD00004F0B5FC002803D129009348FFF70CFB3F
:103FE0009249200004F0ABFC002803D1290090483E
:103FF000FFF702FB8F49200004F0A1FC002803D149
:1040000029008D48FFF7F8FA8C49200004F097FC4E
:10401000002803D129008A48FFF7EEFA89492000D9
:1040200004F08DFC002803D129008748FFF7E4FA4B
:104030008649200004F083FC002803D1290084482D
:10404000FFF7DAFA8349200004F079FC002803D155
:1040500029008148FFF7D0FA8049200004F06FFC66
:10406000002803D129007E48FFF7C6FA7D492000C9
:1040700004F065FC002803D129007B48FFF7BCFA57
:104080007A49200004F05BFC002803D1290078481D
:10409000FFF7B2FA7749200004F051FC002803D161
:1040A00029007548FFF7A8FA7449200004F047FC7E
:1040B000002803D129007248FFF79EFA71492000B9
:1040C00004F03DFC002803D129006F48FFF794FA63
:1040D0006E49200004F033FC002803D129006C480D
:1040E000FFF78AFA6B49200004F029FC002803D16D
:1040F00029006948FFF780FA6849200004F01FFC96
:10410000002803D129006648FFF776FA65492000A8
:1041100004F015FC002803D129006348FFF76CFA6E
:104120006249200004F00BFC002803D129006048FC
:10413000FFF762FA5F49200004F001FC002803D178
:1041400029005D48FFF758FA5C49200004F0F7FBAE
:10415000002803D129005A48FFF74EFA5949200098
:1041600004F0EDFB002803D129005748FFF744FA7B
:104170005649200004F0E3FB002803D129005448ED
:10418000FFF73AFA5349200004F0D9FB002803D185
:1041900029005148FFF730FA5049200004F0CFFBC6
:1041A000002803D129004E48FFF726FA4D49200088
:1041B00004F0C5FB002803D129004B48FFF71CFA87
:1041C0004A49200004F0BBFB002803D129004848DD
:1041D000FFF712FA4749200004F0B1FB002803D191
:1041E00029004548FFF708FA4449200004F0A7FBDE
:1041F000002803D129004248FFF7FEF94149002079
:10420000FFF731FA300004F0A7FA70BDA493000064
:1042100047F00000B493000053F00000C193000089
:1042200046F00000D193000033F00000DF9300005F
:1042300036F00000E993000037F00000F49300002E
:104240002DF00000FE9300002EF000000894000006
:1042500038F000001294000031F0000020940000BB
:104260002FF000002F94000030F000003F94000079
:1042700034F000004994000035F000005394000031
:1042800065F000005C94000054F0000069940000A8
:1042900055F000007894000056F00000859400006E
:1042A00057F000009194000058F000009E94000028
:1042B00059F00000A79400005AF00000B0940000EC
:1042C0005BF00000B99400005CF00000C2940000B4
:1042D0005DF00000CB9400005EF00000D49400007C
:1042E0005FF00000DD94000060F00000E694000044
:1042F00061F00000EF94000062F00000F89400000C
:1043000063F000001990000010B504000021FFF7D1
:104310008FF902212000FFF78BF910BD10B50121A4
:10432000FFF786F910BD10B50221FFF781F910BD26
:1043300010B50321FFF77CF910BD10B501F072F83C
:1043400010BDFFFFF0B5BC4B87B01B68BB4D05939C
:10435000059CBB4B06001C602B681700E01A0091FF
:1043600004F070F9B74B2C601860B74903F09CFC5F
:10437000B64AB74C136820600394B649BB4203DACF
:104380000123B548037006E00020B34C2070BB4207
:1043900001DD012300E000230B70B04B1760019397
:1043A0001A7800239A4200D0C833AD4C20780628F2
:1043B00000D9C4E003F008F90419296878C3B300F0
:1043C000019B5B8A9F4205DD0123002105202370AC
:1043D000FCF73AFB019B9B8A9F4200DBAFE0032086
:1043E00000212070FCF730FBA9E0019BDA899D4B8E
:1043F000974202DA1A68013200E000221A601B6854
:10440000132B00DC28E302233CE000995A428A4245
:1044100008DD00210620FCF717FB0F20FCF712FE39
:104420000F202CE0B24208DD00210620FCF70CFB37
:104430001120FCF707FE112021E0B34208DA002129
:104440000620FCF701FB1220FCF7FCFD122016E011
:10445000009A934208DA00210620FCF7F5FA1020B2
:10446000FCF7F0FD10200AE07E4A13680133C82BE8
:104470005ADD00230A201360FCF7E4FD0A20FCF754
:10448000F3FD062323705AE0019B9A89754B9742EE
:1044900002DD1A68013200E000221A601B68132B4B
:1044A00000DCD9E20423EDE700995A42914208DA90
:1044B00000210420FCF7C8FA0B20FCF7C3FD0B20F9
:1044C000DDE7964208DA00210420FCF7BDFA0D2052
:1044D000FCF7B8FD0D20D2E7B34208DA0021042032
:1044E000FCF7B2FA0E20FCF7ADFD0E20C7E7009AEC
:1044F000934208DA00210420FCF7A6FA0C20FCF70E
:10450000A1FD0C20BBE7574A13680133C82B0BDD14
:10451000002308201360FCF795FD0820AFE7514AFF
:10452000136801331E2B01DC136095E20025156032
:104530002570FCF73FFE4C4B1D704C4B1D702378D3
:104540000024A34200D087E2494D285D01F00AF81B
:10455000414241412000C9B20134FCF7F9FD032C6E
:10456000F2D1287800F0FEFF424C051E0ED1C82281
:104570002368920001332360934209D101000A208D
:10458000FCF762FAFCF7A6FC256001E0002323603B
:10459000354D2C78012C10D0002C02D0022C24D0C8
:1045A00035E02E4BDB899F4231DD21000820FCF7EE
:1045B0004BFA01232B70304B28E0274B1A782E4BF7
:1045C000002A0CD11A78511C19700F2A1FD9022207
:1045D00009202A7008321A70FCF734FD17E01A78A7
:1045E000002A14D0013A1A7011E0234B1A78002ADD
:1045F00001D0013A1A70194AD289974207DA1C7819
:10460000002C04D10920FCF72FFD174B1C70174D0F
:104610002C78012C34D01149002C02D0022C47D028
:1046200057E08B899F4254DA21000720FCF70CFAEF
:1046300001232B70114B4BE0300F0020F80E0020AF
:10464000F00E00200C0F002020BCBE4C8802002081
:104650001C0F0020060F0020FD0E00203C02002051
:10466000F40E0020080F0020EC0E0020100F002098
:104670006A020020200F0020ED0E0020FC0E00201A
:10468000BC4B1A78BC4B002A0CD11A78511C1970FB
:104690000F2A1ED9022207202A7008321A70FCF74E
:1046A000D1FC16E01A78002A13D0013A1A7010E0F3
:1046B000B14B1A78002A01D0013A1A708A899742C0
:1046C00007DD1C78002C04D10720FCF7CDFCAB4B98
:1046D0001C700020AA4B1856002804D1A94B1B7847
:1046E0005BB2002B0AD0A84A1378591C11709B07A3
:1046F00004D10021A34B5956FEF72CFCA34D2B7877
:104700000293012B00D096E0288903F053FFA049C3
:1047100003F0CAFA9F4C0290002E01D1268006E0D9
:1047200022889D4B9A4202D86B89D3182380009A25
:104730009A4B002A02D16A46128806E01988964AE6
:10474000914203D8914A52898A181A80039B1D68A6
:10475000019B5878704303F02DFF291C03F06EFC79
:10476000061C208803F026FF011C301C03F066FCA9
:10477000071C011C029803F0C3F8002800D0029F18
:104780008022029B12069E18311C381C03F0B8F8D8
:10479000002800D0371C824C381C216803F00EF929
:1047A000019B2060071C9878009B4343180003F08E
:1047B00001FF291C03F042FC784B051C188803F00C
:1047C000F9FE011C281C03F039FC051C011C029891
:1047D00003F096F8002800D0029D311C281C03F03D
:1047E0008FF8002800D0351C6E4E281C316803F06D
:1047F000E5F8051C3060381C03F0BAFE0700281CE1
:1048000003F0B6FE3B000500034303D0010038006F
:10481000FEF7A0FB380003F0CDFE011C206803F07A
:1048200021FD2060280003F0C5FE011C306803F064
:1048300019FD306010E1029B002B16D1009B032074
:10484000D90FFCF785FC009B0420D917C91AC90FA2
:10485000FCF77EFCF10F0520FCF77AFCF117891BB1
:10486000C90F0620FCF774FCF6E0009B4D4C002BB2
:1048700003D18823DB05236012E0A87803F09AFEB9
:10488000051C009803F096FE011C281C03F0D6FBC3
:10489000454903F009FA8821C90503F08FF8206023
:1048A0003F4D002E03D18823DB052B6013E0019BD5
:1048B000587803F07FFE071C300003F07BFE011CDC
:1048C000381C03F0BBFB384903F0EEF98821C90519
:1048D00003F074F8286000272868391C03F010F8EA
:1048E000002800D02F60314F2868391C03F01CF8D5
:1048F000002800D02F6000272068391C03F000F842
:10490000002800D02760294F2068391C03F00CF8DC
:10491000002800D02760029B032B53D0042B79D0B2
:10492000022B00D098E0286803F030F8204B214A91
:104930005968214E0A401F00B04200D930000001E2
:104940001E4D104358602B78002B01D101F016FD4D
:10495000206803F01BF81A4B7A681340B04200D964
:1049600015488003184378602B78002B74D101F030
:1049700005FD71E0060F0020FC0E0020100F002046
:10498000FE0E0020FF0E0020020F00203C0200203F
:1049900000002041040F00201F4E0000000F0020E7
:1049A000140F0020180F00200000484200C07F4470
:1049B000381200200FC0FFFFFF030000001100208D
:1049C000FF3F00FF286802F0E1FF244FB84200D902
:1049D0003800234D02066B68224E1B021B0A13434C
:1049E0006B600323AA68000A9A4333781043A860D7
:1049F000002B01D101F0C2FC206802F0C7FF1A4B66
:104A0000AA681340B84200D9144880001843A8602F
:104A10003378AAE7286802F0B9FF114B134A996866
:104A20000E4E0A401F00B04200D9300000030D4D69
:104A3000104398602B78002B01D101F09FFC206877
:104A400002F0A4FFBB689B029B0AB04200D9034856
:104A500080051843B86087E707B0F0BDFF0300008A
:104A6000381200200011002003F0FFFFFF0FC0FFED
:104A700010B500F0D7FC10BD30B5021E14D003787D
:104A80000020834210D003000A241078002807D0A9
:104A90003038C5B2092D06D863430132C318F4E794
:104AA0000B80012000E0002030BD73B50C00002811
:104AB00001D1002010E0037801252D2B01D14019F0
:104AC000023D6B469E1D3100FFF7D6FF0028F0D057
:104AD000012033886B43238076BD00280AD00378F9
:104AE000002B07D01A00613A192A01D8203B037025
:104AF0000130F4E77047FFFFF0B589B002AB9E1CB0
:104B000000230100040003A8338003F022FF344D8A
:104B10002B78012B08D1334F33493800FBF7A8FC21
:104B200021003800FBF7E6FF304F2000390003F08A
:104B30001FFF0197041E47D02B78012B08D1294D68
:104B40002B492800FBF794FC21002800FBF7D2FF3B
:104B500000252000FFF7C1FF264FF91E200003F0BB
:104B6000EEFE00281ED13B78022B0BD0032B13D076
:104B7000012B14D1019903F0FBFE31000400FFF773
:104B80007BFF06E0019903F0F3FE31000400FFF71C
:104B90008CFF002806D000E003346BB204E06BB257
:104BA000040001E001235B4201354F2D0AD0043798
:104BB0005A1CD2D00022B15ED8B222000023FCF7EA
:104BC00089FE0AE05A1CF5D1064C0B492000FBF780
:104BD00091FF03A92000FBF78DFF09B0F0BDC0468F
:104BE000160600201403002006950000199000000E
:104BF000149500002C8D00001C95000070B5254A0E
:104C000003001178002902D0FCF71CFC41E0224C83
:104C10002078032837D802F0D7FC0211172420216E
:104C200018008843412801D1012331E0402B30D1C5
:104C3000237801332370012313702AE02022934349
:104C4000542B24D1523B23E00D2B01D00A2B01D150
:104C5000124919E0202B16D10022114B1A700323A0
:104C600016E00F4A0F480D2B01D00A2B06D1002564
:104C70001378C554FFF740FF25700AE011784C1CEB
:104C80001470435405E008490848FBF733FF00233C
:104C9000237070BD210C0020240F002020950000FF
:104CA000250F0020390600201E9500001403002067
:104CB00010B500F0B7FB10BD00207047030038307E
:104CC00039331B780078181A704702000100383217
:104CD000393113780978994204D9591C1170C318D5
:104CE000187E01E001204042704703000200383383
:104CF00039321B7812789A4202D9C318187E01E023
:104D000001204042704770470300002210B55E3317
:104D10001B8893420DD004005D342378202B02D9E8
:104D20000123037105E05A1C22700122C3183B3392
:104D30001970100010BD70B51400020003000020AF
:104D40005E321288824212D01D0021225D35287801
:104D5000121A944202D901241C7114003B33181812
:104D6000220003F003FD20002B781B192B7070BD6F
:104D700043691A685B68126813420FD0084A0369D6
:104D8000914201D81F2205E0064A914201D8122221
:104D900000E002225A70022203699A717047C046ED
:104DA0007F1A06003F420F000200F8B500230400FE
:104DB00038321370537024329370137053704366FB
:104DC0008366D37040696427016842680D682A438E
:104DD0000A6022691549937023000C2261336069CF
:104DE0001E788619337A5343CB185D68737BE026AF
:104DF0001B02F60033403B432B60230062331B78D9
:104E0000C018837C5A43C37D89181B024A681E4020
:104E10003E43166006492000FFF7AAFF20232269BF
:104E20005371802223699A70F8BDC046F095000046
:104E3000A0860100102270B503690400DD78EDB290
:104E4000154203D140222A4004D12BE0DA706B06D0
:104E5000F8D476E004231D403A4B1BD025000022F5
:104E60005D352A701A70636E934200D09847230014
:104E70002A783B33002A02D1012129701A70D022EE
:104E800021698A701B7822691371230001225C3327
:104E90001A7053E001221A70230039331D70226901
:104EA000C02330E0602120698379DBB2194060299A
:104EB0000CD140398B438371A36E002B06D02100A7
:104EC00038310A702200393210789847102322694D
:104ED00091780B401BD001231D4013D121002000ED
:104EE0005C315D300B780078984206D9581CE31885
:104EF00008703B331B78137100E01571D0232269D1
:104F000093701BE0C023937023691B7916E0210086
:104F100060310B70202193790B4321009371236939
:104F200039311A790B78D2B21F2B07D8054800788F
:104F3000002803D0581CE31808701A76022223694F
:104F4000DA7070BD260F00201223F0B5202402690C
:104F50008C46D370036989B099783B4A214201D0CD
:104F6000B42112E011680291029DD978214008D045
:104F7000116803910399491B0F29F6D900229A70F1
:104F80003AE004005F342170B02120269970136844
:104F900004690493049DE378334004D0002302267F
:104FA000019320270BE0116805910599491B0429FD
:104FB000F1D9A37020E0019B0133DBB20193010022
:104FC0005D310978019B994231D9C1183B3109788B
:104FD00003691971116805690691069BEC78E4B2C2
:104FE000210031400DD13C420BD014680794079C3E
:104FF000E41A052CF2D9A9708022036904209A7062
:1050000020E01023EE700469E178C9B2194201D1A1
:10501000394203D18023A3707C3B09E0012319426C
:10502000C9D0019B5A4253410322D31A03E0002303
:105030006246002A02D0802201698A7000225E3016
:105040000270180009B0F0BD300F0020F0B58FB02D
:1050500002930023040020273830037001300370CE
:10506000019020691233C3702569AB783B4018006A
:10507000B423002817D15B4E336803960493049B36
:105080009C46EB783B400AD06646039B1B68059321
:10509000059B9B1B0F2BF4D90023AB7018E020005D
:1050A0005F300370B023AB704E4D26692B680693BA
:1050B00020239C46069F6046F37818402B0000286A
:1050C0000AD12B680793079BDB1B042BF3D9B07025
:1050D000802223699A7082E001200227490001435F
:1050E000C9B2317129680891089E2169C878384091
:1050F00007D11D680995099DAD1B052DF6D988704E
:10510000E6E70223CB7021690F33C878184003D03B
:105110006F338B70002062E0002A06D1029A802350
:10512000002A00D120338B7059E0A823012A00D037
:10513000A0238B7023692B4D1B7900232169280044
:10514000012A25D02868AC460A900A980700022652
:10515000C878304008D1664636680B960B9EF61B21
:10516000052EF4D9887034E00220013AD2B2C8701A
:10517000012A02D1A8202169887021691F2B05D836
:1051800009795E1CE3181976F3B2D7E70979D5E7F8
:1051900002272A680C920C9ECA783A4007D105680B
:1051A0000D950D9DAD1B052DF6D98A7011E00222DB
:1051B000CA702169AE328A7022691F2B05D8127914
:1051C000591CE3181A76CBB200E01279029A002A31
:1051D00002D08021226991701800019A13700FB0DB
:1051E000F0BDC046300F002010B50248FFF722FE88
:1051F00010BDC0468C0200208023F0B51D4A106807
:105200001840FCD172B61C4C2378002B30D01B4BBD
:105210001F681B4B1A681B4BBA181E681A4B921951
:105220001D681A4B52191968194B52181B68194DF1
:10523000D21892B25208184B2A4392B21A60174BF6
:1052400017491B68174A9C46174B1B6812680F6862
:10525000164963440E6816499B180968DB199B19A7
:105260005A1893B25B082B43124A9BB2136020700A
:1052700062B6F0BD24B00340280F002038B00340D0
:105280003CB0034040B0034044B0034048B003404A
:105290004CB003400080FFFF2CB0034058B00340E7
:1052A00064B0034060B003405CB0034068B00340AA
:1052B0006CB0034030B003401B4B1C4A19781C4BA8
:1052C000082901D1002102E00A2903D12E31116001
:1052D000132206E00C2901D1283100E03C211160A5
:1052E00012221A60134B1A78134B002A01D00022A5
:1052F00000E001221A60114B1A78114B012A01D8E3
:1053000080220CE0042A01D8842208E0082A01D86F
:10531000852204E0102A01D8862200E087221A6044
:105320000122084B1A707047F802002008B00340B1
:105330000CB003402A0F002020B00340F9020020E7
:1053400024B00340280F0020F8B503000020272BCD
:1053500033D81A4AD45CFF2C2FD0194B1B788342C8
:1053600001D0FFF749FF72B610274022154B1442B7
:1053700005D01A68BA431A603F231C4002E01A683D
:105380003A431A600123104E104D34602B7062B600
:1053900072B680223368134208D00D4B1868002380
:1053A0002B7062B60B4B1B78184106E02B78002B54
:1053B000DBD062B601F06AFEEAE7F8BD689500004E
:1053C000280F00200CB0034000B00340290F00203C
:1053D00010B00340270F002080210D4A09061368F2
:1053E0000B4313600B4B1A780B4B002A01D1D032C0
:1053F00000E090221A70094B984201DD180002E08B
:10540000C343DB171840064B00B218807047C046F4
:105410003C8004402A0F002021F00340FF0F0000D1
:1054200000F00340F823802208491B02520218882A
:10543000884203D1064A023B138006E002339342BE
:10544000F5D10222024B52421A807047FFFF000042
:105450002C0F0020F8B505000024264F0E1C380044
:10546000E04003F0EFF8DE21890502F0E7FD311C92
:1054700002F050FA002802D10134072CEFD11D4868
:10548000E04003F0DFF8311C02F00EFCFC2189053E
:1054900002F0E8FE02F07AFA174B984200D91800A1
:1054A0002B00103B012B06D80023144A144913602B
:1054B0000B60144B0BE0172D0ED8134A0123EA4062
:1054C000934309D1114A124913600B60114B1860C4
:1054D00008231C4314600CE0033D012D09D8002271
:1054E0000D4B0E491A600A600D4A106008221443E1
:1054F0001C60F8BD006CDC02FFFF00000090034060
:1055000004900340089003404006D0000080034010
:10551000048003400880034000A0034004A003402F
:1055200008A0034010B51A2818D80C2358430C4A79
:10553000835810181C7D027A224205D0002901D020
:105540001A710BE01A7209E043681A68002902D048
:1055500003210A4301E002218A431A6010BDC046BC
:10556000F095000000231A280AD80C335843054A46
:1055700083581018007A1B7C0340581E8341DBB20D
:1055800018007047F0950000F0B51A282FD80C22AB
:1055900017004743164CE5196B682600012901D016
:1055A000042911D1504334583018257D027A202027
:1055B0002A432275A22252001A601A68042901D1D6
:1055C000024313E0824311E038592C7A027DA24352
:1055D00002758022002908D0022902D10422FF325C
:1055E00004E00022032901D1812252001A60F0BD9B
:1055F000F095000070B5434B04001A280ED11B78BB
:105600000B2B03D80C22D31A994003E00C2B01D0AA
:105610000C3B19410800FFF7DFFE72E001251A7804
:105620002B009340002901DC002102E08B4205D8C9
:1056300029002000FFF776FF29005FE02300103BE0
:105640000338012B01D8304B05E0C3B2012B01D840
:105650002E4B00E02E4B1B6801334B43D3401428E4
:1056600043D801F0B1FF353B421F4242151A424276
:10567000424242292F424224420B1000254A136025
:10568000254A264B2FE0264A1360234A254B2AE061
:10569000254A1360204A254B25E0254A13601E4AFF
:1056A000244B20E0244A13601B4A244B1BE0244A6D
:1056B0001360194A234B16E0234A1360D122234B6F
:1056C000920010E0224A1360D122224B92000AE09D
:1056D000214A1360D122214B920004E0204A13603A
:1056E000D122204B92001A600BE001237F2900DCBD
:1056F0000023D9B22000FFF715FF01212000FFF79A
:1057000043FF70BDFA0200200890034008A0034048
:1057100008800340108003404404000004B00440AB
:105720001880034008B00440208003400CB00440BF
:105730002880034010B004403080034010C0044073
:105740003880034014C004401090034000A004407F
:105750001890034004A0044010A0034004900440AB
:1057600018A003400890044072B60C4B1A680C4B0A
:1057700018680C4B1B6862B65B0104D53223934258
:105780009B415B42C018084B9A1A084B5A43FA23B4
:105790009B005843920D10187047C04618E000E077
:1057A000300F002004ED00E07FBB000055550100E4
:1057B00070B50400FFF7D8FF0500002C0FD0FFF7ED
:1057C000D3FF074B401B984206D9013C002C06D062
:1057D000FA239B00ED18F2E701F058FCEFE770BDEB
:1057E000E703000080221E4BD20510B51A6080220C
:1057F000002012061A601B4B1B4918601B4B1C4AE9
:105800001960282313601B4A1B4C13601B4A13604A
:105810001B4A13601B4A13601B4A13600922226053
:105820001A4C20601A4C21601A4C23601A4C2360D9
:105830001A4C22601A4C20601A4801601A490B6009
:105840001A490B601A4B1A60FFF736FD3220FFF73A
:10585000AFFF00F03BFDAF204000FFF7A9FF10BDF8
:1058600000E100E004800340FFBF00000880034027
:105870000C80034014800340008003401C800340E0
:10588000248003402C800340348003400490034074
:10589000089003400C900340149003400090034094
:1058A00004A0034008A003400CA0034014A0034040
:1058B00000A003408021204A490113680B43136074
:1058C00000231E4A13701E4A13701E4A13701E4A8C
:1058D00013701E4A13701E4B1B78062B04D0072B27
:1058E00005D11C4A1C4B01E01A4A1C4B1A601C4B88
:1058F0001B78082B05D0142B07D1D122194B92000D
:1059000002E0D122184B92001A60184BC204D20E4A
:105910001A700022C0B258709A702C32DA70144A91
:10592000144B11680B408021C9030B431360802284
:10593000114BD2011A60704734800440A40F00203C
:10594000390F0020AC0F0020A50F0020380F0020D9
:10595000FB0200201303000008C0044010C00440F4
:10596000FC02002014C004400CC0044000C00640EB
:105970000CE400E0FFFF00FF00E100E0F8B51F4B82
:1059800006001B68DB0437D51D4B1B68002B02D0BB
:105990001C4A12781A711C4D2C780134272C0AD914
:1059A000002408E001F006FC402815DC17490B79BB
:1059B0005BB2002B04DB164F3B78A342F2D010E021
:1059C0003B780133272B00D90023124AD25CDBB28B
:1059D000D2B2CA713B70EEE7FF28ECDD01F056FB56
:1059E000E9E701220B4BF6B21E550B4BE4B21A70DD
:1059F000064BAB322C70DA70F8BDC04634800440E0
:105A0000A80F0020A30F0020AC0F002000C006400C
:105A1000A50F00203A0F0020380F0020054B187802
:105A2000054BC0B21A78D3B2984200D24030C01AA7
:105A30007047C046A40F0020390F002030B52C4A13
:105A400013799B0623D52B4BD47918781900013094
:105A5000E4B200233F2800DC03002748007883429B
:105A600003D02648C454D8B20870254908680028D5
:105A70000DD024490978C9B28B4201D35B1A01E0E9
:105A80005B1A4033272B02DD1F4B1B780371D17843
:105A90001748C9B24BB2002B17DA03795BB2002B5F
:105AA00013DA1A4B174C1D782378DBB29D4202D1D2
:105AB0006C23C37009E00133272B00D9002314485D
:105AC000C05CDBB2C0B2D0712370402319420ED04B
:105AD000117919420BD000210E4B19700E4B1B6827
