:1000000000180020C1000000E1710000A57100008F
:10001000A5710000A5710000A5710000A571000088
:10002000A5710000A5710000A5710000E17100003C
:10003000E1710000A5710000E17100009571000000
:10004000E1710000E1710000E1710000E171000068
:10005000E1710000E1710000E1710000E171000058
:10006000A9520000E1710000E1710000E17100009F
:10007000F5720000CD730000FD5A0000E171000030
:10008000E1710000E1710000E1710000E171000028
:10009000E1710000E1710000956D0000E171000068
:1000A000695D0000E1710000E1710000E171000094
:1000B000E1710000E1710000E1710000E1710000F8
:1000C000F8B507F091F80821474A484B1A60484AAA
:1000D000484B1A60484A494B1A60494B1A780A4201
:1000E00002D01A780A431A702A22464B46481A70E0
:1000F00000234649464C1A188A4203D2E558043375
:100100001560F8E70021434B434A934201D202C3F2
:10011000FBE70023414A424958589446985004331B
:10012000C02BF9D100210326FF2580248A083D4BEE
:100130009200D2180B002F003340DB009F40106864
:100140000131B84307002000984003003B4313608F
:100150002029EBD16246344B1A608A22334B1A7045
:10016000334B663A5A707C321A709E3A9979114232
:10017000FCD0102299791142FCD10C209A792C499B
:100180000240082AFAD1053A0A713D324A71203AF2
:1001900099791142FCD0402299791142FCD025492D
:1001A000254A11602021224A117014399A790A4097
:1001B0000C2AFBD1214A224B1A60224A224B1A6098
:1001C0000022224B1A60224B07321A60214A224B2E
:1001D0001A6062B605F066FB08F02CFA07F00AF820
:1001E00006F088FFFEE7C046300004F0348004408B
:1001F000823F0000388004400100000F3C80044032
:1002000002D0074000E0074030020020D405002063
:10021000A8980000D40500203C12002000F9FF1F20
:100220000000000000E400E008ED00E0005006409F
:10023000004006400000011044800440C000050555
:10024000048004407FBB000014E000E018E000E000
:1002500010E000E00000202020ED00E0FFFFFFFFA5
:10026000FFFFFFFFFFFFFFFFFFFFFFFFFFFFFFFF9E
:10027000FFFFFFFFFFFFFFFFFFFFFFFFFFFFFFFF8E
:10028000FFFFFFFFFFFFFFFFFFFFFFFFFFFFFFFF7E
:10029000FFFFFFFFFFFFFFFFFFFFFFFFFFFFFFFF6E
:1002A000FFFFFFFFFFFFFFFFFFFFFFFFFFFFFFFF5E
:1002B000FFFFFFFFFFFFFFFFFFFFFFFFFFFFFFFF4E
:1002C000FFFFFFFFFFFFFFFFFFFFFFFFFFFFFFFF3E
:1002D000FFFFFFFFFFFFFFFFFFFFFFFFFFFFFFFF2E
:1002E000FFFFFFFFFFFFFFFFFFFFFFFFFFFFFFFF1E
:1002F000FFFFFFFFFFFFFFFFFFFFFFFFFFFFFFFF0E
:10030000FFFFFFFFFFFFFFFFFFFFFFFFFFFFFFFFFD
:10031000FFFFFFFFFFFFFFFFFFFFFFFFFFFFFFFFED
:10032000FFFFFFFFFFFFFFFFFFFFFFFFFFFFFFFFDD
:10033000FFFFFFFFFFFFFFFFFFFFFFFFFFFFFFFFCD
:10034000FFFFFFFFFFFFFFFFFFFFFFFFFFFFFFFFBD
:10035000FFFFFFFFFFFFFFFFFFFFFFFFFFFFFFFFAD
:10036000FFFFFFFFFFFFFFFFFFFFFFFFFFFFFFFF9D
:10037000FFFFFFFFFFFFFFFFFFFFFFFFFFFFFFFF8D
:10038000FFFFFFFFFFFFFFFFFFFFFFFFFFFFFFFF7D
:10039000FFFFFFFFFFFFFFFFFFFFFFFFFFFFFFFF6D
:1003A000FFFFFFFFFFFFFFFFFFFFFFFFFFFFFFFF5D
:1003B000FFFFFFFFFFFFFFFFFFFFFFFFFFFFFFFF4D
:1003C000FFFFFFFFFFFFFFFFFFFFFFFFFFFFFFFF3D
:1003D000FFFFFFFFFFFFFFFFFFFFFFFFFFFFFFFF2D
:1003E000FFFFFFFFFFFFFFFFFFFFFFFFFFFFFFFF1D
:1003F000FFFFFFFFFFFFFFFFFFFFFFFFFFFFFFFF0D
:10040000FFFFFFFFFFFFFFFFFFFFFFFFDEF9FFFF23
:1004100010B5064C2378002B07D1054B002B02D0DA
:10042000044800E000BF0123237010BDD405002064
:1004300000000000A8980000084B10B5002B03D066
:100440000749084800E000BF07480368002B00D1B7
:1004500010BD064B002BFBD09847F9E700000000C9
:10046000D8050020A8980000D40500200000000056
:1004700070B5040008000D0008F011FA23680200AE
:1004800029005B682000984770BD10B5FFF7F0FFAA
:1004900010BD70B5050006F0D7FC0400280006F07A
:1004A00093FC001970BDFFFF70B5274B1B78002B24
:1004B00048D0264E33785A1C32700A2B42D9244C2D
:1004C00024492000FFF7E1FF234B2000196806F0C4
:1004D000BBFC224D20002900FFF7D7FF204B200056
:1004E000196806F0B1FC29002000FFF7CEFF1D4B74
:1004F0002000196806F0A8FC29002000FFF7C5FFBE
:10050000194B2000196806F09FFC29002000FFF716
:10051000BCFF164B2000196806F096FC290020004D
:10052000FFF7B3FF124B2000196806F08DFC29007D
:100530002000FFF7AAFF0F4B20001968FFF7A9FF63
:100540000023337070BDC046F8050020F20500207E
:100550001803002072890000F40500207A89000049
:100560000406002008060020FC05002018060020D4
:10057000280600202C06002010B503F053F80120B7
:1005800002F0CEFC042002F0CBFC022002F0C8FCFA
:100590000023024A1370024A137010BDF60E0020A9
:1005A000F70E0020F8B50325414B42481968424C2C
:1005B000424E0278002A74D022782A4271D01A68FA
:1005C0003768D21B182A6CD900F086FC3C4C237883
:1005D000012B07D13B4D3C492800FFF749FF28007C
:1005E00006F0F2FB394804F03FFC394B0021187843
:1005F00005F02AF8374E3849307804F08BFF374D34
:100600000121287805F020F82878002104F0EAFF7D
:100610003078012105F018F82878002104F0E2FF75
:1006200000252F4B0221E85C013505F00DF8032D64
:10063000F7D100252B4B0121E85C013505F004F8CA
:10064000032DF7D1FFF798FF00F0D6FD00231A0025
:10065000254E264899194A801918043300250A6046
:100660004C2BF7D1224B1D8000F0DAFD00F0D2FCBC
:1006700002F07EFB2800012102F01EFA0A221D4B27
:1006800025781A701C4B0F321A70012D0FD10D4CAA
:100690001A492000FFF7F9FE29002000FFF7F9FEB4
:1006A00005E01A68164F521ABA4282D98CE7F8BD93
:1006B000280F0020BB100020D8100020341200208A
:1006C0000E060020180300207C8900009002002004
:1006D0006D0200206C020020007014473B020020D5
:1006E0006E02002038020020840B00209C0A0020AB
:1006F000E80A00203006002024060020BB89000004
:10070000C4090000024B1870024B19707047C046B4
:10071000300600202406002070B5284B1A78284B9C
:100720001878002A45D0002104F05CFF254A117892
:10073000002918D1244D254C2B782078DB0700D5D3
:10074000012104F04FFF2B786078013300219B07D3
:1007500000D4012104F046FF2B78A078013300215A
:100760005B0727D425E01A4B1C78002C1ED10126EC
:10077000184801390078154DC9B2187011702878E1
:10078000314209D0210004F02DFF6878210004F0E7
:1007900029FFA87821000DE0310004F023FF6878DC
:1007A000310004F01FFFA878310003E0013C1C7009
:1007B00002E0012104F016FF70BDC0468402002053
:1007C0003B020020300600201406002038020020E2
:1007D000C107002024060020F8B5164B1E88002E05
:1007E00026D0154D2B88002B02D0012B0BD01FE0FB
:1007F000124B09201A88124B198806F0D3FB2B885C
:1008000001332B8014E00F4F0C4B3C8818880E4BA3
:1008100001341B88A4B23C80C018052106F010FFEB
:10082000844205DD034B013E1E8000232B803B806C
:10083000F8BDC0461C060020C2070020120600209A
:10084000260600200C060020F0050020F7B50E203B
:1008500004F0DAFD7D4D2860152004F0D5FD7C4CB8
:100860003221E37D584306F061FE7A4B80B2019558
:100870000094794D984201D8286001E0754B2B60B7
:100880002B68002B01DA00232B60142004F0BCFD40
:10089000009B32219B7D584306F048FE6D4B80B291
:1008A0006E4C984201D8206001E06A4B23602368B7
:1008B000002B01DA00232360172004F0A5FD009B24
:1008C00032215B7E584306F031FE624B80B2644EAB
:1008D000984201D8306001E05E4B33603368002BF2
:1008E00001DA00233360162004F08EFD009B3221D4
:1008F0001B7E584306F01AFE564B80B2594F984261
:1009000001D8386001E0534B3B603B68002B01DAB3
:1009100000233B60009BDB8BB42B11D0872252005D
:10092000934218D05A2B21D12A684F4B1A60336852
:100930002B60236833604B4B19681A60216015E007
:1009400022682B682A60474A4749236013680B6076
:100950003168116009E02B68434A1360414A11680D
:1009600029602168116032682260336006F06AF8FD
:10097000002806DD06F01EF83C4B186004F09EF9D6
:10098000F4E73B4B1B78002B59D03A4A1388002BD5
:1009900012D13A6833689B1A374A0021525E9B1A7B
:1009A000364A136022682B689B1A354A0021525E32
:1009B0009B1A344A136015E0013B9BB21380002B55
:1009C00010D1284A3368126821689A1A009B12B223
:1009D0005A832B685B1A00991BB28B8326490A80C5
:1009E000274A1380FFF760FD009B244804229A5E8B
:1009F00003685142994201DDD31804E09A4201DABA
:100A00009B1A00E000230360009B1E4906229A5EA9
:100A10000B6854429C4201DDD31804E09A4201DA8B
:100A20009B1A00E000230B60019B09681A680068AC
:100A300003F0E8FC144B186804F01AFF01E000F022
:100A4000F3FDFFF769FEFFF7C7FEF7BDF4050020D1
:100A50003C020020FF0300000406002008060020DE
:100A6000FC050020180600202006002000060020BB
:100A700084020020800200201006002028060020AA
:100A8000160600202C06002034020020013810B584
:100A90000A283FD806F036FD0B0F2426060831340D
:100AA00029382C00C82200E06422C82123E0C82293
:100AB000C82152002BE0184A1388002B2AD1FA20B3
:100AC00089B2C8334B43C0001B181448013103805E
:100AD0009620134B11801880124B6438188019E04F
:100AE000C82200E06422962105E01E220E490EE095
:100AF000FA22AF215200490009E005220B4906E025
:100B0000FA210522090102E0FA22E6211201092058
:100B100006F048FA10BDC0461C060020260600203C
:100B200012060020F0050020C40900008813000010
:100B300010B504F0D7FC10BD70B50500FFF798FCA8
:100B40000400280006F040F9001970BDD2B270B55B
:100B50000500002A03D103681B68984714E00A2A9D
:100B600001D0012A04D10022280006F03FF90BE051
:100B7000102A02D106F071F906E0022A02D106F02D
:100B800082F901E006F092F90400280006F01CF951
:100B9000001970BDF0B53B4B85B01B7800900E007E
:100BA0000192394D012B27D1384C39492000FFF7EC
:100BB000C3FF38492000FFF75BFC10222978200092
:100BC000FFF7C4FF34492000FFF752FC00992000D2
:100BD00006F03AF9314F20003900FFF749FC3100A7
:100BE000200006F031F939002000FFF741FC0A220D
:100BF00001992000FFF7AAFF294A009B1168294CA0
:100C00008C4663441360236827489B192360297826
:100C1000036816000090254A994207D11168244BB9
:100C200002911B68029928338B4228D8FF2713684A
:100C3000FD200393039A1E4B1A6004F0FFFE002070
:100C400004F0FCFE032004F0F9FE287804F0F6FE20
:100C50003068384004F0F2FE2068384004F0EEFEC0
:100C6000002004F0EBFE002004F0E8FE002004F079
:100C7000E5FE0023009A336023602B78136005B0F3
:100C8000F0BDC0460E060020D40700201803002047
:100C9000C5890000D7890000E3890000F0890000C1
:100CA000C8070020CC070020DC070020280F002008
:100CB000D007002010B5054A1378184310700022A1
:100CC00011001000FFF766FF10BDC046D4070020DA
:100CD00010B5054A137883431370002211001000E9
:100CE000FFF758FF10BDC046D4070020034B1B7808
:100CF0001840431E9841C0B27047C046D407002038
:100D000070B5294B294E1B78294C012B2FD1294D29
:100D100029492800FFF710FF28492800FFF7A8FB02
:100D2000102231782800FFF711FF25492800FFF72E
:100D300003FF217810222800FFF708FF61781022B6
:100D40002800FFF703FFA17810222800FFF7FEFE1E
:100D5000E17810222800FFF7F9FE217910222800FF
:100D6000FFF7F4FE617910222800FFF7EFFEFD2067
:100D700004F064FE307804F061FE002004F05EFEB2
:100D8000207804F05BFE607804F058FEA07804F050
:100D900055FEE07804F052FE207904F04FFE6079B1
:100DA00004F04CFE70BDC0460E060020D5070020A2
:100DB000D607002018030020F2890000078A0000EF
:100DC000148A0000C2B270B50012E02804D10A49AA
:100DD0000B781A430A700CE0F0280AD10023074868
:100DE000195C1C000500002902D001338A42F7D1AA
:100DF0002A55FFF785FF70BDD5070020D6070020D4
:100E000010B5C1B202120023E02A04D10C4A1378B3
:100E10008343137010E00B4A5C1CD3181878884287
:100E200001D02300F7E7991A052903D059781970E2
:100E30000133F8E700235371FFF762FF10BDC0468E
:100E4000D5070020D6070020002310B5054A1370EF
:100E500053709370D37013715371034A1370FFF77B
:100E60004FFF10BDD6070020D5070020F7B500269C
:100E700080270190019B9B5D002B25D05AB2002A50
:100E800008DB124AD45C40231C4204D04023104D9E
:100E90009C4305E0002400253C4204D00D4DBC439A
:100EA0002800FFF78FFFF0231B021C432000FFF7F1
:100EB00089FF2000FFF7A4FF002D02D02800FFF7D4
:100EC0009FFF0136B6B2D5E7F7BDC0469894000043
:100ED00002E0000040E0000010B5074B1B78012B3A
:100EE00003D106490648FFF727FE9C2004F042FD87
:100EF0000122044B1A7010BD0E060020258A000046
:100F000018030020C4070020024B1878431E9841A4
:100F1000C0B27047C407002010B501210C2004F0B6
:100F200093FB01210C2004F05DFBFA20000104F08A
:100F30009FFC0C20002104F087FB10BD07B504F0D6
:100F4000D1FA034B1B680193019A024B1A6007BD4B
:100F5000280F0020D0070020F8B5144E8700BD5997
:100F6000281E21D007F09BFCAF23114A9B000130C3
:100F7000521B84B2D218121B92B22919280007F012
:100F80009CFB0023BB51F258954201D2121BF25038
:100F900004334C2BF7D1074B1888001B80B2188004
:100FA000AF239B00181A80B2F8BDC0469C0A0020EF
:100FB000E0070020E80A0020F8B50F000500FFF761
:100FC000CBFF104B38001C8807F069FC0E4A231831
:100FD0000020934214D80D4E39003619300007F026
:100FE00056FC0B4BAD003800EE5007F058FC0134B6
:100FF000044B201880B21880AF239B00181A80B2CF
:10100000F8BDC046E80A0020BA020000E007002050
:101010009C0A002070B519231B251226154C164971
:101020002380A5802581A6810320FFF7C5FF2682A6
:1010300012490420FFF7C0FFA68211490520FFF7DF
:10104000BBFF26830F490620FFF7B6FF4523A38386
:10105000423BA3841F332385A31CDD872584A585FC
:101060002586A5862587A587A31D4834DD8725808D
:1010700070BDC046840B0020348A00003C8A00000A
:10108000468A0000508A000010B5064B8200064CCC
:1010900099180220095E985C0123125900F03CFC6B
:1010A00010BDC046840B00209C0A0020244A80000A
:1010B000835A10B5392B26D00ED8082B21D004D84E
:1010C000062B18D0072B18D039E00F2B2FD0102B60
:1010D00035D100221B4B2CE0462B0ED004D83D2BE3
:1010E00029D0452B07D02AE0472B0AD04C2B26D1FC
:1010F00002F06EFA23E0012000E0022001F010FF70
:101100001DE00420FAE710184388013BDBB21F2BD7
:1011100015D801229A4013000B490A689A430B4BD9
:101120000A601B78002B0AD105F088F907E000223D
:10113000074B1A7003E0074BC05803F054F910BD79
:10114000840B0020F70E002014120020F81000205D
:10115000F60E00209C0A00200C4B8000C35A012090
:101160009A1F022A10D9333A92B2132A05D8084995
:10117000D1400A000100914306D0002001220F3B1C
:101180009BB29A424041C0B27047C046840B0020D7
:101190001170080073B5164A0500C000141866786F
:1011A0008E4220D1835C062B12D80133DBB28354EC
:1011B000072B0DD1A378B3420AD0A6702800012EC8
:1011C00008D1FFF761FF0B4B1B680193019B636024
:1011D00000240BE0FFF7C0FF0124002806D0280000
:1011E000FFF764FF02E0617000248454200076BDA4
:1011F000EC0A0020280F00200021064A531C9932D7
:10120000581E197059700170997008339342F7D1C4
:101210007047C046EC0A002010B504F063F910BD19
:10122000024B034A1A80034A5A807047D40B0020AD
:101230004054000001A4FFFF10B5074C0721200017
:1012400005F02AFC20000421083005F025FCA188C7
:10125000024805F021FC10BDD40B0020608A00007C
:1012600070B50425074C07212000A58005F014FC6B
:1012700020002900083005F00FFCA188024805F085
:101280000BFC70BDD40B00205C8A0000002310B55D
:10129000054C07212000A38005F0FEFB200004215F
:1012A000083005F0F9FB10BDD40B002010B5084C38
:1012B0000721200005F0F0FB20000421083005F094
:1012C000EBFB2000A1880C3005F0E6FB10BDC0460A
:1012D000D40B00200D4B0E4A1B6812680D499B1A57
:1012E0000D4A9BB213731B1253730C4B09681B6896
:1012F0005B1A9BB293731B12D373094B1B68137455
:101300001B125374062393807047C046FC050020CF
:101310001806002008060020D40B00200406002038
:10132000F405002070B50E4D287804F07BF9444296
:1013300044416878E4B204F075F9002801D1022331
:101340001C43A87804F06EF9002801D104231C4343
:10135000044B00201A78A24201D01C70013070BDED
:101360006E020020180C002010B5FFF7DBFF034AC7
:10137000034B12781A7301229A8010BD180C0020BA
:10138000D40B002070B5394C394B258962891D81F9
:10139000A17906029971D1B28E195E8101001023E4
:1013A00019405FD1D2B22379112A1AD004D8002A69
:1013B00007D0102A28D055E0812A07D0822A08D0E9
:1013C00050E0002B4ED1FFF737FF4DE0002B49D105
:1013D00004E0002B46D1274A01331370264A1370CC
:1013E00040E0022D08D0032D09D0002D3AD1002B6A
:1013F00038D1FFF735FF37E0FFF76CFF01E0FFF76B
:10140000B3FFFFF753FF2FE0042D0FD0052D26D09B
:10141000012D27D1022B25D1237B184A1380637B12
:1014200011881B02CB189BB213801BE0012B19D132
:10143000257B134C20781D4200D1190004F0D2F80E
:1014400060780021AB0700D4012104F0CBF8A0782C
:1014500000216B0700D4012104F0C4F802E0094820
:1014600003F0AAFBFFF712FF012070BDF80B00206C
:10147000D40B00208202002084020020F40B002004
:10148000380200203106002070B55D4C0300207842
:101490000F2800D9A8E006F035F808191E253438C1
:1014A000425A5E65697A9A9C9EA0402B01D13F3BCF
:1014B0009BE020229343412B00D0A0E00021514A21
:1014C000403B1170504A237013708FE0542B00D0B2
:1014D0008AE0523B89E000214C4A11704C4A53800B
:1014E000032382E04A4A1B025188CB189BB25380E7
:1014F000002B04D11021454A13780B4313700423A9
:1015000073E0434A938005236FE0414A1B029188B0
:10151000CB189BB293800F2B66D8062365E03C4A1C
:10152000DDB295713B4A3C481178002901D0002377
:1015300009E07F21027801320A40934204D0334A05
:101540007D3913780B431370057007234DE0304A43
:101550001381082349E02E4A1B021189CB181381FD
:10156000092342E02A4A53810A233EE02B4ADBB298
:101570001370274A9288002A05D00B23002223707B
:10158000274B1A6032E0DB072CD50C232DE0204AD4
:10159000234D118905290AD18C202968FF30814209
:1015A00005D820484354002341184B7002E02968B5
:1015B00051180B732B6801332B609288934215D11D
:1015C000164B1B78DB070DD5237801330DE00D2377
:1015D0000BE00E2309E00F2307E004210B4A1378E8
:1015E0000B431370632300E0002323702378632BE5
:1015F00005D1064B1878FFF7C5FE0023237070BD98
:101600001C0F0020190C0020840200201A0C00205E
:10161000F80B002082020020D00B0020F60B0020E7
:101620001C0C00203106002070B5184D2B88002BB3
:1016300027D0174C23780133DBB2002B00D1802355
:1016400023700223134E33812378B37120237381D7
:10165000FFF740FEFFF72AFEFFF764FE002810D0D8
:1016600023780133DBB2002B00D1802323700323C6
:1016700033812378B37120237381FFF775FEFFF761
:1016800015FE288880B204F0F3F870BDF40B00203A
:1016900083020020D40B002010B503F023FF10BDFF
:1016A00070B50022050005F0A1FB0400280005F03C
:1016B0008BFB001970BDFFFFF0B5774C85B0774903
:1016C0002000FEF7E2FE76492000FFF735FA754963
:1016D0002000FEF7DAFE744D20006978FFF7E0FF86
:1016E00072492000FEF7D1FEA9782000FFF7D8FF4D
:1016F0006F492000FEF7C9FE0423E95E2000FEF7D3
:10170000C8FE6C492000FEF7C0FE0623E95E2000FB
:10171000FEF7BFFE68492000FEF7B7FE29892000CA
:10172000FEF7B7FE65492000FEF7AFFE698920008D
:10173000FEF7AFFE62492000FEF7A7FEA989200050
:10174000FEF7A7FE5F492000FEF79FFEE989200013
:10175000FEF79FFE5C492000FEF797FE297C2000E3
:10176000FFF79EFF59492000FEF78FFE698A20008F
:10177000FEF78FFE56492000FEF787FEA98A20005B
:10178000FEF787FE53492000FEF77FFE29782000F0
:10179000FFF786FF50492000FEF777FEA97D200065
:1017A000FFF77EFF4D492000FEF76FFEE97D200028
:1017B000FFF776FF4A492000FEF767FE297E2000EA
:1017C000FFF76EFF47492000FEF75FFE697E2000AD
:1017D000FFF766FF44492000FEF757FEE98B200023
:1017E000FEF757FE013541492000FEF74EFEE97F26
:1017F0002000FFF755FF3E492000FEF746FE3D4919
:101800002000FFF799F900253B492000FEF73DFE37
:10181000082D03DC39492000FEF737FE0135290089
:101820002000FEF736FE36492000FEF72EFE354E2C
:10183000AB009E190193331F1F88334BBF00DF1984
:10184000390003A807F023F803A92000FEF71DFEC6
:10185000FB78002B18D0022B0DD9032B14D12B4968
:101860002000FEF712FEAB00294A043BD1582000AD
:10187000FEF70BFE08E025492000023EFEF705FEBC
:101880003188200005F0E0FA22492000FFF754F9E2
:10189000132DB9D105B0F0BD18030020668A0000F1
:1018A000710200206C8A00003C020020738A000054
:1018B0007A8A0000818A0000888A00008F8A0000EE
:1018C000968A00009D8A0000A48A0000AB8A00006E
:1018D000B28A0000B98A0000C08A0000C78A0000EE
:1018E000CE8A0000D58A0000DC8A0000E38A00006E
:1018F000EA8A00005D020020F18A000038910000B1
:10190000F88A0000840B0020658C0000EE8900003E
:101910009C0A0020EF890000F0B51500B74A0C00C2
:101920001178E7B00190170000293DD0B44B1B7827
:10193000012B22D1B34EB4493000FEF7A6FD0022A0
:101940003978300005F052FAB0493000FEF79DFDBD
:1019500000220199300005F049FAAD493000FEF748
:1019600094FD2100300005F06FFAA9493000FEF720
:101970008CFD29003000FFF7DFF869463878A54A6A
:101980000138898883009952D3185C80C0B2FFF770
:10199000E3FA002D05D0387829000138C0B2FFF7EE
:1019A0000BFB00233B708BE3019A4E2A00D987E39F
:1019B000100005F0B1FD4F0054006E007800980053
:1019C0008200A200A600AA00BA00BE00C200C600A3
:1019D000CD00D300D600E00094019B01B001B70117
:1019E000BA01CD01E801FF01040216028503760366
:1019F000800323023C02520256025A026E02710216
:101A000074027702B702BA02BD02C002C302C60264
:101A1000C902CC02FF0215035E035B036B03EA00FD
:101A2000FD00070119014901550160016D016403C1
:101A3000A2017A027D028002B302CF026803FB0298
:101A4000A200A600AA00AE00B200B600A9013A03A7
:101A50005003230370496B48FFF76EF830E3FEF73D
:101A60008BFD674B1B78012B08D1664D6B49280015
:101A7000FEF70BFD21002800FEF70BFD631E9BB255
:101A8000122B01D83C701BE365495E48FFF754F800
:101A900016E3012001F05CFA082003F0E9FE0120C2
:101AA00001F03EFA0CE3022001F052FA082003F0A4
:101AB000DFFE022001F034FA02E3012001F048FACF
:101AC000082003F0D5FE012001F02AFA082003F0D7
:101AD000CFFE012001F03CFA082003F0C9FE0120EE
:101AE00001F01EFAECE2042001F032FA082003F0C3
:101AF000BFFE042001F014FAE2E2012001F028FA0E
:101B0000DEE2022001F024FADAE2042001F020FAF9
:101B1000D6E2012001F034FAD2E2022001F030FADC
:101B2000CEE2042001F02CFACAE2012001F0F8F91B
:101B3000C6E2022001F0F4F9C2E2042001F0F0F95B
:101B4000BEE2384B187C404240B201F045FAB7E2A1
:101B50001020344B185601F03FFAB1E2314B1C749F
:101B6000AEE2002B02D0304B1C70A9E2190020001D
:101B700001F050FAA4E2002B02D02C4B1C709FE223
:101B80002100180001F046FA9AE2294B29485A68C8
:101B90001040294A944200D91400240104435C6097
:101BA000264B1B78002B00D08AE204F047FC87E22A
:101BB0001F4B23485A6810401F4A944200D9140012
:101BC000A403EBE71C4B9C4200D91C00184A2106D9
:101BD000536890681B021B0A0B4353600323240ABB
:101BE000984304439460DBE7114B16489A68104011
:101BF000114A944200D91400A4002EE0200C0020C9
:101C00000E06002018030020FC8A0000858F0000CB
:101C10007A890000840B0020158B0000248B0000C3
:101C2000479400003C020020F60E0020F70E002032
:101C3000141200200FC0FFFFFF030000F810002067
:101C4000FF3F00FF03F0FFFFC44BC5489A681040F8
:101C5000C44A944200D91400240304439C609FE7C3
:101C6000013CE4B21F2C00D92AE20123A340BB4A65
:101C700011680B430AE0013CE4B21F2C00D91FE2BB
:101C80000123A340B54A116899430B00136087E70D
:101C90000F23002C1CDB0023162C19DD0133432CF1
:101CA00016DD0133702C13DD01339D2C10DD013363
:101CB000CA2C0DDD0133F42C0ADD922201335200CF
:101CC000944205DD5222FF320023944200DC0733A8
:101CD0000F22A2494868904303434B6060E7002D00
:101CE00000D1EDE1280001F035FAE9E1002D00D145
:101CF000E6E1280002F068FBE2E1002D00D1DFE11F
:101D0000280002F06BFBDBE1002D00D1D8E12800B8
:101D100002F06EFBD4E1002D00D1D1E1280002F0E9
:101D200062FBCDE1FEF728FCCAE1FEF725FC002DA1
:101D300000D1C5E12B78002B00D1C1E1280006F0CD
:101D4000AEFD0E2800D9BBE1280000F079FCB7E118
:101D5000002D00D1B4E1FEF70FFC280000F0B2FE28
:101D60000022814B81491A70814BDA8A8A4203D161
:101D7000198B914200D1A3E1598B7E4A11809A8B35
:101D80007D4B1A809CE1FEF7F7FB0223764D002481
:101D90002B7000F0EDFF0022200001341100E4B2AE
:101DA00000F06AFD072CF6D100200121287000F018
:101DB00083FE85E1FEF7E0FB01F052F880E16F4B16
:101DC000694C1D78012D04D16D496E48FEF75DFB0D
:101DD0002570FEF7D1FB002000F074FE0023237075
:101DE0006EE1664B1B78012B03D167496548FEF70E
:101DF000A3FEFEF7C1FB00F09BFA61E15C4BE4B28D
:101E00001C705E4B1B78012B00D059E15D48012C02
:101E100003D15E49FEF790FE52E1012C03D95C49E3
:101E2000FEF78AFE4CE15B49FEF786FE48E1534B24
:101E30001B78012B03D158495248FEF77DFE0F2134
:101E40000620FEF75FFC4A4B1A78002A02D10132C5
:101E50001A7035E100221A7032E101224F4B1A70DC
:101E60002EE100224D4B1A702AE1444B1B78012BC6
:101E700003D14B494348FEF75FFE14210A20FEF7C9
:101E800041FC6422474B002101201A80FEF7FEFD31
:101E900016E1374B5C7013E1354B9C7010E1344B0D
:101EA0009C800DE1324BDC800AE1314B1C8107E163
:101EB0002F4B5C8104E1314B1B78012B08D1314C55
:101EC00039492000FEF7E1FA29002000FEF734FE30
:101ED0002B78002B00D1F3E000231A002978002989
:101EE00011D03B2902D1002A04D10CE05C2901D198
:101EF000002A05D05A1C02A8C154D3B2002200E027
:101F000001220135EAE7002202A90800CA5402F0C2
:101F100053FE2B785A1E9341ED18D9E7200003F0A9
:101F2000A7FCCDE0124B9C81CAE0114BDC81C7E0DD
:101F30000F4B5C82C4E00E4B9C82C1E00C4B9C7545
:101F4000BEE00B4BDC75BBE0094B1C76B8E0084BE0
:101F50005C76B5E0064BDC83B2E0C046141200208C
:101F6000FF0FC0FFFF030000F30500203232000026
:101F70003C02002010060020160600200E0600205D
:101F8000398B000018030020488B0000558B00009F
:101F90006E8B00008A8B0000AA8B0000F8050020E1
:101FA000CE8B000080020020E08B0000454B013307
:101FB000DC7785E0444B1B78012B03D1434944482F
:101FC000FEF7BAFD002D7BD02B78002B78D02800AF
:101FD00006F065FC0E2873D8280001F033F96FE095
:101FE000394B1B78012B03D13A493948FEF7A4FD40
:101FF000002D65D0280001F0CDFA61E0324B1B784E
:10200000012B03D134493248FEF796FD002D57D0FD
:102010002B78002B54D0280006F041FC0E284FD816
:1020200029002E4806F033FC4AE0274B1B78012B91
:1020300003D12B492648FEF77FFD002D40D02B7899
:10204000002B3DD0280006F02AFC0E2838D82800A6
:1020500001F0AEFA34E01C4B1B78012B03D121496F
:102060001B48FEF769FD01F0B3FA29E001F098F989
:1020700026E0002D24D0280001F096F920E0A0B23F
:1020800001F0B2FA1CE001F0A9FA19E001220E4BAE
:1020900015491A70154B92180D481A70FEF74CFD31
:1020A0000EE00123084A12491370104A08481370C1
:1020B000FEF742FD04E00023034A13700B4A13703D
:1020C00067B0F0BD3C0200200E060020EF8B000040
:1020D00018030020018C0000118C00005D0200201C
:1020E0002E8C00003E8C00004E8C0000210C002045
:1020F0005D8C000010B503F0F5F910BD10B500229D
:1021000004F074FE10BD10B5002204F06FFE10BD87
:1021100010B503F0E7F910BDF8B51C4CA022230060
:102120003B331A70230001275E331F702300050024
:102130000E00010A5D33C9B220001F7002F044FE98
:10214000E9B2200002F040FE3100200002F03CFE27
:102150003900200002F058FF052003F089FB0C4BEA
:102160001B78022B10D10B4C0B492000FEF78DF988
:1021700029002000FFF7C7FF08492000FEF785F976
:1021800031002000FFF78CFAF8BDC0469002002015
:10219000210C002018030020A18D0000ED89000013
:1021A000F7B50D00002400902A5D002A02D001340A
:1021B000A4B2F9E734345649A4B200238858C65C67
:1021C000002E02D001339BB2F9E70533E418043244
:1021D000A4B24C2AF1D14F4F3B78012B00D08CE0B8
:1021E0004D4E4E493000FEF750F921003000FEF709
:1021F00050F9009B002B02D19023494A1380009B89
:10220000474A5B00D45A3B78012B08D1424E4549DE
:102210003000FEF73AF921003000FEF73AF970215C
:102220002000FFF779FF601C80B20221FFF774FFE6
:102230000026A71CBFB23C4BB819995D80B201368D
:10224000FFF76AFF302EF6D127003234A0B200210A
:10225000FFF762FF00263337BFB2A95D01363800B1
:10226000B6B2FFF759FFAB19013B7C1C1B78A4B237
:102270002700002BF1D11D0000262C4FEF19A019CB
:10228000B95D80B20136FFF747FF042EF7D1201D5C
:1022900080B20021FFF740FF661D1D4B9334FF34D1
:1022A0005F59A3B2B6B2019339783000FFF734FF1B
:1022B0003B78741CA4B2002B03D104354C2DDBD128
:1022C00005E0019B013726009C42EDD1F5E7009B1C
:1022D000062B03D1124B8E331C8004E0009B104A66
:1022E00001335B00D45200240D4B2000195D0134F2
:1022F000FFF712FF902CF7D108E0009B002B00D1D4
:102300007AE7009B064A5B00D45A88E7F7BDC046CF
:102310009C0A0020210C002018030020AB8D000037
:10232000220C0020B68D00003C020020840B00200F
:1023300070B5104B1B78012B03D10F490F48FEF7E6
:10234000FBFB002426000E4D0021605BFFF7E4FE3E
:10235000605B00210130FFF7DFFE665302340E2C74
:10236000F1D10024295D20000134FFF7D5FE902C27
:10237000F8D170BD210C0020C78D0000180300208B
:10238000220C0020F0B585B00293040000230191D7
:102390000392019AD25C002A02D001339BB2F8E783
:1023A000404F414D3B78012B72D1404E40493000A7
:1023B000FEF76BF8029B3000D91CFEF76AF8002C80
:1023C00001D13C4BEB81231D5B00ED183B78EE887F
:1023D000012B08D1354D38492800FEF756F8310059
:1023E0002800FEF756F830006621B51E013EFFF7C3
:1023F00093FEB0B2BB21FFF78FFE0026ADB2019B6A
:102400002800995DFFF788FE0136019BB6B29B1943
:10241000013B1B786F1EBFB2002B01D03D00EEE7E1
:10242000AB1E9BB2029938000193FFF775FE6B4615
:102430001B89039E02935B00ED1A023DABB2019D26
:102440000393039B9D420ED031782800FFF764FE72
:102450006F1E3188BFB2023D090A3800ADB2FFF7E6
:102460005BFE0236EDE7029B019A5B00D31A9BB23A
:102470000D4D3E2C03D0053464002C19E38000245C
:10248000295D20000134FFF747FE902CF8D106E0CB
:10249000002C96D0231D5B00ED18EE88A3E705B055
:1024A000F0BDC046210C0020220C002018030020A3
:1024B000DA8D0000FF7F0000E88D000070B5234C2E
:1024C000A02223003B331A70230001265E331E70C6
:1024D00023000500010A5D33C9B220001E7002F01E
:1024E00073FCE9B2200002F06FFC3100200002F022
:1024F0008BFD330032005021200002F007FE230044
:1025000022003933383219781378FE36994206D0D2
:102510000026994203D9591C1170E418267E0C4BF1
:102520001B78022B10D10B4C0B492000FDF7ADFF9F
:1025300029002000FFF7E7FD08492000FDF7A5FF6F
:1025400031002000FFF7ACF8300070BD9002002091
:10255000210C002018030020FD8D0000ED890000F3
:10256000F0B5002485B001902E4B6200D55A002DA5
:1025700043D02800FFF7A2FF70283ED1681C80B22C
:10258000FFF79CFF022838D100273335ABB2019DFD
:102590000393039B019A2E789B1A5B1918000293F0
:1025A000FFF78CFF86421FD01F4B1B78022B24D1D4
:1025B0001E4E1F493000FDF768FF39003000FFF75D
:1025C000A2FD1C493000FDF760FF287804F0D4FA22
:1025D00019493000FDF759FF0298FFF76FFF01001E
:1025E0003000FFF75DF808E02B78002B03D00137AF
:1025F00001350F2FCDD160B211E00134072CB3D1DA
:10260000094B1B78012B08D1084C0C492000FDF721
:102610003CFF01992000FEF78FFA0120404205B0EF
:10262000F0BDC046220C0020210C00201803002021
:10263000078E0000EE8900001B8E00001E8E000039
:10264000F8B50600FFF78CFF431C2DD10024174B73
:102650006200D55AE7B2002D06D1154B1B78012B2D
:102660001AD1144D144910E02800FFF727FF7028F5
:1026700017D00135A8B2FFF721FF022811D00C4B6B
:102680001B78012B08D10B4D0C492800FDF7FDFEEE
:1026900039002800FFF704F860B23100FFF780FD31
:1026A00002E00134072CD2D1F8BDC046220C002034
:1026B000210C002018030020318E00003C8E000009
:1026C000F0B5002485B00090E3B2394A039363006B
:1026D000D318DD89002D56D02800FFF7EFFE6628BD
:1026E00051D1681E80B2FFF7E9FEBB284BD100260E
:1026F000023D009FADB23B780193AB1B18000293E3
:10270000FFF7DCFE019B83421FD02A4B1B78022B74
:1027100039D1294D29492800FDF7B7FE310028009D
:10272000FFF7F1FC26492800FDF7AFFE387804F0EA
:1027300023FA24492800FDF7A8FE0298FFF7BEFE01
:1027400001002800FEF7ACFF1DE03B78002B03D012
:10275000013601370F2ECED1164B1B78012B10D12D
:10276000154D19492800FDF790FE00992800FDF746
:102770008CFE16492800FDF788FE03992800FEF715
:102780008FFF60B211E001343F2C9DD1094B1B78C3
:10279000012B08D1084C0E492000FDF776FE009968
:1027A0002000FEF7C9F90120404205B0F0BDC04647
:1027B000220C0020210C002018030020078E0000AE
:1027C000EE8900001B8E00004D8E0000428F00003D
:1027D0001E8E0000F8B503780700214C002B26D090
:1027E000FFF76EFF1F4BC5B21B78012B10D11E4E99
:1027F0001E493000FDF749FE39003000FDF745FE67
:102800001B493000FDF741FE29003000FEF748FF6C
:1028100004356D006419E08890281FD9FF21FFF767
:102820007BFCE088FF210138FFF776FC16E02500ED
:1028300010490D48FEF780F90E358C342888902811
:1028400007D9FF21FFF768FC2888FF210138FFF72F
:1028500063FC00232B800235A542EFD1F8BDC046B2
:10286000220C0020210C0020180300205F8E0000A5
:10287000428F00006E8E0000F0B585B00500029218
:10288000062800D900257C4F002935D06B00019324
:10289000FE5A7A4B1B78012B08D1794C79492000DC
:1028A000FDF7F3FD29002000FEF7FAFE741C30004E
:1028B000A4B2FFF703FE70280CD102362000B6B296
:1028C000FFF7FCFD022804D16B00FC5A6E4B1D7013
:1028D00004E034000135EDB2072DD7D12000FFF719
:1028E000EDFD702800D0B2E0601C80B2FFF7E6FD7D
:1028F000022800D0ABE00EE06D007C5B2000FFF70B
:10290000DDFD702800D0B4E0601C80B2FFF7D6FD7A
:10291000022800D0ADE00234A4B2584B1A780393D9
:10292000012A08D1564D59492800FDF7AEFD210076
:102930002800FDF7AEFD0025601980B2FFF7BEFD4F
:10294000534B58550135302DF6D1524E31343700A6
:10295000A4B22000FFF7B2FD651CADB230702C00B0
:1029600001360028F5D14C4B1B78012B08D1444C83
:102970004A492000FDF789FD39002000FEF7DCF808
:1029800000260024F3B20193454BB700FF18281925
:1029900080B2FFF793FD38550134042CF7D1281D80
:1029A0006C1D80B2A4B2FFF789FD00280BD0344F14
:1029B0003C493800FDF769FD601EFFF77FFD01000F
:1029C0003800FEF76DFE2000FFF778FD002814D0D8
:1029D00000272000FFF772FD3349651CADB2C855D2
:1029E000002803D10198FEF7E7FA08E08E230137AB
:1029F000FF332C009F42ECD1F4E70635ADB201362F
:102A0000132EBED1294B1A781D00002A01D0FEF7E3
:102A100053FE029B002B04D01B4B02201978FEF7BB
:102A200035F8039B1B78002B09D0154C204920005A
:102A3000FDF72BFD144B20001978FEF731FE2B78A3
:102A4000002B16D01B490E48FEF776F811E03C88A3
:102A50002000FFF733FD70280BD1601C80B2FFF718
:102A60002DFD022805D10022074B0234A4B21A70B2
:102A700053E705B0F0BDC046220C0020210C002019
:102A800018030020848E000014060020948E00009D
:102A90003C020020710200200E060020B38E0000D0
:102AA000840B0020C38E000031060020F3050020B7
:102AB000DC8E0000D991000010B50122FFF7DCFE8A
:102AC00010BDFFFF70B503780600002B04D1134B37
:102AD00018780130C0B21AE0FFF742FD104B040035
:102AE0001B78012B10D10F4D0F492800FDF7CDFCAD
:102AF00031002800FDF7C9FC0C492800FDF7C5FC92
:102B000021002800FDF7C5FC002C02DBE0B201210A
:102B100001E001210020FFF7CFFF70BD1406002067
:102B2000210C002018030020E68E0000428F0000D8
:102B3000F7B5070000910192FFF7C2FD431C29D1B0
:102B40000025154A6B00D318DC89EEB2002C0AD0A0
:102B50002000FFF7B3FC662819D0013CA0B2FFF7B4
:102B6000ADFCBB2813D00D4B1B78012B08D10C4CAE
:102B70000C492000FDF789FC31002000FEF790FD94
:102B8000019B009A39003000FFF7FCFB02E00135A1
:102B90003F2DD6D1F7BDC046220C0020210C0020CD
:102BA00018030020F18E0000F8B50025184A6B00CC
:102BB000D318DC89EEB22000FFF780FC662822D112
:102BC000601E80B2FFF77AFCBB281CD1114F12495E
:102BD0003800FDF75AFC31003800FFF78FFA023C4D
:102BE0000E493800A4B2FDF750FC661E2000B6B2B4
:102BF000FFF764FC002803D003F0BEFF3400F4E7C5
:102C0000380004F0E1F801353F2DCFD1F8BDC046C2
:102C1000220C002018030020028F0000858F000086
:102C2000F7B50E0000923F2801D9002455E02C4B47
:102C300004302C4D400018182B78C488012B03D188
:102C400029492A48FDF778FF2000FFF737FC66285E
:102C5000EBD1601E80B2FFF731FCBB28E5D12B78A9
:102C6000023CA4B2012B08D1204D21492800FDF7D8
:102C70000CFC21002800FDF70CFC671E2000BFB2F1
:102C8000FFF71CFC002801D03C00F6E73800FFF7F6
:102C900015FC009BA51E5B00E41A023CA3B284B2A3
:102CA000ADB200936300EB1A9BB20193009B9D426F
:102CB00013D0019B9D4210D02800FFF7FFFB6F1E31
:102CC000BFB230803800FFF7F9FB33880002023DC5
:102CD00018183080ADB20236E8E72000FEBDC046CD
:102CE000220C0020210C00200C8F00001803002073
:102CF000228F0000F7B506000F000192FFF7E0FCFD
:102D0000164B04001B78002819DB012B10D1144D41
:102D100014492800FDF7B9FB31002800FDF7B5FB89
:102D200011492800FDF7B1FB21002800FDF7B1FB98
:102D3000E0B2019A3900FFF773FF04000BE00024B2
:102D4000012B08D1064D09492800FDF79EFB3100F3
:102D50002800FDF7F1FE2000FEBDC0460E06002053
:102D6000180300204E8F0000428F0000448F0000A7
:102D7000F8B500252800FFF7A1FB314C2855013597
:102D8000902DF7D100231D002E49CA5C0133AD18E8
:102D9000ADB20E2BF9D12088FFF790FB702838D107
:102DA00020880130FFF78AFB022832D123008C33C0
:102DB0001B88AB422DD1244B1B78012B3ED1234DD8
:102DC00023492800FDF7B8FE0026F1B22800FFF7DE
:102DD00095F9204F28003900FDF757FB7300E15AA1
:102DE00028000136FDF755FB072EEED10026F1B283
:102DF0002800FFF783F939002800FDF746FB730030
:102E0000E318D98928000136FDF743FB3F2EEED1A8
:102E100014E004210220FDF739FE0F490B48FDF7AD
:102E20008BFEFFF785FA0020FFF7D4FC23000B4947
:102E30008C3300201D80FFF7B3F9BCE7F8BDC04616
:102E4000220C0020158B0000210C0020180300200C
:102E50005F8F0000ED890000878F00009C8F0000CD
:102E6000F8B50025174B6A00D45AEEB22000FFF7E0
:102E700025FB702822D1601C80B2FFF71FFB0228BF
:102E80001CD1114F11493800FDF7FFFA310038000D
:102E9000FFF734F933340E493800A4B2FDF7F5FAE0
:102EA000661C2000B6B2FFF709FB002803D003F030
:102EB00063FE3400F4E7380003F086FF0135072D88
:102EC000D0D1F8BD220C002018030020A28F0000F2
:102ED000858F00001F2310B5064A1840117808435B
:102EE000814206D00023107019001A00180003F068
:102EF00009FD10BDC71000201F2310B5074A184058
:102F000011780B008343994206D0137000231A00F6
:102F10001900180003F0F6FC10BDC046C7100020D1
:102F200070B50A4B05005A1CD27F1C00D30701D58F
:102F3000FFF7E2FF631CDB7F9B0706D5FDF7E4FF8D
:102F4000002802D02800FDF7C3FE70BD3C0200201F
:102F500070B50A4B05005A1CD27F1C00D30701D55F
:102F6000FFF7B8FF631CDB7F9B0706D5FDF7CCFF9F
:102F7000002802D02800FDF79DFE70BD3C02002015
:102F800070B5134B04005A1CD27F1D00D30709D51E
:102F9000104B1A780240D30602D0FFF7ADFF01E0D4
:102FA000FFF798FF6B1CDB7F9B070FD5FDF7ACFF8E
:102FB00000280BD02000FDF799FE002803D0200048
:102FC000FDF786FE02E02000FDF774FE70BDC046EE
:102FD0003C020020C710002070B50D4B05005A1CA4
:102FE000D27F1C00D30705D500230200190018006A
:102FF00003F088FC631CDB7F9B0708D5FDF784FF8B
:10300000002804D00021EAB20800FDF7C3FD70BD1E
:103010003C020020F8B505000E0001272B004C4CA7
:10302000803301DB022724E0631CDB7F3B4206D0B8
:10303000002380201A001900404203F063FC013491
:10304000E37F9B0703D5FDF75FFF002865D180353F
:10305000E4E70122631CDB7F134205D000237F20BD
:103060001A00190003F04EFC631CDB7F3B4204D1C5
:103070007F3D7F2DEDDC012714E0FDF745FF0028A3
:1030800052D1F5E7631CDB7F3B4206D00023802151
:103090001A004942180003F035FC631CDB7F9B07D4
:1030A00005D4803633008033ECDB022714E0FDF7D3
:1030B0002BFF00283ED1F4E70122E318DB7F134207
:1030C00005D000237F211A00180003F01BFC631CAD
:1030D000DB7F3B4204D17F3E01237F2EECDC04E00A
:1030E000FDF712FF00282CD1F5E7621CD27F1A42AF
:1030F00005D0002371B268B21A0003F003FC01345A
:10310000E37F9B0723D5FDF7FFFE00281FD0002299
:1031100031002800FDF73EFD19E00022802011005B
:103120004042FDF737FD92E700227F201100FDF7B6
:1031300031FD9DE70022802110004942FDF72AFD64
:10314000AFE700227F211000FDF724FDC3E7F8BDA3
:103150003C02002070B5104B05005A1CD27F1E00A7
:10316000D3070DD50024280005F099FBA04207D90C
:10317000285D03F06BFA285D03F0EEFA0134F2E704
:10318000731CDB7F9B0706D5FDF7BEFE002802D02F
:103190002800FDF76BFE70BD3C02002070B50B4BA4
:1031A00005005A1CD27F1C00D30702D580B203F061
:1031B0004DFA631CDB7F9B0706D5FDF7A5FE0028B3
:1031C00002D02800FDF7FEFD70BDC0463C02002085
:1031D00070B50B4B05005A1CD27F1C00D30702D5DB
:1031E00080B203F0B9FA631CDB7F9B0706D5FDF7BD
:1031F0008BFE002802D02800FDF702FE70BDC046FD
:103200003C02002010B5094B5A1CD27F1C00D3078A
:1032100001D503F0F7FA631CDB7F9B0705D5FDF7AB
:1032200073FE002801D0FDF70FFE10BD3C02002008
:1032300010B502F057F910BD10B5040003F07AFD87
:10324000200010BDF0B5464C87B023680190049370
:10325000049D444F387802F0E5F9039700280BD01D
:103260002368414A0593059B5B1B9342F1D93F4973
:103270003F48FDF761FC70E006003E4C208023884B
:10328000F92B14D802F0D0FA029002F0CDFA029B8A
:10329000C51A394B1A681F00954205D2039B18784E
:1032A00002F0C0F98642F0D03B689D423FD32388AC
:1032B0002F4D3249FA2B00D031492800FDF73CFC54
:1032C00000210B20FDF7E2FB2E4B2F4F1B78012B2B
:1032D00013D12E492800FDF72FFC00262388B34286
:1032E00007D97300F95A28000136FDF7D2F8F6B273
:1032F000F4E727492800FDF71FFC26492800FDF7C1
:10330000B7F801992800FDF7B3F823492800FDF725
:10331000AFF82188280003F097FD20492800FDF729
:103320000BFC227839000198FFF702FC15E0FA2324
:103330001B029D4207D9FA212800890004F0F6F803
:10334000FA231B02C518012023880F4A5900464062
:103350001B188D52F6B2238091E707B0F0BDC0462E
:10336000280F00206D0200200F270000A78F00000B
:1033700018030020C40C002088020020C08F000029
:10338000D78F00000E060020C60C0020F08F000032
:10339000049000001390000029900000309000007D
:1033A00010B5FFF701FC10BD10B5FFF713FA10BD03
:1033B000F8B52B4EFA223100FFF79CFC294F2A4B1F
:1033C00038801B78002806D1012B47D1274928488F
:1033D000FDF7B2FB42E0012B14D1254D2549280011
:1033E000FDF7AAFB00243B88A34207D96300F15AEA
:1033F00028000134FDF74DF8A4B2F4E71E49280077
:10340000FDF79AFB00210920FDF740FB00231B4A32
:103410001B4C13801B4A1C4913701C4A200013606C
:10342000EF2203F02DFC142123682171002B15D00D
:103430001748184A1B181B11D15411785378164895
:10344000164A994205D8036809041A400A430260E3
:1034500004E001681B040A4013430360F8BDC04642
:10346000C60C0020C40C00200E0600203D90000079
:1034700018030020F08F000004900000C20C002010
:10348000B80C0020C00C0020A1340000B40C0020B7
:10349000008FFCBF0803002014E400E0FFFF00FFE2
:1034A000F8B52F4A2F4F12883B883E002E4D2F4CE7
:1034B000934223D92878002102F0FCF828780021D3
:1034C00002F090F8002323703B80294B1A68002AF1
:1034D00001DD013A1A601B68002B40D1254803F03A
:1034E00029FC254A1368002B39DD013B1360234B6F
:1034F000013BFDD12248FFF75BFF30E0934206D14C
:103500001C4B1B68002B1CD01E4A1A6019E01E4A77
:103510005B009B5AFA221202934204D9FA229200CB
:1035200053431A4A9B181A495A1E8A4209D818222C
:103530005343013B232B04D90E4A1268002A00D0C2
:1035400013602178287802F0B5F82378002B01D198
:10355000803300E000232370338801333380F8BDCB
:10356000C40C0020C20C00206C020020C00C002003
:10357000C00E0020B80C0020BC0E0020007102001C
:103580005D0200207FA90300C60C002000702FFC04
:10359000AFAAAA0A012310B5034A1360034A1360B5
:1035A000FFF706FF10BDC046C00E0020BC0E002075
:1035B000012210B5044B52421A60044B02321A60C9
:1035C000FFF7F6FE10BDC046C00E0020BC0E002066
:1035D0000022014B1A607047C00E002010B5002079
:1035E000FFF7F8F810BDFFFF002804D0FA239B0076
:1035F0005843014B186070478802002010B501F055
:1036000071FF00230448054A0360054980330371B4
:1036100004F0F4FF10BDC046B80C002030020020BA
:103620003932000010B5FFF7EDFD00231900034A01
:1036300099500433202BFBD110BDC046C40E00208E
:10364000002310B5064A99008C58002C00D18850F0
:103650005158884202D00133072BF4DD10BDC0461B
:10366000C40E0020002330B50B499A0055580C00B9
:1036700085420CD18A180021072B05D050184068CC
:10368000013350500431F7E70023E36102E00133D6
:10369000072BEADD30BDC046C40E00200023054ADA
:1036A0009958814204D00433202BF9D1002000E046
:1036B00001207047C40E002010B50400032916D85D
:1036C000080003F01FFF0E0E07022000FFF7E6FFC1
:1036D000002806D02000FFF7C5FF2000FFF778FD87
:1036E00005E02000FFF7ACFF2000FFF757FD10BDFD
:1036F00070B504000D0005F0D2F8023004F0C0FFF0
:103700000600210005F0C3F8300005F0C8F83018B5
:1037100001380378D24C202B03D02100300005F073
:103720009FF82100300005F0C1F8041E01D100F01F
:10373000C9FDCC4905F0A1F8002803D12900CA48E9
:10374000FFF7BAFFC949200005F097F8002803D118
:103750002900C748FFF7B0FFC649200005F08DF8E3
:10376000002803D12900C448FFF7A6FFC349200061
:1037700005F083F8002803D12900C148FFF79CFF1A
:10378000C049200005F079F8002803D12900BE487F
:10379000FFF792FFBD49200005F06FF8002803D124
:1037A0002900BB48FFF788FFBA49200005F065F8FB
:1037B000002803D12900B848FFF77EFFB749200051
:1037C00005F05BF8002803D12900B548FFF774FF26
:1037D000B449200005F051F8002803D12900B2486F
:1037E000FFF76AFFB149200005F047F8002803D130
:1037F0002900AF48FFF760FFAE49200005F03DF813
:10380000002803D12900AC48FFF756FFAB49200040
:1038100005F033F8002803D12900A948FFF74CFF31
:10382000A849200005F029F8002803D12900A6485E
:10383000FFF742FFA549200005F01FF8002803D13B
:103840002900A348FFF738FFA249200005F015F82A
:10385000002803D12900A048FFF72EFF9F49200030
:1038600005F00BF8002803D129009D48FFF724FF3D
:103870009C49200005F001F8002803D129009A484E
:10388000FFF71AFF9949200004F0F7FF002803D141
:1038900029009748FFF710FF9649200004F0EDFF3C
:1038A000002803D129009448FFF706FF9349200020
:1038B00004F0E3FF002803D129009148FFF7FCFE44
:1038C0009049200004F0D9FF002803D129008E4838
:1038D000FFF7F2FE8D49200004F0CFFF002803D14E
:1038E00029008B48FFF7E8FE8A49200004F0C5FF55
:1038F000002803D129008848FFF7DEFE8749200011
:1039000004F0BBFF002803D129008548FFF7D4FE4F
:103910008449200004F0B1FF002803D12900824827
:10392000FFF7CAFE8149200004F0A7FF002803D159
:1039300029007F48FFF7C0FE7E49200004F09DFF6C
:10394000002803D129007C48FFF7B6FE7B49200000
:1039500004F093FF002803D129007948FFF7ACFE5B
:103960007849200004F089FF002803D12900764817
:10397000FFF7A2FE7549200004F07FFF002803D165
:1039800029007348FFF798FE7249200004F075FF84
:10399000002803D129007048FFF78EFE6F492000F0
:1039A00004F06BFF002803D129006D48FFF784FE67
:1039B0006C49200004F061FF002803D129006A4807
:1039C000FFF77AFE6949200004F057FF002803D171
:1039D00029006748FFF770FE6649200004F04DFF9C
:1039E000002803D129006448FFF766FE63492000E0
:1039F00004F043FF002803D129006148FFF75CFE73
:103A00006049200004F039FF002803D129005E48F6
:103A1000FFF752FE5D49200004F02FFF002803D17C
:103A200029005B48FFF748FE5A49200004F025FFB3
:103A3000002803D129005848FFF73EFE57492000CF
:103A400004F01BFF002803D129005548FFF734FE7E
:103A50005449200004F011FF002800D0A8E0A3E0A2
:103A6000EE8900005190000002E000005B90000031
:103A700001E000006490000004E000006C90000091
:103A800040E000007A90000008E000008290000012
:103A900080E000009090000052F00000979000003D
:103AA00051F00000A090000050F00000A99000002C
:103AB0004FF00000B390000028F00000BD9000001F
:103AC0002CF00000C790000029F00000CF9000000B
:103AD0002AF00000DD9000002BF00000E5900000CF
:103AE00039F00000F39000003AF00000FA90000076
:103AF0003BF00000019100003CF000000891000044
:103B00003DF000000F9100003EF000001691000013
:103B10003FF000001D91000040F0000024910000E3
:103B200041F000002B91000042F0000032910000B3
:103B300043F000003A91000044F000004291000080
:103B400045F000004A91000068F00000529100002A
:103B500069F000005A9100006AF0000062910000D4
:103B60006BF000006A9100006CF0000072910000A0
:103B70006DF000007A9100006EF00000829100006C
:103B80006FF000008A91000070F000009291000038
:103B900071F000009A91000072F00000A291000004
:103BA00073F00000AA9100002900D448FFF784FDBB
:103BB000D349200004F061FE002803D12900D14838
:103BC000FFF77AFDD049200004F057FE002803D10A
:103BD0002900CE48FFF770FDCD49200004F04DFECE
:103BE000002803D12900CB48FFF766FDCA49200011
:103BF00004F043FE002803D12900C848FFF75CFD0C
:103C0000C749200004F039FE002803D12900C54827
:103C1000FFF752FDC449200004F02FFE002803D115
:103C20002900C248FFF748FDC149200004F025FEE5
:103C3000002803D12900BF48FFF73EFDBE49200000
:103C400004F01BFE002803D12900BC48FFF734FD17
:103C5000BB49200004F011FE002803D12900B94817
:103C6000FFF72AFDB849200004F007FE002803D121
:103C70002900B648FFF720FDB549200004F0FDFDFE
:103C8000002803D12900B348FFF716FDB2492000F0
:103C900004F0F3FD002803D12900B048FFF70CFD24
:103CA000AF49200004F0E9FD002803D12900AD4808
:103CB000FFF702FDAC49200004F0DFFD002803D12E
:103CC0002900AA48FFF7F8FCA949200004F0D5FD17
:103CD000002803D12900A748FFF7EEFCA6492000E1
:103CE00004F0CBFD002803D12900A448FFF7E4FC31
:103CF000A349200004F0C1FD002803D12900A148F8
:103D0000FFF7DAFCA049200004F0B7FD002803D13A
:103D100029009E48FFF7D0FC9D49200004F0ADFD2E
:103D2000002803D129009B48FFF7C6FC9A492000D0
:103D300004F0A3FD002803D129009848FFF7BCFC3C
:103D40009749200004F099FD002803D129009548E7
:103D5000FFF7B2FC9449200004F08FFD002803D146
:103D600029009248FFF7A8FC9149200004F085FD46
:103D7000002803D129008F48FFF79EFC8E492000C0
:103D800004F07BFD002803D129008C48FFF794FC48
:103D90008B49200004F071FD002803D129008948D7
:103DA000FFF78AFC8849200004F067FD002803D152
:103DB00029008648FFF780FC8549200004F05DFD5E
:103DC000002803D129008348FFF776FC82492000B0
:103DD00004F053FD002803D129008048FFF76CFC54
:103DE0007F49200004F049FD002803D129007D48C7
:103DF000FFF762FC7C49200004F03FFD002803D15E
:103E000029007A48FFF758FC7949200004F035FD75
:103E1000002803D129007748FFF74EFC764920009F
:103E200004F02BFD002803D129007448FFF744FC5F
:103E30007349200004F021FD002803D129007148B6
:103E4000FFF73AFC7049200004F017FD002803D169
:103E500029006E48FFF730FC6D49200004F00DFD8D
:103E6000002803D129006B48FFF726FC6A4920008F
:103E700004F003FD002803D129006848FFF71CFC6B
:103E80006749200004F0F9FC002803D129006548A7
:103E9000FFF712FC6449200004F0EFFC002803D176
:103EA00029006248FFF708FC6149200004F0E5FCA6
:103EB000002803D129005F48FFF7FEFB5E49200080
:103EC00004F0DBFC002803D129005C48FFF7F4FB79
:103ED0005B49200004F0D1FC002803D12900594897
:103EE000FFF7EAFB5849200004F0C7FC002800D087
:103EF000AEE029005548FFF7DFFBA9E049F00000DC
:103F0000B59100004AF00000BE9100004BF00000A7
:103F1000CA9100004CF00000D59100004DF0000067
:103F2000DD9100004EF00000EB91000004F0000075
:103F3000F191000005F00000F791000006F000008C
:103F4000FD91000007F000000392000008F000005F
:103F50000992000009F000000F9200000AF0000032
:103F6000159200000BF000001B9200000CF0000006
:103F7000219200000DF00000279200000EF00000DA
:103F80002D9200000FF000003392000010F00000AE
:103F90003992000011F000003F92000012F0000082
:103FA0004592000013F000004B92000014F0000056
:103FB0005192000015F000005792000016F000002A
:103FC0005D92000017F000006392000018F00000FE
:103FD0006992000019F000006F9200001AF00000D2
:103FE000759200001BF000007B9200001CF00000A6
:103FF000819200001DF00000879200001EF000007A
:104000008D9200001FF000009392000020F000004D
:104010009992000021F000009F92000022F0000021
:10402000A592000023F00000AB92000024F00000F5
:10403000B192000025F00000B792000026F00000C9
:10404000BD92000027F00000C392000048F000007D
:104050009E49200004F011FC002803D129009C484F
:10406000FFF72AFB9B49200004F007FC002803D13E
:1040700029009948FFF720FB9849200004F0FDFB38
:10408000002803D129009648FFF716FB9549200028
:1040900004F0F3FB002803D129009348FFF70CFB41
:1040A0009249200004F0E9FB002803D12900904840
:1040B000FFF702FB8F49200004F0DFFB002803D14B
:1040C00029008D48FFF7F8FA8C49200004F0D5FB51
:1040D000002803D129008A48FFF7EEFA8949200019
:1040E00004F0CBFB002803D129008748FFF7E4FA4E
:1040F0008649200004F0C1FB002803D12900844830
:10410000FFF7DAFA8349200004F0B7FB002803D157
:1041100029008148FFF7D0FA8049200004F0ADFB68
:10412000002803D129007E48FFF7C6FA7D49200008
:1041300004F0A3FB002803D129007B48FFF7BCFA59
:104140007A49200004F099FB002803D1290078481F
:10415000FFF7B2FA7749200004F08FFB002803D163
:1041600029007548FFF7A8FA7449200004F085FB80
:10417000002803D129007248FFF79EFA71492000F8
:1041800004F07BFB002803D129006F48FFF794FA65
:104190006E49200004F071FB002803D129006C480F
:1041A000FFF78AFA6B49200004F067FB002803D16F
:1041B00029006948FFF780FA6849200004F05DFB98
:1041C000002803D129006648FFF776FA65492000E8
:1041D00004F053FB002803D129006348FFF76CFA71
:1041E0006249200004F049FB002803D129006048FF
:1041F000FFF762FA5F49200004F03FFB002803D17B
:1042000029005D48FFF758FA5C49200004F035FBAF
:10421000002803D129005A48FFF74EFA59492000D7
:1042200004F02BFB002803D129005748FFF744FA7C
:104230005649200004F021FB002803D129005448EE
:10424000FFF73AFA5349200004F017FB002803D186
:1042500029005148FFF730FA5049200004F00DFBC7
:10426000002803D129004E48FFF726FA4D492000C7
:1042700004F003FB002803D129004B48FFF71CFA88
:104280004A49200004F0F9FA002803D129004848DF
:10429000FFF712FA4749200004F0EFFA002803D193
:1042A00029004548FFF708FA4449200004F0E5FAE0
:1042B000002803D129004248FFF7FEF941490020B8
:1042C000FFF731FA300004F0E5F970BDCD9200003F
:1042D00047F00000DD92000053F00000EA92000079
:1042E00046F00000FA92000033F00000089300004E
:1042F00036F000001293000037F000001D9300001C
:104300002DF00000279300002EF0000031930000F4
:1043100038F000003B93000031F0000049930000AA
:104320002FF000005893000030F000006893000068
:1043300034F000007293000035F000007C93000020
:1043400065F000008593000054F000009293000097
:1043500055F00000A193000056F00000AE9300005D
:1043600057F00000BA93000058F00000C793000017
:1043700059F00000D09300005AF00000D9930000DB
:104380005BF00000E29300005CF00000EB930000A3
:104390005DF00000F49300005EF00000FD9300006B
:1043A0005FF000000694000060F000000F94000031
:1043B00061F000001894000062F0000021940000F9
:1043C00063F00000EE89000010B504000021FFF743
:1043D0008FF902212000FFF78BF910BD10B50121E4
:1043E000FFF786F910BD10B50221FFF781F910BD66
:1043F00010B50321FFF77CF910BD10B501F072F87C
:1044000010BDFFFFF0B5BC4B87B01B68BB4D0593DB
:10441000059CBB4B06001C602B681700E01A00913E
:1044200004F0AEF8B74B2C601860B74903F0DAFB24
:10443000B64AB74C136820600394B649BB4203DA0E
:104440000123B548037006E00020B34C2070BB4246
:1044500001DD012300E000230B70B04B17600193D6
:104460001A7800239A4200D0C833AD4C2078062831
:1044700000D9C4E003F046F80419296878C3B300F2
:10448000019B5B8A9F4205DD0123002105202370EB
:10449000FCF7FCFA019B9B8A9F4200DBAFE0032004
:1044A00000212070FCF7F2FAA9E0019BDA899D4B0C
:1044B000974202DA1A68013200E000221A601B6893
:1044C000132B00DC28E302233CE000995A428A4285
:1044D00008DD00210620FCF7D9FA0F20FCF7D4FDF7
:1044E0000F202CE0B24208DD00210620FCF7CEFAB6
:1044F0001120FCF7C9FD112021E0B34208DA0021A8
:104500000620FCF7C3FA1220FCF7BEFD122016E0CD
:10451000009A934208DA00210620FCF7B7FA10202F
:10452000FCF7B2FD10200AE07E4A13680133C82B65
:104530005ADD00230A201360FCF7A6FD0A20FCF7D1
:10454000B5FD062323705AE0019B9A89754B97426B
:1045500002DD1A68013200E000221A601B68132B8A
:1045600000DCD9E20423EDE700995A42914208DACF
:1045700000210420FCF78AFA0B20FCF785FD0B20B4
:10458000DDE7964208DA00210420FCF77FFA0D20CF
:10459000FCF77AFD0D20D2E7B34208DA00210420AF
:1045A000FCF774FA0E20FCF76FFD0E20C7E7009AA7
:1045B000934208DA00210420FCF768FA0C20FCF78B
:1045C00063FD0C20BBE7574A13680133C82B0BDD92
:1045D000002308201360FCF757FD0820AFE7514A7D
:1045E000136801331E2B01DC136095E20025156072
:1045F0002570FCF701FE4C4B1D704C4B1D70237851
:104600000024A34200D087E2494D285D01F00AF85A
:10461000414241412000C9B20134FCF7BBFD032CEB
:10462000F2D1287800F0FEFF424C051E0ED1C822C0
:104630002368920001332360934209D101000A20CC
:10464000FCF724FAFCF768FC256001E000232360F6
:10465000354D2C78012C10D0002C02D0022C24D007
:1046600035E02E4BDB899F4231DD21000820FCF72D
:104670000DFA01232B70304B28E0274B1A782E4B74
:10468000002A0CD11A78511C19700F2A1FD9022246
:1046900009202A7008321A70FCF7F6FC17E01A7825
:1046A000002A14D0013A1A7011E0234B1A78002A1C
:1046B00001D0013A1A70194AD289974207DA1C7858
:1046C000002C04D10920FCF7F1FC174B1C70174D8E
:1046D0002C78012C34D01149002C02D0022C47D068
:1046E00057E08B899F4254DA21000720FCF7CEF96E
:1046F00001232B70114B4BE0280F0020F00E0020FF
:10470000E80E0020040F002020BCBE4C8C020020CC
:10471000140F0020FE0E0020F50E00203C020020A9
:10472000EC0E0020000F0020E40E0020080F0020F7
:104730006E020020180F0020E50E0020F40E00206D
:10474000BC4B1A78BC4B002A0CD11A78511C19703A
:104750000F2A1ED9022207202A7008321A70FCF78D
:1047600093FC16E01A78002A13D0013A1A7010E070
:10477000B14B1A78002A01D0013A1A708A899742FF
:1047800007DD1C78002C04D10720FCF78FFCAB4B15
:104790001C700020AA4B1856002804D1A94B1B7886
:1047A0005BB2002B0AD0A84A1378591C11709B07E2
:1047B00004D10021A34B5956FEF72CFCA34D2B78B6
:1047C0000293012B00D096E0288903F091FEA049C6
:1047D00003F008FA9F4C0290002E01D1268006E0DB
:1047E00022889D4B9A4202D86B89D3182380009A65
:1047F0009A4B002A02D16A46128806E01988964A26
:10480000914203D8914A52898A181A80039B1D68E5
:10481000019B5878704303F06BFE291C03F0ACFB3E
:10482000061C208803F064FE011C301C03F0A4FB6E
:10483000071C011C029803F001F8002800D0029F19
:104840008022029B12069E18311C381C02F0F6FFD3
:10485000002800D0371C824C381C216803F04CF82B
:10486000019B2060071C9878009B4343180003F0CD
:104870003FFE291C03F080FB784B051C188803F0D1
:1048800037FE011C281C03F077FB051C011C029855
:1048900002F0D4FF002800D0029D311C281C02F039
:1048A000CDFF002800D0351C6E4E281C316803F067
:1048B00023F8051C3060381C03F0F8FD0700281CA5
:1048C00003F0F4FD3B000500034303D00100380072
:1048D000FEF7A0FB380003F00BFE011C206803F07C
:1048E0005FFC2060280003F003FE011C306803F029
:1048F00057FC306010E1029B002B16D1009B032077
:10490000D90FFCF747FC009B0420D917C91AC90F1F
:10491000FCF740FCF10F0520FCF73CFCF117891B6C
:10492000C90F0620FCF736FCF6E0009B4D4C002B2F
:1049300003D18823DB05236012E0A87803F0D8FDBB
:10494000051C009803F0D4FD011C281C03F014FB87
:10495000454903F047F98821C90502F0CDFF2060E1
:104960003F4D002E03D18823DB052B6013E0019B14
:10497000587803F0BDFD071C300003F0B9FD011CA1
:10498000381C03F0F9FA384903F02CF98821C905DD
:1049900002F0B2FF286000272868391C02F04EFFA1
:1049A000002800D02F60314F2868391C02F05AFFD0
:1049B000002800D02F6000272068391C02F03EFF3D
:1049C000002800D02760294F2068391C02F04AFFD8
:1049D000002800D02760029B032B53D0042B79D0F2
:1049E000022B00D098E0286802F06EFF204B214A8D
:1049F0005968214E0A401F00B04200D93000000122
:104A00001E4D104358602B78002B01D101F016FD8C
:104A1000206802F059FF1A4B7A681340B04200D95F
:104A200015488003184378602B78002B74D101F06F
:104A300005FD71E0FE0E0020F40E0020080F00209E
:104A4000F60E0020F70E0020FA0E00203C02002097
:104A500000002041FC0E00201F4E0000F80E002038
:104A60000C0F0020100F00200000484200C07F44BF
:104A7000141200200FC0FFFFFF030000F8100020F9
:104A8000FF3F00FF286802F01FFF244FB84200D903
:104A90003800234D02066B68224E1B021B0A13438B
:104AA0006B600323AA68000A9A4333781043A86016
:104AB000002B01D101F0C2FC206802F005FF1A4B67
:104AC000AA681340B84200D9144880001843A8606F
:104AD0003378AAE7286802F0F7FE114B134A996869
:104AE0000E4E0A401F00B04200D9300000030D4DA9
:104AF000104398602B78002B01D101F09FFC2068B7
:104B000002F0E2FEBB689B029B0AB04200D9034858
:104B100080051843B86087E707B0F0BDFF030000C9
:104B200014120020F810002003F0FFFFFF0FC0FF59
:104B300010B500F0D7FC10BD30B5021E14D00378BC
:104B40000020834210D003000A241078002807D0E8
:104B50003038C5B2092D06D863430132C318F4E7D3
:104B60000B80012000E0002030BD73B50C00002850
:104B700001D1002010E0037801252D2B01D140192F
:104B8000023D6B469E1D3100FFF7D6FF0028F0D096
:104B9000012033886B43238076BD00280AD0037838
:104BA000002B07D01A00613A192A01D8203B037064
:104BB0000130F4E77047FFFFF0B589B002AB9E1CEF
:104BC00000230100040003A8338003F060FE344D8D
:104BD0002B78012B08D1334F33493800FBF748FCC1
:104BE00021003800FBF7A8FF304F2000390003F008
:104BF0005DFE0197041E47D02B78012B08D1294D6B
:104C00002B492800FBF734FC21002800FBF794FF18
:104C100000252000FFF7C1FF264FF91E200003F0FA
:104C20002CFE00281ED13B78022B0BD0032B13D077
:104C3000012B14D1019903F039FE31000400FFF774
:104C40007BFF06E0019903F031FE31000400FFF71D
:104C50008CFF002806D000E003346BB204E06BB296
:104C6000040001E001235B4201354F2D0AD00437D7
:104C70005A1CD2D00022B15ED8B222000023FCF729
:104C80004BFE0AE05A1CF5D1064C0B492000FBF7FD
:104C900053FF03A92000FBF74FFF09B0F0BDC0464A
:104CA0000E060020180300202F940000EE8900005B
:104CB0003D940000688C00004594000070B5254AC2
:104CC00003001178002902D0FCF7DEFB41E0224C02
:104CD0002078032837D802F015FC02111724202170
:104CE00018008843412801D1012331E0402B30D105
:104CF000237801332370012313702AE02022934389
:104D0000542B24D1523B23E00D2B01D00A2B01D18F
:104D1000124919E0202B16D10022114B1A700323DF
:104D200016E00F4A0F480D2B01D00A2B06D10025A3
:104D30001378C554FFF740FF25700AE011784C1C2A
:104D40001470435405E008490848FBF7F5FE0023BA
:104D5000237070BD190C00201C0F00204994000026
:104D60001D0F00203106002047940000180300208A
:104D700010B500F0B7FB10BD0020704703003830BD
:104D800039331B780078181A704702000100383256
:104D9000393113780978994204D9591C1170C31814
:104DA000187E01E0012040427047030002003833C2
:104DB00039321B7812789A4202D9C318187E01E062
:104DC00001204042704770470300002210B55E3357
:104DD0001B8893420DD004005D342378202B02D928
:104DE0000123037105E05A1C22700122C3183B33D2
:104DF0001970100010BD70B51400020003000020EF
:104E00005E321288824212D01D0021225D35287840
:104E1000121A944202D901241C7114003B33181851
:104E2000220003F041FC20002B781B192B7070BD71
:104E300043691A685B68126813420FD0084A036915
:104E4000914201D81F2205E0064A914201D8122260
:104E500000E002225A70022203699A717047C0462C
:104E60007F1A06003F420F000200F8B5002304003D
:104E7000383213705370243293701370537043663A
:104E80008366D37040696427016842680D682A43CD
:104E90000A6022691549937023000C22613360690E
:104EA0001E788619337A5343CB185D68737BE026EE
:104EB0001B02F60033403B432B60230062331B7818
:104EC000C018837C5A43C37D89181B024A681E4060
:104ED0003E43166006492000FFF7AAFF20232269FF
:104EE0005371802223699A70F8BDC046189500005E
:104EF000A0860100102270B503690400DD78EDB2D0
:104F0000154203D140222A4004D12BE0DA706B060F
:104F1000F8D476E004231D403A4B1BD02500002234
:104F20005D352A701A70636E934200D09847230053
:104F30002A783B33002A02D1012129701A70D0222D
:104F400021698A701B7822691371230001225C3366
:104F50001A7053E001221A70230039331D70226940
:104F6000C02330E0602120698379DBB219406029D9
:104F70000CD140398B438371A36E002B06D02100E6
:104F800038310A702200393210789847102322698C
:104F900091780B401BD001231D4013D1210020002C
:104FA0005C315D300B780078984206D9581CE318C4
:104FB00008703B331B78137100E01571D023226910
:104FC00093701BE0C023937023691B7916E02100C6
:104FD00060310B70202193790B4321009371236979
:104FE00039311A790B78D2B21F2B07D805480078CF
:104FF000002803D0581CE31808701A76022223698F
:10500000DA7070BD1E0F00201223F0B52024026953
:105010008C46D370036989B099783B4A214201D00C
:10502000B42112E011680291029DD978214008D084
:10503000116803910399491B0F29F6D900229A7030
:105040003AE004005F342170B02120269970136883
:1050500004690493049DE378334004D000230226BE
:10506000019320270BE0116805910599491B04293C
:10507000F1D9A37020E0019B0133DBB20193010061
:105080005D310978019B994231D9C1183B310978CA
:1050900003691971116805690691069BEC78E4B201
:1050A000210031400DD13C420BD014680794079C7D
:1050B000E41A052CF2D9A9708022036904209A70A1
:1050C00020E01023EE700469E178C9B2194201D1E1
:1050D000394203D18023A3707C3B09E001231942AC
:1050E000C9D0019B5A4253410322D31A03E0002343
:1050F0006246002A02D0802201698A7000225E3056
:105100000270180009B0F0BD280F0020F0B58FB074
:10511000029300230400202738300370013003700D
:10512000019020691233C3702569AB783B401800A9
:10513000B423002817D15B4E336803960493049B75
:105140009C46EB783B400AD06646039B1B68059360
:10515000059B9B1B0F2BF4D90023AB7018E020009C
:105160005F300370B023AB704E4D26692B680693F9
:1051700020239C46069F6046F37818402B000028A9
:105180000AD12B680793079BDB1B042BF3D9B07064
:10519000802223699A7082E001200227490001439E
:1051A000C9B2317129680891089E2169C8783840D0
:1051B00007D11D680995099DAD1B052DF6D988708D
:1051C000E6E70223CB7021690F33C878184003D07B
:1051D0006F338B70002062E0002A06D1029A802390
:1051E000002A00D120338B7059E0A823012A00D077
:1051F000A0238B7023692B4D1B7900232169280084
:10520000012A25D02868AC460A900A980700022691
:10521000C878304008D1664636680B960B9EF61B60
:10522000052EF4D9887034E00220013AD2B2C87059
:10523000012A02D1A8202169887021691F2B05D875
:1052400009795E1CE3181976F3B2D7E70979D5E737
:1052500002272A680C920C9ECA783A4007D105684A
:105260000D950D9DAD1B052DF6D98A7011E002221A
:10527000CA702169AE328A7022691F2B05D8127953
:10528000591CE3181A76CBB200E01279029A002A70
:1052900002D08021226991701800019A13700FB01A
:1052A000F0BDC046280F002010B50248FFF722FECF
:1052B00010BDC046900200208023F0B51D4A106842
:1052C0001840FCD172B61C4C2378002B30D01B4BFD
:1052D0001F681B4B1A681B4BBA181E681A4B921991
:1052E0001D681A4B52191968194B52181B68194D31
:1052F000D21892B25208184B2A4392B21A60174B36
:1053000017491B68174A9C46174B1B6812680F68A1
:10531000164963440E6816499B180968DB199B19E6
:105320005A1893B25B082B43124A9BB21360207049
:1053300062B6F0BD24B00340200F002038B0034017
:105340003CB0034040B0034044B0034048B0034089
:105350004CB003400080FFFF2CB0034058B0034026
:1053600064B0034060B003405CB0034068B00340E9
:105370006CB0034030B003401B4B1C4A19781C4BE7
:10538000082901D1002102E00A2903D12E31116040
:10539000132206E00C2901D1283100E03C211160E4
:1053A00012221A60134B1A78134B002A01D00022E4
:1053B00000E001221A60114B1A78114B012A01D822
:1053C00080220CE0042A01D8842208E0082A01D8AF
:1053D000852204E0102A01D8862200E087221A6084
:1053E0000122084B1A707047FC02002008B00340ED
:1053F0000CB00340220F002020B00340FD0200202B
:1054000024B00340200F0020F8B503000020272B14
:1054100033D81A4AD45CFF2C2FD0194B1B78834207
:1054200001D0FFF749FF72B610274022154B1442F6
:1054300005D01A68BA431A603F231C4002E01A687C
:105440003A431A600123104E104D34602B7062B63F
:1054500072B680223368134208D00D4B18680023BF
:105460002B7062B60B4B1B78184106E02B78002B93
:10547000DBD062B601F06AFEEAE7F8BD9094000066
:10548000200F00200CB0034000B00340210F00208B
:1054900010B003401F0F002080210D4A0906136839
:1054A0000B4313600B4B1A780B4B002A01D1D032FF
:1054B00000E090221A70094B984201DD180002E0CA
:1054C000C343DB171840064B00B218807047C04634
:1054D0003C800440220F002021F00340FF0F000019
:1054E00000F00340F823802208491B02520218886A
:1054F000884203D1064A023B138006E002339342FE
:10550000F5D10222024B52421A807047FFFF000081
:10551000240F0020F8B505000024264F0E1C38008B
:10552000E04003F02DF8DE21890502F025FD311C55
:1055300002F08EF9002802D10134072CEFD11D486A
:10554000E04003F01DF8311C02F04CFBFC21890502
:1055500002F026FE02F0B8F9174B984200D9180065
:105560002B00103B012B06D80023144A144913606A
:105570000B60144B0BE0172D0ED8134A0123EA40A1
:10558000934309D1114A124913600B60114B186003
:1055900008231C4314600CE0033D012D09D80022B0
:1055A0000D4B0E491A600A600D4A10600822144320
:1055B0001C60F8BD006CDC02FFFF0000009003409F
:1055C00004900340089003404006D0000080034050
:1055D000048003400880034000A0034004A003406F
:1055E00008A0034010B51A2818D80C2358430C4AB9
:1055F000835810181C7D027A224205D0002901D060
:105600001A710BE01A7209E043681A68002902D087
:1056100003210A4301E002218A431A6010BDC046FB
:105620001895000000231A280AD80C335843054A5D
:1056300083581018007A1B7C0340581E8341DBB24C
:105640001800704718950000F0B51A282FD80C22C2
:1056500017004743164CE5196B682600012901D055
:10566000042911D1504334583018257D027A202066
:105670002A432275A22252001A601A68042901D115
:10568000024313E0824311E038592C7A027DA24391
:1056900002758022002908D0022902D10422FF329B
:1056A00004E00022032901D1812252001A60F0BDDA
:1056B0001895000070B5434B04001A280ED11B78D2
:1056C0000B2B03D80C22D31A994003E00C2B01D0EA
:1056D0000C3B19410800FFF7DFFE72E001251A7844
:1056E0002B009340002901DC002102E08B4205D809
:1056F00029002000FFF776FF29005FE02300103B20
:105700000338012B01D8304B05E0C3B2012B01D87F
:105710002E4B00E02E4B1B6801334B43D340142823
:1057200043D801F0EFFE353B421F4242151A424278
:10573000424242292F424224420B1000254A136064
:10574000254A264B2FE0264A1360234A254B2AE0A0
:10575000254A1360204A254B25E0254A13601E4A3E
:10576000244B20E0244A13601B4A244B1BE0244AAC
:105770001360194A234B16E0234A1360D122234BAE
:10578000920010E0224A1360D122224B92000AE0DC
:10579000214A1360D122214B920004E0204A136079
:1057A000D122204B92001A600BE001237F2900DCFC
:1057B0000023D9B22000FFF715FF01212000FFF7D9
:1057C00043FF70BDFE0200200890034008A0034084
:1057D00008800340108003404404000004B00440EB
:1057E0001880034008B00440208003400CB00440FF
:1057F0002880034010B004403080034010C00440B3
:105800003880034014C004401090034000A00440BE
:105810001890034004A0044010A0034004900440EA
:1058200018A003400890044072B60C4B1A680C4B49
:1058300018680C4B1B6862B65B0104D53223934297
:105840009B415B42C018084B9A1A084B5A43FA23F3
:105850009B005843920D10187047C04618E000E0B6
:10586000280F002004ED00E07FBB0000555501002B
:1058700070B50400FFF7D8FF0500002C0FD0FFF72C
:10588000D3FF074B401B984206D9013C002C06D0A1
:10589000FA239B00ED18F2E701F058FCEFE770BD2A
:1058A000E703000080221E4BD20510B51A6080224B
:1058B000002012061A601B4B1B4918601B4B1C4A28
:1058C0001960282313601B4A1B4C13601B4A13608A
:1058D0001B4A13601B4A13601B4A13600922226093
:1058E0001A4C20601A4C21601A4C23601A4C236019
:1058F0001A4C22601A4C20601A4801601A490B6049
:105900001A490B601A4B1A60FFF736FD3220FFF779
:10591000AFFF00F03BFDAF204000FFF7A9FF10BD37
:1059200000E100E004800340FFBF00000880034066
:105930000C80034014800340008003401C8003401F
:10594000248003402C8003403480034004900340B3
:10595000089003400C9003401490034000900340D3
:1059600004A0034008A003400CA0034014A003407F
:1059700000A003408021204A490113680B431360B3
:1059800000231E4A13701E4A13701E4A13701E4ACB
:1059900013701E4A13701E4B1B78062B04D0072B66
:1059A00005D11C4A1C4B01E01A4A1C4B1A601C4BC7
:1059B0001B78082B05D0142B07D1D122194B92004C
:1059C00002E0D122184B92001A60184BC204D20E8A
:1059D0001A700022C0B258709A702C32DA70144AD1
:1059E000144B11680B408021C9030B4313608022C4
:1059F000114BD2011A607047348004409C0F002084
:105A0000310F0020A40F00209D0F0020300F002038
:105A1000FF0200201303000008C0044010C004402F
:105A20000003002014C004400CC0044000C0064025
:105A30000CE400E0FFFF00FF00E100E0F8B51F4BC1
:105A400006001B68DB0437D51D4B1B68002B02D0FA
:105A50001C4A12781A711C4D2C780134272C0AD953
:105A6000002408E001F0E2FB402815DC17490B791F
:105A70005BB2002B04DB164F3B78A342F2D010E060
:105A80003B780133272B00D90023124AD25CDBB2CA
:105A9000D2B2CA713B70EEE7FF28ECDD01F056FB95
:105AA000E9E701220B4BF6B21E550B4BE4B21A701C
:105AB000064BAB322C70DA70F8BDC046348004401F
:105AC000A00F00209B0F0020A40F002000C0064064
:105AD0009D0F0020320F0020300F0020054B18785A
