:1000000000180020C10000004570000009700000C9
:1000100009700000097000000970000009700000FC
:1000200009700000097000000970000045700000B0
:100030004570000009700000B97300008974000069
:1000400045700000457000004570000045700000DC
:1000500045700000457000004570000045700000CC
:10006000C55000004570000045700000457000005C
:1000700059710000317200001959000045700000EC
:10008000457000004570000045700000457000009C
:100090004570000045700000B16B00004570000025
:1000A000855B000045700000457000004570000051
:1000B000457000004570000045700000457000006C
:1000C000F8B506F0C3FF0821474A484B1A60484A72
:1000D000484B1A60484A494B1A60494B1A780A4201
:1000E00002D01A780A431A702A22464B46481A70E0
:1000F00000234649464C1A188A4203D2E558043375
:100100001560F8E70021434B434A934201D202C3F2
:10011000FBE70023414A424958589446985004331B
:10012000C02BF9D100210326FF2580248A083D4BEE
:100130009200D2180B002F003340DB009F40106864
:100140000131B84307002000984003003B4313608F
:100150002029EBD16246344B1A608A22334B1A7045
:10016000334B663A5A707C321A709E3A9979114232
:10017000FCD0102299791142FCD10C209A792C499B
:100180000240082AFAD1053A0A713D324A71203AF2
:1001900099791142FCD0402299791142FCD025492D
:1001A000254A11602021224A117014399A790A4097
:1001B0000C2AFBD1214A224B1A60224A224B1A6098
:1001C0000022224B1A60224B07321A60214A224B2E
:1001D0001A6062B605F074FA08F0FCF906F03CFF0C
:1001E00006F096FEFEE7C046300004F0348004407E
:1001F000823F0000388004400100000F3C80044032
:1002000002D0074000E0074030020020C80500206F
:1002100028980000C80500205012002000F9FF1F98
:100220000000000000E400E008ED00E0005006409F
:10023000004006400000011044800440C000050555
:10024000048004407FBB000014E000E018E000E000
:1002500010E000E00000202020ED00E0FFFFFFFFA5
:10026000FFFFFFFFFFFFFFFFFFFFFFFFFFFFFFFF9E
:10027000FFFFFFFFFFFFFFFFFFFFFFFFFFFFFFFF8E
:10028000FFFFFFFFFFFFFFFFFFFFFFFFFFFFFFFF7E
:10029000FFFFFFFFFFFFFFFFFFFFFFFFFFFFFFFF6E
:1002A000FFFFFFFFFFFFFFFFFFFFFFFFFFFFFFFF5E
:1002B000FFFFFFFFFFFFFFFFFFFFFFFFFFFFFFFF4E
:1002C000FFFFFFFFFFFFFFFFFFFFFFFFFFFFFFFF3E
:1002D000FFFFFFFFFFFFFFFFFFFFFFFFFFFFFFFF2E
:1002E000FFFFFFFFFFFFFFFFFFFFFFFFFFFFFFFF1E
:1002F000FFFFFFFFFFFFFFFFFFFFFFFFFFFFFFFF0E
:10030000FFFFFFFFFFFFFFFFFFFFFFFFFFFFFFFFFD
:10031000FFFFFFFFFFFFFFFFFFFFFFFFFFFFFFFFED
:10032000FFFFFFFFFFFFFFFFFFFFFFFFFFFFFFFFDD
:10033000FFFFFFFFFFFFFFFFFFFFFFFFFFFFFFFFCD
:10034000FFFFFFFFFFFFFFFFFFFFFFFFFFFFFFFFBD
:10035000FFFFFFFFFFFFFFFFFFFFFFFFFFFFFFFFAD
:10036000FFFFFFFFFFFFFFFFFFFFFFFFFFFFFFFF9D
:10037000FFFFFFFFFFFFFFFFFFFFFFFFFFFFFFFF8D
:10038000FFFFFFFFFFFFFFFFFFFFFFFFFFFFFFFF7D
:10039000FFFFFFFFFFFFFFFFFFFFFFFFFFFFFFFF6D
:1003A000FFFFFFFFFFFFFFFFFFFFFFFFFFFFFFFF5D
:1003B000FFFFFFFFFFFFFFFFFFFFFFFFFFFFFFFF4D
:1003C000FFFFFFFFFFFFFFFFFFFFFFFFFFFFFFFF3D
:1003D000FFFFFFFFFFFFFFFFFFFFFFFFFFFFFFFF2D
:1003E000FFFFFFFFFFFFFFFFFFFFFFFFFFFFFFFF1D
:1003F000FFFFFFFFFFFFFFFFFFFFFFFFFFFFFFFF0D
:10040000FFFFFFFFFFFFFFFFFFFFFFFFDEF9FFFF23
:1004100010B5064C2378002B07D1054B002B02D0DA
:10042000044800E000BF0123237010BDC805002070
:100430000000000028980000084B10B5002B03D0E6
:100440000749084800E000BF07480368002B00D1B7
:1004500010BD064B002BFBD09847F9E700000000C9
:10046000CC05002028980000C805002000000000EE
:1004700070B5040008000D0008F0E1F923680200DF
:1004800029005B682000984770BD10B5FFF7F0FFAA
:1004900010BD70B5050006F0E5FB0400280006F06D
:1004A000A1FB001970BDFFFF70B5274B1B78002B17
:1004B00048D0264E33785A1C32700A2B42D9244C2D
:1004C00024492000FFF7E1FF234B2000196806F0C4
:1004D000C9FB224D20002900FFF7D7FF204B200049
:1004E000196806F0BFFB29002000FFF7CEFF1D4B67
:1004F0002000196806F0B6FB29002000FFF7C5FFB1
:10050000194B2000196806F0ADFB29002000FFF709
:10051000BCFF164B2000196806F0A4FB2900200040
:10052000FFF7B3FF124B2000196806F09BFB290070
:100530002000FFF7AAFF0F4B20001968FFF7A9FF63
:100540000023337070BDC046EC050020E605002096
:100550000C03002012890000E80500201A89000021
:100560000406002008060020FC05002018060020D4
:10057000280600202C06002010B502F065FF01209F
:1005800002F00AFC042002F007FC022002F004FC46
:100590000023024A1370024A137010BDEE0E0020B1
:1005A000EF0E002070B500F06FFC354C2378012B66
:1005B00007D1344D34492800FFF75AFF280006F0D0
:1005C00011FB324804F05EFB314B0021187804F037
:1005D00049FF304E3049307804F0AAFE2F4D0121FA
:1005E000287804F03FFF2878002104F009FF3078D4
:1005F000012104F037FF2878002104F001FF0025D5
:10060000274B0221E85C013504F02CFF032DF7D1C4
:100610000025244B0121E85C013504F023FF032D64
:10062000F7D1FFF7A9FF00F0BFFD00231A001E4E0F
:100630001E4899194A801918043300250A604C2B6A
:10064000F7D11B4B1D8000F0C3FD00F0BBFC02F096
:10065000CBFA2800012102F069F90A22154B25780E
:100660001A70154B0F321A70012D08D1054C134921
:100670002000FFF70AFF29002000FFF70AFF70BDE6
:100680000E0600200C0300201C89000084020020BC
:100690005F0200205E020020007014473B02002031
:1006A0006002002038020020840B00209C0A0020F9
:1006B000E80A002030060020240600205B890000A4
:1006C000024B1870024B19707047C046300600206C
:1006D0002406002070B5284B1A78284B1878002A79
:1006E00045D0002104F08CFE254A1178002918D14C
:1006F000244D254C2B782078DB0700D5012104F010
:100700007FFE2B786078013300219B0700D4012104
:1007100004F076FE2B78A078013300215B0727D404
:1007200025E01A4B1C78002C1ED1012618480139EF
:100730000078154DC9B2187011702878314209D06F
:10074000210004F05DFE6878210004F059FEA878CD
:1007500021000DE0310004F053FE6878310004F010
:100760004FFEA878310003E0013C1C7002E001213B
:1007700004F046FE70BDC046760200203B02002019
:10078000300600201406002038020020C107002097
:1007900024060020F8B5164B1E88002E26D0154DD5
:1007A0002B88002B02D0012B0BD01FE0124B09200D
:1007B0001A88124B198806F003FB2B8801332B8013
:1007C00014E00F4F0C4B3C8818880E4B01341B88EB
:1007D000A4B23C80C018052106F002FF844205DD6A
:1007E000034B013E1E8000232B803B80F8BDC0469A
:1007F0001C060020C207002012060020260600204A
:100800000C060020E4050020F7B50E2004F00AFDD8
:100810007D4D2860152004F005FD7C4C3221E37DE0
:10082000584306F053FE7A4B80B201950094794DFF
:10083000984201D8286001E0754B2B602B68002B93
:1008400001DA00232B60142004F0ECFC009B322121
:100850009B7D584306F03AFE6D4B80B26E4C984239
:1008600001D8206001E06A4B23602368002B01DA85
:1008700000232360172004F0D5FC009B32215B7E0F
:10088000584306F023FE624B80B2644E984201D872
:10089000306001E05E4B33603368002B01DA0023E7
:1008A0003360162004F0BEFC009B32211B7E5843AF
:1008B00006F00CFE564B80B2594F984201D8386072
:1008C00001E0534B3B603B68002B01DA00233B60A7
:1008D000009BDB8BB42B11D087225200934218D09F
:1008E0005A2B21D12A684F4B1A6033682B6023683A
:1008F00033604B4B19681A60216015E022682B6841
:100900002A60474A4749236013680B6031681160C9
:1009100009E02B68434A1360414A11682960216845
:10092000116032682260336005F09AFF002806DD0E
:1009300005F04EFF3C4B186004F0CEF8F4E73B4B5B
:100940001B78002B59D03A4A1388002B12D13A68F1
:1009500033689B1A374A0021525E9B1A364A13604D
:1009600022682B689B1A354A0021525E9B1A344A32
:10097000136015E0013B9BB21380002B10D1284A75
:100980003368126821689A1A009B12B25A832B6846
:100990005B1A00991BB28B8326490A80274A138071
:1009A000FFF782FD009B244804229A5E03685142AF
:1009B000994201DDD31804E09A4201DA9B1A00E063
:1009C00000230360009B1E4906229A5E0B68544276
:1009D0009C4201DDD31804E09A4201DA9B1A00E040
:1009E00000230B60019B09681A68006803F01CFC77
:1009F000144B186804F04AFE01E000F0EDFDFFF72B
:100A000069FEFFF7C7FEF7BDE80500203C020020A5
:100A1000FF0300000406002008060020FC0500205B
:100A20001806002020060020000600207602002084
:100A30007202002010060020280600201606002062
:100A40002C06002034020020013810B509283CD8BB
:100A500006F028FD0A0E232505072E312935C82268
:100A600000E06422C8211CE0C822C821520029E00D
:100A7000164A1388002B28D1FA2089B2C8334B4379
:100A8000C0001B181248013103809620114B1180C1
:100A90001880114B6438188017E0C82200E06422E7
:100AA000962149000EE0C822C8215200890009E0C1
:100AB00005220A4906E0FA210522090102E0FA228C
:100AC000E6211201092006F07BF910BD1C0600206A
:100AD0002606002012060020E405002088130000EE
:100AE00010B504F00DFC10BD70B50500FFF7C0FC9B
:100AF0000400280006F076F8001970BDD2B270B577
:100B00000500002A03D103681B68984714E00A2AED
:100B100001D0012A04D10022280006F075F80BE06C
:100B2000102A02D106F0A7F806E0022A02D106F048
:100B3000B8F801E006F0C8F80400280006F052F802
:100B4000001970BDF0B53B4B85B01B7800900E00CE
:100B50000192394D012B27D1384C39492000FFF73C
:100B6000C3FF38492000FFF783FC102229782000BA
:100B7000FFF7C4FF34492000FFF77AFC00992000FA
:100B800006F070F8314F20003900FFF771FC31009A
:100B9000200006F067F839002000FFF769FC0A2200
:100BA00001992000FFF7AAFF294A009B1168294CF0
:100BB0008C4663441360236827489B192360297877
:100BC000036816000090254A994207D11168244B0A
:100BD00002911B68029928338B4228D8FF2713689B
:100BE000FD200393039A1E4B1A6004F035FE00208B
:100BF00004F032FE032004F02FFE287804F02CFECF
:100C00003068384004F028FE2068384004F024FEA4
:100C1000002004F021FE002004F01EFE002004F05D
:100C20001BFE0023009A336023602B78136005B00D
:100C3000F0BDC0460E060020D40700200C030020A3
:100C40006589000077890000838900009089000091
:100C5000C8070020CC070020DC070020200F002060
:100C6000D007002010B5054A1378184310700022F1
:100C700011001000FFF766FF10BDC046D40700202A
:100C800010B5054A13788343137000221100100039
:100C9000FFF758FF10BDC046D4070020034B1B7858
:100CA0001840431E9841C0B27047C046D407002088
:100CB00070B5294B294E1B78294C012B2FD1294D7A
:100CC00029492800FFF710FF28492800FFF7D0FB2B
:100CD000102231782800FFF711FF25492800FFF77F
:100CE00003FF217810222800FFF708FF6178102207
:100CF0002800FFF703FFA17810222800FFF7FEFE6F
:100D0000E17810222800FFF7F9FE2179102228004F
:100D1000FFF7F4FE617910222800FFF7EFFEFD20B7
:100D200004F09AFD307804F097FD002004F094FD63
:100D3000207804F091FD607804F08EFDA07804F036
:100D40008BFDE07804F088FD207904F085FD607962
:100D500004F082FD70BDC0460E060020D5070020BD
:100D6000D60700200C03002092890000A78900000C
:100D7000B4890000C2B270B50012E02804D10A495B
:100D80000B781A430A700CE0F0280AD100230748B8
:100D9000195C1C000500002902D001338A42F7D1FA
:100DA0002A55FFF785FF70BDD5070020D607002024
:100DB00010B5C1B202120023E02A04D10C4A137804
:100DC0008343137010E00B4A5C1CD31818788842D8
:100DD00001D02300F7E7991A052903D05978197033
:100DE0000133F8E700235371FFF762FF10BDC046DF
:100DF000D5070020D6070020002310B5054A137040
:100E000053709370D37013715371034A1370FFF7CB
:100E10004FFF10BDD6070020D5070020F7B50026EC
:100E200080270190019B9B5D002B25D05AB2002AA0
:100E300008DB124AD45C40231C4204D04023104DEE
:100E40009C4305E0002400253C4204D00D4DBC43EA
:100E50002800FFF78FFFF0231B021C432000FFF741
:100E600089FF2000FFF7A4FF002D02D02800FFF724
:100E70009FFF0136B6B2D5E7F7BDC0461894000013
:100E800002E0000040E0000010B5074B1B78012B8A
:100E900003D106490648FFF727FE9C2004F078FCA2
:100EA0000122044B1A7010BD0E060020C5890000F7
:100EB0000C030020C4070020024B1878431E984101
:100EC000C0B27047C407002010B501210C2004F007
:100ED000C9FA01210C2004F093FAFA20000104F071
:100EE000D5FB0C20002104F0BDFA10BD07B504F0BD
:100EF00007FA034B1B680193019A024B1A6007BD66
:100F0000200F0020D0070020F8B5144E8700BD59EF
:100F1000281E21D007F093FCAF23114A9B0001301B
:100F2000521B84B2D218121B92B22919280007F062
:100F300094FB0023BB51F258954201D2121BF25090
:100F400004334C2BF7D1074B1888001B80B2188054
:100F5000AF239B00181A80B2F8BDC0469C0A00203F
:100F6000E0070020E80A0020F8B50F000500FFF7B1
:100F7000CBFF104B38001C8807F061FC0E4A231889
:100F80000020934214D80D4E39003619300007F076
:100F90004EFC0B4BAD003800EE5007F050FC013416
:100FA000044B201880B21880AF239B00181A80B21F
:100FB000F8BDC046E80A0020BA020000E0070020A1
:100FC0009C0A002070B519231B251226154C1649C2
:100FD0002380A5802581A6810320FFF7C5FF2682F7
:100FE00012490420FFF7C0FFA68211490520FFF730
:100FF000BBFF26830F490620FFF7B6FF4523A383D7
:10100000423BA3841F332385A31CDD872584A5854C
:101010002586A5862587A587A31D4834DD872580DD
:1010200070BDC046840B0020D4890000DC8900001C
:10103000E6890000F089000010B5064B8200064CDE
:1010400099180220095E985C0123125900F030FCC7
:1010500010BDC046840B00209C0A0020244A80005A
:10106000835A10B5392B26D00ED8082B21D004D89E
:10107000062B18D0072B18D039E00F2B2FD0102BB0
:1010800035D100221B4B2CE0462B0ED004D83D2B33
:1010900029D0452B07D02AE0472B0AD04C2B26D14C
:1010A00002F0A8F923E0012000E0022001F074FE24
:1010B0001DE00420FAE710184388013BDBB21F2B28
:1010C00015D801229A4013000B490A689A430B4B2A
:1010D0000A601B78002B0AD105F0BEF807E0002259
:1010E000074B1A7003E0074BC05803F08EF810BD91
:1010F000840B0020EF0E002028120020F0100020AA
:10110000EE0E00209C0A00200C4B8000C35A0120E8
:101110009A1F022A10D9333A92B2132A05D80849E5
:10112000D1400A000100914306D0002001220F3B6C
:101130009BB29A424041C0B27047C046840B002027
:101140001170080073B5164A0500C00014186678BF
:101150008E4220D1835C062B12D80133DBB283543C
:10116000072B0DD1A378B3420AD0A6702800012E18
:1011700008D1FFF761FF0B4B1B680193019B636074
:1011800000240BE0FFF7C0FF0124002806D0280050
:10119000FFF764FF02E0617000248454200076BDF4
:1011A000EC0A0020200F00200021064A531C99322F
:1011B000581E197059700170997008339342F7D115
:1011C0007047C046EC0A002010B504F099F810BD35
:1011D000024B034A1A80034A5A807047D40B0020FE
:1011E0004054000001A4FFFF10B5074C0721200068
:1011F00005F060FB20000421083005F05BFBA188AE
:10120000024805F057FB10BDD40B0020008A0000F7
:1012100070B50425074C07212000A58005F04AFB86
:1012200020002900083005F045FBA188024805F0A0
:1012300041FB70BDD40B0020FC890000002310B5D9
:10124000054C07212000A38005F034FB2000042179
:10125000083005F02FFB10BDD40B002010B5084C52
:101260000721200005F026FB20000421083005F0AE
:1012700021FB2000A1880C3005F01CFB10BDC046EE
:10128000D40B00200D4B0E4A1B6812680D499B1AA7
:101290000D4A9BB213731B1253730C4B09681B68E6
:1012A0005B1A9BB293731B12D373094B1B681374A5
:1012B0001B125374062393807047C046FC05002020
:1012C0001806002008060020D40B00200406002089
:1012D000E805002070B50E4D287804F0B1F84442BE
:1012E00044416878E4B204F0ABF8002801D102234D
:1012F0001C43A87804F0A4F8002801D104231C435F
:10130000044B00201A78A24201D01C70013070BD3D
:1013100060020020180C002010B5FFF7DBFF034A25
:10132000034B12781A7301229A8010BD180C00200A
:10133000D40B002070B5394C394B258962891D8149
:10134000A17906029971D1B28E195E810100102334
:1013500019405FD1D2B22379112A1AD004D8002AB9
:1013600007D0102A28D055E0812A07D0822A08D039
:1013700050E0002B4ED1FFF737FF4DE0002B49D155
:1013800004E0002B46D1274A01331370264A13701C
:1013900040E0022D08D0032D09D0002D3AD1002BBA
:1013A00038D1FFF735FF37E0FFF76CFF01E0FFF7BB
:1013B000B3FFFFF753FF2FE0042D0FD0052D26D0EC
:1013C000012D27D1022B25D1237B184A1380637B63
:1013D00011881B02CB189BB213801BE0012B19D183
:1013E000257B134C20781D4200D1190004F008F829
:1013F00060780021AB0700D4012104F001F8A07847
:1014000000216B0700D4012103F0FAFF02E0094834
:1014100003F0E4FAFFF712FF012070BDF80B002083
:10142000D40B00207402002076020020F40B002070
:10143000380200203106002070B55D4C0300207892
:101440000F2800D9A8E006F02DF808191E25343819
:10145000425A5E65697A9A9C9EA0402B01D13F3B1F
:101460009BE020229343412B00D0A0E00021514A71
:10147000403B1170504A237013708FE0542B00D002
:101480008AE0523B89E000214C4A11704C4A53805B
:10149000032382E04A4A1B025188CB189BB2538037
:1014A000002B04D11021454A13780B4313700423F9
:1014B00073E0434A938005236FE0414A1B02918801
:1014C000CB189BB293800F2B66D8062365E03C4A6D
:1014D000DDB295713B4A3C481178002901D00023C8
:1014E00009E07F21027801320A40934204D0334A56
:1014F0007D3913780B431370057007234DE0304A94
:101500001381082349E02E4A1B021189CB1813814D
:10151000092342E02A4A53810A233EE02B4ADBB2E8
:101520001370274A9288002A05D00B2300222370CB
:10153000274B1A6032E0DB072CD50C232DE0204A24
:10154000234D118905290AD18C202968FF30814259
:1015500005D820484354002341184B7002E0296805
:1015600051180B732B6801332B609288934215D16D
:10157000164B1B78DB070DD5237801330DE00D23C7
:101580000BE00E2309E00F2307E004210B4A137838
:101590000B431370632300E0002323702378632B35
:1015A00005D1064B1878FFF7C5FE0023237070BDE8
:1015B000140F0020190C0020760200201A0C0020C5
:1015C000F80B002074020020D00B0020F60B002046
:1015D0001C0C00203106002070B5184D2B88002B04
:1015E00027D0174C23780133DBB2002B00D18023A6
:1015F00023700223134E33812378B3712023738128
:10160000FFF740FEFFF72AFEFFF764FE002810D028
:1016100023780133DBB2002B00D180232370032316
:1016200033812378B37120237381FFF775FEFFF7B1
:1016300015FE288880B204F029F870BDF40B002054
:1016400075020020D40B002010B503F059FE10BD28
:1016500070B50022050005F0D7FA0400280005F057
:10166000C1FA001970BDFFFFF0B5734C85B0734926
:101670002000FEF70AFF72492000FFF735FA714992
:101680002000FEF702FF704D20006978FFF7E0FFB1
:101690006E492000FEF7F9FEA9782000FFF7D8FF79
:1016A0006B492000FEF7F1FE0423E95E2000FEF7FF
:1016B000F0FE68492000FEF7E8FE0623E95E200000
:1016C000FEF7E7FE64492000FEF7DFFE29892000CF
:1016D000FEF7DFFE61492000FEF7D7FE6989200092
:1016E000FEF7D7FE5E492000FEF7CFFEA989200055
:1016F000FEF7CFFE5B492000FEF7C7FEE989200018
:10170000FEF7C7FE58492000FEF7BFFE297C2000E7
:10171000FFF79EFF55492000FEF7B7FE698A2000BB
:10172000FEF7B7FE52492000FEF7AFFEA98A20005F
:10173000FEF7AFFE4F492000FEF7A7FE29782000F4
:10174000FFF786FF4C492000FEF79FFEA97D200091
:10175000FFF77EFF49492000FEF797FEE97D200054
:10176000FFF776FF46492000FEF78FFE297E200016
:10177000FFF76EFF43492000FEF787FE697E2000D9
:10178000FFF766FF40492000FEF77FFEE98B20004F
:10179000FEF77FFE01353D492000FEF776FEE97F2A
:1017A0002000FFF755FF002539492000FEF76DFEA8
:1017B000082D03DC37492000FEF767FE01352900BC
:1017C0002000FEF766FE34492000FEF75EFE334E31
:1017D000AB009E190193331F1F88314BBF00DF19E7
:1017E000390003A807F023F803A92000FEF74DFEF7
:1017F000FB78002B18D0022B0DD9032B14D12949CB
:101800002000FEF742FEAB00274A043BD1582000DF
:10181000FEF73BFE08E023492000023EFEF735FEBE
:101820003188200005F01EFA20492000FFF75CF9FE
:10183000132DB9D105B0F0BD0C030020068A0000BD
:10184000630200200C8A00003C020020138A000082
:101850001A8A0000218A0000288A00002F8A0000CE
:10186000368A00003D8A0000448A00004B8A00004E
:10187000528A0000598A0000608A0000678A0000CE
:101880006E8A0000758A00007C8A0000838A00004E
:101890008A8A0000B6900000918A0000840B002024
:1018A000E18B0000CD8E00009C0A0020CE8E00004F
:1018B000F0B51500B44A0C001178E7B0019017009C
:1018C00000293DD0B14B1B78012B22D1B04EB1493C
:1018D0003000FEF7DAFD00223978300005F094F987
:1018E000AD493000FEF7D1FD00220199300005F02E
:1018F0008BF9AA493000FEF7C8FD2100300005F041
:10190000B1F9A6493000FEF7C0FD29003000FFF70D
:10191000EBF869463878A24A0138898883009952E1
:10192000D3185C80C0B2FFF7EFFA002D05D03878ED
:1019300029000138C0B2FFF717FB00233B70DEE23D
:10194000019A4D2A00D9DAE2100005F0B5FD4E00EB
:10195000500080006A00880074008F00910095009C
:10196000860070009F00A100A600AC00AF00B6008A
:101970006C0170017C01800183018901A401BB011C
:10198000C001D201D802CC02D302DF01F10106026C
:1019900008020B021F0222022502280268026B02C3
:1019A0006E027102740277027A027D02870293024C
:1019B000B902B602C402C000D300DD00EF00F90096
:1019C000050110014501BD0274012B022E023102F6
:1019D00064028002C10283028F009100950097008B
:1019E00099009D0078019F02AB026E4915E0FEF759
:1019F000C3FD664B1B78012B08D1654D6A49280051
:101A0000FEF743FD21002800FEF743FD631E9BB255
:101A1000122B01D83C7072E264495D48FFF764F80C
:101A20006DE2022001F0D0F9082003F02FFE022021
:101A300001F0B2F963E2012001F0C6F9082003F0D9
:101A400025FE012001F0A8F9082003F01FFE012067
:101A500001F0BAF9082003F019FE0120E8E704209C
:101A600001F0B2F9082003F011FE0FE0012000E0C0
:101A7000022001F0A9F942E20420FAE7012000E087
:101A8000022001F0B9F93AE20420FAE70420CFE796
:101A9000474B187C404240B202E01020444B18569D
:101AA00001F0D6F92BE2424B1C7428E2002B01D046
:101AB000404B05E01900200006E0002B02D03E4B11
:101AC0001C701CE22100180001F0E0F917E23B4B0A
:101AD0003B485A6810403B4A944200D91400240104
:101AE00004435C60384B1B78002B00D007E204F005
:101AF000B3FB04E2314B35485A681040314A9442F6
:101B000000D91400A403EBE72E4B9C4200D91C0023
:101B10002A4A2106536890681B021B0A0B43536034
:101B20000323240A984304439460DBE7234B2848AB
:101B30009A681040234A944200D91400A40008E097
:101B40001E4B24489A6810401E4A944200D9140043
:101B5000240304439C60C5E7013CE4B21F2C00D978
:101B6000CDE10123A340154A11680B430AE0013C73
:101B7000E4B21F2C00D9C2E10123A3400F4A11682F
:101B800099430B001360ADE7200C00200E060020E7
:101B90000C030020958A0000068F00001A890000BF
:101BA000840B0020AE8A0000BD8A0000C5930000AF
:101BB0003C020020EE0E0020EF0E00202812002034
:101BC0000FC0FFFFFF030000F0100020FF3F00FFE9
:101BD00003F0FFFFFF0FC0FF0F23002C1CDB0023CF
:101BE000162C19DD0133432C16DD0133702C13DD67
:101BF00001339D2C10DD0133CA2C0DDD0133F42C93
:101C00000ADD922201335200944205DD5222FF3256
:101C10000023944200DC07330F22BA4948689043FE
:101C200003434B605EE7280001F0D0F967E128002C
:101C300002F0DCFA63E1280002F0E2FA5FE128003A
:101C400002F0E8FA5BE1280002F0DFFA57E1FEF764
:101C500093FC54E1FEF790FC280000F02BFC4EE1D1
:101C6000002D00D14BE1FEF787FC280000F064FE58
:101C70000022A54BA5491A70A54BDA8A8A4203D1E6
:101C8000198B914200D13AE1598BA24A11809A8B6B
:101C9000A14B1A8033E1FEF76FFC02239A4D00241A
:101CA0002B7000F0A1FF0022200001341100E4B2EB
:101CB00000F01CFD072CF6D100200121287000F057
:101CC00035FE1CE1FEF758FC01F006F817E1934BD6
:101CD0008D4C1D78012D04D191499248FEF7D5FB1A
:101CE0002570FEF749FC002000F026FE002323703B
:101CF00005E18A4B1B78012B03D18B498948FEF7FC
:101D0000F3FEFEF739FC00F04DFAF8E0804BE4B248
:101D10001C70824B1B78012B00D0F0E08148834976
:101D2000012C00D17AE6824900D977E6814975E62F
:101D30007A4B1B78012B03D17F497A48FEF7D4FEFA
:101D40000F210620FEF7BCFC714B1A78002A01D146
:101D5000013200E000221A70D1E0012200E00022EE
:101D6000764BF8E76D4B1B78012B03D174496D4816
:101D7000FEF7BAFE14210A20FEF7A2FC6422714B82
:101D8000002101201A80FEF75FFEB8E0604B5C7016
:101D9000B5E05F4B9C70B2E05D4B9C80AFE05C4B6C
:101DA000DC80ACE05A4B1C81A9E0594B5C81A6E079
:101DB0005A4B1B78012B08D15A4C63492000FEF77F
:101DC00064FB29002000FEF78FFE2B78002B00D14A
:101DD00095E000231A002978002911D03B2902D16F
:101DE000002A04D10CE05C2901D1002A05D05A1C3C
:101DF00002A8C154D3B2002200E001220135EAE773
:101E0000002202A90800CA5402F0E8FD2B785A1EED
:101E10009341ED18D9E7200003F038FC6FE03C4B0C
:101E20009C816CE03A4BDC8169E0394B5C8266E076
:101E3000374B9C8263E0364B9C7560E0344BDC751D
:101E40005DE0334B1C765AE0314B5C7657E0304B0B
:101E5000DC8354E02E4B0133DC7750E02F4B1B78B2
:101E6000012B03D139492F48FEF73EFE280001F02F
:101E700085F944E0294B1B78012B03D134492948CB
:101E8000FEF732FE280001F0A1FA38E0234B1B7860
:101E9000012B03D12F492348FEF726FE280001F02D
:101EA0009FFA2CE01D4B1B78012B03D12A491D48BA
:101EB000FEF71AFE01F09EFA21E001F007FA1EE09B
:101EC000280001F007FA1AE0A0B201F09FFA16E02C
:101ED00001F096FA13E00122104B20491A70204BB2
:101EE00092181A7099E501230C4A1E4913701C4A76
:101EF000137092E50023094A1370194A137067B0F2
:101F0000F0BDC04628120020E70500203232000054
:101F10003C02002010060020160600200E060020BD
:101F2000D28A00000C030020E18A0000EE8A000043
:101F3000078B0000238B0000438B0000EC05002082
:101F4000678B000072020020798B0000888B0000F4
:101F50009A8B0000AA8B0000BA8B0000CA8B00008D
:101F6000210C0020D98B000010B503F0C9F910BD79
:101F700010B5002204F048FE10BD10B5002204F098
:101F800043FE10BD10B503F0BBF910BDF8B51C4CF5
:101F9000A02223003B331A70230001275E331F70F9
:101FA000230005000E00010A5D33C9B220001F7036
:101FB00002F018FEE9B2200002F014FE3100200009
:101FC00002F010FE3900200002F02CFF052003F083
:101FD0005DFB0C4B1B78022B10D10B4C0B492000E6
:101FE000FEF753FA29002000FFF7C7FF0849200039
:101FF000FEF74BFA31002000FFF72AFBF8BDC04680
:1020000084020020210C00200C030020198D000008
:10201000CC8E0000F7B50D00002400902A5D002A48
:1020200002D00134A4B2F9E726345649A4B2002301
:102030008858C65C002E02D001339BB2F9E7053305
:10204000E4180432A4B24C2AF1D14F4F3B78012B53
:1020500000D08DE04D4E4E493000FEF716FA2100BB
:102060003000FEF716FA009B002B02D19023494A5C
:102070001380009B474A5B00D45A3B78012B08D160
:10208000424E45493000FEF700FA21003000FEF7CD
:1020900000FA51212000FFF779FF601C80B2022175
:1020A000FFF774FF0026A71CBFB23C4BB819995D1F
:1020B00080B20136FFF76AFF222EF6D120002700FA
:1020C000243080B20021FFF761FF00262537BFB220
:1020D000A95D01363800B6B2FFF758FFAB19013BD6
:1020E0007C1C1B78A4B22700002BF1D11D00002618
:1020F0002B4FEF19A019B95D80B20136FFF746FFEB
:10210000042EF7D1201D80B20021FFF73FFF661D8E
:102110001C4B9334FF345F59A3B2B6B201933978A4
:102120003000FFF733FF3B78741CA4B2002B03D1BF
:1021300004354C2DDBD105E0019B013726009C4284
:10214000EDD1F5E7009B062B03D1124B8E331C809B
:1021500004E0009B0F4A01335B00D45200240D4B76
:102160002000195D0134FFF711FF902CF7D108E032
:10217000009B002B00D179E7009B064A5B00D45AF4
:1021800087E7F7BD9C0A0020210C00200C030020EB
:10219000238D0000220C00202E8D00003C02002028
:1021A000840B002070B5104B1B78012B03D10F4915
:1021B0000F48FEF799FC002426000E4D0021605BBD
:1021C000FFF7E4FE605B00210130FFF7DFFE66539E
:1021D00002340E2CF1D10024295D20000134FFF7D8
:1021E000D5FE902CF8D170BD210C00203F8D000051
:1021F0000C030020220C0020F0B585B002930400EF
:10220000002301910392019AD25C002A02D001338B
:102210009BB2F8E7404F414D3B78012B72D1404EC5
:1022200040493000FEF731F9029B3000D91CFEF71F
:1022300030F9002C01D13C4BEB81231D5B00ED18E4
:102240003B78EE88012B08D1354D38492800FEF740
:102250001CF931002800FEF71CF930006621B51E7C
:10226000013EFFF793FEB0B2BB21FFF78FFE0026C1
:10227000ADB2019B2800995DFFF788FE0136019BF6
:10228000B6B29B19013B1B786F1EBFB2002B01D069
:102290003D00EEE7AB1E9BB2029938000193FFF7B9
:1022A00075FE6B461B89039E02935B00ED1A023D8F
:1022B000ABB2019D0393039B9D420ED03178280061
:1022C000FFF764FE6F1E3188BFB2023D090A380075
:1022D000ADB2FFF75BFE0236EDE7029B019A5B00B1
:1022E000D31A9BB20D4D3E2C03D0053464002C193B
:1022F000E3800024295D20000134FFF747FE902C85
:10230000F8D106E0002C96D0231D5B00ED18EE8876
:10231000A3E705B0F0BDC046210C0020220C002030
:102320000C030020528D0000FF7F0000608D000034
:1023300070B5234CA02223003B331A7023000126E2
:102340005E331E7023000500010A5D33C9B2200010
:102350001E7002F047FCE9B2200002F043FC31009D
:10236000200002F05FFD330032005021200002F017
:10237000DBFD230022003933383219781378FE361A
:10238000994206D00026994203D9591C1170E418CD
:10239000267E0C4B1B78022B10D10B4C0B492000D6
:1023A000FEF773F829002000FFF7E7FD0849200039
:1023B000FEF76BF831002000FFF74AF9300070BDDE
:1023C00084020020210C00200C030020758D0000E9
:1023D000CC8E0000F0B5002485B001902E4B620039
:1023E000D55A002D43D02800FFF7A2FF51283ED137
:1023F000681C80B2FFF79CFF022838D100272535E2
:10240000ABB2019D0393039B019A2E789B1A5B1933
:1024100018000293FFF78CFF86421FD01F4B1B78DA
:10242000022B24D11E4E1F493000FEF72EF8390032
:102430003000FFF7A2FD1C493000FEF726F828788F
:1024400004F0A8FA19493000FEF71FF80298FFF7C8
:102450006FFF01003000FFF7FBF808E02B78002B3E
:1024600003D0013701350F2FCDD160B211E0013417
:10247000072CB3D1094B1B78012B08D1084C0C4910
:102480002000FEF702F801992000FEF72DFB012045
:10249000404205B0F0BDC046220C0020210C0020B7
:1024A0000C0300207F8D0000CD8E0000938D000076
:1024B000968D0000F8B50600FFF78CFF431C2DD168
:1024C0000024174B6200D55AE7B2002D06D1154BF8
:1024D0001B78012B1AD1144D144910E02800FFF786
:1024E00027FF512817D00135A8B2FFF721FF022896
:1024F00011D00C4B1B78012B08D10B4D0C49280037
:10250000FDF7C3FF39002800FFF7A2F860B23100E1
:10251000FFF780FD02E00134072CD2D1F8BDC046A0
:10252000220C0020210C00200C030020A98D0000AB
:10253000B48D0000F0B5002485B00090E3B2394AB4
:1025400003936300D318DD89002D56D02800FFF7D0
:10255000EFFE662851D1681E80B2FFF7E9FEBB2866
:102560004BD10026023D009FADB23B780193AB1BDF
:1025700018000293FFF7DCFE019B83421FD02A4B19
:102580001B78022B39D1294D29492800FDF77DFF01
:1025900031002800FFF7F1FC26492800FDF775FF00
:1025A000387804F0F7F924492800FDF76EFF029807
:1025B000FFF7BEFE01002800FFF74AF81DE03B7858
:1025C000002B03D0013601370F2ECED1164B1B78CE
:1025D000012B10D1154D19492800FDF756FF009920
:1025E0002800FDF752FF16492800FDF74EFF03991A
:1025F0002800FFF72DF860B211E001343F2C9DD187
:10260000094B1B78012B08D1084C0E492000FDF71F
:102610003CFF00992000FEF767FA0120404205B018
:10262000F0BDC046220C0020210C00200C0300202D
:102630007F8D0000CD8E0000938D0000C58D0000C1
:10264000BA8E0000968D0000F8B503780700214C83
:10265000002B26D0FFF76EFF1F4BC5B21B78012B56
:1026600010D11E4E1E493000FDF70FFF390030001B
:10267000FDF70BFF1B493000FDF707FF2900300075
:10268000FEF7E6FF04356D006419E08890281FD935
:10269000FF21FFF77BFCE088FF210138FFF776FC84
:1026A00016E0250010490D48FEF71EFA0E358C3451
:1026B0002888902807D9FF21FFF768FC2888FF2188
:1026C0000138FFF763FC00232B800235A542EFD1D0
:1026D000F8BDC046220C0020210C00200C03002075
:1026E000D78D0000BA8E0000E68D0000F0B585B0F1
:1026F00005000292062800D900257C4F002935D01C
:102700006B000193FE5A7A4B1B78012B08D1794C50
:1027100079492000FDF7B9FE29002000FEF798FF57
:10272000741C3000A4B2FFF703FE51280CD102360E
:102730002000B6B2FFF7FCFD022804D16B00FC5A62
:102740006E4B1D7004E034000135EDB2072DD7D17A
:102750002000FFF7EDFD512800D0B2E0601C80B2F0
:10276000FFF7E6FD022800D0ABE00EE06D007C5BD9
:102770002000FFF7DDFD512800D0B4E0601C80B2DE
:10278000FFF7D6FD022800D0ADE00234A4B2584BCA
:102790001A780393012A08D1564D59492800FDF7AC
:1027A00074FE21002800FDF774FE0025601980B238
:1027B000FFF7BEFD534B58550135222DF6D1524E31
:1027C00023343700A4B22000FFF7B2FD651CADB280
:1027D00030702C0001360028F5D14C4B1B78012BB2
:1027E00008D1444C4A492000FDF74FFE3900200033
:1027F000FEF77AF900260024F3B20193454BB700A7
:10280000FF18281980B2FFF793FD38550134042CC6
:10281000F7D1281D6C1D80B2A4B2FFF789FD0028F6
:102820000BD0344F3C493800FDF72FFE601EFFF7F8
:102830007FFD01003800FEF70BFF2000FFF778FD59
:10284000002814D000272000FFF772FD3349651CD3
:10285000ADB2C855002803D10198FEF785FB08E00A
:102860008E230137FF332C009F42ECD1F4E706356D
:10287000ADB20136132EBED1294B1A781D00002AA5
:1028800001D0FEF7F1FE029B002B04D01B4B02206F
:102890001978FEF7D9F8039B1B78002B09D0154C4B
:1028A00020492000FDF7F1FD144B20001978FEF7B8
:1028B000CFFE2B78002B16D01B490E48FEF714F9DB
:1028C00011E03C882000FFF733FD51280BD1601C3C
:1028D00080B2FFF72DFD022805D10022074B0234FC
:1028E000A4B21A7053E705B0F0BDC046220C002018
:1028F000210C00200C030020FC8D00001406002099
:102900000C8E00003C020020630200200E06002016
:102910002B8E0000840B00203B8E0000310600202F
:10292000E7050020548E00005791000010B50122E9
:10293000FFF7DCFE10BDFFFF70B503780600002B2B
:1029400004D1134B18780130C0B21AE0FFF742FDF2
:10295000104B04001B78012B10D10F4D0F4928009C
:10296000FDF793FD31002800FDF78FFD0C4928008D
:10297000FDF78BFD21002800FDF78BFD002C02DB0D
:10298000E0B2012101E001210020FFF7CFFF70BD7F
:1029900014060020210C00200C0300205E8E000095
:1029A000BA8E0000F7B5070000910192FFF7C2FD53
:1029B000431C29D10025154A6B00D318DC89EEB2DF
:1029C000002C0AD02000FFF7B3FC662819D0013C88
:1029D000A0B2FFF7ADFCBB2813D00D4B1B78012B29
:1029E00008D10C4C0C492000FDF74FFD31002000B0
:1029F000FEF72EFE019B009A39003000FFF7FCFB2A
:102A000002E001353F2DD6D1F7BDC046220C002093
:102A1000210C00200C030020698E0000F8B5002571
:102A2000184A6B00D318DC89EEB22000FFF780FC57
:102A3000662822D1601E80B2FFF77AFCBB281CD129
:102A4000114F12493800FDF720FD31003800FFF723
:102A50008FFA023C0E493800A4B2FDF716FD661E3F
:102A60002000B6B2FFF764FC002803D003F092FF09
:102A70003400F4E7380004F0B5F801353F2DCFD12C
:102A8000F8BDC046220C00200C0300207A8E000006
:102A9000068F0000F7B50E0000923F2801D90024F0
:102AA00065E0344B0430344D400018182B78C4884E
:102AB000012B03D131493248FEF716F82000FFF709
:102AC00037FC6628EBD1601E80B2FFF731FCBB28D3
:102AD000E5D12B78023CA4B2012B08D1284D29491D
:102AE0002800FDF7D2FC21002800FDF7D2FC264D7E
:102AF0002000FFF71DFC671E2870BFB201350028BB
:102B000001D03C00F4E7214B1B78012B08D11C4D70
:102B10001F492800FDF7B9FC1E492800FDF7E4FF16
:102B20003800FFF705FC009BA51E5B00E41A023C81
:102B3000A3B284B2ADB200936300EB1A9BB20193CF
:102B4000009B9D4213D0019B9D4210D02800FFF7AF
:102B5000EFFB6F1EBFB230803800FFF7E9FB338810
:102B60000002023D18183080ADB20236E8E72000BE
:102B7000FEBDC046220C0020210C0020848E0000E7
:102B80000C0300209A8E0000ED0500200E060020A8
:102B9000BC8E000063020020F7B5060001920F0012
:102BA000FFF7C8FC04000D4D0D492800FDF76DFC32
:102BB00031002800FDF769FC0A492800FDF765FC93
:102BC00021002800FDF765FC0020844204DBE0B210
:102BD000019A3900FFF75EFFFEBDC0460C030020DE
:102BE000CF8E0000BA8E0000F8B500252800FFF750
:102BF0009FFB314C28550135902DF7D100231D0046
:102C00002E49CA5C0133AD18ADB20E2BF9D1208824
:102C1000FFF78EFB512838D120880130FFF788FB61
:102C2000022832D123008C331B88AB422DD1244B98
:102C30001B78012B3ED1234D23492800FDF754FF7B
:102C40000026F1B22800FFF793F9204F2800390041
:102C5000FDF71BFC7300E15A28000136FDF719FC53
:102C6000072EEED10026F1B22800FFF781F93900D6
:102C70002800FDF70AFC7300E318D9892800013603
:102C8000FDF707FC3F2EEED114E004210220FDF7F2
:102C9000DBFE0F490B48FDF727FFFFF783FA002003
:102CA000FFF7D2FC23000B498C3300201D80FFF777
:102CB000B1F9BCE7F8BDC046220C0020AE8A000086
:102CC000210C00200C030020E08E0000CC8E0000C0
:102CD000088F00001D8F0000F8B50025174B6A0013
:102CE000D45AEEB22000FFF723FB512822D1601CFA
:102CF00080B2FFF71DFB02281CD1114F114938008B
:102D0000FDF7C3FB31003800FFF732F925340E49D7
:102D10003800A4B2FDF7B9FB661C2000B6B2FFF77D
:102D200007FB002803D003F035FE3400F4E7380039
:102D300003F058FF0135072DD0D1F8BD220C00203B
:102D40000C030020238F0000068F00001F2310B506
:102D5000064A184011780843814206D000231070BB
:102D600019001A00180003F0DBFC10BDBF10002092
:102D70001F2310B5074A184011780B00834399426E
:102D800006D0137000231A001900180003F0C8FCC5
:102D900010BDC046BF10002070B50A4B05005A1C7C
:102DA000D27F1C00D30701D5FFF7E2FF631CDB7F56
:102DB0009B0706D5FEF780F8002802D02800FDF713
:102DC0005FFF70BD3C02002070B50A4B05005A1C25
:102DD000D27F1C00D30701D5FFF7B8FF631CDB7F50
:102DE0009B0706D5FEF768F8002802D02800FDF7FB
:102DF00039FF70BD3C02002070B5134B04005A1C13
:102E0000D27F1D00D30709D5104B1A780240D30694
:102E100002D0FFF7ADFF01E0FFF798FF6B1CDB7FEF
:102E20009B070FD5FEF748F800280BD02000FDF7D0
:102E300035FF002803D02000FDF722FF02E020002C
:102E4000FDF710FF70BDC0463C020020BF100020FF
:102E500070B50D4B05005A1CD27F1C00D30705D559
:102E6000002302001900180003F05AFC631CDB7FEA
:102E70009B0708D5FEF720F8002804D00021EAB20D
:102E80000800FDF75FFE70BD3C020020F8B50500AC
:102E90000E0001272B004C4C803301DB022724E07D
:102EA000631CDB7F3B4206D0002380201A00190000
:102EB000404203F035FC0134E37F9B0703D5FDF767
:102EC000FBFF002865D18035E4E70122631CDB7F2E
:102ED000134205D000237F201A00190003F020FCC4
:102EE000631CDB7F3B4204D17F3D7F2DEDDC01275E
:102EF00014E0FDF7E1FF002852D1F5E7631CDB7F0A
:102F00003B4206D0002380211A004942180003F0FA
:102F100007FC631CDB7F9B0705D4803633008033BE
:102F2000ECDB022714E0FDF7C7FF00283ED1F4E7F1
:102F30000122E318DB7F134205D000237F211A0012
:102F4000180003F0EDFB631CDB7F3B4204D17F3EA6
:102F500001237F2EECDC04E0FDF7AEFF00282CD12E
:102F6000F5E7621CD27F1A4205D0002371B268B225
:102F70001A0003F0D5FB0134E37F9B0723D5FDF74F
:102F80009BFF00281FD0002231002800FDF7DAFD4A
:102F900019E00022802011004042FDF7D3FD92E7A6
:102FA00000227F201100FDF7CDFD9DE7002280214A
:102FB00010004942FDF7C6FDAFE700227F21100057
:102FC000FDF7C0FDC3E7F8BD3C02002070B5104B13
:102FD00005005A1CD27F1E00D3070DD500242800FF
:102FE00005F02DFCA04207D9285D03F03DFA285DCD
:102FF00003F0C0FA0134F2E7731CDB7F9B0706D5B0
:10300000FDF75AFF002802D02800FDF707FF70BD2A
:103010003C02002070B50B4B05005A1CD27F1C00EF
:10302000D30702D580B203F01FFA631CDB7F9B0736
:1030300006D5FDF741FF002802D02800FDF79AFED3
:1030400070BDC0463C02002070B50B4B05005A1CF9
:10305000D27F1C00D30702D580B203F08BFA631C29
:10306000DB7F9B0706D5FDF727FF002802D028004D
:10307000FDF79EFE70BDC0463C02002010B5094B16
:103080005A1CD27F1C00D30701D503F0C9FA631C78
:10309000DB7F9B0705D5FDF70FFF002801D0FDF76B
:1030A000ABFE10BD3C02002010B502F029F910BDA6
:1030B00010B5040003F04CFD200010BDF8B5264A01
:1030C000264F12883B883E00254D264C934217D947
:1030D0002878002102F0FCF92878002102F090F90C
:1030E000002323703B80204B1A68002A01DD013A3F
:1030F0001A601B68002B2DD11C4803F029FD29E024
:10310000934206D1194B1B68002B13D0184A1A6042
:1031100010E0184A5B009A5A174B511E994209D881
:1031200018235343013B232B04D9104A1268002A69
:1031300000D0136021782878002904D0802102F083
:10314000C7F9002302E002F0C3F90123237033889A
:1031500001333380F8BDC046C00C0020BE0C0020F7
:103160005E020020BC0C002078020020B40C00207D
:103170007FA90300C20C0020AFAAAA0AF0B503275A
:1031800087B00190414C23680493049E2368404A11
:103190000593059B9B1B934201D93E4935E03E4D6B
:1031A000287802F04DF903950028EFD13B4B1B78AE
:1031B000012B03D13A493B48FDF796FC0125002439
:1031C00002F040FA029002F03DFA029BC61A364B1A
:1031D0001B689E421DD3314B1B78012B03D1334911
:1031E0003048FDF781FC324B1C80FA240123E4189F
:1031F000E4B25D40F92CE3D92D4E3288052A14D86B
:10320000013FFFB2002FBDD12A492648FDF76CFCD3
:103210003AE0039B187802F013F9A842D3D1FA2CB4
:10322000E4D0254A63009E52E0E7234FD2B2390032
:103230000198FFF7B7FB00210920FDF705FC194CA9
:103240001E492000FDF750FC00253388AB4207D90A
:103250006B00F95A20000135FDF71BF9EDB2F4E7D8
:1032600017492000FDF740FC16492000FDF700F942
:1032700001992000FDF7FCF813492000FDF7F8F84C
:1032800031882000FDF705F907B0F0BD200F0020C0
:103290000F270000288F00005F0200200E0600208C
:1032A000418F00000C0300207C020020558F00009D
:1032B000C00C00206E8F0000C20C00208A8F00001E
:1032C0009E8F0000AD8F00009089000010B5FFF7C1
:1032D000A5FB10BD10B5FFF7B7F910BDF8B52B4E23
:1032E000FA223100FFF758FC294F2A4B38801B780F
:1032F000002806D1012B47D127492848FDF7F4FBC8
:1033000042E0012B14D1254D25492800FDF7ECFBA7
:1033100000243B88A34207D96300F15A28000134F6
:10332000FDF7B7F8A4B2F4E71E492800FDF7DCFB6F
:1033300000210920FDF788FB00231B4A1B4C13804A
:103340001B4A1C4913701C4A20001360EF2203F033
:10335000A5FB142123682171002B15D01748184AAA
:103360001B181B11D154117853781648164A9942EC
:1033700005D8036809041A400A43026004E00168A2
:103380001B040A4013430360F8BDC046C20C002072
:10339000C00C00200E060020BB8F00000C03002094
:1033A0008A8F00009E8F0000BE0C0020B40C00200D
:1033B000BC0C0020BD300000B80E0020008FFCBF08
:1033C000FC02002014E400E0FFFF00FF012210B522
:1033D000024B1A60FFF782FF10BDC0467802002042
:1033E000012210B5024B52421A60FFF777FF10BD61
:1033F000780200200022014B1A60704778020020FA
:1034000010B50020FFF720F910BDFFFF012804D9F7
:10341000FA239B005843014B186070477C02002040
:1034200010B501F06DFF00230448054A036005490B
:103430008033037105F0B2F810BDC046B40C002013
:1034400030020020B130000010B5FFF717FE002356
:103450001900034A99500433202BFBD110BDC046FC
:10346000BC0E0020002310B5064A99008C58002C91
:1034700000D188505158884202D00133072BF4DD27
:1034800010BDC046BC0E0020002330B50B499A0089
:1034900055580C0085420CD18A180021072B05D005
:1034A00050184068013350500431F7E70023E361BE
:1034B00002E00133072BEADD30BDC046BC0E002020
:1034C0000023054A9958814204D00433202BF9D1B6
:1034D000002000E001207047BC0E002010B5040061
:1034E000032916D8080003F0DDFF0E0E07022000A6
:1034F000FFF7E6FF002806D02000FFF7C5FF2000F9
:10350000FFF7A2FD05E02000FFF7ACFF2000FFF76A
:1035100081FD10BD70B504000D0005F090F902307A
:1035200005F07EF80600210005F081F9300005F075
:1035300086F9301801380378D24C202B03D02100B3
:10354000300005F05DF92100300005F07FF9041E20
:1035500001D100F0C9FDCC4905F05FF9002803D185
:103560002900CA48FFF7BAFFC949200005F055F9FC
:10357000002803D12900C748FFF7B0FFC649200043
:1035800005F04BF9002803D12900C448FFF7A6FF36
:10359000C349200005F041F9002803D12900C148A2
:1035A000FFF79CFFC049200005F037F9002803D140
:1035B0002900BE48FFF792FFBD49200005F02DF914
:1035C000002803D12900BB48FFF788FFBA49200033
:1035D00005F023F9002803D12900B848FFF77EFF42
:1035E000B749200005F019F9002803D12900B54892
:1035F000FFF774FFB449200005F00FF9002803D14C
:103600002900B248FFF76AFFB149200005F005F92B
:10361000002803D12900AF48FFF760FFAE49200022
:1036200005F0FBF8002803D12900AC48FFF756FF4E
:10363000AB49200005F0F1F8002803D12900A94882
:10364000FFF74CFFA849200005F0E7F8002803D158
:103650002900A648FFF742FFA549200005F0DDF844
:10366000002803D12900A348FFF738FFA249200012
:1036700005F0D3F8002803D12900A048FFF72EFF5A
:103680009F49200005F0C9F8002803D129009D4872
:10369000FFF724FF9C49200005F0BFF8002803D164
:1036A00029009A48FFF71AFF9949200005F0B5F85C
:1036B000002803D129009748FFF710FF9649200002
:1036C00005F0ABF8002803D129009448FFF706FF66
:1036D0009349200005F0A1F8002803D12900914862
:1036E000FFF7FCFE9049200005F097F8002803D171
:1036F00029008E48FFF7F2FE8D49200005F08DF875
:10370000002803D129008B48FFF7E8FE8A492000F2
:1037100005F083F8002803D129008848FFF7DEFE72
:103720008749200005F079F8002803D12900854851
:10373000FFF7D4FE8449200005F06FF8002803D17C
:1037400029008248FFF7CAFE8149200005F065F88C
:10375000002803D129007F48FFF7C0FE7E492000E2
:1037600005F05BF8002803D129007C48FFF7B6FE7E
:103770007B49200005F051F8002803D12900794841
:10378000FFF7ACFE7849200005F047F8002803D188
:1037900029007648FFF7A2FE7549200005F03DF8A4
:1037A000002803D129007348FFF798FE72492000D2
:1037B00005F033F8002803D129007048FFF78EFE8A
:1037C0006F49200005F029F8002803D129006D4831
:1037D000FFF784FE6C49200005F01FF8002803D194
:1037E00029006A48FFF77AFE6949200005F015F8BC
:1037F000002803D129006748FFF770FE66492000C2
:1038000005F00BF8002803D129006448FFF766FE95
:103810006349200005F001F8002803D12900614820
:10382000FFF75CFE6049200004F0F7FF002803D199
:1038300029005E48FFF752FE5D49200004F0EDFFCD
:10384000002803D129005B48FFF748FE5A492000B1
:1038500004F0E3FF002803D129005848FFF73EFE9B
:103860005749200004F0D9FF002803D1290055480A
:10387000FFF734FE5449200004F0CFFF002800D0A9
:10388000A8E0A3E0CD8E0000CF8F000002E0000092
:10389000D98F000001E00000E28F000004E000008A
:1038A000EA8F000040E00000F88F000008E0000010
:1038B0000090000080E000000E90000052F0000038
:1038C0001590000051F000001E90000050F0000024
:1038D000279000004FF000003190000028F0000019
:1038E0003B9000002CF000004590000029F0000003
:1038F0004D9000002AF000005B9000002BF00000CB
:103900006390000039F00000719000003AF0000070
:10391000789000003BF000007F9000003CF0000039
:10392000869000003DF000008D9000003EF0000009
:10393000949000003FF000009B90000040F00000D9
:10394000A290000041F00000A990000042F00000A9
:10395000B090000043F00000B890000044F0000078
:10396000C090000045F00000C890000068F0000022
:10397000D090000069F00000D89000006AF00000CC
:10398000E09000006BF00000E89000006CF0000098
:10399000F09000006DF00000F89000006EF0000064
:1039A000009100006FF000000891000070F000002E
:1039B0001091000071F000001891000072F00000FA
:1039C0002091000073F00000289100002900D448E5
:1039D000FFF784FDD349200004F01FFF002803D126
:1039E0002900D148FFF77AFDD049200004F015FFE7
:1039F000002803D12900CE48FFF770FDCD492000F3
:103A000004F00BFF002803D12900CB48FFF766FD27
:103A1000CA49200004F001FF002803D12900C8484A
:103A2000FFF75CFDC749200004F0F7FE002803D132
:103A30002900C548FFF752FDC449200004F0EDFEFF
:103A4000002803D12900C248FFF748FDC1492000E2
:103A500004F0E3FE002803D12900BF48FFF73EFD34
:103A6000BE49200004F0D9FE002803D12900BC483B
:103A7000FFF734FDBB49200004F0CFFE002803D13E
:103A80002900B948FFF72AFDB849200004F0C5FE17
:103A9000002803D12900B648FFF720FDB5492000D2
:103AA00004F0BBFE002803D12900B348FFF716FD40
:103AB000B249200004F0B1FE002803D12900B0482B
:103AC000FFF70CFDAF49200004F0A7FE002803D14A
:103AD0002900AD48FFF702FDAC49200004F09DFE2F
:103AE000002803D12900AA48FFF7F8FCA9492000C3
:103AF00004F093FE002803D12900A748FFF7EEFC4D
:103B0000A649200004F089FE002803D12900A4481A
:103B1000FFF7E4FCA349200004F07FFE002803D156
:103B20002900A148FFF7DAFCA049200004F075FE47
:103B3000002803D129009E48FFF7D0FC9D492000B2
:103B400004F06BFE002803D129009B48FFF7C6FC58
:103B50009A49200004F061FE002803D1290098480A
:103B6000FFF7BCFC9749200004F057FE002803D162
:103B700029009548FFF7B2FC9449200004F04DFE5F
:103B8000002803D129009248FFF7A8FC91492000A2
:103B900004F043FE002803D129008F48FFF79EFC64
:103BA0008E49200004F039FE002803D129008C48FA
:103BB000FFF794FC8B49200004F02FFE002803D16E
:103BC00029008948FFF78AFC8849200004F025FE77
:103BD000002803D129008648FFF780FC8549200092
:103BE00004F01BFE002803D129008348FFF776FC70
:103BF0008249200004F011FE002803D129008048EA
:103C0000FFF76CFC7F49200004F007FE002803D179
:103C100029007D48FFF762FC7C49200004F0FDFD8F
:103C2000002803D129007A48FFF758FC7949200081
:103C300004F0F3FD002803D129007748FFF74EFC7C
:103C40007649200004F0E9FD002803D129007448DA
:103C5000FFF744FC7349200004F0DFFD002803D186
:103C600029007148FFF73AFC7049200004F0D5FDA7
:103C7000002803D129006E48FFF730FC6D49200071
:103C800004F0CBFD002803D129006B48FFF726FC88
:103C90006A49200004F0C1FD002803D129006848CA
:103CA000FFF71CFC6749200004F0B7FD002803D192
:103CB00029006548FFF712FC6449200004F0ADFDBF
:103CC000002803D129006248FFF708FC6149200061
:103CD00004F0A3FD002803D129005F48FFF7FEFB95
:103CE0005E49200004F099FD002803D129005C48BA
:103CF000FFF7F4FB5B49200004F08FFD002803D19F
:103D000029005948FFF7EAFB5849200004F085FDD7
:103D1000002800D0AEE029005548FFF7DFFBA9E0FE
:103D200049F00000339100004AF000003C9100008F
:103D30004BF00000489100004CF00000539100004F
:103D40004DF000005B9100004EF000006991000012
:103D500004F000006F91000005F000007591000074
:103D600006F000007B91000007F000008191000048
:103D700008F000008791000009F000008D9100001C
:103D80000AF00000939100000BF0000099910000F0
:103D90000CF000009F9100000DF00000A5910000C4
:103DA0000EF00000AB9100000FF00000B191000098
:103DB00010F00000B791000011F00000BD9100006C
:103DC00012F00000C391000013F00000C991000040
:103DD00014F00000CF91000015F00000D591000014
:103DE00016F00000DB91000017F00000E1910000E8
:103DF00018F00000E791000019F00000ED910000BC
:103E00001AF00000F39100001BF00000F99100008F
:103E10001CF00000FF9100001DF000000592000062
:103E20001EF000000B9200001FF000001192000035
:103E300020F000001792000021F000001D92000009
:103E400022F000002392000023F0000029920000DD
:103E500024F000002F92000025F0000035920000B1
:103E600026F000003B92000027F000004192000085
:103E700048F000009E49200004F0CFFC002803D148
:103E800029009C48FFF72AFB9B49200004F0C5FC51
:103E9000002803D129009948FFF720FB984920000A
:103EA00004F0BBFC002803D129009648FFF716FB5D
:103EB0009549200004F0B1FC002803D12900934863
:103EC000FFF70CFB9249200004F0A7FC002803D167
:103ED00029009048FFF702FB8F49200004F09DFC69
:103EE000002803D129008D48FFF7F8FA8C492000FB
:103EF00004F093FC002803D129008A48FFF7EEFA6A
:103F00008949200004F089FC002803D12900874852
:103F1000FFF7E4FA8649200004F07FFC002803D173
:103F200029008448FFF7DAFA8349200004F075FC81
:103F3000002803D129008148FFF7D0FA80492000EA
:103F400004F06BFC002803D129007E48FFF7C6FA75
:103F50007D49200004F061FC002803D129007B4842
:103F6000FFF7BCFA7A49200004F057FC002803D17F
:103F700029007848FFF7B2FA7749200004F04DFC99
:103F8000002803D129007548FFF7A8FA74492000DA
:103F900004F043FC002803D129007248FFF79EFA81
:103FA0007149200004F039FC002803D129006F4832
:103FB000FFF794FA6E49200004F02FFC002803D18B
:103FC00029006C48FFF78AFA6B49200004F025FCB1
:103FD000002803D129006948FFF780FA68492000CA
:103FE00004F01BFC002803D129006648FFF776FA8D
:103FF0006549200004F011FC002803D12900634822
:10400000FFF76CFA6249200004F007FC002803D196
:1040100029006048FFF762FA5F49200004F0FDFBC9
:10402000002803D129005D48FFF758FA5C492000B9
:1040300004F0F3FB002803D129005A48FFF74EFA99
:104040005949200004F0E9FB002803D12900574812
:10405000FFF744FA5649200004F0DFFB002803D1A3
:1040600029005448FFF73AFA5349200004F0D5FBE1
:10407000002803D129005148FFF730FA50492000A9
:1040800004F0CBFB002803D129004E48FFF726FAA5
:104090004D49200004F0C1FB002803D129004B4802
:1040A000FFF71CFA4A49200004F0B7FB002803D1AF
:1040B00029004848FFF712FA4749200004F0ADFBF9
:1040C000002803D129004548FFF708FA4449200099
:1040D00004F0A3FB002803D129004248FFF7FEF9B2
:1040E00041490020FFF731FA300004F0A3FA70BD17
:1040F0004B92000047F000005B92000053F000007C
:104100006892000046F000007892000033F0000052
:104110008692000036F000009092000037F0000018
:104120009B9200002DF00000A59200002EF00000F0
:10413000AF92000038F00000B992000031F00000AA
:10414000C79200002FF00000D692000030F000006F
:10415000E692000034F00000F092000035F000001C
:10416000FA92000065F000000393000054F0000094
:104170001093000055F000001F93000056F000005F
:104180002C93000057F000003893000058F0000016
:104190004593000059F000004E9300005AF00000D3
:1041A000579300005BF00000609300005CF000009B
:1041B000699300005DF00000729300005EF0000063
:1041C0007B9300005FF000008493000060F000002B
:1041D0008D93000061F000009693000062F00000F3
:1041E0009F93000063F00000CD8E000010B5040026
:1041F0000021FFF78FF902212000FFF78BF910BD96
:1042000010B50121FFF786F910BD10B50221FFF7A7
:1042100081F910BD10B50321FFF77CF910BD10B571
:1042200001F06EF810BDFFFFF0B5BC4B87B01B6806
:10423000BB4D0593059CBB4B06001C602B6817000B
:10424000E01A009104F06CF9B74B2C601860B74984
:1042500003F098FCB64AB74C136820600394B64943
:10426000BB4203DA0123B548037006E00020B34CDB
:104270002070BB4201DD012300E000230B70B04B36
:10428000176001931A7800239A4200D0C833AD4CCE
:104290002078062800D9C4E003F004F9041929683D
:1042A00078C3B300019B5B8A9F4205DD0123002197
:1042B00005202370FCF7C8FB019B9B8A9F4200DB13
:1042C000AFE0032000212070FCF7BEFBA9E0019BBA
:1042D000DA899D4B974202DA1A68013200E0002227
:1042E0001A601B68132B00DC28E302233CE00099D2
:1042F0005A428A4208DD00210620FCF7A5FB0F2068
:10430000FCF79AFE0F202CE0B24208DD00210620C7
:10431000FCF79AFB1120FCF78FFE112021E0B3423D
:1043200008DA00210620FCF78FFB1220FCF784FE40
:10433000122016E0009A934208DA00210620FCF7CA
:1043400083FB1020FCF778FE10200AE07E4A1368F9
:104350000133C82B5ADD00230A201360FCF76CFEE2
:104360000A20FCF77BFE062323705AE0019B9A8902
:10437000754B974202DD1A68013200E000221A6094
:104380001B68132B00DCD9E20423EDE700995A42A5
:10439000914208DA00210420FCF756FB0B20FCF7C1
:1043A0004BFE0B20DDE7964208DA00210420FCF7E3
:1043B0004BFB0D20FCF740FE0D20D2E7B34208DA9C
:1043C00000210420FCF740FB0E20FCF735FE0E20F8
:1043D000C7E7009A934208DA00210420FCF734FB77
:1043E0000C20FCF729FE0C20BBE7574A1368013369
:1043F000C82B0BDD002308201360FCF71DFE0820EE
:10440000AFE7514A136801331E2B01DC136095E2BC
:10441000002515602570FCF7C7FE4C4B1D704C4BFA
:104420001D7023780024A34200D087E2494D285D07
:1044300001F006F8414241412000C9B20134FCF7C5
:1044400081FE032CF2D1287800F0FAFF424C051EC1
:104450000ED1C8222368920001332360934209D110
:1044600001000A20FCF7F0FAFCF72EFD256001E0C0
:1044700000232360354D2C78012C10D0002C02D065
:10448000022C24D035E02E4BDB899F4231DD210008
:104490000820FCF7D9FA01232B70304B28E0274B7A
:1044A0001A782E4B002A0CD11A78511C19700F2A39
:1044B0001FD9022209202A7008321A70FCF7BCFDAD
:1044C00017E01A78002A14D0013A1A7011E0234B31
:1044D0001A78002A01D0013A1A70194AD2899742F3
:1044E00007DA1C78002C04D10920FCF7B7FD174B24
:1044F0001C70174D2C78012C34D01149002C02D09F
:10450000022C47D057E08B899F4254DA21000720C4
:10451000FCF79AFA01232B70114B4BE0200F00207F
:10452000E80E0020E00E0020FC0E002020BCBE4C57
:10453000800200200C0F0020F60E0020ED0E00205F
:104540003C020020E40E0020F80E0020DC0E0020CB
:10455000000F002060020020100F0020DD0E002060
:10456000EC0E0020BC4B1A78BC4B002A0CD11A78F8
:10457000511C19700F2A1ED9022207202A700832F6
:104580001A70FCF759FD16E01A78002A13D0013A88
:104590001A7010E0B14B1A78002A01D0013A1A7053
:1045A0008A89974207DD1C78002C04D10720FCF78C
:1045B00055FDAB4B1C700020AA4B1856002804D1A7
:1045C000A94B1B785BB2002B0AD0A84A1378591C60
:1045D00011709B0704D10021A34B5956FEF756FCDE
:1045E000A34D2B780293012B00D096E0288903F08D
:1045F0004FFFA04903F0C6FA9F4C0290002E01D154
:10460000268006E022889D4B9A4202D86B89D318F7
:104610002380009A9A4B002A02D16A46128806E04B
:104620001988964A914203D8914A52898A181A8069
:10463000039B1D68019B5878704303F029FF291CD8
:1046400003F06AFC061C208803F022FF011C301CCA
:1046500003F062FC071C011C029803F0BFF800285D
:1046600000D0029F8022029B12069E18311C381C2B
:1046700003F0B4F8002800D0371C824C381C2168A5
:1046800003F00AF9019B2060071C9878009B4343C4
:10469000180003F0FDFE291C03F03EFC784B051CBE
:1046A000188803F0F5FE011C281C03F035FC051CDE
:1046B000011C029803F092F8002800D0029D311CE2
:1046C000281C03F08BF8002800D0351C6E4E281CE7
:1046D000316803F0E1F8051C3060381C03F0B6FEC9
:1046E0000700281C03F0B2FE3B000500034303D083
:1046F00001003800FEF7CAFB380003F0C9FE011CB8
:10470000206803F01DFD2060280003F0C1FE011C9D
:10471000306803F015FD306010E1029B002B16D1CC
:10472000009B0320D90FFCF70DFD009B0420D91737
:10473000C91AC90FFCF706FDF10F0520FCF702FDB1
:10474000F117891BC90F0620FCF7FCFCF6E0009B63
:104750004D4C002B03D18823DB05236012E0A878A1
:1047600003F096FE051C009803F092FE011C281C25
:1047700003F0D2FB454903F005FA8821C90503F08F
:104780008BF820603F4D002E03D18823DB052B6082
:1047900013E0019B587803F07BFE071C300003F008
:1047A00077FE011C381C03F0B7FB384903F0EAF927
:1047B0008821C90503F070F8286000272868391C93
:1047C00003F00CF8002800D02F60314F2868391C06
:1047D00003F018F8002800D02F6000272068391C4B
:1047E00002F0FCFF002800D02760294F2068391C08
:1047F00003F008F8002800D02760029B032B53D059
:10480000042B79D0022B00D098E0286803F02CF814
:10481000204B214A5968214E0A401F00B04200D95E
:10482000300000011E4D104358602B78002B01D141
:1048300001F012FD206803F017F81A4B7A68134054
:10484000B04200D915488003184378602B78002BBC
:1048500074D101F001FD71E0F60E0020EC0E002095
:10486000000F0020EE0E0020EF0E0020F20E0020C0
:104870003C02002000002041F40E00201F4E0000EA
:10488000F00E0020040F0020080F00200000484216
:1048900000C07F44281200200FC0FFFFFF0300006C
:1048A000F0100020FF3F00FF286802F0DDFF244FDA
:1048B000B84200D93800234D02066B68224E1B0215
:1048C0001B0A13436B600323AA68000A9A433378D8
:1048D0001043A860002B01D101F0BEFC206802F05B
:1048E000C3FF1A4BAA681340B84200D9144880008D
:1048F0001843A8603378AAE7286802F0B5FF114B87
:10490000134A99680E4E0A401F00B04200D9300089
:1049100000030D4D104398602B78002B01D101F05E
:104920009BFC206802F0A0FFBB689B029B0AB04280
:1049300000D9034880051843B86087E707B0F0BD89
:10494000FF03000028120020F010002003F0FFFFFA
:10495000FF0FC0FF10B500F0D3FC10BD30B5021E34
:1049600014D003780020834210D003000A2410786A
:10497000002807D03038C5B2092D06D8634301326C
:10498000C318F4E70B80012000E0002030BD73B5B0
:104990000C00002801D1002010E0037801252D2B08
:1049A00001D14019023D6B469E1D3100FFF7D6FF35
:1049B0000028F0D0012033886B43238076BD002887
:1049C0000AD00378002B07D01A00613A192A01D8BF
:1049D000203B03700130F4E77047FFFFF0B585B06E
:1049E00002AB9E1D0023354D33802B780400012B34
:1049F00008D1334F33493800FBF73AFD2100380026
:104A0000FCF772F8304F2000390003F01FFF0197C8
:104A1000041E4DD02B78012B08D1294D2B4928009D
:104A2000FBF726FD21002800FCF75EF8002520009A
:104A3000FFF7C5FF264FF91E200003F0EEFE002809
:104A400024D13B78022B0BD0032B14D0012B19D18E
:104A5000019903F0FBFE31000400FFF77FFF06E041
:104A6000019903F0F3FE31000400FFF790FF0028E6
:104A70000CD06BB20CE0E378E21C002B05D06BB2DB
:104A8000140005E06BB2040002E0140001235B4255
:104A900001354E2D0AD004375A1CCCD00022B15E0D
:104AA000D8B222000023FCF703FF05E05A1CF5D121
:104AB00008490348FCF718F805B0F0BD0E060020C1
:104AC0000C030020AD930000CD8E0000BB930000CE
:104AD000E48B0000C393000070B5254A03001178F1
:104AE000002902D0FCF7A8FC41E0224C20780328E2
:104AF00037D802F0D7FC0211172420211800884370
:104B0000412801D1012331E0402B30D123780133FA
:104B10002370012313702AE020229343542B24D1C5
:104B2000523B23E00D2B01D00A2B01D1124919E091
:104B3000202B16D10022114B1A70032316E00F4AC6
:104B40000F480D2B01D00A2B06D100251378C55430
:104B5000FFF744FF25700AE011784C1C1470435491
:104B600005E008490848FBF7BFFF0023237070BD2C
:104B7000190C0020140F0020C7930000150F00200F
:104B800031060020C59300000C03002010B500F092
:104B9000B7FB10BD002070470300383039331B7855
:104BA0000078181A70470200010038323931137842
:104BB0000978994204D9591C1170C318187E01E074
:104BC00001204042704703000200383339321B781D
:104BD00012789A4202D9C318187E01E0012040429F
:104BE000704770470300002210B55E331B88934264
:104BF0000DD004005D342378202B02D901230371EA
:104C000005E05A1C22700122C3183B3319701000B2
:104C100010BD70B514000200030000205E3212883F
:104C2000824212D01D0021225D352878121A94424A
:104C300002D901241C7114003B331818220003F020
:104C400003FD20002B781B192B7070BD43691A6877
:104C50005B68126813420FD0084A0369914201D879
:104C60001F2205E0064A914201D8122200E00222EA
:104C70005A70022203699A717047C0467F1A060073
:104C80003F420F000200F8B50023040038321370D1
:104C90005370243293701370537043668366D370DD
:104CA00040696427016842680D682A430A602269E6
:104CB0001549937023000C22613360691E788619B0
:104CC000337A5343CB185D68737BE0261B02F600F2
:104CD00033403B432B60230062331B78C018837C36
:104CE0005A43C37D89181B024A681E403E43166022
:104CF00006492000FFF7AAFF202322695371802272
:104D000023699A70F8BDC04698940000A0860100FF
:104D1000102270B503690400DD78EDB2154203D1AD
:104D200040222A4004D12BE0DA706B06F8D476E0FA
:104D300004231D403A4B1BD0250000225D352A700C
:104D40001A70636E934200D0984723002A783B3351
:104D5000002A02D1012129701A70D02221698A709B
:104D60001B7822691371230001225C331A7053E00F
:104D700001221A70230039331D702269C02330E0EC
:104D8000602120698379DBB2194060290CD1403958
:104D90008B438371A36E002B06D0210038310A703B
:104DA00022003932107898471023226991780B40FD
:104DB0001BD001231D4013D1210020005C315D3048
:104DC0000B780078984206D9581CE31808703B33DA
:104DD0001B78137100E01571D023226993701BE0DA
:104DE000C023937023691B7916E0210060310B709A
:104DF000202193790B4321009371236939311A796A
:104E00000B78D2B21F2B07D805480078002803D0B2
:104E1000581CE31808701A7602222369DA7070BDF4
:104E2000160F00201223F0B5202402698C46D3709F
:104E3000036989B099783B4A214201D0B42112E03C
:104E400011680291029DD978214008D01168039120
:104E50000399491B0F29F6D900229A703AE0040001
:104E60005F342170B021202699701368046904937F
:104E7000049DE378334004D00023022601932027C9
:104E80000BE0116805910599491B0429F1D9A3701C
:104E900020E0019B0133DBB2019301005D31097811
:104EA000019B994231D9C1183B31097803691971C5
:104EB000116805690691069BEC78E4B22100314047
:104EC0000DD13C420BD014680794079CE41A052CC2
:104ED000F2D9A9708022036904209A7020E010237F
:104EE000EE700469E178C9B2194201D1394203D1A7
:104EF0008023A3707C3B09E001231942C9D0019BA8
:104F00005A4253410322D31A03E000236246002A87
:104F100002D0802201698A7000225E30027018007F
:104F200009B0F0BD200F0020F0B58FB00293002330
:104F3000040020273830037001300370019020698D
:104F40001233C3702569AB783B401800B4230028A6
:104F500017D15B4E336803960493049B9C46EB7811
:104F60003B400AD06646039B1B680593059B9B1B31
:104F70000F2BF4D90023AB7018E020005F300370D2
:104F8000B023AB704E4D26692B68069320239C46B8
:104F9000069F6046F37818402B0000280AD12B6842
:104FA0000793079BDB1B042BF3D9B0708022236986
:104FB0009A7082E00120022749000143C9B2317191
:104FC00029680891089E2169C878384007D11D6872
:104FD0000995099DAD1B052DF6D98870E6E70223DA
:104FE000CB7021690F33C878184003D06F338B70B2
:104FF000002062E0002A06D1029A8023002A00D114
:1050000020338B7059E0A823012A00D0A0238B7095
:1050100023692B4D1B79002321692800012A25D003
:105020002868AC460A900A9807000226C8783040E3
:1050300008D1664636680B960B9EF61B052EF4D9F2
:10504000887034E00220013AD2B2C870012A02D13D
:10505000A8202169887021691F2B05D809795E1C59
:10506000E3181976F3B2D7E70979D5E702272A685A
:105070000C920C9ECA783A4007D105680D950D9D9B
:10508000AD1B052DF6D98A7011E00222CA70216984
:10509000AE328A7022691F2B05D81279591CE31889
:1050A0001A76CBB200E01279029A002A02D080214F
:1050B000226991701800019A13700FB0F0BDC046BC
:1050C000200F002010B50248FFF722FE10BDC04699
:1050D000840200208023F0B51D4A10681840FCD1DE
:1050E00072B61C4C2378002B30D01B4B1F681B4B17
:1050F0001A681B4BBA181E681A4B92191D681A4B76
:1051000052191968194B52181B68194DD21892B2CE
:105110005208184B2A4392B21A60174B17491B6862
:10512000174A9C46174B1B6812680F681649634460
:105130000E6816499B180968DB199B195A1893B217
:105140005B082B43124A9BB21360207062B6F0BD1D
:1051500024B00340180F002038B003403CB0034097
:1051600040B0034044B0034048B003404CB003405B
:105170000080FFFF2CB0034058B0034064B00340F0
:1051800060B003405CB0034068B003406CB00340C3
:1051900030B003401B4B1C4A19781C4B082901D125
:1051A000002102E00A2903D12E311160132206E00A
:1051B0000C2901D1283100E03C21116012221A6033
:1051C000134B1A78134B002A01D0002200E0012271
:1051D0001A60114B1A78114B012A01D880220CE079
:1051E000042A01D8842208E0082A01D8852204E094
:1051F000102A01D8862200E087221A600122084B7B
:105200001A707047F002002008B003400CB0034051
:105210001A0F002020B00340F102002024B0034008
:10522000180F0020F8B503000020272B33D81A4AA6
:10523000D45CFF2C2FD0194B1B78834201D0FFF791
:1052400049FF72B610274022154B144205D01A6848
:10525000BA431A603F231C4002E01A683A431A60BE
:105260000123104E104D34602B7062B672B680224E
:105270003368134208D00D4B186800232B7062B6B8
:105280000B4B1B78184106E02B78002BDBD062B665
:1052900001F06AFEEAE7F8BD10940000180F002044
:1052A0000CB0034000B00340190F002010B00340C1
:1052B000170F002080210D4A090613680B43136065
:1052C0000B4B1A780B4B002A01D1D03200E0902210
:1052D0001A70094B984201DD180002E0C343DB1746
:1052E0001840064B00B218807047C0463C8004400E
:1052F0001A0F002021F00340FF0F000000F00340D0
:10530000F823802208491B0252021888884203D1E0
:10531000064A023B138006E002339342F5D1022293
:10532000024B52421A807047FFFF00001C0F002002
:10533000F8B505000024264F0E1C3800E04003F0AD
:10534000EFF8DE21890502F0E7FD311C02F050FA8A
:10535000002802D10134072CEFD11D48E04003F0B2
:10536000DFF8311C02F00EFCFC21890502F0E8FE9A
:1053700002F07AFA174B984200D918002B00103B24
:10538000012B06D80023144A144913600B60144BF8
:105390000BE0172D0ED8134A0123EA40934309D19D
:1053A000114A124913600B60114B186008231C430B
:1053B00014600CE0033D012D09D800220D4B0E496D
:1053C0001A600A600D4A1060082214431C60F8BD80
:1053D000006CDC02FFFF00000090034004900340DB
:1053E000089003404006D000008003400480034042
:1053F0000880034000A0034004A0034008A003402D
:1054000010B51A2818D80C2358430C4A8358101882
:105410001C7D027A224205D0002901D01A710BE0CE
:105420001A7209E043681A68002902D003210A436E
:1054300001E002218A431A6010BDC0469894000022
:1054400000231A280AD80C335843054A83581018E9
:10545000007A1B7C0340581E8341DBB21800704762
:1054600098940000F0B51A282FD80C221700474353
:10547000164CE5196B682600012901D0042911D1C9
:10548000504334583018257D027A20202A43227553
:10549000A22252001A601A68042901D1024313E0C3
:1054A000824311E038592C7A027DA2430275802292
:1054B000002908D0022902D10422FF3204E0002290
:1054C000032901D1812252001A60F0BD9894000096
:1054D00070B5434B04001A280ED11B780B2B03D850
:1054E0000C22D31A994003E00C2B01D00C3B19413C
:1054F0000800FFF7DFFE72E001251A782B009340C9
:10550000002901DC002102E08B4205D8290020009F
:10551000FFF776FF29005FE02300103B0338012BE3
:1055200001D8304B05E0C3B2012B01D82E4B00E06F
:105530002E4B1B6801334B43D340142843D801F052
:10554000B1FF353B421F4242151A424242424229B4
:105550002F424224420B1000254A1360254A264B55
:105560002FE0264A1360234A254B2AE0254A136080
:10557000204A254B25E0254A13601E4A244B20E093
:10558000244A13601B4A244B1BE0244A1360194A27
:10559000234B16E0234A1360D122234B920010E0E4
:1055A000224A1360D122224B92000AE0214A136062
:1055B000D122214B920004E0204A1360D122204BDB
:1055C00092001A600BE001237F2900DC0023D9B28E
:1055D0002000FFF715FF01212000FFF743FF70BDFA
:1055E000F20200200890034008A003400880034016
:1055F000108003404404000004B0044018800340BD
:1056000008B00440208003400CB0044028800340D0
:1056100010B004403080034010C004403880034084
:1056200014C004401090034000A0044018900340B0
:1056300004A0044010A003400490044018A00340BC
:105640000890044072B60C4B1A680C4B18680C4B4F
:105650001B6862B65B0104D5322393429B415B42D7
:10566000C018084B9A1A084B5A43FA239B00584318
:10567000920D10187047C04618E000E0200F00207F
:1056800004ED00E07FBB00005555010070B504003B
:10569000FFF7D8FF0500002C0FD0FFF7D3FF074B13
:1056A000401B984206D9013C002C06D0FA239B00EF
:1056B000ED18F2E701F058FCEFE770BDE7030000DA
:1056C00080221E4BD20510B51A60802200201206DF
:1056D0001A601B4B1B4918601B4B1C4A196028237E
:1056E00013601B4A1B4C13601B4A13601B4A136058
:1056F0001B4A13601B4A1360092222601A4C206067
:105700001A4C21601A4C23601A4C23601A4C2260F8
:105710001A4C20601A4801601A490B601A490B6044
:105720001A4B1A60FFF736FD3220FFF7AFFF00F08B
:105730003BFDAF204000FFF7A9FF10BD00E100E0F6
:1057400004800340FFBF0000088003400C8003403A
:1057500014800340008003401C80034024800340E9
:105760002C800340348003400490034008900340A1
:105770000C900340149003400090034004A00340A9
:1057800008A003400CA0034014A0034000A0034065
:105790008021204A490113680B43136000231E4AED
:1057A00013701E4A13701E4A13701E4A13701E4A4D
:1057B00013701E4B1B78062B04D0072B05D11C4AF7
:1057C0001C4B01E01A4A1C4B1A601C4B1B78082B1F
:1057D00005D0142B07D1D122194B920002E0D1221F
:1057E000184B92001A60184BC204D20E1A70002295
:1057F000C0B258709A702C32DA70144A144B116887
:105800000B408021C9030B4313608022114BD2014E
:105810001A60704734800440940F0020290F002044
:105820009C0F0020950F0020280F0020F30200207D
:105830001303000008C0044010C00440F40200201C
:1058400014C004400CC0044000C006400CE400E05A
:10585000FFFF00FF00E100E0F8B51F4B06001B68EA
:10586000DB0437D51D4B1B68002B02D01C4A127875
:105870001A711C4D2C780134272C0AD9002408E019
:1058800001F006FC402815DC17490B795BB2002BB0
:1058900004DB164F3B78A342F2D010E03B78013393
:1058A000272B00D90023124AD25CDBB2D2B2CA71D4
:1058B0003B70EEE7FF28ECDD01F056FBE9E7012243
:1058C0000B4BF6B21E550B4BE4B21A70064BAB32C3
:1058D0002C70DA70F8BDC04634800440980F002068
:1058E000930F00209C0F002000C00640950F002061
:1058F0002A0F0020280F0020054B1878054BC0B256
:105900001A78D3B2984200D24030C01A7047C046CD
:10591000940F0020290F002030B52C4A13799B06E4
:1059200023D52B4BD479187819000130E4B2002329
:105930003F2800DC030027480078834203D0264834
:10594000C454D8B208702549086800280DD02449ED
:105950000978C9B28B4201D35B1A01E05B1A40336C
:10596000272B02DD1F4B1B780371D1781748C9B272
:105970004BB2002B17DA03795BB2002B13DA1A4B08
:10598000174C1D782378DBB29D4202D16C23C37083
:1059900009E00133272B00D900231448C05CDBB297
:1059A000C0B2D0712370402319420ED01179194230
:1059B0000BD000210E4B19700E4B1B688B4202D08E
:1059C0000D49097819722C23D37030BD00C00640F0
:1059D000940F0020290F0020530F0020240F0020D7
:1059E000950F0020520F00209C0F00202A0F00204E
:1059F000280F0020980F0020930F00200223F0B5FD
:105A00000A4A0B4E1478C8272343DB00F518686058
:105A100008480578002D00D1403F09040F43F75096
:105A200001235D405C4005701470F0BD241000201F
:105A300000F8FF1FB4100020431E10B50020062BF5
:105A40000ED872B6074A99008858002807D04468D3
:105A50005B008C50044904885A5A121B5A5262B691
:105A600010BDC0460810002018120020431E002060
:105A7000062B09D872B6054A9B009B58002B02D012
:105A800001305B68FAE762B67047C04668100020D4
:105A9000F8B572B60123174A082594461E00164928
:105AA00064465A1EA25C2A421AD05F017C589A00B2
:105AB000002C05D1CB1908305860104BCB5109E0B0
:105AC0003243D2005458002C0AD18B180830586049
:105AD0000B4B8B500B4A1378013B137062B608E0F6
