:1000000000180020C1000000695E00002D5E0000A5
:100010002D5E00002D5E00002D5E00002D5E0000B4
:100020002D5E00002D5E00002D5E0000695E000068
:10003000695E00002D5E00000D780000DD78000094
:10004000695E0000695E0000695E0000695E000094
:10005000695E0000695E0000695E0000695E000084
:1000600031570000695E0000695E0000695E0000B3
:1000700019790000F17900004D650000695E00000B
:10008000695E0000695E0000695E0000695E000054
:10009000695E0000695E000059580000695E00005A
:1000A000B9670000695E0000695E0000695E0000DB
:1000B000695E0000695E0000695E0000695E000024
:1000C000F8B505F0D5FE0821474A484B1A60484A62
:1000D000484B1A60484A494B1A60494B1A780A4201
:1000E00002D01A780A431A702A22464B46481A70E0
:1000F00000234649464C1A188A4203D2E558043375
:100100001560F8E70021434B434A934201D202C3F2
:10011000FBE70023414A424958589446985004331B
:10012000C02BF9D100210326FF2580248A083D4BEE
:100130009200D2180B002F003340DB009F40106864
:100140000131B84307002000984003003B4313608F
:100150002029EBD16246344B1A608A22334B1A7045
:10016000334B663A5A707C321A709E3A9979114232
:10017000FCD0102299791142FCD10C209A792C499B
:100180000240082AFAD1053A0A713D324A71203AF2
:1001900099791142FCD0402299791142FCD025492D
:1001A000254A11602021224A117014399A790A4097
:1001B0000C2AFBD1214A224B1A60224A224B1A6098
:1001C0000022224B1A60224B07321A60214A224B2E
:1001D0001A6062B606F08AF80CF080F905F04EFE5F
:1001E00005F01CFEFEE7C046300004F034800440F9
:1001F000823F0000388004400100000F3C80044032
:1002000002D0074000E0074030020020D005002067
:10021000F4D90000D0050020A412002000F9FF1F2F
:100220000000000000E400E008ED00E0005006409F
:10023000004006400000011044800440C000050555
:10024000048004407FBB000014E000E018E000E000
:1002500010E000E00000202020ED00E0FFFFFFFFA5
:10026000FFFFFFFFFFFFFFFFFFFFFFFFFFFFFFFF9E
:10027000FFFFFFFFFFFFFFFFFFFFFFFFFFFFFFFF8E
:10028000FFFFFFFFFFFFFFFFFFFFFFFFFFFFFFFF7E
:10029000FFFFFFFFFFFFFFFFFFFFFFFFFFFFFFFF6E
:1002A000FFFFFFFFFFFFFFFFFFFFFFFFFFFFFFFF5E
:1002B000FFFFFFFFFFFFFFFFFFFFFFFFFFFFFFFF4E
:1002C000FFFFFFFFFFFFFFFFFFFFFFFFFFFFFFFF3E
:1002D000FFFFFFFFFFFFFFFFFFFFFFFFFFFFFFFF2E
:1002E000FFFFFFFFFFFFFFFFFFFFFFFFFFFFFFFF1E
:1002F000FFFFFFFFFFFFFFFFFFFFFFFFFFFFFFFF0E
:10030000FFFFFFFFFFFFFFFFFFFFFFFFFFFFFFFFFD
:10031000FFFFFFFFFFFFFFFFFFFFFFFFFFFFFFFFED
:10032000FFFFFFFFFFFFFFFFFFFFFFFFFFFFFFFFDD
:10033000FFFFFFFFFFFFFFFFFFFFFFFFFFFFFFFFCD
:10034000FFFFFFFFFFFFFFFFFFFFFFFFFFFFFFFFBD
:10035000FFFFFFFFFFFFFFFFFFFFFFFFFFFFFFFFAD
:10036000FFFFFFFFFFFFFFFFFFFFFFFFFFFFFFFF9D
:10037000FFFFFFFFFFFFFFFFFFFFFFFFFFFFFFFF8D
:10038000FFFFFFFFFFFFFFFFFFFFFFFFFFFFFFFF7D
:10039000FFFFFFFFFFFFFFFFFFFFFFFFFFFFFFFF6D
:1003A000FFFFFFFFFFFFFFFFFFFFFFFFFFFFFFFF5D
:1003B000FFFFFFFFFFFFFFFFFFFFFFFFFFFFFFFF4D
:1003C000FFFFFFFFFFFFFFFFFFFFFFFFFFFFFFFF3D
:1003D000FFFFFFFFFFFFFFFFFFFFFFFFFFFFFFFF2D
:1003E000FFFFFFFFFFFFFFFFFFFFFFFFFFFFFFFF1D
:1003F000FFFFFFFFFFFFFFFFFFFFFFFFFFFFFFFF0D
:10040000FFFFFFFFFFFFFFFFFFFFFFFFDEF9FFFF23
:1004100010B5064C2378002B07D1054B002B02D0DA
:10042000044800E000BF0123237010BDD005002068
:1004300000000000F4D90000084B10B5002B03D0D9
:100440000749084800E000BF07480368002B00D1B7
:1004500010BD064B002BFBD09847F9E700000000C9
:10046000D4050020F4D90000D005002000000000D1
:1004700070B5040008000D000CF065F92368020057
:1004800029005B682000984770BD10B5FFF7F0FFAA
:1004900010BD70B5050005F039FA0400280005F01C
:1004A000F5F9001970BDFFFF70B5274B1B78002BC5
:1004B00048D0264E33785A1C32700A2B42D9244C2D
:1004C00024492000FFF7E1FF234B2000196805F0C5
:1004D0001DFA224D20002900FFF7D7FF204B2000F6
:1004E000196805F013FA29002000FFF7CEFF1D4B15
:1004F0002000196805F00AFA29002000FFF7C5FF5F
:10050000194B2000196805F001FA29002000FFF7B7
:10051000BCFF164B2000196805F0F8F929002000EF
:10052000FFF7B3FF124B2000196805F0EFF929001F
:100530002000FFF7AAFF0F4B20001968FFF7A9FF63
:100540000023337070BDC046FC050020EE0500207E
:10055000140300201AC80000F805002022C800007B
:1005600010060020140600200006002028060020A7
:10057000E407002048060020F0B5724B85B01878DB
:100580001900714D714C00281CD10423CA5E2B68E0
:1005900056429E4201DDD31802E09A4202DA9B1ACB
:1005A0002B6000E028600623CA5E2368514299420E
:1005B00001DDD31804E09A4201DA9B1A00E000231F
:1005C0002360BCE02868236840435B43C0180BF0FD
:1005D00047FE07F037FB0026002700900191009AA4
:1005E000019B5B490A604B600098019932003B0017
:1005F00009F0A2F902960397002852D128680BF05F
:100600002FFE009A019B0AF0E3FB06000F00206812
:100610000BF026FE009A019B0AF0DAFB32003B0049
:1006200007F00CFB4B4B18605960494B28681A685F
:100630005B68009201930BF013FE009A019B490046
:100640004F0839000AF0C4FB3E4B06000420185E38
:100650000F000BF005FE02000B00300039000AF01D
:10066000DBFF060020680F000BF0FAFD009A019BEB
:1006700049004D0829000AF0ABFB324B040006206C
:10068000185E0D000BF0ECFD02000B0020002900AD
:100690000AF0C2FF02000B00300039000AF06CF8CB
:1006A00009E02C4B0299039A19605A60254B0420EB
:1006B000185E0BF0D5FD284B254C18605960226858
:1006C00063680092019300980199234B1E685F684C
:1006D00032003B0009F036F9002804D0029A039B4F
:1006E0002260636007E03200009801993B000BF044
:1006F0000DFA20606160174B1C685D6820002900BE
:1007000007F054FA124B009001911E685F682000B8
:10071000290007F005FA02000B00300039000AF04A
:100720007BFF0BF067FD084B320018603B00009820
:1007300001990AF071FF0BF05DFD044B186005B0E4
:10074000F0BDC04640020020E4070020480600201B
:1007500030060020080600204006002010B503F0F7
:1007600063F8012002F0DEFC042002F0DBFC022032
:1007700002F0D8FC0023024A1370024A137010BD25
:10078000280F00204C0F002073B500F077FC384C88
:100790002378012B07D1374D37492800FFF768FE32
:1007A000280005F073F8354804F030FD344B002183
:1007B000187805F06DFC334E3349307805F0CEFBE8
:1007C000324D0121287805F063FC2878002105F0DE
:1007D0002DFC3078012105F05BFC2878002105F024
:1007E00025FC00252A4B0221E85C013505F050FC70
:1007F000032DF7D10025274B0121E85C013505F0D9
:1008000047FC032DF7D1FFF7A9FF00F0C7FD002338
:100810001A00214E214899194A80191804330025DD
:100820000A604C2BF7D11E4B1D8000F0CBFD00F071
:10083000C3FC02F09FFB2800012102F03FFA0A22CC
:10084000184B25781A70184B0F321A70012D08D1E9
:10085000084C16492000FFF718FE29002000FFF77A
:1008600018FE134B1B680193019A124B1A6073BD5B
:10087000040600201403002024C800009002002079
:100880007102002070020020007014473E02002018
:100890007202002038020020AC0B0020C40A0020A5
:1008A000100B00204C0600203806002063C8000012
:1008B000900F00201C060020024B1870024B19708C
:1008C0007047C0464C0600203806002070B5284B03
:1008D0001A78284B1878002A45D0002105F0A6FB8D
:1008E000254A1178002918D1244D254C2B782078E1
:1008F000DB0700D5012105F099FB2B7860780133E7
:1009000000219B0700D4012105F090FB2B78A078F3
:10091000013300215B0727D425E01A4B1C78002CFB
:100920001ED10126184801390078154DC9B218703A
:1009300011702878314209D0210005F077FB6878E2
:10094000210005F073FBA87821000DE0310005F0CF
:100950006DFB6878310005F069FBA878310003E091
:10096000013C1C7002E0012105F060FB70BDC04637
:10097000860200203E0200204C06002024060020B3
:1009800038020020E807002038060020F8B5164B92
:100990001E88002E26D0154D2B88002B02D0012B4F
:1009A0000BD01FE0124B09201A88124B198805F052
:1009B0005BF82B8801332B8014E00F4F0C4B3C88E5
:1009C00018880E4B01341B88A4B23C80C018052146
:1009D00008F0B6FE844205DD034B013E1E80002375
:1009E0002B803B80F8BDC0462C060020EA07002083
:1009F000220600203A06002018060020EC05002000
:100A0000F0B50E2085B005F083F9764C20601520F6
:100A100005F07EF9744F3221FB7D584308F006FE45
:100A2000724B80B20194724C984201D8206001E070
:100A30006E4B23602368002B01DA0023236014200F
:100A400005F066F9BB7D3221584308F0EFFD674B96
:100A500080B2684D984201D8286001E0634B2B605A
:100A60002B68002B01DA00232B60172005F050F9CA
:100A70007B7E3221584308F0D9FD5C4B80B25E4E3C
:100A8000984201D8306001E0584B33603368002B46
:100A900001DA00233360162005F03AF93B7E32215B
:100AA000584308F0C3FD514A80B2544B904201D8DC
:100AB000186001E04D4A1A601A68002A01DA002223
:100AC0001A60FB8BB42B11D087225200934218D0AE
:100AD0005A2B21D122684A4B1A60336823602B6855
:100AE0003360464B19681A60296015E02A6823684C
:100AF0002260424A42492B6013680B6031681160E2
:100B000009E023683E4A13603C4A11682160296865
:100B1000116032682A60336006F0E0FC002806DDD0
:100B200006F094FC374B186004F09AFAF4E7364B61
:100B30001B78002B37D0354B354A9C461B68116813
:100B40000293344B02981B68CB1883422BD8634620
:100B50001B680393039B13602F4A1388002B29D132
:100B6000264A336812689B1A2C4A0021525E9B1A4F
:100B70002B4A13602A6823689B1A2A4A0021525E76
:100B80009B1A294A1360FFF78FFCFFF7F5FC019BC6
:100B90001A68254B1968224B186803F035FDFFF7DA
:100BA00095FEFFF7F3FE214B1B78002B17D000F0CA
:100BB0002FFE14E0013B9BB21380002BE3D10F4AC0
:100BC0003368126829689A1A236812B25B1A1349AB
:100BD0007A830A80134A1BB2BB831380D3E705B024
:100BE000F0BDC046F805002040020020FF030000D1
:100BF0001006002014060020000600202806002011
:100C000050060020F005002086020020900F0020F2
:100C10001C060020340200203C0200202006002098
:100C2000E407002026060020480600201F0C0020B4
:100C3000013810B50A283FD808F0E4FC0B0F242631
:100C40000608313429382C00C82200E06422C8216B
:100C500023E0C822C82152002BE0184A1388002B39
:100C60002AD1FA2089B2C8334B43C0001B1814485C
:100C7000013103809620134B11801880124B643889
:100C8000188019E0C82200E06422962105E01E22A7
:100C90000E490EE0FA22AF215200490009E0052278
:100CA0000B4906E0FA210522090102E0FA22E621B9
:100CB0001201092004F0D8FE10BDC0462C06002009
:100CC0003A06002022060020EC050020C40900009E
:100CD0008813000010B505F089F810BD70B5050047
:100CE000FFF7C6FB0400280004F0D0FD001970BD1A
:100CF000D2B270B50500002A03D103681B6898477B
:100D000014E00A2A01D0012A04D10022280004F0AC
:100D1000CFFD0BE0102A02D104F001FE06E0022A0A
:100D200002D104F012FE01E004F022FE04002800CB
:100D300004F0ACFD001970BDF0B53B4B85B01B78DD
:100D400000900E000192394D012B27D1384C3949C2
:100D50002000FFF7C3FF38492000FFF789FB10226E
:100D600029782000FFF7C4FF34492000FFF780FBFB
:100D70000099200004F0CAFD314F20003900FFF730
:100D800077FB3100200004F0C1FD39002000FFF79F
:100D90006FFB0A2201992000FFF7AAFF294A009B56
:100DA0001168294C8C4663441360236827489B19BB
:100DB00023602978036816000090254A994207D1DC
:100DC0001168244B02911B68029928338B4228D862
:100DD000FF271368FD200393039A1E4B1A6005F04A
:100DE00055FB002005F052FB032005F04FFB28784F
:100DF00005F04CFB3068384005F048FB206838406F
:100E000005F044FB002005F041FB002005F03EFB0F
:100E1000002005F03BFB0023009A336023602B7811
:100E2000136005B0F0BDC04604060020FC0700209A
:100E3000140300206DC800007FC800008BC80000AC
:100E400098C80000F0070020F407002004080020E4
:100E5000900F0020F807002010B5054A13781843BA
:100E60001070002211001000FFF766FF10BDC04691
:100E7000FC07002010B5054A137883431370002245
:100E800011001000FFF758FF10BDC046FC070020FE
:100E9000034B1B781840431E9841C0B27047C046B0
:100EA000FC07002070B5294B294E1B78294C012BDB
:100EB0002FD1294D29492800FFF710FF2849280084
:100EC000FFF7D6FA102231782800FFF711FF2549E5
:100ED0002800FFF703FF217810222800FFF708FF02
:100EE000617810222800FFF703FFA1781022280064
:100EF000FFF7FEFEE17810222800FFF7F9FE2179C6
:100F000010222800FFF7F4FE617910222800FFF775
:100F1000EFFEFD2005F0BAFA307805F0B7FA0020B0
:100F200005F0B4FA207805F0B1FA607805F0AEFA71
:100F3000A07805F0ABFAE07805F0A8FA207905F082
:100F4000A5FA607905F0A2FA70BDC046040600203B
:100F5000FD070020FE070020140300209AC80000AF
:100F6000AFC80000BCC80000C2B270B50012E028D3
:100F700004D10A490B781A430A700CE0F0280AD110
:100F800000230748195C1C000500002902D001332A
:100F90008A42F7D12A55FFF785FF70BDFD07002073
:100FA000FE07002010B5C1B202120023E02A04D1CE
:100FB0000C4A13788343137010E00B4A5C1CD3185F
:100FC0001878884201D02300F7E7991A052903D041
:100FD000597819700133F8E700235371FFF762FF66
:100FE00010BDC046FD070020FE070020002310B5FD
:100FF000054A137053709370D37013715371034A81
:101000001370FFF74FFF10BDFE070020FD07002003
:10101000F7B5002680270190019B9B5D002B25D012
:101020005AB2002A08DB124AD45C40231C4204D086
:101030004023104D9C4305E0002400253C4204D091
:101040000D4DBC432800FFF78FFFF0231B021C430C
:101050002000FFF789FF2000FFF7A4FF002D02D03A
:101060002800FFF79FFF0136B6B2D5E7F7BDC046AF
:1010700046D3000002E0000040E0000010B5074B3E
:101080001B78012B03D106490648FFF727FE9C2059
:1010900005F094F90122044B1A7010BD04060020DB
:1010A000CDC8000014030020EC070020024B187884
:1010B000431E9841C0B27047EC07002010B50121D3
:1010C0000C2004F0E5FF01210C2004F0AFFFFA2012
:1010D000000105F0F1F80C20002104F0D9FF10BD4B
:1010E00007B504F083FE034B1B680193019A024B82
:1010F0001A6007BD900F0020F8070020F8B5144EC5
:101100008700BD59281E21D00BF01DFBAF23114ACB
:101110009B000130521B84B2D218121B92B22919C3
:1011200028000BF01EFA0023BB51F258954201D261
:10113000121BF25004334C2BF7D1074B1888001BBD
:1011400080B21880AF239B00181A80B2F8BDC04649
:10115000C40A002008080020100B0020F8B50F007A
:101160000500FFF7CBFF104B38001C880BF0EBFAA3
:101170000E4A23180020934214D80D4E3900361918
:1011800030000BF0D8FA0B4BAD003800EE500BF0EE
:10119000DAFA0134044B201880B21880AF239B0088
:1011A000181A80B2F8BDC046100B0020BA02000029
:1011B00008080020C40A002070B519231B25122638
:1011C000154C16492380A5802581A6810320FFF7B1
:1011D000C5FF268212490420FFF7C0FFA6821149ED
:1011E0000520FFF7BBFF26830F490620FFF7B6FF58
:1011F0004523A383423BA3841F332385A31CDD87A0
:101200002584A5852586A5862587A587A31D483421
:10121000DD87258070BDC046AC0B0020DCC8000017
:10122000E4C80000EEC80000F8C8000010B5064B86
:101230008200064C99180220095E985C012312591D
:1012400000F06CFC10BDC046AC0B0020C40A0020AE
:10125000244A8000835A10B5392B26D00ED8082B8B
:1012600021D004D8062B18D0072B18D039E00F2B2B
:101270002FD0102B35D100221B4B2CE0462B0ED04B
:1012800004D83D2B29D0452B07D02AE0472B0AD084
:101290004C2B26D102F09EFA23E0012000E0022030
:1012A00001F040FF1DE00420FAE710184388013BDD
:1012B000DBB21F2B15D801229A4013000B490A6894
:1012C0009A430B4B0A601B78002B0AD105F002FEF3
:1012D00007E00022074B1A7003E0074BC05803F0E9
:1012E00084F910BDAC0B00204C0F00207C120020B4
:1012F00025110020280F0020C40A00200C4B80007C
:10130000C35A01209A1F022A10D9333A92B2132AE3
:1013100005D80849D1400A000100914306D00020B9
:1013200001220F3B9BB29A424041C0B27047C04677
:10133000AC0B00201170080073B5164A0500C00000
:10134000141866788E4220D1835C062B12D80133A4
:10135000DBB28354072B0DD1A378B3420AD0A67019
:101360002800012E08D1FFF761FF0B4B1B6801938A
:10137000019B636000240BE0FFF7C0FF01240028FD
:1013800006D02800FFF764FF02E061700024845457
:10139000200076BD140B0020900F00200021064A8B
:1013A000531C9932581E1970597001709970083386
:1013B0009342F7D17047C046140B002010B504F0DB
:1013C00015FD10BD024B034A1A80034A5A8070472C
:1013D000FC0B00204054000001A4FFFF10B5074C97
:1013E0000721200006F0A4F820000421083006F0B0
:1013F0009FF8A188024806F09BF810BDFC0B002066
:1014000008C9000070B50425074C07212000A580FD
:1014100006F08EF820002900083006F089F8A1882F
:10142000024806F085F870BDFC0B002004C90000DE
:10143000002310B5054C07212000A38006F078F8A2
:1014400020000421083006F073F810BDFC0B0020CA
:1014500010B5084C0721200006F06AF8200004218E
:10146000083006F065F82000A1880C3006F060F81E
:1014700010BDC046FC0B00200D4B0E4A1B681268C5
:101480000D499B1A0D4A9BB213731B1253730C4BDD
:1014900009681B685B1A9BB293731B12D373094BC9
:1014A0001B6813741B125374062393807047C04645
:1014B000000600202806002014060020FC0B002057
:1014C00010060020F805002070B50E4D287804F0B5
:1014D000CDFD444244416878E4B204F0C7FD0028E1
:1014E00001D102231C43A87804F0C0FD002801D1DB
:1014F00004231C43044B00201A78A24201D01C7024
:10150000013070BD72020020440C002010B5FFF7BE
:10151000DBFF034A034B12781A7301229A8010BD35
:10152000440C0020FC0B002073B5464B46491C8937
:101530005A890C819D79D6B28D71050275194D813C
:10154000C1067BD4D2B21979112A2AD004D8002A34
:1015500007D0102A38D071E0812A07D0822A16D00D
:101560006CE000296AD1FFF739FF69E0002965D1F5
:10157000364B1B680193019A354B1A60354B364A3E
:101580001B78DBB213700122344B1A7056E000292D
:1015900054D10123324A13702F4A13702F4B197004
:1015A0004CE0022C08D0032C09D0002C46D1002995
:1015B00044D1FFF727FF43E0FFF75EFF01E0FFF7AD
:1015C000A5FFFFF745FF3BE0601E052836D808F071
:1015D00019F80335350F282C02292FD1197B214A00
:1015E00011805B7B11881B02CB189BB2138025E016
:1015F000012923D11C4C1D7B20780D4200D00021F5
:1016000004F014FD60780021AB0700D4012104F040
:101610000DFDA07800216B0700D4012104F006FD28
:101620000CE0124803F09AFC08E0012906D11A7B6D
:10163000084B1A701B78084ADBB21370FFF7F8FEEC
:10164000012076BD200C0020FC0B0020900F002014
:10165000480C00201E0C0020860200201F0C0020D9
:10166000840200201C0C00203802002054060020B8
:1016700070B55D4C030020780F2800D9A8E007F072
:10168000C1FF08191E253438425A5E65697A9A9C52
:101690009EA0402B01D13F3B9BE020229343412B56
:1016A00000D0A0E00021514A403B1170504A237005
:1016B00013708FE0542B00D08AE0523B89E0002168
:1016C0004C4A11704C4A5380032382E04A4A1B0261
:1016D0005188CB189BB25380002B04D11021454A6E
:1016E00013780B431370042373E0434A938005235C
:1016F0006FE0414A1B029188CB189BB293800F2B5D
:1017000066D8062365E03C4ADDB295713B4A3C4809
:101710001178002901D0002309E07F2102780132ED
:101720000A40934204D0334A7D3913780B43137037
:10173000057007234DE0304A1381082349E02E4A03
:101740001B021189CB181381092342E02A4A5381D5
:101750000A233EE02B4ADBB21370274A9288002A04
:1017600005D00B2300222370274B1A6032E0DB07E1
:101770002CD50C232DE0204A234D118905290AD1AF
:101780008C202968FF30814205D82048435400232B
:1017900041184B7002E0296851180B732B68013314
:1017A0002B609288934215D1164B1B78DB070DD521
:1017B000237801330DE00D230BE00E2309E00F2306
:1017C00007E004210B4A13780B431370632300E0F6
:1017D000002323702378632B05D1064B1878FFF77D
:1017E000A3FE0023237070BD680F0020450C00206D
:1017F00086020020460C0020200C002084020020DD
:10180000F80B00204C0C0020400C00205406002057
:101810001D4B37B51A88002A35D01C490A6800923A
:101820001B4A009814681B881B1983422BD80B682D
:10183000184C0193019B136023780133DBB2002B1A
:1018400000D1802323700223134D2B812378AB71A9
:1018500020236B81FFF710FEFFF7FAFDFFF734FE40
:10186000002810D023780133DBB2002B00D1802375
:10187000237003232B812378AB7120236B81FFF727
:1018800045FEFFF7E5FD37BD1C0C0020900F002042
:10189000480C002085020020FC0B002010B504F04D
:1018A000A5FA10BD70B50022050004F001F804008F
:1018B000280003F0EBFF001970BDFFFFF0B5774C77
:1018C00085B077492000FEF7E0FD76492000FFF75C
:1018D00005FA75492000FEF7D8FD744D200069789F
:1018E000FFF7E0FF72492000FEF7CFFDA978200046
:1018F000FFF7D8FF6F492000FEF7C7FD0423E95E1C
:101900002000FEF7C6FD6C492000FEF7BEFD062351
:10191000E95E2000FEF7BDFD68492000FEF7B5FD39
:1019200029892000FEF7B5FD65492000FEF7ADFDD1
:1019300069892000FEF7ADFD62492000FEF7A5FD94
:10194000A9892000FEF7A5FD5F492000FEF79DFD57
:10195000E9892000FEF79DFD5C492000FEF795FD1A
:10196000297C2000FFF79EFF59492000FEF78DFDDE
:10197000698A2000FEF78DFD56492000FEF785FD9F
:10198000A98A2000FEF785FD53492000FEF77DFD62
:1019900029782000FFF786FF50492000FEF775FDEB
:1019A000A97D2000FFF77EFF4D492000FEF76DFD69
:1019B000E97D2000FFF776FF4A492000FEF765FD2C
:1019C000297E2000FFF76EFF47492000FEF75DFDEE
:1019D000697E2000FFF766FF44492000FEF755FDB1
:1019E000E98B2000FEF755FD013541492000FEF747
:1019F0004CFDE97F2000FFF755FF3E492000FEF730
:101A000044FD3D492000FFF769F900253B492000CE
:101A1000FEF73BFD082D03DC39492000FEF735FDBC
:101A2000013529002000FEF734FD36492000FEF77D
:101A30002CFD354EAB009E190193331F1F88334B8D
:101A4000BF00DF19390003A80AF075FE03A92000C2
:101A5000FEF71BFDFB78002B18D0022B0DD9032BB2
:101A600014D12B492000FEF710FDAB00294A043B9E
:101A7000D1582000FEF709FD08E025492000023E6C
:101A8000FEF703FD3188200003F040FF22492000CB
:101A9000FFF724F9132DB9D105B0F0BD14030020D0
:101AA0000EC900007502002014C900004002002089
:101AB0001BC9000022C9000029C9000030C900006C
:101AC00037C900003EC9000045C900004CC90000EC
:101AD00053C900005AC9000061C9000068C900006C
:101AE0006FC9000076C900007DC9000084C90000EC
:101AF0008BC9000092C900006102002099C9000052
:101B0000E1CF0000A0C90000AC0B00200ECB00000C
:101B100096C80000C40A002097C80000F0B5150060
:101B2000B74A0C001178E7B00190170000293DD0AA
:101B3000B44B1B78012B22D1B34EB4493000FEF7D1
:101B4000A4FC00223978300003F0B2FEB049300026
:101B5000FEF79BFC00220199300003F0A9FEAD497D
:101B60003000FEF792FC2100300003F0CFFEA949BF
:101B70003000FEF78AFC29003000FFF7AFF8694615
:101B80003878A54A0138898883009952D3185C8037
:101B9000C0B2FFF7B3FA002D05D03878290001381C
:101BA000C0B2FFF7DBFA00233B708BE3019A4E2AA9
:101BB00000D987E3100007F02FFD4F0054006E009E
:101BC000780098008200A200A600AA00BA00BE0019
:101BD000C200C600CD00D300D600E00094019B01F6
:101BE000B001B701BA01CD01E801FF0104021602FC
:101BF00085037603800323023C02520256025A02F6
:101C00006E02710274027702B702BA02BD02C0020C
:101C1000C302C602C902CC02FF0215035E035B03C6
:101C20006B03EA00FD00070119014901550160013C
:101C30006D016403A2017A027D028002B302CF0229
:101C40006803FB02A200A600AA00AE00B200B60024
:101C5000A9013A035003230370496B48FFF73EF88C
:101C600030E3FEF77BFD674B1B78012B08D1664DF7
:101C70006B492800FEF709FC21002800FEF709FC4B
:101C8000631E9BB2122B01D83C701BE365495E4872
:101C9000FFF724F816E3012001F05CFA082004F0B5
:101CA0000BFB012001F03EFA0CE3022001F052FA96
:101CB000082004F001FB022001F034FA02E30120C5
:101CC00001F048FA082004F0F7FA012001F02AFA9E
:101CD000082004F0F1FA012001F03CFA082004F099
:101CE000EBFA012001F01EFAECE2042001F032FAD6
:101CF000082004F0E1FA042001F014FAE2E20120E5
:101D000001F028FADEE2022001F024FADAE20420EF
:101D100001F020FAD6E2012001F034FAD2E20220EA
:101D200001F030FACEE2042001F02CFACAE20120E0
:101D300001F0F8F9C6E2022001F0F4F9C2E2042051
:101D400001F0F0F9BEE2384B187C404240B201F09D
:101D500045FAB7E21020344B185601F03FFAB1E2D1
:101D6000314B1C74AEE2002B02D0304B1C70A9E248
:101D70001900200001F050FAA4E2002B02D02C4BF5
:101D80001C709FE22100180001F046FA9AE2294BEC
:101D900029485A681040294A944200D91400240165
:101DA00004435C60264B1B78002B00D08AE205F0D0
:101DB00091F887E21F4B23485A6810401F4A94420B
:101DC00000D91400A403EBE71C4B9C4200D91C0073
:101DD000184A2106536890681B021B0A0B43536084
:101DE0000323240A984304439460DBE7114B16480D
:101DF0009A681040114A944200D91400A4002EE0C1
:101E00004D0C00200406002014030020A4C900008B
:101E10002ECE000022C80000AC0B0020BDC900007F
:101E2000CDC90000F0D2000040020020280F0020A1
:101E30004C0F00207C1200200FC0FFFFFF030000AA
:101E400025110020FF3F00FF03F0FFFFC44BC548F2
:101E50009A681040C44A944200D9140024030443F1
:101E60009C609FE7013CE4B21F2C00D92AE20123C9
:101E7000A340BB4A11680B430AE0013CE4B21F2CAB
:101E800000D91FE20123A340B54A116899430B0012
:101E9000136087E70F23002C1CDB0023162C19DDB1
:101EA0000133432C16DD0133702C13DD01339D2CDF
:101EB00010DD0133CA2C0DDD0133F42C0ADD922232
:101EC00001335200944205DD5222FF320023944236
:101ED00000DC07330F22A2494868904303434B605C
:101EE00060E7002D00D1EDE1280001F035FAE9E1CD
:101EF000002D00D1E6E1280002F068FBE2E1002DB0
:101F000000D1DFE1280002F06BFBDBE1002D00D106
:101F1000D8E1280002F06EFBD4E1002D00D1D1E120
:101F2000280002F062FBCDE1FEF718FCCAE1FEF7E3
:101F300015FC002D00D1C5E12B78002B00D1C1E1AB
:101F400028000AF000FC0E2800D9BBE1280000F0B0
:101F500079FCB7E1002D00D1B4E1FEF7FFFB2800CA
:101F600000F0B2FE0022814B81491A70814BDA8A5F
:101F70008A4203D1198B914200D1A3E1598B7E4A49
:101F800011809A8B7D4B1A809CE1FEF7E7FB0223C0
:101F9000764D00242B7000F0EDFF0022200001346C
:101FA0001100E4B200F06AFD072CF6D100200121F7
:101FB000287000F083FE85E1FEF7D0FB01F052F8B7
:101FC00080E16F4B694C1D78012D04D16D496E483D
:101FD000FEF75BFA2570FEF7C1FB002000F074FEEF
:101FE000002323706EE1664B1B78012B03D16749F8
:101FF0006548FEF773FEFEF7B1FB00F09BFA61E166
:102000005C4BE4B21C705E4B1B78012B00D059E195
:102010005D48012C03D15E49FEF760FE52E1012CC0
:1020200003D95C49FEF75AFE4CE15B49FEF756FEC8
:1020300048E1534B1B78012B03D158495248FEF716
:102040004DFE0F210620FEF737FC4A4B1A78002A76
:1020500002D101321A7035E100221A7032E10122F8
:102060004F4B1A702EE100224D4B1A702AE1444B5F
:102070001B78012B03D14B494348FEF72FFE142157
:102080000A20FEF719FC6422474B002101201A8028
:10209000FEF7CEFD16E1374B5C7013E1354B9C70BB
:1020A00010E1344B9C800DE1324BDC800AE1314B76
:1020B0001C8107E12F4B5C8104E1314B1B78012B24
:1020C00008D1314C39492000FEF7DFF92900200002
:1020D000FEF704FE2B78002B00D1F3E000231A005A
:1020E0002978002911D03B2902D1002A04D10CE023
:1020F0005C2901D1002A05D05A1C02A8C154D3B2D0
:10210000002200E001220135EAE7002202A90800CE
:10211000CA5402F023FF2B785A1E9341ED18D9E7D9
:10212000200004F0C9F8CDE0124B9C81CAE0114BAD
:10213000DC81C7E00F4B5C82C4E00E4B9C82C1E0A7
:102140000C4B9C75BEE00B4BDC75BBE0094B1C7661
:10215000B8E0084B5C76B5E0064BDC83B2E0C046E5
:102160007C120020FF0FC0FFFF030000F4050020D9
:102170003232000040020020200600202606002007
:1021800004060020E2C9000014030020F1C9000089
:10219000FEC9000017CA000033CA000053CA00007D
:1021A000FC05002077CA00003C02002089CA00001C
:1021B000454B0133DC7785E0444B1B78012B03D181
:1021C00043494448FEF78AFD002D7BD02B78002B35
:1021D00078D028000AF0B7FA0E2873D8280001F04A
:1021E00033F96FE0394B1B78012B03D13A49394859
:1021F000FEF774FD002D65D0280001F0CDFA61E0F6
:10220000324B1B78012B03D134493248FEF766FD6F
:10221000002D57D02B78002B54D028000AF093FAC9
:102220000E284FD829002E480AF085FA4AE0274B9D
:102230001B78012B03D12B492648FEF74FFD002DBB
:1022400040D02B78002B3DD028000AF07CFA0E28D5
:1022500038D8280001F0AEFA34E01C4B1B78012B73
:1022600003D121491B48FEF739FD01F0B3FA29E0FB
:1022700001F098F926E0002D24D0280001F096F90D
:1022800020E0A0B201F0B2FA1CE001F0A9FA19E0D6
:1022900001220E4B15491A70154B92180D481A70F1
:1022A000FEF71CFD0EE00123084A12491370104A84
:1022B00008481370FEF712FD04E00023034A137070
:1022C0000B4A137067B0F0BD4002002004060020E6
:1022D00098CA000014030020AACA0000BACA00006D
:1022E00061020020D7CA0000E7CA0000F7CA000058
:1022F0004E0C002006CB000010B503F077FD10BD9A
:1023000010B5002203F0D4FA10BD10B5002203F07E
:10231000CFFA10BD10B503F069FD10BDF8B51C4C27
:10232000A02223003B331A70230001275E331F7065
:10233000230005000E00010A5D33C9B220001F70A2
:1023400002F014FFE9B2200002F010FF310020007B
:1023500002F00CFF3900200003F096F8052003F08E
:10236000ABFF0C4B1B78022B10D10B4C0B49200000
:10237000FEF78BF829002000FFF7C7FF084920006F
:10238000FEF783F831002000FFF78CFAF8BDC04655
:10239000900200204E0C0020140300204ACC0000C4
:1023A00095C80000F7B50D00002400902A5D002AB2
:1023B00002D00134A4B2F9E734345649A4B2002360
:1023C0008858C65C002E02D001339BB2F9E7053372
:1023D000E4180432A4B24C2AF1D14F4F3B78012BC0
:1023E00000D08CE04D4E4E493000FEF74EF82100F3
:1023F0003000FEF74EF8009B002B02D19023494A93
:102400001380009B474A5B00D45A3B78012B08D1CC
:10241000424E45493000FEF738F821003000FEF703
:1024200038F870212000FFF779FF601C80B202218C
:10243000FFF774FF0026A71CBFB23C4BB819995D8B
:1024400080B20136FFF76AFF302EF6D12700323412
:10245000A0B20021FFF762FF00263337BFB2A95DAB
:1024600001363800B6B2FFF759FFAB19013B7C1CAF
:102470001B78A4B22700002BF1D11D0000262C4FA1
:10248000EF19A019B95D80B20136FFF747FF042E9E
:10249000F7D1201D80B20021FFF740FF661D1D4BC4
:1024A0009334FF345F59A3B2B6B201933978300048
:1024B000FFF734FF3B78741CA4B2002B03D1043522
:1024C0004C2DDBD105E0019B013726009C42EDD16C
:1024D000F5E7009B062B03D1124B8E331C8004E0E2
:1024E000009B104A01335B00D45200240D4B2000A6
:1024F000195D0134FFF712FF902CF7D108E0009B23
:10250000002B00D17AE7009B064A5B00D45A88E78B
:10251000F7BDC046C40A00204E0C00201403002062
:1025200054CC0000500C00205FCC00004002002082
:10253000AC0B002070B5104B1B78012B03D10F4959
:102540000F48FEF7CBFB002426000E4D0021605BF8
:10255000FFF7E4FE605B00210130FFF7DFFE66530A
:1025600002340E2CF1D10024295D20000134FFF744
:10257000D5FE902CF8D170BD4E0C002070CC000020
:1025800014030020500C0020F0B585B00293040025
:10259000002301910392019AD25C002A02D00133F8
:1025A0009BB2F8E7404F414D3B78012B72D1404E32
:1025B00040493000FDF769FF029B3000D91CFDF750
:1025C00068FF002C01D13C4BEB81231D5B00ED1813
:1025D0003B78EE88012B08D1354D38492800FDF7AE
:1025E00054FF31002800FDF754FF30006621B51E6E
:1025F000013EFFF793FEB0B2BB21FFF78FFE00262E
:10260000ADB2019B2800995DFFF788FE0136019B62
:10261000B6B29B19013B1B786F1EBFB2002B01D0D5
:102620003D00EEE7AB1E9BB2029938000193FFF725
:1026300075FE6B461B89039E02935B00ED1A023DFB
:10264000ABB2019D0393039B9D420ED031782800CD
:10265000FFF764FE6F1E3188BFB2023D090A3800E1
:10266000ADB2FFF75BFE0236EDE7029B019A5B001D
:10267000D31A9BB20D4D3E2C03D0053464002C19A7
:10268000E3800024295D20000134FFF747FE902CF1
:10269000F8D106E0002C96D0231D5B00ED18EE88E3
:1026A000A3E705B0F0BDC0464E0C0020500C002042
:1026B0001403002083CC0000FF7F000091CC0000B9
:1026C00070B5234CA02223003B331A70230001264F
:1026D0005E331E7023000500010A5D33C9B220007D
:1026E0001E7002F043FDE9B2200002F03FFD310010
:1026F000200002F0C9FE330032005021200002F019
:102700003FFF230022003933383219781378FE3620
:10271000994206D00026994203D9591C1170E41839
:10272000267E0C4B1B78022B10D10B4C0B49200042
:10273000FDF7ABFE29002000FFF7E7FD0849200068
:10274000FDF7A3FE31002000FFF7ACF8300070BDAC
:10275000900200204E0C002014030020A6CC0000A4
:1027600095C80000F0B5002485B001902E4B6200A2
:10277000D55A002D43D02800FFF7A2FF70283ED184
:10278000681C80B2FFF79CFF022838D10027333540
:10279000ABB2019D0393039B019A2E789B1A5B19A0
:1027A00018000293FFF78CFF86421FD01F4B1B7847
:1027B000022B24D11E4E1F493000FDF766FE390062
:1027C0003000FFF7A2FD1C493000FDF75EFE2878BF
:1027D00004F01EFF19493000FDF757FE0298FFF77D
:1027E0006FFF01003000FFF75DF808E02B78002B49
:1027F00003D0013701350F2FCDD160B211E0013484
:10280000072CB3D1094B1B78012B08D1084C0C497C
:102810002000FDF73AFE01992000FEF75FFA012043
:10282000404205B0F0BDC046500C00204E0C0020C8
:1028300014030020B0CC000096C80000C4CC0000F7
:10284000C7CC0000F8B50600FFF78CFF431C2DD164
:102850000024174B6200D55AE7B2002D06D1154B64
:102860001B78012B1AD1144D144910E02800FFF7F2
:1028700027FF702817D00135A8B2FFF721FF0228E3
:1028800011D00C4B1B78012B08D10B4D0C492800A3
:10289000FDF7FBFD39002800FFF704F860B23100B6
:1028A000FFF780FD02E00134072CD2D1F8BDC0460D
:1028B000500C00204E0C002014030020DACC000045
:1028C000E5CC0000F0B5002485B00090E3B2394AB1
:1028D00003936300D318DD89002D56D02800FFF73D
:1028E000EFFE662851D1681E80B2FFF7E9FEBB28D3
:1028F0004BD10026023D009FADB23B780193AB1B4C
:1029000018000293FFF7DCFE019B83421FD02A4B85
:102910001B78022B39D1294D29492800FDF7B5FD37
:1029200031002800FFF7F1FC26492800FDF7ADFD36
:10293000387804F06DFE24492800FDF7A6FD0298C2
:10294000FFF7BEFE01002800FEF7ACFF1DE03B785C
:10295000002B03D0013601370F2ECED1164B1B783A
:10296000012B10D1154D19492800FDF78EFD009956
:102970002800FDF78AFD16492800FDF786FD03991A
:102980002800FEF78FFF60B211E001343F2C9DD18B
:10299000094B1B78012B08D1084C0E492000FDF78C
:1029A00074FD00992000FEF799F90120404205B01E
:1029B000F0BDC046500C00204E0C00201403002037
:1029C000B0CC000096C80000C4CC0000F6CC0000DB
:1029D000EBCD0000C7CC0000F8B503780700214C10
:1029E000002B26D0FFF76EFF1F4BC5B21B78012BC3
:1029F00010D11E4E1E493000FDF747FD3900300052
:102A0000FDF743FD1B493000FDF73FFD2900300075
:102A1000FEF748FF04356D006419E08890281FD93F
:102A2000FF21FFF77BFCE088FF210138FFF776FCF0
:102A300016E0250010490D48FEF750F90E358C348C
:102A40002888902807D9FF21FFF768FC2888FF21F4
:102A50000138FFF763FC00232B800235A542EFD13C
:102A6000F8BDC046500C00204E0C0020140300207E
:102A700008CD0000EBCD000017CD0000F0B585B00B
:102A800005000292062800D900257C4F002935D088
:102A90006B000193FE5A7A4B1B78012B08D1794CBD
:102AA00079492000FDF7F1FC29002000FEF7FAFE2D
:102AB000741C3000A4B2FFF703FE70280CD102365C
:102AC0002000B6B2FFF7FCFD022804D16B00FC5ACF
:102AD0006E4B1D7004E034000135EDB2072DD7D1E7
:102AE0002000FFF7EDFD702800D0B2E0601C80B23E
:102AF000FFF7E6FD022800D0ABE00EE06D007C5B46
:102B00002000FFF7DDFD702800D0B4E0601C80B22B
:102B1000FFF7D6FD022800D0ADE00234A4B2584B36
:102B20001A780393012A08D1564D59492800FDF718
:102B3000ACFC21002800FDF7ACFC0025601980B238
:102B4000FFF7BEFD534B58550135302DF6D1524E8F
:102B500031343700A4B22000FFF7B2FD651CADB2DE
:102B600030702C0001360028F5D14C4B1B78012B1E
:102B700008D1444C4A492000FDF787FC3900200069
:102B8000FEF7ACF800260024F3B20193454BB700E2
:102B9000FF18281980B2FFF793FD38550134042C33
:102BA000F7D1281D6C1D80B2A4B2FFF789FD002863
:102BB0000BD0344F3C493800FDF767FC601EFFF72F
:102BC0007FFD01003800FEF76DFE2000FFF778FD65
:102BD000002814D000272000FFF772FD3349651C40
:102BE000ADB2C855002803D10198FEF7B7FA08E046
:102BF0008E230137FF332C009F42ECD1F4E70635DA
:102C0000ADB20136132EBED1294B1A781D00002A11
:102C100001D0FEF753FE029B002B04D01B4B022079
:102C20001978FEF705F8039B1B78002B09D0154C8B
:102C300020492000FDF729FC144B20001978FEF7ED
:102C400031FE2B78002B16D01B490E48FEF746F8B4
:102C500011E03C882000FFF733FD70280BD1601C89
:102C600080B2FFF72DFD022805D10022074B023468
:102C7000A4B21A7053E705B0F0BDC046500C002056
:102C80004E0C0020140300202DCD0000240600204F
:102C90003DCD000040020020750200200406002007
:102CA0005CCD0000AC0B00206CCD00005406002071
:102CB000F405002085CD000082D0000010B501226F
:102CC000FFF7DCFE10BDFFFF70B503780600002B98
:102CD00004D1134B18780130C0B21AE0FFF742FD5F
:102CE000104B04001B78012B10D10F4D0F49280009
:102CF000FDF7CBFB31002800FDF7C7FB0C4928008E
:102D0000FDF7C3FB21002800FDF7C3FB002C02DB0D
:102D1000E0B2012101E001210020FFF7CFFF70BDEB
:102D2000240600204E0C0020140300208FCD00004C
:102D3000EBCD0000F7B5070000910192FFF7C2FD4F
:102D4000431C29D10025154A6B00D318DC89EEB24B
:102D5000002C0AD02000FFF7B3FC662819D0013CF4
:102D6000A0B2FFF7ADFCBB2813D00D4B1B78012B95
:102D700008D10C4C0C492000FDF787FB31002000E6
:102D8000FEF790FD019B009A39003000FFF7FCFB35
:102D900002E001353F2DD6D1F7BDC046500C0020D2
:102DA0004E0C0020140300209ACD0000F8B5002539
:102DB000184A6B00D318DC89EEB22000FFF780FCC4
:102DC000662822D1601E80B2FFF77AFCBB281CD196
:102DD000114F12493800FDF758FB31003800FFF75A
:102DE0008FFA023C0E493800A4B2FDF74EFB661E76
:102DF0002000B6B2FFF764FC002803D004F008FC02
:102E00003400F4E7380002F041FD01353F2DCFD109
:102E1000F8BDC046500C002014030020ABCD0000CC
:102E20002ECE0000F7B50E0000923F2801D90024F5
:102E300055E02C4B04302C4D400018182B78C488DA
:102E4000012B03D129492A48FDF748FF2000FFF74D
:102E500037FC6628EBD1601E80B2FFF731FCBB283F
:102E6000E5D12B78023CA4B2012B08D1204D214999
:102E70002800FDF70AFB21002800FDF70AFB671E6A
:102E80002000BFB2FFF71CFC002801D03C00F6E791
:102E90003800FFF715FC009BA51E5B00E41A023CFE
:102EA000A3B284B2ADB200936300EB1A9BB201935C
:102EB000009B9D4213D0019B9D4210D02800FFF73C
:102EC000FFFB6F1EBFB230803800FFF7F9FB33887D
:102ED0000002023D18183080ADB20236E8E720004B
:102EE000FEBDC046500C00204E0C0020B5CD0000A9
:102EF00014030020CBCD0000F7B506000F000192AF
:102F0000FFF7E0FC164B04001B78002819DB012BAF
:102F100010D1144D14492800FDF7B7FA31002800EC
:102F2000FDF7B3FA11492800FDF7AFFA2100280098
:102F3000FDF7AFFAE0B2019A3900FFF773FF040022
:102F40000BE00024012B08D1064D09492800FDF7AC
:102F50009CFA31002800FDF7C1FE2000FEBDC046EE
:102F60000406002014030020F7CD0000EBCD000084
:102F7000EDCD0000F8B500252800FFF7A1FB314C8E
:102F800028550135902DF7D100231D002E49CA5C2C
:102F90000133AD18ADB20F2BF9D12088FFF790FBAC
:102FA000702838D120880130FFF78AFB022832D1FF
:102FB00023008C331B88AB422DD1244B1B78012B73
:102FC0003ED1234D23492800FDF788FE0026F1B2AB
:102FD0002800FFF795F9204F28003900FDF755FA32
:102FE0007300E15A28000136FDF753FA072EEED19F
:102FF0000026F1B22800FFF783F939002800FDF719
:1030000044FA7300E318D98928000136FDF741FA24
:103010003F2EEED114E004210220FDF709FE0F49F6
:103020000B48FDF75BFEFFF785FA0020FFF7D4FCA5
:1030300023000B498C3300201D80FFF7B3F9BCE758
:10304000F8BDC046500C0020BDC900004E0C002049
:103050001403002008CE000095C8000030CE000008
:1030600045CE0000F8B50025174B6A00D45AEEB2E1
:103070002000FFF725FB702822D1601C80B2FFF7EB
:103080001FFB02281CD1114F11493800FDF7FDF933
:1030900031003800FFF734F933340E493800A4B258
:1030A000FDF7F3F9661C2000B6B2FFF709FB002814
:1030B00003D004F0ADFA3400F4E7380002F0E6FB88
:1030C0000135072DD0D1F8BD500C0020140300208D
:1030D0004BCE00002ECE00001F2310B5064A18402C
:1030E00011780843814206D00023107019001A009D
:1030F000180004F053F910BD301100201F2310B543
:10310000074A184011780B008343994206D0137088
:1031100000231A001900180004F040F910BDC04641
:103120003011002070B50A4B05005A1CD27F1C00DC
:10313000D30701D5FFF7E2FF631CDB7F9B0706D5B2
:10314000FDF7B4FF002802D02800FDF793FE70BD04
:103150004002002070B50A4B05005A1CD27F1C00AB
:10316000D30701D5FFF7B8FF631CDB7F9B0706D5AC
:10317000FDF79CFF002802D02800FDF76DFE70BD12
:103180004002002070B5134B04005A1CD27F1D0072
:10319000D30709D5104B1A780240D30602D0FFF7A7
:1031A000ADFF01E0FFF798FF6B1CDB7F9B070FD59E
:1031B000FDF77CFF00280BD02000FDF769FE0028FA
:1031C00003D02000FDF756FE02E02000FDF744FE8C
:1031D00070BDC046400200203011002070B50D4B7C
:1031E00005005A1CD27F1C00D30705D5002302001E
:1031F0001900180004F0D2F8631CDB7F9B0708D588
:10320000FDF754FF002804D00021EAB20800FDF7C2
:1032100093FD70BD40020020F8B505000E000127A7
:103220002B004C4C803301DB022724E0631CDB7F46
:103230003B4206D0002380201A001900404204F0CF
:10324000ADF80134E37F9B0703D5FDF72FFF00287E
:1032500065D18035E4E70122631CDB7F134205D092
:1032600000237F201A00190004F098F8631CDB7F0C
:103270003B4204D17F3D7F2DEDDC012714E0FDF7BB
:1032800015FF002852D1F5E7631CDB7F3B4206D0D7
:10329000002380211A004942180004F07FF8631CC3
:1032A000DB7F9B0705D4803633008033ECDB0227BD
:1032B00014E0FDF7FBFE00283ED1F4E70122E318FD
:1032C000DB7F134205D000237F211A00180004F091
:1032D00065F8631CDB7F3B4204D17F3E01237F2ED8
:1032E000ECDC04E0FDF7E2FE00282CD1F5E7621CDF
:1032F000D27F1A4205D0002371B268B21A0004F0DE
:103300004DF80134E37F9B0723D5FDF7CFFE00285E
:103310001FD0002231002800FDF70EFD19E0002229
:10332000802011004042FDF707FD92E700227F2038
:103330001100FDF701FD9DE70022802110004942A8
:10334000FDF7FAFCAFE700227F211000FDF7F4FC47
:10335000C3E7F8BD4002002070B5104B05005A1CB1
:10336000D27F1E00D3070DD50024280009F0EBF909
:10337000A04207D9285D03F0B5FE285D03F038FFB1
:103380000134F2E7731CDB7F9B0706D5FDF78EFE49
:10339000002802D02800FDF73BFE70BD400200204F
:1033A00070B50B4B05005A1CD27F1C00D30702D509
:1033B00080B203F097FE631CDB7F9B0706D5FDF709
:1033C00075FE002802D02800FDF7CEFD70BDC04676
:1033D0004002002070B50B4B05005A1CD27F1C0028
:1033E000D30702D580B203F003FF631CDB7F9B078A
:1033F00006D5FDF75BFE002802D02800FDF7D2FDC0
:1034000070BDC0464002002010B5094B5A1CD27F47
:103410001C00D30701D503F041FF631CDB7F9B0732
:1034200005D5FDF743FE002801D0FDF7DFFD10BDF7
:103430004002002010B502F0D9FC10BD10B5040008
:1034400002F0DAF9200010BDF0B5464C87B02368D1
:1034500001900493049D444F387802F007FE0397CF
:1034600000280BD02368414A0593059B5B1B9342C0
:10347000F1D93F493F48FDF731FC70E006003E4C72
:1034800020802388F92B14D802F0F2FE029002F07B
:10349000EFFE029BC51A394B1A681F00954205D2F0
:1034A000039B187802F0E2FD8642F0D03B689D4213
:1034B0003FD323882F4D3249FA2B00D031492800C1
:1034C000FDF70CFC00210B20FDF7B2FB2E4B2F4F1C
:1034D0001B78012B13D12E492800FDF7FFFB002696
:1034E0002388B34207D97300F95A28000136FCF744
:1034F000D0FFF6B2F4E727492800FDF7EFFB264995
:103500002800FCF7B5FF01992800FCF7B1FF23491B
:103510002800FCF7ADFF2188280002F0F7F92049C8
:103520002800FDF7DBFB227839000198FFF702FC49
:1035300015E0FA231B029D4207D9FA2128008900D1
:1035400006F074F8FA231B02C518012023880F4ADD
:10355000590046401B188D52F6B2238091E707B000
:10356000F0BDC046900F0020710200200F27000020
:1035700050CE000014030020F00C00208802002030
:1035800069CE000080CE000004060020F20C00206E
:1035900099CE0000ADCE0000BCCE0000D2CE00001F
:1035A000D9CE000010B5FFF701FC10BD10B5FFF734
:1035B00013FA10BDF8B52B4EFA223100FFF79CFC30
:1035C000294F2A4B38801B78002806D1012B47D180
:1035D00027492848FDF782FB42E0012B14D1254DF5
:1035E00025492800FDF77AFB00243B88A34207D930
:1035F0006300F15A28000134FCF74BFFA4B2F4E752
:103600001E492800FDF76AFB00210920FDF710FB89
:1036100000231B4A1B4C13801B4A1C4913701C4A75
:1036200020001360EF2202F08DF81421236821712D
:10363000002B15D01748184A1B181B11D1541178AC
:1036400053781648164A994205D8036809041A4067
:103650000A43026004E001681B040A40134303604C
:10366000F8BDC046F20C0020F00C0020040600203B
:10367000E6CE00001403002099CE0000ADCE00007D
:10368000EE0C0020E40C0020EC0C0020A53600001D
:10369000E00C0020008FFCBFFC02002014E400E0DE
:1036A000FFFF00FFF8B52F4A2F4F12883B883E00DE
:1036B0002E4D2F4C934223D92878002102F01EFD75
:1036C0002878002102F0B2FC002323703B80294BB4
:1036D0001A68002A01DD013A1A601B68002B40D1EC
:1036E000254802F089F8254A1368002B39DD013B93
:1036F0001360234B013BFDD12248FFF75BFF30E015
:10370000934206D11C4B1B68002B1CD01E4A1A602A
:1037100019E01E4A5B009B5AFA221202934204D916
:10372000FA22920053431A4A9B181A495A1E8A4297
:1037300009D818225343013B232B04D90E4A12689F
:10374000002A00D013602178287802F0D7FC237873
:10375000002B01D1803300E0002323703388013334
:103760003380F8BDF00C0020EE0C00207002002029
:10377000EC0C0020EC0E0020E40C0020E80E0020F1
:1037800000710200610200207FA90300F20C0020FA
:1037900000702FFCAFAAAA0A012310B5034A1360D8
:1037A000034A1360FFF706FF10BDC046EC0E002071
:1037B000E80E0020012210B5044B52421A60044B5F
:1037C00002321A60FFF7F6FE10BDC046EC0E002074
:1037D000E80E00200022014B1A607047EC0E00201A
:1037E00010B50020FFF7F8F810BDFFFF002804D047
:1037F000FA239B005843014B186070478802002051
:1038000010B502F0F3FA00230448054A03600549A5
:103810008033037108F046FE10BDC046E40C002062
:10382000300200203D34000010B5FFF7EDFD00230D
:103830001900034A99500433202BFBD110BDC04618
:10384000F00E0020002310B5064A99008C58002C79
:1038500000D188505158884202D00133072BF4DD43
:1038600010BDC046F00E0020002330B50B499A0071
:1038700055580C0085420CD18A180021072B05D021
:1038800050184068013350500431F7E70023E361DA
:1038900002E00133072BEADD30BDC046F00E002008
:1038A0000023054A9958814204D00433202BF9D1D2
:1038B000002000E001207047F00E002010B5040049
:1038C000032916D8080005F09DFE0E0E0702200001
:1038D000FFF7E6FF002806D02000FFF7C5FF200015
:1038E000FFF778FD05E02000FFF7ACFF2000FFF7B1
:1038F00057FD10BD70B504000D0008F024FF023024
:1039000008F012FE0600210008F015FF300008F054
:103910001AFF301801380378D24C202B03D0210035
:10392000300008F0F1FE2100300008F013FF041E03
:1039300001D100F0C9FDCC4908F0F3FE002803D105
:103940002900CA48FFF7BAFFC949200008F0E9FE7C
:10395000002803D12900C748FFF7B0FFC64920005F
:1039600008F0DFFE002803D12900C448FFF7A6FFB6
:10397000C349200008F0D5FE002803D12900C14822
:10398000FFF79CFFC049200008F0CBFE002803D1C0
:103990002900BE48FFF792FFBD49200008F0C1FE94
:1039A000002803D12900BB48FFF788FFBA4920004F
:1039B00008F0B7FE002803D12900B848FFF77EFFC2
:1039C000B749200008F0ADFE002803D12900B54812
:1039D000FFF774FFB449200008F0A3FE002803D1CC
:1039E0002900B248FFF76AFFB149200008F099FEAC
:1039F000002803D12900AF48FFF760FFAE4920003F
:103A000008F08FFE002803D12900AC48FFF756FFCD
:103A1000AB49200008F085FE002803D12900A94801
:103A2000FFF74CFFA849200008F07BFE002803D1D7
:103A30002900A648FFF742FFA549200008F071FEC3
:103A4000002803D12900A348FFF738FFA24920002E
:103A500008F067FE002803D12900A048FFF72EFFD9
:103A60009F49200008F05DFE002803D129009D48F1
:103A7000FFF724FF9C49200008F053FE002803D1E3
:103A800029009A48FFF71AFF9949200008F049FEDB
:103A9000002803D129009748FFF710FF964920001E
:103AA00008F03FFE002803D129009448FFF706FFE5
:103AB0009349200008F035FE002803D129009148E1
:103AC000FFF7FCFE9049200008F02BFE002803D1F0
:103AD00029008E48FFF7F2FE8D49200008F021FEF4
:103AE000002803D129008B48FFF7E8FE8A4920000F
:103AF00008F017FE002803D129008848FFF7DEFEF2
:103B00008749200008F00DFE002803D129008548D0
:103B1000FFF7D4FE8449200008F003FE002803D1FB
:103B200029008248FFF7CAFE8149200008F0F9FD0C
:103B3000002803D129007F48FFF7C0FE7E492000FE
:103B400008F0EFFD002803D129007C48FFF7B6FEFE
:103B50007B49200008F0E5FD002803D129007948C1
:103B6000FFF7ACFE7849200008F0DBFD002803D108
:103B700029007648FFF7A2FE7549200008F0D1FD24
:103B8000002803D129007348FFF798FE72492000EE
:103B900008F0C7FD002803D129007048FFF78EFE0A
:103BA0006F49200008F0BDFD002803D129006D48B1
:103BB000FFF784FE6C49200008F0B3FD002803D114
:103BC00029006A48FFF77AFE6949200008F0A9FD3C
:103BD000002803D129006748FFF770FE66492000DE
:103BE00008F09FFD002803D129006448FFF766FE16
:103BF0006349200008F095FD002803D129006148A1
:103C0000FFF75CFE6049200008F08BFD002803D11F
:103C100029005E48FFF752FE5D49200008F081FD53
:103C2000002803D129005B48FFF748FE5A492000CD
:103C300008F077FD002803D129005848FFF73EFE21
:103C40005749200008F06DFD002803D12900554890
:103C5000FFF734FE5449200008F063FD002800D02F
:103C6000A8E0A3E096C80000FACE000002E0000041
:103C700004CF000001E000000DCF000004E00000D0
:103C800015CF000040E0000023CF000008E0000056
:103C90002BCF000080E0000039CF000052F0000080
:103CA00040CF000051F0000049CF000050F000006C
:103CB00052CF00004FF000005CCF000028F0000061
:103CC00066CF00002CF0000070CF000029F000004B
:103CD00078CF00002AF0000086CF00002BF0000013
:103CE0008ECF000039F000009CCF00003AF00000B9
:103CF000A3CF00003BF00000AACF00003CF0000082
:103D0000B1CF00003DF00000B8CF00003EF0000051
:103D1000BFCF00003FF00000C6CF000040F0000021
:103D2000CDCF000041F00000D4CF000042F00000F1
:103D3000DBCF000043F00000E3CF000044F00000C0
:103D4000EBCF000045F00000F3CF000068F000006A
:103D5000FBCF000069F0000003D000006AF0000013
:103D60000BD000006BF0000013D000006CF00000DE
:103D70001BD000006DF0000023D000006EF00000AA
:103D80002BD000006FF0000033D0000070F0000076
:103D90003BD0000071F0000043D0000072F0000042
:103DA0004BD0000073F0000053D000002900D4482D
:103DB000FFF784FDD349200008F0B3FC002803D1AD
:103DC0002900D148FFF77AFDD049200008F0A9FC6E
:103DD000002803D12900CE48FFF770FDCD4920000F
:103DE00008F09FFC002803D12900CB48FFF766FDAF
:103DF000CA49200008F095FC002803D12900C848D2
:103E0000FFF75CFDC749200008F08BFC002803D1B8
:103E10002900C548FFF752FDC449200008F081FC85
:103E2000002803D12900C248FFF748FDC1492000FE
:103E300008F077FC002803D12900BF48FFF73EFDBA
:103E4000BE49200008F06DFC002803D12900BC48C1
:103E5000FFF734FDBB49200008F063FC002803D1C4
:103E60002900B948FFF72AFDB849200008F059FC9D
:103E7000002803D12900B648FFF720FDB5492000EE
:103E800008F04FFC002803D12900B348FFF716FDC6
:103E9000B249200008F045FC002803D12900B048B1
:103EA000FFF70CFDAF49200008F03BFC002803D1D0
:103EB0002900AD48FFF702FDAC49200008F031FCB5
:103EC000002803D12900AA48FFF7F8FCA9492000DF
:103ED00008F027FC002803D12900A748FFF7EEFCD3
:103EE000A649200008F01DFC002803D12900A448A1
:103EF000FFF7E4FCA349200008F013FC002803D1DD
:103F00002900A148FFF7DAFCA049200008F009FCCD
:103F1000002803D129009E48FFF7D0FC9D492000CE
:103F200008F0FFFB002803D129009B48FFF7C6FCDF
:103F30009A49200008F0F5FB002803D12900984891
:103F4000FFF7BCFC9749200008F0EBFB002803D1E9
:103F500029009548FFF7B2FC9449200008F0E1FBE6
:103F6000002803D129009248FFF7A8FC91492000BE
:103F700008F0D7FB002803D129008F48FFF79EFCEB
:103F80008E49200008F0CDFB002803D129008C4881
:103F9000FFF794FC8B49200008F0C3FB002803D1F5
:103FA00029008948FFF78AFC8849200008F0B9FBFE
:103FB000002803D129008648FFF780FC85492000AE
:103FC00008F0AFFB002803D129008348FFF776FCF7
:103FD0008249200008F0A5FB002803D12900804871
:103FE000FFF76CFC7F49200008F09BFB002803D101
:103FF00029007D48FFF762FC7C49200008F091FB16
:10400000002803D129007A48FFF758FC794920009D
:1040100008F087FB002803D129007748FFF74EFC02
:104020007649200008F07DFB002803D12900744860
:10403000FFF744FC7349200008F073FB002803D10C
:1040400029007148FFF73AFC7049200008F069FB2D
:10405000002803D129006E48FFF730FC6D4920008D
:1040600008F05FFB002803D129006B48FFF726FC0E
:104070006A49200008F055FB002803D12900684850
:10408000FFF71CFC6749200008F04BFB002803D118
:1040900029006548FFF712FC6449200008F041FB45
:1040A000002803D129006248FFF708FC614920007D
:1040B00008F037FB002803D129005F48FFF7FEFB1B
:1040C0005E49200008F02DFB002803D129005C4840
:1040D000FFF7F4FB5B49200008F023FB002803D125
:1040E00029005948FFF7EAFB5849200008F019FB5E
:1040F000002800D0AEE029005548FFF7DFFBA9E01B
:1041000049F000005ED000004AF0000067D00000D7
:104110004BF0000073D000004CF000007ED0000097
:104120004DF0000086D000004EF0000094D000005A
:1041300004F000009AD0000005F00000A0D00000BC
:1041400006F00000A6D0000007F00000ACD0000090
:1041500008F00000B2D0000009F00000B8D0000064
:104160000AF00000BED000000BF00000C4D0000038
:104170000CF00000CAD000000DF00000D0D000000C
:104180000EF00000D6D000000FF00000DCD00000E0
:1041900010F00000E2D0000011F00000E8D00000B4
:1041A00012F00000EED0000013F00000F4D0000088
:1041B00014F00000FAD0000015F0000000D100005B
:1041C00016F0000006D1000017F000000CD100002E
:1041D00018F0000012D1000019F0000018D1000002
:1041E0001AF000001ED100001BF0000024D10000D6
:1041F0001CF000002AD100001DF0000030D10000AA
:104200001EF0000036D100001FF000003CD100007D
:1042100020F0000042D1000021F0000048D1000051
:1042200022F000004ED1000023F0000054D1000025
:1042300024F000005AD1000025F0000060D10000F9
:1042400026F0000066D1000027F000006CD10000CD
:1042500048F000009E49200008F063FA002803D1CE
:1042600029009C48FFF72AFB9B49200008F059FAD7
:10427000002803D129009948FFF720FB9849200026
:1042800008F04FFA002803D129009648FFF716FBE3
:104290009549200008F045FA002803D129009348E9
:1042A000FFF70CFB9249200008F03BFA002803D1ED
:1042B00029009048FFF702FB8F49200008F031FAEF
:1042C000002803D129008D48FFF7F8FA8C49200017
:1042D00008F027FA002803D129008A48FFF7EEFAF0
:1042E0008949200008F01DFA002803D129008748D9
:1042F000FFF7E4FA8649200008F013FA002803D1FA
:1043000029008448FFF7DAFA8349200008F009FA07
:10431000002803D129008148FFF7D0FA8049200006
:1043200008F0FFF9002803D129007E48FFF7C6FAFC
:104330007D49200008F0F5F9002803D129007B48C9
:10434000FFF7BCFA7A49200008F0EBF9002803D106
:1043500029007848FFF7B2FA7749200008F0E1F920
:10436000002803D129007548FFF7A8FA74492000F6
:1043700008F0D7F9002803D129007248FFF79EFA08
:104380007149200008F0CDF9002803D129006F48B9
:10439000FFF794FA6E49200008F0C3F9002803D112
:1043A00029006C48FFF78AFA6B49200008F0B9F938
:1043B000002803D129006948FFF780FA68492000E6
:1043C00008F0AFF9002803D129006648FFF776FA14
:1043D0006549200008F0A5F9002803D129006348A9
:1043E000FFF76CFA6249200008F09BF9002803D11E
:1043F00029006048FFF762FA5F49200008F091F950
:10440000002803D129005D48FFF758FA5C492000D5
:1044100008F087F9002803D129005A48FFF74EFA1F
:104420005949200008F07DF9002803D12900574898
:10443000FFF744FA5649200008F073F9002803D129
:1044400029005448FFF73AFA5349200008F069F967
:10445000002803D129005148FFF730FA50492000C5
:1044600008F05FF9002803D129004E48FFF726FA2B
:104470004D49200008F055F9002803D129004B4888
:10448000FFF71CFA4A49200008F04BF9002803D135
:1044900029004848FFF712FA4749200008F041F97F
:1044A000002803D129004548FFF708FA44492000B5
:1044B00008F037F9002803D129004248FFF7FEF938
:1044C00041490020FFF731FA300008F037F870BD9D
:1044D00076D1000047F0000086D1000053F00000C4
:1044E00093D1000046F00000A3D1000033F000009B
:1044F000B1D1000036F00000BBD1000037F0000061
:10450000C6D100002DF00000D0D100002EF0000038
:10451000DAD1000038F00000E4D1000031F00000F2
:10452000F2D100002FF0000001D2000030F00000B6
:1045300011D2000034F000001BD2000035F0000062
:1045400025D2000065F000002ED2000054F00000DB
:104550003BD2000055F000004AD2000056F00000A7
:1045600057D2000057F0000063D2000058F000005E
:1045700070D2000059F0000079D200005AF000001B
:1045800082D200005BF000008BD200005CF00000E3
:1045900094D200005DF000009DD200005EF00000AB
:1045A000A6D200005FF00000AFD2000060F0000073
:1045B000B8D2000061F00000C1D2000062F000003B
:1045C000CAD2000063F0000096C8000010B50400D5
:1045D0000021FFF78FF902212000FFF78BF910BDB2
:1045E00010B50121FFF786F910BD10B50221FFF7C4
:1045F00081F910BD10B50321FFF77CF910BD10B58E
:1046000001F0F4FB10BDFFFFF0B5C24B89B01B6891
:10461000C14D0793079CC14B01901C602B6817008C
:10462000E01A029106F06AF8BD4BBE4918602C6092
:1046300005F096FB07F056FEBB4BBC4A186059606C
:104640001368BB4EBB4202DA0123337005E0002140
:104650003170BB4201DD012300E00023B549176042
:104660000B70B54B1A78039300239A4200D0C833DD
:10467000B24C2078062800D9D0E004F0C3FF04191A
:104680002A6777CFBF00039B5B8A9F4205DD01232A
:10469000002105202370FCF7CBFA039B9B8A9F42E5
:1046A00000DBBBE0032000212070FCF7C1FAB5E07D
:1046B000039BDA89A24B974202DA1A68013200E0C2
:1046C00000221A601B68132B01DC00F0EDFB0223B3
:1046D00092E002995A428A4208DD00210620FCF746
:1046E000A7FA0F20FCF7A2FD0F204BE001998A42A8
:1046F00008DD00210620FCF79BFA1120FCF796FD4F
:1047000011203FE0019A934208DA00210620FCF7CD
:104710008FFA1220FCF78AFD122033E0029A9342AE
:1047200008DA00210620FCF783FA1020FCF77EFD52
:10473000102027E0824A13680133C82B63DD002371
:104740000A201360FCF772FD0A2052E0039B9A894D
:104750007B4B974202DD1A68013200E000221A60AA
:104760001B68132B00DC9FE3042345E002995A42A7
:1047700091420FDA00210420FCF75AFA0B20FCF7D3
:1047800055FD0B20FCF764FD0623002223706C4BC3
:104790001A6043E00199914208DA00210420FCF7F5
:1047A00047FA0D20FCF742FD0D20EBE7019A9342FA
:1047B00008DA00210420FCF73BFA0E20FCF736FD56
:1047C0000E20DFE7029A934208DA00210420FCF76A
:1047D0002FFA0C20FCF72AFD0C20D3E7584A136867
:1047E0000133C82B0FDD002308201360FCF71EFDEA
:1047F0000820FCF72DFD062323700FE0504A1368B4
:104800000133962B01DC13604EE300251560257003
:10481000FCF7C4FD4B4B1D704B4B1D7023780024DF
:10482000A34200D040E3494D285D01F01FFC414206
:1048300041412000C9B20134FCF77EFD032CF2D1C6
:10484000287801F013FC424C051E0ED1C8222368C3
:10485000920001332360934209D101000A20FCF742
:10486000E7F9FCF72BFC256001E000232360354DC0
:104870002C78012C10D03049002C02D0022C22D0F0
:1048800032E0CB899F422FDD21000820FCF7D0F9D0
:1048900001232B702F4B26E032782E4B002A0CD1AF
:1048A0001A78511C19700F2A1ED9022209202A7069
:1048B00008321A70FCF7BAFC16E01A78002A13D0F6
:1048C000013A1A7010E0234B1A78002A01D0013AFD
:1048D0001A70CA89974207DA1C78002C04D1092083
:1048E000FCF7B6FC174B1C70174E134C3578012D96
:1048F00034D0002D02D0022D48D058E0A3899F4229
:1049000055DA29000720FCF793F901233370124B85
:104910004CE0C046900F0020140F0020600F0020D4
:10492000580F002020BCBE4C380F00208C02002005
:104930004B0F00205C0F002040020020490F002098
:104940002C0F0020400F0020300F002072020020AA
:10495000100F0020480F0020540F0020D54B1A786C
:10496000D54B002A0CD11A78511C19700F2A1ED968
:1049700002220720327008321A70FCF757FC16E04A
:104980001A78002A13D0013A1A7010E0CA4B1A782C
:10499000002A01D0013A1A70A289974207DD1D78DA
:1049A000002D04D10720FCF753FCC44B1D700020E0
:1049B000C34B1856002804D1C24B1B785BB2002BA6
:1049C0000AD0C14A1378591C11709B0704D10021E9
:1049D000BC4B5956FEF720FC2678012E00D045E14D
:1049E000208905F043FEB94905F0BAF9B84B0390A8
:1049F0001E685F68002200233000390004F09CFF2D
:104A0000B44C002807D00022B34B1A600022B34BED
:104A1000226063609EE0226863683000390004F021
:104A2000A5FF002801D026606760A022A94B1206CE
:104A30001C685D68AA4B2000290006F0EDFD02000D
:104A40000B003000390004F091FF002810D0A24C78
:104A5000A4492568281C04F0AFFF00281AD0A24BF7
:104A6000588905F003FE291C05F004F8206011E0C8
:104A700000229A4B2000290004F078FF002809D07A
:104A800080229A4B12062000290006F0C5FD914BAA
:104A900018605960C0228F4BD2051C685D68944B2A
:104AA0002000290006F0B8FD02000B00300039009C
:104AB00004F048FF002806D0874B8E49186805F09F
:104AC00019FB854B186080228B4BD20520002900F2
:104AD00006F0A2FD02000B003000390004F032FFA6
:104AE0007D4C002804D02068844905F003FB206039
:104AF000834D019B2A68981A07F0B2FB814E029BF6
:104B000032680490981A4F0007F0AAFB7F0849000A
:104B100002004B080498390005F02EFE00227A4B63
:104B200006F056F902000B000020784906F0EEFF6F
:104B300004900591206807F0D5FB0B000200049853
:104B4000059906F069FD07F021FC019B20602B60B0
:104B5000029B3360604B1D686D4B1E685F68624B43
:104B6000587805F0CBFD041C019805F07FFD011C71
:104B7000201C05F0BFFA291C05F0BCFA07F0B2FBB7
:104B800032003B0006F048FD07F000FC564B041CC9
:104B9000987805F0B3FD0190029805F067FD011CBF
:104BA000019805F0A7FA291C05F0A4FA07F09AFB72
:104BB00032003B0006F030FD07F0E8FB211C051C2D
:104BC000201C05F097FA291C061C281C05F092FAF7
:104BD000011C301C04F04EFF07F084FB03F032F898
:104BE00007F0D4FB061C011C039804F0E5FE002826
:104BF0000ED0311C039805F0B3F8011C061C201CD4
:104C000005F078FA311C041C281C05F073FA051C09
:104C1000404E201C316804F02DFF3F4C071C2168DA
:104C20003060281C04F026FF051C2060381C05F0AD
:104C3000FBFC0700281C05F0F7FC3B0005000343C4
:104C400003D001003800FEF7E7FA380005F00EFD4A
:104C5000011C306805F062FB3060280005F006FD9D
:104C6000011C206805F05AFB20601DE1002E18D1C0
:104C7000029B0320D90FFCF75FFB029B0420D9178E
:104C8000C91AC90FFCF758FB019B0520D90FFCF787
:104C900053FB019B0620D917C91AC90FFCF74CFB1F
:104CA00002E1029B1C4D002B38D18823DB052B60D1
:104CB00047E0C0465C0F0020540F0020300F00205A
:104CC000280F00204C0F00204A0F00200000204138
:104CD00030060020200F0020340F00200000344058
:104CE0009999E93F00401C474002002014AEEF3F75
:104CF0006666E63F77BE7F3F3333D33FC9767E3F5C
:104D0000180F0020500F002000409F400000F03F8F
:104D1000380F0020640F0020440F0020A07805F019
:104D2000A5FC041C029805F0A1FC011C201C05F048
:104D3000E1F95E4905F014F88821C90504F09AFEEE
:104D40002860019B5A4C002B03D18823DB0523608C
:104D500013E0039B587805F089FC071C019805F0C7
:104D600085FC011C381C05F0C5F9504904F0F8FF1A
:104D70008821C90504F07EFE206000272068391CC8
:104D800004F01AFE002800D027604A4F2068391C22
:104D900004F026FE002800D0276000272868391C70
:104DA00004F00AFE002800D02F60424F2868391C0A
:104DB00004F016FE002800D02F60032E2AD0042E07
:104DC00050D0022E70D1206804F03CFE3A4B3B4A92
:104DD00059683B4E0A401F00B04200D93000000124
:104DE000384C104358602378002B01D102F072F840
:104DF000286804F027FE344B7A681340B04200D98B
:104E00002F488003184378602378002B4CD102F0A0
:104E100061F849E0206804F015FE294FB84200D936
:104E20003800254C02066368264E1B021B0A1343FA
:104E300063600323A268000A9A4333781043A0609A
:104E4000002B01D102F046F8286804F0FBFD1F4B4F
:104E5000A2681340B84200D9194880001843A060E6
:104E60003378D2E7206804F0EDFD134B184A9968B7
:104E7000134E0A401F00B04200D930000003114C0D
:104E8000104398602378002B01D102F023F82868A2
:104E900004F0D8FDBB689B029B0AB04200D90848C9
:104EA00080051843B860AFE709B0F0BD0000484284
:104EB000640F002000C07F447C1200200FC0FFFF61
:104EC000FF03000025110020FF3F00FF03F0FFFF5C
:104ED000FF0FC0FF10B500F089FF10BD30B5021EF6
:104EE00014D003780020834210D003000A241078E5
:104EF000002807D03038C5B2092D06D863430132E7
:104F0000C318F4E70B80012000E0002030BD73B52A
:104F10000C00002801D1002010E0037801252D2B82
:104F200001D14019023D6B469E1D3100FFF7D6FFAF
:104F30000028F0D0012033886B43238076BD002801
:104F40000AD00378002B07D01A00613A192A01D839
:104F5000203B03700130F4E77047FFFFF0B589B0E4
:104F600002AB9E1C00230100040003A8338007F05D
:104F7000E2FB344D2B78012B08D1334F33493800F5
:104F8000FBF776FA21003800FBF7A8FE304F20002F
:104F9000390007F0DFFB0197041E47D02B78012B67
:104FA00008D1294D2B492800FBF762FA210028007F
:104FB000FBF794FE00252000FFF7C1FF264FF91EE6
:104FC000200007F0AEFB00281ED13B78022B0BD04F
:104FD000032B13D0012B14D1019907F0BBFB310037
:104FE0000400FFF77BFF06E0019907F0B3FB3100F7
:104FF0000400FFF78CFF002806D000E003346BB2FA
:1050000004E06BB2040001E001235B4201354F2D47
:105010000AD004375A1CD2D00022B15ED8B2220086
:105020000023FCF77BFD0AE05A1CF5D1064C0B4926
:105030002000FBF753FE03A92000FBF74FFE09B049
:10504000F0BDC0460406002014030020D8D20000A2
:1050500096C80000E6D2000011CB0000EED200009E
:1050600070B5254A03001178002902D0FCF700FB37
:1050700041E0224C2078032837D804F0C3FA02110B
:105080001724202118008843412801D1012331E051
:10509000402B30D1237801332370012313702AE091
:1050A00020229343542B24D1523B23E00D2B01D0DB
:1050B0000A2B01D1124919E0202B16D10022114BE5
:1050C0001A70032316E00F4A0F480D2B01D00A2B4C
:1050D00006D100251378C554FFF740FF25700AE07C
:1050E00011784C1C1470435405E008490848FBF73C
:1050F000F5FD0023237070BD450C0020680F0020D3
:10510000F2D20000690F002054060020F0D2000007
:105110001403002010B500F069FE10BD0020704798
:105120000300383039331B780078181A70470200B2
:1051300001003832393113780978994204D9591C61
:105140001170C318187E01E001204042704703002F
:105150000200383339321B7812789A4202D9C318C8
:10516000187E01E001204042704770470300002292
:1051700010B55E331B8893420DD004005D34237854
:10518000202B02D90123037105E05A1C2270012251
:10519000C3183B331970100010BD70B51400020025
:1051A000030000205E321288824212D01D002122AC
:1051B0005D352878121A944202D901241C7114001A
:1051C0003B331818220007F0C3F920002B781B1975
:1051D0002B7070BD43691A685B68126813420FD068
:1051E000084A0369914201D81F2205E0064A91420C
:1051F00001D8122200E002225A70022203699A7139
:105200007047C0467F1A06003F420F000200F8B503
:1052100000230400383213705370243293701370DB
:10522000537043668366D37040696427016842689F
:105230000D682A430A6022691549937023000C22E5
:10524000613360691E788619337A5343CB185D68E1
:10525000737BE0261B02F60033403B432B602300A8
:1052600062331B78C018837C5A43C37D89181B02A4
:105270004A681E403E43166006492000FFF7AAFF19
:10528000202322695371802223699A70F8BDC04699
:10529000C8D30000A0860100102270B50369040085
:1052A000DD78EDB2154203D140222A4004D12BE033
:1052B000DA706B06F8D476E004231D403A4B1BD01D
:1052C000250000225D352A701A70636E934200D06B
:1052D000984723002A783B33002A02D10121297004
:1052E0001A70D02221698A701B78226913712300F9
:1052F00001225C331A7053E001221A702300393303
:105300001D702269C02330E0602120698379DBB2FF
:10531000194060290CD140398B438371A36E002B57
:1053200006D0210038310A702200393210789847AF
:105330001023226991780B401BD001231D4013D10B
:10534000210020005C315D300B780078984206D94E
:10535000581CE31808703B331B78137100E015717B
:10536000D023226993701BE0C023937023691B79BB
:1053700016E0210060310B70202193790B4321004E
:105380009371236939311A790B78D2B21F2B07D860
:1053900005480078002803D0581CE31808701A76D6
:1053A00002222369DA7070BD6A0F0020F0B5002177
:1053B0000400334B85B01B680293029B01932020AD
:1053C0002269D378034257D02D4B01981B68039371
:1053D000039B1B1A0F2BF2D9002945D125006135FB
:1053E00062692B780531D318187A00F051FE2B78BA
:1053F00062690121D3189F7C0926380000F048FE1D
:105400000021380000F012FE5023013BFDD10121A4
:10541000380000F00BFE5023013BFDD1013E002E71
:10542000EED10C2166692B78164DF3181A7A642098
:105430004A43AA185768E0225B7BD2001B02134044
:1054400003433B60230062331B78F618B37C594357
:105450006D18F17D6B6809020A4010431860A023A3
:10546000013BFDD10121AAE7102BA8D000209070AC
:10547000802223699A7000E0012005B0F0BDC0468B
:10548000900F0020C8D3000012230269F0B5D3703A
:10549000202287B0036901919D780400154002D055
:1054A00094329A700BE0FFF781FF03000420002B79
:1054B00062D023005F331D70B023226993702026D1
:1054C0002E4B20691A680292029DC278324048D061
:1054D000002202252026009222005D3212780099D7
:1054E0008A4233D962183B32127821690A711A68EC
:1054F00021690592059A9446CA78D2B217002F40C6
:105500000AD1324208D060461A680492049A121AEC
:10551000052AF1D98F702BE01020CD702169CA784F
:10552000D2B2024201D1324203D1802304208B70D7
:105530000DE0012100980A4204D043425841032360
:10554000181A07E00130C2B20092C5E70020019BA3
:10555000002B02D080232269937000235E342370D5
:105560000AE0196803910399491B0429ADD9827097
:105570008022042023699A7007B0F0BD900F0020AC
:10558000F0B516008BB0020001930023383213707F
:1055900001321370009202691233D3702022036922
:1055A00005009C780F00144002D094329A700AE0F3
:1055B000FFF7FCFE002800D1B4E02B005F331C7025
:1055C000B0232A6993702022944658490B680293AD
:1055D00002982B696246DC7814400A00002C06D140
:1055E0000A680392039A121A042AF3D912E00121DD
:1055F0007F000F43FFB21F710227136804930498C2
:105600002B69DC783C4009D1116805910599091A8C
:105610000529F6D99C702B69802211E00222DA70EC
:105620002B690F32DC78144003D06F329A7000245B
:1056300078E0002E06D101998022002900D1203285
:105640009A706FE0A822012E00D0A0229A70022248
:105650002B6994461B79002334492A690868012E76
:1056600028D00690069F6446D078204006D10C686A
:105670000794079CE41B052CF5D927E00221102094
:10568000D1702969CA78D2B202424AD100180242C6
:1056900047D0013EF6B2012E01D1A8228A702A69B4
:1056A0001F2B05D81279591CEB181A76CBB2D3E709
:1056B0001279D1E702270890089ED078384007D1A8
:1056C0000C680994099CA41B052CF6D9907023E062
:1056D00002211020D1702969CA78D2B2024209D0C1
:1056E000C8705022013AFDD1296908388A7882436E
:1056F0008A7016E01C00920614D5B0228A702A69BE
:105700001F2B05D81279591CEB181A76CBB200E082
:105710001279019A002A02D080212A699170009A98
:1057200013701C0020000BB0F0BDC046900F00208D
:1057300010B50248FFF7B0FD10BDC0469002002032
:105740007047FFFF036870B5002B04D000249C60F5
:105750000134DC6018E080251D4C2D0423682B43A8
:105760002360C04601241B4B1C601B4B1B4C036079
:1057700003689D68002D07D010330360A342F7D95A
:1057800000230360180022E00468154B2260032206
:10579000E3181B11134D9E00A2607151124A01794A
:1057A0001248D15411785378114A994205D80368A8
:1057B00009041A400A43026004E001681B040A401D
:1057C00013430360802201200A4BD2031A6070BD8C
:1057D0003C80044000700340007103401F7103408F
:1057E000008FFCBF00030020FC02002014E400E056
:1057F000FFFF00FF00E100E0026830B5002A1ED084
:105800000F4B1049D3181B110F4D9C006550002100
:1058100091600E4AFF31D154117853780C4C0D4AE7
:10582000994205D8236809041A400A43226004E01B
:1058300021681B040A40134323600023036030BD2A
:10584000008FFCBF0003002041570000FC02002035
:1058500014E400E0FFFF00FF094B10B51A68002AAE
:1058600004D001221A60074B1B689847064B1A6840
:10587000002A04D001221A60024B5B68984710BDD1
:105880000C710340000300201C71034037B5022552
:1058900004002A00054901A806F05AFE23682A00E0
:1058A0005B6801A9200098473EBDC0463CD300007C
:1058B000F0B50D000F2185B09446134A6944ACB28F
:1058C0002F0C574301345443BBB2260C1C19A419A6
:1058D0003B0C240CDB19E3180A245B085C432D1BEA
:1058E000303501390D701D1EE9D16346002B02D001
:1058F0002D2301390B70CA4304ABD21803685B68CF
:10590000984705B0F0BDC04633330000002210B503
:10591000914201DA49422D32FFF7CAFF10BD37B577
:105920000F2502AB0A002A401400013B3734092A34
:1059300001D8303214001C700909F3D1016802AAA1
:105940004C68D21A1900A0473EBD10B5012488B09A
:1059500008AB0A002240013B30321A704908F8D1E6
:10596000016808AA4C68D21A1900A04708B010BDF7
:10597000F0B5152405000F00160087B06C44310007
:10598000380003F053FE01007143791AC9B20B00CD
:105990003733013CDBB2092901D83031CBB2237057
:1059A000071EECD106AB1A1B2B68033A5B6821007B
:1059B0002800984707B0F0BD214A70B5136815005C
:1059C00020482149002B09D000680978013B01716A
:1059D000591D01D103235B42136030E003680A784C
:1059E0001A4C1A702368002B23D0194B00211E6813
:1059F000301C03F0EBFF002816D11649301C03F0D1
:105A0000EFFF002810D11449301C04F073FBFC2177
:105A1000890504F083FC04F015F80200232803D95B
:105A20000E490F48FFF78EFE23682B60002323608A
:105A300005E00B48FFF7E0FEFF220A4B1A7070BD2D
:105A4000800F0020740F00207C0F0020780F0020B2
:105A5000840F0020ABAA2A4D0000C041B9590000B4
:105A60006C0F002008030020F8B506000D001A286E
:105A70007AD8002A08D04A43FA211000890003F09E
:105A8000D5FD4400013401E003246442002D00D11F
:105A90000135280004F032FE011C344804F060F99E
:105AA0000C237343051C3248C318596872B6314F32
:105AB00002003B789E4216D12F4E281C316803F01D
:105AC00075FF2E4B002806D001201A6810400138BF
:105AD00004191C6047E02A4A1968146001220A4030
