:1000000000180020C1000000554400001944000001
:10001000194400001944000019440000194400006C
:100020001944000019440000194400005544000020
:100030005544000019440000556000005D60000058
:10004000554400005544000055440000554400004C
:10005000554400005544000055440000554400003C
:10006000AD410000554400005544000055440000D7
:1000700055440000554400006D4E000055440000FA
:10008000554400005544000055440000554400000C
:100090005544000055440000B9620000554400007A
:1000A000D95000005544000055440000554400005C
:1000B00055440000554400005544000055440000DC
:1000C000F8B504F0CBF90821474A484B1A60484A72
:1000D000484B1A60484A494B1A60494B1A780A4201
:1000E00002D01A780A431A702A22464B46481A70E0
:1000F00000234649464C1A188A4203D2E558043375
:100100001560F8E70021434B434A934201D202C3F2
:10011000FBE70023414A424958589446985004331B
:10012000C02BF9D100210326FF2580248A083D4BEE
:100130009200D2180B002F003340DB009F40106864
:100140000131B84307002000984003003B4313608F
:100150002029EBD16246344B1A608A22334B1A7045
:10016000334B663A5A707C321A709E3A9979114232
:10017000FCD0102299791142FCD10C209A792C499B
:100180000240082AFAD1053A0A713D324A71203AF2
:1001900099791142FCD0402299791142FCD025492D
:1001A000254A11602021224A117014399A790A4097
:1001B0000C2AFBD1214A224B1A60224A224B1A6098
:1001C0000022224B1A60224B07321A60214A224B2E
:1001D0001A6062B604F058FB08F0D0FC04F044F951
:1001E00006F0D2F9FEE7C046300004F03480044047
:1001F000823F0000388004400100000F3C80044032
:1002000002D0074000E0074030020020EC0500204B
:100210008C9F0000EC0500207410002000F9FF1FE7
:100220000000000000E400E008ED00E0005006409F
:10023000004006400000011044800440C000050555
:10024000048004407FBB000014E000E018E000E000
:1002500010E000E00000202020ED00E0FFFFFFFFA5
:10026000FFFFFFFFFFFFFFFFFFFFFFFFFFFFFFFF9E
:10027000FFFFFFFFFFFFFFFFFFFFFFFFFFFFFFFF8E
:10028000FFFFFFFFFFFFFFFFFFFFFFFFFFFFFFFF7E
:10029000FFFFFFFFFFFFFFFFFFFFFFFFFFFFFFFF6E
:1002A000FFFFFFFFFFFFFFFFFFFFFFFFFFFFFFFF5E
:1002B000FFFFFFFFFFFFFFFFFFFFFFFFFFFFFFFF4E
:1002C000FFFFFFFFFFFFFFFFFFFFFFFFFFFFFFFF3E
:1002D000FFFFFFFFFFFFFFFFFFFFFFFFFFFFFFFF2E
:1002E000FFFFFFFFFFFFFFFFFFFFFFFFFFFFFFFF1E
:1002F000FFFFFFFFFFFFFFFFFFFFFFFFFFFFFFFF0E
:10030000FFFFFFFFFFFFFFFFFFFFFFFFFFFFFFFFFD
:10031000FFFFFFFFFFFFFFFFFFFFFFFFFFFFFFFFED
:10032000FFFFFFFFFFFFFFFFFFFFFFFFFFFFFFFFDD
:10033000FFFFFFFFFFFFFFFFFFFFFFFFFFFFFFFFCD
:10034000FFFFFFFFFFFFFFFFFFFFFFFFFFFFFFFFBD
:10035000FFFFFFFFFFFFFFFFFFFFFFFFFFFFFFFFAD
:10036000FFFFFFFFFFFFFFFFFFFFFFFFFFFFFFFF9D
:10037000FFFFFFFFFFFFFFFFFFFFFFFFFFFFFFFF8D
:10038000FFFFFFFFFFFFFFFFFFFFFFFFFFFFFFFF7D
:10039000FFFFFFFFFFFFFFFFFFFFFFFFFFFFFFFF6D
:1003A000FFFFFFFFFFFFFFFFFFFFFFFFFFFFFFFF5D
:1003B000FFFFFFFFFFFFFFFFFFFFFFFFFFFFFFFF4D
:1003C000FFFFFFFFFFFFFFFFFFFFFFFFFFFFFFFF3D
:1003D000FFFFFFFFFFFFFFFFFFFFFFFFFFFFFFFF2D
:1003E000FFFFFFFFFFFFFFFFFFFFFFFFFFFFFFFF1D
:1003F000FFFFFFFFFFFFFFFFFFFFFFFFFFFFFFFF0D
:10040000FFFFFFFFFFFFFFFFFFFFFFFFDEF9FFFF23
:1004100010B5064C2378002B07D1054B002B02D0DA
:10042000044800E000BF0123237010BDEC0500204C
:10043000000000008C9F0000084B10B5002B03D07B
:100440000749084800E000BF07480368002B00D1B7
:1004500010BD064B002BFBD09847F9E700000000C9
:10046000F00500208C9F0000EC050020000000003B
:1004700070B5040008000D0008F0B5FC2368020008
:1004800029005B682000984770BD10B5FFF7F0FFAA
:1004900010BD10B505F06AFF10BDFFFFF7B53A4B70
:1004A0001B78002B6FD0394B1A780193511C1970AF
:1004B0000A2A68D9364C37492000FFF7E6FF364B49
:1004C00020001968FFF7E5FF344D20002900FFF7F1
:1004D000DCFF334B20001968FFF7DBFF2900200009
:1004E000FFF7D3FF2F4B20001968FFF7D2FF290039
:1004F0002000FFF7CAFF2C4B20001968FFF7C9FF47
:1005000029002000FFF7C1FF284B20001968FFF7E2
:10051000C0FF29002000FFF7B8FF254B2000196815
:10052000FFF7B7FF29002000FFF7AFFF214B2000A6
:100530001968FFF7AEFF29002000FFF7A6FF00268D
:1005400001271D4B1D491A683B00B3401A4200D1D8
:100550001B4920000136FFF798FF132EF1D1290027
:100560002000FFF792FF174B00221978200005F0BA
:10057000CFFE15492000FFF77BFF200005F0B6FEF7
:100580000023019A1370F7BD180600200A06002008
:1005900030030020DE8E000014060020E68E0000EE
:1005A000280600202C0600201C06002044060020FF
:1005B000900700205806002060060020F8950000F3
:1005C000D28F0000400600205D8F0000F7B5404B41
:1005D000404C18680193002803DA2368002B05DCDF
:1005E00006E0002804D02368002B01DA00232360F2
:1005F000C317C2185A402368D9175B184B409A4258
:1006000000DD2060344A537E16002268934200DAEF
:10061000236022685B42934200DD23602F4B1D68FC
:100620002F4B002D03DA1A68002A05DC06E0002DA6
:1006300004D01A68002A01DA00221A60EA17A91801
:1006400051401A68D717D2197A40914200DD1D60D7
:10065000F27D19688A4200DA1A60196852428A42A9
:1006600000DD1A6008F0F0F9071C307E08F034FA5B
:100670001C4907F063FD0090206808F0E5F9011CB3
:10068000009807F025FF011C381C08F035F808F029
:10069000B9F9019B1860280008F0D6F9041CB07D58
:1006A00008F01AFA0F4907F049FD0D4B051C1868B0
:1006B00008F0CAF9011C281C07F00AFF011C201CC5
:1006C00008F01AF808F09EF9044B1860F7BDC04610
:1006D000900700202006002040020020580600203D
:1006E0003C06002000007A43F7B5544B544C187870
:1006F0001900544E00281CD10423CA5E23685542B9
:100700009D4201DDD31802E09A4202DA9B1A23606F
:1007100000E020600623CA5E33685142994201DD41
:10072000D31804E09A4201DA9B1A00E000233360F8
:1007300083E02068336840435B43C01808F084F9C5
:1007400002F0F5FC404D00212860071C07F01CFB5F
:100750000023019300283CD1206808F075F9391C6A
:1007600007F0ECFC0190306808F06EF9391C07F0D6
:10077000E5FC019906F09AF8344B2F681860206860
:1007800008F062F94000391C400807F0D7FC2B4BF9
:1007900001900420185E08F057F9011C019807F039
:1007A00097FE0190306808F04FF94000391C40086E
:1007B00007F0C4FC214B061C0620185E08F044F923
:1007C000011C301C07F084FE011C019807F040FB5F
:1007D00007E000221D4B1A60184B0420185E08F039
:1007E00033F91B4B2E681860194B301C1F68391CDD
:1007F00007F0D0FA002802D000232B6004E0391C57
:10080000301C07F079FF2860104B1E68301C06F082
:100810000FF8071C301C05F0CDFF2D68011C281CAB
:1008200007F056FE08F0EEF8291C2060381C07F08F
:100830004FFE08F0E7F8034B1860F7BD40020020B8
:1008400090070020580600204C06002024060020B7
:100850005406002010B502F083FB012002F048F896
:10086000042002F045F8022002F042F80023024A78
:100870001370024A137010BD040E0020200E0020D9
:1008800037B500F093FB2C4803F0FEF92B4B002109
:10089000187803F0CBFE2A4D2A49287803F02CFE65
:1008A000294C0121207803F0C1FE2078002103F0BB
:1008B0008BFE2878012103F0B9FE2078002103F097
:1008C00083FE0024214B0221E05C013403F0AEFEE4
:1008D000032CF7D100241E4B0121E05C013403F00E
:1008E000A5FE032CF7D1FFF7B5FF00F0E9FC0023CC
:1008F0001A00184D184859194A8019180433002451
:100900000A604C2BF7D1154B1C8000F0EDFC00F079
:10091000C7FB01F04BFF0121200001F069FE0A2214
:100920000F4B1A700F4B0F321A700F4B1B6801934D
:10093000019A0E4B1A6037BD900200207102002010
:1009400070020020007014473E0200207202002056
:1009500038020020940A0020AC090020F809002089
:100960005C060020500600203C0E002034060020CB
:10097000024B1870024B19707047C0465C0600208D
:100980005006002070B5284B1A78284B1878002A9A
:1009900045D0002103F018FE254A1178002918D10E
:1009A000244D254C2B782078DB0700D5012103F05E
:1009B0000BFE2B786078013300219B0700D40121C6
:1009C00003F002FE2B78A078013300215B0727D4C7
:1009D00025E01A4B1C78002C1ED10126184801393D
:1009E0000078154DC9B2187011702878314209D0BD
:1009F000210003F0E9FD6878210003F0E5FDA87807
:100A000021000DE0310003F0DFFD6878310003F0D4
:100A1000DBFDA878310003E0013C1C7002E00121FD
:100A200003F0D2FD70BDC046860200203E020020C9
:100A30005C060020400600203802002094070020B9
:100A400050060020F8B5164B1E88002E26D0154DF6
:100A50002B88002B02D0012B0BD01FE0124B09205A
:100A60001A88124B198805F0E3FC2B8801332B8080
:100A700014E00F4F0C4B3C8818880E4B01341B8838
:100A8000A4B23C80C018052107F086F8844205DD39
:100A9000034B013E1E8000232B803B80F8BDC046E7
:100AA000480600209C070020420600205206002035
:100AB0003206002008060020F0B50E2085B003F0B5
:100AC00025FC534F3860152003F020FC514C20606A
:100AD000142003F01BFC504D2860172003F016FC77
:100AE0004E4E3060162003F011FC4D4B4D4A1860FD
:100AF000D28B0197B42A0FD0872149008A4215D0A2
:100B00005A2A1CD1226848491A600A60316821605B
:100B100029682860316012E0226829682A60424A08
:100B200021601060326830601A6008E022683E4937
:100B300020600A6029681960336832602B6005F014
:100B400041F9002806DD05F0F5F8384B186002F091
:100B5000C5FFF4E7364B1B78002B37D03549364AB2
:100B60000B6817680293354B02981B68FB18834289
:100B70002CD80B680393039B1360314A1388002B16
:100B80002BD1274A336812689B1A2E4A0021525EE5
:100B90009B1A2D4A13602A6823689B1A2B4A00214E
:100BA000525E9B1A2A4A1360FFF710FDFFF776FC8E
:100BB000FFF79AFD019B1A68254B1968224B1868AC
:100BC00002F0F4FAFFF7DEFEFFF73CFF214B1B7843
:100BD000002B1BD000F0AEFD18E0013B9BB2138050
:100BE000002BE1D10E49326809680E48511A22687B
:100BF0002C6809B2121B12B2418382831148018012
:100C000012490A80144A1360144ACCE705B0F0BDBB
:100C100014060020280600202C0600201C060020B8
:100C20004406002040020020980700200C06002007
:100C3000860200203C0E00203406002034020020F2
:100C40003C020020380600209007002030060020DB
:100C500058060020070B0020200600203C0600203C
:100C6000013810B50A283FD806F0F8FE0B0F2426ED
:100C70000608313429382C00C82200E06422C8213B
:100C800023E0C822C82152002BE0184A1388002B09
:100C90002AD1FA2089B2C8334B43C0001B1814482C
:100CA000013103809620134B11801880124B643859
:100CB000188019E0C82200E06422962105E01E2277
:100CC0000E490EE0FA22AF215200490009E0052248
:100CD0000B4906E0FA210522090102E0FA22E62189
:100CE0001201092005F0A4FB10BDC04648060020F3
:100CF000520600204206002008060020C409000019
:100D00008813000010B503F06FFB10BD70B505002F
:100D100008000C0008F067F82B68020021005B68EF
:100D2000280098470400280005F0E0FA001970BD7B
:100D3000F0B5224D224C2B68224A18182368224E07
:100D4000591821601368317885B0019228601F4AD4
:100D5000994207D111681E4B02911B680299143306
:100D60008B4228D8FF271368FD200393039A184B62
:100D70001A6003F093FF002003F090FF032003F0BC
:100D80008DFF307803F08AFF2868384003F086FF33
:100D90002068384003F082FF002003F07FFF00202E
:100DA00003F07CFF002003F079FF0023019A2B6001
:100DB00023603378136005B0F0BDC046A007002063
:100DC000A4070020B4070020AC0700203C0E002040
:100DD000A807002010B5054A1378184310700022A8
:100DE00011001000FFF7A4FF10BDC046AC070020A3
:100DF00010B5054A137883431370002211001000C8
:100E0000FFF796FF10BDC046AC070020034B1B78D0
:100E10001840431E9841C0B27047C046AC0700203E
:100E200010B5FD2003F03AFF0D4B187803F036FFA4
:100E3000002003F033FF0B4C207803F02FFF607885
:100E400003F02CFFA07803F029FFE07803F026FFE1
:100E5000207903F023FF607903F020FF10BDC04626
:100E6000AD070020AE070020C2B270B50012E02826
:100E700004D10A490B781A430A700CE0F0280AD111
:100E800000230748195C1C000500002902D001332B
:100E90008A42F7D12A55FFF7C3FF70BDAD07002086
:100EA000AE07002010B5C1B202120023E02A04D11F
:100EB0000C4A13788343137010E00B4A5C1CD31860
:100EC0001878884201D02300F7E7991A052903D042
:100ED000597819700133F8E700235371FFF7A0FF29
:100EE00010BDC046AD070020AE070020002310B59E
:100EF000054A137053709370D37013715371034A82
:100F00001370FFF78DFF10BDAE070020AD07002066
:100F1000F7B5002680270190019B9B5D002B25D013
:100F20005AB2002A08DB124AD45C40231C4204D087
:100F30004023104D9C4305E0002400253C4204D092
:100F40000D4DBC432800FFF78FFFF0231B021C430D
:100F50002000FFF789FF2000FFF7A4FF002D02D03B
:100F60002800FFF79FFF0136B6B2D5E7F7BDC046B0
:100F70002C97000002E0000040E00000024B1878CF
:100F8000431E9841C0B270479F0700200120704760
:100F900007B503F029FA034B1B680193019A024B32
:100FA0001A6007BD3C0E0020A8070020962110B54E
:100FB000094C8901200005F071F80123074A08490E
:100FC0001370084A20001370FFF7A0FE06492000A6
:100FD000FFF79CFE10BDC0460C0300209F070020B9
:100FE000E88E00009E070020EC8E0000F8B5134E3E
:100FF0008700BD59281E20D007F0F5FE104A0130A9
:10100000521BF53284B2FF32121B92B2291928000A
:1010100007F0F7FD0023BB51F258954201D2121B95
:10102000F25004334C2BF7D1064B1888001B80B2CA
:101030001880FA235B00181A80B2F8BDAC090020B2
:10104000B8070020F8090020F8B50F000500FFF7E9
:10105000CDFF104B38001C8807F0C5FEF92223187D
:1010600052000020934214D80B4E3900361930003C
:1010700007F0B1FE094BAD003800EE5007F0B3FEAB
:101080000134044B201880B21880FA235B00181A30
:1010900080B2F8BDF8090020B8070020AC09002094
:1010A00070B519231B251226154C16492380A580DF
:1010B0002581A6810320FFF7C7FF2682124904205D
:1010C000FFF7C2FFA68211490520FFF7BDFF268367
:1010D0000F490620FFF7B8FF4223A3833F3BA384B9
:1010E0001D332385A31CDD872584A5852586A5863C
:1010F0002587A587A31D4834DD87258070BDC046A0
:10110000940A0020FC8E0000048F00000E8F000067
:10111000188F000001231A008240084910B50C689E
:1011200022430A608200064881180224095F054CA8
:10113000805C125900F08EFC10BDC0466006002095
:10114000940A0020AC0900200122130083402649A4
:1011500010B50C6880009C430C602449435A362B20
:1011600026D00ED8082B21D004D8062B18D0072B58
:1011700018D037E00F2B2DD0102B33D100221C4B71
:101180002AE0432B0ED004D83A2B27D0422B07D08D
:1011900028E0442B0AD0492B24D101F0B7FE21E0EE
:1011A000012000E0022001F0A3FB1BE00420FAE78D
:1011B00008184388013BDBB21F2B13D89A400D4916
:1011C0000B6893430B600C4B1B78002B0AD104F087
:1011D000F5FA07E00022094B1A7003E0084BC058EB
:1011E00001F097FF10BDC04660060020940A002061
:1011F000200E00204C10002020100020040E0020A3
:10120000AC0900200C4B8000C35A01209A1F022A0F
:1012100010D9303A92B2132A05D80849D1400A00B1
:101220000100914306D0002001220F3B9BB29A425D
:101230004041C0B27047C046940A002011700800B7
:1012400073B505001B48EE00841963788B422BD1DF
:10125000325C062A17D80132D2B23254072A12D190
:10126000A2789A420FD0A370134A012B0DD1AB4044
:10127000116828000B431360FFF74CFF0F4B1B68EE
:101280000193019B6360002411E001242300AB4023
:101290001168280099431160FFF7B4FF002806D0B9
:1012A0002800FFF751FF02E0617000243454200051
:1012B00076BDC046FC090020600600203C0E0020E0
:1012C0000021064A531C9932581E1970597001703A
:1012D000997008339342F7D17047C046FC0900204B
:1012E00010B503F081F810BD024B034A1A80034A7F
:1012F0005A807047E40A00204054000001A4FFFF18
:1013000010B5074C0721200004F086FD20000421C1
:10131000083004F081FDA188024804F07DFD10BD75
:10132000E40A0020288F000070B50425074C07212F
:101330002000A58004F070FD20002900083004F092
:101340006BFDA188024804F067FD70BDE40A00202F
:10135000248F0000002310B5054C07212000A38036
:1013600004F05AFD20000421083004F055FD10BDA2
:10137000E40A002010B5084C0721200004F04CFDC1
:1013800020000421083004F047FD2000A1880C3023
:1013900004F042FD10BDC046E40A00200D4B0E4A89
:1013A0001B6812680D499B1A0D4A9BB213731B12DE
:1013B00053730C4B09681B685B1A9BB293731B1227
:1013C000D373094B1B6813741B1253740623938049
:1013D0007047C0461C060020440600202C06002052
:1013E000E40A0020280600201406002070B50E4DE7
:1013F000287803F009F9444244416878E4B203F0E4
:1014000003F9002801D102231C43A87803F0FCF85B
:10141000002801D104231C43044B00201A78A24267
:1014200001D01C70013070BD720200202C0B002016
:1014300010B5FFF7DBFF034A034B12781A73012242
:101440009A8010BD2C0B0020E40A002073B5464B97
:1014500046491C895A890C819D79D6B28D71050245
:1014600075194D81C1067BD4D2B21979112A2AD0BF
:1014700004D8002A07D0102A38D071E0812A07D07A
:10148000822A16D06CE000296AD1FFF739FF69E0A3
:10149000002965D1364B1B680193019A354B1A60C0
:1014A000354B364A1B78DBB213700122344B1A706D
:1014B00056E0002954D10123324A13702F4A137089
:1014C0002F4B19704CE0022C08D0032C09D0002CB3
:1014D00046D1002944D1FFF727FF43E0FFF75EFF25
:1014E00001E0FFF7A5FFFFF745FF3BE0601E052881
:1014F00036D806F0B3FA0335350F282C02292FD140
:10150000197B214A11805B7B11881B02CB189BB28F
:10151000138025E0012923D11C4C1D7B20780D422E
:1015200000D0002103F050F860780021AB0700D410
:10153000012103F049F8A07800216B0700D40121B4
:1015400003F042F80CE0124802F072FA08E00129B8
:1015500006D11A7B084B1A701B78084ADBB213704D
:10156000FFF7F8FE012076BD080B0020E40A0020FA
:101570003C0E0020300B0020060B002086020020CD
:10158000070B002084020020040B002038020020FA
:101590006406002070B55D4C030020780F2800D948
:1015A000A8E006F05BFA08191E253438425A5E6539
:1015B000697A9A9C9EA0402B01D13F3B9BE0202260
:1015C0009343412B00D0A0E00021514A403B1170D1
:1015D000504A237013708FE0542B00D08AE0523BA6
:1015E00089E000214C4A11704C4A5380032382E069
:1015F0004A4A1B025188CB189BB25380002B04D15E
:101600001021454A13780B431370042373E0434AB7
:10161000938005236FE0414A1B029188CB189BB24F
:1016200093800F2B66D8062365E03C4ADDB29571A6
:101630003B4A3C481178002901D0002309E07F2172
:10164000027801320A40934204D0334A7D3913783C
:101650000B431370057007234DE0304A13810823B4
:1016600049E02E4A1B021189CB181381092342E05D
:101670002A4A53810A233EE02B4ADBB21370274AE1
:101680009288002A05D00B2300222370274B1A6072
:1016900032E0DB072CD50C232DE0204A234D1189A5
:1016A00005290AD128202968FF30814205D8204821
:1016B0004354002341184B7002E0296851180B7302
:1016C0002B6801332B609288934215D1164B1B78FF
:1016D000DB070DD5237801330DE00D230BE00E233E
:1016E00009E00F2307E004210B4A13780B43137022
:1016F000632300E0002323702378632B05D1064B7E
:101700001878FFF7A3FE0023237070BD300E002071
:101710002D0B0020860200202E0B0020080B00203D
:1017200084020020E00A0020340B0020280B002057
:10173000640600201D4B37B51A88002A35D01C4995
:101740000A6800921B4A009814681B881B19834280
:101750002BD80B68184C0193019B1360237801333D
:10176000DBB2002B00D1802323700223134D2B8189
:101770002378AB7120236B81FFF710FEFFF7FAFD92
:10178000FFF734FE002810D023780133DBB2002BA2
:1017900000D18023237003232B812378AB71202376
:1017A0006B81FFF745FEFFF7E5FD37BD040B002019
:1017B0003C0E0020300B002085020020E40A0020AF
:1017C00010B502F011FE10BD70B50022050004F046
:1017D0009FFD0400280004F089FD001970BD70B55C
:1017E000050004F0C3FD0400280004F07FFD00198B
:1017F00070BDFFFFF0B5774C85B077492000FEF74C
:1018000044FE76492000FFF781FA75492000FEF773
:101810003CFE744D20006978FFF7D6FF7249200026
:10182000FEF733FEA9782000FFF7CEFF6F492000B6
:10183000FEF72BFE0423E95E2000FFF7D0FF6C4982
:101840002000FEF722FE0623E95E2000FFF7C7FF17
:1018500068492000FEF719FE29892000FFF7BFFF25
:1018600065492000FEF711FE69892000FFF7B7FFE8
:1018700062492000FEF709FEA9892000FFF7AFFFAB
:101880005F492000FEF701FEE9892000FFF7A7FF6E
:101890005C492000FEF7F9FD297C2000FFF794FF4A
:1018A00059492000FEF7F1FD698A2000FFF797FFF4
:1018B00056492000FEF7E9FDA98A2000FFF78FFFB7
:1018C00053492000FEF7E1FD29782000FFF77CFF57
:1018D00050492000FEF7D9FDA97D2000FFF774FFD5
:1018E0004D492000FEF7D1FDE97D2000FFF76CFF98
:1018F0004A492000FEF7C9FD297E2000FFF764FF5A
:1019000047492000FEF7C1FD697E2000FFF75CFF1C
:1019100044492000FEF7B9FDE98B2000FFF75FFF87
:10192000013541492000FEF7B0FDE97F2000FFF7B7
:101930004BFF3E492000FEF7A8FD3D492000FFF780
:10194000E5F900253B492000FEF79FFD082D03DC4B
:1019500039492000FEF799FD013529002000FFF7E5
:101960003EFF36492000FEF790FD354EAB009E1934
:101970000193331F1F88334BBF00DF19390003A8C1
:1019800007F029FA03A92000FEF77FFDFB78002B62
:1019900018D0022B0DD9032B14D12B492000FEF7B0
:1019A00074FDAB00294A043BD1582000FEF76DFDC1
:1019B00008E025492000023EFEF767FD318820003F
:1019C00004F0D4FC22492000FFF7A0F9132DB9D16F
:1019D00005B0F0BD300300202E8F000075020020FE
:1019E000348F0000400200203B8F0000428F000037
:1019F000498F0000508F0000578F00005E8F00005D
:101A0000658F00006C8F0000738F00007A8F0000DC
:101A1000818F0000888F00008F8F0000968F00005C
:101A20009D8F0000A48F0000AB8F0000B28F0000DC
:101A300061020020B98F0000D28F0000C08F00002B
:101A4000940A0020D48F00005C8F0000AC090020B5
:101A50005D8F000070B5B14E15003278CCB00C002F
:101A6000002A13D0531EAE499A0050528A1854804F
:101A7000D8B2FFF7BBFA002D05D030782900013825
:101A8000C0B2FFF7E1FA002333707AE24B2800D9A5
:101A900077E205F0EDFF4C004E0071005B0079002D
:101AA000650080008200860077006100900092004F
:101AB00097009D00A000A70034013B016F01760153
:101AC00079018C019301AA01AF01B8017602BD0131
:101AD000BF01CB01CD01D001DC01DF01E201E50155
:101AE000140217021A021D022002230226022902F2
:101AF000330241026A026702B000C300CD00DF007A
:101B0000E900F50000010D0170026101E801EB013F
:101B1000040210022C0274022F0280008200860050
:101B200088008A008E0068015602640247027D49DF
:101B300008E0FEF78FFE631E9BB2122B01D83470B3
:101B40001FE279497948FFF7E1F81AE2022000F034
:101B5000E7FE082002F07EFE022000F0C9FE10E23F
:101B6000012000F0DDFE082002F074FE012000F0EC
:101B7000BFFE082002F06EFE012000F0D1FE08201A
:101B800002F068FE0120E8E7042000F0C9FE08200A
:101B900002F060FE0FE0012000E0022000F0C0FE35
:101BA000EFE10420FAE7012000E0022000F0D0FE7F
:101BB000E7E10420FAE70420CFE75D4B187C4042C0
:101BC00040B202E010205A4B185600F0EDFED8E16A
:101BD000574B1974D5E1002B01D0564B05E0190085
:101BE000200005E0002B02D0534B1C70C9E1180007
:101BF00000F0F8FEC5E1514B51485A681040514A77
:101C0000914200D91400240104435C604E4B1B78C0
:101C1000002B00D0B5E103F0D1FDB2E1474B4B48BA
:101C20005A681040474A914200D91400A403EBE7D8
:101C3000444B994200D91C00404A210653689068E1
:101C40001B021B0A0B4353600323240A98430443DB
:101C50009460DBE7394B3E489A681040394A91421C
:101C600000D91400A40008E0344B3A489A681040A8
:101C7000344A914200D91400240304439C60C5E710
:101C8000013CE4B21F2C00D97BE10123A3402B4A85
:101C900011680B430AE0013CE4B21F2C00D970E14B
:101CA0000123A340254A116899430B001360ADE757
:101CB0000F2300291CDB0023162919DD01334329DA
:101CC00016DD0133702913DD01339D2910DD013349
:101CD000CA290DDD0133F4290ADD922201335200B5
:101CE000914205DD5222FF320023914200DC07338E
:101CF0000F2212494868904303434B6086E7002D4A
:101D000000D13EE1280000F00DFF3AE1002D00D1A6
:101D100037E1280001F0EEF933E1C046350B002031
:101D2000940A0020C48F0000D896000030030020E1
:101D300040020020040E0020200E00204C10002045
:101D40000FC0FFFFFF03000020100020FF3F00FF37
:101D500003F0FFFFFF0FC0FF002D00D111E12800AD
:101D600001F0D2F90DE1002D00D10AE1280001F0C7
:101D7000D5F906E1002D00D103E1280001F0C9F9F1
:101D8000FFE0FEF767FDFCE0FEF764FD002D00D1EB
:101D9000F7E02B78002B00D1F3E0280007F023F8C0
:101DA0000E2800D9EDE0280000F0B4FAE9E0002D9B
:101DB00000D1E6E0FEF74EFD28001EE0FEF74AFDEA
:101DC0000223714D00242B7000F0F0FC0022200053
:101DD00001341100E4B200F029FB072CF6D10020F9
:101DE0000121287000F004FCCBE0FEF733FD00F089
:101DF0001FFDC6E0FEF72EFD002000F0FFFB0022D5
:101E0000614B1A70BDE0FEF725FD00F08BF9B8E0DC
:101E10005E4BEAE60F210620FEF7AAFD5B4B1A781F
:101E2000002A01D10132ECE70022EAE7012200E0BA
:101E30000022574BE5E714210A20FEF799FD6422A2
:101E4000544B002101201A80FEF70AFF99E04F4B06
:101E5000597096E04D4B997093E04C4B998090E00F
:101E60004A4BD9808DE0494B19818AE0474B598113
:101E700087E03B2919D1002A08D05A1C01A8C15477
:101E8000D3B20022013529780029F2D1002201A81D
:101E9000C25401F0CDFD2B785A1E9341ED182B78DA
:101EA000002B6ED000231A00EDE75C29E5D1002A53
:101EB000E3D10122E6E7080002F0CCFC61E0334BFD
:101EC00099815EE0314BD9815BE0304B598258E01B
:101ED0002E4B998255E02D4B997552E02B4BD975BD
:101EE0004FE02A4B19764CE0284B597649E0274BB6
:101EF000D98346E0254B0133D97742E0002D40D00D
:101F00002B78002B3DD0280006F06DFF0E2838D826
:101F1000280000F07FFE34E0002D32D0280000F0D1
:101F2000D7FF2EE0002D2CD02B78002B29D02800B5
:101F300006F059FF0E2824D82900174806F04BFF59
:101F40001FE0002D1DD02B78002B1AD0280006F0A2
:101F50004AFF0E2815D8280000F0C8FF11E000F055
:101F6000D5FF0EE000F0E6FE0BE0002D09D02800C2
:101F700000F0E4FE05E088B200F0D4FF01E000F0DC
:101F8000CBFF4CB070BDC0461006002040020020C0
:101F9000180600203C0200206102002010B502F06B
:101FA00023FA10BD10B502F01FFA10BDF8B5114CA0
:101FB000A02223003B331A70230001265E331E70DB
:101FC000230005000F00010A5D33C9B220001E7016
:101FD00001F00AFEE9B2200001F006FE39002000FF
:101FE00001F002FE3100200001F08CFF052002F01C
:101FF00031FCF8BD90020020F7B50D0000220090E2
:10200000AB5C002B02D0013292B2F9E741490022C9
:10201000C858845C002C02D0013292B2F9E7043334
:102020004C2BF4D1009B002B02D13B4A9033138000
:10203000009B394A5B00D45A70212000FFF7B6FF9D
:10204000601C80B20221FFF7B1FF0026A71CBFB2BF
:10205000324BB819995D80B20136FFF7A7FF302ED9
:10206000F6D127003234A0B20021FFF79FFF0026EF
:102070003337BFB2A95D01363800B6B2FFF796FF1D
:10208000AB19013B7C1C1B78A4B22700002BF1D1BB
:102090001D000026224FEF19A019B95D80B201364C
:1020A000FFF784FF042EF7D1201D80B20021FFF737
:1020B0007DFF661D174B2F34FF345F59A3B2B6B2B4
:1020C000019339783000FFF771FF3B78741CA4B29C
:1020D000002B03D104354C2DDBD105E0019B0137EA
:1020E00026009C42EDD1F5E7009B062B03D10A4B5D
:1020F0008E331C8004E0009B074A01335B00D452FE
:102100000024054B2000195D0134FFF74FFF902C90
:10211000F7D1F7BDAC090020360B002040020020AB
:10212000940A002070B5002426000B4D0021605B4E
:10213000FFF73CFF605B00210130FFF737FF66537C
:1021400002340E2CF1D10024295D20000134FFF768
:102150002DFF902CF8D170BD360B0020F0B585B066
:10216000029305000F0000230392FA5C002A02D0BC
:1021700001339BB2F9E72F4A002D01D12E4BD381B9
:102180002B1D5B00D318DE8866213000B41E013E93
:10219000FFF70CFFB0B2BB21FFF708FF0026A4B287
:1021A000B95D631E01369BB22000B6B20093FFF703
:1021B000FDFEBB19013B1B78002B01D0009CEFE713
:1021C000A31E9BB2029900980193FFF7EFFE6B46A6
:1021D0001B89039E00935B00E41A023CA3B2019C9E
:1021E0000293029B9C420ED031782000FFF7DEFE66
:1021F000671E3188BFB2023C090A3800A4B2FFF75B
:10220000D5FE0236EDE7009B019A5B00D31A9BB224
:10221000084C3E2D03D005356D006519EB80002577
:10222000615D28000135FFF7C1FE902DF8D105B0A2
:10223000F0BDC046360B0020FF7F000070B5184C83
:10224000A02223003B331A70230001255E331D704A
:1022500023000600010A5D33C9B220001D7001F0A1
:10226000C3FCF1B2200001F0BFFC2900200001F006
:1022700049FE2B002A005021200001F0BFFE230060
:1022800022003933383219781378FF20994206D06A
:102290000020994203D959191170E418207E70BDAD
:1022A00090020020F0B5002485B00390184B620026
:1022B000D55A002D22D02800FFF7C0FF70281DD16D
:1022C000681C80B2FFF7BAFF022817D13335AFB2CE
:1022D0003B003D000F330293039B2800DE1B735D20
:1022E0000193FFF7ABFF019B834207D1735D002B86
:1022F0000AD0029B01359D42EED105E00134072C46
:10230000D4D10120404200E060B205B0F0BDC0462B
:10231000360B002070B50600FFF7C4FF431C18D130
:1023200000240C4B6200D55A002D0AD02800FFF77C
:1023300085FF70280AD00135A8B2FFF77FFF022879
:1023400004D060B23100FFF757FE02E00134072CE1
:10235000E7D170BD360B0020F7B500250190174A74
:102360006B00D318DC89002C1FD02000FFF766FF1C
:1023700066281AD1601E80B2FFF760FFBB2814D117
:10238000023CA4B22300019E0F3B0093200037784B
:10239000FFF754FF874208D13378002B0BD0009B06
:1023A000013C01369C42F1D105E001353F2DD6D1EB
:1023B0000120404200E068B2FEBDC046360B00205E
:1023C00070B50378164D002B11D0FFF7C5FFC0B2D2
:1023D000041D64002C19E088902820D9FF21FFF704
:1023E000E5FDE088FF210138FFF7E0FD17E00D492A
:1023F0000D482E002C00FEF789FC0E368C343088F8
:10240000902807D9FF21FFF7D1FD3088FF2101383F
:10241000FFF7CCFD002333800236A642EFD170BD1A
:10242000360B00200491000030030020F7B50500B2
:102430000092062800D90025634F002928D06B00A0
:10244000FE5A0193741C3000A4B2FFF7F7FE702807
:102450000CD102362000B6B2FFF7F0FE022804D1FC
:102460006B00FC5A594B1D7004E034000135EDB28D
:10247000072DE4D12000FFF7E1FE702800D08CE0AA
:10248000601C80B2FFF7DAFE022800D085E00EE083
:102490006D007C5B2000FFF7D1FE702800D091E03A
:1024A000601C80B2FFF7CAFE022800D08AE0023426
:1024B000A4B20025601980B2FFF7C0FE444B585506
:1024C0000135302DF6D13134424EA3B218005D1CD7
:1024D000FFF7B4FEADB230702B0001360028F5D105
:1024E00004000026E3B201933B4BA700FF18A81994
:1024F00080B2FFF7A3FEB8550136042EF7D1281D90
:102500006E1D80B2B6B2FFF799FE00280FD0334F90
:1025100033493800FDF7ACFF701EFFF78FFE002235
:102520000100380003F0F4FE380003F0DFFE300055
:10253000FFF784FE002814D000273000FFF77EFE4E
:102540002849751CADB2C855002803D10198FEF783
:102550007BFD08E02A230137FF332E009F42ECD198
:10256000F4E70635ADB20134132CBAD11E4B1A78FC
:102570001C00002A23D0FFF73DF9009B002B04D05C
:10258000124B02201978FEF76BFB2378002B19D031
:1025900016491248FEF7BAFB14E03C882000FFF70A
:1025A0004DFE70280ED1601C80B2FFF747FE022856
:1025B00008D10022054B0234A4B21A7079E7009BBF
:1025C000002BDDD1F7BDC046360B002040060020B1
:1025D0004002002075020020940A002030030020F1
:1025E0001A910000640600201006002033910000BC
:1025F00010B50122FFF71AFF10BDFFFF10B50378D9
:10260000002B03D1074B1878013003E0FFF74AFE97
:10261000002802DBC0B2012101E001210020FFF708
:10262000E7FF10BD40060020F7B5060000910192BB
:10263000FFF792FE431C1CD100250E4A6B00D318F5
:10264000DC89EFB2002C0AD02000FFF7F7FD6628E6
:102650000CD0013CA0B2FFF7F1FDBB2806D0019BD6
:10266000009A31003800FFF779FD02E001353F2D77
:10267000E3D1F7BD360B0020F8B50025184A6B00F2
:10268000D318DC892000FFF7D9FD662823D1601E0E
:1026900080B2FFF7D3FDBB281DD1124E1249300086
:1026A000FDF7E6FE29000022300003F031FE023C77
:1026B0000E493000A4B2FDF7DBFE671E2000BFB25A
:1026C000FFF7BCFD002803D003F016FC3C00F4E744
:1026D000300003F00BFE01353F2DCFD1F8BDC046D1
:1026E000360B00203003002037910000E48E0000FC
:1026F000F7B50E0000923F2801D9002441E00430D4
:10270000214B40001818C4882000FFF797FD662869
:10271000F3D1601E80B2FFF791FDBB28EDD1023CE2
:10272000A4B2671E2000BFB2FFF788FD002801D0C9
:102730003C00F6E73800FFF781FD009BA51E5B001B
:10274000E41A023CA3B284B2ADB200936300EB1A68
:102750009BB20193009B9D4213D0019B9D4210D0E0
:102760002800FFF76BFD6F1EBFB230803800FFF707
:1027700065FD33880002023D18183080ADB2023684
:10278000E8E72000FEBDC046360B002070B50C0007
:102790001500FFF7E1FD03000020834204DBD8B2FF
:1027A0002A002100FFF7A4FF70BDFFFF70B50025D0
:1027B0002800FFF743FD194C28550135902DF7D11E
:1027C00000231D001649CA5C0133AD18ADB20F2BB2
:1027D000F9D12088FFF732FD70280AD12088013016
:1027E000FFF72CFD022804D123008C331B88AB4259
:1027F00012D004210220FEF733FA0A490A48FEF7F4
:1028000085FAFFF78FFC0020FFF7DAFD8C340749CB
:1028100000202580FFF7F0FB70BDC046360B00207E
:10282000C48F000041910000300300205691000049
:10283000F8B50025174B6A00D45A2000FFF7FEFCBC
:10284000702823D1601C80B2FFF7F8FC02281DD14C
:10285000114E12493000FDF70BFE29000022300016
:1028600003F056FD33340E493000A4B2FDF700FEEC
:10287000671C2000BFB2FFF7E1FC002803D003F083
:102880003BFB3C00F4E7300003F030FD0135072D41
:10289000D0D1F8BD360B0020300300205C91000041
:1028A000E48E00001F2310B5064A18401178084333
:1028B000814206D00023107019001A00180003F09E
:1028C000E1F910BDDB0F00201F2310B5074A1840A7
:1028D00011780B008343994206D0137000231A002D
:1028E0001900180003F0CEF910BDC046DB0F002020
:1028F00070B50A4B05005A1CD27F1C00D30701D5C6
:10290000FFF7E2FF631CDB7F9B0706D5FEF736FB74
:10291000002802D02800FEF76BFA70BD40020020AC
:1029200070B50A4B05005A1CD27F1C00D30701D595
:10293000FFF7B8FF631CDB7F9B0706D5FEF71EFB86
:10294000002802D02800FEF745FA70BD40020020A2
:1029500070B5134B04005A1CD27F1D00D30709D554
:10296000104B1A780240D30602D0FFF7ADFF01E00A
:10297000FFF798FF6B1CDB7F9B070FD5FEF7FEFA76
:1029800000280BD02000FEF741FA002803D02000D9
:10299000FEF72EFA02E02000FEF71CFA70BDC046DA
:1029A00040020020DB0F002070B50D4B05005A1CC3
:1029B000D27F1C00D30705D50023020019001800A0
:1029C00003F060F9631CDB7F9B0708D5FEF7D6FA9E
:1029D000002804D00021EAB20800FEF7A9F970BD72
:1029E00040020020F8B505000E0001272B004C4CDA
:1029F000803301DB022724E0631CDB7F3B4206D0EF
:102A0000002380201A001900404203F03BF90134F2
:102A1000E37F9B0703D5FEF7B1FA002865D1803527
:102A2000E4E70122631CDB7F134205D000237F20F3
:102A30001A00190003F026F9631CDB7F3B4204D126
:102A40007F3D7F2DEDDC012714E0FEF797FA00288B
:102A500052D1F5E7631CDB7F3B4206D00023802187
:102A60001A004942180003F00DF9631CDB7F9B0735
:102A700005D4803633008033ECDB022714E0FEF708
:102A80007DFA00283ED1F4E70122E318DB7F1342F0
:102A900005D000237F211A00180003F0F3F8631C0F
:102AA000DB7F3B4204D17F3E01237F2EECDC04E040
:102AB000FEF764FA00282CD1F5E7621CD27F1A4297
:102AC00005D0002371B268B21A0003F0DBF80134BC
:102AD000E37F9B0723D5FEF751FA00281FD0002281
:102AE00031002800FEF724F919E0002280201100AF
:102AF0004042FEF71DF992E700227F201100FEF709
:102B000017F99DE70022802110004942FEF710F9D5
:102B1000AFE700227F211000FEF70AF9C3E7F8BDF6
:102B20004002002070B5104B05005A1CD27F1E00D9
:102B3000D3070DD50024280006F055F9A04207D987
:102B4000285D02F043FF285D02F0C6FF0134F2E782
:102B5000731CDB7F9B0706D5FEF710FA002802D016
:102B60002800FEF7D5F970BD4002002070B50B4B70
:102B700005005A1CD27F1C00D30702D580B202F098
:102B800025FF631CDB7F9B0706D5FEF7F7F90028BE
:102B900002D02800FEF768F970BDC0464002002050
:102BA00070B50B4B05005A1CD27F1C00D30702D511
:102BB00080B202F091FF631CDB7F9B0706D5FEF716
:102BC000DDF9002802D02800FEF76CF970BDC04680
:102BD0004002002010B5094B5A1CD27F1C00D307BD
:102BE00001D502F0CFFF631CDB7F9B0705D5FEF705
:102BF000C5F9002801D0FEF779F910BD4002002088
:102C000010B501F0F1FB10BD10B5040003F024FB7A
:102C1000200010BDF0B50700394C87B0236804933D
:102C2000049D384E307801F0EFFC029600280BD05E
:102C30002368354A0593059B5B1B9342F1D93349C1
:102C40003348FEF763F858E00600324D28802B88A1
:102C5000F92B15D801F0DAFD019001F0D7FD019BA9
:102C6000C41A2D4B1A680393944205D2029B18781C
:102C700001F0CAFC8642F0D0039B1B689C4226D31D
:102C80002B88234C2549FA2B00D025492000FEF73C
:102C90003DF800210B20FDF7E3FF22492000FDF75E
:102CA000E7FB39002000FDF7E3FB1F492000FDF79B
:102CB000DFFB2988200003F059FB1C492000FEF7A8
:102CC00025F82A781A493800FFF7AEFC15E0FA23F8
:102CD0001B029C4207D9FA212000890004F0D2FE91
:102CE000FA231B02C41801202B88114A59004640C0
:102CF0001B188C52F6B22B80A9E707B0F0BDC04676
:102D00003C0E0020710200200F270000619100009E
:102D100030030020D80B0020880200207A910000A8
:102D200091910000AA910000C0910000C79100009D
:102D3000DA0B002010B5FFF79FFC10BD10B5FFF7B0
:102D40003FFB10BD10B5FA221949FFF71FFD194BC3
:102D5000188000282BD000210920FDF781FF0023D7
:102D6000154A164C1380164A16491370164A20004D
:102D70001360EF2203F016FA142123682171002B4F
:102D800015D01248124A1B181B11D15411785378D0
:102D90001048114A994205D8036809041A400A43A9
:102DA000026004E001681B040A401343036010BD85
:102DB000DA0B0020D80B0020D60B0020CC0B002013
:102DC000D40B0020DD2D0000C80B0020008FFCBFBD
:102DD0002003002014E400E0FFFF00FFF8B52F4AB5
:102DE0002F4F12883B883E002E4D2F4C934223D903
:102DF0002878002101F050FC2878002101F0E4FB44
:102E0000002323703B80294B1A68002A01DD013A18
:102E10001A601B68002B40D1254803F01DFA254A93
:102E20001368002B39DD013B1360234B013BFDD1BF
:102E30002248FFF787FF30E0934206D11C4B1B6806
:102E4000002B1CD01E4A1A6019E01E4A5B009B5AD8
:102E5000FA221202934204D9FA22920053431A4AE8
:102E60009B181A495A1E8A4209D818225343013B1B
:102E7000232B04D90E4A1268002A00D0136021784F
:102E8000287801F009FC2378002B01D1803300E081
:102E900000232370338801333380F8BDD80B002022
:102EA000D60B002070020020D40B0020D40D00208F
:102EB000CC0B0020D00D0020007102006102002028
:102EC0007FA90300DA0B002000702FFCAFAAAA0A2A
:102ED000012310B5034A1360034A1360FFF732FF62
:102EE00010BDC046D40D0020D00D0020012210B529
:102EF000044B52421A60044B02321A60FFF722FF61
:102F000010BDC046D40D0020D00D00200022014B82
:102F10001A607047D40D002010B50020FFF750FA5A
:102F200010BDFFFF002804D0FA239B005843014B3B
:102F3000186070478802002010B501F055FA002390
:102F40000448054A036005498033037104F07EFD9F
:102F500010BDC046CC0B002030020020092C000020
:102F600010B5FFF737FE00231900034A99500433C8
:102F7000202BFBD110BDC046D80D0020002310B57A
:102F8000064A99008C58002C00D18850515888422C
:102F900002D00133072BF4DD10BDC046D80D002050
:102FA000002330B50B499A0055580C0085420CD1CE
:102FB0008A180021072B05D0501840680133505063
:102FC0000431F7E70023E36102E00133072BEADD78
:102FD00030BDC046D80D00200023054A99588142D3
:102FE00004D00433202BF9D1002000E001207047E9
:102FF000D80D002010B50400032916D8080004F0ED
:103000002DFD0E0E07022000FFF7E6FF002806D078
:103010002000FFF7C5FF2000FFF7C2FD05E02000FC
:10302000FFF7ACFF2000FFF7A1FD10BDF7B50400CE
:10303000019105F0D8FE023005F0C6FD0700210021
:1030400005F0C9FE380005F0CEFE381801380378C7
:10305000202B03D02249380005F0A6FE3800204975
:1030600005F0DAFE041E36D004221E4905F0C2FE29
:10307000002813D1050004341B4BEE00F15820004A
:1030800005F09FFE002806D1174B01999E19706824
:10309000FFF7B0FF02E00135622DEDD107221349A1
:1030A000200005F0A7FE002812D1114DE61D2C1DB1
:1030B0008435AC420CD0231F1968300005F081FE26
:1030C000002803D101992068FFF794FF0834F0E746
:1030D00003490020C4E7380005F080FDF7BDC04675
:1030E0005C8F000064950000D49100006995000099
:1030F000E494000010B504000021FFF797FF0221BF
:103100002000FFF793FF10BD10B50121FFF78EFFE0
:1031100010BD10B50221FFF789FF10BD10B50321C6
:10312000FFF784FF10BD10B501F05EF910BD70B55A
:103130000021041C04F028FE002835D10021201CA9
:1031400004F028FE002807D0211C201C05F0D4FA2A
:10315000011C04F0F3FF28E08023E0156402640AF8
:103160001B047F381C43C30700D564000023802262
:1031700019211E00401064005204B518A54202DC5B
:10318000AE18641B9B180139640052080029F4D161
:10319000002C02D001221A409B18FC225B109205E1
:1031A0009B18C005181800E0002070BDF0B517008E
:1031B000BF4A85B0136800900191BE4EBB4202DA4F
:1031C0000123337005E000213170BB4201DD012392
:1031D00000E00023B84917600B70B84B1A780293CF
:1031E00000239A4200D0C833B54C2078062800D975
:1031F000CFE004F033FC0419296676CEBE00029BB2
:103200005B8A9F4205DD0123002105202370FDF725
:1032100027FD029B9B8A9F4200DBBAE0032000212E
:103220002070FDF71DFDB4E0029BDA89A54B9742A3
:1032300002DA1A68013200E000221A601B68132BC0
:1032400000DC9CE3022392E001995A428A4208DDA5
:1032500000210620FDF704FD0F20FDF75BFF0F2086
:103260004BE000998A4208DD00210620FDF7F8FCBA
:103270001120FDF74FFF11203FE0009A934208DA3A
:1032800000210620FDF7ECFC1220FDF743FF122081
:1032900033E0019A934208DA00210620FDF7E0FCB2
:1032A0001020FDF737FF102027E0864A136801330E
:1032B000C82B63DD00230A201360FDF72BFF0A20D3
:1032C00052E0029B9A897F4B974202DD1A680132D5
:1032D00000E000221A601B68132B00DC4FE304237C
:1032E00045E001995A4291420FDA00210420FDF78E
:1032F000B7FC0B20FDF70EFF0B20FDF725FF062383
:10330000002223706F4B1A6043E00099914208DA63
:1033100000210420FDF7A4FC0D20FDF7FBFE0D208D
:10332000EBE7009A934208DA00210420FDF798FCAD
:103330000E20FDF7EFFE0E20DFE7019A934208DA38
:1033400000210420FDF78CFC0C20FDF7E3FE0C208F
:10335000D3E75C4A13680133C82B0FDD0023082034
:103360001360FDF7D7FE0820FDF7EEFE062323705D
:103370000FE0544A13680133962B01DC1360FEE220
:10338000002515602570FDF79BFF4F4B1D704F4BBF
:103390001D7023780024A34200D0F0E24C4D285D3C
:1033A00001F032F9414241412000C9B20134FDF738
:1033B00047FF032CF2D1287801F026F9454C051E71
:1033C0000ED1C8222368920001332360934209D1B1
:1033D00001000A20FDF744FCFDF7D8FD256001E05F
:1033E00000232360384D2C78012C10D0002C02D003
:1033F000022C23D034E0314BDB899F4230DD2100A9
:103400000820FDF72DFC01232B70334B27E0327889
:10341000314B002A0CD11A78511C19700F2A1FD970
:10342000022209202A7008321A70FDF773FE17E095
:103430001A78002A14D0013A1A7011E0264B1A7833
:10344000002A01D0013A1A701C4AD289974207DA41
:103450001C78002C04D10920FDF776FE1A4B1C7055
:103460001A4E164D3478012C0FD0002C02D0022CAD
:103470003CD04CE0AB899F4249DA21000720FDF7A0
:10348000EFFB01233370154B40E00B4B1A78134BC5
:10349000002A25D11A78511C19700F2A37D9022217
:1034A0000720327008321A70FDF734FE2FE0C04654
:1034B0008C0200201F0E0020290E00204002002058
:1034C0001D0E0020080E0020140E00200C0E0020FF
:1034D00072020020F80D00201C0E0020280E002093
:1034E0001A78002A13D0013A1A7010E0B84B1A78F3
:1034F000002A01D0013A1A70AA89974207DD1C7888
:10350000002C04D10720FDF71FFEB24B1C700020D9
:10351000B14B1856002804D1B04B1B785BB2002B7E
:103520000AD0AF4A1378591C11709B0704D10021AF
:10353000AA4B5956FFF756FA2E78012E00D008E113
:103540000027A84B391C1C68201C04F01DFCA64E4B
:10355000A64D002802D037602F6076E02968201C35
:1035600004F02CFC002800D02C60A04FA0493D683E
:10357000281C04F0ADFF011C201C04F01FFC0028D7
:1035800014D0FE21984D89052F68381C04F002FCE8
:10359000002816D0974B588905F09EFA964904F0FA
:1035A000CDFD391C04F054FC28600AE00021281CE1
:1035B00004F004FC002804D09049281C04F088FF83
:1035C00038608A4B8E491F68381C04F081FF011C4B
:1035D000201C04F0DFFB844D002804D028688949B2
:1035E00004F076FF28608849381C04F071FF011C44
:1035F000201C04F0CFFB002804D028687F4904F089
:1036000067FF2860814F009B3A68981A05F01CFA02
:103610007F4D019B2A684400981A05F015FA64084A
:1036200041004908201C04F013FC7A4904F086FD8F
:10363000011CFE20800505F05FF8316804F048FFAA
:10364000009B30603B60019B2B60674E33680393A7
:10365000029B587805F040FA041C009805F0F4F934
:10366000011C201C04F034FF039904F031FF029B7D
:10367000051C987805F030FA041C019805F0E4F96F
:10368000011C201C04F024FF039904F021FF291CD5
:10369000041C281C04F01CFF211C071C201C04F027
:1036A00017FF011C381C04F0D3FBFFF740FD029B01
:1036B00000900A21188904F0E5F980B205F0C4F9F8
:1036C000071C011C009804F079FB002813D0009916
:1036D000381C04F033FD011C071C281C04F0F8FE04
:1036E000391C051C201C04F0F3FE4B49041C0398F4
:1036F00004F0EEFE3060494E281C316804F0A8FB4F
:10370000474D071C29683060201C04F0A1FB041CF5
:103710002860381C05F076F90700201C05F072F9C6
:103720003B000400034303D001003800FFF75AF9BF
:10373000380005F089F9011C306804F0DDFF3060C5
:10374000200005F081F9011C286804F0D5FF2860ED
:1037500015E1002E18D1019B0320D90FFDF770FD54
:10376000019B0420D917C91AC90FFDF769FD009BF9
:103770000520D90FFDF764FD009B0620D917C91A53
:10378000C90FFDF75DFDFAE0019B254C002B03D12D
:103790008823DB05236012E0A87805F055F9051CA5
:1037A000019805F051F9011C281C04F091FE1D49F7
:1037B00004F0C4FC8821C90504F04AFB2060009B8A
:1037C000164D002B30D18823DB052B6040E0C0462E
:1037D000280E00200C0E0020040E0020200E0020D9
:1037E0001E0E00204C060020100E0020000E0020AF
:1037F000CDCC4C3F400200208096984AA4707D3F7B
:103800009A99193F52B87E3FCDCCCC3EFC0D00209A
:10381000240E002000007A4448E17A3F2C0E00205C
:10382000180E002000004842029B587805F00CF961
:10383000071C009805F008F9011C381C04F048FE2C
:10384000504904F07BFC8821C90504F001FB286085
:1038500000272868391C04F09DFA002800D02F604A
:10386000494F2868391C04F0A9FA002800D02F60BD
:1038700000272068391C04F08DFA002800D027604A
:10388000414F2068391C04F099FA002800D02760C5
:10389000032E2AD0042E50D0022E70D1286804F0B6
:1038A000BFFA3A4B3A4A59683A4E0A401F00B042B2
:1038B00000D930000001384D104358602B78002BA0
:1038C00001D101F07BFF206804F0AAFA334B7A683B
:1038D0001340B04200D92F488003184378602B78FA
:1038E000002B4CD101F06AFF49E0286804F098FAF7
:1038F000284FB84200D93800244D02066B68264E86
:103900001B021B0A13436B600323AA68000A9A4335
:1039100033781043A860002B01D101F04FFF2068DD
:1039200004F07EFA1E4BAA681340B84200D9194829
:1039300080001843A8603378D2E7286804F070FA52
:10394000124B184A9968134E0A401F00B04200D922
:1039500030000003104D104398602B78002B01D1EC
:1039600001F02CFF206804F05BFABB689B029B0A05
:10397000B04200D9074880051843B860AFE705B0EA
:10398000F0BDC0460000484200C07F444C100020FB
:103990000FC0FFFFFF03000020100020FF3F00FFCB
:1039A00003F0FFFFFF0FC0FF10B500F01DFD10BDBD
:1039B00030B5021E14D003780020834210D00300DB
:1039C0000A241078002807D03038C5B2092D06D84F
:1039D00063430132C318F4E70B80012000E00020AC
:1039E00030BD73B50C00002801D1002010E0037831
:1039F00001252D2B01D14019023D6B469E1D310042
:103A0000FFF7D6FF0028F0D0012033886B432380D6
:103A100076BD00280AD00378002B07D01A00613A3F
:103A2000192A01D8203B03700130F4E77047FFFFEB
:103A3000F0B5002585B0254F02AB9E1D39003580BD
:103A400005F0EAF901970400A84239D0FFF7E1FF39
:103A50001F4FF91E200005F0B4F900281ED13B7855
:103A6000022B0BD0032B13D0012B14D1019905F09D
:103A7000D3F931000400FFF79BFF06E0019905F040
:103A8000CBF931000400FFF7ACFF002806D000E0BE
:103A900003346BB204E06BB2040001E001235B422B
:103AA00001354C2D0AD004375A1CD2D00022B15E09
:103AB000D8B222000023FDF7CDFF05E05A1CF5D156
:103AC00004490548FDF722F905B0F0BD5C8F000000
:103AD000D78F0000D69600003003002070B5254A2D
:103AE00003001178002902D0FDF754FD41E0224C7B
:103AF0002078032837D803F0B1FF021117242021C2
:103B000018008843412801D1012331E0402B30D1F6
:103B1000237801332370012313702AE0202293437A
:103B2000542B24D1523B23E00D2B01D00A2B01D181
:103B3000124919E0202B16D10022114B1A700323D1
:103B400016E00F4A0F480D2B01D00A2B06D1002595
:103B50001378C554FFF76CFF25700AE011784C1CF0
:103B60001470435405E008490848FDF7CFF80023D6
:103B7000237070BD2D0B0020300E0020DA9600005F
:103B8000310E002064060020D8960000300300208B
:103B900010B500F029FC10BD00207047030038303C
:103BA00039331B780078181A704702000100383248
:103BB000393113780978994204D9591C1170C31806
:103BC000187E01E0012040427047030002003833B4
:103BD00039321B7812789A4202D9C318187E01E054
:103BE00001204042704770470300002210B55E3349
:103BF0001B8893420DD004005D342378202B02D91A
:103C00000123037105E05A1C22700122C3183B33C3
:103C10001970100010BD70B51400020003000020E0
:103C20005E321288824212D01D0021225D35287832
:103C3000121A944202D901241C7114003B33181843
:103C4000220004F0D5FF20002B781B192B7070BDCB
:103C500043691A685B68126813420FD0084A036907
:103C6000914201D81F2205E0064A914201D8122252
:103C700000E002225A70022203699A717047C0461E
:103C80007F1A06003F420F000200F8B5002304002F
:103C9000383213705370243293701370537043662C
:103CA0008366D37040696427016842680D682A43BF
:103CB0000A6022691549937023000C226133606900
:103CC0001E788619337A5343CB185D68737BE026E0
:103CD0001B02F60033403B432B60230062331B780A
:103CE000C018837C5A43C37D89181B024A681E4052
:103CF0003E43166006492000FFF7AAFF20232269F1
:103D00005371802223699A70F8BDC046AC970000B9
:103D1000A0860100102270B503690400DD78EDB2C1
:103D2000154203D140222A4004D12BE0DA706B0601
:103D3000F8D476E004231D403A4B1BD02500002226
:103D40005D352A701A70636E934200D09847230045
:103D50002A783B33002A02D1012129701A70D0221F
:103D600021698A701B7822691371230001225C3358
:103D70001A7053E001221A70230039331D70226932
:103D8000C02330E0602120698379DBB219406029CB
:103D90000CD140398B438371A36E002B06D02100D8
:103DA00038310A702200393210789847102322697E
:103DB00091780B401BD001231D4013D1210020001E
:103DC0005C315D300B780078984206D9581CE318B6
:103DD00008703B331B78137100E01571D023226902
:103DE00093701BE0C023937023691B7916E02100B8
:103DF00060310B70202193790B432100937123696B
:103E000039311A790B78D2B21F2B07D805480078C0
:103E1000002803D0581CE31808701A760222236980
:103E2000DA7070BD320E0020F0B500210400334B73
:103E300085B01B680293029B019320202269D378EE
:103E4000034257D02D4B01981B680393039B1B1A09
:103E50000F2BF2D9002945D12500613562692B78F5
:103E60000531D318187A00F0E1FB2B786269012143
:103E7000D3189F7C0926380000F0D8FB00213800B9
:103E800000F0A2FB5023013BFDD10121380000F0DE
:103E90009BFB5023013BFDD1013E002EEED10C21B6
:103EA00066692B78164DF3181A7A64204A43AA18CB
:103EB0005768E0225B7BD2001B02134003433B6048
:103EC000230062331B78F618B37C59436D18F17DDB
:103ED0006B6809020A4010431860A023013BFDD122
:103EE0000121AAE7102BA8D000209070802223691E
:103EF0009A7000E0012005B0F0BDC0463C0E0020E5
:103F0000AC97000012230269F0B5D370202287B06D
:103F1000036901919D780400154002D094329A7093
:103F20000BE0FFF781FF03000420002B62D0230089
:103F30005F331D70B0232269937020262E4B2069B9
:103F40001A680292029DC278324048D000220225AF
:103F50002026009222005D32127800998A4233D9DD
:103F600062183B32127821690A711A682169059238
:103F7000059A9446CA78D2B217002F400AD132422D
:103F800008D060461A680492049A121A052AF1D9D8
:103F90008F702BE01020CD702169CA78D2B2024216
:103FA00001D1324203D1802304208B700DE0012126
:103FB00000980A4204D0434258410323181A07E0EC
:103FC0000130C2B20092C5E70020019B002B02D055
:103FD00080232269937000235E3423700AE01968FD
:103FE00003910399491B0429ADD9827080220420D2
:103FF00023699A7007B0F0BD3C0E0020F0B51600A2
:104000008BB0020001930023383213700132137019
:10401000009202691233D3702022036905009C7854
:104020000F00144002D094329A700AE0FFF7FCFEB1
:10403000002800D1B4E02B005F331C70B0232A6944
:1040400093702022944658490B68029302982B697A
:104050006246DC7814400A00002C06D10A680392FC
:10406000039A121A042AF3D912E001217F000F43A8
:10407000FFB21F7102271368049304982B69DC7840
:104080003C4009D1116805910599091A0529F6D90D
:104090009C702B69802211E00222DA702B690F32AA
:1040A000DC78144003D06F329A70002478E0002E40
:1040B00006D101998022002900D120329A706FE048
:1040C000A822012E00D0A0229A7002222B699446C9
:1040D0001B79002334492A690868012E28D00690EC
:1040E000069F6446D078204006D10C680794079C50
:1040F000E41B052CF5D927E002211020D170296995
:10410000CA78D2B202424AD10018024247D0013ED8
:10411000F6B2012E01D1A8228A702A691F2B05D878
:104120001279591CEB181A76CBB2D3E71279D1E782
:1041300002270890089ED078384007D10C6809946F
:10414000099CA41B052CF6D9907023E002211020B5
:10415000D1702969CA78D2B2024209D0C8705022FF
:10416000013AFDD1296908388A7882438A7016E0BD
:104170001C00920614D5B0228A702A691F2B05D81C
:104180001279591CEB181A76CBB200E01279019A19
:10419000002A02D080212A699170009A13701C00B5
:1041A00020000BB0F0BDC0463C0E002010B5024808
:1041B000FFF7B0FD10BDC046900200208023F0B58F
:1041C0001D4A10681840FCD172B61C4C2378002B95
:1041D00030D01B4B1F681B4B1A681B4BBA181E684C
:1041E0001A4B92191D681A4B52191968194B52181B
:1041F0001B68194DD21892B25208184B2A4392B23A
:104200001A60174B17491B68174A9C46174B1B68C7
:1042100012680F68164963440E6816499B180968AE
:10422000DB199B195A1893B25B082B43124A9BB2B5
:104230001360207062B6F0BD24B00340340E00203D
:1042400038B003403CB0034040B0034044B00340AA
:1042500048B003404CB003400080FFFF2CB0034047
:1042600058B0034064B0034060B003405CB003400A
:1042700068B003406CB0034030B003401B4B1C4A95
:1042800019781C4B082901D1002102E00A2903D129
:104290002E311160132206E00C2901D1283100E0F3
:1042A0003C21116012221A60134B1A78134B002A1A
:1042B00001D0002200E001221A60114B1A78114B44
:1042C000012A01D880220CE0042A01D8842208E0C7
:1042D000082A01D8852204E0102A01D8862200E0AD
:1042E00087221A600122084B1A707047FC020020D6
:1042F00008B003400CB00340360E002020B003404D
:10430000FD02002024B00340340E0020F8B5030065
:104310000020272B33D81A4AD45CFF2C2FD0194BFE
:104320001B78834201D0FFF749FF72B61027402265
:10433000154B144205D01A68BA431A603F231C403B
:1043400002E01A683A431A600123104E104D34609F
:104350002B7062B672B680223368134208D00D4BC0
:10436000186800232B7062B60B4B1B78184106E0CF
:104370002B78002BDBD062B602F032F9EAE7F8BD09
:1043800024970000340E00200CB0034000B003401E
:10439000350E002010B00340330E002080210D4A5E
:1043A000090613680B4313600B4B1A780B4B002A5A
:1043B00001D1D03200E090221A70094B984201DD01
:1043C000180002E0C343DB171840064B00B2188008
:1043D0007047C0463C800440360E002021F0034068
:1043E000FF0F000000F00340F823802208491B0261
:1043F00052021888884203D1064A023B138006E025
:1044000002339342F5D10222024B52421A80704786
:10441000FFFF0000380E002070B580258026ED02D9
:10442000F6000B4C23682B4201D000F055FE2368A8
:10443000334201D000F00EF823681B0501D500F0CF
:1044400009F82368DB04ECD500F010FDE9E7C0466D
:104450003480044010B5FFF7DFFFFFFF0022014B5F
:104460001A607047008104407047FFFF0A4903004B
:1044700010B50868002B0DD06A46084CC3181219F5
:10448000934206D304F074FB0C23036001204042E6
:1044900000E00B6010BDC0460003002000FEFFFFDF
:1044A000EFF31380002821D1EFF31083002B1FD1ED
:1044B000EFF3058100290FD018000F290ED90B004A
:1044C000103B0C4A9B089B009B18032218680A406B
:1044D000D200D040C0B201E080204000EFF3118351
:1044E000002B05D0984203D9180001E0012040427A
:1044F0007047C04600E400E0F8B505000024264FF0
:104500000E1C3800E04004F0E7FADE21890503F0D4
:10451000DFFF311C03F048FC002802D10134072CD6
:10452000EFD11D48E04004F0D7FA311C03F006FE3D
:10453000FC21890504F0E0F803F072FC174B984267
:1045400000D918002B00103B012B06D80023144A79
:10455000144913600B60144B0BE0172D0ED8134A4F
:104560000123EA40934309D1114A124913600B60B9
:10457000114B186008231C4314600CE0033D012D0F
:1045800009D800220D4B0E491A600A600D4A1060CE
:10459000082214431C60F8BD006CDC02FFFF000021
:1045A0000090034004900340089003404006D00070
:1045B00000800340048003400880034000A00340C3
:1045C00004A0034008A0034010B51A2818D80C23F3
:1045D00058430C4A835810181C7D027A224205D099
:1045E000002901D01A710BE01A7209E043681A68B9
:1045F000002902D003210A4301E002218A431A6004
:1046000010BDC046AC97000000231A280AD80C330E
:104610005843054A83581018007A1B7C0340581EE3
:104620008341DBB218007047AC970000F0B51A2840
:104630002FD80C2217004743164CE5196B6826004B
:10464000012901D0042911D1504334583018257D57
:10465000027A20202A432275A22252001A601A6888
:10466000042901D1024313E0824311E038592C7A26
:10467000027DA24302758022002908D0022902D1BE
:104680000422FF3204E00022032901D181225200DA
:104690001A60F0BDAC97000070B5434B04001A28B7
:1046A0000ED11B780B2B03D80C22D31A994003E0B0
:1046B0000C2B01D00C3B19410800FFF76FFE72E094
:1046C00001251A782B009340002901DC002102E02B
:1046D0008B4205D829002000FFF776FF29005FE014
:1046E0002300103B0338012B01D8304B05E0C3B247
:1046F000012B01D82E4B00E02E4B1B6801334B439E
:10470000D340142843D803F0A9F9353B421F424255
:10471000151A4242424242292F424224420B1000C3
:10472000254A1360254A264B2FE0264A1360234A68
:10473000254B2AE0254A1360204A254B25E0254ACF
:1047400013601E4A244B20E0244A13601B4A244B6A
:104750001BE0244A1360194A234B16E0234A1360D6
:10476000D122234B920010E0224A1360D122224B27
:1047700092000AE0214A1360D122214B920004E00A
:10478000204A1360D122204B92001A600BE00123D3
:104790007F2900DC0023D9B22000FFF715FF01219B
:1047A0002000FFF743FF70BD040300200890034082
:1047B00008A0034008800340108003404404000028
:1047C00004B004401880034008B004402080034037
:1047D0000CB004402880034010B0044030800340F7
:1047E00010C004403880034014C0044010900340BF
:1047F00000A004401890034004A0044010A003400F
:104800000490044018A003400890044072B60C4B7A
:104810001A680C4B18680C4B1B6862B65B0104D518
:10482000322393429B415B42C018084B9A1A084BB3
:104830005A43FA239B005843920D10187047C04604
:1048400018E000E03C0E002004ED00E07FBB00001B
:104850005555010070B50400FFF7D8FF0500002C86
:104860000FD0FFF7D3FF074B401B984206D9013CFE
:10487000002C06D0FA239B00ED18F2E701F0B0FE01
:10488000EFE770BDE703000080221E4BD20510B594
:104890001A608022002012061A601B4B1B49186008
:1048A0001B4B1C4A1960282313601B4A1B4C1360C6
:1048B0001B4A13601B4A13601B4A13601B4A136098
:1048C000092222601A4C20601A4C21601A4C236085
:1048D0001A4C23601A4C22601A4C20601A4801605E
:1048E0001A490B601A490B601A4B1A60FFF7C6FC95
:1048F0001920FFF7AFFF00F007FF1420FF30FFF78C
:10490000A9FF10BD00E100E004800340FFBF0000EC
:10491000088003400C800340148003400080034063
:104920001C800340248003402C80034034800340DB
:1049300004900340089003400C90034014900340FF
:104940000090034004A0034008A003400CA00340D3
:1049500014A0034000A003408021224A49011368AB
:104960000B4313600023204A1370204A1370204A1F
:104970001370204A1370204A1370204B1B78062BAB
:1049800004D0072B05D11E4A1E4B01E01C4A1E4BCA
:104990001A601E4B1B78082B05D0142B07D1D1228F
:1049A0001B4B920002E0D1221A4B92001A600028A1
:1049B00000D10130184BC204D20E1A700022C0B2CE
:1049C00058709A702C32DA70144A154B11680B40EB
:1049D0008021C9030B4313608022124BD2011A605D
:1049E0007047C04634800440B00E0020450E0020C1
:1049F000B80E0020B10E0020440E00200503002058
:104A00001303000008C0044010C004400603002047
:104A100014C004400CC0044000C006400CE400E098
:104A2000FFFF00FF00E100E0132110B5164B9A785C
:104A30008A431100032202400A43410701D5102195
:104A40000A439A700F2210490240042A03D14024DD
:104A50008A7922438A7110215A798A43084200D008
:104A60000A4310215A719A798A43840600D50A4371
:104A700005499A71C30506D520204B780A78DBB228
:104A800002430A704B7010BD00C006401F4B10B5AA
:104A90001B68DB0439D51E4B1A78D2B2002A02D02B
:104AA00001F09EFDF7E780211A4BC90119601A4BEE
:104AB000DA701A4A1278062A05D0072A07D104218B
:104AC000174AFF3102E00421164AFF311160164AED
:104AD00011787F220A40082A05D0142A07D1042120
:104AE000124AFF3102E00421114AFF3111601A79A4
:104AF000DB7900230F4A13700F4A13700F4B1B68AA
:104B0000002B02D00E4A12781A7110BD3480044076
:104B1000440E002080E100E000C0064005030020B4
:104B200008C0044010C004400603002014C0044024
:104B30000CC00440B00E0020450E0020400E0020A6
:104B40006E0E002070B505000C4B1C78E4B2002CF2
:104B5000FBD128000121FFF769FD28002100FFF7A4
:104B600033FD0C236B431800054A064B815810187F
:104B70001960027A044B1A7070BDC046440E0020C2
:104B8000AC970000B40E0020AF0E002010B5002935
:104B900001D080231843154A1478A04224D0144B26
:104BA0001B68DB041FD57F232340082B04D0142B64
:104BB00005D100240F4B01E000240F4B1C60602343
:104BC000002900D11C3B7F210140082906D014296F
:104BD00009D1C02189000B43064903E0C0218900A7
:104BE0000B4305490B60107010BDC0460603002042
:104BF0003480044014C004400CC004400E4A1378B2
:104C0000834218D00D490968C90413D5062B04D076
:104C1000072B05D100210A4B01E00021094B196047
:104C2000062804D0072805D10749054B01E00649AD
:104C3000044B196010707047050300203480044055
:104C400008C0044010C00440130300000E4B70B5B0
:104C50001A680023D20415D50C4C1A2811D80C223E
:104C6000130043430A490B4D5A58CB181B7A0121B4
:104C700022602B70FFF7DAFC23682A781A7201236E
:104C800000E02360180070BD34800440400E002016
:104C9000AC9700006E0E002000207047F8B51F4B47
:104CA00006001B68DB0437D51D4B1B68002B02D0A8
:104CB0001C4A12781A711C4D2C780134272C0AD901
:104CC000002408E0FFF7ECFB402815DC17490B79BE
:104CD0005BB2002B04DB164F3B78A342F2D010E00E
:104CE0003B780133272B00D90023124AD25CDBB278
:104CF000D2B2CA713B70EEE7FF28ECDD01F070FC28
:104D0000E9E701220B4BF6B21E550B4BE4B21A70C9
:104D1000064BAB322C70DA70F8BDC04634800440CC
:104D2000B40E0020AF0E0020B80E002000C00640D8
:104D3000B10E0020460E0020440E002070B5040085
:104D40004518AC4204D02078FFF7A8FF0134F8E7FB
:104D500070BDFFFF10B5044B1B78002B02D001F093
:104D60003FFCF8E710BDC046440E0020064B187803
:104D7000064BC2B21B78D8B2824201D3273000E082
:104D80000138801A7047C046B80E0020B10E0020CE
:104D9000054B1878054BC0B21A78D3B2984200D2AE
:104DA0004030C01A7047C046B00E0020450E0020AB
:104DB00010B5124B12491A780878D2B2C3B29A428F
:104DC00018D001333F2B00D900230E48C45CD8B261
:104DD00008700D49E4B20968200000290CD0934204
:104DE00000D94032D31A20001A2B05DC074B1B7860
:104DF0000B7201E00120404210BDC046B00E002001
:104E0000450E00206F0E0020400E00206E0E002088
:104E1000084B1A78084B1B78DBB29A4207D0013353
:104E20003F2B00D90023054AD05CC0B201E001202D
:104E300040427047B00E0020450E00206F0E00204B
:104E4000064B074A1B78DBB21370064B1B68002B1E
:104E500002D0054A12781A727047C046450E0020EB
:104E6000B00E0020400E00206E0E002030B52C4AFF
:104E700013799B0623D52B4BD47918781900013070
:104E8000E4B200233F2800DC030027480078834277
:104E900003D02648C454D8B20870254908680028B1
:104EA0000DD024490978C9B28B4201D35B1A01E0C5
:104EB0005B1A4033272B02DD1F4B1B780371D1781F
:104EC0001748C9B24BB2002B17DA03795BB2002B3B
:104ED00013DA1A4B174C1D782378DBB29D4202D1AE
:104EE0006C23C37009E00133272B00D90023144839
:104EF000C05CDBB2C0B2D0712370402319420ED027
:104F0000117919420BD000210E4B19700E4B1B6802
:104F10008B4202D00D49097819722C23D37030BD11
:104F200000C00640B00E0020450E00206F0E00208D
:104F3000400E0020B10E00206E0E0020B80E0020A2
:104F4000460E0020440E0020B40E0020AF0E0020BC
:104F50000223F0B50A4A0B4E1478C8272343DB001E
:104F6000F518686008480578002D00D1403F090415
:104F70000F43F75001235D405C4005701470F0BD95
:104F8000400F002000F8FF1FD00F0020431E10B577
:104F90000020062B0ED872B6074A990088580028C0
:104FA00007D044685B008C50044904885A5A121B8D
:104FB0005A5262B610BDC046240F00203C1000209B
:104FC000431E0020062B09D872B6054A9B009B5849
:104FD000002B02D001305B68FAE762B67047C0462A
:104FE000840F0020F8B572B60123174A08259446AD
:104FF0001E00164964465A1EA25C2A421AD05F015E
:105000007C589A00002C05D1CB1908305860104B01
:10501000CB5109E03243D2005458002C0AD18B18EE
:10502000083058600B4B8B500B4A1378013B1370C0
:1050300062B608E00133082BDCD162B60022064BD1
:105040001A7000F0F7FDF8BD7C99000000F8FF1F12
:1050500088004000C8004000C60F0020421E10B566
:10506000062A30D8022380001843174BC0001B18B3
:1050700072B6164CA05C03280BD802F0EFFC1604A5
:105080000207052012E0083302200FE00833042055
:105090000CE00F48920014580E4B002C01D1115017
:1050A00001E09858416099500CE00320A0540A0098
:1050B00008325A60C822180700D4403A0988090407
:1050C0000A431A6062B610BD00F8FF1FDC0E002014
:1050D000840F0020A00F0020F7B5BC4B1C781D00EA
:1050E0000423E4B21C421DD0B94B1B78002B16D010
:1050F000B84A1378DBB2002B05D0013BDBB213704A
:10510000002B00D100BEB44A1378DBB2002B06D0CE
:10511000013BDBB21370002B01D100F04BFF0422E6
:10512000AA4B1A700822224000D17DE2AB4BAC4F53
:105130001B78DBB29C08E4001D093C19002D00D04F
:1051400003E2236865689806000F01380C2800D92F
:10515000F7E102F08DFCA801A801F601F601F601C5
:10516000F601F601F601D301F601F601F6010D0094
:1051700000229C486B68026001209B4E2968736086
:105180009A4B316023609A4C89B22070994C3A61F5
:10519000BA610193A1421BD8D023DB00994200D30E
:1051A000F0E081235B00994200D1CDE006D8802950
:1051B00000D1B2E0822900D1B4E003E18E4B9942E4
:1051C00000D1D0E0FF33FF33994200D140E1F9E054
:1051D0008A4B994200D13BE111D8223BFF3B9942D7
:1051E0001AD0874B994200D15AE1A13B994200D095
:1051F000E8E0774B834C1B78237003002CE1824B53
:10520000994200D1D3E0814B994200D120E1804BFB
:10521000994200D0D6E043E13C00B2786C4B7D1C53
:105220001A702034FF3580222368134203D060684F
:10523000083800F0FFFC0834AC42F4D1002425000B
:10524000744BE058002805D04368009300F0F2FC4E
:105250000098F7E76F4B18516F4BE0506F4BE058D9
:10526000002805D04368009300F0E4FC0098F7E7BD
:105270006A4B6B4A18516B4BE0506B00D0526A4B33
:10528000E85C0238032807D802F0E8FB02040204B5
:10529000002200E001225A5501350434072DCFD1F8
:1052A00000230124614D2B70614B6249621EE3189B
:1052B0008A5C9B001A7008231A4220D000F09CFCE4
:1052C0006301002805D0FA18083050605A4AFA5095
:1052D00003E0F8502B7801332B7000F08DFC012295
:1052E000A3001343DB00002805D0FA1808305060F3
:1052F000019AFA5003E0F8502B789B182B7002218A
:105300000023A2001143C9007B5003210A438A40B5
:105310000134BB50082CC7D19DE03A4C02232270C7
:10532000627099E07F23B1880B40072B4AD8354C37
:105330009B0022706270414A9B181A7802231A421D
:1053400000D189E0207087E07F23B2881A40072AC5
:1053500038D87388002B35D1022038499200521872
:10536000117881432CE07F23B2881A40072A29D87C
:105370007388002B26D102203049920052181178F0
:1053800001431DE07288B1882D4B5C68002C19D058
:105390001888904209D15888884206D1120A032AF7
:1053A00001D1237858E01B8956E00C33EDE7B38830
:1053B000002B4FD1234A1168234A1160B178234A48
:1053C000117048E00F221D4B1A7069E080200740E1
:1053D000CF0F0020410F0020DD0F0020902007405C
:1053E00000F8FF1FBC0E0020BC0F0020C8004000CA
:1053F000D00F00208106000002030000210A0000F7
:1054000021090000C70F00202122000021230000F5
:1054100021200000240F0020C00E0020840F002057
:105420003C100020A00F0020DC0E0020C60F002042
:1054300030C801107C99000088004000C02007405F
:10544000849900003C0E00206C100020EC0F00201E
:10545000002300E013001C00F5889D4200D91D00C8
:105460002E00402D00D9402620003100FFF770FDAE
:10547000A419AD1B03D12F00402E04D010E040270B
:10548000AF4200D92F0020003900FFF761FDE41979
:10549000ED1B01D1402F03D17F4B1C607F4B1D8042
:1054A00001227F4B4CE07F4E7F4B32889A4213D1D2
:1054B000B388002B0CD17D4AE95CD1540133072B12
:1054C000FAD113680735862B02D10F22784B1A7058
:1054D00000210800FFF73CFD764B32689A420AD162
:1054E000754B72689A4206D100212A78734B0800E6
:1054F0001A70FFF72DFD724B236022E0664F3E6865
:10550000002E13D0654B1C882500402C00D9402567
:1055100029003000FFF71CFD641B604BA4B21C8007
:10552000002C01D1402D00D174193C60A0225D4BAC
:10553000D2001988914204D100225A709A78614BA6
:105540001A700122564B1A706AE008226068013D09
:105550000838EDB2134037D000F06CFB5A49A80070
:1055600042585A4B002A1CD0566846501100585DCC
:105570000831616003280BD802F070FA02040608B3
:10558000032104E0022102E0052100E00421595535
:105590000821C8230C4200D1403B12881204134357
:1055A0003DE0585D032808D802F058FA3A3A020460
:1055B000002200E001225A5532E008221440621E07
:1055C000944102345C552BE02268110C8AB20280AF
:1055D00000291ED03E4943804360AB005F583D4EDA
:1055E000002F01D1585001E0F15848603A496D0050
:1055F000F0506B5AD2186A5200F0FEFA002802D01E
:105600000830606005E0354A20601378013313707C
:1056100006E008231C4201D1314B00E0284B2360F7
:105620000822304B1A7058E5012004421ED0022394
:105630001B492B4C0B702C4B2C4E1A702C4B1C60A6
:105640009C602C4C1A61DC600D249A615E602A4BD0
:105650001C70FF23294C23701A4C2B702270284A8F
:1056600013709F22274B1A70087013E063B2002B4F
:1056700004DA0D22204B1A7080232B700222144270
:1056800004D01E490B78DBB20B702A7010231C4229
:1056900000D02B70F7BDC046BC0E0020C40F002008
:1056A00094200740BC0F002021200000641000203F
:1056B000410F00202109000202000100DA0F002042
:1056C000C800400098200740840F0020DC0E002016
:1056D000240F0020C00E00203C100020C60F002028
:1056E0008800400080200740400F0020E40E00208A
:1056F00000F8FF1F440F0020C0200740882007400B
:105700008C2007408420074010B501F001F80022EA
:10571000802011001B4B4000D1509C180832616062
:105720008242F9D180201849C0020A6802430A6007
:105730001A0A1649D2B20A701A0C1549D2B20A7066
:10574000144A1B0E1370FF23134A00201370134AD0
:1057500013491370134A137001220A70124908701A
:1057600012490A70124A116899430B0070210B43C9
:10577000136080220F4B52041A6010220E4B1A70D5
:1057800010BDC04600F8FF1F348004409C20074035
:10579000B0200740B4200740802007408820074001
:1057A0009420074010200740002107408420074034
:1057B00018E400E000E100E00821074070B5174C54
:1057C000174B1B78002B25D00620FFF7F9FB154E51
:1057D000022803D9013C002C13D115E000F00CFA8B
:1057E000051EF7D0002434700C260F493200083013
:1057F00003F0FEF906202E802900FFF72FFC200081
:105800000AE03378002B02D00123337002E000F06D
:10581000E7FED5E70120404270BDC04629320000B6
:10582000CF0F0020D10F00204C10002010B5224CCB
:10583000224B1B78002B3BD00720FFF7C1FB03282E
:1058400004D9013C1E4B002C29D12BE000F0D4F9E7
:10585000011EF6D01B48038842880B729B059400FA
:105860009B0F23434B72838892051C01120F224326
:105870008A72C2889B0590019B0E0343CB72124B28
:1058800092080A731A7807204A735A788A739B78A9
:10589000CB7308230B80FFF7E1FB00200AE01A78A6
:1058A000002A02D001221A7002E000F099FEBFE740
:1058B0000120404210BDC04699530000CF0F002088
:1058C000D90F00205C1000205810002003001F2872
:1058D00007D828200A2B0BD000200B2B08D12B3007
:1058E00006E000207F2B03D80248C318203B18781D
:1058F0007047C0464C97000070B5184C184B0120FB
:105900001B78002B28D0FFF75BFB032804D9013C50
:10591000144B002C16D118E000F06EF9051EF6D0DD
:105920000024114B44721B78062203720F490A307F
:1059300003F05EF9082301202B802900FFF78EFB7E
:1059400020000AE01A78002A03D0012201201A70F0
:1059500002E000F045FED1E7404270BD99530000DF
:10596000CF0F0020D90F0020D80F0020D20F002029
:1059700070B500290BD0134A13781C000C40A142CB
:1059800005D00B4313700122002803D116E0002834
:1059900016D0002200230C4C1D5D210085420BD047
:1059A0000133062BF8D10023CC5C002C01D1C85464
:1059B00004E00133062BF7D1002A01D0FFF79CFF4A
:1059C00070BDC046D80F0020D20F002010B5020ACB
:1059D000C12A4DD9D3B2DF2A07D8F8223F219B0133
:1059E000D20013400840184342E0F02B02D1C0B26D
:1059F000002146E0E02B02D1C1B2002041E0E22BC1
:105A000019D1C0B200283ED01F4B1C78A0423AD01A
:105A10005978884237D09A78904234D0002C05D0FB
:105A2000002905D0002A2ED1023202E0002200E037
:105A30000122985415E01C33DBB2032B23D88005D8
:105A4000800D20D000231149CC5A0A0084421AD07C
:105A50000233082BF8D100235900545A002C03D1EB
:105A60005052FFF7E3FE0EE00133042BF4D10AE0BD
:105A7000FFF72CFF002806D03F234106C90F49003D
:105A80001840FFF775FF10BD581000205C10002073
:105A900070B500290BD00E4A13780B4207D08B4308
:105AA00013700122002805D1FFF726FF0FE0002820
:105AB0000DD0002200231C0006495D5C854201D107
:105AC00001225C540133062BF7D1002AECD170BDC2
:105AD000D80F0020D20F002010B5020AC12A41D9E8
