:1000000000180020C100000025760000E9750000FE
:10001000E9750000E9750000E9750000E975000068
:10002000E9750000E9750000E9750000257600001B
:1000300025760000E975000099790000697A0000D2
:100040002576000025760000257600002576000044
:100050002576000025760000257600002576000034
:1000600095560000257600002576000025760000D4
:100070003977000011780000F15E0000257600005D
:100080002576000025760000257600002576000004
:100090002576000025760000897100002576000095
:1000A0005D610000257600002576000025760000C1
:1000B00025760000257600002576000025760000D4
:1000C000F8B507F0B3FA0821474A484B1A60484A86
:1000D000484B1A60484A494B1A60494B1A780A4201
:1000E00002D01A780A431A702A22464B46481A70E0
:1000F00000234649464C1A188A4203D2E558043375
:100100001560F8E70021434B434A934201D202C3F2
:10011000FBE70023414A424958589446985004331B
:10012000C02BF9D100210326FF2580248A083D4BEE
:100130009200D2180B002F003340DB009F40106864
:100140000131B84307002000984003003B4313608F
:100150002029EBD16246344B1A608A22334B1A7045
:10016000334B663A5A707C321A709E3A9979114232
:10017000FCD0102299791142FCD10C209A792C499B
:100180000240082AFAD1053A0A713D324A71203AF2
:1001900099791142FCD0402299791142FCD025492D
:1001A000254A11602021224A117014399A790A4097
:1001B0000C2AFBD1214A224B1A60224A224B1A6098
:1001C0000022224B1A60224B07321A60214A224B2E
:1001D0001A6062B605F05CFD0CF032F907F02CFAFB
:1001E00007F086F9FEE7C046300004F03480044092
:1001F000823F0000388004400100000F3C80044032
:1002000002D0074000E0074030020020D80500205F
:100210005CD90000D8050020A412002000F9FF1FBF
:100220000000000000E400E008ED00E0005006409F
:10023000004006400000011044800440C000050555
:10024000048004407FBB000014E000E018E000E000
:1002500010E000E00000202020ED00E0FFFFFFFFA5
:10026000FFFFFFFFFFFFFFFFFFFFFFFFFFFFFFFF9E
:10027000FFFFFFFFFFFFFFFFFFFFFFFFFFFFFFFF8E
:10028000FFFFFFFFFFFFFFFFFFFFFFFFFFFFFFFF7E
:10029000FFFFFFFFFFFFFFFFFFFFFFFFFFFFFFFF6E
:1002A000FFFFFFFFFFFFFFFFFFFFFFFFFFFFFFFF5E
:1002B000FFFFFFFFFFFFFFFFFFFFFFFFFFFFFFFF4E
:1002C000FFFFFFFFFFFFFFFFFFFFFFFFFFFFFFFF3E
:1002D000FFFFFFFFFFFFFFFFFFFFFFFFFFFFFFFF2E
:1002E000FFFFFFFFFFFFFFFFFFFFFFFFFFFFFFFF1E
:1002F000FFFFFFFFFFFFFFFFFFFFFFFFFFFFFFFF0E
:10030000FFFFFFFFFFFFFFFFFFFFFFFFFFFFFFFFFD
:10031000FFFFFFFFFFFFFFFFFFFFFFFFFFFFFFFFED
:10032000FFFFFFFFFFFFFFFFFFFFFFFFFFFFFFFFDD
:10033000FFFFFFFFFFFFFFFFFFFFFFFFFFFFFFFFCD
:10034000FFFFFFFFFFFFFFFFFFFFFFFFFFFFFFFFBD
:10035000FFFFFFFFFFFFFFFFFFFFFFFFFFFFFFFFAD
:10036000FFFFFFFFFFFFFFFFFFFFFFFFFFFFFFFF9D
:10037000FFFFFFFFFFFFFFFFFFFFFFFFFFFFFFFF8D
:10038000FFFFFFFFFFFFFFFFFFFFFFFFFFFFFFFF7D
:10039000FFFFFFFFFFFFFFFFFFFFFFFFFFFFFFFF6D
:1003A000FFFFFFFFFFFFFFFFFFFFFFFFFFFFFFFF5D
:1003B000FFFFFFFFFFFFFFFFFFFFFFFFFFFFFFFF4D
:1003C000FFFFFFFFFFFFFFFFFFFFFFFFFFFFFFFF3D
:1003D000FFFFFFFFFFFFFFFFFFFFFFFFFFFFFFFF2D
:1003E000FFFFFFFFFFFFFFFFFFFFFFFFFFFFFFFF1D
:1003F000FFFFFFFFFFFFFFFFFFFFFFFFFFFFFFFF0D
:10040000FFFFFFFFFFFFFFFFFFFFFFFFDEF9FFFF23
:1004100010B5064C2378002B07D1054B002B02D0DA
:10042000044800E000BF0123237010BDD805002060
:10043000000000005CD90000084B10B5002B03D071
:100440000749084800E000BF07480368002B00D1B7
:1004500010BD064B002BFBD09847F9E700000000C9
:10046000DC0500205CD90000D80500200000000059
:1004700070B5040008000D000CF017F923680200A5
:1004800029005B682000984770BD10B5FFF7F0FFAA
:1004900010BD70B5050006F0D1FE0400280006F07E
:1004A0008DFE001970BDFFFF70B5274B1B78002B28
:1004B00048D0264E33785A1C32700A2B42D9244C2D
:1004C00024492000FFF7E1FF234B2000196806F0C4
:1004D000B5FE224D20002900FFF7D7FF204B20005A
:1004E000196806F0ABFE29002000FFF7CEFF1D4B78
:1004F0002000196806F0A2FE29002000FFF7C5FFC2
:10050000194B2000196806F099FE29002000FFF71A
:10051000BCFF164B2000196806F090FE2900200051
:10052000FFF7B3FF124B2000196806F087FE290081
:100530002000FFF7AAFF0F4B20001968FFF7A9FF63
:100540000023337070BDC04604060020F60500206D
:100550001C0300207EC700000006002086C70000A4
:10056000180600201C060020080600202C0600208B
:10057000EC07002050060020F0B5724B85B01878CB
:100580001900714D714C00281CD10423CA5E2B68E0
:1005900056429E4201DDD31802E09A4202DA9B1ACB
:1005A0002B6000E028600623CA5E2368514299420E
:1005B00001DDD31804E09A4201DA9B1A00E000231F
:1005C0002360BCE02868236840435B43C0180BF0FD
:1005D000F9FD07F0E9FA0026002700900191009A42
:1005E000019B5B490A604B600098019932003B0017
:1005F00009F054F902960397002852D128680BF0AD
:10060000E1FD009A019B0AF095FB06000F002068AF
:100610000BF0D8FD009A019B0AF08CFB32003B00E6
:1006200007F0BEFA4B4B18605960494B28681A68AE
:100630005B68009201930BF0C5FD009A019B490095
:100640004F0839000AF076FB3E4B06000420185E86
:100650000F000BF0B7FD02000B00300039000AF06C
:100660008DFF060020680F000BF0ACFD009A019B87
:1006700049004D0829000AF05DFB324B04000620BA
:10068000185E0D000BF09EFD02000B0020002900FB
:100690000AF074FF02000B00300039000AF01EF867
:1006A00009E02C4B0299039A19605A60254B0420EB
:1006B000185E0BF087FD284B254C186059602268A6
:1006C00063680092019300980199234B1E685F684C
:1006D00032003B0009F0E8F8002804D0029A039B9E
:1006E0002260636007E03200009801993B000BF044
:1006F000BFF920606160174B1C685D68200029000D
:1007000007F006FA124B009001911E685F68200006
:10071000290007F0B7F902000B00300039000AF099
:100720002DFF0BF019FD084B320018603B000098BC
:1007300001990AF023FF0BF00FFD044B186005B080
:10074000F0BDC04642020020EC0700205006002009
:1007500038060020100600204806002010B503F0DF
:1007600015F8012002F090FC042002F08DFC02201C
:1007700002F08AFC0023024A1370024A137010BD73
:10078000280F00204C0F002070B500F059FC354CAC
:100790002378012B07D1344D34492800FFF768FE38
:1007A000280006F00BFD324804F0E2FC314B00213A
:1007B000187805F03FF9304E3049307805F0A0F850
:1007C0002F4D0121287805F035F92878002105F012
:1007D000FFF83078012105F02DF92878002105F087
:1007E000F7F80025274B0221E85C013505F022F9D6
:1007F000032DF7D10025244B0121E85C013505F0DC
:1008000019F9032DF7D1FFF7A9FF00F0A9FD002387
:100810001A001E4E1E4899194A80191804330025E3
:100820000A604C2BF7D11B4B1D8000F0ADFD00F092
:10083000A5FC02F051FB2800012102F0F1F90A2287
:10084000154B25781A70154B0F321A70012D08D1EF
:10085000054C13492000FFF718FE29002000FFF780
:1008600018FE70BD220600201C03002088C700006F
:1008700094020020730200207202002000701447CE
:10088000400200207402002036020020B40B002039
:10089000CC0A0020180B002054060020400600203F
:1008A000C7C70000024B1870024B19707047C04652
:1008B000540600204006002070B5284B1A78284BBB
:1008C0001878002A45D0002105F082F8254A1178D1
:1008D000002918D1244D254C2B782078DB0700D532
:1008E000012105F075F82B786078013300219B0712
:1008F00000D4012105F06CF82B78A0780133002199
:100900005B0727D425E01A4B1C78002C1ED101264A
:10091000184801390078154DC9B21870117028783F
:10092000314209D0210005F053F86878210005F024
:100930004FF8A87821000DE0310005F049F86878FB
:10094000310005F045F8A878310003E0013C1C7047
:1009500002E0012105F03CF870BDC046880200208D
:100960004002002054060020280600203602002005
:10097000F007002040060020F8B5164B1E88002E18
:1009800026D0154D2B88002B02D0012B0BD01FE059
:10099000124B09201A88124B198806F0FDFC2B888F
:1009A00001332B8014E00F4F0C4B3C8818880E4B02
:1009B00001341B88A4B23C80C018052108F072FEE7
:1009C000844205DD034B013E1E8000232B803B80CB
:1009D000F8BDC04630060020F207002026060020A1
:1009E0004206002020060020F4050020F7B50E2066
:1009F00004F000FF6F4D2860152004F0FBFE6E4CE4
:100A00003221E37D584308F0C3FD6C4B80B2019561
:100A100000946B4D984201D8286001E0674B2B6031
:100A20002B68002B01DA00232B60142004F0E2FE77
:100A3000009B32219B7D584308F0AAFD5F4B80B29A
:100A4000604C984201D8206001E05C4B2360236831
:100A5000002B01DA00232360172004F0CBFE009B5B
:100A600032215B7E584308F093FD544B80B2564EC2
:100A7000984201D8306001E0504B33603368002B5E
:100A800001DA00233360162004F0B4FE009B32210B
:100A90001B7E584308F07CFD484B80B24B4F984278
:100AA00001D8386001E0454B3B603B68002B01DA20
:100AB00000233B60009BDB8BB42B11D087225200BC
:100AC000934218D05A2B21D12A68414B1A603368BF
:100AD0002B60236833603D4B19681A60216015E074
:100AE00022682B682A60394A3949236013680B60F1
:100AF0003168116009E02B68354A1360334A116888
:100B000029602168116032682260336006F094F930
:100B1000002806DD06F048F92E4B186004F052FA62
:100B2000F4E72D4B1B78002B3DD02C4A1388002B6B
:100B300012D13A6833689B1A294A0021525E9B1AE7
:100B4000284A136022682B689B1A274A0021525EAC
:100B50009B1A264A136015E0013B9BB21380002BC1
:100B600010D11A4A3368126821689A1A009B12B28F
:100B70005A832B685B1A00991BB28B8318490A8031
:100B8000194A1380FFF790FCFFF7F6FC019B1A68E7
:100B9000164B1968134B186803F0E8FC144B1868DF
:100BA00005F05CF801E000F0F3FDFFF785FEFFF7CC
:100BB000E3FEF7BD0006002042020020FF03000014
:100BC000180600201C060020080600202C06002025
:100BD00058060020F805002088020020340200207A
:100BE00024060020EC0700202A06002050060020E2
:100BF0003C020020013810B50A283FD808F0B4FCA8
:100C00000B0F24260608313429382C00C82200E0B6
:100C10006422C82123E0C822C82152002BE0184AD0
:100C20001388002B2AD1FA2089B2C8334B43C00065
:100C30001B181448013103809620134B1180188033
:100C4000124B6438188019E0C82200E06422962113
:100C500005E01E220E490EE0FA22AF2152004900A3
:100C600009E005220B4906E0FA210522090102E00C
:100C7000FA22E6211201092006F08EFB10BDC046C3
:100C8000300600204206002026060020F405002041
:100C9000C40900008813000010B504F019FE10BD4F
:100CA00070B50500FFF7E4FB0400280006F086FAA3
:100CB000001970BDD2B270B50500002A03D10368D7
:100CC0001B68984714E00A2A01D0012A04D10022A7
:100CD000280006F085FA0BE0102A02D106F0B7FAD8
:100CE00006E0022A02D106F0C8FA01E006F0D8FABE
:100CF0000400280006F062FA001970BDF0B53B4B05
:100D000085B01B7800900E000192394D012B27D140
:100D1000384C39492000FFF7C3FF38492000FFF75E
:100D2000A7FB102229782000FFF7C4FF34492000D8
:100D3000FFF79EFB0099200006F080FA314F20005B
:100D40003900FFF795FB3100200006F077FA3900F3
:100D50002000FFF78DFB0A2201992000FFF7AAFF70
:100D6000294A009B1168294C8C4663441360236810
:100D700027489B1923602978036816000090254AAC
:100D8000994207D11168244B02911B6802992833BC
:100D90008B4228D8FF271368FD200393039A1E4B2C
:100DA0001A6005F045F8002005F042F8032005F030
:100DB0003FF8287805F03CF83068384005F038F8FE
:100DC0002068384005F034F8002005F031F80020A4
:100DD00005F02EF8002005F02BF80023009A336070
:100DE00023602B78136005B0F0BDC04622060020BA
:100DF000040800201C030020D1C70000E3C7000046
:100E0000EFC70000FCC70000F8070020FC07002027
:100E10000C080020740F00200008002010B5054ABF
:100E2000137818431070002211001000FFF766FFBE
:100E300010BDC0460408002010B5054A137883434E
:100E40001370002211001000FFF758FF10BDC046BC
:100E500004080020034B1B781840431E9841C0B281
:100E60007047C0460408002070B5294B294E1B78F6
:100E7000294C012B2FD1294D29492800FFF710FFBC
:100E800028492800FFF7F4FA102231782800FFF7EC
:100E900011FF25492800FFF703FF217810222800C1
:100EA000FFF708FF617810222800FFF703FFA17801
:100EB00010222800FFF7FEFEE17810222800FFF73D
:100EC000F9FE217910222800FFF7F4FE6179102243
:100ED0002800FFF7EFFEFD2004F0AAFF307804F0B1
:100EE000A7FF002004F0A4FF207804F0A1FF6078A1
:100EF00004F09EFFA07804F09BFFE07804F098FFD8
:100F0000207904F095FF607904F092FF70BDC0462F
:100F10002206002005080020060800201C030020EF
:100F2000FEC7000013C8000020C80000C2B270B5A0
:100F30000012E02804D10A490B781A430A700CE029
:100F4000F0280AD100230748195C1C00050000297D
:100F500002D001338A42F7D12A55FFF785FF70BDD1
:100F6000050800200608002010B5C1B202120023B7
:100F7000E02A04D10C4A13788343137010E00B4A23
:100F80005C1CD3181878884201D02300F7E7991A1F
:100F9000052903D0597819700133F8E700235371FC
:100FA000FFF762FF10BDC0460508002006080020BC
:100FB000002310B5054A137053709370D3701371EA
:100FC0005371034A1370FFF74FFF10BD060800204E
:100FD00005080020F7B5002680270190019B9B5D46
:100FE000002B25D05AB2002A08DB124AD45C4023D9
:100FF0001C4204D04023104D9C4305E000240025F2
:101000003C4204D00D4DBC432800FFF78FFFF02376
:101010001B021C432000FFF789FF2000FFF7A4FFFD
:10102000002D02D02800FFF79FFF0136B6B2D5E7AA
:10103000F7BDC046A8D2000002E0000040E000007A
:1010400010B5074B1B78012B03D106490648FFF763
:1010500027FE9C2004F084FE0122044B1A7010BD70
:101060002206002031C800001C030020F4070020E5
:10107000024B1878431E9841C0B27047F407002015
:1010800010B501210C2004F0D5FC01210C2004F046
:101090009FFCFA20000104F0E1FD0C20002104F087
:1010A000C9FC10BD07B504F013FC034B1B6801938A
:1010B000019A024B1A6007BD740F0020000800203F
:1010C000F8B5144E8700BD59281E21D00BF0EDFA5B
:1010D000AF23114A9B000130521B84B2D218121B5D
:1010E00092B2291928000BF0EEF90023BB51F258F7
:1010F000954201D2121BF25004334C2BF7D1074B0F
:101100001888001B80B21880AF239B00181A80B289
:10111000F8BDC046CC0A002010080020180B0020A3
:10112000F8B50F000500FFF7CBFF104B38001C8807
:101130000BF0BBFA0E4A23180020934214D80D4E30
:101140003900361930000BF0A8FA0B4BAD0038000F
:10115000EE500BF0AAFA0134044B201880B218802C
:10116000AF239B00181A80B2F8BDC046180B0020B0
:10117000BA02000010080020CC0A002070B5192324
:101180001B251226154C16492380A5802581A68192
:101190000320FFF7C5FF268212490420FFF7C0FF96
:1011A000A68211490520FFF7BBFF26830F490620C1
:1011B000FFF7B6FF4523A383423BA3841F33238558
:1011C000A31CDD872584A5852586A5862587A5877B
:1011D000A31D4834DD87258070BDC046B40B0020B8
:1011E00040C8000048C8000052C800005CC80000A9
:1011F00010B5064B8200064C99180220095E985CD7
:101200000123125900F03CFC10BDC046B40B002075
:10121000CC0A0020244A8000835A10B5392B26D0EE
:101220000ED8082B21D004D8062B18D0072B18D0A5
:1012300039E00F2B2FD0102B35D100221B4B2CE087
:10124000462B0ED004D83D2B29D0452B07D02AE0C1
:10125000472B0AD04C2B26D102F06EFA23E0012056
:1012600000E0022001F010FF1DE00420FAE7101852
:101270004388013BDBB21F2B15D801229A40130093
:101280000B490A689A430B4B0A601B78002B0AD162
:1012900005F0CEFA07E00022074B1A7003E0074B77
:1012A000C05803F054F910BDB40B00204C0F0020BF
:1012B0007C12002044110020280F0020CC0A0020BE
:1012C0000C4B8000C35A01209A1F022A10D9333ACE
:1012D00092B2132A05D80849D1400A00010091436F
:1012E00006D0002001220F3B9BB29A424041C0B27F
:1012F0007047C046B40B00201170080073B5164A41
:101300000500C000141866788E4220D1835C062B3D
:1013100012D80133DBB28354072B0DD1A378B3422B
:101320000AD0A6702800012E08D1FFF761FF0B4BF1
:101330001B680193019B636000240BE0FFF7C0FF73
:101340000124002806D02800FFF764FF02E0617046
:1013500000248454200076BD1C0B0020740F002054
:101360000021064A531C9932581E19705970017099
:10137000997008339342F7D17047C0461C0B002088
:1013800010B504F0A5FA10BD024B034A1A80034AB7
:101390005A807047040C00204054000001A4FFFF55
:1013A00010B5074C0721200005F070FD2000042136
:1013B000083005F06BFDA188024805F067FD10BDFF
:1013C000040C00206CC8000070B50425074C0721F0
:1013D0002000A58005F05AFD20002900083005F006
:1013E00055FDA188024805F051FD70BD040C002098
:1013F00068C80000002310B5054C07212000A38019
:1014000005F044FD20000421083005F03FFD10BD2B
:10141000040C002010B5084C0721200005F036FD13
:1014200020000421083005F031FD2000A1880C3097
:1014300005F02CFD10BDC046040C00200D4B0E4ADB
:101440001B6812680D499B1A0D4A9BB213731B123D
:1014500053730C4B09681B685B1A9BB293731B1286
:10146000D373094B1B6813741B12537406239380A8
:101470007047C046080600202C0600201C060020ED
:10148000040C0020180600200006002070B50E4D48
:10149000287804F0BDFA444244416878E4B204F08C
:1014A000B7FA002801D102231C43A87804F0B0FA4F
:1014B000002801D104231C43044B00201A78A242C7
:1014C00001D01C70013070BD74020020480C002057
:1014D00010B5FFF7DBFF034A034B12781A730122A2
:1014E0009A8010BD480C0020040C002070B5394CC7
:1014F000394B258962891D81A17906029971D1B282
:101500008E195E810100102319405FD1D2B2237978
:10151000112A1AD004D8002A07D0102A28D055E062
:10152000812A07D0822A08D050E0002B4ED1FFF745
:1015300037FF4DE0002B49D104E0002B46D1274A6C
:1015400001331370264A137040E0022D08D0032D9A
:1015500009D0002D3AD1002B38D1FFF735FF37E005
:10156000FFF76CFF01E0FFF7B3FFFFF753FF2FE03A
:10157000042D0FD0052D26D0012D27D1022B25D1EA
:10158000237B184A1380637B11881B02CB189BB204
:1015900013801BE0012B19D1257B134C20781D42B1
:1015A00000D1190004F014FA60780021AB0700D4D0
:1015B000012104F00DFAA07800216B0700D401216D
:1015C00004F006FA02E0094803F07AFCFFF712FF84
:1015D000012070BD280C0020040C00208602002091
:1015E00088020020240C0020360200205C06002027
:1015F00070B55D4C030020780F2800D9A8E007F0F3
:10160000B3FF08191E253438425A5E65697A9A9CE0
:101610009EA0402B01D13F3B9BE020229343412BD6
:1016200000D0A0E00021514A403B1170504A237085
:1016300013708FE0542B00D08AE0523B89E00021E8
:101640004C4A11704C4A5380032382E04A4A1B02E1
:101650005188CB189BB25380002B04D11021454AEE
:1016600013780B431370042373E0434A93800523DC
:101670006FE0414A1B029188CB189BB293800F2BDD
:1016800066D8062365E03C4ADDB295713B4A3C488A
:101690001178002901D0002309E07F21027801326E
:1016A0000A40934204D0334A7D3913780B431370B8
:1016B000057007234DE0304A1381082349E02E4A84
:1016C0001B021189CB181381092342E02A4A538156
:1016D0000A233EE02B4ADBB21370274A9288002A85
:1016E00005D00B2300222370274B1A6032E0DB0762
:1016F0002CD50C232DE0204A234D118905290AD130
:101700008C202968FF30814205D8204843540023AB
:1017100041184B7002E0296851180B732B68013394
:101720002B609288934215D1164B1B78DB070DD5A1
:10173000237801330DE00D230BE00E2309E00F2386
:1017400007E004210B4A13780B431370632300E076
:10175000002323702378632B05D1064B1878FFF7FD
:10176000C5FE0023237070BD680F0020490C0020C7
:10177000880200204A0C0020280C0020860200204D
:10178000000C0020260C00204C0C00205C060020E1
:1017900070B5184D2B88002B27D0174C23780133B8
:1017A000DBB2002B00D1802323700223134E338140
:1017B0002378B37120237381FFF740FEFFF72AFEE1
:1017C000FFF764FE002810D023780133DBB2002B32
:1017D00000D180232370032333812378B371202326
:1017E0007381FFF775FEFFF715FE288880B204F0BD
:1017F00035FA70BD240C002087020020040C002064
:1018000010B504F065F810BD70B50022050005F0B4
:10181000E7FC0400280005F0D1FC001970BDFFFFB3
:10182000F0B5774C85B077492000FEF72EFE76495B
:101830002000FFF735FA75492000FEF726FE744DAB
:1018400020006978FFF7E0FF72492000FEF71DFED7
:10185000A9782000FFF7D8FF6F492000FEF715FE9A
:101860000423E95E2000FEF714FE6C492000FEF719
:101870000CFE0623E95E2000FEF70BFE68492000FF
:10188000FEF703FE29892000FEF703FE65492000CC
:10189000FEF7FBFD69892000FEF7FBFD6249200091
:1018A000FEF7F3FDA9892000FEF7F3FD5F49200054
:1018B000FEF7EBFDE9892000FEF7EBFD5C49200017
:1018C000FEF7E3FD297C2000FFF79EFF5949200029
:1018D000FEF7DBFD698A2000FEF7DBFD564920009C
:1018E000FEF7D3FDA98A2000FEF7D3FD534920005F
:1018F000FEF7CBFD29782000FFF786FF5049200036
:10190000FEF7C3FDA97D2000FFF77EFF4D492000B3
:10191000FEF7BBFDE97D2000FFF776FF4A49200076
:10192000FEF7B3FD297E2000FFF76EFF4749200038
:10193000FEF7ABFD697E2000FFF766FF44492000FB
:10194000FEF7A3FDE98B2000FEF7A3FD0135414919
:101950002000FEF79AFDE97F2000FFF755FF3E4982
:101960002000FEF792FD3D492000FFF799F9002580
:101970003B492000FEF789FD082D03DC3949200092
:10198000FEF783FD013529002000FEF782FD364970
:101990002000FEF77AFD354EAB009E190193331FF0
:1019A0001F88334BBF00DF19390003A80AF075FE0A
:1019B00003A92000FEF769FDFB78002B18D0022B4D
:1019C0000DD9032B14D12B492000FEF75EFDAB008F
:1019D000294A043BD1582000FEF757FD08E025496D
:1019E0002000023EFEF751FD3188200005F026FC64
:1019F00022492000FFF754F9132DB9D105B0F0BDED
:101A00001C03002072C800007702002078C8000084
:101A1000420200207FC8000086C800008DC8000078
:101A200094C800009BC80000A2C80000A9C800001C
:101A3000B0C80000B7C80000BEC80000C5C800009C
:101A4000CCC80000D3C80000DAC80000E1C800001C
:101A5000E8C80000EFC80000F6C8000063020020DC
:101A6000FDC8000045CF000004C90000B40B0020F1
:101A700072CA0000FAC70000CC0A0020FBC70000B1
:101A8000F0B51500B74A0C001178E7B001901700C7
:101A900000293DD0B44B1B78012B22D1B34EB44961
:101AA0003000FEF7F2FC00223978300005F098FB98
:101AB000B0493000FEF7E9FC00220199300005F042
:101AC0008FFBAD493000FEF7E0FC2100300005F04F
:101AD000B5FBA9493000FEF7D8FC29003000FFF71C
:101AE000DFF869463878A54A013889888300995219
:101AF000D3185C80C0B2FFF7E3FA002D05D0387828
:101B000029000138C0B2FFF70BFB00233B708BE3C9
:101B1000019A4E2A00D987E3100007F02FFD4F00ED
:101B200054006E00780098008200A200A600AA006F
:101B3000BA00BE00C200C600CD00D300D600E0004F
:101B400094019B01B001B701BA01CD01E801FF0189
:101B50000402160285037603800323023C0252022C
:101B600056025A026E02710274027702B702BA027A
:101B7000BD02C002C302C602C902CC02FF021503A5
:101B80005E035B036B03EA00FD00070119014901D5
:101B9000550160016D016403A2017A027D02800299
:101BA000B302CF026803FB02A200A600AA00AE00A7
:101BB000B200B600A9013A035003230370496B48F1
:101BC000FFF76EF830E3FEF7C9FD674B1B78012B7A
:101BD00008D1664D6B492800FEF757FC210028000C
:101BE000FEF757FC631E9BB2122B01D83C701BE31F
:101BF00065495E48FFF754F816E3012001F05CFAEE
:101C0000082004F02BF8012001F03EFA0CE302203A
:101C100001F052FA082004F021F8022001F034FA11
:101C200002E3012001F048FA082004F017F801202F
:101C300001F02AFA082004F011F8012001F03CFA22
:101C4000082004F00BF8012001F01EFAECE2042059
:101C500001F032FA082004F001F8042001F014FA2F
:101C6000E2E2012001F028FADEE2022001F024FA8B
:101C7000DAE2042001F020FAD6E2012001F034FA81
:101C8000D2E2022001F030FACEE2042001F02CFA78
:101C9000CAE2012001F0F8F9C6E2022001F0F4F9ED
:101CA000C2E2042001F0F0F9BEE2384B187C404259
:101CB00040B201F045FAB7E21020344B185601F05B
:101CC0003FFAB1E2314B1C74AEE2002B02D0304B34
:101CD0001C70A9E21900200001F050FAA4E2002BC8
:101CE00002D02C4B1C709FE22100180001F046FA34
:101CF0009AE2294B29485A681040294A944200D94F
:101D00001400240104435C60264B1B78002B00D098
:101D10008AE204F08DFD87E21F4B23485A68104089
:101D20001F4A944200D91400A403EBE71C4B9C42C9
:101D300000D91C00184A2106536890681B021B0A30
:101D40000B4353600323240A984304439460DBE766
:101D5000114B16489A681040114A944200D9140059
:101D6000A4002EE0500C0020220600201C030020BE
:101D700008C9000092CD000086C70000B40B002007
:101D800021C9000031C9000054D2000042020020E5
:101D9000280F00204C0F00207C1200200FC0FFFFF6
:101DA000FF03000044110020FF3F00FF03F0FFFF8E
:101DB000C44BC5489A681040C44A944200D91400E4
:101DC000240304439C609FE7013CE4B21F2C00D92C
:101DD0002AE20123A340BB4A11680B430AE0013CFD
:101DE000E4B21F2C00D91FE20123A340B54A1168B9
:101DF00099430B00136087E70F23002C1CDB0023A3
:101E0000162C19DD0133432C16DD0133702C13DD44
:101E100001339D2C10DD0133CA2C0DDD0133F42C70
:101E20000ADD922201335200944205DD5222FF3234
:101E30000023944200DC07330F22A24948689043F4
:101E400003434B6060E7002D00D1EDE1280001F075
:101E500035FAE9E1002D00D1E6E1280002F068FB47
:101E6000E2E1002D00D1DFE1280002F06BFBDBE1B5
:101E7000002D00D1D8E1280002F06EFBD4E1002D46
:101E800000D1D1E1280002F062FBCDE1FEF766FC53
:101E9000CAE1FEF763FC002D00D1C5E12B78002BD1
:101EA00000D1C1E128000AF000FC0E2800D9BBE1F6
:101EB000280000F079FCB7E1002D00D1B4E1FEF775
:101EC0004DFC280000F0B2FE0022814B81491A70BF
:101ED000814BDA8A8A4203D1198B914200D1A3E166
:101EE000598B7E4A11809A8B7D4B1A809CE1FEF7BC
:101EF00035FC0223764D00242B7000F0EDFF00220C
:101F0000200001341100E4B200F06AFD072CF6D184
:101F100000200121287000F083FE85E1FEF71EFC01
:101F200001F052F880E16F4B694C1D78012D04D10E
:101F30006D496E48FEF7A9FA2570FEF70FFC0020E8
:101F400000F074FE002323706EE1664B1B78012BBA
:101F500003D167496548FEF7A3FEFEF7FFFB00F0DB
:101F60009BFA61E15C4BE4B21C705E4B1B78012B69
:101F700000D059E15D48012C03D15E49FEF790FE87
:101F800052E1012C03D95C49FEF78AFE4CE15B4922
:101F9000FEF786FE48E1534B1B78012B03D15849CD
:101FA0005248FEF77DFE0F210620FEF77BFC4A4BD0
:101FB0001A78002A02D101321A7035E100221A7013
:101FC00032E101224F4B1A702EE100224D4B1A7064
:101FD0002AE1444B1B78012B03D14B494348FEF7C0
:101FE0005FFE14210A20FEF75DFC6422474B0021AE
:101FF00001201A80FEF7FEFD16E1374B5C7013E1FD
:10200000354B9C7010E1344B9C800DE1324BDC80F1
:102010000AE1314B1C8107E12F4B5C8104E1314B1C
:102020001B78012B08D1314C39492000FEF72DFADD
:1020300029002000FEF734FE2B78002B00D1F3E0BE
:1020400000231A002978002911D03B2902D1002A47
:1020500004D10CE05C2901D1002A05D05A1C02A849
:10206000C154D3B2002200E001220135EAE7002288
:1020700002A90800CA5402F023FF2B785A1E93418C
:10208000ED18D9E7200003F0E9FDCDE0124B9C816B
:10209000CAE0114BDC81C7E00F4B5C82C4E00E4B01
:1020A0009C82C1E00C4B9C75BEE00B4BDC75BBE029
:1020B000094B1C76B8E0084B5C76B5E0064BDC8338
:1020C000B2E0C0467C120020FF0FC0FFFF030000FB
:1020D000FC050020323200004202002024060020CD
:1020E0002A0600202206002046C900001C0300200A
:1020F00055C9000062C900007BC9000097C90000F3
:10210000B7C9000004060020DBC90000340200202B
:10211000EDC90000454B0133DC7785E0444B1B786B
:10212000012B03D143494448FEF7BAFD002D7BD073
:102130002B78002B78D028000AF0B7FA0E2873D835
:10214000280001F033F96FE0394B1B78012B03D1E4
:102150003A493948FEF7A4FD002D65D0280001F06A
:10216000CDFA61E0324B1B78012B03D13449324860
:10217000FEF796FD002D57D02B78002B54D0280069
:102180000AF093FA0E284FD829002E480AF085FA53
:102190004AE0274B1B78012B03D12B492648FEF739
:1021A0007FFD002D40D02B78002B3DD028000AF079
:1021B0007CFA0E2838D8280001F0AEFA34E01C4B27
:1021C0001B78012B03D121491B48FEF769FD01F063
:1021D000B3FA29E001F098F926E0002D24D0280078
:1021E00001F096F920E0A0B201F0B2FA1CE001F093
:1021F000A9FA19E001220E4B15491A70154B9218D5
:102200000D481A70FEF74CFD0EE00123084A1249F2
:102210001370104A08481370FEF742FD04E00023D3
:10222000034A13700B4A137067B0F0BD42020020DE
:1022300022060020FCC900001C0300200ECA00007A
:102240001ECA0000630200203BCA00004BCA000007
:102250005BCA0000510C00206ACA000010B503F0F0
:1022600037FB10BD10B5002204F0BAFF10BD10B549
:10227000002204F0B5FF10BD10B503F029FB10BD1E
:10228000F8B51C4CA02223003B331A702300012711
:102290005E331F70230005000E00010A5D33C9B2D2
:1022A00020001F7002F014FFE9B2200002F010FFBE
:1022B0003100200002F00CFF3900200003F096F8F6
:1022C000052003F0CBFC0C4B1B78022B10D10B4CE0
:1022D0000B492000FEF7D9F829002000FFF7C7FFBF
:1022E00008492000FEF7D1F831002000FFF78CFAF2
:1022F000F8BDC04694020020510C00201C030020B1
:10230000AECB0000F9C70000F7B50D000024009027
:102310002A5D002A02D00134A4B2F9E734345649C8
:10232000A4B200238858C65C002E02D001339BB2B1
:10233000F9E70533E4180432A4B24C2AF1D14F4F27
:102340003B78012B00D08CE04D4E4E493000FEF71B
:102350009CF821003000FEF79CF8009B002B02D176
:102360009023494A1380009B474A5B00D45A3B782C
:10237000012B08D1424E45493000FEF786F8210076
:102380003000FEF786F870212000FFF779FF601C0F
:1023900080B20221FFF774FF0026A71CBFB23C4B9E
:1023A000B819995D80B20136FFF76AFF302EF6D179
:1023B00027003234A0B20021FFF762FF0026333736
:1023C000BFB2A95D01363800B6B2FFF759FFAB19AD
:1023D000013B7C1C1B78A4B22700002BF1D11D000F
:1023E00000262C4FEF19A019B95D80B20136FFF716
:1023F00047FF042EF7D1201D80B20021FFF740FFD8
:10240000661D1D4B9334FF345F59A3B2B6B20193DE
:1024100039783000FFF734FF3B78741CA4B2002BEE
:1024200003D104354C2DDBD105E0019B013726009B
:102430009C42EDD1F5E7009B062B03D1124B8E3366
:102440001C8004E0009B104A01335B00D45200243E
:102450000D4B2000195D0134FFF712FF902CF7D1CE
:1024600008E0009B002B00D17AE7009B064A5B0046
:10247000D45A88E7F7BDC046CC0A0020510C002092
:102480001C030020B8CB0000520C0020C3CB00007E
:1024900042020020B40B002070B5104B1B78012BBA
:1024A00003D10F490F48FEF7FBFB002426000E4D19
:1024B0000021605BFFF7E4FE605B00210130FFF765
:1024C000DFFE665302340E2CF1D10024295D20007A
:1024D0000134FFF7D5FE902CF8D170BD510C0020CF
:1024E000D4CB00001C030020520C0020F0B585B0B6
:1024F00002930400002301910392019AD25C002A06
:1025000002D001339BB2F8E7404F414D3B78012B9D
:1025100072D1404E40493000FDF7B7FF029B3000BA
:10252000D91CFDF7B6FF002C01D13C4BEB81231DDC
:102530005B00ED183B78EE88012B08D1354D38490A
:102540002800FDF7A2FF31002800FDF7A2FF3000B0
:102550006621B51E013EFFF793FEB0B2BB21FFF727
:102560008FFE0026ADB2019B2800995DFFF788FE23
:102570000136019BB6B29B19013B1B786F1EBFB29F
:10258000002B01D03D00EEE7AB1E9BB20299380054
:102590000193FFF775FE6B461B89039E02935B0058
:1025A000ED1A023DABB2019D0393039B9D420ED0F9
:1025B00031782800FFF764FE6F1E3188BFB2023DFC
:1025C000090A3800ADB2FFF75BFE0236EDE7029B69
:1025D000019A5B00D31A9BB20D4D3E2C03D00534FB
:1025E00064002C19E3800024295D20000134FFF7EA
:1025F00047FE902CF8D106E0002C96D0231D5B00FE
:10260000ED18EE88A3E705B0F0BDC046510C0020E0
:10261000520C00201C030020E7CB0000FF7F0000CD
:10262000F5CB000070B5234CA02223003B331A7079
:10263000230001265E331E7023000500010A5D336E
:10264000C9B220001E7002F043FDE9B2200002F082
:102650003FFD3100200002F0C9FE3300320050215E
:10266000200002F03FFF230022003933383219786E
:102670001378FE36994206D00026994203D9591C98
:102680001170E418267E0C4B1B78022B10D10B4CDA
:102690000B492000FDF7F9FE29002000FFF7E7FDB8
:1026A00008492000FDF7F1FE31002000FFF7ACF8EB
:1026B000300070BD94020020510C00201C0300204B
:1026C0000ACC0000F9C70000F0B5002485B00190E5
:1026D0002E4B6200D55A002D43D02800FFF7A2FFF1
:1026E00070283ED1681C80B2FFF79CFF022838D1C9
:1026F00000273335ABB2019D0393039B019A2E78DB
:102700009B1A5B1918000293FFF78CFF86421FD0BB
:102710001F4B1B78022B24D11E4E1F493000FDF7A2
:10272000B4FE39003000FFF7A2FD1C493000FDF770
:10273000ACFE287804F01AFC19493000FDF7A5FE1C
:102740000298FFF76FFF01003000FFF75DF808E027
:102750002B78002B03D0013701350F2FCDD160B27C
:1027600011E00134072CB3D1094B1B78012B08D1A0
:10277000084C0C492000FDF788FE01992000FEF767
:102780008FFA0120404205B0F0BDC046520C002037
:10279000510C00201C03002014CC0000FAC70000DC
:1027A00028CC00002BCC0000F8B50600FFF78CFF0A
:1027B000431C2DD10024174B6200D55AE7B2002DDF
:1027C00006D1154B1B78012B1AD1144D144910E07A
:1027D0002800FFF727FF702817D00135A8B2FFF7B0
:1027E00021FF022811D00C4B1B78012B08D10B4D77
:1027F0000C492800FDF749FE39002800FFF704F8CE
:1028000060B23100FFF780FD02E00134072CD2D125
:10281000F8BDC046520C0020510C00201C030020C3
:102820003ECC000049CC0000F0B5002485B00090FB
:10283000E3B2394A03936300D318DD89002D56D0E3
:102840002800FFF7EFFE662851D1681E80B2FFF71F
:10285000E9FEBB284BD10026023D009FADB23B787C
:102860000193AB1B18000293FFF7DCFE019B834230
:102870001FD02A4B1B78022B39D1294D294928001A
:10288000FDF703FE31002800FFF7F1FC2649280080
:10289000FDF7FBFD387804F069FB24492800FDF7BB
:1028A000F4FD0298FFF7BEFE01002800FEF7ACFF22
:1028B0001DE03B78002B03D0013601370F2ECED11F
:1028C000164B1B78012B10D1154D19492800FDF727
:1028D000DCFD00992800FDF7D8FD16492800FDF71A
:1028E000D4FD03992800FEF78FFF60B211E0013498
:1028F0003F2C9DD1094B1B78012B08D1084C0E4968
:102900002000FDF7C2FD00992000FEF7C9F9012063
:10291000404205B0F0BDC046520C0020510C0020D2
:102920001C03002014CC0000FAC7000028CC0000D3
:102930005ACC00004FCD00002BCC0000F8B5037836
:102940000700214C002B26D0FFF76EFF1F4BC5B2AE
:102950001B78012B10D11E4E1E493000FDF795FD4E
:1029600039003000FDF791FD1B493000FDF78DFD6A
:1029700029003000FEF748FF04356D006419E08837
:1029800090281FD9FF21FFF77BFCE088FF21013849
:10299000FFF776FC16E0250010490D48FEF780F998
:1029A0000E358C342888902807D9FF21FFF768FC62
:1029B0002888FF210138FFF763FC00232B800235B4
:1029C000A542EFD1F8BDC046520C0020510C0020AA
:1029D0001C0300206CCC00004FCD00007BCC00001D
:1029E000F0B585B005000292062800D900257C4F7D
:1029F000002935D06B000193FE5A7A4B1B78012BCE
:102A000008D1794C79492000FDF73FFD29002000CD
:102A1000FEF7FAFE741C3000A4B2FFF703FE702824
:102A20000CD102362000B6B2FFF7FCFD022804D11B
:102A30006B00FC5A6E4B1D7004E034000135EDB2A2
:102A4000072DD7D12000FFF7EDFD702800D0B2E0B0
:102A5000601C80B2FFF7E6FD022800D0ABE00EE07C
:102A60006D007C5B2000FFF7DDFD702800D0B4E036
:102A7000601C80B2FFF7D6FD022800D0ADE0023422
:102A8000A4B2584B1A780393012A08D1564D5949DC
:102A90002800FDF7FAFC21002800FDF7FAFC0025CC
:102AA000601980B2FFF7BEFD534B58550135302DEC
:102AB000F6D1524E31343700A4B22000FFF7B2FDF8
:102AC000651CADB230702C0001360028F5D14C4B9E
:102AD0001B78012B08D1444C4A492000FDF7D5FC56
:102AE00039002000FEF7DCF800260024F3B2019341
:102AF000454BB700FF18281980B2FFF793FD3855F2
:102B00000134042CF7D1281D6C1D80B2A4B2FFF74C
:102B100089FD00280BD0344F3C493800FDF7B5FC47
:102B2000601EFFF77FFD01003800FEF76DFE2000FC
:102B3000FFF778FD002814D000272000FFF772FD72
:102B40003349651CADB2C855002803D10198FEF782
:102B5000E7FA08E08E230137FF332C009F42ECD1C7
:102B6000F4E70635ADB20136132EBED1294B1A78E3
:102B70001D00002A01D0FEF753FE029B002B04D05B
:102B80001B4B02201978FEF735F8039B1B78002BAE
:102B900009D0154C20492000FDF777FC144B20008C
:102BA0001978FEF731FE2B78002B16D01B490E4802
:102BB000FEF776F811E03C882000FFF733FD70281F
:102BC0000BD1601C80B2FFF72DFD022805D1002239
:102BD000074B0234A4B21A7053E705B0F0BDC046EB
:102BE000520C0020510C00201C03002091CC00004E
:102BF00028060020A1CC000042020020770200201D
:102C000022060020C0CC0000B40B0020D0CC000075
:102C10005C060020FC050020E9CC0000E6CF0000A7
:102C200010B50122FFF7DCFE10BDFFFF70B5037881
:102C30000600002B04D1134B18780130C0B21AE003
:102C4000FFF742FD104B04001B78012B10D10F4DF4
:102C50000F492800FDF719FC31002800FDF715FC8D
:102C60000C492800FDF711FC21002800FDF711FC9C
:102C7000002C02DBE0B2012101E001210020FFF77E
:102C8000CFFF70BD28060020510C00201C0300203F
:102C9000F3CC00004FCD0000F7B507000091019282
:102CA000FFF7C2FD431C29D10025154A6B00D3183C
:102CB000DC89EEB2002C0AD02000FFF7B3FC6628B6
:102CC00019D0013CA0B2FFF7ADFCBB2813D00D4BCF
:102CD0001B78012B08D10C4C0C492000FDF7D5FBCB
:102CE00031002000FEF790FD019B009A3900300072
:102CF000FFF7FCFB02E001353F2DD6D1F7BDC04602
:102D0000520C0020510C00201C030020FECC0000BF
:102D1000F8B50025184A6B00D318DC89EEB2200004
:102D2000FFF780FC662822D1601E80B2FFF77AFC94
:102D3000BB281CD1114F12493800FDF7A6FB31000A
:102D40003800FFF78FFA023C0E493800A4B2FDF7B5
:102D50009CFB661E2000B6B2FFF764FC002803D07F
:102D600004F004F93400F4E7380004F027FA0135E0
:102D70003F2DCFD1F8BDC046520C00201C030020CF
:102D80000FCD000092CD0000F7B50E0000923F2855
:102D900001D9002455E02C4B04302C4D400018186C
:102DA0002B78C488012B03D129492A48FDF778FFE5
:102DB0002000FFF737FC6628EBD1601E80B2FFF7DA
:102DC00031FCBB28E5D12B78023CA4B2012B08D101
:102DD000204D21492800FDF758FB21002800FDF770
:102DE00058FB671E2000BFB2FFF71CFC002801D073
:102DF0003C00F6E73800FFF715FC009BA51E5B00C2
:102E0000E41A023CA3B284B2ADB200936300EB1AA1
:102E10009BB20193009B9D4213D0019B9D4210D019
:102E20002800FFF7FFFB6F1EBFB230803800FFF7AE
:102E3000F9FB33880002023D18183080ADB202362B
:102E4000E8E72000FEBDC046520C0020510C0020D7
:102E500019CD00001C0300202FCD0000F7B506009F
:102E60000F000192FFF7E0FC164B04001B780028CE
:102E700019DB012B10D1144D14492800FDF705FB77
:102E800031002800FDF701FB11492800FDF7FDFA8C
:102E900021002800FDF7FDFAE0B2019A3900FFF7A2
:102EA00073FF04000BE00024012B08D1064D0949F3
:102EB0002800FDF7EAFA31002800FDF7F1FE2000B6
:102EC000FEBDC046220600201C0300205BCD000092
:102ED0004FCD000051CD0000F8B500252800FFF7C8
:102EE000A1FB314C28550135902DF7D100231D0051
:102EF0002E49CA5C0133AD18ADB20F2BF9D1208831
:102F0000FFF790FB702838D120880130FFF78AFB4B
:102F1000022832D123008C331B88AB422DD1244BA5
:102F20001B78012B3ED1234D23492800FDF7B8FE25
:102F30000026F1B22800FFF795F9204F280039004C
:102F4000FDF7A3FA7300E15A28000136FDF7A1FA54
:102F5000072EEED10026F1B22800FFF783F93900E1
:102F60002800FDF792FA7300E318D989280001368A
:102F7000FDF78FFA3F2EEED114E004210220FDF779
:102F800039FE0F490B48FDF78BFEFFF785FA00204D
:102F9000FFF7D4FC23000B498C3300201D80FFF782
:102FA000B3F9BCE7F8BDC046520C002021C90000AF
:102FB000510C00201C0300206CCD0000F9C700005C
:102FC00094CD0000A9CD0000F8B50025174B6A008C
:102FD000D45AEEB22000FFF725FB702822D1601CE6
:102FE00080B2FFF71FFB02281CD1114F1149380096
:102FF000FDF74BFA31003800FFF734F933340E494E
:103000003800A4B2FDF741FA661C2000B6B2FFF703
:1030100009FB002803D003F0A9FF3400F4E73800CF
:1030200004F0CCF80135072DD0D1F8BD520C0020AA
:103030001C030020AFCD000092CD00001F2310B56F
:10304000064A184011780843814206D000231070C8
:1030500019001A00180003F04FFE10BD13110020D4
:103060001F2310B5074A184011780B00834399427B
:1030700006D0137000231A001900180003F03CFE5C
:1030800010BDC0461311002070B50A4B05005A1C34
:10309000D27F1C00D30701D5FFF7E2FF631CDB7F63
:1030A0009B0706D5FDF7E4FF002802D02800FDF7B6
:1030B000C3FE70BD4202002070B50A4B05005A1CC9
:1030C000D27F1C00D30701D5FFF7B8FF631CDB7F5D
:1030D0009B0706D5FDF7CCFF002802D02800FDF79E
:1030E0009DFE70BD4202002070B5134B04005A1CB7
:1030F000D27F1D00D30709D5104B1A780240D306A2
:1031000002D0FFF7ADFF01E0FFF798FF6B1CDB7FFC
:103110009B070FD5FDF7ACFF00280BD02000FDF773
:1031200099FE002803D02000FDF786FE02E0200073
:10313000FDF774FE70BDC04642020020131100204E
:1031400070B50D4B05005A1CD27F1C00D30705D566
:10315000002302001900180003F0CEFD631CDB7F82
:103160009B0708D5FDF784FF002804D00021EAB2B0
:103170000800FDF7C3FD70BD42020020F8B5050050
:103180000E0001272B004C4C803301DB022724E08A
:10319000631CDB7F3B4206D0002380201A0019000D
:1031A000404203F0A9FD0134E37F9B0703D5FDF7FF
:1031B0005FFF002865D18035E4E70122631CDB7FD7
:1031C000134205D000237F201A00190003F094FD5C
:1031D000631CDB7F3B4204D17F3D7F2DEDDC01276B
:1031E00014E0FDF745FF002852D1F5E7631CDB7FB3
:1031F0003B4206D0002380211A004942180003F008
:103200007BFD631CDB7F9B0705D480363300803356
:10321000ECDB022714E0FDF72BFF00283ED1F4E79A
:103220000122E318DB7F134205D000237F211A001F
:10323000180003F061FD631CDB7F3B4204D17F3E3D
:1032400001237F2EECDC04E0FDF712FF00282CD1D7
:10325000F5E7621CD27F1A4205D0002371B268B232
:103260001A0003F049FD0134E37F9B0723D5FDF7E6
:10327000FFFE00281FD0002231002800FDF73EFD90
:1032800019E00022802011004042FDF737FD92E74F
:1032900000227F201100FDF731FD9DE700228021F3
:1032A00010004942FDF72AFDAFE700227F21100000
:1032B000FDF724FDC3E7F8BD4202002070B5104BB6
:1032C00005005A1CD27F1E00D3070DD5002428000C
:1032D00009F0EBF9A04207D9285D03F0B1FB285DA6
:1032E00003F034FC0134F2E7731CDB7F9B0706D547
:1032F000FDF7BEFE002802D02800FDF76BFE70BD72
:103300004202002070B50B4B05005A1CD27F1C00F6
:10331000D30702D580B203F093FB631CDB7F9B07CE
:1033200006D5FDF7A5FE002802D02800FDF7FEFD1A
:1033300070BDC0464202002070B50B4B05005A1C00
:10334000D27F1C00D30702D580B203F0FFFB631CC1
:10335000DB7F9B0706D5FDF78BFE002802D02800F7
:10336000FDF702FE70BDC0464202002010B5094BB9
:103370005A1CD27F1C00D30701D503F03DFC631C0F
:10338000DB7F9B0705D5FDF773FE002801D0FDF715
:103390000FFE10BD4202002010B502F099FA10BDD8
:1033A00010B5040003F0C0FE200010BDF0B5464C7F
:1033B00087B0236801900493049D444F387802F04D
:1033C00027FB039700280BD02368414A0593059BF0
:1033D0005B1B9342F1D93F493F48FDF761FC70E028
:1033E00006003E4C20802388F92B14D802F012FCF2
:1033F000029002F00FFC029BC51A394B1A681F009D
:10340000954205D2039B187802F002FB8642F0D069
:103410003B689D423FD323882F4D3249FA2B00D081
:1034200031492800FDF73CFC00210B20FDF7E2FBB1
:103430002E4B2F4F1B78012B13D12E492800FDF75F
:103440002FFC00262388B34207D97300F95A2800BD
:103450000136FDF71EF8F6B2F4E727492800FDF71C
:103460001FFC26492800FDF703F801992800FCF706
:10347000FFFF23492800FCF7FBFF2188280003F009
:10348000DDFE20492800FDF70BFC22783900019869
:10349000FFF702FC15E0FA231B029D4207D9FA212F
:1034A0002800890006F074F8FA231B02C5180120D1
:1034B00023880F4A590046401B188D52F6B22380CC
:1034C00091E707B0F0BDC046740F002073020020E2
:1034D0000F270000B4CD00001C030020F40C0020D6
:1034E0008C020020CDCD0000E4CD0000220600209B
:1034F000F60C0020FDCD000011CE000020CE000013
:1035000036CE00003DCE000010B5FFF701FC10BD27
:1035100010B5FFF713FA10BDF8B52B4EFA223100A3
:10352000FFF79CFC294F2A4B38801B78002806D1D6
:10353000012B47D127492848FDF7B2FB42E0012B78
:1035400014D1254D25492800FDF7AAFB00243B880E
:10355000A34207D96300F15A28000134FCF799FF10
:10356000A4B2F4E71E492800FDF79AFB00210920C8
:10357000FDF740FB00231B4A1B4C13801B4A1C49D0
:1035800013701C4A20001360EF2203F073FD142116
:1035900023682171002B15D01748184A1B181B11DE
:1035A000D154117853781648164A994205D80368C1
:1035B00009041A400A43026004E001681B040A403F
:1035C00013430360F8BDC046F60C0020F40C002045
:1035D000220600204ACE00001C030020FDCD000082
:1035E00011CE0000F20C0020E80C0020F00C0020AE
:1035F00009360000E40C0020008FFCBF0C03002003
:1036000014E400E0FFFF00FFF8B52F4A2F4F1288A7
:103610003B883E002E4D2F4C934223D92878002121
:1036200002F03EFA2878002102F0D2F9002323703C
:103630003B80294B1A68002A01DD013A1A601B6899
:10364000002B40D1254803F06FFD254A1368002B5D
:1036500039DD013B1360234B013BFDD12248FFF7CD
:103660005BFF30E0934206D11C4B1B68002B1CD043
:103670001E4A1A6019E01E4A5B009B5AFA22120287
:10368000934204D9FA22920053431A4A9B181A49CA
:103690005A1E8A4209D818225343013B232B04D9CE
:1036A0000E4A1268002A00D013602178287802F0B0
:1036B000F7F92378002B01D1803300E00023237039
:1036C000338801333380F8BDF40C0020F20C002065
:1036D00072020020F00C0020F00E0020E80C002008
:1036E000EC0E002000710200630200207FA903009D
:1036F000F60C002000702FFCAFAAAA0A012310B517
:10370000034A1360034A1360FFF706FF10BDC0466B
:10371000F00E0020EC0E0020012210B5044B5242A6
:103720001A60044B02321A60FFF7F6FE10BDC04665
:10373000F00E0020EC0E00200022014B1A607047B2
:10374000F00E002010B50020FFF7F8F810BDFFFFC5
:10375000002804D0FA239B005843014B186070479F
:103760008C02002010B502F0B3F800230448054A8B
:10377000036005498033037108F046FE10BDC04662
:10378000E80C002030020020A133000010B5FFF744
:10379000EDFD00231900034A99500433202BFBD17F
:1037A00010BDC046F40E0020002310B5064A990053
:1037B0008C58002C00D188505158884202D00133D7
:1037C000072BF4DD10BDC046F40E0020002330B5F9
:1037D0000B499A0055580C0085420CD18A180021DB
:1037E000072B05D050184068013350500431F7E7DB
:1037F0000023E36102E00133072BEADD30BDC04660
:10380000F40E00200023054A9958814204D0043365
:10381000202BF9D1002000E001207047F40E002099
:1038200010B50400032916D8080005F09DFE0E0E01
:1038300007022000FFF7E6FF002806D02000FFF770
:10384000C5FF2000FFF778FD05E02000FFF7ACFF83
:103850002000FFF757FD10BD70B504000D0008F003
:1038600024FF023008F012FE0600210008F015FFC8
:10387000300008F01AFF301801380378D24C202BA2
:1038800003D02100300008F0F1FE2100300008F0E4
:1038900013FF041E01D100F0C9FDCC4908F0F3FE6E
:1038A000002803D12900CA48FFF7BAFFC949200000
:1038B00008F0E9FE002803D12900C748FFF7B0FF50
:1038C000C649200008F0DFFE002803D12900C448C3
:1038D000FFF7A6FFC349200008F0D5FE002803D15A
:1038E0002900C148FFF79CFFC049200008F0CBFE2B
:1038F000002803D12900BE48FFF792FFBD492000F0
:1039000008F0C1FE002803D12900BB48FFF788FF5B
:10391000BA49200008F0B7FE002803D12900B848B2
:10392000FFF77EFFB749200008F0ADFE002803D165
:103930002900B548FFF774FFB449200008F0A3FE42
:10394000002803D12900B248FFF76AFFB1492000DF
:1039500008F099FE002803D12900AF48FFF760FF67
:10396000AE49200008F08FFE002803D12900AC48A2
:10397000FFF756FFAB49200008F085FE002803D171
:103980002900A948FFF74CFFA849200008F07BFE5A
:10399000002803D12900A648FFF742FFA5492000CF
:1039A00008F071FE002803D12900A348FFF738FF73
:1039B000A249200008F067FE002803D12900A04892
:1039C000FFF72EFF9F49200008F05DFE002803D17D
:1039D00029009D48FFF724FF9C49200008F053FE72
:1039E000002803D129009A48FFF71AFF99492000BF
:1039F00008F049FE002803D129009748FFF710FF7F
:103A00009649200008F03FFE002803D12900944881
:103A1000FFF706FF9349200008F035FE002803D188
:103A200029009148FFF7FCFE9049200008F02BFE8A
:103A3000002803D129008E48FFF7F2FE8D492000AF
:103A400008F021FE002803D129008B48FFF7E8FE8B
:103A50008A49200008F017FE002803D12900884871
:103A6000FFF7DEFE8749200008F00DFE002803D195
:103A700029008548FFF7D4FE8449200008F003FEA2
:103A8000002803D129008248FFF7CAFE814920009F
:103A900008F0F9FD002803D129007F48FFF7C0FE98
:103AA0007E49200008F0EFFD002803D129007C4862
:103AB000FFF7B6FE7B49200008F0E5FD002803D1A2
:103AC00029007948FFF7ACFE7849200008F0DBFDBB
:103AD000002803D129007648FFF7A2FE754920008F
:103AE00008F0D1FD002803D129007348FFF798FEA4
:103AF0007249200008F0C7FD002803D12900704852
:103B0000FFF78EFE6F49200008F0BDFD002803D1AD
:103B100029006D48FFF784FE6C49200008F0B3FDD2
:103B2000002803D129006A48FFF77AFE694920007E
:103B300008F0A9FD002803D129006748FFF770FEAF
:103B40006649200008F09FFD002803D12900644841
:103B5000FFF766FE6349200008F095FD002803D1B9
:103B600029006148FFF75CFE6049200008F08BFDEA
:103B7000002803D129005E48FFF752FE5D4920006E
:103B800008F081FD002803D129005B48FFF748FEBB
:103B90005A49200008F077FD002803D12900584831
:103BA000FFF73EFE5749200008F06DFD002803D1C5
:103BB00029005548FFF734FE5449200008F063FD02
:103BC000002800D0A8E0A3E0FAC700005ECE000005
:103BD00002E0000068CE000001E0000071CE0000AD
:103BE00004E0000079CE000040E0000087CE000035
:103BF00008E000008FCE000080E000009DCE0000B5
:103C000052F00000A4CE000051F00000ADCE000044
:103C100050F00000B6CE00004FF00000C0CE000013
:103C200028F00000CACE00002CF00000D4CE000026
:103C300029F00000DCCE00002AF00000EACE0000EF
:103C40002BF00000F2CE000039F0000000CF0000A1
:103C50003AF0000007CF00003BF000000ECF00005C
:103C60003CF0000015CF00003DF000001CCF00002C
:103C70003EF0000023CF00003FF000002ACF0000FC
:103C800040F0000031CF000041F0000038CF0000CC
:103C900042F000003FCF000043F0000047CF00009B
:103CA00044F000004FCF000045F0000057CF000067
:103CB00068F000005FCF000069F0000067CF0000EF
:103CC0006AF000006FCF00006BF0000077CF0000BB
:103CD0006CF000007FCF00006DF0000087CF000087
:103CE0006EF000008FCF00006FF0000097CF000053
:103CF00070F000009FCF000071F00000A7CF00001F
:103D000072F00000AFCF000073F00000B7CF0000EA
:103D10002900D448FFF784FDD349200008F0B3FC04
:103D2000002803D12900D148FFF77AFDD0492000AF
:103D300008F0A9FC002803D12900CE48FFF770FD48
:103D4000CD49200008F09FFC002803D12900CB4872
:103D5000FFF766FDCA49200008F095FC002803D152
:103D60002900C848FFF75CFDC749200008F08BFC1C
:103D7000002803D12900C548FFF752FDC44920009F
:103D800008F081FC002803D12900C248FFF748FD54
:103D9000C149200008F077FC002803D12900BF4862
:103DA000FFF73EFDBE49200008F06DFC002803D15E
:103DB0002900BC48FFF734FDBB49200008F063FC34
:103DC000002803D12900B948FFF72AFDB84920008F
:103DD00008F059FC002803D12900B648FFF720FD60
:103DE000B549200008F04FFC002803D12900B34852
:103DF000FFF716FDB249200008F045FC002803D16A
:103E00002900B048FFF70CFDAF49200008F03BFC4B
:103E1000002803D12900AD48FFF702FDAC4920007E
:103E200008F031FC002803D12900AA48FFF7F8FC6C
:103E3000A949200008F027FC002803D12900A74841
:103E4000FFF7EEFCA649200008F01DFC002803D176
:103E50002900A448FFF7E4FCA349200008F013FC64
:103E6000002803D12900A148FFF7DAFCA04920006F
:103E700008F009FC002803D129009E48FFF7D0FC78
:103E80009D49200008F0FFFB002803D129009B4832
:103E9000FFF7C6FC9A49200008F0F5FB002803D183
:103EA00029009848FFF7BCFC9749200008F0EBFB7D
:103EB000002803D129009548FFF7B2FC944920005F
:103EC00008F0E1FB002803D129009248FFF7A8FC85
:103ED0009149200008F0D7FB002803D129008F4822
:103EE000FFF79EFC8E49200008F0CDFB002803D18F
:103EF00029008C48FFF794FC8B49200008F0C3FB95
:103F0000002803D129008948FFF78AFC884920004E
:103F100008F0B9FB002803D129008648FFF780FC90
:103F20008549200008F0AFFB002803D12900834811
:103F3000FFF776FC8249200008F0A5FB002803D19A
:103F400029008048FFF76CFC7F49200008F09BFBAC
:103F5000002803D129007D48FFF762FC7C4920003E
:103F600008F091FB002803D129007A48FFF758FC9C
:103F70007949200008F087FB002803D12900774801
:103F8000FFF74EFC7649200008F07DFB002803D1A6
:103F900029007448FFF744FC7349200008F073FBC4
:103FA000002803D129007148FFF73AFC704920002E
:103FB00008F069FB002803D129006E48FFF730FCA8
:103FC0006D49200008F05FFB002803D129006B48F1
:103FD000FFF726FC6A49200008F055FB002803D1B2
:103FE00029006848FFF71CFC6749200008F04BFBDC
:103FF000002803D129006548FFF712FC644920001E
:1040000008F041FB002803D129006248FFF708FCB3
:104010006149200008F037FB002803D129005F48E0
:10402000FFF7FEFB5E49200008F02DFB002803D1BE
:1040300029005C48FFF7F4FB5B49200008F023FBF4
:10404000002803D129005948FFF7EAFB584920000E
:1040500008F019FB002800D0AEE029005548FFF712
:10406000DFFBA9E049F00000C2CF00004AF00000E9
:10407000CBCF00004BF00000D7CF00004CF0000089
:10408000E2CF00004DF00000EACF00004EF000004B
:10409000F8CF000004F00000FECF000005F00000A3
:1040A00004D0000006F000000AD0000007F0000075
:1040B00010D0000008F0000016D0000009F0000049
:1040C0001CD000000AF0000022D000000BF000001D
:1040D00028D000000CF000002ED000000DF00000F1
:1040E00034D000000EF000003AD000000FF00000C5
:1040F00040D0000010F0000046D0000011F0000099
:104100004CD0000012F0000052D0000013F000006C
:1041100058D0000014F000005ED0000015F0000040
:1041200064D0000016F000006AD0000017F0000014
:1041300070D0000018F0000076D0000019F00000E8
:104140007CD000001AF0000082D000001BF00000BC
:1041500088D000001CF000008ED000001DF0000090
:1041600094D000001EF000009AD000001FF0000064
:10417000A0D0000020F00000A6D0000021F0000038
:10418000ACD0000022F00000B2D0000023F000000C
:10419000B8D0000024F00000BED0000025F00000E0
:1041A000C4D0000026F00000CAD0000027F00000B4
:1041B000D0D0000048F000009E49200008F063FACB
:1041C000002803D129009C48FFF72AFB9B492000C7
:1041D00008F059FA002803D129009948FFF720FB7D
:1041E0009849200008F04FFA002803D1290096488A
:1041F000FFF716FB9549200008F045FA002803D187
:1042000029009348FFF70CFB9249200008F03BFA85
:10421000002803D129009048FFF702FB8F492000B6
:1042200008F031FA002803D129008D48FFF7F8FA89
:104230008C49200008F027FA002803D129008A4879
:10424000FFF7EEFA8949200008F01DFA002803D193
:1042500029008748FFF7E4FA8649200008F013FA9E
:10426000002803D129008448FFF7DAFA83492000A7
:1042700008F009FA002803D129008148FFF7D0FA95
:104280008049200008F0FFF9002803D129007E486A
:10429000FFF7C6FA7D49200008F0F5F9002803D1A0
:1042A00029007B48FFF7BCFA7A49200008F0EBF9B7
:1042B000002803D129007848FFF7B2FA7749200097
:1042C00008F0E1F9002803D129007548FFF7A8FAA2
:1042D0007449200008F0D7F9002803D1290072485A
:1042E000FFF79EFA7149200008F0CDF9002803D1AC
:1042F00029006F48FFF794FA6E49200008F0C3F9CF
:10430000002803D129006C48FFF78AFA6B49200086
:1043100008F0B9F9002803D129006948FFF780FAAD
:104320006849200008F0AFF9002803D12900664849
:10433000FFF776FA6549200008F0A5F9002803D1B7
:1043400029006348FFF76CFA6249200008F09BF9E6
:10435000002803D129006048FFF762FA5F49200076
:1043600008F091F9002803D129005D48FFF758FAB9
:104370005C49200008F087F9002803D129005A4839
:10438000FFF74EFA5949200008F07DF9002803D1C3
:1043900029005748FFF744FA5649200008F073F9FE
:1043A000002803D129005448FFF73AFA5349200066
:1043B00008F069F9002803D129005148FFF730FAC5
:1043C0005049200008F05FF9002803D129004E4829
:1043D000FFF726FA4D49200008F055F9002803D1CF
:1043E00029004B48FFF71CFA4A49200008F04BF916
:1043F000002803D129004848FFF712FA4749200056
:1044000008F041F9002803D129004548FFF708FAD0
:104410004449200008F037F9002803D12900424818
:10442000FFF7FEF941490020FFF731FA300008F0AC
:1044300037F870BDDAD0000047F00000EAD0000085
:1044400053F00000F7D0000046F0000007D1000054
:1044500033F0000015D1000036F000001FD100003D
:1044600037F000002AD100002DF0000034D1000008
:104470002EF000003ED1000038F0000048D10000CE
:1044800031F0000056D100002FF0000065D100008F
:1044900030F0000075D1000034F000007FD1000042
:1044A00035F0000089D1000065F0000092D10000D5
:1044B00054F000009FD1000055F00000AED1000084
:1044C00056F00000BBD1000057F00000C7D100003B
:1044D00058F00000D4D1000059F00000DDD10000F8
:1044E0005AF00000E6D100005BF00000EFD10000C0
:1044F0005CF00000F8D100005DF0000001D2000087
:104500005EF000000AD200005FF0000013D200004D
:1045100060F000001CD2000061F0000025D2000015
:1045200062F000002ED2000063F00000FAC7000025
:1045300010B504000021FFF78FF902212000FFF7DA
:104540008BF910BD10B50121FFF786F910BD10B52C
:104550000221FFF781F910BD10B50321FFF77CF9A7
:1045600010BD10B501F0B4F910BDFFFFF0B5C24B9E
:1045700089B01B68C14D0793079CC14B01901C601B
:104580002B681700E01A029106F06AF8BD4BBE498D
:1045900018602C6005F096FB07F056FEBB4BBC4A3A
:1045A000186059601368BB4EBB4202DA01233370B6
:1045B00005E000213170BB4201DD012300E0002352
:1045C000B54917600B70B54B1A78039300239A42D4
:1045D00000D0C833B24C2078062800D9D0E004F0CF
:1045E000C3FF04192A6777CFBF00039B5B8A9F42F2
:1045F00005DD0123002105202370FCF7FBFA039B56
:104600009B8A9F4200DBBBE0032000212070FCF767
:10461000F1FAB5E0039BDA89A24B974202DA1A68F5
:10462000013200E000221A601B68132B01DC00F04D
:10463000EDFB022392E002995A428A4208DD0021F2
:104640000620FCF7D7FA0F20FCF7D2FD0F204BE035
:1046500001998A4208DD00210620FCF7CBFA1120DF
:10466000FCF7C6FD11203FE0019A934208DA0021D1
:104670000620FCF7BFFA1220FCF7BAFD122033E047
:10468000029A934208DA00210620FCF7B3FA1020C0
:10469000FCF7AEFD102027E0824A13680133C82BD7
:1046A00063DD00230A201360FCF7A2FD0A2052E01C
:1046B000039B9A897B4B974202DD1A68013200E026
:1046C00000221A601B68132B00DC9FE3042345E0E3
:1046D00002995A4291420FDA00210420FCF78AFA2B
:1046E0000B20FCF785FD0B20FCF794FD0623002230
:1046F00023706C4B1A6043E00199914208DA002163
:104700000420FCF777FA0D20FCF772FD0D20EBE793
:10471000019A934208DA00210420FCF76BFA0E207C
:10472000FCF766FD0E20DFE7029A934208DA0021CB
:104730000420FCF75FFA0C20FCF75AFD0C20D3E7AD
:10474000584A13680133C82B0FDD0023082013607B
:10475000FCF74EFD0820FCF75DFD062323700FE0FB
:10476000504A13680133962B01DC13604EE3002599
:1047700015602570FCF7F4FD4B4B1D704B4B1D7005
:1047800023780024A34200D040E3494D285D01F086
:104790003FF9414241412000C9B20134FCF7AEFD6E
:1047A000032CF2D1287801F033F9424C051E0ED1CA
:1047B000C8222368920001332360934209D101008B
:1047C0000A20FCF717FAFCF75BFC256001E00023E8
:1047D0002360354D2C78012C10D03049002C02D0AC
:1047E000022C22D032E0CB899F422FDD210008200D
:1047F000FCF700FA01232B702F4B26E032782E4B6A
:10480000002A0CD11A78511C19700F2A1ED90222C5
:1048100009202A7008321A70FCF7EAFC16E01A78B0
:10482000002A13D0013A1A7010E0234B1A78002A9C
:1048300001D0013A1A70CA89974207DA1C78002C15
:1048400004D10920FCF7E6FC174B1C70174E134CE3
:104850003578012D34D0002D02D0022D48D058E0FB
:10486000A3899F4255DA29000720FCF7C3F90123E9
:104870003370124B4CE0C046740F0020180F00201C
:10488000600F0020580F002020BCBE4C380F0020C5
:10489000900200204B0F00205C0F002042020020FD
:1048A000490F00202C0F0020400F0020300F002067
:1048B00074020020140F0020480F0020540F002025
:1048C000D54B1A78D54B002A0CD11A78511C197087
:1048D0000F2A1ED902220720327008321A70FCF704
:1048E00087FC16E01A78002A13D0013A1A7010E0FB
:1048F000CA4B1A78002A01D0013A1A70A28997424D
:1049000007DD1D78002D04D10720FCF783FCC44B84
:104910001D700020C34B1856002804D1C24B1B78D1
:104920005BB2002B0AD0C14A1378591C11709B0747
:1049300004D10021BC4B5956FEF720FC2678012EED
:1049400000D045E1208905F043FEB94905F0BAF9E8
:10495000B84B03901E685F680022002330003900C6
:1049600004F09CFFB44C002807D00022B34B1A601F
:104970000022B34B226063609EE0226863683000CF
:10498000390004F0A5FF002801D026606760A0224E
:10499000A94B12061C685D68AA4B2000290006F08E
:1049A000EDFD02000B003000390004F091FF0028FB
:1049B00010D0A24CA4492568281C04F0AFFF0028A1
:1049C0001AD0A24B588905F003FE291C05F004F803
:1049D000206011E000229A4B2000290004F078FFAB
:1049E000002809D080229A4B12062000290006F0E8
:1049F000C5FD914B18605960C0228F4BD2051C68D1
:104A00005D68944B2000290006F0B8FD02000B0001
:104A10003000390004F048FF002806D0874B8E494B
:104A2000186805F019FB854B186080228B4BD20566
:104A30002000290006F0A2FD02000B003000390022
:104A400004F032FF7D4C002804D02068844905F032
:104A500003FB2060834D019B2A68981A07F0B2FB84
:104A6000814E029B32680490981A4F0007F0AAFB0F
:104A70007F08490002004B080498390005F02EFE1B
:104A800000227A4B06F056F902000B00002078490C
:104A900006F0EEFF04900591206807F0D5FB0B00AF
:104AA00002000498059906F069FD07F021FC019BBE
:104AB00020602B60029B3360604B1D686D4B1E684D
:104AC0005F68624B587805F0CBFD041C019805F037
:104AD0007FFD011C201C05F0BFFA291C05F0BCFA63
:104AE00007F0B2FB32003B0006F048FD07F000FC87
:104AF000564B041C987805F0B3FD0190029805F020
:104B000067FD011C019805F0A7FA291C05F0A4FA1D
:104B100007F09AFB32003B0006F030FD07F0E8FB9F
:104B2000211C051C201C05F097FA291C061C281CBA
:104B300005F092FA011C301C04F04EFF07F084FBD4
:104B400003F032F807F0D4FB061C011C039804F0B4
:104B5000E5FE00280ED0311C039805F0B3F8011CC7
:104B6000061C201C05F078FA311C041C281C05F0DA
:104B700073FA051C404E201C316804F02DFF3F4C99
:104B8000071C21683060281C04F026FF051C2060EB
:104B9000381C05F0FBFC0700281C05F0F7FC3B0067
:104BA0000500034303D001003800FEF7E7FA3800A0
:104BB00005F00EFD011C306805F062FB3060280036
:104BC00005F006FD011C206805F05AFB20601DE180
:104BD000002E18D1029B0320D90FFCF78FFB029BFC
:104BE0000420D917C91AC90FFCF788FB019B0520BF
:104BF000D90FFCF783FB019B0620D917C91AC90FEF
:104C0000FCF77CFB02E1029B1C4D002B38D1882372
:104C1000DB052B6047E0C0465C0F0020540F0020EE
:104C2000300F0020280F00204C0F00204A0F0020DA
:104C30000000204138060020200F0020340F002003
:104C4000000034409999E93F00401C47420200208F
:104C500014AEEF3F6666E63F77BE7F3F3333D33F08
:104C6000C9767E3F1C0F0020500F002000409F405F
:104C70000000F03F380F0020640F0020440F002098
:104C8000A07805F0A5FC041C029805F0A1FC011C0D
:104C9000201C05F0E1F95E4905F014F88821C905EA
:104CA00004F09AFE2860019B5A4C002B03D1882304
:104CB000DB05236013E0039B587805F089FC071C93
:104CC000019805F085FC011C381C05F0C5F9504918
:104CD00004F0F8FF8821C90504F07EFE206000275B
:104CE0002068391C04F01AFE002800D027604A4FC3
:104CF0002068391C04F026FE002800D02760002719
:104D00002868391C04F00AFE002800D02F60424FAA
:104D10002868391C04F016FE002800D02F60032EEE
:104D20002AD0042E50D0022E70D1206804F03CFE10
:104D30003A4B3B4A59683B4E0A401F00B04200D9EB
:104D400030000001384C104358602378002B01D10B
:104D500001F06EFD286804F027FE344B7A6813409A
:104D6000B04200D92F488003184378602378002B85
:104D70004CD101F05DFD49E0206804F015FE294F9B
:104D8000B84200D93800254C02066368264E1B0243
:104D90001B0A134363600323A268000A9A43337813
:104DA0001043A060002B01D101F042FD286804F0FF
:104DB000FBFD1F4BA2681340B84200D91948800080
:104DC0001843A0603378D2E7206804F0EDFD134B60
:104DD000184A9968134E0A401F00B04200D93000AB
:104DE0000003114C104398602378002B01D101F08F
:104DF0001FFD286804F0D8FDBB689B029B0AB042E7
:104E000000D9084880051843B860AFE709B0F0BD85
:104E100000004842640F002000C07F447C12002044
:104E20000FC0FFFFFF03000044110020FF3F00FF01
:104E300003F0FFFFFF0FC0FF10B500F049FD10BDEC
:104E400030B5021E14D003780020834210D0030036
:104E50000A241078002807D03038C5B2092D06D8AA
:104E600063430132C318F4E70B80012000E0002007
:104E700030BD73B50C00002801D1002010E003788C
:104E800001252D2B01D14019023D6B469E1D31009D
:104E9000FFF7D6FF0028F0D0012033886B43238032
:104EA00076BD00280AD00378002B07D01A00613A9B
:104EB000192A01D8203B03700130F4E77047FFFF47
:104EC000F0B589B002AB9E1C00230100040003A8CA
:104ED000338007F0E2FB344D2B78012B08D1334FA0
:104EE00033493800FBF7C4FA21003800FBF7D8FE3D
:104EF000304F2000390007F0DFFB0197041E47D038
:104F00002B78012B08D1294D2B492800FBF7B0FA4B
:104F100021002800FBF7C4FE00252000FFF7C1FF99
:104F2000264FF91E200007F0AEFB00281ED13B786B
:104F3000022B0BD0032B13D0012B14D1019907F0B6
:104F4000BBFB31000400FFF77BFF06E0019907F08F
:104F5000B3FB31000400FFF78CFF002806D000E00F
:104F600003346BB204E06BB2040001E001235B4246
:104F700001354F2D0AD004375A1CD2D00022B15E21
:104F8000D8B222000023FCF77BFD0AE05A1CF5D1C1
:104F9000064C0B492000FBF783FE03A92000FBF71A
:104FA0007FFE09B0F0BDC046220600201C03002091
:104FB0003CD20000FAC700004AD2000075CA0000C7
:104FC00052D2000070B5254A03001178002902D0A2
:104FD000FCF70EFB41E0224C2078032837D804F080
:104FE000C3FA02111724202118008843412801D157
:104FF000012331E0402B30D123780133237001238A
:1050000013702AE020229343542B24D1523B23E0F7
:105010000D2B01D00A2B01D1124919E0202B16D1FA
:105020000022114B1A70032316E00F4A0F480D2B74
:1050300001D00A2B06D100251378C554FFF740FF95
:1050400025700AE011784C1C1470435405E008499F
:105050000848FBF725FE0023237070BD490C002093
:10506000680F002056D20000690F00205C06002067
:1050700054D200001C03002010B500F029FC10BD24
:10508000002070470300383039331B780078181A35
:10509000704702000100383239311378097899429B
:1050A00004D9591C1170C318187E01E00120404238
:1050B000704703000200383339321B7812789A4265
:1050C00002D9C318187E01E00120404270477047A2
:1050D0000300002210B55E331B8893420DD00400FC
:1050E0005D342378202B02D90123037105E05A1C7B
:1050F00022700122C3183B331970100010BD70B527
:1051000014000200030000205E321288824212D096
:105110001D0021225D352878121A944202D90124FB
:105120001C7114003B331818220007F0C3F920004B
:105130002B781B192B7070BD43691A685B68126865
:1051400013420FD0084A0369914201D81F2205E09B
:10515000064A914201D8122200E002225A7002222D
:1051600003699A717047C0467F1A06003F420F00DC
:105170000200F8B500230400383213705370243253
:1051800093701370537043668366D37040696427CD
:10519000016842680D682A430A60226915499370C4
:1051A00023000C22613360691E788619337A5343D9
:1051B000CB185D68737BE0261B02F60033403B434F
:1051C0002B60230062331B78C018837C5A43C37D55
:1051D00089181B024A681E403E431660064920009B
:1051E000FFF7AAFF202322695371802223699A7056
:1051F000F8BDC04628D30000A0860100102270B57B
:1052000003690400DD78EDB2154203D140222A4043
:1052100004D12BE0DA706B06F8D476E004231D404D
:105220003A4B1BD0250000225D352A701A70636E40
:10523000934200D0984723002A783B33002A02D1BA
:10524000012129701A70D02221698A701B78226985
:105250001371230001225C331A7053E001221A708B
:10526000230039331D702269C02330E0602120699A
:105270008379DBB2194060290CD140398B438371AB
:10528000A36E002B06D0210038310A70220039327B
:10529000107898471023226991780B401BD0012386
:1052A0001D4013D1210020005C315D300B78007867
:1052B000984206D9581CE31808703B331B781371C9
:1052C00000E01571D023226993701BE0C023937016
:1052D00023691B7916E0210060310B70202193793E
:1052E0000B4321009371236939311A790B78D2B2BB
:1052F0001F2B07D805480078002803D0581CE31856
:1053000008701A7602222369DA7070BD6A0F0020D5
:10531000F0B500210400334B85B01B680293029B5B
:10532000019320202269D378034257D02D4B019856
:105330001B680393039B1B1A0F2BF2D9002945D13D
:105340002500613562692B780531D318187A00F091
:1053500071FB2B7862690121D3189F7C09263800E4
:1053600000F068FB0021380000F032FB5023013BC5
:10537000FDD10121380000F02BFB5023013BFDD172
:10538000013E002EEED10C2166692B78164DF318E4
:105390001A7A64204A43AA185768E0225B7BD2003D
:1053A0001B02134003433B60230062331B78F61853
:1053B000B37C59436D18F17D6B6809020A401043B4
:1053C0001860A023013BFDD10121AAE7102BA8D032
:1053D00000209070802223699A7000E0012005B0BF
:1053E000F0BDC046740F002028D3000012230269CC
:1053F000F0B5D370202287B0036901919D78040035
:10540000154002D094329A700BE0FFF781FF030041
:105410000420002B62D023005F331D70B02322696B
:10542000937020262E4B20691A680292029DC27842
:10543000324048D0002202252026009222005D3210
:10544000127800998A4233D962183B321278216966
:105450000A711A6821690592059A9446CA78D2B2EF
:1054600017002F400AD1324208D060461A680492D1
:10547000049A121A052AF1D98F702BE01020CD70F2
:105480002169CA78D2B2024201D1324203D18023CB
:1054900004208B700DE0012100980A4204D04342A1
:1054A00058410323181A07E00130C2B20092C5E741
:1054B0000020019B002B02D08023226993700023DF
:1054C0005E3423700AE0196803910399491B04298B
:1054D000ADD982708022042023699A7007B0F0BD94
:1054E000740F0020F0B516008BB00200019300236A
:1054F0003832137001321370009202691233D37084
:105500002022036905009C780F00144002D09432D9
:105510009A700AE0FFF7FCFE002800D1B4E02B00EF
:105520005F331C70B0232A69937020229446584937
:105530000B68029302982B696246DC7814400A00DB
:10554000002C06D10A680392039A121A042AF3D98E
:1055500012E001217F000F43FFB21F710227136881
:10556000049304982B69DC783C4009D111680591BB
:105570000599091A0529F6D99C702B69802211E03A
:105580000222DA702B690F32DC78144003D06F32BC
:105590009A70002478E0002E06D10199802200291B
:1055A00000D120329A706FE0A822012E00D0A022F4
:1055B0009A7002222B6994461B79002334492A6988
:1055C0000868012E28D00690069F6446D0782040B7
:1055D00006D10C680794079CE41B052CF5D927E03D
:1055E00002211020D1702969CA78D2B202424AD170
:1055F0000018024247D0013EF6B2012E01D1A82286
:105600008A702A691F2B05D81279591CEB181A7653
:10561000CBB2D3E71279D1E702270890089ED07861
:10562000384007D10C680994099CA41B052CF6D9B5
:10563000907023E002211020D1702969CA78D2B27B
:10564000024209D0C8705022013AFDD129690838B8
:105650008A7882438A7016E01C00920614D5B02224
:105660008A702A691F2B05D81279591CEB181A76F3
:10567000CBB200E01279019A002A02D080212A6977
:105680009170009A13701C0020000BB0F0BDC04652
:10569000740F002010B50248FFF7B0FD10BDC046E2
:1056A000940200208023F0B51D4A10681840FCD1F8
:1056B00072B61C4C2378002B30D01B4B1F681B4B41
:1056C0001A681B4BBA181E681A4B92191D681A4BA0
:1056D00052191968194B52181B68194DD21892B2F9
:1056E0005208184B2A4392B21A60174B17491B688D
:1056F000174A9C46174B1B6812680F68164963448B
:105700000E6816499B180968DB199B195A1893B241
:105710005B082B43124A9BB21360207062B6F0BD47
:1057200024B003406C0F002038B003403CB003406D
:1057300040B0034044B0034048B003404CB0034085
:105740000080FFFF2CB0034058B0034064B003401A
:1057500060B003405CB0034068B003406CB00340ED
:1057600030B003401B4B1C4A19781C4B082901D14F
:10577000002102E00A2903D12E311160132206E034
:105780000C2901D1283100E03C21116012221A605D
:10579000134B1A78134B002A01D0002200E001229B
:1057A0001A60114B1A78114B012A01D880220CE0A3
:1057B000042A01D8842208E0082A01D8852204E0BE
:1057C000102A01D8862200E087221A600122084BA5
:1057D0001A7070470003002008B003400CB003406B
:1057E0006E0F002020B003400103002024B00340CE
:1057F0006C0F0020F8B503000020272B33D81A4A7D
:10580000D45CFF2C2FD0194B1B78834201D0FFF7BB
:1058100049FF72B610274022154B144205D01A6872
:10582000BA431A603F231C4002E01A683A431A60E8
:105830000123104E104D34602B7062B672B6802278
:105840003368134208D00D4B186800232B7062B6E2
:105850000B4B1B78184106E02B78002BDBD062B68F
:1058600001F072FEEAE7F8BDA0D200006C0F002044
:105870000CB0034000B003406D0F002010B0034097
:105880006B0F002080210D4A090613680B4313603B
:105890000B4B1A780B4B002A01D1D03200E090223A
:1058A0001A70094B984201DD180002E0C343DB1770
:1058B0001840064B00B218807047C0463C80044038
:1058C0006E0F002021F00340FF0F000000F00340A6
:1058D000F823802208491B0252021888884203D10B
:1058E000064A023B138006E002339342F5D10222BE
:1058F000024B52421A807047FFFF0000700F0020D9
:10590000F8B505000024264F0E1C3800E04004F0D6
:10591000A7FEDE21890504F09FFB311C04F008F886
:10592000002802D10134072CEFD11D48E04004F0DB
:1059300097FE311C04F0C6F9FC21890504F0A0FC97
:1059400004F032F8174B984200D918002B00103B96
:10595000012B06D80023144A144913600B60144B22
:105960000BE0172D0ED8134A0123EA40934309D1C7
:10597000114A124913600B60114B186008231C4335
:1059800014600CE0033D012D09D800220D4B0E4997
:105990001A600A600D4A1060082214431C60F8BDAA
:1059A000006CDC02FFFF0000009003400490034005
:1059B000089003404006D00000800340048003406C
:1059C0000880034000A0034004A0034008A0034057
:1059D00010B51A2818D80C2358430C4A83581018AD
:1059E0001C7D027A224205D0002901D01A710BE0F9
:1059F0001A7209E043681A68002902D003210A4399
:105A000001E002218A431A6010BDC04628D300007D
:105A100000231A280AD80C335843054A8358101813
:105A2000007A1B7C0340581E8341DBB2180070478C
:105A300028D30000F0B51A282FD80C2217004743AE
:105A4000164CE5196B682600012901D0042911D1F3
:105A5000504334583018257D027A20202A4322757D
:105A6000A22252001A601A68042901D1024313E0ED
:105A7000824311E038592C7A027DA24302758022BC
:105A8000002908D0022902D10422FF3204E00022BA
:105A9000032901D1812252001A60F0BD28D30000F1
:105AA00070B5434B04001A280ED11B780B2B03D87A
:105AB0000C22D31A994003E00C2B01D00C3B194166
:105AC0000800FFF7DFFE72E001251A782B009340F3
:105AD000002901DC002102E08B4205D829002000CA
