:1000000000180020C1000000515E0000155E0000D5
:10001000155E0000155E0000155E0000155E000014
:10002000155E0000155E0000155E0000515E0000C8
:10003000515E0000155E0000F5770000C5780000F5
:10004000515E0000515E0000515E0000515E0000F4
:10005000515E0000515E0000515E0000515E0000E4
:1000600019570000515E0000515E0000515E000013
:1000700001790000D979000035650000515E00006B
:10008000515E0000515E0000515E0000515E0000B4
:10009000515E0000515E000041580000515E0000BA
:1000A000A1670000515E0000515E0000515E00003B
:1000B000515E0000515E0000515E0000515E000084
:1000C000F8B505F0C9FE0821474A484B1A60484A6E
:1000D000484B1A60484A494B1A60494B1A780A4201
:1000E00002D01A780A431A702A22464B46481A70E0
:1000F00000234649464C1A188A4203D2E558043375
:100100001560F8E70021434B434A934201D202C3F2
:10011000FBE70023414A424958589446985004331B
:10012000C02BF9D100210326FF2580248A083D4BEE
:100130009200D2180B002F003340DB009F40106864
:100140000131B84307002000984003003B4313608F
:100150002029EBD16246344B1A608A22334B1A7045
:10016000334B663A5A707C321A709E3A9979114232
:10017000FCD0102299791142FCD10C209A792C499B
:100180000240082AFAD1053A0A713D324A71203AF2
:1001900099791142FCD0402299791142FCD025492D
:1001A000254A11602021224A117014399A790A4097
:1001B0000C2AFBD1214A224B1A60224A224B1A6098
:1001C0000022224B1A60224B07321A60214A224B2E
:1001D0001A6062B606F07EF80CF074F905F042FE83
:1001E00005F010FEFEE7C046300004F03480044005
:1001F000823F0000388004400100000F3C80044032
:1002000002D0074000E0074030020020D005002067
:10021000DCD90000D00500207411002000F9FF1F78
:100220000000000000E400E008ED00E0005006409F
:10023000004006400000011044800440C000050555
:10024000048004407FBB000014E000E018E000E000
:1002500010E000E00000202020ED00E0FFFFFFFFA5
:10026000FFFFFFFFFFFFFFFFFFFFFFFFFFFFFFFF9E
:10027000FFFFFFFFFFFFFFFFFFFFFFFFFFFFFFFF8E
:10028000FFFFFFFFFFFFFFFFFFFFFFFFFFFFFFFF7E
:10029000FFFFFFFFFFFFFFFFFFFFFFFFFFFFFFFF6E
:1002A000FFFFFFFFFFFFFFFFFFFFFFFFFFFFFFFF5E
:1002B000FFFFFFFFFFFFFFFFFFFFFFFFFFFFFFFF4E
:1002C000FFFFFFFFFFFFFFFFFFFFFFFFFFFFFFFF3E
:1002D000FFFFFFFFFFFFFFFFFFFFFFFFFFFFFFFF2E
:1002E000FFFFFFFFFFFFFFFFFFFFFFFFFFFFFFFF1E
:1002F000FFFFFFFFFFFFFFFFFFFFFFFFFFFFFFFF0E
:10030000FFFFFFFFFFFFFFFFFFFFFFFFFFFFFFFFFD
:10031000FFFFFFFFFFFFFFFFFFFFFFFFFFFFFFFFED
:10032000FFFFFFFFFFFFFFFFFFFFFFFFFFFFFFFFDD
:10033000FFFFFFFFFFFFFFFFFFFFFFFFFFFFFFFFCD
:10034000FFFFFFFFFFFFFFFFFFFFFFFFFFFFFFFFBD
:10035000FFFFFFFFFFFFFFFFFFFFFFFFFFFFFFFFAD
:10036000FFFFFFFFFFFFFFFFFFFFFFFFFFFFFFFF9D
:10037000FFFFFFFFFFFFFFFFFFFFFFFFFFFFFFFF8D
:10038000FFFFFFFFFFFFFFFFFFFFFFFFFFFFFFFF7D
:10039000FFFFFFFFFFFFFFFFFFFFFFFFFFFFFFFF6D
:1003A000FFFFFFFFFFFFFFFFFFFFFFFFFFFFFFFF5D
:1003B000FFFFFFFFFFFFFFFFFFFFFFFFFFFFFFFF4D
:1003C000FFFFFFFFFFFFFFFFFFFFFFFFFFFFFFFF3D
:1003D000FFFFFFFFFFFFFFFFFFFFFFFFFFFFFFFF2D
:1003E000FFFFFFFFFFFFFFFFFFFFFFFFFFFFFFFF1D
:1003F000FFFFFFFFFFFFFFFFFFFFFFFFFFFFFFFF0D
:10040000FFFFFFFFFFFFFFFFFFFFFFFFDEF9FFFF23
:1004100010B5064C2378002B07D1054B002B02D0DA
:10042000044800E000BF0123237010BDD005002068
:1004300000000000DCD90000084B10B5002B03D0F1
:100440000749084800E000BF07480368002B00D1B7
:1004500010BD064B002BFBD09847F9E700000000C9
:10046000D4050020DCD90000D005002000000000E9
:1004700070B5040008000D000CF059F92368020063
:1004800029005B682000984770BD10B5FFF7F0FFAA
:1004900010BD70B5050005F02DFA0400280005F028
:1004A000E9F9001970BDFFFF70B5274B1B78002BD1
:1004B00048D0264E33785A1C32700A2B42D9244C2D
:1004C00024492000FFF7E1FF234B2000196805F0C5
:1004D00011FA224D20002900FFF7D7FF204B200002
:1004E000196805F007FA29002000FFF7CEFF1D4B21
:1004F0002000196805F0FEF929002000FFF7C5FF6C
:10050000194B2000196805F0F5F929002000FFF7C4
:10051000BCFF164B2000196805F0ECF929002000FB
:10052000FFF7B3FF124B2000196805F0E3F929002B
:100530002000FFF7AAFF0F4B20001968FFF7A9FF63
:100540000023337070BDC046FC050020EE0500207E
:100550001403002002C80000F80500200AC80000AB
:1005600010060020140600200006002028060020A7
:100570008007002048060020F0B5724B85B018783F
:100580001900714D714C00281CD10423CA5E2B68E0
:1005900056429E4201DDD31802E09A4202DA9B1ACB
:1005A0002B6000E028600623CA5E2368514299420E
:1005B00001DDD31804E09A4201DA9B1A00E000231F
:1005C0002360BCE02868236840435B43C0180BF0FD
:1005D0003BFE07F02BFB0026002700900191009ABC
:1005E000019B5B490A604B600098019932003B0017
:1005F00009F096F902960397002852D128680BF06B
:1006000023FE009A019B0AF0D7FB06000F0020682A
:100610000BF01AFE009A019B0AF0CEFB32003B0061
:1006200007F000FB4B4B18605960494B28681A686B
:100630005B68009201930BF007FE009A019B490052
:100640004F0839000AF0B8FB3E4B06000420185E44
:100650000F000BF0F9FD02000B00300039000AF02A
:10066000CFFF060020680F000BF0EEFD009A019B03
:1006700049004D0829000AF09FFB324B0400062078
:10068000185E0D000BF0E0FD02000B0020002900B9
:100690000AF0B6FF02000B00300039000AF060F8E3
:1006A00009E02C4B0299039A19605A60254B0420EB
:1006B000185E0BF0C9FD284B254C18605960226864
:1006C00063680092019300980199234B1E685F684C
:1006D00032003B0009F02AF9002804D0029A039B5B
:1006E0002260636007E03200009801993B000BF044
:1006F00001FA20606160174B1C685D6820002900CA
:1007000007F048FA124B009001911E685F682000C4
:10071000290007F0F9F902000B00300039000AF057
:100720006FFF0BF05BFD084B320018603B00009838
:1007300001990AF065FF0BF051FD044B186005B0FC
:10074000F0BDC0464002002080070020480600207F
:1007500030060020080600204006002010B503F0F7
:100760005DF8012002F0D8FC042002F0D5FC022044
:1007700002F0D2FC0023024A1370024A137010BD2B
:10078000F80D00201C0E002073B500F077FC384CEB
:100790002378012B07D1374D37492800FFF768FE32
:1007A000280005F067F8354804F024FD344B00219B
:1007B000187805F061FC334E3349307805F0C2FB00
:1007C000324D0121287805F057FC2878002105F0EA
:1007D00021FC3078012105F04FFC2878002105F03C
:1007E00019FC00252A4B0221E85C013505F044FC88
:1007F000032DF7D10025274B0121E85C013505F0D9
:100800003BFC032DF7D1FFF7A9FF00F0C3FD002348
:100810001A00214E214899194A80191804330025DD
:100820000A604C2BF7D11E4B1D8000F0C7FD00F075
:10083000BFFC02F099FB2800012102F039FA0A22DC
:10084000184B25781A70184B0F321A70012D08D1E9
:10085000084C16492000FFF718FE29002000FFF77A
:1008600018FE134B1B680193019A124B1A6073BD5B
:1008700004060020140300200CC800009002002091
:100880007102002070020020007014473E02002018
:100890007202002038020020800A002098090020FF
:1008A000E40900204C060020380600204BC8000058
:1008B000600E00201C060020024B1870024B1970BD
:1008C0007047C0464C0600203806002070B5284B03
:1008D0001A78284B1878002A45D0002105F09AFB99
:1008E000254A1178002918D1244D254C2B782078E1
:1008F000DB0700D5012105F08DFB2B7860780133F3
:1009000000219B0700D4012105F084FB2B78A078FF
:10091000013300215B0727D425E01A4B1C78002CFB
:100920001ED10126184801390078154DC9B218703A
:1009300011702878314209D0210005F06BFB6878EE
:10094000210005F067FBA87821000DE0310005F0DB
:1009500061FB6878310005F05DFBA878310003E0A9
:10096000013C1C7002E0012105F054FB70BDC04643
:10097000860200203E0200204C06002024060020B3
:10098000380200208407002038060020F8B5164BF6
:100990001E88002E26D0154D2B88002B02D0012B4F
:1009A0000BD01FE0124B09201A88124B198805F052
:1009B0004FF82B8801332B8014E00F4F0C4B3C88F1
:1009C00018880E4B01341B88A4B23C80C018052146
:1009D00008F0AAFE844205DD034B013E1E80002381
:1009E0002B803B80F8BDC0462C06002086070020E7
:1009F000220600203A06002018060020EC05002000
:100A0000F0B50E2085B005F077F9764C2060152002
:100A100005F072F9744F3221FB7D584308F0FAFD5E
:100A2000724B80B20194724C984201D8206001E070
:100A30006E4B23602368002B01DA0023236014200F
:100A400005F05AF9BB7D3221584308F0E3FD674BAE
:100A500080B2684D984201D8286001E0634B2B605A
:100A60002B68002B01DA00232B60172005F044F9D6
:100A70007B7E3221584308F0CDFD5C4B80B25E4E48
:100A8000984201D8306001E0584B33603368002B46
:100A900001DA00233360162005F02EF93B7E322167
:100AA000584308F0B7FD514A80B2544B904201D8E8
:100AB000186001E04D4A1A601A68002A01DA002223
:100AC0001A60FB8BB42B11D087225200934218D0AE
:100AD0005A2B21D122684A4B1A60336823602B6855
:100AE0003360464B19681A60296015E02A6823684C
:100AF0002260424A42492B6013680B6031681160E2
:100B000009E023683E4A13603C4A11682160296865
:100B1000116032682A60336006F0D4FC002806DDDC
:100B200006F088FC374B186004F08EFAF4E7364B79
:100B30001B78002B37D0354B354A9C461B68116813
:100B40000293344B02981B68CB1883422BD8634620
:100B50001B680393039B13602F4A1388002B29D132
:100B6000264A336812689B1A2C4A0021525E9B1A4F
:100B70002B4A13602A6823689B1A2A4A0021525E76
:100B80009B1A294A1360FFF78FFCFFF7F5FC019BC6
:100B90001A68254B1968224B186803F02FFDFFF7E0
:100BA00095FEFFF7F3FE214B1B78002B17D000F0CA
:100BB0002BFE14E0013B9BB21380002BE3D10F4AC4
:100BC0003368126829689A1A236812B25B1A1349AB
:100BD0007A830A80134A1BB2BB831380D3E705B024
:100BE000F0BDC046F805002040020020FF030000D1
:100BF0001006002014060020000600202806002011
:100C000050060020F005002086020020600E002023
:100C10001C060020340200203C0200202006002098
:100C2000800700202606002048060020F30A002046
:100C3000013810B50A283FD808F0D8FC0B0F24263D
:100C40000608313429382C00C82200E06422C8216B
:100C500023E0C822C82152002BE0184A1388002B39
:100C60002AD1FA2089B2C8334B43C0001B1814485C
:100C7000013103809620134B11801880124B643889
:100C8000188019E0C82200E06422962105E01E22A7
:100C90000E490EE0FA22AF215200490009E0052278
:100CA0000B4906E0FA210522090102E0FA22E621B9
:100CB0001201092004F0CCFE10BDC0462C06002015
:100CC0003A06002022060020EC050020C40900009E
:100CD0008813000010B505F07DF810BD70B5050053
:100CE000FFF7C6FB0400280004F0C4FD001970BD26
:100CF000D2B270B50500002A03D103681B6898477B
:100D000014E00A2A01D0012A04D10022280004F0AC
:100D1000C3FD0BE0102A02D104F0F5FD06E0022A23
:100D200002D104F006FE01E004F016FE04002800E3
:100D300004F0A0FD001970BDF0B53B4B85B01B78E9
:100D400000900E000192394D012B27D1384C3949C2
:100D50002000FFF7C3FF38492000FFF789FB10226E
:100D600029782000FFF7C4FF34492000FFF780FBFB
:100D70000099200004F0BEFD314F20003900FFF73C
:100D800077FB3100200004F0B5FD39002000FFF7AB
:100D90006FFB0A2201992000FFF7AAFF294A009B56
:100DA0001168294C8C4663441360236827489B19BB
:100DB00023602978036816000090254A994207D1DC
:100DC0001168244B02911B68029914338B4228D876
:100DD000FF271368FD200393039A1E4B1A6005F04A
:100DE00049FB002005F046FB032005F043FB287873
:100DF00005F040FB3068384005F03CFB2068384087
:100E000005F038FB002005F035FB002005F032FB33
:100E1000002005F02FFB0023009A336023602B781D
:100E2000136005B0F0BDC0460406002098070020FE
:100E30001403002055C8000067C8000073C80000F4
:100E400080C800008C07002090070020A007002029
:100E5000600E00209407002010B5054A137818434F
:100E60001070002211001000FFF766FF10BDC04691
:100E70009807002010B5054A1378834313700022A9
:100E800011001000FFF758FF10BDC0469807002062
:100E9000034B1B781840431E9841C0B27047C046B0
:100EA0009807002070B5294B294E1B78294C012B3F
:100EB0002FD1294D29492800FFF710FF2849280084
:100EC000FFF7D6FA102231782800FFF711FF2549E5
:100ED0002800FFF703FF217810222800FFF708FF02
:100EE000617810222800FFF703FFA1781022280064
:100EF000FFF7FEFEE17810222800FFF7F9FE2179C6
:100F000010222800FFF7F4FE617910222800FFF775
:100F1000EFFEFD2005F0AEFA307805F0ABFA0020C8
:100F200005F0A8FA207805F0A5FA607805F0A2FA95
:100F3000A07805F09FFAE07805F09CFA207905F09A
:100F400099FA607905F096FA70BDC0460406002053
:100F5000990700209A0700201403002082C800008F
:100F600097C80000A4C80000C2B270B50012E02803
:100F700004D10A490B781A430A700CE0F0280AD110
:100F800000230748195C1C000500002902D001332A
:100F90008A42F7D12A55FFF785FF70BD99070020D7
:100FA0009A07002010B5C1B202120023E02A04D132
:100FB0000C4A13788343137010E00B4A5C1CD3185F
:100FC0001878884201D02300F7E7991A052903D041
:100FD000597819700133F8E700235371FFF762FF66
:100FE00010BDC046990700209A070020002310B5C5
:100FF000054A137053709370D37013715371034A81
:101000001370FFF74FFF10BD9A07002099070020CB
:10101000F7B5002680270190019B9B5D002B25D012
:101020005AB2002A08DB124AD45C40231C4204D086
:101030004023104D9C4305E0002400253C4204D091
:101040000D4DBC432800FFF78FFFF0231B021C430C
:101050002000FFF789FF2000FFF7A4FF002D02D03A
:101060002800FFF79FFF0136B6B2D5E7F7BDC046AF
:101070002ED3000002E0000040E0000010B5074B56
:101080001B78012B03D106490648FFF727FE9C2059
:1010900005F088F90122044B1A7010BD04060020E7
:1010A000B5C800001403002088070020024B187800
:1010B000431E9841C0B270478807002010B5012137
:1010C0000C2004F0D9FF01210C2004F0A3FFFA202A
:1010D000000105F0E5F80C20002104F0CDFF10BD63
:1010E00007B504F077FE034B1B680193019A024B8E
:1010F0001A6007BD600E002094070020F8B5134E5B
:101100008700BD59281E20D00BF011FB104A01307A
:10111000521BF53284B2FF32121B92B229192800F9
:101120000BF013FA0023BB51F258954201D2121B67
:10113000F25004334C2BF7D1064B1888001B80B2B9
:101140001880FA235B00181A80B2F8BD98090020B5
:10115000A4070020E4090020F8B50F000500FFF700
:10116000CDFF104B38001C880BF0E1FAF922231850
:1011700052000020934214D80B4E3900361930002B
:101180000BF0CDFA094BAD003800EE500BF0CFFA62
:101190000134044B201880B21880FA235B00181A1F
:1011A00080B2F8BDE4090020A407002098090020BF
:1011B00070B519231B251226154C16492380A580CE
:1011C0002581A6810320FFF7C7FF2682124904204C
:1011D000FFF7C2FFA68211490520FFF7BDFF268356
:1011E0000F490620FFF7B8FF4523A383423BA384A2
:1011F0001F332385A31CDD872584A5852586A58629
:101200002587A587A31D4834DD87258070BDC0468E
:10121000800A0020C4C80000CCC80000D6C8000066
:10122000E0C8000010B5064B8200064C9918022059
:10123000095E985C0123125900F06CFC10BDC04699
:10124000800A002098090020244A8000835A10B5A3
:10125000392B26D00ED8082B21D004D8062B18D035
:10126000072B18D039E00F2B2FD0102B35D10022AF
:101270001B4B2CE0462B0ED004D83D2B29D0452B00
:1012800007D02AE0472B0AD04C2B26D102F09CFA3B
:1012900023E0012000E0022001F03EFF1DE00420D9
:1012A000FAE710184388013BDBB21F2B15D8012247
:1012B0009A4013000B490A689A430B4B0A601B784B
:1012C000002B0AD105F0FAFD07E00022074B1A7047
:1012D00003E0074BC05803F082F910BD800A0020DC
:1012E0001C0E00204C110020F50F0020F80D0020EE
:1012F000980900200C4B8000C35A01209A1F022A33
:1013000010D9333A92B2132A05D80849D1400A00BD
:101310000100914306D0002001220F3B9BB29A426C
:101320004041C0B27047C046800A002011700800DA
:1013300073B5164A0500C000141866788E4220D195
:10134000835C062B12D80133DBB28354072B0DD1FB
:10135000A378B3420AD0A6702800012E08D1FFF767
:1013600061FF0B4B1B680193019B636000240BE042
:10137000FFF7C0FF0124002806D02800FFF764FF14
:1013800002E0617000248454200076BDE80900204A
:10139000600E00200021064A531C9932581E197015
:1013A00059700170997008339342F7D17047C04665
:1013B000E809002010B504F00DFD10BD024B034AF2
:1013C0001A80034A5A807047D00A00204054000017
:1013D00001A4FFFF10B5074C0721200006F09CF880
:1013E00020000421083006F097F8A188024806F092
:1013F00093F810BDD00A0020F0C8000070B5042595
:10140000074C07212000A58006F086F8200029005F
:10141000083006F081F8A188024806F07DF870BD1A
:10142000D00A0020ECC80000002310B5054C0721AD
:101430002000A38006F070F820000421083006F098
:101440006BF810BDD00A002010B5084C0721200011
:1014500006F062F820000421083006F05DF8200054
:10146000A1880C3006F058F810BDC046D00A002004
:101470000D4B0E4A1B6812680D499B1A0D4A9BB210
:1014800013731B1253730C4B09681B685B1A9BB2D6
:1014900093731B12D373094B1B6813741B12537481
:1014A000062393807047C0460006002028060020CF
:1014B00014060020D00A002010060020F8050020A5
:1014C00070B50E4D287804F0C5FD4442444168785B
:1014D000E4B204F0BFFD002801D102231C43A87828
:1014E00004F0B8FD002801D104231C43044B002064
:1014F0001A78A24201D01C70013070BD7202002027
:10150000180B002010B5FFF7DBFF034A034B1278DE
:101510001A7301229A8010BD180B0020D00A0020F7
:1015200073B5464B46491C895A890C819D79D6B2C0
:101530008D71050275194D81C1067BD4D2B219791E
:10154000112A2AD004D8002A07D0102A38D071E0F6
:10155000812A07D0822A16D06CE000296AD1FFF7D1
:1015600039FF69E0002965D1364B1B680193019A68
:10157000354B1A60354B364A1B78DBB213700122AB
:10158000344B1A7056E0002954D10123324A1370AB
:101590002F4A13702F4B19704CE0022C08D0032CEB
:1015A00009D0002C46D1002944D1FFF727FF43E0A2
:1015B000FFF75EFF01E0FFF7A5FFFFF745FF3BE008
:1015C000601E052836D808F011F80335350F282C91
:1015D00002292FD1197B214A11805B7B11881B02C4
:1015E000CB189BB2138025E0012923D11C4C1D7B15
:1015F00020780D4200D0002104F00CFD607800211D
:10160000AB0700D4012104F005FDA07800216B0791
:1016100000D4012104F0FEFC0CE0124803F09CFC15
:1016200008E0012906D11A7B084B1A701B78084A7A
:10163000DBB21370FFF7F8FE012076BDF40A00203C
:10164000D00A0020600E00201C0B0020F20A0020AF
:1016500086020020F30A002084020020F00A002005
:10166000380200205406002070B55D4C030020783D
:101670000F2800D9A8E007F0B9FF08191E25343853
:10168000425A5E65697A9A9C9EA0402B01D13F3BED
:101690009BE020229343412B00D0A0E00021514A3F
:1016A000403B1170504A237013708FE0542B00D0D0
:1016B0008AE0523B89E000214C4A11704C4A538029
:1016C000032382E04A4A1B025188CB189BB2538005
:1016D000002B04D11021454A13780B4313700423C7
:1016E00073E0434A938005236FE0414A1B029188CF
:1016F000CB189BB293800F2B66D8062365E03C4A3B
:10170000DDB295713B4A3C481178002901D0002395
:1017100009E07F21027801320A40934204D0334A23
:101720007D3913780B431370057007234DE0304A61
:101730001381082349E02E4A1B021189CB1813811B
:10174000092342E02A4A53810A233EE02B4ADBB2B6
:101750001370274A9288002A05D00B230022237099
:10176000274B1A6032E0DB072CD50C232DE0204AF2
:10177000234D118905290AD128202968FF3081428B
:1017800005D820484354002341184B7002E02968D3
:1017900051180B732B6801332B609288934215D13B
:1017A000164B1B78DB070DD5237801330DE00D2395
:1017B0000BE00E2309E00F2307E004210B4A137806
:1017C0000B431370632300E0002323702378632B03
:1017D00005D1064B1878FFF7A3FE0023237070BDD8
:1017E000380E0020190B0020860200201A0B002062
:1017F000F40A002084020020CC0A0020200B0020E4
:10180000140B0020540600201D4B37B51A88002AFF
:1018100035D01C490A6800921B4A009814681B883E
:101820001B1983422BD80B68184C0193019B136042
:1018300023780133DBB2002B00D1802323700223F5
:10184000134D2B812378AB7120236B81FFF710FEA2
:10185000FFF7FAFDFFF734FE002810D0237801339C
:10186000DBB2002B00D18023237003232B8123784C
:10187000AB7120236B81FFF745FEFFF7E5FD37BD18
:10188000F00A0020600E00201C0B002085020020C2
:10189000D00A002010B504F09DFA10BD70B50022EA
:1018A000050003F0F9FF0400280003F0E3FF00192E
:1018B00070BDFFFFF0B5774C85B077492000FEF78B
:1018C000E4FD76492000FFF709FA75492000FEF78C
:1018D000DCFD744D20006978FFF7E0FF72492000BD
:1018E000FEF7D3FDA9782000FFF7D8FF6F4920004D
:1018F000FEF7CBFD0423E95E2000FEF7CAFD6C492C
:101900002000FEF7C2FD0623E95E2000FEF7C1FDC0
:1019100068492000FEF7B9FD29892000FEF7B9FDCE
:1019200065492000FEF7B1FD69892000FEF7B1FD91
:1019300062492000FEF7A9FDA9892000FEF7A9FD54
:101940005F492000FEF7A1FDE9892000FEF7A1FD17
:101950005C492000FEF799FD297C2000FFF79EFFDF
:1019600059492000FEF791FD698A2000FEF791FD9C
:1019700056492000FEF789FDA98A2000FEF789FD5F
:1019800053492000FEF781FD29782000FFF786FFEC
:1019900050492000FEF779FDA97D2000FFF77EFF6A
:1019A0004D492000FEF771FDE97D2000FFF776FF2D
:1019B0004A492000FEF769FD297E2000FFF76EFFEF
:1019C00047492000FEF761FD697E2000FFF766FFB2
:1019D00044492000FEF759FDE98B2000FEF759FD30
:1019E000013541492000FEF750FDE97F2000FFF757
:1019F00055FF3E492000FEF748FD3D492000FFF716
:101A00006DF900253B492000FEF73FFD082D03DC62
:101A100039492000FEF739FD013529002000FEF785
:101A200038FD36492000FEF730FD354EAB009E19DB
:101A30000193331F1F88334BBF00DF19390003A800
:101A40000AF06DFE03A92000FEF71FFDFB78002BB6
:101A500018D0022B0DD9032B14D12B492000FEF7EF
:101A600014FDAB00294A043BD1582000FEF70DFDC0
:101A700008E025492000023EFEF707FD31882000DE
:101A800003F038FF22492000FFF728F9132DB9D1C0
:101A900005B0F0BD14030020F6C800007502002058
:101AA000FCC800004002002003C900000AC9000071
:101AB00011C9000018C900001FC9000026C9000094
:101AC0002DC9000034C900003BC9000042C9000014
:101AD00049C9000050C9000057C900005EC9000094
:101AE00065C900006CC9000073C900007AC9000014
:101AF0006102002081C90000CACF000088C900002F
:101B0000800A0020F7CA00007EC800009809002063
:101B10007FC80000F0B51500B74A0C001178CFB0AF
:101B20000190170000293DD0B44B1B78012B22D126
:101B3000B34EB4493000FEF7A8FC002239783000DB
:101B400003F0AAFEB0493000FEF79FFC0022019985
:101B5000300003F0A1FEAD493000FEF796FC2100F5
:101B6000300003F0C7FEA9493000FEF78EFC2900C3
:101B70003000FFF7B3F869463878A54A01388988FC
:101B800083009952D3185C80C0B2FFF7B7FA002DDA
:101B900005D0387829000138C0B2FFF7DDFA0023FC
:101BA0003B7089E3019A4E2A00D985E3100007F0C3
:101BB00027FD4F0054006E00780098008200A200BC
:101BC000A600AA00BA00BE00C200C600CD00D30025
:101BD000D600E00094019B01B001B701BA01CD012C
:101BE000E801FF0104021602830374037E0323024B
:101BF0003C02520256025A026E02710274027702CD
:101C0000B602B902BC02BF02C202C502C802CB02C0
:101C1000FD0213035C0359036903EA00FD00070199
:101C200019014901550160016D016203A2017A02A7
:101C30007D028002B202CE026603F902A200A60073
:101C4000AA00AE00B200B600A90138034E0321037A
:101C500070496B48FFF742F82EE3FEF77FFD674BB4
:101C60001B78012B08D1664D6B492800FEF70DFC4F
:101C700021002800FEF70DFC631E9BB2122B01D839
:101C80003C7019E365495E48FFF728F814E301202A
:101C900001F05AFA082004F003FB012001F03CFA9D
:101CA0000AE3022001F050FA082004F0F9FA0220B9
:101CB00001F032FA00E3012001F046FA082004F0B6
:101CC000EFFA012001F028FA082004F0E9FA0120D7
:101CD00001F03AFA082004F0E3FA012001F01CFABE
:101CE000EAE2042001F030FA082004F0D9FA0420D6
:101CF00001F012FAE0E2012001F026FADCE2022013
:101D000001F022FAD8E2042001F01EFAD4E2012008
:101D100001F032FAD0E2022001F02EFACCE20420E7
:101D200001F02AFAC8E2012001F0F6F9C4E202202B
:101D300001F0F2F9C0E2042001F0EEF9BCE2384B08
:101D4000187C404240B201F043FAB5E21020344B17
:101D5000185601F03DFAAFE2314B1C74ACE2002B97
:101D600002D0304B1C70A7E21900200001F04EFA9F
:101D7000A2E2002B02D02C4B1C709DE22100180027
:101D800001F044FA98E2294B29485A681040294A40
:101D9000944200D91400240104435C60264B1B7854
:101DA000002B00D088E205F089F885E21F4B23481C
:101DB0005A6810401F4A944200D91400A403EBE76C
:101DC0001C4B9C4200D91C00184A2106536890689D
:101DD0001B021B0A0B4353600323240A984304434A
:101DE0009460DBE7114B16489A681040114A944200
:101DF00000D91400A4002EE0210B002004060020CE
:101E0000140300208CC9000017CE00000AC800008F
:101E1000800A0020A5C90000B6C90000D9D2000080
:101E200040020020F80D00201C0E00204C11002064
:101E30000FC0FFFFFF030000F50F0020FF3F00FF72
:101E400003F0FFFFC34BC4489A681040C34A944252
:101E500000D91400240304439C609FE7013CE4B2D2
:101E60001F2C00D928E20123A340BA4A11680B4372
:101E70000AE0013CE4B21F2C00D91DE20123A3407B
:101E8000B44A116899430B00136087E70F23002CB5
:101E90001CDB0023162C19DD0133432C16DD013326
:101EA000702C13DD01339D2C10DD0133CA2C0DDDA8
:101EB0000133F42C0ADD922201335200944205DDF5
:101EC0005222FF320023944200DC07330F22A14943
:101ED0004868904303434B6060E7002D00D1EBE17D
:101EE000280001F033FAE7E1002D00D1E4E12800F9
:101EF00002F066FBE0E1002D00D1DDE1280002F0F8
:101F000069FBD9E1002D00D1D6E1280002F06CFB7D
:101F1000D2E1002D00D1CFE1280002F060FBCBE13F
:101F2000FEF71CFCC8E1FEF719FC002D00D1C3E14F
:101F30002B78002B00D1BFE128000AF0F8FB0E2817
:101F400000D9B9E1280000F077FCB5E1002D00D1FF
:101F5000B2E1FEF703FC280000F0B0FE0022804B47
:101F600080491A70804BDA8A8A4203D1198B9142D8
:101F700000D1A1E1598B7D4A11809A8B7C4B1A804C
:101F80009AE1FEF7EBFB0223754D00242B7000F065
:101F9000EBFF0022200001341100E4B200F068FDE4
:101FA000072CF6D100200121287000F081FE83E18A
:101FB000FEF7D4FB01F050F87EE16E4B684C1D78C3
:101FC000012D04D16C496D48FEF75FFA2570FEF7CC
:101FD000C5FB002000F072FE002323706CE1654B0E
:101FE0001B78012B03D166496448FEF777FEFEF7A4
:101FF000B5FB00F099FA5FE15B4BE4B21C705D4BFE
:102000001B78012B00D057E15C48012C03D15D49BE
:10201000FEF764FE50E1012C03D95B49FEF75EFE3A
:102020004AE15A49FEF75AFE46E1524B1B78012B12
:1020300003D157495148FEF751FE0F210620FEF704
:102040003BFC494B1A78002A02D101321A7033E165
:1020500000221A7030E101224E4B1A702CE100224E
:102060004C4B1A7028E1434B1B78012B03D14A4992
:102070004248FEF733FE14210A20FEF71DFC6422BD
:10208000464B002101201A80FEF7D2FD14E1364BA9
:102090005C7011E1344B9C700EE1334B9C800BE182
:1020A000314BDC8008E1304B1C8105E12E4B5C811B
:1020B00002E1304B1B78012B08D1304C384920000D
:1020C000FEF7E3F929002000FEF708FE2B78002B2D
:1020D00000D1F1E000231A002978002911D03B2912
:1020E00002D1002A04D10CE05C2901D1002A05D0DC
:1020F0005A1C03A8C154D3B2002200E001220135CA
:10210000EAE7002203A8C25402F026FF2B785A1EE9
:102110009341ED18DAE7200004F0C2F8CCE0124B4E
:102120009C81C9E0104BDC81C6E00F4B5C82C3E0B0
:102130000D4B9C82C0E00C4B9C75BDE00A4BDC75DE
:10214000BAE0094B1C76B7E0074B5C76B4E0064B6F
:10215000DC83B1E04C110020FF0FC0FFFF03000043
:10216000F40500203232000040020020200600204A
:102170002606002004060020CBC90000140300201E
:10218000DAC90000E7C9000000CA00001CCA00004C
:102190003CCA0000FC05002060CA00003C02002090
:1021A00072CA0000454B0133DC7785E0444B1B7855
:1021B000012B03D143494448FEF790FD002D7BD00D
:1021C0002B78002B78D028000AF0B1FA0E2873D8AB
:1021D000280001F033F96FE0394B1B78012B03D154
:1021E0003A493948FEF77AFD002D65D0280001F004
:1021F000CDFA61E0324B1B78012B03D134493248D0
:10220000FEF76CFD002D57D02B78002B54D0280002
:102210000AF08DFA0E284FD829002E480AF07FFACE
:102220004AE0274B1B78012B03D12B492648FEF7A8
:1022300055FD002D40D02B78002B3DD028000AF012
:1022400076FA0E2838D8280001F0AEFA34E01C4B9C
:102250001B78012B03D121491B48FEF73FFD01F0FC
:10226000B3FA29E001F098F926E0002D24D02800E7
:1022700001F096F920E0A0B201F0B2FA1CE001F002
:10228000A9FA19E001220E4B15491A70154B921844
:102290000D481A70FEF722FD0EE00123084A12498C
:1022A0001370104A08481370FEF718FD04E000236D
:1022B000034A13700B4A13704FB0F0BD4002002068
:1022C0000406002081CA00001403002093CA000005
:1022D000A3CA000061020020C0CA0000D0CA0000EA
:1022E000E0CA0000220B0020EFCA000010B503F086
:1022F00071FD10BD10B5002203F0CEFA10BD10B56F
:10230000002203F0C9FA10BD10B503F063FD10BD43
:10231000F8B51C4CA02223003B331A702300012780
:102320005E331F70230005000E00010A5D33C9B241
:1023300020001F7002F00EFFE9B2200002F00AFF39
:102340003100200002F006FF3900200003F090F871
:10235000052003F0A5FF0C4B1B78022B10D10B4C72
:102360000B492000FEF791F829002000FFF7C7FF76
:1023700008492000FEF789F831002000FFF78EFAA7
:10238000F8BDC04690020020220B0020140300205C
:1023900033CC00007DC80000F7B50D00002400908C
:1023A0002A5D002A02D00134A4B2F9E73434564938
:1023B000A4B200238858C65C002E02D001339BB221
:1023C000F9E70533E4180432A4B24C2AF1D14F4F97
:1023D0003B78012B00D08CE04D4E4E493000FEF78B
:1023E00054F821003000FEF754F8009B002B02D176
:1023F0009023494A1380009B474A5B00D45A3B789C
:10240000012B08D1424E45493000FEF73EF821002D
:102410003000FEF73EF870212000FFF779FF601CC6
:1024200080B20221FFF774FF0026A71CBFB23C4B0D
:10243000B819995D80B20136FFF76AFF302EF6D1E8
:1024400027003234A0B20021FFF762FF00263337A5
:10245000BFB2A95D01363800B6B2FFF759FFAB191C
:10246000013B7C1C1B78A4B22700002BF1D11D007E
:1024700000262C4FEF19A019B95D80B20136FFF785
:1024800047FF042EF7D1201D80B20021FFF740FF47
:10249000661D1D4B2F34FF345F59A3B2B6B20193B2
:1024A00039783000FFF734FF3B78741CA4B2002B5E
:1024B00003D104354C2DDBD105E0019B013726000B
:1024C0009C42EDD1F5E7009B062B03D1124B8E33D6
:1024D0001C8004E0009B104A01335B00D4520024AE
:1024E0000D4B2000195D0134FFF712FF902CF7D13E
:1024F00008E0009B002B00D17AE7009B064A5B00B6
:10250000D45A88E7F7BDC04698090020220B002066
:10251000140300203DCC0000240B002048CC000018
:1025200040020020800A002070B5104B1B78012B60
:1025300003D10F490F48FEF7D1FB002426000E4DB2
:102540000021605BFFF7E4FE605B00210130FFF7D4
:10255000DFFE665302340E2CF1D10024295D2000E9
:102560000134FFF7D5FE902CF8D170BD220B00206E
:1025700059CC000014030020240B0020F0B585B0D6
:1025800002930400002301910392019AD25C002A75
:1025900002D001339BB2F8E7404F414D3B78012B0D
:1025A00072D1404E40493000FDF76FFF029B300072
:1025B000D91CFDF76EFF002C01D13C4BEB81231D94
:1025C0005B00ED183B78EE88012B08D1354D38497A
:1025D0002800FDF75AFF31002800FDF75AFF3000B0
:1025E0006621B51E013EFFF793FEB0B2BB21FFF797
:1025F0008FFE0026ADB2019B2800995DFFF788FE93
:102600000136019BB6B29B19013B1B786F1EBFB20E
:10261000002B01D03D00EEE7AB1E9BB202993800C3
:102620000193FFF775FE6B461B89039E02935B00C7
:10263000ED1A023DABB2019D0393039B9D420ED068
:1026400031782800FFF764FE6F1E3188BFB2023D6B
:10265000090A3800ADB2FFF75BFE0236EDE7029BD8
:10266000019A5B00D31A9BB20D4D3E2C03D005346A
:1026700064002C19E3800024295D20000134FFF759
:1026800047FE902CF8D106E0002C96D0231D5B006D
:10269000ED18EE88A3E705B0F0BDC046220B002080
:1026A000240B0020140300206CCC0000FF7F0000EE
:1026B0007ACC000070B5234CA02223003B331A7063
:1026C000230001265E331E7023000500010A5D33DE
:1026D000C9B220001E7002F03DFDE9B2200002F0F8
:1026E00039FD3100200002F0C3FE330032005021DA
:1026F000200002F039FF23002200393338321978E4
:102700001378FE36994206D00026994203D9591C07
:102710001170E418267E0C4B1B78022B10D10B4C49
:102720000B492000FDF7B1FE29002000FFF7E7FD6F
:1027300008492000FDF7A9FE31002000FFF7AEF8A0
:10274000300070BD90020020220B002014030020F6
:102750008FCC00007DC80000F0B5002485B001904A
:102760002E4B6200D55A002D43D02800FFF7A2FF60
:1027700070283ED1681C80B2FFF79CFF022838D138
:1027800000273335ABB2019D0393039B019A2E784A
:102790009B1A5B1918000293FFF78CFF86421FD02B
:1027A0001F4B1B78022B24D11E4E1F493000FDF712
:1027B0006CFE39003000FFF7A2FD1C493000FDF728
:1027C00064FE287804F018FF19493000FDF75DFE1B
:1027D0000298FFF76FFF01003000FFF75FF808E095
:1027E0002B78002B03D0013701350F2FCDD160B2EC
:1027F00011E00134072CB3D1094B1B78012B08D110
:10280000084C0C492000FDF740FE01992000FEF71E
:1028100065FA0120404205B0F0BDC046240B0020FF
:10282000220B00201403002099CC00007EC8000079
:10283000ADCC0000B0CC0000F8B50600FFF78CFF6F
:10284000431C2DD10024174B6200D55AE7B2002D4E
:1028500006D1154B1B78012B1AD1144D144910E0E9
:102860002800FFF727FF702817D00135A8B2FFF71F
:1028700021FF022811D00C4B1B78012B08D10B4DE6
:102880000C492800FDF701FE39002800FFF706F883
:1028900060B23100FFF780FD02E00134072CD2D195
:1028A000F8BDC046240B0020220B0020140300209A
:1028B000C3CC0000CECC0000F0B5002485B0009061
:1028C000E3B2394A03936300D318DD89002D56D053
:1028D0002800FFF7EFFE662851D1681E80B2FFF78F
:1028E000E9FEBB284BD10026023D009FADB23B78EC
:1028F0000193AB1B18000293FFF7DCFE019B8342A0
:102900001FD02A4B1B78022B39D1294D2949280089
:10291000FDF7BBFD31002800FFF7F1FC2649280038
:10292000FDF7B3FD387804F067FE24492800FDF771
:10293000ACFD0298FFF7BEFE01002800FEF7AEFFD7
:102940001DE03B78002B03D0013601370F2ECED18E
:10295000164B1B78012B10D1154D19492800FDF796
:1029600094FD00992800FDF790FD16492800FDF719
:102970008CFD03992800FEF791FF60B211E001344D
:102980003F2C9DD1094B1B78012B08D1084C0E49D7
:102990002000FDF77AFD00992000FEF79FF9012045
:1029A000404205B0F0BDC046240B0020220B0020A1
:1029B0001403002099CC00007EC80000ADCC0000BC
:1029C000DFCC0000D4CD0000B0CC0000F8B5037817
:1029D0000700214C002B26D0FFF76EFF1F4BC5B21E
:1029E0001B78012B10D11E4E1E493000FDF74DFD06
:1029F00039003000FDF749FD1B493000FDF745FD6A
:102A000029003000FEF74AFF04356D006419E088A4
:102A100090281FD9FF21FFF77BFCE088FF210138B8
:102A2000FFF776FC16E0250010490D48FEF756F931
:102A30000E358C342888902807D9FF21FFF768FCD1
:102A40002888FF210138FFF763FC00232B80023523
:102A5000A542EFD1F8BDC046240B0020220B002078
:102A600014030020F1CC0000D4CD000000CD000004
:102A7000F0B585B005000292062800D900257C4FEC
:102A8000002935D06B000193FE5A7A4B1B78012B3D
:102A900008D1794C79492000FDF7F7FC2900200086
:102AA000FEF7FCFE741C3000A4B2FFF703FE702892
:102AB0000CD102362000B6B2FFF7FCFD022804D18B
:102AC0006B00FC5A6E4B1D7004E034000135EDB212
:102AD000072DD7D12000FFF7EDFD702800D0B2E020
:102AE000601C80B2FFF7E6FD022800D0ABE00EE0EC
:102AF0006D007C5B2000FFF7DDFD702800D0B4E0A6
:102B0000601C80B2FFF7D6FD022800D0ADE0023491
:102B1000A4B2584B1A780393012A08D1564D59494B
:102B20002800FDF7B2FC21002800FDF7B2FC0025CB
:102B3000601980B2FFF7BEFD534B58550135302D5B
:102B4000F6D1524E31343700A4B22000FFF7B2FD67
:102B5000651CADB230702C0001360028F5D14C4B0D
:102B60001B78012B08D1444C4A492000FDF78DFC0D
:102B700039002000FEF7B2F800260024F3B20193DA
:102B8000454BB700FF18281980B2FFF793FD385561
:102B90000134042CF7D1281D6C1D80B2A4B2FFF7BC
:102BA00089FD00280BD0344F3C493800FDF76DFCFF
:102BB000601EFFF77FFD01003800FEF76FFE20006A
:102BC000FFF778FD002814D000272000FFF772FDE2
:102BD0003349651CADB2C855002803D10198FEF7F2
:102BE000BBFA08E02A230137FF332C009F42ECD1C7
:102BF000F4E70635ADB20136132EBED1294B1A7853
:102C00001D00002A01D0FEF755FE029B002B04D0C8
:102C10001B4B02201978FEF70BF8039B1B78002B47
:102C200009D0154C20492000FDF72FFC144B200043
:102C30001978FEF733FE2B78002B16D01B490E486F
:102C4000FEF74CF811E03C882000FFF733FD7028B8
:102C50000BD1601C80B2FFF72DFD022805D10022A8
:102C6000074B0234A4B21A7053E705B0F0BDC0465A
:102C7000240B0020220B00201403002016CD00009E
:102C80002406002026CD000040020020750200200E
:102C90000406002045CD0000800A002055CD00002C
:102CA00054060020F40500206ECD00006BD000001B
:102CB00010B50122FFF7DCFE10BDFFFF70B50378F1
:102CC0000600002B04D1134B18780130C0B21AE073
:102CD000FFF742FD104B04001B78012B10D10F4D64
:102CE0000F492800FDF7D1FB31002800FDF7CDFB8F
:102CF0000C492800FDF7C9FB21002800FDF7C9FB9E
:102D0000002C02DBE0B2012101E001210020FFF7ED
:102D1000CFFF70BD24060020220B002014030020EA
:102D200078CD0000D4CD0000F7B5070000910192E6
:102D3000FFF7C2FD431C29D10025154A6B00D318AB
:102D4000DC89EEB2002C0AD02000FFF7B3FC662825
:102D500019D0013CA0B2FFF7ADFCBB2813D00D4B3E
:102D60001B78012B08D10C4C0C492000FDF78DFB82
:102D700031002000FEF792FD019B009A39003000DF
:102D8000FFF7FCFB02E001353F2DD6D1F7BDC04671
:102D9000240B0020220B00201403002083CD000010
:102DA000F8B50025184A6B00D318DC89EEB2200074
:102DB000FFF780FC662822D1601E80B2FFF77AFC04
:102DC000BB281CD1114F12493800FDF75EFB3100C2
:102DD0003800FFF78FFA023C0E493800A4B2FDF725
:102DE00054FB661E2000B6B2FFF764FC002803D037
:102DF00004F002FC3400F4E7380002F03BFD01353A
:102E00003F2DCFD1F8BDC046240B00201403002075
:102E100094CD000017CE0000F7B50E0000923F28B9
:102E200001D9002455E02C4B04302C4D40001818DB
:102E30002B78C488012B03D129492A48FDF74EFF7E
:102E40002000FFF737FC6628EBD1601E80B2FFF749
:102E500031FCBB28E5D12B78023CA4B2012B08D170
:102E6000204D21492800FDF710FB21002800FDF727
:102E700010FB671E2000BFB2FFF71CFC002801D02A
:102E80003C00F6E73800FFF715FC009BA51E5B0031
:102E9000E41A023CA3B284B2ADB200936300EB1A11
:102EA0009BB20193009B9D4213D0019B9D4210D089
:102EB0002800FFF7FFFB6F1EBFB230803800FFF71E
:102EC000F9FB33880002023D18183080ADB202369B
:102ED000E8E72000FEBDC046240B0020220B0020A6
:102EE0009ECD000014030020B4CD0000F7B506000D
:102EF0000F000192FFF7E0FC164B04001B7800283E
:102F000019DB012B10D1144D14492800FDF7BDFA2F
:102F100031002800FDF7B9FA11492800FDF7B5FA8C
:102F200021002800FDF7B5FAE0B2019A3900FFF759
:102F300073FF04000BE00024012B08D1064D094962
:102F40002800FDF7A2FA31002800FDF7C7FE200097
:102F5000FEBDC0460406002014030020E0CD0000A2
:102F6000D4CD0000D6CD0000F8B500252800FFF72D
:102F7000A1FB314C28550135902DF7D100231D00C0
:102F80002E49CA5C0133AD18ADB2102BF9D120889F
:102F9000FFF790FB702838D120880130FFF78AFBBB
:102FA000022832D123008C331B88AB422DD1244B15
:102FB0001B78012B3ED1234D23492800FDF78EFEBF
:102FC0000026F1B22800FFF795F9204F28003900BC
:102FD000FDF75BFA7300E15A28000136FDF759FA54
:102FE000072EEED10026F1B22800FFF783F9390051
:102FF0002800FDF74AFA7300E318D9892800013642
:10300000FDF747FA3F2EEED114E004210220FDF730
:103010000FFE0F490B48FDF761FEFFF785FA002010
:10302000FFF7D4FC23000B498C3300201D80FFF7F1
:10303000B3F9BCE7F8BDC046240B0020A5C90000C9
:10304000220B002014030020F1CD00007DC80000F9
:1030500019CE00002ECE0000F8B50025174B6A00EF
:10306000D45AEEB22000FFF725FB702822D1601C55
:1030700080B2FFF71FFB02281CD1114F1149380005
:10308000FDF703FA31003800FFF734F933340E4905
:103090003800A4B2FDF7F9F9661C2000B6B2FFF7BC
:1030A00009FB002803D004F0A7FA3400F4E7380045
:1030B00002F0E0FB0135072DD0D1F8BD240B002034
:1030C0001403002034CE000017CE00001F2310B5DB
:1030D000064A184011780843814206D00023107038
:1030E00019001A00180004F04DF910BD001000205E
:1030F0001F2310B5074A184011780B0083439942EB
:1031000006D0137000231A001900180004F03AF9D1
:1031100010BDC0460010002070B50A4B05005A1CB7
:10312000D27F1C00D30701D5FFF7E2FF631CDB7FD2
:103130009B0706D5FDF7BAFF002802D02800FDF74F
:1031400099FE70BD4002002070B50A4B05005A1C64
:10315000D27F1C00D30701D5FFF7B8FF631CDB7FCC
:103160009B0706D5FDF7A2FF002802D02800FDF737
:1031700073FE70BD4002002070B5134B04005A1C52
:10318000D27F1D00D30709D5104B1A780240D30611
:1031900002D0FFF7ADFF01E0FFF798FF6B1CDB7F6C
:1031A0009B070FD5FDF782FF00280BD02000FDF70D
:1031B0006FFE002803D02000FDF75CFE02E0200037
:1031C000FDF74AFE70BDC0464002002000100020FE
:1031D00070B50D4B05005A1CD27F1C00D30705D5D6
:1031E000002302001900180004F0CCF8631CDB7FF8
:1031F0009B0708D5FDF75AFF002804D00021EAB24A
:103200000800FDF799FD70BD40020020F8B50500EB
:103210000E0001272B004C4C803301DB022724E0F9
:10322000631CDB7F3B4206D0002380201A0019007C
:10323000404204F0A7F80134E37F9B0703D5FDF774
:1032400035FF002865D18035E4E70122631CDB7F70
:10325000134205D000237F201A00190004F092F8D1
:10326000631CDB7F3B4204D17F3D7F2DEDDC0127DA
:1032700014E0FDF71BFF002852D1F5E7631CDB7F4C
:103280003B4206D0002380211A004942180004F076
:1032900079F8631CDB7F9B0705D4803633008033CD
:1032A000ECDB022714E0FDF701FF00283ED1F4E734
:1032B0000122E318DB7F134205D000237F211A008F
:1032C000180004F05FF8631CDB7F3B4204D17F3EB3
:1032D00001237F2EECDC04E0FDF7E8FE00282CD172
:1032E000F5E7621CD27F1A4205D0002371B268B2A2
:1032F0001A0004F047F80134E37F9B0723D5FDF75C
:10330000D5FE00281FD0002231002800FDF714FD53
:1033100019E00022802011004042FDF70DFD92E7E8
:1033200000227F201100FDF707FD9DE7002280218C
:1033300010004942FDF700FDAFE700227F21100099
:10334000FDF7FAFCC3E7F8BD4002002070B5104B52
:1033500005005A1CD27F1E00D3070DD5002428007B
:1033600009F0E5F9A04207D9285D03F0AFFE285D1A
:1033700003F032FF0134F2E7731CDB7F9B0706D5B5
:10338000FDF794FE002802D02800FDF741FE70BD35
:103390004002002070B50B4B05005A1CD27F1C0068
:1033A000D30702D580B203F091FE631CDB7F9B073D
:1033B00006D5FDF77BFE002802D02800FDF7D4FDDE
:1033C00070BDC0464002002070B50B4B05005A1C72
:1033D000D27F1C00D30702D580B203F0FDFE631C30
:1033E000DB7F9B0706D5FDF761FE002802D0280091
:1033F000FDF7D8FD70BDC0464002002010B5094B56
:103400005A1CD27F1C00D30701D503F03BFF631C7D
:10341000DB7F9B0705D5FDF749FE002801D0FDF7AE
:10342000E5FD10BD4002002010B502F0D3FC10BD38
:1034300010B5040002F0D4F9200010BDF0B5464CE0
:1034400087B0236801900493049D444F387802F0BC
:1034500001FE039700280BD02368414A0593059B82
:103460005B1B9342F1D93F493F48FDF737FC70E0C1
:1034700006003E4C20802388F92B14D802F0ECFE85
:10348000029002F0E9FE029BC51A394B1A681F0030
:10349000954205D2039B187802F0DCFD8642F0D0FD
:1034A0003B689D423FD323882F4D3249FA2B00D0F1
:1034B00031492800FDF712FC00210B20FDF7B8FB75
:1034C0002E4B2F4F1B78012B13D12E492800FDF7CF
:1034D00005FC00262388B34207D97300F95A280057
:1034E0000136FCF7D6FFF6B2F4E727492800FDF7CE
:1034F000F5FB26492800FCF7BBFF01992800FCF7E3
:10350000B7FF23492800FCF7B3FF2188280002F009
:10351000F1F920492800FDF7E1FB227839000198F4
:10352000FFF702FC15E0FA231B029D4207D9FA219E
:103530002800890006F06EF8FA231B02C518012046
:1035400023880F4A590046401B188D52F6B223803B
:1035500091E707B0F0BDC046600E00207102002068
:103560000F27000039CE000014030020C40B0020F8
:103570008802002052CE000069CE00000406002020
:10358000C60B002082CE000096CE0000A5CE000023
:10359000BBCE0000C2CE000010B5FFF701FC10BD8D
:1035A00010B5FFF713FA10BDF8B52B4EFA22310013
:1035B000FFF79CFC294F2A4B38801B78002806D146
:1035C000012B47D127492848FDF788FB42E0012B12
:1035D00014D1254D25492800FDF780FB00243B88A8
:1035E000A34207D96300F15A28000134FCF751FFC8
:1035F000A4B2F4E71E492800FDF770FB0021092062
:10360000FDF716FB00231B4A1B4C13801B4A1C4969
:1036100013701C4A20001360EF2202F087F8142177
:1036200023682171002B15D01748184A1B181B114D
:10363000D154117853781648164A994205D8036830
:1036400009041A400A43026004E001681B040A40AE
:1036500013430360F8BDC046C60B0020C40B002016
:1036600004060020CFCE00001403002082CE00000C
:1036700096CE0000C20B0020B80B0020C00B00202B
:1036800099360000B40B0020008FFCBFFC02002024
:1036900014E400E0FFFF00FFF8B52F4A2F4F128817
:1036A0003B883E002E4D2F4C934223D92878002191
:1036B00002F018FD2878002102F0ACFC00232370F2
:1036C0003B80294B1A68002A01DD013A1A601B6809
:1036D000002B40D1254802F083F8254A1368002BBF
:1036E00039DD013B1360234B013BFDD12248FFF73D
:1036F0005BFF30E0934206D11C4B1B68002B1CD0B3
:103700001E4A1A6019E01E4A5B009B5AFA221202F6
:10371000934204D9FA22920053431A4A9B181A4939
:103720005A1E8A4209D818225343013B232B04D93D
:103730000E4A1268002A00D013602178287802F01F
:10374000D1FC2378002B01D1803300E000232370CB
:10375000338801333380F8BDC40B0020C20B002036
:1037600070020020C00B0020C00D0020B80B00200C
:10377000BC0D002000710200610200207FA903003F
:10378000C60B002000702FFCAFAAAA0A012310B5B7
:10379000034A1360034A1360FFF706FF10BDC046DB
:1037A000C00D0020BC0D0020012210B5044B524278
:1037B0001A60044B02321A60FFF7F6FE10BDC046D5
:1037C000C00D0020BC0D00200022014B1A60704784
:1037D000C00D002010B50020FFF7F8F810BDFFFF66
:1037E000002804D0FA239B005843014B186070470F
:1037F0008802002010B502F0EDFA00230448054AC3
:10380000036005498033037108F040FE10BDC046D7
:10381000B80B0020300200203134000010B5FFF753
:10382000EDFD00231900034A99500433202BFBD1EE
:1038300010BDC046C40D0020002310B5064A9900F3
:103840008C58002C00D188505158884202D0013346
:10385000072BF4DD10BDC046C40D0020002330B599
:103860000B499A0055580C0085420CD18A1800214A
:10387000072B05D050184068013350500431F7E74A
:103880000023E36102E00133072BEADD30BDC046CF
:10389000C40D00200023054A9958814204D0043306
:1038A000202BF9D1002000E001207047C40D00203A
:1038B00010B50400032916D8080005F097FE0E0E77
:1038C00007022000FFF7E6FF002806D02000FFF7E0
:1038D000C5FF2000FFF778FD05E02000FFF7ACFFF3
:1038E0002000FFF757FD10BD70B504000D0008F073
:1038F0001EFF023008F00CFE0600210008F00FFF4A
:10390000300008F014FF301801380378D24C202B17
:1039100003D02100300008F0EBFE2100300008F059
:103920000DFF041E01D100F0C9FDCC4908F0EDFEE9
:10393000002803D12900CA48FFF7BAFFC94920006F
:1039400008F0E3FE002803D12900C748FFF7B0FFC5
:10395000C649200008F0D9FE002803D12900C44838
:10396000FFF7A6FFC349200008F0CFFE002803D1CF
:103970002900C148FFF79CFFC049200008F0C5FEA0
:10398000002803D12900BE48FFF792FFBD4920005F
:1039900008F0BBFE002803D12900BB48FFF788FFD1
:1039A000BA49200008F0B1FE002803D12900B84828
:1039B000FFF77EFFB749200008F0A7FE002803D1DB
:1039C0002900B548FFF774FFB449200008F09DFEB8
:1039D000002803D12900B248FFF76AFFB14920004F
:1039E00008F093FE002803D12900AF48FFF760FFDD
:1039F000AE49200008F089FE002803D12900AC4818
:103A0000FFF756FFAB49200008F07FFE002803D1E6
:103A10002900A948FFF74CFFA849200008F075FECF
:103A2000002803D12900A648FFF742FFA54920003E
:103A300008F06BFE002803D12900A348FFF738FFE8
:103A4000A249200008F061FE002803D12900A04807
:103A5000FFF72EFF9F49200008F057FE002803D1F2
:103A600029009D48FFF724FF9C49200008F04DFEE7
:103A7000002803D129009A48FFF71AFF994920002E
:103A800008F043FE002803D129009748FFF710FFF4
:103A90009649200008F039FE002803D129009448F7
:103AA000FFF706FF9349200008F02FFE002803D1FE
:103AB00029009148FFF7FCFE9049200008F025FE00
:103AC000002803D129008E48FFF7F2FE8D4920001F
:103AD00008F01BFE002803D129008B48FFF7E8FE01
:103AE0008A49200008F011FE002803D129008848E7
:103AF000FFF7DEFE8749200008F007FE002803D10B
:103B000029008548FFF7D4FE8449200008F0FDFD18
:103B1000002803D129008248FFF7CAFE814920000E
:103B200008F0F3FD002803D129007F48FFF7C0FE0D
:103B30007E49200008F0E9FD002803D129007C48D7
:103B4000FFF7B6FE7B49200008F0DFFD002803D117
:103B500029007948FFF7ACFE7849200008F0D5FD30
:103B6000002803D129007648FFF7A2FE75492000FE
:103B700008F0CBFD002803D129007348FFF798FE19
:103B80007249200008F0C1FD002803D129007048C7
:103B9000FFF78EFE6F49200008F0B7FD002803D123
:103BA00029006D48FFF784FE6C49200008F0ADFD48
:103BB000002803D129006A48FFF77AFE69492000EE
:103BC00008F0A3FD002803D129006748FFF770FE25
:103BD0006649200008F099FD002803D129006448B7
:103BE000FFF766FE6349200008F08FFD002803D12F
:103BF00029006148FFF75CFE6049200008F085FD60
:103C0000002803D129005E48FFF752FE5D492000DD
:103C100008F07BFD002803D129005B48FFF748FE30
:103C20005A49200008F071FD002803D129005848A6
:103C3000FFF73EFE5749200008F067FD002803D13A
:103C400029005548FFF734FE5449200008F05DFD77
:103C5000002800D0A8E0A3E07EC80000E3CE00006A
:103C600002E00000EDCE000001E00000F6CE000012
:103C700004E00000FECE000040E000000CCF000099
:103C800008E0000014CF000080E0000022CF000018
:103C900052F0000029CF000051F0000032CF0000A8
:103CA00050F000003BCF00004FF0000045CF000077
:103CB00028F000004FCF00002CF0000059CF00008A
:103CC00029F0000061CF00002AF000006FCF000053
:103CD0002BF0000077CF000039F0000085CF000006
:103CE0003AF000008CCF00003BF0000093CF0000C2
:103CF0003CF000009ACF00003DF00000A1CF000092
:103D00003EF00000A8CF00003FF00000AFCF000061
:103D100040F00000B6CF000041F00000BDCF000031
:103D200042F00000C4CF000043F00000CCCF000000
:103D300044F00000D4CF000045F00000DCCF0000CC
:103D400068F00000E4CF000069F00000ECCF000054
:103D50006AF00000F4CF00006BF00000FCCF000020
:103D60006CF0000004D000006DF000000CD00000EA
:103D70006EF0000014D000006FF000001CD00000B6
:103D800070F0000024D0000071F000002CD0000082
:103D900072F0000034D0000073F000003CD000004E
:103DA0002900D448FFF784FDD349200008F0ADFC7A
:103DB000002803D12900D148FFF77AFDD04920001F
:103DC00008F0A3FC002803D12900CE48FFF770FDBE
:103DD000CD49200008F099FC002803D12900CB48E8
:103DE000FFF766FDCA49200008F08FFC002803D1C8
:103DF0002900C848FFF75CFDC749200008F085FC92
:103E0000002803D12900C548FFF752FDC44920000E
:103E100008F07BFC002803D12900C248FFF748FDC9
:103E2000C149200008F071FC002803D12900BF48D7
:103E3000FFF73EFDBE49200008F067FC002803D1D3
:103E40002900BC48FFF734FDBB49200008F05DFCA9
:103E5000002803D12900B948FFF72AFDB8492000FE
:103E600008F053FC002803D12900B648FFF720FDD5
:103E7000B549200008F049FC002803D12900B348C7
:103E8000FFF716FDB249200008F03FFC002803D1DF
:103E90002900B048FFF70CFDAF49200008F035FCC1
:103EA000002803D12900AD48FFF702FDAC492000EE
:103EB00008F02BFC002803D12900AA48FFF7F8FCE2
:103EC000A949200008F021FC002803D12900A748B7
:103ED000FFF7EEFCA649200008F017FC002803D1EC
:103EE0002900A448FFF7E4FCA349200008F00DFCDA
:103EF000002803D12900A148FFF7DAFCA0492000DF
:103F000008F003FC002803D129009E48FFF7D0FCED
:103F10009D49200008F0F9FB002803D129009B48A7
:103F2000FFF7C6FC9A49200008F0EFFB002803D1F8
:103F300029009848FFF7BCFC9749200008F0E5FBF2
:103F4000002803D129009548FFF7B2FC94492000CE
:103F500008F0DBFB002803D129009248FFF7A8FCFA
:103F60009149200008F0D1FB002803D129008F4897
:103F7000FFF79EFC8E49200008F0C7FB002803D104
:103F800029008C48FFF794FC8B49200008F0BDFB0A
:103F9000002803D129008948FFF78AFC88492000BE
:103FA00008F0B3FB002803D129008648FFF780FC06
:103FB0008549200008F0A9FB002803D12900834887
:103FC000FFF776FC8249200008F09FFB002803D110
:103FD00029008048FFF76CFC7F49200008F095FB22
:103FE000002803D129007D48FFF762FC7C492000AE
:103FF00008F08BFB002803D129007A48FFF758FC12
:104000007949200008F081FB002803D12900774876
:10401000FFF74EFC7649200008F077FB002803D11B
:1040200029007448FFF744FC7349200008F06DFB39
:10403000002803D129007148FFF73AFC704920009D
:1040400008F063FB002803D129006E48FFF730FC1D
:104050006D49200008F059FB002803D129006B4866
:10406000FFF726FC6A49200008F04FFB002803D127
:1040700029006848FFF71CFC6749200008F045FB51
:10408000002803D129006548FFF712FC644920008D
:1040900008F03BFB002803D129006248FFF708FC29
:1040A0006149200008F031FB002803D129005F4856
:1040B000FFF7FEFB5E49200008F027FB002803D134
:1040C00029005C48FFF7F4FB5B49200008F01DFB6A
:1040D000002803D129005948FFF7EAFB584920007E
:1040E00008F013FB002800D0AEE029005548FFF788
:1040F000DFFBA9E049F0000047D000004AF00000D3
:1041000050D000004BF000005CD000004CF00000EC
:1041100067D000004DF000006FD000004EF00000AE
:104120007DD0000004F0000083D0000005F0000006
:1041300089D0000006F000008FD0000007F00000DA
:1041400095D0000008F000009BD0000009F00000AE
:10415000A1D000000AF00000A7D000000BF0000082
:10416000ADD000000CF00000B3D000000DF0000056
:10417000B9D000000EF00000BFD000000FF000002A
:10418000C5D0000010F00000CBD0000011F00000FE
:10419000D1D0000012F00000D7D0000013F00000D2
:1041A000DDD0000014F00000E3D0000015F00000A6
:1041B000E9D0000016F00000EFD0000017F000007A
:1041C000F5D0000018F00000FBD0000019F000004E
:1041D00001D100001AF0000007D100001BF0000020
:1041E0000DD100001CF0000013D100001DF00000F4
:1041F00019D100001EF000001FD100001FF00000C8
:1042000025D1000020F000002BD1000021F000009B
:1042100031D1000022F0000037D1000023F000006F
:104220003DD1000024F0000043D1000025F0000043
:1042300049D1000026F000004FD1000027F0000017
:1042400055D1000048F000009E49200008F05DFABA
:10425000002803D129009C48FFF72AFB9B49200036
:1042600008F053FA002803D129009948FFF720FBF2
:104270009849200008F049FA002803D129009648FF
:10428000FFF716FB9549200008F03FFA002803D1FC
:1042900029009348FFF70CFB9249200008F035FAFB
:1042A000002803D129009048FFF702FB8F49200026
:1042B00008F02BFA002803D129008D48FFF7F8FAFF
:1042C0008C49200008F021FA002803D129008A48EF
:1042D000FFF7EEFA8949200008F017FA002803D109
:1042E00029008748FFF7E4FA8649200008F00DFA14
:1042F000002803D129008448FFF7DAFA8349200017
:1043000008F003FA002803D129008148FFF7D0FA0A
:104310008049200008F0F9F9002803D129007E48DF
:10432000FFF7C6FA7D49200008F0EFF9002803D115
:1043300029007B48FFF7BCFA7A49200008F0E5F92C
:10434000002803D129007848FFF7B2FA7749200006
:1043500008F0DBF9002803D129007548FFF7A8FA17
:104360007449200008F0D1F9002803D129007248CF
:10437000FFF79EFA7149200008F0C7F9002803D121
:1043800029006F48FFF794FA6E49200008F0BDF944
:10439000002803D129006C48FFF78AFA6B492000F6
:1043A00008F0B3F9002803D129006948FFF780FA23
:1043B0006849200008F0A9F9002803D129006648BF
:1043C000FFF776FA6549200008F09FF9002803D12D
:1043D00029006348FFF76CFA6249200008F095F95C
:1043E000002803D129006048FFF762FA5F492000E6
:1043F00008F08BF9002803D129005D48FFF758FA2F
:104400005C49200008F081F9002803D129005A48AE
:10441000FFF74EFA5949200008F077F9002803D138
:1044200029005748FFF744FA5649200008F06DF973
:10443000002803D129005448FFF73AFA53492000D5
:1044400008F063F9002803D129005148FFF730FA3A
:104450005049200008F059F9002803D129004E489E
:10446000FFF726FA4D49200008F04FF9002803D144
:1044700029004B48FFF71CFA4A49200008F045F98B
:10448000002803D129004848FFF712FA47492000C5
:1044900008F03BF9002803D129004548FFF708FA46
:1044A0004449200008F031F9002803D1290042488E
:1044B000FFF7FEF941490020FFF731FA300008F01C
:1044C00031F870BD5FD1000047F000006FD10000EF
:1044D00053F000007CD1000046F000008CD10000B9
:1044E00033F000009AD1000036F00000A4D10000A3
:1044F00037F00000AFD100002DF00000B9D100006E
:104500002EF00000C3D1000038F00000CDD1000033
:1045100031F00000DBD100002FF00000EAD10000F4
:1045200030F00000FAD1000034F0000004D20000A6
:1045300035F000000ED2000065F0000017D2000038
:1045400054F0000024D2000055F0000033D20000E7
:1045500056F0000040D2000057F000004CD200009E
:1045600058F0000059D2000059F0000062D200005B
:104570005AF000006BD200005BF0000074D2000023
:104580005CF000007DD200005DF0000086D20000EB
:104590005EF000008FD200005FF0000098D20000B3
:1045A00060F00000A1D2000061F00000AAD200007B
:1045B00062F00000B3D2000063F000007EC800008B
:1045C00010B504000021FFF78FF902212000FFF74A
:1045D0008BF910BD10B50121FFF786F910BD10B59C
:1045E0000221FFF781F910BD10B50321FFF77CF917
:1045F00010BD10B501F0EEFB10BDFFFFF0B5C24BD2
:1046000089B01B68C14D0793079CC14B01901C608A
:104610002B681700E01A049106F064F8BD4BBE4900
:1046200018602C6005F090FB07F050FEBB4BBC4AB5
:10463000186059601368BB4EBB4202DA0123337025
:1046400005E000213170BB4201DD012300E00023C1
:10465000B54917600B70B54B1A78029300239A4244
:1046600000D0C833B24C2078062800D9D0E004F03E
:10467000BDFF04192A6777CFBF00029B5B8A9F4268
:1046800005DD0123002105202370FCF7D1FA029BF0
:104690009B8A9F4200DBBBE0032000212070FCF7D7
:1046A000C7FAB5E0029BDA89A24B974202DA1A6890
:1046B000013200E000221A601B68132B01DC00F0BD
:1046C000F1FB022392E004995A428A4208DD00215C
:1046D0000620FCF7ADFA0F20FCF7A4FD0F204BE0FD
:1046E00001998A4208DD00210620FCF7A1FA112079
:1046F000FCF798FD11203FE0019A934208DA00216F
:104700000620FCF795FA1220FCF78CFD122033E00E
:10471000049A934208DA00210620FCF789FA102057
:10472000FCF780FD102027E0824A13680133C82B74
:1047300063DD00230A201360FCF774FD0A2052E0B9
:10474000029B9A897B4B974202DD1A68013200E096
:1047500000221A601B68132B00DCA3E3042345E04E
:1047600004995A4291420FDA00210420FCF760FAC2
:104770000B20FCF757FD0B20FCF766FD06230022FB
:1047800023706C4B1A6043E00199914208DA0021D2
:104790000420FCF74DFA0D20FCF744FD0D20EBE75B
:1047A000019A934208DA00210420FCF741FA0E2016
:1047B000FCF738FD0E20DFE7049A934208DA002167
:1047C0000420FCF735FA0C20FCF72CFD0C20D3E775
:1047D000584A13680133C82B0FDD002308201360EB
:1047E000FCF720FD0820FCF72FFD062323700FE0C7
:1047F000504A13680133962B01DC136052E3002505
:1048000015602570FCF7C6FD4B4B1D704B4B1D70A2
:1048100023780024A34200D044E3494D285D01F0F1
:1048200019FC414241412000C9B20134FCF780FD2E
:10483000032CF2D1287801F00DFC424C051E0ED15C
:10484000C8222368920001332360934209D10100FA
:104850000A20FCF7EDF9FCF731FC256001E00023AC
:104860002360354D2C78012C10D03049002C02D01B
:10487000022C22D032E0CB899F422FDD210008207C
:10488000FCF7D6F901232B702F4B26E032782E4B04
:10489000002A0CD11A78511C19700F2A1ED9022235
:1048A00009202A7008321A70FCF7BCFC16E01A784E
:1048B000002A13D0013A1A7010E0234B1A78002A0C
:1048C00001D0013A1A70CA89974207DA1C78002C85
:1048D00004D10920FCF7B8FC174B1C70174E134C81
:1048E0003578012D34D0002D02D0022D48D058E06B
:1048F000A3899F4255DA29000720FCF799F9012383
:104900003370124B4CE0C046600E0020E80D0020D2
:10491000300E0020280E0020286B6E4E080E00205E
:104920008C0200201B0E00202C0E002040020020D4
:10493000190E0020FC0D0020100E0020000E00209B
:1049400072020020E40D0020180E0020240E00202A
:10495000D84B1A78D84B002A0CD11A78511C1970F0
:104960000F2A1ED902220720327008321A70FCF773
:1049700059FC16E01A78002A13D0013A1A7010E098
:10498000CD4B1A78002A01D0013A1A70A2899742B9
:1049900007DD1D78002D04D10720FCF755FCC74B1F
:1049A0001D700020C64B1856002804D1C54B1B783B
:1049B0005BB2002B0AD0C44A1378591C11709B07B4
:1049C00004D10021BF4B5956FEF720FC2678012E5A
:1049D00000D04CE1208905F03DFEBC4905F0B4F95A
:1049E000BB4B00255C681B68029303940024059070
:1049F0002200029803992B0004F092FFB54E002884
:104A000005D00022B44B346075601A609EE03268B5
:104A100073680298039904F09DFF002803D0029B5D
:104A2000039C33607460A022AA4C12062668676853
:104A3000AA4B3000390006F0E3FD02000B0002989B
:104A4000039904F087FF002810D0A34CA4492568DF
:104A5000281C04F0A5FF002819D0A24B588905F0A6
:104A6000F9FD291C04F0FAFF206010E00022002369
:104A70003000390004F06EFF002808D080229A4BE5
:104A800012063000390006F0BBFD20606160C022D4
:104A9000904BD2051C685D68944B2000290006F0FD
:104AA000AFFD02000B000298039904F03FFF0028BD
:104AB00005D0894E8E49306805F010FB30608022A9
:104AC0008C4BD2052000290006F09AFD02000B0055
:104AD0000298039904F02AFF7F4C002804D0206834
:104AE000854905F0FBFA2060844D019B2A68981ADD
:104AF00007F0AAFB824E049B32680290981A4F007E
:104B000007F0A2FB7F08490002004B080298390019
:104B100005F026FE00227B4B06F04EF902000B004A
:104B20000020794906F0E6FF02900391206807F023
:104B3000CDFB0B0002000298039906F061FD07F01F
:104B400019FC019B20602B60049B3360654E7078DC
:104B500005F0C8FD604B041C1D686C4B01981A6879
:104B60005B680292039305F075FD211C05F0B6FA0F
:104B7000211C05F0B3FA291C05F0B0FA07F0A6FBDA
:104B8000029A039B06F03CFD07F0F4FB041CB0788E
:104B900005F0A8FD061C049805F05CFD311C05F02D
:104BA0009DFA311C05F09AFA291C05F097FA07F0D6
:104BB0008DFB029A039B06F023FD07F0DBFB211C13
:104BC000051C201C05F08AFA291C061C281C05F06F
:104BD00085FA011C301C04F041FF07F077FB03F05D
:104BE00025F807F0C7FB061C011C059804F0D8FE49
:104BF00000280ED0311C059805F0A6F8011C061CF3
:104C0000201C05F06BFA311C041C281C05F066FA08
:104C1000051C3F4E201C316804F020FF3D4C071C52
:104C200021683060281C04F019FF051C2060381C26
:104C300005F0EEFC0700281C05F0EAFC3B0005002F
:104C4000034303D001003800FEF7E0FA380005F016
:104C500001FD011C306805F055FB3060280005F0AF
:104C6000F9FC011C206805F04DFB20601AE1002EC4
:104C700018D1049B0320D90FFCF75AFB049B042096
:104C8000D917C91AC90FFCF753FB019B0520D90F8F
:104C9000FCF74EFB019B0620D917C91AC90FFCF778
:104CA00047FBFFE0049B1B4D002B35D18823DB0520
:104CB0002B6044E02C0E0020240E0020000E00206B
:104CC000F80D00201C0E00201A0E002000002041CC
:104CD00030060020F00D0020040E00209999E93FD5
:104CE0000050C3474002002014AEEF3F6666E63F27
:104CF00077BE7F3F3333D33FC9767E3FEC0D002034
:104D0000200E002000408F400000F03F080E0020E1
:104D1000340E0020140E0020A07805F09BFC041C2B
:104D2000049805F097FC011C201C05F0D7F95E499A
:104D300005F00AF88821C90504F090FE2860019B5F
:104D40005A4C002B03D18823DB05236013E0029B20
:104D5000587805F07FFC071C019805F07BFC011CCE
:104D6000381C05F0BBF9504904F0EEFF8821C90555
:104D700004F074FE206000272068391C04F010FE47
:104D8000002800D027604A4F2068391C04F01CFE20
:104D9000002800D0276000272868391C04F000FE96
:104DA000002800D02F60424F2868391C04F00CFE08
:104DB000002800D02F60032E2AD0042E50D0022EBF
:104DC00070D1206804F032FE3A4B3B4A59683B4EA2
:104DD0000A401F00B04200D930000001384C104397
:104DE00058602378002B01D102F068F8286804F09D
:104DF0001DFE344B7A681340B04200D92F4880031F
:104E0000184378602378002B4CD102F057F849E022
:104E1000206804F00BFE294FB84200D93800254C19
:104E200002066368264E1B021B0A134363600323BA
:104E3000A268000A9A4333781043A060002B01D186
:104E400002F03CF8286804F0F1FD1F4BA268134003
:104E5000B84200D9194880001843A0603378D2E7DF
:104E6000206804F0E3FD134B184A9968134E0A407A
:104E70001F00B04200D930000003114C104398606D
:104E80002378002B01D102F019F8286804F0CEFD38
:104E9000BB689B029B0AB04200D9084880051843B2
:104EA000B860AFE709B0F0BD00004842340E002002
:104EB00000C07F444C1100200FC0FFFFFF03000023
:104EC000F50F0020FF3F00FF03F0FFFFFF0FC0FFC3
:104ED00010B500F07FFF10BD30B5021E14D003786E
:104EE0000020834210D003000A241078002807D045
:104EF0003038C5B2092D06D863430132C318F4E730
:104F00000B80012000E0002030BD73B50C000028AC
:104F100001D1002010E0037801252D2B01D140198B
:104F2000023D6B469E1D3100FFF7D6FF0028F0D0F2
:104F3000012033886B43238076BD00280AD0037894
:104F4000002B07D01A00613A192A01D8203B0370C0
:104F50000130F4E77047FFFFF0B585B002AB9E1D4E
:104F60000023324D33802B780400012B08D1304FC1
:104F700030493800FBF77CFA21003800FBF7AEFE21
:104F80002D4F2000390007F0D9FB0197041E47D0B0
:104F90002B78012B08D1264D28492800FBF768FA09
:104FA00021002800FBF79AFE00252000FFF7C5FF2F
:104FB000234FF91E200007F0A8FB00281ED13B78E4
:104FC000022B0BD0032B13D0012B14D1019907F026
:104FD000B5FB31000400FFF77FFF06E0019907F001
:104FE000ADFB31000400FFF790FF002806D000E081
:104FF00003346BB204E06BB2040001E001235B42B6
:1050000001354F2D0AD004375A1CD2D00022B15E90
:10501000D8B222000023FCF77DFD05E05A1CF5D133
:1050200008490348FBF75AFE05B0F0BD040600200E
:1050300014030020C1D200007EC80000CFD20000BF
:10504000FACA0000D7D2000070B5254A03001178D3
:10505000002902D0FCF708FB41E0224C207803280D
:1050600037D804F0C3FA021117242021180088430E
:10507000412801D1012331E0402B30D12378013385
:105080002370012313702AE020229343542B24D150
:10509000523B23E00D2B01D00A2B01D1124919E01C
:1050A000202B16D10022114B1A70032316E00F4A51
:1050B0000F480D2B01D00A2B06D100251378C554BB
:1050C000FFF74AFF25700AE011784C1C1470435416
:1050D00005E008490848FBF701FE0023237070BD76
:1050E000190B0020380E0020DBD20000390E002002
:1050F00054060020D9D200001403002010B500F09F
:1051000069FE10BD002070470300383039331B782A
:105110000078181A704702000100383239311378CC
:105120000978994204D9591C1170C318187E01E0FE
:1051300001204042704703000200383339321B78A7
:1051400012789A4202D9C318187E01E00120404229
:10515000704770470300002210B55E331B889342EE
:105160000DD004005D342378202B02D90123037174
:1051700005E05A1C22700122C3183B33197010003D
:1051800010BD70B514000200030000205E321288CA
:10519000824212D01D0021225D352878121A9442D5
:1051A00002D901241C7114003B331818220007F0A7
:1051B000C3F920002B781B192B7070BD43691A6846
:1051C0005B68126813420FD0084A0369914201D804
:1051D0001F2205E0064A914201D8122200E0022275
:1051E0005A70022203699A717047C0467F1A0600FE
:1051F0003F420F000200F8B500230400383213705C
:105200005370243293701370537043668366D37067
:1052100040696427016842680D682A430A60226970
:105220001549937023000C22613360691E7886193A
:10523000337A5343CB185D68737BE0261B02F6007C
:1052400033403B432B60230062331B78C018837CC0
:105250005A43C37D89181B024A681E403E431660AC
:1052600006492000FFF7AAFF2023226953718022FC
:1052700023699A70F8BDC046B0D30000A086010033
:10528000102270B503690400DD78EDB2154203D138
:1052900040222A4004D12BE0DA706B06F8D476E085
:1052A00004231D403A4B1BD0250000225D352A7097
:1052B0001A70636E934200D0984723002A783B33DC
:1052C000002A02D1012129701A70D02221698A7026
:1052D0001B7822691371230001225C331A7053E09A
:1052E00001221A70230039331D702269C02330E077
:1052F000602120698379DBB2194060290CD14039E3
:105300008B438371A36E002B06D0210038310A70C5
:1053100022003932107898471023226991780B4087
:105320001BD001231D4013D1210020005C315D30D2
:105330000B780078984206D9581CE31808703B3364
:105340001B78137100E01571D023226993701BE064
:10535000C023937023691B7916E0210060310B7024
:10536000202193790B4321009371236939311A79F4
:105370000B78D2B21F2B07D805480078002803D03D
:10538000581CE31808701A7602222369DA7070BD7F
:105390003A0E0020F0B500210400334B85B01B68A5
:1053A0000293029B019320202269D378034257D0B5
:1053B0002D4B01981B680393039B1B1A0F2BF2D9EB
:1053C000002945D12500613562692B780531D31854
:1053D000187A00F051FE2B7862690121D3189F7C66
:1053E0000926380000F048FE0021380000F012FEC7
:1053F0005023013BFDD10121380000F00BFE50236A
:10540000013BFDD1013E002EEED10C2166692B78C7
:10541000164DF3181A7A64204A43AA185768E022F6
:105420005B7BD2001B02134003433B6023006233CB
:105430001B78F618B37C59436D18F17D6B6809022F
:105440000A4010431860A023013BFDD10121AAE7C7
:10545000102BA8D000209070802223699A7000E061
:10546000012005B0F0BDC046600E0020B0D30000A2
:1054700012230269F0B5D370202287B0036901912D
:105480009D780400154002D094329A700BE0FFF72B
:1054900081FF03000420002B62D023005F331D70C6
:1054A000B0232269937020262E4B20691A6802923D
:1054B000029DC278324048D0002202252026009268
:1054C00022005D32127800998A4233D962183B3249
:1054D000127821690A711A6821690592059A944621
:1054E000CA78D2B217002F400AD1324208D06046A3
:1054F0001A680492049A121A052AF1D98F702BE0C7
:105500001020CD702169CA78D2B2024201D1324254
:1055100003D1802304208B700DE0012100980A4202
:1055200004D0434258410323181A07E00130C2B2A5
:105530000092C5E70020019B002B02D08023226946
:10554000937000235E3423700AE019680391039975
:10555000491B0429ADD982708022042023699A70E6
:1055600007B0F0BD600E0020F0B516008BB0020051
:1055700001930023383213700132137000920269D4
:105580001233D3702022036905009C780F00144069
:1055900002D094329A700AE0FFF7FCFE002800D196
:1055A000B4E02B005F331C70B0232A699370202273
:1055B000944658490B68029302982B696246DC783E
:1055C00014400A00002C06D10A680392039A121AAA
:1055D000042AF3D912E001217F000F43FFB21F71AB
:1055E00002271368049304982B69DC783C4009D1A6
:1055F000116805910599091A0529F6D99C702B693E
:10560000802211E00222DA702B690F32DC7814401C
:1056100003D06F329A70002478E0002E06D10199F1
:105620008022002900D120329A706FE0A822012E3A
:1056300000D0A0229A7002222B6994461B79002385
:1056400034492A690868012E28D00690069F6446CE
:10565000D078204006D10C680794079CE41B052CE9
:10566000F5D927E002211020D1702969CA78D2B279
:1056700002424AD10018024247D0013EF6B2012E42
:1056800001D1A8228A702A691F2B05D81279591CCA
:10569000EB181A76CBB2D3E71279D1E7022708903C
:1056A000089ED078384007D10C680994099CA41B47
:1056B000052CF6D9907023E002211020D1702969C1
:1056C000CA78D2B2024209D0C8705022013AFDD144
:1056D000296908388A7882438A7016E01C0092068D
:1056E00014D5B0228A702A691F2B05D81279591C4B
:1056F000EB181A76CBB200E01279019A002A02D098
:1057000080212A699170009A13701C0020000BB050
:10571000F0BDC046600E002010B50248FFF7B0FD96
:1057200010BDC046900200207047FFFF036870B5AF
:10573000002B04D000249C600134DC6018E080253C
:105740001D4C2D0423682B432360C04601241B4BB2
:105750001C601B4B1B4C036003689D68002D07D029
:1057600010330360A342F7D900230360180022E03E
:105770000468154B22600322E3181B11134D9E0091
:10578000A2607151124A01791248D15411785378AC
:10579000114A994205D8036809041A400A43026075
:1057A00004E001681B040A401343036080220120C7
:1057B0000A4BD2031A6070BD3C8004400070034065
:1057C000007103401F710340008FFCBF00030020E5
:1057D000FC02002014E400E0FFFF00FF00E100E015
:1057E000026830B5002A1ED00F4B1049D3181B1188
:1057F0000F4D9C006550002191600E4AFF31D1543D
:10580000117853780C4C0D4A994205D82368090445
:105810001A400A43226004E021681B040A40134333
:1058200023600023036030BD008FFCBF0003002015
:1058300029570000FC02002014E400E0FFFF00FFF5
:10584000094B10B51A68002A04D001221A60074BD0
:105850001B689847064B1A68002A04D001221A6078
:10586000024B5B68984710BD0C7103400003002099
:105870001C71034037B5022504002A00054901A820
:1058800006F05AFE23682A005B6801A920009847A9
:105890003EBDC04624D30000F0B50D000F2185B0F9
:1058A0009446134A6944ACB22F0C57430134544315
:1058B000BBB2260C1C19A4193B0C240CDB19E318F1
:1058C0000A245B085C432D1B303501390D701D1E09
:1058D000E9D16346002B02D02D2301390B70CA4356
:1058E00004ABD21803685B68984705B0F0BDC046AA
:1058F00033330000002210B5914201DA49422D32C3
:10590000FFF7CAFF10BD37B50F2502AB0A002A40CA
:105910001400013B3734092A01D8303214001C70BE
:105920000909F3D1016802AA4C68D21A1900A047EC
:105930003EBD10B5012488B008AB0A002240013BEF
:1059400030321A704908F8D1016808AA4C68D21A96
:105950001900A04708B010BDF0B5152405000F00D0
:10596000160087B06C443100380003F053FE01008C
:105970007143791AC9B20B003733013CDBB20929F4
:1059800001D83031CBB22370071EECD106AB1A1B05
:105990002B68033A5B6821002800984707B0F0BDE8
:1059A000214A70B51368150020482149002B09D001
:1059B00000680978013B0171591D01D103235B4245
:1059C000136030E003680A781A4C1A702368002BC1
:1059D00023D0194B00211E68301C03F0EBFF002878
:1059E00016D11649301C03F0EFFF002810D11449DE
:1059F000301C04F073FBFC21890504F083FC04F0E7
:105A000015F80200232803D90E490F48FFF78EFE30
:105A100023682B600023236005E00B48FFF7E0FEBE
:105A2000FF220A4B1A7070BD500E0020440E002059
:105A30004C0E0020480E0020540E0020ABAA2A4D28
:105A40000000C041A15900003C0E002008030020C6
:105A5000F8B506000D001A287AD8002A08D04A4363
:105A6000FA211000890003F0D5FD4400013401E063
:105A700003246442002D00D10135280004F032FED9
:105A8000011C344804F060F90C237343051C3248B0
:105A9000C318596872B6314F02003B789E4216D146
:105AA0002F4E281C316803F075FF2E4B002806D0BE
:105AB00001201A681040013804191C6047E02A4A86
:105AC0001968146001220A4035601A603FE01A2B01
:105AD00004D8264B26481B68007818700C237343A3
