:1000000000180020C100000011540000D55300006A
:10001000D5530000D5530000D5530000D553000040
:10002000D5530000D5530000D553000011540000F3
:1000300011540000D5530000D9700000E170000099
:10004000115400001154000011540000115400001C
:10005000115400001154000011540000115400000C
:100060007941000089410000115400001154000042
:100070001154000011540000295E000011540000CA
:1000800011540000115400001154000011540000DC
:1000900011540000115400003D7300001154000081
:1000A000956000001154000011540000115400002C
:1000B00011540000115400001154000011540000AC
:1000C000F8B505F0A9F90821474A484B1A60484A93
:1000D000484B1A60484A494B1A60494B1A780A4201
:1000E00002D01A780A431A702A22464B46481A70E0
:1000F00000234649464C1A188A4203D2E558043375
:100100001560F8E70021434B434A934201D202C3F2
:10011000FBE70023414A424958589446985004331B
:10012000C02BF9D100210326FF2580248A083D4BEE
:100130009200D2180B002F003340DB009F40106864
:100140000131B84307002000984003003B4313608F
:100150002029EBD16246344B1A608A22334B1A7045
:10016000334B663A5A707C321A709E3A9979114232
:10017000FCD0102299791142FCD10C209A792C499B
:100180000240082AFAD1053A0A713D324A71203AF2
:1001900099791142FCD0402299791142FCD025492D
:1001A000254A11602021224A117014399A790A4097
:1001B0000C2AFBD1214A224B1A60224A224B1A6098
:1001C0000022224B1A60224B07321A60214A224B2E
:1001D0001A6062B605F036FB09F03AFD05F022F927
:1001E00007F02AFAFEE7C046300004F034800440ED
:1001F000823F0000388004400100000F3C80044032
:1002000002D0074000E00740300200201007002025
:100210002CB2000010070020EC11002000F9FF1F95
:100220000000000000E400E008ED00E0005006409F
:10023000004006400000011044800440C000050555
:10024000048004407FBB000014E000E018E000E000
:1002500010E000E00000202020ED00E0FFFFFFFFA5
:10026000FFFFFFFFFFFFFFFFFFFFFFFFFFFFFFFF9E
:10027000FFFFFFFFFFFFFFFFFFFFFFFFFFFFFFFF8E
:10028000FFFFFFFFFFFFFFFFFFFFFFFFFFFFFFFF7E
:10029000FFFFFFFFFFFFFFFFFFFFFFFFFFFFFFFF6E
:1002A000FFFFFFFFFFFFFFFFFFFFFFFFFFFFFFFF5E
:1002B000FFFFFFFFFFFFFFFFFFFFFFFFFFFFFFFF4E
:1002C000FFFFFFFFFFFFFFFFFFFFFFFFFFFFFFFF3E
:1002D000FFFFFFFFFFFFFFFFFFFFFFFFFFFFFFFF2E
:1002E000FFFFFFFFFFFFFFFFFFFFFFFFFFFFFFFF1E
:1002F000FFFFFFFFFFFFFFFFFFFFFFFFFFFFFFFF0E
:10030000FFFFFFFFFFFFFFFFFFFFFFFFFFFFFFFFFD
:10031000FFFFFFFFFFFFFFFFFFFFFFFFFFFFFFFFED
:10032000FFFFFFFFFFFFFFFFFFFFFFFFFFFFFFFFDD
:10033000FFFFFFFFFFFFFFFFFFFFFFFFFFFFFFFFCD
:10034000FFFFFFFFFFFFFFFFFFFFFFFFFFFFFFFFBD
:10035000FFFFFFFFFFFFFFFFFFFFFFFFFFFFFFFFAD
:10036000FFFFFFFFFFFFFFFFFFFFFFFFFFFFFFFF9D
:10037000FFFFFFFFFFFFFFFFFFFFFFFFFFFFFFFF8D
:10038000FFFFFFFFFFFFFFFFFFFFFFFFFFFFFFFF7D
:10039000FFFFFFFFFFFFFFFFFFFFFFFFFFFFFFFF6D
:1003A000FFFFFFFFFFFFFFFFFFFFFFFFFFFFFFFF5D
:1003B000FFFFFFFFFFFFFFFFFFFFFFFFFFFFFFFF4D
:1003C000FFFFFFFFFFFFFFFFFFFFFFFFFFFFFFFF3D
:1003D000FFFFFFFFFFFFFFFFFFFFFFFFFFFFFFFF2D
:1003E000FFFFFFFFFFFFFFFFFFFFFFFFFFFFFFFF1D
:1003F000FFFFFFFFFFFFFFFFFFFFFFFFFFFFFFFF0D
:10040000FFFFFFFFFFFFFFFFFFFFFFFFDEF9FFFF23
:1004100010B5064C2378002B07D1054B002B02D0DA
:10042000044800E000BF0123237010BD1007002026
:10043000000000002CB20000084B10B5002B03D0C8
:100440000749084800E000BF07480368002B00D1B7
:1004500010BD064B002BFBD09847F9E700000000C9
:10046000140700202CB2000010070020000000003C
:1004700070B5040008000D0009F027FD2368020094
:1004800029005B682000984770BD10B5FFF7F0FFAA
:1004900010BD10B506F0ACFF10BDFFFFF7B53A4B2D
:1004A0001B78002B6FD0394B1A780193511C1970AF
:1004B0000A2A68D9364C37492000FFF7E6FF364B49
:1004C00020001968FFF7E5FF344D20002900FFF7F1
:1004D000DCFF334B20001968FFF7DBFF2900200009
:1004E000FFF7D3FF2F4B20001968FFF7D2FF290039
:1004F0002000FFF7CAFF2C4B20001968FFF7C9FF47
:1005000029002000FFF7C1FF284B20001968FFF7E2
:10051000C0FF29002000FFF7B8FF254B2000196815
:10052000FFF7B7FF29002000FFF7AFFF214B2000A6
:100530001968FFF7AEFF29002000FFF7A6FF00268D
:1005400001271D4B1D491A683B00B3401A4200D1D8
:100550001B4920000136FFF798FF132EF1D1290027
:100560002000FFF792FF174B00221978200006F0B9
:1005700011FF15492000FFF77BFF200006F0F8FE71
:100580000023019A1370F7BD380700202E070020C2
:1005900054040020C29F000034070020CA9F0000BE
:1005A00048070020800700203C0700209C0700200F
:1005B000E4080020B0070020B4070020FCA00000E1
:1005C000DCA80000980700201EA00000F7B5444BEF
:1005D000444C18680193002803DA2368002B05DCDB
:1005E00006E0002804D02368002B01DA00232360F2
:1005F000C317C2185A402368D9175B184B409A4258
:1006000000DD2060384A13002B3316001B78226867
:10061000934200DA236022685B42934200DD23604C
:10062000324B1D68324B002D03DA1A68002A05DCB4
:1006300006E0002D04D01A68002A01DA00221A60B0
:10064000EA17A91851401A68D717D2197A4091426F
:1006500000DD1D6032002932127819688A4200DA02
:100660001A60196852428A4200DD1A6009F056FA8F
:1006700033002A33071C187809F098FA1D4908F04E
:10068000C7FD0090206809F049FA011C009808F0A5
:1006900089FF011C381C09F099F809F01DFA019B2B
:1006A0001860280009F03AFA33002833041C18783F
:1006B00009F07CFA0F4908F0ABFD0D4B051C1868DA
:1006C00009F02CFA011C281C08F06CFF011C201CEE
:1006D00009F07CF809F000FA044B1860F7BDC04639
:1006E000E4080020400700204C070020B00700204D
:1006F0009407002000007A43F7B5544B544C987C83
:100700001900544E00281CD11623CA5E2368554296
:100710009D4201DDD31802E09A4202DA9B1A23605F
:1007200000E020601823CA5E33685142994201DD1F
:10073000D31804E09A4201DA9B1A00E000233360E8
:1007400083E02068336840435B43C01809F0E6F952
:1007500003F0D7FF404D00212860071C08F07EFB06
:100760000023019300283CD1206809F0D7F9391CF7
:1007700008F04EFD0190306809F0D0F9391C08F0FE
:1007800047FD019907F0F2F8344B2F681860206894
:1007900009F0C4F94000391C400808F039FD2B4B22
:1007A00001901620185E09F0B9F9011C019808F0B3
:1007B000F9FE0190306809F0B1F94000391C400899
:1007C00008F026FD214B061C1820185E09F0A6F93A
:1007D000011C301C08F0E6FE011C019808F0A2FB89
:1007E00007E000221D4B1A60184B1620185E09F016
:1007F00095F91B4B2E681860194B301C1F68391C6B
:1008000008F032FB002802D000232B6004E0391CE2
:10081000301C08F0DBFF2860104B1E68301C07F00E
:1008200067F8071C301C07F025F82D68011C281CF0
:1008300008F0B8FE09F050F9291C2060381C08F0B7
:10084000B1FE09F049F9034B1860F7BD4C070020D1
:10085000E4080020B0070020A4070020440700207F
:10086000AC07002010B503F065FE012002F096F9F8
:10087000042002F093F9022002F090F90023024ACA
:100880001370024A137010BD800F00209C0F0020CF
:1008900030B5342289B03749374809F013FA00F0EF
:1008A000ABFBFA20800004F0B3FF01230022334C9D
:1008B000617B0593324B0392049302920192009262
:1008C0001300206902F04AFD20692E4A0300963386
:1008D0001B78162B01D12C4900E02C4902F048FC72
:1008E0002B4B0021187804F07FFE2A4D2A492878E6
:1008F00004F0E0FD294C0121207804F075FE2078F9
:10090000002104F03FFE2878012104F06DFE2078DC
:10091000002104F037FE0024214B0221E05C013469
:1009200004F062FE032CF7D100241E4B0121E05C91
:10093000013404F059FE032CF7D1FFF793FF00F0C8
:100940007BFC00F085FD00F097FD02F0BFF801216F
:10095000002001F09DFD0A22134B1A70134B0F3239
:100960001A70134B1B680793079A124B1A6009B051
:1009700030BDC046CC9F00004C0700202C0D00204D
:10098000A0860100801A0600006CDC0200366E01B1
:10099000400200203F020020007014473E02002069
:1009A000410200203802002099070020A8070020FB
:1009B000B40F002088070020024B1870024B1970FA
:1009C0007047C04699070020A807002070B5284B43
:1009D0001A78284B1878002A45D0002104F0D2FD5F
:1009E000254A1178002918D1244D254C2B782078E0
:1009F000DB0700D5012104F0C5FD2B7860780133B9
:100A000000219B0700D4012104F0BCFD2B78A078C5
:100A1000013300215B0727D425E01A4B1C78002CFA
:100A20001ED10126184801390078154DC9B2187039
:100A300011702878314209D0210004F0A3FD6878B4
:100A4000210004F09FFDA87821000DE0310004F0A2
:100A500099FD6878310004F095FDA878310003E035
:100A6000013C1C7002E0012104F08CFD70BDC04609
:100A7000460200203E02002099070020980700202F
:100A800038020020E8080020A8070020F8B5164B1F
:100A90001E88002E26D0154D2B88002B02D0012B4E
:100AA0000BD01FE0124B09201A88124B198806F050
:100AB00017FD2B8801332B8014E00F4F0C4B3C8823
:100AC00018880E4B01341B88A4B23C80C018052145
:100AD00008F0CCF8844205DD034B013E1E80002364
:100AE0002B803B80F8BDC046A0070020F008002006
:100AF0003A070020AA070020860700202C070020C4
:100B0000F0B55E4B85B01B78002B02D000F090FA58
:100B1000B1E00E2004F0D8FB594F3860152004F0E6
:100B2000D3FB584C2060142004F0CEFB564D2860B7
:100B3000172004F0C9FB554E3060162004F0C4FBAA
:100B4000534B544A1860128E0197B42A0FD0872154
:100B500049008A4215D05A2A1CD122684E491A608F
:100B60000A603168216029682860316012E02268DB
:100B700029682A60484A21601060326830601A6033
:100B800008E02268444920600A60296819603368D7
:100B900032602B6006F0F4F8002806DD06F0A8F8B5
:100BA0003E4B186004F08AFAF4E705F0CFF800280D
:100BB00005DD05F0DBF8C0B206F07CF9F5E7384B4F
:100BC0001B78002B37D03749374A0B6817680293D8
:100BD000364B02981B68FB1883422CD80B68039392
:100BE000039B1360324A1388002B2BD1284A3368A9
:100BF00012689B1A2F4A0021525E9B1A2E4A1360DC
:100C00002A6823689B1A2D4A0021525E9B1A2C4A9F
:100C10001360FFF7DBFCFFF741FCFFF76DFD019B65
:100C20001A68274B1968244B186803F0A9FDFFF7D1
:100C3000CDFEFFF72BFF234B1B78002B1BD000F0C2
:100C400041FE18E0013B9BB21380002BE1D110491B
:100C5000326809680F48511A22682C6809B2121BC1
:100C600012B28185C2851348018014490A80164A50
:100C70001360164ACCE705B0F0BDC0462F07002030
:100C80003407002048070020800700203C07002090
:100C90009C0700204C070020EC0800209007002053
:100CA00046020020B40F00208807002034020020F4
:100CB0003C0200208C070020E4080020840700206C
:100CC000B00700205F0C00204007002094070020A0
:100CD000013810B50A283FD807F02AFF0B0F242649
:100CE0000608313429382C00C82200E06422C821CB
:100CF00023E0C822C82152002BE0184A1388002B99
:100D00002AD1FA2089B2C8334B43C0001B181448BB
:100D1000013103809620134B11801880124B6438E8
:100D2000188019E0C82200E06422962105E01E2206
:100D30000E490EE0FA22AF215200490009E00522D7
:100D40000B4906E0FA210522090102E0FA22E62118
:100D50001201092006F0C4FB10BDC046A007002008
:100D6000AA0700203A0700202C070020C409000031
:100D70008813000010B504F015FB10BDF0B5224D2E
:100D8000224C2B68224A18182368224E59182160D9
:100D90001368317885B0019228601F4A994207D1C3
:100DA00011681E4B02911B68029914338B4228D89C
:100DB000FF271368FD200393039A184B1A6004F071
:100DC0004BFF002004F048FF032004F045FF30787B
:100DD00004F042FF2868384004F03EFF20683840A5
:100DE00004F03AFF002004F037FF002004F034FF45
:100DF000002004F031FF0023019A2B602360337838
:100E0000136005B0F0BDC046F4080020F8080020CB
:100E10001009002000090020B40F0020FC08002069
:100E200010B5054A13781843107000221100100005
:100E3000FFF7A4FF10BDC0460009002010B5054A09
:100E4000137883431370002211001000FFF796FF00
:100E500010BDC04600090020034B1B781840431EFC
:100E60009841C0B27047C0460009002010B5FD206F
:100E700004F0F2FE0D4B187804F0EEFE002004F0B2
:100E8000EBFE0B4C207804F0E7FE607804F0E4FE03
:100E9000A07804F0E1FEE07804F0DEFE207904F0B2
:100EA000DBFE607904F0D8FE10BDC04601090020C9
:100EB00009090020C2B270B50012E02804D10A4925
:100EC0000B781A430A700CE0F0280AD10023074877
:100ED000195C1C000500002902D001338A42F7D1B9
:100EE0002A55FFF7C3FF70BD010900200909002042
:100EF00010B5C1B202120023E02A04D10C4A1378C3
:100F00008343137010E00B4A5C1CD3181878884296
:100F100001D02300F7E7991A052903D059781970F1
:100F20000133F8E700235371FFF7A0FF10BDC0465F
:100F30000109002009090020002310B5054A13709B
:100F400053709370D37013715371034A1370FFF78A
:100F50008DFF10BD0909002001090020F7B500260A
:100F600080270190019B9B5D002B25D05AB2002A5F
:100F700008DB124AD45C40231C4204D04023104DAD
:100F80009C4305E0002400253C4204D00D4DBC43A9
:100F90002800FFF78FFFF0231B021C432000FFF700
:100FA00089FF2000FFF7A4FF002D02D02800FFF7E3
:100FB0009FFF0136B6B2D5E7F7BDC046C8A900000D
:100FC00002E0000040E00000024B1878431E984108
:100FD000C0B27047F30800200120704707B504F045
:100FE000E1F9034B1B680193019A024B1A6007BD9C
:100FF000B40F0020FC080020962110B5084C890190
:10100000200006F08DF80123064A0F211370064ACE
:101010000648137004F070FE200006F0A9F910BD18
:1010200030040020F3080020F208002000A0000097
:101030007FB5434C23782500012B20D104F004FD1B
:101040004049414806F06CF805F064FF04F060FE8A
:1010500005F096FE002802D005F04AFEF8E704F0FD
:1010600075FE002802D004F081FEF8E702232B7001
:10107000364B1B680193019A354B1A605EE0022BD8
:101080005CD105F07DFE314B314A1B68002804D04D
:101090000293029B1360FF2416E003931268039BE4
:1010A0009B1A2C4A9342F6D9962120708901264832
:1010B00006F036F805F02EFF04F02AFE3EE005F0BB
:1010C00017FE204004F0C8FD05F05AFE0028F6D1B6
:1010D000012602E0242C00D11E7004F037FE002807
:1010E0002CD004F043FE0400C0B205F0E3FE1A4B1E
:1010F000187803281FD807F011FDED02060A022216
:10110000462C18D118E00322492C14D114E04E2C9F
:1011100011D10022114932202A701A700E7004F089
:1011200077FB96210848890105F0FAFF05F0F2FEE9
:1011300004F0EEFDD1E700221A70CEE77FBDC04675
:101140002F07002020A1070030040020B40F00204A
:1011500004090020204E000008090020F3080020A8
:101160000022130070B50949094CC81810510E002F
:1011700018000133355C9BB21800002DF9D1043200
:101180004C2AF2D1034A138270BDC0466009002088
:10119000140900204C0700200022064B824206DA88
:1011A0000133591E09780029FAD10132F6E71800F7
:1011B0007047C04660090020F0B585B00F0002906E
:1011C000FFF7EAFF060008F080FE184C0500238AAE
:1011D0003800019308F079FEF921019B49005A1B60
:1011E0001218039400238A421DD8441B9C4209D044
:1011F0000F4A019B691C7118D218521A92B2081931
:1012000008F069FD3900300008F057FE029B094ADA
:101210009B009E50039B188A0419A4B21C82FA23D7
:101220005B001C1BA3B2180005B0F0BD4C070020EA
:10123000600900201409002070B5FFF791FF00231A
:101240001C221800124CE11848801A5304334C2B0E
:10125000F9D11225333B2380A5810E490320FFF7E6
:10126000ABFF25820C490420FFF7A6FFA5820B499E
:101270000520FFF7A1FF258309490620FFF79CFF02
:101280004323A383403BA3841E33238570BDC04604
:10129000EC0B00201FA0000027A0000031A00000E0
:1012A0003BA0000001231A008240084910B50C68D9
:1012B00022430A608200064881180224095F054C17
:1012C000805C125900F094FC10BDC046B4070020A9
:1012D000EC0B002014090020012213008340264952
:1012E00010B50C6880009C430C602449435A372B8E
:1012F00026D00ED8082B21D004D8062B18D0072BC7
:1013000018D037E00F2B2DD0102B33D100221C4BDF
:101310002AE0442B0ED004D83B2B27D0432B07D0F8
:1013200028E0452B0AD04A2B24D103F0D9F821E03C
:10133000012000E0022001F031FC1BE00420FAE76C
:1013400008184388013BDBB21F2B13D89A400D4984
:101350000B6893430B600C4B1B78002B0AD105F0F4
:101360000BFA07E00022094B1A7003E0084BC05843
:1013700003F0B9F910BDC046B4070020EC0B002003
:101380009C0F0020C411002098110020800F002025
:10139000140900200C4B8000C35A01209A1F022A16
:1013A00010D9313A92B2132A05D80849D1400A001F
:1013B0000100914306D0002001220F3B9BB29A42CC
:1013C0004041C0B27047C046EC0B002011700800CD
:1013D00073B505001B48EE00841963788B422BD14E
:1013E000325C042A17D80132D2B23254052A12D103
:1013F000A2789A420FD0A370134A012B0DD1AB40B3
:10140000116828000B431360FFF74CFF0F4B1B685C
:101410000193019B6360002411E001242300AB4091
:101420001168280099431160FFF7B4FF002806D027
:101430002800FFF751FF02E06170002434542000BF
:1014400076BDC046540B0020B4070020B40F002026
:101450000021064A531C9932581E197059700170A8
:10146000997008339342F7D17047C046540B00205F
:1014700010B503F097FF10BD024B034A1A80034AD0
:101480005A8070473C0C00204054000001A4FFFF2C
:1014900010B5074C0721200005F09CFC200004211A
:1014A000083005F097FCA188024805F093FC10BDB8
:1014B0003C0C00204CA0000070B50425074C07210F
:1014C0002000A58005F086FC20002900083005F0EA
:1014D00081FCA188024805F07DFC70BD3C0C002019
:1014E00048A00000002310B5054C07212000A38070
:1014F00005F070FC20000421083005F06BFC10BDE5
:101500003C0C002010B5084C0721200005F062FCBF
:1015100020000421083005F05DFC2000A1880C307B
:1015200005F058FC10BDC0463C0C00200D4B0E4A87
:101530001B6812680D499B1A0D4A9BB213731B124C
:1015400053730C4B09681B685B1A9BB293731B1295
:10155000D373094B1B6813741B12537406239380B7
:101560007047C0463C0700209C07002080070020F1
:101570003C0C0020480700203407002070B50E4DB9
:10158000287804F01FF8444244416878E4B204F03B
:1015900019F8002801D102231C43A87804F012F89E
:1015A000002801D104231C43044B00201A78A242D6
:1015B00001D01C70013070BD41020020840C00205D
:1015C00010B5FFF7DBFF034A034B12781A730122B1
:1015D0009A8010BD840C00203C0C002073B5464B53
:1015E00046491C895A890C819D79D6B28D710502B4
:1015F00075194D81C1067BD4D2B21979112A2AD02E
:1016000004D8002A07D0102A38D071E0812A07D0E8
:10161000822A16D06CE000296AD1FFF739FF69E011
:10162000002965D1364B1B680193019A354B1A602E
:10163000354B364A1B78DBB213700122344B1A70DB
:1016400056E0002954D10123324A13702F4A1370F7
:101650002F4B19704CE0022C08D0032C09D0002C21
:1016600046D1002944D1FFF727FF43E0FFF75EFF93
:1016700001E0FFF7A5FFFFF745FF3BE0601E0528EF
:1016800036D807F055FA0335350F282C02292FD10B
:10169000197B214A11805B7B11881B02CB189BB2FE
:1016A000138025E0012923D11C4C1D7B20780D429D
:1016B00000D0002103F066FF60780021AB0700D462
:1016C000012103F05FFFA07800216B0700D4012106
:1016D00003F058FF0CE0124803F094FC08E00129E5
:1016E00006D11A7B084B1A701B78084ADBB21370BC
:1016F000FFF7F8FE012076BD600C00203C0C0020B6
:10170000B40F0020880C00205E0C00204602002050
:101710005F0C0020440200205C0C002038020020F6
:10172000B807002070B55D4C030020780F2800D961
:10173000A8E007F0FDF908191E253438425A5E6505
:10174000697A9A9C9EA0402B01D13F3B9BE02022CE
:101750009343412B00D0A0E00021514A403B11703F
:10176000504A237013708FE0542B00D08AE0523B14
:1017700089E000214C4A11704C4A5380032382E0D7
:101780004A4A1B025188CB189BB25380002B04D1CC
:101790001021454A13780B431370042373E0434A26
:1017A000938005236FE0414A1B029188CB189BB2BE
:1017B00093800F2B66D8062365E03C4ADDB2957115
:1017C0003B4A3C481178002901D0002309E07F21E1
:1017D000027801320A40934204D0334A7D391378AB
:1017E0000B431370057007234DE0304A1381082323
:1017F00049E02E4A1B021189CB181381092342E0CC
:101800002A4A53810A233EE02B4ADBB21370274A4F
:101810009288002A05D00B2300222370274B1A60E0
:1018200032E0DB072CD50C232DE0204A234D118913
:1018300005290AD128202968FF30814205D820488F
:101840004354002341184B7002E0296851180B7370
:101850002B6801332B609288934215D1164B1B786D
:10186000DB070DD5237801330DE00D230BE00E23AC
:1018700009E00F2307E004210B4A13780B43137090
:10188000632300E0002323702378632B05D1064BEC
:101890001878FFF7A3FE0023237070BDAC0F002063
:1018A000850C002046020020860C0020600C0020E1
:1018B00044020020380C00208C0C0020800C0020FA
:1018C000B80700201D4B37B51A88002A35D01C49AF
:1018D0000A6800921B4A009814681B881B198342EF
:1018E0002BD80B68184C0193019B136023780133AC
:1018F000DBB2002B00D1802323700223134D2B81F8
:101900002378AB7120236B81FFF710FEFFF7FAFD00
:10191000FFF734FE002810D023780133DBB2002B10
:1019200000D18023237003232B812378AB712023E4
:101930006B81FFF745FEFFF7E5FD37BD5C0C00202E
:10194000B40F0020880C0020450200203C0C002031
:1019500010B503F027FD10BD70B50500FEF788FD3A
:101960000400280005F004FD001970BD70B50022C8
:10197000050005F00FFD0400280005F0F9FC001932
:1019800070BD70B5050005F033FD0400280005F0BA
:10199000EFFC001970BDFFFFF0B5784C85B07849B9
:1019A0002000FEF772FD774D20002900FFF7D4FFDD
:1019B00075492000FEF769FDE97C2000FFF7D6FF9E
:1019C00072492000FEF761FD297D2000FFF7CEFF60
:1019D0006F492000FEF759FD1623E95E2000FFF74E
:1019E000D0FF6C492000FEF750FD1823E95E20006F
:1019F000FFF7C7FF68492000FEF747FD698B20000D
:101A0000FFF7BFFF65492000FEF73FFDA98B2000CF
:101A1000FFF7B7FF62492000FEF737FDE98B200092
:101A2000FFF7AFFF5F492000FEF72FFD298C200054
:101A3000FFF7A7FF5C492000FEF727FDEB1CD97FCD
:101A40002000FFF793FF59492000FEF71EFDA98CE7
:101A50002000FFF796FF56492000FEF716FDE98C9F
:101A60002000FFF78EFF53492000FEF70EFDA97CF2
:101A70002000FFF77BFF50492000FEF706FD2B00FA
:101A8000283319782000FFF771FF4C492000FEF73A
:101A9000FCFC2B00293319782000FFF767FF484929
:101AA0002000FEF7F2FC2B002A3319782000FFF704
:101AB0005DFF44492000FEF7E8FC2B002B3319782A
:101AC0002000FFF753FF40492000FEF7DEFC298E7F
:101AD0002000FFF756FF32353C492000FEF7D5FCC9
:101AE00029782000FFF742FF002539492000FEF742
:101AF000CCFC082D03DC37492000FEF7C6FC01357D
:101B000029002000FFF73DFF33492000FEF7BDFC10
:101B1000324EAB009E190193331F1F88304BBF001C
:101B2000DF19390003A808F0C8F903A92000FEF75F
:101B3000ACFCFB78002B18D0022B0DD9032B14D151
:101B400028492000FEF7A1FCAB00274A043BD158EE
:101B50002000FEF79AFC08E022492000023EFEF732
:101B600094FC3188200005F043FC20492000FFF759
:101B7000F3FE132DB9D105B0F0BDC04654040020CA
:101B80005FA000004C07002065A000006CA00000D2
:101B900073A000007AA0000081A0000088A00000CF
:101BA0008FA0000096A000009DA00000A4A000004F
:101BB000ABA00000B2A00000B9A00000C0A00000CF
:101BC000C7A00000CEA00000D5A00000DCA000004F
:101BD000E3A00000DCA80000EAA00000EC0B00205D
:101BE00024A100001DA00000140900201EA0000078
:101BF000F0B5AE4E15003278CDB00C00002A0CD0F6
:101C0000531EAB499A0050528A18D8B2548029000A
:101C1000FFF7D2FA002333709CE24D2800D999E2F5
:101C200006F090FF4E00500070005A0078006400EB
:101C30007F0081008500760060008F009100970092
:101C40009E00A200A90035013C016E0175017801DA
:101C50009101A601AB019C01B001B6019802C90136
:101C6000CC01D901DB01DF01EB01EE01F101F4014F
:101C70002202250228022B022E02310234023702F0
:101C800041024F0269026602B100C400CE00E000CA
:101C9000EA00F60001010E016F026001F701FA018E
:101CA000130220023A0273023D027F008100850088
:101CB000870089008D0067015502630289027A025C
:101CC0007C4925E2FEF7CEFD631E9BB2122B01D8A4
:101CD00034703FE278491BE2022000F079FF0820CF
:101CE00003F096FD022000F059FF33E2012000F0DE
:101CF0006FFF082003F08CFD012000F04FFF08204B
:101D000003F086FD012000F063FF082003F080FD52
:101D10000120E8E7042000F05BFF082003F078FDD5
:101D20000FE0012000E0022000F052FF12E2042048
:101D3000FAE7012000E0022000F064FF0AE204203C
:101D4000FAE70420CFE75D4B0333D87F404240B22F
:101D500003E01F20594B0333185600F081FFF9E1CF
:101D6000564B0333D977F5E1002B01D0544B98E162
:101D70001900200004E0002B01D0524B91E1180023
:101D800000F08EFFE6E1504B50485A681040504A30
:101D9000914200D91400240104435C604D4B1B7830
:101DA000002B00D0D6E104F0E7FCD3E1464B4A48D3
:101DB0005A681040464A914200D91400A403EBE748
:101DC000434B994200D91C003F4A21065368906852
:101DD0001B021B0A0B4353600323240A984304434A
:101DE0009460DBE7384B3D489A681040384A91428E
:101DF00000D91400A40008E0334B39489A68104019
:101E0000334A914200D91400240304439C60C5E77F
:101E1000013CE4B21F2C00D99CE10123A3402A4AD3
:101E200011680B430AE0013CE4B21F2C00D991E198
:101E30000123A340244A116899430B001360ADE7C6
:101E40000F2300291CDB0023162919DD0133432948
:101E500016DD0133702913DD01339D2910DD0133B7
:101E6000CA290DDD0133F4290ADD92220133520023
:101E7000914205DD5222FF320023914200DC0733FC
:101E80000F2211494868904303434B6086E7002DB9
:101E900000D15FE1280000F0ABFF5BE1002D00D135
:101EA00058E1280002F010FC54E1C0468D0C0020DF
:101EB000EC0B0020EEA00000BEA900004C070020A3
:101EC000800F00209C0F0020C41100200FC0FFFFD6
:101ED000FF03000098110020FF3F00FF03F0FFFF09
:101EE000FF0FC0FF002D00D134E1280002F0F6FB07
:101EF00030E1002D00D12DE1280002F0F9FB29E1AD
:101F0000002D00D126E1280002F0EDFB22E1FEF7D2
:101F1000A9FC1FE1FEF7A6FC002D00D11AE12B78E9
:101F2000002B0BD0280007F0D0FF0D2806D8290081
:101F3000894807F0C2FF280000F0A2FD0021082018
:101F4000FEF7C6FEE3E0002D00D103E1FEF78AFCB8
:101F5000280000F0F1FA002808D0D8E0FEF782FC53
:101F60007E4800F0E9FA002800D0F3E07C49CFE099
:101F7000FEF778FC00F0FAFAECE0FEF773FC00F0F4
:101F8000B3FBC4E0FEF76EFC280000F0B5FCE2E70E
:101F9000724C200000F0B0FC6F4D342271492800D3
:101FA00007F090FEFFF748F9280000F069FD2000D7
:101FB00000F0C2FAABE0684B9974CBE00F21062029
:101FC000FEF7FAFC644B9A7C002A01D1013200E052
:101FD00000229A74BEE0012200E00022624B1A70D7
:101FE000B8E014210A20FEF7E7FC64225F4B0021D1
:101FF00001201A80FEF76CFEACE0574BD974A9E0C3
:10200000554B1975A6E0544BD982A3E0524B198366
:10201000A0E0514B59839DE04F4B99839AE03B29B7
:102020001AD1002A08D05A1C01A8C154D3B20022E8
:10203000013529780029F2D1002201A8C25402F00A
:10204000E1FF2B785A1E9341ED182B78002B00D11D
:1020500080E000231A00ECE75C29E4D1002AE2D1F9
:102060000122E5E7080073E03B4BD98372E03A4B6D
:1020700019846FE0384B99846CE0374BD98469E060
:10208000354B28330DE0344B29330AE0324B2A33E9
:1020900007E0314B2B3304E02F4B19865AE02E4BCF
:1020A00032331C7056E0002D54D02B78002B51D0C9
:1020B000280007F00AFF0D284CD8280002F094F8F9
:1020C00048E0002D46D0280002F0ECF942E0002D57
:1020D00040D02B78002B3DD0280007F0F6FE0E28CC
:1020E00038D8280002F0ECF934E002F0F9F931E0D8
:1020F00002F00AF90BE0002D2CD0280002F008F9BC
:1021000029E788B202F0F8F924E002F0EFF9184963
:102110001848FFF721FC1DE0FEF756FF002819D0F4
:10212000280007F0D2FE0100280003F0E5FD0A2098
:1021300003F092FD0EE001220F4B10490D481A707A
:10214000FFF70AFC0E490F48FFF706FCFA20400093
:1021500003F05EFB4DB0F0BD4C0700201EA0000058
:1021600052A00000CC9F0000380700203C02002055
:10217000FEA00000540400202F07002001A1000051
:1021800020A100003004002010B503F00BF910BDB1
:1021900010B5FEF76DF910BD70B50500FEF768F9D2
:1021A0000400280005F0E4F8001970BD07B50B0025
:1021B0001100427B0091016901F094FC0EBDFFFF0C
:1021C0007FB5134C23680293029E23680393039BFD
:1021D0009B1B092B0AD90F4C5021200005F011F947
:1021E0000D492000FFF7D8FF00200FE00B4D5021D4
:1021F000280001F0B5F900236A7B009329690133B7
:10220000280001F06FFC0028DFD1012004B070BD70
:10221000B40F0020540400205CA200002C0D00200C
:102220000020054B4200D25A002A02D0013040B2B1
:10223000F8E7013840B270479E0C002010B5FFF758
:10224000EFFF034B083040001818808810BDC046CF
:102250009E0C002010B503F0A5F810BDF0B50600E7
:102260001500002785B00391002D4AD040243F2D52
:1022700000D8ECB23F22A319013B7340934305D031
:102280001300F4B223431C1B0134E4B2FFF798FFA0
:10229000002839D050211D4801F062F9A4B2310A5A
:1022A0001A4800F027FE2D1BF1B21848A6193C1958
:1022B00000F020FEA3B2154CADB2B6B20293029B61
:1022C0009F4209D07B1C9BB20193039B2000D95DE8
:1022D00000F010FE019FF2E7200000220121FFF72D
:1022E00065FF041EC0D00A4D0A492800FFF750FFC1
:1022F00000222100280005F04DF8280005F038F8EC
:10230000012501204540E8B205B0F0BD2C0D0020AC
:10231000540400206AA2000010B57A22024900206D
:10232000FFF79CFF10BDC0469E0C0020F0B585B0A5
:1023300002935B00051E03920193144F04D0030027
:1023400027335B00FC5A00E0114C2B00114E143374
:102350005B003000FC5207F0B0FD6B46103C1B7A6E
:10236000A4B2310010222000F373FFF777FF019B26
:102370002835E41AA4B21A00039920006D00FFF773
:102380006DFF7C53FFF7C8FF05B0F0BD9E0C002029
:10239000FE7F00008E0C0020F0B50500002487B001
:1023A00003910292029B002B4BDDFFF709FF0028EF
:1023B00048D0254E5021300001F0D2F8039B300068
:1023C000190AC9B200F096FD6B463000197B00F087
:1023D00091FD002201213000FFF7E8FE029B10274B
:1023E0000F2B00DC1F000023717B0193013300934E
:1023F00030692E003B00502201F087FB641BEB1973
:102400000493A3B20593059A029B9419039A9B1B0C
:10241000571B0D4AEB181069A4B2416C026CF719F6
:10242000914203D1029303973500BBE7049A964289
:10243000F8D001F083FBC343DB171840307001363E
:10244000E1E7200007B0F0BD2C0D002030B50500FD
:10245000002485B00D4B6200D15A002902D1012021
:10246000404210E00F226846FFF796FF0F22290036
:10247000684607F031FD002801D160B203E0013465
:102480000A2CE7D1EBE705B030BDC0469E0C00201A
:10249000F8B50E0009283DD81F4A43009B5A591E23
:1024A0008B415B4218404300D45A00239C422CD0FD
:1024B0001A4F1B4D2100287034223800FFF76CFFA3
:1024C0002100343189B24C221648FFF765FF210004
:1024D00080313A8A89B21448FFF75EFFFEF740FE6A
:1024E000124B1A781C00002A11D0FFF755FA002E63
:1024F00003D029780220FEF7EBFB2378002B03D0D2
:102500000B490C48FFF748FE0123180002E0002E9B
:10251000FAD0EEE7F8BDC0469E0C00204C07002024
:1025200098070020EC0B00206009002030070020F5
:1025300079A200005404002010B50378002B07D1C5
:10254000094B012118780130C0B2FFF7A1FF0AE062
:10255000FFF77CFF002802DBC0B2012101E001216E
:102560000020FFF795FF10BD980700200F4B0222B7
:1025700070B500241D001A700D4B6200D05A00285F
:1025800006D0200000210134FFF782FFE4B2F3E718
:102590001B882870002B03D00121FFF779FF03E08F
:1025A00004490548FFF7F8FD70BDC046300700201C
:1025B0009E0C002079A200005404002070B5050094
:1025C00000240E4A6300D318198D002902D101207E
:1025D000404212E00A4E103989B210223000FFF753
:1025E000DBFE2900300007F05EFC002801D160B25C
:1025F00003E00134142CE4D1E9E770BD9E0C002007
:102600008E0C002010B50278002A1ED0FFF7D6FFEE
:102610000023984223DB134BC0B2122803D9FFF7E3
:102620007BFE01231BE0020015325200D45A020047
:1026300014325200D452020029325200411CD25AA4
:1026400028304000C252C8B2E7E706490B005031BB
:1026500028331A801A8502338B42FAD1DFE718003B
:1026600010BDC0469E0C002070B504000D00160081
:10267000FFF7A4FF431C0ED100200A4A4300D318E1
:102680001B8D002B07D001301428F7D106490748CD
:10269000FFF782FD05E0C0B233002A002100FFF7FA
:1026A00045FE70BD9E0C00207DA200005404002059
:1026B00070B50D00FFF782FF002398420DDB084C38
:1026C000084B14304000E27BC15A5200891A10397D
:1026D00089B22800FFF760FEE37B180070BDC0469A
:1026E0008E0C00209E0C00207FB500240F4B620052
:1026F000D65A002E19D00E4D0E492800FFF748FD7E
:1027000000222100280004F045FE0B492800FFF7B5
:102710003FFD0F2231006846FFF73EFE0134694657
:102720002800FFF739FD0A2CE0D17FBD9E0C002068
:10273000540400209DA20000C89F00007FB5002522
:10274000114A6B00D3181C8D002C18D00F4E104965
:102750003000FFF71DFD00222900300004F01AFEB2
:102760000C493000FFF714FD2100103989B20F2207
:102770006846FFF711FE69463000FFF70DFD013591
:10278000142DDDD17FBDC0469E0C002054040020D6
:10279000A2A20000C89F000070B505000E00FFF760
:1027A0000FFD002816D00C4C5021200000F0D8FE60
:1027B000290AC9B2200000F09DFBE9B2200000F018
:1027C00099FB3100200000F095FB00220121200040
:1027D000FFF7ECFC70BDC0462C0D002037B505009E
:1027E000FFF7EEFC002828D0144C5021200000F008
:1027F000B7FE290AC9B2200000F07CFBE9B2200034
:1028000000F078FB002201212000FFF7CFFC00231D
:10281000617B0193013300935022206901F075F927
:102820002069FF23416C026C914205D001F086F9CA
:10283000C343DB171840C3B218003EBD2C0D002067
:10284000F0B593B0040001911500814223D917001F
:102850000026019B5819C01B80B2002F16D0731C94
:102860009BB20093FFF7BAFF02AB9855009B402B39
:1028700002D0013F009EECE71A00200002A9FFF7FA
:10288000EDFC00234034A4B20093F2E7002E31D0D7
:10289000320002A92BE093B25A1EC3189BB21F004C
:1028A0004026019900938A1892B20192019B009AE6
:1028B000981A381880B2002D12D0FFF78FFF013E12
:1028C000B6B2013F02ABBFB29855002E01D0013D18
:1028D000ECE7402219003800FFF7C0FC4036F6E76D
:1028E000402E07D0402202AB921B92B2F11820007A
:1028F000FFF7B4FC13B0F0BDF7B50378002B08D197
:102900001A0028495A52C81802338282142BF9D16E
:1029100044E0FFF79BFD04000020844241DBFFF709
:102920007FFC0500A04231D023001E4E08335B001F
:10293000F3189B88019363009B5B0093631C5B000F
:102940009F5BFFF77BFCC21B92B239000098FFF738
:1029500077FF6300F618082C18DC3388002B12D0A0
:10296000114F12493800FFF713FC2100380004F022
:102970003FFD009A019B9B1A72889BB2D21A32804B
:10298000F28AD31AB38201340236E4E70023054AFF
:10299000690008356D0055198B52AB80FFF7BCFC00
:1029A0000120FEBD9E0C002054040020ACA20000BB
:1029B000F0B52F4D43005E5B85B004000393002EFD
:1029C00023D0FFF72DFC84421FD0230008335B0087
:1029D000EB189B889A1B274B1B8A80339BB29A4229
:1029E00013D0661C71004F5B9B1A9BB20193FB18BE
:1029F0009BB20293FFF722FC3900C21B0298FFF73B
:102A00001FFF6300EB18092E26DD7A26002C03D069
:102A1000E31D5B00EB189E88164F039B39003422A0
:102A20003000EE52FFF71AFC3000803634304C2272
:102A30001149B6B280B2FFF711FC3A8A0F49300053
:102A4000FFF70CFC08343B8A6400F6182D19AE80A1
:102A5000FFF762FC05B0F0BD5A88002A05D0019945
:102A60008A185A80DA8A8A18DA8201360233CAE76B
:102A70009E0C00204C070020EC0B00206009002079
:102A800013B50E4B04001B680193019BFFF7DEFC9E
:102A9000431C0ED100200A4B4200D25A002A07D014
:102AA00001300A28F8D107490748FFF771FB03E016
:102AB00040B22100FFF77CFF13BDC046B40F0020D9
:102AC0009E0C0020BBA200005404002010B51A4840
:102AD000FFF784FE00221300184CA15C01325B1842
:102AE0009BB20F2AF9D1164C2200783213803B2872
:102AF00015D004210220FEF7EBF812491248FFF727
:102B00004BFB7A220021200007F0FAF80F49002041
:102B1000FFF74EFF3B210848FFF73EFE0AE07A220E
:102B200000212000FFF738FC2088002802D1074947
:102B3000FFF73EFF10BDC046FF7F0000EEA0000083
:102B40009E0C0020DEA2000054040020F3A200002E
:102B50001F2310B5064A184011780843814206D059
:102B60000023107019001A00180004F069F810BD55
:102B7000531100201F2310B5074A184011780B008D
:102B80008343994206D0137000231A0019001800DD
:102B900004F056F810BDC046531100200B4B70B521
:102BA0001A003232127805001C00D30701D5FFF756
:102BB000E1FF230032331B789B0706D5FEF704FAAA
:102BC000002802D02800FEF739F970BD4C0700201C
:102BD0000B4B70B51A003232127805001C00D30777
:102BE00001D5FFF7B5FF230032331B789B0706D5CD
:102BF000FEF7EAF9002802D02800FEF711F970BDAF
:102C00004C070020144B70B51A00323212780400C1
:102C10001D00D30709D5114B1A780240D30602D004
:102C2000FFF7A8FF01E0FFF793FF2B0032331B787B
:102C30009B070FD5FEF7C8F900280BD02000FEF740
:102C40000BF9002803D02000FEF7F8F802E020007E
:102C5000FEF7E6F870BDC0464C0700205311002077
:102C60000E4B70B51A003232127805001C00D307E3
:102C700005D5002302001900180003F0E1FF23002E
:102C800032331B789B0708D5FEF79EF9002804D045
:102C90000021EAB20800FEF771F870BD4C07002071
:102CA000F8B505000E0001272B00504C803301DBE6
:102CB000022727E0230032331B783B4206D0002353
:102CC00080201A001900404203F0BAFF3234237802
:102CD0009B0703D5FEF778F900286CD18035E3E730
:102CE0002300012232331B78134205D000237F20BA
:102CF0001A00190003F0A4FF230032331B783B4273
:102D000004D17F3D7F2DEBDC012716E0FEF75CF957
:102D1000002857D1F5E7230032331B783B4206D019
:102D2000002380211A004942180003F089FF230084
:102D300032331B789B0705D4803633008033EADBBF
:102D4000022716E0FEF740F9002841D1F4E72300FE
:102D5000012232331B78134205D000237F211A0051
:102D6000180003F06DFF230032331B783B4204D17F
:102D70007F3E01237F2EEADC04E0FEF725F90028E0
:102D80002DD1F5E72200323212781A4205D0002305
:102D900071B268B21A0003F053FF323423789B07F4
:102DA00023D5FEF711F900281FD00022310028009A
:102DB000FDF7E4FF19E00022802011004042FDF7FA
:102DC000DDFF8BE700227F201100FDF7D7FF98E79A
:102DD0000022802110004942FDF7D0FFACE700221D
:102DE0007F211000FDF7CAFFC2E7F8BD4C070020A5
:102DF000114B70B51A003232127805001E00D3074D
:102E00000DD50024280007F060F8A04207D9285DFE
:102E100003F0BAFD285D03F03DFE0134F2E7330014
:102E200032331B789B0706D5FEF7CEF8002802D078
:102E30002800FEF793F870BD4C0700200C4B70B5CE
:102E40001A003232127805001C00D30702D580B276
:102E500003F09AFD230032331B789B0706D5FEF75B
:102E6000B3F8002802D02800FEF724F870BDC04651
:102E70004C0700200C4B70B51A0032321278050056
:102E80001C00D30702D580B203F004FE23003233C6
:102E90001B789B0706D5FEF797F8002802D028007C
:102EA000FEF726F870BDC0464C0700200A4B10B54F
:102EB0001A00323212781C00D30701D503F040FE0D
:102EC000230032331B789B0705D5FEF77DF80028D9
:102ED00001D0FEF731F810BD4C07002010B502F00C
:102EE00061FA10BD002070470269536C106C181A0B
:102EF0007047704710B50469220090321368432B65
:102F000007D81368581CE318483310601970012063
:102F100002E001230371002010BDFFFF0B4B70B5D1
:102F200008330360036904001A0094321278022AFD
:102F30000AD1C0331D68002D06D0280004F088F89F
:102F40000821280004F084FB200070BDFCA20000D2
:102F500070B5140002690500100090300368432B1F
:102F600014D84426036800684832F31A1018A342A4
:102F700002D201221C002A71220006F0A3FE2B6956
:102F8000200090331A68A2181A6002E00123002082
:102F90002B7170BD10B5002809D10C4B9C5C8C4284
:102FA0000ED09A1813798B420ED1042008E0012824
:102FB0000AD1064B00209A18137A8B4205D10830AB
:102FC000024B1818C07800E0002010BD20A30000BC
:102FD00010B5040002F0F8FB2368C01A10BDFFFF13
:102FE000002303710373064BFA2208330360E823BE
:102FF00041735943034B9200591882600161704735
:10300000FCA2000048020020F7B5C36804001B784A
:103010000D0000209B0600D59FE08023A1680B7067
:10302000E1686E3B0B70230095331B78012B05D0B4
:10303000824204D1230094331A7000E01A00012068
:10304000531E834200D988E0002D02D1802149001F
:1030500003E0012D03D180218900404B196023003A
:1030600094330093022A75D12600C0363768002FAA
:1030700008D1082004F0E8FA3900019003F09CFF21
:10308000019B33603768002F0CD03B79042B09D1AA
:10309000380003F0DDFF0821380004F0D9FA0023DE
:1030A000336057E0002D25D180213A682C48D36841
:1030B0000B43D36039792B4A0B0010339B00985097
:1030C0004B11264A9B009B181F2211401E3A8A4032
:1030D00080211A603B680906DA680A438021DA60B9
:1030E000DA6889050A43DA603B791F4A9B181D702C
:1030F000962226E0012D25D180213A681B48D3680D
:103100000B43D3603979174A0B0010339B0098505A
:103110004B11124A9B009B181F220A4095408021A8
:103120001D603B680906DA680A438021DA60DA68C4
:1031300089050A43DA603B790B4A9B1800221A7012
:1031400097321A700023AA34009A23700233137046
:10315000012002E00120009B1870FEBD00E100E0AC
:103160007941000000F9FF1F001002408941000072
:10317000F8B50C00FA21050089002000170005F0C1
:10318000EBFCFA2106028900380005F0E5FC01009D
:10319000300005F0E1FC00231D4E9A0092593100E9
:1031A0001202904203DB0133372BF6D101E0002BF2
:1031B0002AD05A1E96008E593602861BF717F6192A
:1031C0007E409F00CF593F02C01BC717C0197840EF
:1031D000864219DC0F4B68689B5C920003702E00DE
:1031E0008958200005F0B8FC0B4B9C363060AD6967
:1031F0009C4202D904232B7008E00849200005F006
:10320000ABFCC0B2287001E01A00E3E7F8BDC0468D
:1032100030A300000CA40000FF6BDC02001BB70011
:10322000F0B585B000930AAB1B78040001930BAB9B
:103230001F780CAB1B78039115000293002F07D069
:10324000002B05D0C36800201B789B0600D580E0CA
:10325000012229000398FFF79DFE230096331A7878
:103260000600954202D1002F6DD026E0002E24D01A
:10327000002F09D01878230098331978C0B24B1E5C
:103280009941490002F0B0F9E02301993202DB00D4
:1032900013406422002900D0032213430C226A4306
:1032A0002D498A18526813606A46230012799633B2
:1032B0009A7001221D704E331A7027000222009965
:1032C0000398FFF767FE97373B78009A05009A420C
:1032D00003D1029B002B39D002E0002806D130E058
:1032E000002E2ED000282CD0012032E0029B002B93
:1032F00009D023009833197838784B1E9941C0B211
:10330000490002F071F9E023019ADB002D021D4013
:103310006423002A00D003231D430C23009A534347
:103320000D4AD3185B686A461D606B461B7812799C
:103330003B70230098331A700123E5342370002E6C
:10334000D2D1002005E0002E9ED1B6E70028DAD1C8
:10335000F7E705B0F0BDC04648AA0000F0B589B057
:1033600011AE3678040018000EAB0D0019780FABC3
:103370001B78069613AE3678049310AB05921B7833
:103380000796002D03D1344F40223E6804E0012D02
:1033900004D18022304F3E6816433E606A462600C4
:1033A0000027127D95363270059A37736669BA42E6
:1033B00001D1202218E02822002900D1083A3270D9
:1033C0002668002903D04A00D2B2814201D94200C6
:1033D000D2B232700022E669914205D04200D2B2E8
:1033E000814201D94900CAB23270049A002A04D13C
:1033F000220096321278D2B20492002B03D123001D
:1034000097331B78DBB22200E53212782900029252
:103410002200E432127820000192069A0092049A67
:10342000FFF7FEFE129A012D01D10C4900E00C4974
:103430002000FFF79DFE079A29002000FFF7E4FD1A
:10344000230095331A78A368002A01D1803200E066
:10345000C0221A7009B0F0BD34800440006CDC0258
:1034600000366E01F0B585B004000D001700019321
:1034700002F0AAF90390002F02D12300C4331F6881
:1034800002F0A2F92026A36803901A78324202D0F3
:10349000B4221A7026E0002F04D003A8FFF798FD8D
:1034A000874209D9E3681B783340F4D12200953272
:1034B0001370B023A2681370A3681E7820231E40E7
:1034C00010D123000622A1331A703B331A6801324F
:1034D00002D01A6801321A60BC342368002B35D040
:1034E000984733E01B4B1B78002B11D19434237881
:1034F000013B012B0CD801F0B1FF174AFF23002D2F
:1035000008D0012D06D11168090A0B40834203DA65
:1035100001261BE01168F8E70F2803DC0126019B58
:103520001E7013E00300103B002D09D0012D07D1C0
:103530000A4811682E00014018020843106005E097
:10354000FF211068884318431060E1E7300005B0A0
:10355000F0BDC046400D002008E400E0FF00FFFF82
:103560000369490048331970036901211A00903238
:1035700011600022A13302711A707047F0B585B056
:103580001D0002ABDE1C00233370030090331B6868
:1035900004001700002B00D1E1E0002D02D1030050
:1035A000C4331D685020A269137803431370A269C5
:1035B00030381378834313701223E26820001370AD
:1035C00033002A00FFF74EFF002800D1C7E0230098
:1035D00094331B78002B02D0317800291BD02600B1
:1035E00002F0F2F80823A13633702300A0330390D1
:1035F0001F7000942700009B90371B1B0193019ABA
:103600003B689A425CD2002D3FD003A8FFF7E0FC54
:1036100085423AD854E05A1E012A00D99FE0220080
:103620000820A1321070013A1770143A1160022B71
:1036300023D104321368042B1FD923000121AA339C
:103640001970116816331B68464A03391B6891428A
:103650000AD822004A321A60D868434A0240A020A1
:10366000C0030243DA60996022695A60D9683F4A10
:103670000A40802189020A43DA60F023A2681370AD
:103680002369483422781A7069E0009B2269483324
:103690001B7813700222E3681B78134206D1002DB9
:1036A000F8D003A8FFF794FC8542F3D80222E36820
:1036B0001A70002D27D003A8FFF78AFC854222D874
:1036C0002300A0331A78A368012A01D1802200E0E8
:1036D000B0221A703B68019A9A420CD201233370CF
:1036E0002300CC331A68013201D1BC3406E01A68D9
:1036F00001321A60F9E70023AC3433702368002BE1
:103700002DD098472BE01021E2681378DBB20B42F2
:1037100009D0042333700B001170A268703313704A
:103720002300D833DEE7009A01320092DB0700D491
:1037300060E7019B002B04D1023333702300D033A8
:1037400003E0032333702300D4331A68013202D01C
:103750001A6801321A608023A2681370C5E705B0A9
:10376000F0BDC046FFFF0F00FF0F8EF0FFF0F0F03E
:10377000F0B585B015000AAA127804000092002264
:1037800002A80B9EC270934200D14DE1102B03D9C9
:103790000523A134237047E12000A4300360226494
:1037A0006264002E02D12300C4331E685020A26937
:1037B000137803431370A26930381378834313706E
:1037C0001223E2682000137002ABDF1C3B003200C2
:1037D000FFF748FE002800D126E1230094331B7830
:1037E000002B02D03A78002A1FD0270001F0ECFF0E
:1037F0000923A1376A463B7023001278A0331A7060
:10380000019301236D001D432369EDB203901D70E8
:103810000225E3681B782B423ED1002EF9D003A885
:10382000FFF7D6FB8642F4D836E05A1E012A00D9AB
:10383000FAE022000921A132117069460978013AA3
:103840001170022B1ED12300A4331968042919D941
:1038500001229A711C331B6822691B6801391A60A6
:10386000D868724A0240802040030243DA60220096
:1038700030325A60D8686E4A0240A02000030243EA
:10388000DA609960F023A2686D0013700122236949
:103890001543EDB21D70C7E00223E2681370002EDD
:1038A00004D003A8FFF794FB864247D91022E168B1
:1038B0000B78DBB2134208D004233B700A70A26875
:1038C0007C3313702300D83308E0A268DB0712D5DD
:1038D00002233B707E3313702300D0331A68013209
:1038E00002D01A6801321A60BC342368002B00D160
:1038F0009AE0984798E025000A23A4353B702B688E
:10390000012B01D1A73300E0A023137023691B789A
:10391000636C2A68934200D386E03B780A2B00D080
:1039200082E00222E3681B7813420FD1002EF8D008
:1039300003A8FFF74DFB8642F3D807E08023A26877
:1039400013707F3B3B702300CC33C7E70222E36850
:103950001A70331E06D003A8FFF73AFB0023B042CB
:103960005B41DBB2626C296802328A4213D0002BC1
:1039700004D02200A9321278002A0CD0626C296887
:1039800001328A420BD2002B3ED02200A93212789B
:10399000002A04D138E0A821A2681170EEE72200C5
:1039A0000021A9321170B022A1680A702269117831
:1039B000626C501CA218303260641170019A127847
:1039C000012A05D11022013AFDD18022A1680A7096
:1039D000002B10D001233B702300CC331A68013236
:1039E00002D01A6801321A602300BC331B68002B16
:1039F00015D0984713E03B702300B0331B68002BB1
:103A000000D185E7984783E7626C511C61642169A6
:103A1000A218097830321170002B00D178E723000A
:103A20000122A9331A7073E705B0F0BDFF0F8EF0C5
:103A3000FFF0F0F000B503690200A1331B78581EB7
:103A400005280AD805F074F8070305070E070220B9
:103A500009E0032007E0042005E01079431E9841A7
:103A6000C0B200E0012000BD73B50400150001F0F4
:103A7000ABFE0190002D02D12300C4331D6801F07C
:103A8000A3FE01902600A1363378072B1FD9002D05
:103A9000F8D001A8FFF79CFA8542F3D801A8FFF7F8
:103AA00097FA85420DD8230094331B78022B08D156
:103AB000AA342378002B04D03378072BFCD80123B9
:103AC00033703378072B05D90123337002E0002DC2
:103AD000F7D0E3E74023013BFDD130784342584122
:103AE000C0B276BD70B515000C00060029001A00A2
:103AF0002000049BFFF742FD2900049A2000FFF7F5
:103B0000B3FF3000FFF796FF70BD37B50D0006A973
:103B100004000978002B01D100200EE007980091E5
:103B2000019029002000FFF723FE079A29002000BA
:103B3000FFF79AFF0028EFD0606C3EBD026C436C2B
:103B40009A4206D2036C5A1CC318026430331878A8
:103B500001E001204042704710B50069FFF7EEFF19
:103B600010BD026C436C9A4204D2036CC018303012
:103B7000007801E001204042704710B50069FFF76E
:103B8000F0FF10BDF7B5CB4F82683B7804000133DE
:103B9000DBB23B70C3683D001E78019383691178E6
:103BA0001B78C9B2DBB2F6B29C4610208B0615D545
:103BB0002300AA33014208D01978022900D1C7E0B6
:103BC0001978032900D0EFE0C2E01978022900D16A
:103BD0001EE21978032900D0FAE119E2064210D05A
:103BE000019A107073060CD45021A26913780B430C
:103BF00013700222E3681A703B78013BDBB23B7022
:103C0000B8E24022324049D02700A1373B780C2B44
:103C100005D12300B4331B68002B00D0A5E2042398
:103C200022001E40A232002E20D0073326003B7017
:103C30000023A16890363360D0330B7023691B7862
:103C40005B0813702300B8331B68002B00D0984723
:103C5000230032684833002A00D11A701B78226989
:103C60001370230001228C331A600EE02020A1691A
:103C70000B7803430B700C23A1683B70B43366646C
:103C80000B7023691B785B0813705021A2691378AD
:103C90000B4313700222E3681A703FE010200140CA
:103CA0001ED001231E4013D1220023008C329033FA
:103CB00011681B68994205D21368591CE3181160FA
:103CC00048331E7823691E70D023A268137036E033
:103CD000C023A1680B7023691B782300A1332DE05A
:103CE0002200A13210780C2829D150266346334295
:103CF00019D0A069037833430370A069303E03787C
:103D0000B34303700223E06803702300B4331B68DD
:103D10001170002B02D02164606C98472B78013B16
:103D2000DBB22B7026E223691A78636CD2B20F2BB8
:103D300005D8636C591CE318616430331A70502144
:103D4000A26913780B4313700222E3681A7011E220
:103D500021008020C0310968400409688F6807424B
:103D600000D0FAE01A78032A18D1019A127852B2D8
:103D7000002AFADA80208A68400402438A6000221E
:103D80001A702300220090331B688C32013B1360B1
:103D90001368E31848331B7822697AE7E0228868C1
:103DA000D2051042BAD0E9E02100A1310091097892
:103DB00008296BD137000740BC46270061468C3785
:103DC00000290BD000221A70042300990B70019B6C
:103DD00018708023A1680B703A6065E001200640EE
:103DE00020D0614619703B68002B0AD1009902333C
:103DF0000B702300D033196801310DD019680918F0
:103E000009E0032300990B702300D43319680131B2
:103E100002D019680131196080231370E2687E3B7B
:103E2000137093E090218C46A444614638680130B9
:103E30003860096888420FD3009B1E702300A033AE
:103E40001B78012B01D17F3300E0B02313700223D4
:103E5000E268AC3413707AE01978012914D1013189
:103E60001970F123137023008020C0331B68C00534
:103E70001A68D3680343D360230049331B7822694F
:103E80001370E368197049E73B6882E70099097885
:103E9000092940D106420FD00423009A1370019BD8
:103EA00018708023A2681370E2687E3B13702300B1
:103EB000D83342E0400D00200220F10708D5009BD6
:103EC000187080231370E36818702300D03334E037
:103ED0001E78012E10D11870E12313702300802169
:103EE000C0331B68C9051A68D3680B43D3602369C4
:103EF0001B78E368187011E70A2300990B70230000
:103F0000A4331B68012B01D1E73300E0E0231370D9
:103F100023691B78BEE6009B1B78012B14D123007C
:103F2000A0331B78012B01D17F3300E0B023137045
:103F30000223E26813702300CC331A68013205D0E3
:103F40001A6801321A6001E0802351E6BC3423680C
:103F5000002B00D1E2E69847E0E62700AA37387840
:103F60008446022800D0FDE680235B048B60F023AA
:103F70001370ED3B3B706246E3688DE680208A68F3
:103F8000400402438A600022886021001A700723DF
:103F9000A1310B702300E0331A68013202D01A6895
:103FA00001321A60F30610D504230B702300D833B6
:103FB0001A68013202D01A6801321A601023019A7D
:103FC0001370230000228C331A608023A26824E738
:103FD00021002600636CA43108680233A1368342B5
:103FE00075D03378012B04D12300A9331B78002B23
:103FF0006DD0636C0A680133934200D381E033785B
:10400000012B67D12300A9331B78002B79D161E004
:1040100021008020C0310968400409688E6806428A
:104020004AD1187803282DD1802688687604304339
:10403000886000211970B02313702300A4331B681B
:10404000013B6364636C5A1C62642269E318127852
:1040500030331A702300A0331B78012B05D10F33A6
:10406000013BFDD18023A26813700223E268137024
:1040700023000022A133B0341A702368934200D089
:1040800069E74BE6E0208E68C005064200D145E6B0
:10409000802688687604304388608E60002119701D
:1040A00023000731A133197080231370E2687E3B2F
:1040B00013702300E03340E71E78022EB1D18860F0
:1040C000E821117003221A70E3681E7026E6E823C7
:1040D00013708EE7636C5A1C62642269E3181278CD
:1040E00030331A700223E26813703378DBB2012B8D
:1040F00000D013E6A9342278002A00D00EE62370FF
:104100000CE623000022A9331A70B023A2681370B2
:10411000636C5A1C62642269E318127830331A7097
:104120002300A0331B78012B05D11023013BFDD1C7
:104130008023A26813700223E26813703378012B86
:104140000AD12300CC331A68013202D01A68013236
:104150001A602300BC3303E0002333702300B03324
:104160001B68002BC1D09847BFE700222264606C17
:10417000984754E5F7BDC04610B500210148FFF748
:1041800001FD10BD4802002010B503480121E830B0
:10419000FFF7F8FC10BDC0464802002070B50B4C7C
:1041A00000212000FEF71CFF094E0A4D32002900B5
:1041B000200004F0ABFC084C01212000FEF710FFAA
:1041C00032002900200004F0A1FC70BD2C0D00205D
:1041D000300200201D2F0000180D002010B5040033
:1041E00003F07CF8200010BDF0B50700394C87B013
:1041F00023680493049D384E307801F0E3F9029669
:1042000000280BD02368354A0593059B5B1B93421E
:10421000F1D933493348FDF79FFB58E00600324D92
:1042200028802B88F92B15D801F0CEFA019001F0E7
:10423000CBFA019BC41A2D4B1A680393944205D202
:10424000029B187801F0BEF98642F0D0039B1B68F0
:104250009C4226D32B88234C2549FA2B00D0254994
:104260002000FDF779FB00210B20FCF731FD2249EE
:104270002000FCF7FDF839002000FCF7F9F81F4991
:104280002000FCF7F5F82988200003F0B1F81C495C
:104290002000FDF761FB2A781A493800FEF7E4F99F
:1042A00015E0FA231B029C4207D9FA21200089005D
:1042B00004F052FCFA231B02C41801202B88114A77
:1042C000590046401B188C52F6B22B80A9E707B064
:1042D000F0BDC046B40F0020400200200F270000B0
:1042E00043A4000054040020540D002018040020B2
:1042F0005CA4000073A400008CA40000A2A4000031
:10430000A9A40000560D002010B5FEF717FA10BD45
:1043100010B5FEF777F910BD10B5FA221949FEF76E
:10432000C7F9194B188000282BD000210920FCF771
:10433000CFFC0023154A164C1380164A16491370F9
:10434000164A20001360EF2202F06EFF142123684A
:104350002171002B15D01248124A1B181B11D15481
:10436000117853781048114A994205D80368090416
:104370001A400A43026004E001681B040A40134328
:10438000036010BD560D0020540D0020520D00207A
:10439000480D0020500D0020B1430000440D0020C6
:1043A000008FFCBF4404002014E400E0FFFF00FF86
:1043B000F8B52F4A2F4F12883B883E002E4D2F4CC8
:1043C000934223D92878002101F044F9287800216C
:1043D00001F0D8F8002323703B80294B1A68002A8B
:1043E00001DD013A1A601B68002B40D1254802F01C
:1043F00075FF254A1368002B39DD013B1360234B01
:10440000013BFDD12248FFF787FF30E0934206D100
:104410001C4B1B68002B1CD01E4A1A6019E01E4A58
:104420005B009B5AFA221202934204D9FA229200AC
:1044300053431A4A9B181A495A1E8A4209D818220D
:104440005343013B232B04D90E4A1268002A00D0A3
:1044500013602178287801F0FDF82378002B01D132
:10446000803300E000232370338801333380F8BDAC
:10447000540D0020520D00203F020020500D00205E
:10448000500F0020480D00204C0F0020007102004A
:10449000B6A400007FA90300560D002000702FFC79
:1044A000AFAAAA0A012310B5034A1360034A136096
:1044B000FFF732FF10BDC046500F00204C0F002008
:1044C000012210B5044B52421A60044B02321A60AA
:1044D000FFF722FF10BDC046500F00204C0F0020F8
:1044E0000022014B1A607047500F002010B50020C9
:1044F000FEF788F810BDFFFF002804D0FA239B00C8
:104500005843014B186070471804002010B500F0A4
:1045100049FF00230448054A0360054980330371BD
:1045200004F0F4FA10BDC046480D0020300200200F
:10453000DD41000010B5FEF7B9FC00231900034A65
:1045400099500433202BFBD110BDC046540F0020DE
:10455000002310B5064A99008C58002C00D18850D1
:104560005158884202D00133072BF4DD10BDC046FC
:10457000540F0020002330B50B499A0055580C0009
:1045800085420CD18A180021072B05D050184068AD
:10459000013350500431F7E70023E36102E00133B7
:1045A000072BEADD30BDC046540F00200023054A2A
:1045B0009958814204D00433202BF9D1002000E027
:1045C00001207047540F002010B50400032916D8AD
:1045D000080004F0ADFA0E0E07022000FFF7E6FF18
:1045E000002806D02000FFF7C5FF2000FEF742FCA0
:1045F00005E02000FFF7ACFF2000FEF71FFC10BD18
:10460000F7B50400019105F060FC023005F046FBAF
:104610000700210005F051FC380005F056FC381861
:1046200001380378202B03D02249380005F02EFCF6
:104630003800204905F062FC041E36D004221E49D1
:1046400005F04AFC002813D1050004341B4BEE0092
:10465000F158200005F027FC002806D1174B0199DE
:104660009E197068FFF7B0FF02E00135622DEDD1B1
:1046700007221349200005F02FFC002812D1114D0C
:10468000E61D2C1D8435AC420CD0231F1968300068
:1046900005F009FC002803D101992068FFF794FF79
:1046A0000834F0E703490020C4E7380005F000FBB8
:1046B000F7BDC0461DA000004CA80000BCA400002F
:1046C00051A80000CCA7000010B504000021FFF79E
:1046D00097FF02212000FFF793FF10BD10B50121C5
:1046E000FFF78EFF10BD10B50221FFF789FF10BD47
:1046F00010B50321FFF784FF10BD10B500F052FE86
:1047000010BD70B50021041C04F0A8FB002835D1B1
:104710000021201C04F0A8FB002807D0211C201C2D
:1047200005F054F8011C04F073FD28E08023E01527
:104730006402640A1B047F381C43C30700D564006D
:104740000023802219211E00401064005204B51875
:10475000A54202DCAE18641B9B18013964005208A4
:104760000029F4D1002C02D001221A409B18FC220F
:104770005B1092059B18C005181800E0002070BD62
:10478000F0B51700BF4A85B0136800900191BE4E86
:10479000BB4202DA0123337005E000213170BB42D5
:1047A00001DD012300E00023B84917600B70B84B0E
:1047B0009A7C029300239A4200D0C833B54C2078EB
:1047C000062800D9CFE004F0B3F90419296676CEA3
:1047D000BE00029B9B8C9F4205DD0123002105202A
:1047E0002370FCF775FA029BDB8C9F4200DBBAE07A
:1047F000032000212070FCF76BFAB4E0029B1A8CB6
:10480000A54B974202DA1A68013200E000221A60D2
:104810001B68132B00DC9CE3022392E001995A42AF
:104820008A4208DD00210620FCF752FA0F20FCF72F
:1048300039FD0F204BE000998A4208DD0021062057
:10484000FCF746FA1120FCF72DFD11203FE0009AFD
:10485000934208DA00210620FCF73AFA1220FCF70E
:1048600021FD122033E0019A934208DA002106204C
:10487000FCF72EFA1020FCF715FD102027E0864AE1
:1048800013680133C82B63DD00230A201360FCF793
:1048900009FD0A2052E0029BDA8B7F4B974202DD32
:1048A0001A68013200E000221A601B68132B00DC3A
:1048B0004FE3042345E001995A4291420FDA002167
:1048C0000420FCF705FA0B20FCF7ECFC0B20FCF7AE
:1048D00003FD0623002223706F4B1A6043E000990A
:1048E000914208DA00210420FCF7F2F90D20FCF7D0
:1048F000D9FC0D20EBE7009A934208DA002104204E
:10490000FCF7E6F90E20FCF7CDFC0E20DFE7019A5C
:10491000934208DA00210420FCF7DAF90C20FCF7B6
:10492000C1FC0C20D3E75C4A13680133C82B0FDDB0
:10493000002308201360FCF7B5FC0820FCF7CCFC32
:10494000062323700FE0544A13680133962B01DCD1
:104950001360FEE2002515602570FCF779FD4F4BD2
:104960001D704F4B1D7023780024A34200D0F0E24D
:104970004C4D285D00F026FE414241412000C9B265
:104980000134FCF725FD032CF2D1287800F01AFE43
:10499000454C051E0ED1C8222368920001332360C6
:1049A000934209D101000A20FCF792F9FCF714FBAD
:1049B000256001E000232360384D2C78012C10D0B5
:1049C000002C02D0022C23D034E0314B1B8C9F42B0
:1049D00030DD21000820FCF77BF901232B70334BDD
:1049E00027E03278314B002A0CD11A78511C19700B
:1049F0000F2A1FD9022209202A7008321A70FCF7E8
:104A000051FC17E01A78002A14D0013A1A7011E00C
:104A1000264B1A78002A01D0013A1A701C4A128CCF
:104A2000974207DA1C78002C04D10920FCF754FCCB
:104A30001A4B1C701A4E164D3478012C0FD0002CD6
:104A400002D0022C3CD04CE0EB8B9F4249DA210093
:104A50000720FCF73DF901233370154B40E00B4B69
:104A60001A78134B002A25D11A78511C19700F2A75
:104A700037D902220720327008321A70FCF712FC74
:104A80002FE0C0461C0400209B0F0020A50F002033
:104A90004C070020990F0020840F0020900F002069
:104AA000880F002041020020740F0020980F002082
:104AB000A40F00201A78002A13D0013A1A7010E0CF
:104AC000B84B1A78002A01D0013A1A70EA8B974243
:104AD00007DD1C78002C04D10720FCF7FDFBB24B4E
:104AE0001C700020B14B1856002804D1B04B1B7825
:104AF0005BB2002B0AD0AF4A1378591C11709B0788
:104B000004D10021AA4B5956FEF7CAF8AE7C012EFB
:104B100000D008E10027A84B391C1C68201C04F0B9
:104B20009DF9A64EA64D002802D037602F6076E092
:104B30002968201C04F0ACF9002800D02C60A04F9C
:104B4000A0493D68281C04F02DFD011C201C04F028
:104B50009FF9002814D0FE21984D89052F68381C34
:104B600004F082F9002816D0974B988B05F01EF8B8
:104B7000964904F04DFB391C04F0D4F928600AE092
:104B80000021281C04F084F9002804D09049281C36
:104B900004F008FD38608A4B8E491F68381C04F009
:104BA00001FD011C201C04F05FF9844D002804D095
:104BB0002868894904F0F6FC28608849381C04F00C
:104BC000F1FC011C201C04F04FF9002804D02868D7
:104BD0007F4904F0E7FC2860814F009B3A68981AEF
:104BE00004F09CFF7F4D019B2A684400981A04F052
:104BF00095FF640841004908201C04F093F97A49A4
:104C000004F006FB011CFE20800504F0DFFD316886
:104C100004F0C8FC009B30603B60019B2B60674E3A
:104C200033680393029BD87C04F0C0FF041C0098F7
:104C300004F074FF011C201C04F0B4FC039904F080
:104C4000B1FC029B051C187D04F0B0FF041C019808
:104C500004F064FF011C201C04F0A4FC039904F080
:104C6000A1FC291C041C281C04F09CFC211C071C12
:104C7000201C04F097FC011C381C04F053F9FFF7CA
:104C800040FD029B00900A21588B03F065FF80B223
:104C900004F044FF071C011C009804F0F9F80028F8
:104CA00013D00099381C04F0B3FA011C071C281C0F
:104CB00004F078FC391C051C201C04F073FC4B49E3
:104CC000041C039804F06EFC3060494E281C3168C7
:104CD00004F028F9474D071C29683060201C04F0B7
:104CE00021F9041C2860381C04F0F6FE0700201C83
:104CF00004F0F2FE3B000400034303D0010038003F
:104D0000FDF7CEFF380004F009FF011C306804F005
:104D10005DFD3060200004F001FF011C286804F0F4
:104D200055FD286015E1002E18D1019B0320D90FF5
:104D3000FCF74EFB019B0420D917C91AC90FFCF7D9
:104D400047FB009B0520D90FFCF742FB009B062088
:104D5000D917C91AC90FFCF73BFBFAE0019B254C98
:104D6000002B03D18823DB05236012E0287D04F0AB
:104D7000D5FE051C019804F0D1FE011C281C04F08E
:104D800011FC1D4904F044FA8821C90504F0CAF851
:104D90002060009B164D002B30D18823DB052B6053
:104DA00040E0C046A40F0020880F0020800F0020A4
:104DB0009C0F00209A0F0020A40700208C0F0020D9
:104DC0007C0F0020CDCC4C3F4C0700208096984AA9
:104DD000A4707D3F9A99193F52B87E3FCDCCCC3E0E
:104DE000780F0020A00F002000007A4448E17A3FAD
:104DF000A80F0020940F002000004842029BD87C9E
:104E000004F08CFE071C009804F088FE011C381C7E
:104E100004F0C8FB504904F0FBF98821C90504F0EF
:104E200081F8286000272868391C04F01DF8002844
:104E300000D02F60494F2868391C04F029F8002859
:104E400000D02F6000272068391C04F00DF80028DE
:104E500000D02760414F2068391C04F019F8002861
:104E600000D02760032E2AD0042E50D0022E70D1FD
:104E7000286804F03FF83A4B3A4A59683A4E0A40DB
:104E80001F00B04200D930000001384D1043586077
:104E90002B78002B01D101F06FFC206804F02AF878
:104EA000334B7A681340B04200D92F48800318432F
:104EB00078602B78002B4CD101F05EFC49E028682B
:104EC00004F018F8284FB84200D93800244D0206E3
:104ED0006B68264E1B021B0A13436B600323AA68F0
:104EE000000A9A4333781043A860002B01D101F0E7
:104EF00043FC206803F0FEFF1E4BAA681340B84233
:104F000000D9194880001843A8603378D2E7286890
:104F100003F0F0FF124B184A9968134E0A401F0025
:104F2000B04200D930000003104D104398602B7838
:104F3000002B01D101F020FC206803F0DBFFBB68EF
:104F40009B029B0AB04200D9074880051843B8600D
:104F5000AFE705B0F0BDC0460000484200C07F4446
:104F6000C41100200FC0FFFFFF03000098110020B4
:104F7000FF3F00FF03F0FFFFFF0FC0FF10B500F081
:104F800011FA10BD30B5021E14D003780020834200
:104F900010D003000A241078002807D03038C5B29A
:104FA000092D06D863430132C318F4E70B800120B2
:104FB00000E0002030BD73B50C00002801D10020B6
:104FC00010E0037801252D2B01D14019023D6B46DD
:104FD0009E1D3100FFF7D6FF0028F0D00120338856
:104FE0006B43238076BD00280AD00378002B07D0BE
:104FF0001A00613A192A01D8203B03700130F4E706
:105000007047FFFFF0B5002585B002AB9E1D040080
:10501000358004F05AFF254F2018457039002000D4
:1050200004F06CFF01970400A84239D0FFF7DBFFC2
:105030001F4FF91E200004F036FF00281ED13B78D8
:10504000022B0BD0032B13D0012B14D1019904F0A8
:1050500055FF31000400FFF795FF06E0019904F0C9
:105060004DFF31000400FFF7A6FF002806D000E046
:1050700003346BB204E06BB2040001E001235B4235
:1050800001354E2D0AD004375A1CD2D00022B15E11
:10509000D8B222000023FCF7ABFD05E05A1CF5D185
:1050A00004490548FCF758FC05B0F0BD1DA0000000
:1050B00027A10000BCA900005404002070B5254AB7
:1050C00003001178002902D0FCF72CFB41E0224CB0
:1050D0002078032837D803F02BFD02111724202154
:1050E00018008843412801D1012331E0402B30D101
:1050F000237801332370012313702AE02022934385
:10510000542B24D1523B23E00D2B01D00A2B01D18B
:10511000124919E0202B16D10022114B1A700323DB
:1051200016E00F4A0F480D2B01D00A2B06D100259F
:105130001378C554FFF766FF25700AE011784C1C00
:105140001470435405E008490848FCF705FC0023A7
:10515000237070BD850C0020AC0F0020FEA0000065
:10516000AD0F0020B8070020BEA9000054040020A5
:1051700010B500F017F910BD8023F0B51D4A106876
:105180001840FCD172B61C4C2378002B30D01B4B3E
:105190001F681B4B1A681B4BBA181E681A4B9219D2
:1051A0001D681A4B52191968194B52181B68194D72
:1051B000D21892B25208184B2A4392B21A60174B77
:1051C00017491B68174A9C46174B1B6812680F68E3
:1051D000164963440E6816499B180968DB199B1928
:1051E0005A1893B25B082B43124A9BB2136020708B
:1051F00062B6F0BD24B00340AF0F002038B00340CA
:105200003CB0034040B0034044B0034048B00340CA
:105210004CB003400080FFFF2CB0034058B0034067
:1052200064B0034060B003405CB0034068B003402A
:105230006CB0034030B003401B4B1C4A19781C4B28
:10524000082901D1002102E00A2903D12E31116081
:10525000132206E00C2901D1283100E03C21116025
:1052600012221A60134B1A78134B002A01D0002225
:1052700000E001221A60114B1A78114B012A01D863
:1052800080220CE0042A01D8842208E0082A01D8F0
:10529000852204E0102A01D8862200E087221A60C5
:1052A0000122084B1A7070472004002008B0034008
:1052B0000CB00340B10F002020B0034021040020B7
:1052C00024B00340AF0F0020F8B503000020272BC7
:1052D00033D81A4AD45CFF2C2FD0194B1B78834249
:1052E00001D0FFF749FF72B610274022154B144238
:1052F00005D01A68BA431A603F231C4002E01A68BE
:105300003A431A600123104E104D34602B7062B680
:1053100072B680223368134208D00D4B1868002300
:105320002B7062B60B4B1B78184106E02B78002BD4
:10533000DBD062B602F0B4F9EAE7F8BDC0A900001C
:10534000AF0F00200CB0034000B00340B00F0020AE
:1053500010B00340AE0F002080210D4A09061368EB
:105360000B4313600B4B1A780B4B002A01D1D03240
:1053700000E090221A70094B984201DD180002E00B
:10538000C343DB171840064B00B218807047C04675
:105390003C800440B10F002021F00340FF0F0000CB
:1053A00000F00340F823802208491B0252021888AB
:1053B000884203D1064A023B138006E0023393423F
:1053C000F5D10222024B52421A807047FFFF0000C3
:1053D000B20F002070B580258026ED02F6000B4C40
:1053E00023682B4201D000F055FE2368334201D0E0
:1053F00000F00EF823681B0501D500F009F82368BA
:10540000DB04ECD500F010FDE9E7C0463480044031
:1054100010B5FFF7DFFFFFFF0022014B1A60704756
:10542000008104407047FFFF0A49030010B5086877
:10543000002B0DD06A46084CC3181219934206D3AC
:1054400004F000FC0C2303600120404200E00B60EC
:1054500010BDC0462404002000FEFFFFEFF31380C0
:10546000002821D1EFF31083002B1FD1EFF305812A
:1054700000290FD018000F290ED90B00103B0C4A41
:105480009B089B009B18032218680A40D200D0405A
:10549000C0B201E080204000EFF31183002B05D063
:1054A000984203D9180001E0012040427047C046ED
:1054B00000E400E0F8B505000024264F0E1C38007B
:1054C000E04004F073FBDE21890504F06BF8311C29
:1054D00003F0D4FC002802D10134072CEFD11D4881
:1054E000E04004F063FB311C03F092FEFC218905CF
:1054F00004F06CF903F0FEFC174B984200D9180039
:105500002B00103B012B06D80023144A14491360CA
:105510000B60144B0BE0172D0ED8134A0123EA4001
:10552000934309D1114A124913600B60114B186063
:1055300008231C4314600CE0033D012D09D8002210
:105540000D4B0E491A600A600D4A10600822144380
:105550001C60F8BD006CDC02FFFF000000900340FF
:1055600004900340089003404006D00000800340B0
:10557000048003400880034000A0034004A00340CF
:1055800008A0034010B51A2818D80C2358430C4A19
:10559000835810181C7D027A224205D0002901D0C0
:1055A0001A710BE01A7209E043681A68002902D0E8
:1055B00003210A4301E002218A431A6010BDC0465C
:1055C00048AA000000231A280AD80C335843054A79
:1055D00083581018007A1B7C0340581E8341DBB2AD
:1055E0001800704748AA0000F0B51A282FD80C22DE
:1055F00017004743164CE5196B682600012901D0B6
:10560000042911D1504334583018257D027A2020C6
:105610002A432275A22252001A601A68042901D175
:10562000024313E0824311E038592C7A027DA243F1
:1056300002758022002908D0022902D10422FF32FB
:1056400004E00022032901D1812252001A60F0BD3A
:1056500048AA000070B5434B04001A280ED11B78ED
:105660000B2B03D80C22D31A994003E00C2B01D04A
:105670000C3B19410800FFF76FFE72E001251A7814
:105680002B009340002901DC002102E08B4205D869
:1056900029002000FFF776FF29005FE02300103B80
:1056A0000338012B01D8304B05E0C3B2012B01D8E0
:1056B0002E4B00E02E4B1B6801334B43D340142884
:1056C00043D803F035FA353B421F4242151A424295
:1056D000424242292F424224420B1000254A1360C5
:1056E000254A264B2FE0264A1360234A254B2AE001
:1056F000254A1360204A254B25E0254A13601E4A9F
:10570000244B20E0244A13601B4A244B1BE0244A0C
:105710001360194A234B16E0234A1360D122234B0E
:10572000920010E0224A1360D122224B92000AE03C
:10573000214A1360D122214B920004E0204A1360D9
:10574000D122204B92001A600BE001237F2900DC5C
:105750000023D9B22000FFF715FF01212000FFF739
:1057600043FF70BD280400200890034008A00340B8
:1057700008800340108003404404000004B004404B
:105780001880034008B00440208003400CB004405F
:105790002880034010B004403080034010C0044013
:1057A0003880034014C004401090034000A004401F
:1057B0001890034004A0044010A00340049004404B
:1057C00018A003400890044072B60C4B1A680C4BAA
:1057D00018680C4B1B6862B65B0104D532239342F8
:1057E0009B415B42C018084B9A1A084B5A43FA2354
:1057F0009B005843920D10187047C04618E000E017
:10580000B40F002004ED00E07FBB000055550100FF
:1058100070B50400FFF7D8FF0500002C0FD0FFF78C
:10582000D3FF074B401B984206D9013C002C06D001
:10583000FA239B00ED18F2E701F032FFEFE770BDAD
:10584000E703000080221E4BD20510B51A608022AB
:10585000002012061A601B4B1B4918601B4B1C4A88
:105860001960282313601B4A1B4C13601B4A1360EA
:105870001B4A13601B4A13601B4A136009222260F3
:105880001A4C20601A4C21601A4C23601A4C236079
:105890001A4C22601A4C20601A4801601A490B60A9
:1058A0001A490B601A4B1A60FFF7C6FC1920FFF764
:1058B000AFFF00F007FF1420FF30FFF7A9FF10BD76
:1058C00000E100E004800340FFBF000008800340C7
:1058D0000C80034014800340008003401C80034080
:1058E000248003402C800340348003400490034014
:1058F000089003400C900340149003400090034034
:1059000004A0034008A003400CA0034014A00340DF
:1059100000A003408021224A490113680B43136011
:105920000023204A1370204A1370204A1370204A23
:105930001370204A1370204B1B78062B04D0072BC2
:1059400005D11E4A1E4B01E01C4A1E4B1A601E4B1D
:105950001B78082B05D0142B07D1D1221B4B9200AA
:1059600002E0D1221A4B92001A60002800D10130C7
:10597000184BC204D20E1A700022C0B258709A702E
:105980002C32DA70144A154B11680B408021C90380
:105990000B4313608022124BD2011A607047C0463D
:1059A0003480044028100020BD0F0020301000205B
:1059B00029100020BC0F0020290400201303000040
:1059C00008C0044010C004402A04002014C0044051
:1059D0000CC0044000C006400CE400E0FFFF00FFE4
:1059E00000E100E0132110B5164B9A788A431100AC
:1059F000032202400A43410701D510210A439A704D
:105A00000F2210490240042A03D140248A792243FC
:105A10008A7110215A798A43084200D00A43102122
:105A20005A719A798A43840600D50A4305499A71C6
:105A3000C30506D520204B780A78DBB202430A70F2
:105A40004B7010BD00C006401F4B10B51B68DB0437
:105A500039D51E4B1A78D2B2002A02D001F020FEAE
:105A6000F7E780211A4BC90119601A4BDA701A4AFC
:105A70001278062A05D0072A07D10421174AFF31D8
:105A800002E00421164AFF311160164A11787F2284
:105A90000A40082A05D0142A07D10421124AFF31EE
:105AA00002E00421114AFF3111601A79DB790023E9
:105AB0000F4A13700F4A13700F4B1B68002B02D054
:105AC0000E4A12781A7110BD34800440BC0F0020B9
:105AD00080E100E000C006402904002008C0044026
